:100000000210FF0261092202372522027C187F00BC
:10001000222222028401E4FFFE1206C4600C0FEFCC
:1000200070010E09E970F20A80EF22028406EE30B8
:10003000E707C3E49FFFE49EFE2290029AF0A3EF3D
:10004000F0222202840202038EE86480F8E933E899
:100050003360110460F0ED33EC337009E8FCE9FD26
:10006000EAFEEBFF220460DED3EB9FEA9EE99DE807
:10007000C2E78CF0C2F795F0400CE8CCF8E9CDF976
:10008000EACEFAEBCFFB12035985D0F05804700387
:1000900020D5B3E80470075002B2D502039892D578
:1000A000EC0460F7E4CCC0E0C398F8603B941860BF
:1000B00008400DD0E0FB020370E4FBFAC9FC802885
:1000C000E830E406E4C9FBE4CAFCE830E305E4C92F
:1000D000CACBFCE854076010F8C3E913F9EA13FA35
:1000E000EB13FBEC13FCD8F130F52FC3E49CFCEFD1
:1000F0009BFFEE9AFEED99FDD0E0FBEF4E4D4C706C
:100100001222DB03020395EC2CFCEF33FFEE33FEEF
:10011000ED33FDED30E7EB020370EF2BFFEE3AFE1F
:10012000ED39FDD0E0FB50130BBB0003020398ED4B
:1001300013FDEE13FEEF13FFEC13FC020370EC4D06
:100140006011E8497017ED33EC3304600DE4FCFFF7
:10015000FEFD22E933E8330470F802038E120359DE
:1001600058046009E4CC2481500628500902039801
:10017000284003020395C0E0EB4A7044B98006D0E2
:10018000E0FB020384EF4E701CBD8008EBFFEAFE2B
:10019000E9FD80EBE98DF0A4FEE5F0020227E9CD50
:1001A000F9EAFEEBFFEF89F0A4FCE5F0CE89F0A4BC
:1001B0002EFFE435F0CD89F0A42DFEE435F0806704
:1001C000EF4E7005BD80D780C3EF8BF0A4ACF0EE8E
:1001D0008BF0A42CFCE435F0F8EF8AF0A42CE5F0C9
:1001E00038FCE433CB8DF0A42CFCE5F03BF8EE8A30
:1001F000F0A42CFCE5F038F8E433CF89F0A42CFC13
:10020000E5F038CF3400CE89F0A42FFFE5F03EFEB4
:10021000E433C98DF0A42EFEE5F039CD8AF0A42F89
:10022000FFE5F03EFEE43DFD33D0E0FB50070BBBA5
:10023000000F020398EC2CFCEF33FFEE33FEED339E
:10024000FD020370020398EC5D046005E859047038
:100250000302038E120359580460F6EC4860F2EC76
:100260007004FDFEFF22C860DB2481C85009C398DA
:10027000600250060203959850CAF582E9294B4A5C
:100280007005AB8202038475F0007C1A7880C3EF9E
:100290009BEE9AED99400DC3EF9BFFEE9AFEED9910
:1002A000FDE842F0DC23ACF0D0E0FFD0E0FED0E08F
:1002B000FDAB8220E7101BEB60BAEC2CFCEF33FFA8
:1002C000EE33FEED33FD020370E803F830E705C0BE
:1002D000F075F000EF2FFFEE33FEED33FD40B83048
:1002E000E7C280AA75F020800E75F010800575F0C9
:1002F000087D007E007F003392D530D50312098E31
:10030000EC334010EF33FFEE33FEED33FDEC33FC06
:10031000D5F0ED22E5F0247EA2D513CC92E7CDCE28
:10032000FF22EDD2E7CD33EC3392D524814006E4B1
:10033000FFFEFDFC22FCE4CFCECDCC24E0501174B6
:10034000FF80EDC3CC13CCCD13CDCE13CECF13CFC6
:100350000470F030D5DE02098EE9D2E7C933E83304
:10036000F892D5EDD2E7CD33EC33FC5002B2D52272
:10037000EC30E7100FBF000C0EBE00080DBD0004EE
:100380000BEB6014A2D5EB13FCED92E7FD2274FF9A
:10039000FCFDFEFF22E480F8A2D574FF13FC7D80F3
:1003A000E480EF74F8CC6480CCC86480C8F5820423
:1003B000604FC3EB9FF5F0EA9E42F0E99D42F0E802
:1003C0009C45F0603C501DE5825FFFE582D313CB76
:1003D0005BCBF42B5582FB50280ABA002409B900E4
:1003E0002008801DE5825BFBE582D313CF5FCFF44D
:1003F000C3132F5582FF50090EBE00050DBD00012D
:100400000CC3EB9FF5F0EA9E42F0E99D42F0E89CB8
:1004100045F06007CC4820E701B3EC22F920E7362D
:1004200024F950037907E4F42402FBE58215827075
:10043000021583DBF6E024FB501BE96014E4F0E5D1
:1004400082158270021583E004F0B40A08E4F0D942
:10045000EE7401F00A22C2D522ED33EC3392D5FAC4
:10046000602AB4FF33EDC2E77BFF60067A04797E31
:10047000E4227A04798720D5047A047982224E61B5
:100480004E002B494E46002D494E4600E47A08F0B6
:10049000A3DAFC7B00740722C083C082ECC0E0EDCD
:1004A000C0E0EEC0E0EFC0E0EA75F010A4CAABF027
:1004B00075F04DA42BFBE435F0FCEA2410FAEB3484
:1004C000C5FBEC34D9FCEDC2E7FF75F056A4F4246B
:1004D00011C5F0F434C58FF0A42AE5F03BE43CF0FC
:1004E00020E71412058ED0E0FFD0E0FED0E0FDD072
:1004F000E0FC1202478014F40412058ED0E0FFD015
:10050000E0FED0E0FDD0E0FC12013ED082D083E0DE
:10051000FAEDD2E7CD33EC332482FBE4C3CF33CF03
:10052000CE33CECD33CD33DBF37B0775F00A846059
:1005300004F0A31B0AE5F0F0A38FF0740AA4FFAC4B
:10054000F08EF0740AA42CFEACF050010C8DF07407
:100550000AA42CFDE435F0F0A3DBDE7407223F8013
:1005600000004120000042C80000447A0000461C00
:10057000400047C35000497424004B1896804CBE7D
:10058000BC205A0E1BCA6753C21C749DC5AEFB60CB
:10059000065407601C23231205BCEB543860091273
:1005A00005A81205B712013EECF8EDF9EEFAEFCB13
:1005B00022EB1205B780F1543803241C90055EFE2F
:1005C00093FC0EEE93FD0EEE930ECE93FF22E70901
:1005D000F608DFFA8046E709F208DFFA803E8882F3
:1005E0008C83E709F0A3DFFA8032E309F608DFFA2B
:1005F0008078E309F208DFFA807088828C83E3094F
:10060000F0A3DFFA806489828A83E0A3F608DFFA28
:10061000805889828A83E0A3F208DFFA804C80D276
:1006200080FA80C680D4806980F28033801080A6F2
:1006300080EA809A80A880DA80E280CA803389824A
:100640008A83ECFAE493A3C8C582C8CCC583CCF0F6
:10065000A3C8C582C8CCC583CCDFE9DEE7800D899D
:10066000828A83E493A3F608DFF9ECFAA9F0EDFBA4
:100670002289828A83ECFAE0A3C8C582C8CCC583EC
:10068000CCF0A3C8C582C8CCC583CCDFEADEE88045
:10069000DB89828A83E493A3F208DFF980CC88F0B7
:1006A000EF60010E4E60C388F0ED2402B4040050E8
:1006B000B9F582EB2402B4040050AF232345822312
:1006C00090061E73BB010689828A83E0225002E7EE
:1006D00022BBFE02E32289828A83E49322BB010CBF
:1006E000E58229F582E5833AF583E0225006E92583
:1006F00082F8E622BBFE06E92582F8E222E582299D
:10070000F582E5833AF583E49322BB010689828A68
:1007100083F0225002F722BBFE01F322F8BB010D49
:10072000E58229F582E5833AF583E8F0225006E96F
:100730002582C8F622BBFE05E92582C8F222EF8D8C
:10074000F0A4A8F0CF8CF0A428CE8DF0A42EFE2229
:10075000BC000BBE0029EF8DF084FFADF022E4CC8D
:10076000F875F008EF2FFFEE33FEEC33FCEE9DEC56
:10077000984005FCEE9DFE0FD5F0E9E4CEFD22ED9C
:10078000F8F5F0EE8420D21CFEADF075F008EF2FE6
:10079000FFED33FD4007985006D5F0F222C398FDD7
:1007A0000FD5F0EA22C2D5EC30E709B2D5E4C39DFB
:1007B000FDE49CFCEE30E715B2D5E4C39FFFE49E58
:1007C000FE120750C3E49DFDE49CFC800312075019
:1007D00030D507C3E49FFFE49EFE22C5F0F8A3E0F6
:1007E00028F0C5F0F8E582158270021583E038F034
:1007F00022BB0110E58229F582E5833AF583E0F515
:10080000F0A3E0225009E92582F886F008E622BB31
:10081000FE0AE92582F8E2F5F008E222E5832AF5EE
:1008200083E993F5F0A3E99322F8BB0111E582294E
:10083000F582E5833AF583E8F0E5F0A3F02250096C
:10084000E92582C8F608A6F022BBFE09E92582C880
:10085000F2E5F008F222EF2BFFEE3AFEED39FDEC67
:1008600038FC22C3EF9BFFEE9AFEED99FDEC98FC5D
:1008700022E88FF0A4CC8BF0A42CFCE98EF0A42C01
:10088000FC8AF0EDA42CFCEA8EF0A4CDA8F08BF04D
:10089000A42DCC3825F0FDE98FF0A42CCD35F0FC4B
:1008A000EB8EF0A4FEA9F0EB8FF0A4CFC5F02ECD17
:1008B00039FEE43CFCEAA42DCE35F0FDE43CFC22FC
:1008C00075F008758200EF2FFFEE33FECD33CDCCEF
:1008D00033CCC58233C5829BED9AEC99E582984072
:1008E0000CF582EE9BFEED9AFDEC99FC0FD5F0D64F
:1008F000E4CEFBE4CDFAE4CCF9A88222B800C1B979
:100900000059BA002DEC8BF084CFCECDFCE5F0CBB6
:10091000F97818EF2FFFEE33FEED33FDEC33FCEBEF
:1009200033FB10D703994004EB99FB0FD8E5E4F9AA
:10093000FA227818EF2FFFEE33FEED33FDEC33FC97
:10094000C933C910D7059BE99A4007EC9BFCE99A8B
:10095000F90FD8E0E4C9FAE4CCFB2275F010EF2FD0
:10096000FFEE33FEED33FDCC33CCC833C810D707D0
:100970009BEC9AE899400AED9BFDEC9AFCE899F80B
:100980000FD5F0DAE4CDFBE4CCFAE4C8F922C3E4F5
:100990009FFFE49EFEE49DFDE49CFC22EB9FF5F0AE
:1009A000EA9E42F0E99D42F0E89C45F022E8600FA3
:1009B000ECC313FCED13FDEE13FEEF13FFD8F12291
:1009C000E8600FEFC333FFEE33FEED33FDEC33FC95
:1009D000D8F122BB010789828A83020A0D5005E9FA
:1009E000F8020B16BBFE05E9F8020B2289828A8306
:1009F000020B2EBB010789828A83020A255005E972
:100A0000F8020B3EBBFE05E9F8020B4A22E0FCA30C
:100A1000E0FDA3E0FEA3E0FF22E0F8A3E0F9A3E0FD
:100A2000FAA3E0FB22ECF0A3EDF0A3EEF0A3EFF0CD
:100A300022A8828583F0D083D082120A48120A4805
:100A4000120A48120A48E473E493A3C583C5F0C5AB
:100A500083C8C582C8F0A3C583C5F0C583C8C58255
:100A6000C822E0FBA3E0FAA3E0F922F8E0FBA3A38D
:100A7000E0F925F0F0E582158270021583E0FA387E
:100A8000F022EBF0A3EAF0A3E9F022E493FB740177
:100A900093FA740293F922D083D082F8E49370120F
:100AA000740193700DA3A393F8740193F582888366
:100AB000E4737402936860EFA3A3A380DFEC8EF06D
:100AC000A4CCC5F0CCCDF8EFA4CEC5F02DFDE43C10
:100AD000FCE8A42EC8C5F03DFDE43CFCEFA4FFE516
:100AE000F028FEE43DFDE43CFC22EF4E6012EF6096
:100AF000010EEDBB010B89828A83F0A3DFFCDEFAD5
:100B00002289F05007F709DFFCA9F022BBFEFCF3B5
:100B100009DFFCA9F022E6FC08E6FD08E6FE08E68F
:100B2000FF22E2FC08E2FD08E2FE08E2FF22E49375
:100B3000FC740193FD740293FE740393FF22ECF6A0
:100B400008EDF608EEF608EFF622ECF208EDF208F2
:100B5000EEF208EFF222E508244FF582E43403F5C3
:100B600083E005082290034C30070390034FE4759F
:100B7000F001120A6B0206C42000E97F2ED2008029
:100B800018EF540F2490D43440D4FF30040BEF24DA
:100B9000BFB41A0050032461FFE50960021509057E
:100BA0000CE50C7002050B30070E90034CE475F059
:100BB00001120A6BEF02070A020FD97403D20780F1
:100BC00003E4C207F50890034C120A82E4F509F524
:100BD0000BF50CE50960077F20120B9980F5750A6B
:100BE000FFC201C200C202C203C205C206C208128D
:100BF0000B65FF700D3007057F00120BAAAF0CAE1E
:100C00000B22B4255FC2D5C204120B65FF24D0B4F9
:100C10000A00501A75F00A780930D50508B6FF01A8
:100C200006C6A426F620D5047002D20380D924CFAC
:100C3000B41A00EF5004C2E5D204020E9CD2018027
:100C4000C6D20080C0D20280BCD2D580BAD2058084
:100C5000B47F20120B992002077401B5090040F1FE
:100C6000120B56FF120B99020BD3D208D2068095B5
:100C7000120B56FB120B56FA120B56F94A4B700622
:100C8000799A7A0F7BFF20022EE509602A7E008E7A
:100C9000827583001206DD60060EEE650A70F0C2F2
:100CA000D5EBC0E0EAC0E0E9C0E0EE120EFDD0E016
:100CB000F9D0E0FAD0E0FB1206C4FF60AAEBC0E076
:100CC000EAC0E0E9C0E0120B99D0E02401F9D0E0DD
:100CD0003400FAD0E0FBE50A0460DCD50AD980874D
:100CE000D20280A2120EDF60F7E50A70010412043E
:100CF0001CA90A600DE50A600914F50A120F87EFB6
:100D000060F3EA30E702F404C3995079EAF4250A63
:100D10000430E701E404F50A800D120EDF60C1EA39
:100D2000050A250A12041CEA90037BF030E701E46F
:100D3000250A04D50A0420050114120EFDE4C0E0C2
:100D4000120F8790037BE0601320E70714F0120B6B
:100D500081802204F0D0E014C0E07F00120B81E516
:100D60000A6007120B78150A800B300503120B7806
:100D7000D0E0020BD3D0E00480C4120EDF609EE509
:100D80000A0412041C90037BEAF0E50A20050260C5
:100D900001042404120EFD74FF04C0E0120F871238
:100DA0000B81E50A2005026003120B78D0E0B50A3A
:100DB000E87F45120B8B90037BE07F2B30E7047FAD
:100DC0002DF404C0E0120B99D0E075F00A84C0F055
:100DD000120B82D0E0120B82020BD37910800279C1
:100DE00008C206C2088008D2D5790A8004790AC2EE
:100DF000D5E50A047002F50AE4FAFDFEFF120B566F
:100E0000FC7B08200113120B56FD7B1030000A12E8
:100E10000B56FE120B56FF7B20EC3382D592D55039
:100E200013C3E43000069FFFE49EFEE42001039D0F
:100E3000FDE49CFCE4CBF8C201EC700CCFCECDCC31
:100E4000E824F8F870F38017C3EF33FFEE33FEEDBC
:100E500033FDEC33FCEB33FB994002FB0FD8E9EB9D
:100E6000300105F8D0E0C448B201C0E00AEC4D4EB4
:100E70004F78207B0070C2EAB50A0040BCC0E01287
:100E80000EFFD0F0D0E0200104C4C0E0C4B201C025
:100E9000F0120B82D0F0D5F0EB020BD3120A970CB4
:100EA00070530DDB580C414C0C3D420DDF4F0DE7EC
:100EB000440DE7490C56430DED550D1A460D7A4584
:100EC0000CE4470FBA500C452D0C492E0C6C2B0C22
:100ED0004D230C6A200FA32A0C054800000C64E582
:100EE0000AB4FF03750A06120B56FC120B56FD12CC
:100EF0000B56FE120B56FF900374020459790AA296
:100F0000D5200314300509B910020404B9080104FE
:100F1000A2D52006025001042002689202B5090001
:100F20005034C0E07F203003197F30A20272067275
:100F300005500F120F56C202C206C205C2087F300A
:100F4000800F300503E9C0E0120B99300503D0E0B3
:100F5000F9D0E0B509CC3005177F30B9100C120B71
:100F6000997F583004077F788003B90803120B99E2
:100F70003002057F2D020B997F202008F87F2B205F
:100F800006F322920280CF7F00B40700500B247436
:100F9000F582E43403F583E0FF22286E756C6C293A
:100FA00000D201120B563001F8C201780930D50188
:100FB00008F6020C052D50434958120B562403B471
:100FC00005004001E4900FB593120B8A743A120B9E
:100FD0008AD203750904020DDBEFB40A07740D12FF
:100FE0000FE4740A309811A899B8130CC29830987D
:100FF000FDA899C298B811F63099FDC299F59922C9
:1010000000010000FFFFFFFFFFFFFFFFFFFFFFFFEB
:10101000900265120A2574FFFFFEFDFC900265E058
:10102000F8A3E0F9A3E0FAA3E0FBC312099C60383F
:101030007F807E967D187C4B900265E0F8A3E0F9F6
:10104000A3E0FAA3E0FB1203A36002501B7F807EA3
:10105000967D187CCB900265E0F8A3E0F9A3E0FA56
:10106000A3E0FB1203A3500F900265E0FCA3E0FD98
:10107000A3E0FEA3E0FF22900265E0FCA3E0FDA355
:10108000E0FEA3E0FF120322900269120A259002FB
:1010900069E0FCA3E0FDA3E0FEA3E0FFEC1202E4A4
:1010A000C8ECC8C9EDC9CAEECACBEFCB900265E067
:1010B000FCA3E0FDA3E0FEA3E0FF120049E4FBFA7D
:1010C000F9F81203A35025900269E0FCA3E0FDA308
:1010D000E0FEA3E0FFE4FAF9F8EF2401FFEA3EFEA8
:1010E000E93DFDE83CFC900269120A25900269E0A6
:1010F000FCA3E0FDA3E0FEA3E0FFEC1202E42278F3
:101100007FE4F6D8FD7581660211460225FFE4935F
:10111000A3F8E493A34003F68001F208DFF48029EA
:10112000E493A3F85407240CC8C333C4540F4420D9
:10113000C8834004F456800146F6DFE4800B0102C8
:1011400004081020408090118BE47E019360BCA3C2
:10115000FF543F30E509541FFEE493A360010ECF16
:1011600054C025E060A840B8E493A3FAE493A3F840
:10117000E493A3C8C582C8CAC583CAF0A3C8C58200
:10118000C8CAC583CADFE9DEE780BE4103FC00446C
:1011900003F8000000004104090041040800410474
:1011A00007004103FF0041040A0041037F0044039C
:1011B0008000000000602800000010000E000112F6
:1011C000101E000218213E00031E410D00041001F4
:1011D0002C000518240C000618231C000718203DBD
:1011E000004103DD005A03DE000244140898078022
:1011F0000058002C00940465043800040005002405
:10120000010100900346E0FFA3E0FEA3E0CF9003BE
:101210004FF0A3EEF0A3EFF0900349E0CBF0A3E092
:10122000CAF0A3E0C9F07F22900352AD82AC8312D2
:1012300006C48D828C83F0A309E970010ADFEC906B
:101240000349E0FBA3E0FAA3E0F9020BBBC2D5E837
:1012500030E70FB2D5E4C39BFBE49AFAE499F9E4D2
:1012600098F8EC30E717B2D51212831208FCE4C3E9
:101270009BFBE49AFAE499F9E498F880031208FCDD
:1012800030D50DE4C39FFFE49EFEE49DFDE49CFC8D
:101290002254785374617465203D203078253032B3
:1012A000627800525820536574204576656E743A12
:1012B000253032627820004D697069496E436C6B4D
:1012C0003A256C642C2063616C6320756C427974E0
:1012D00065636C6B3A256C642C20756C506879439F
:1012E0006C6B3A256C642C2075634270703A2562F1
:1012F000642C2075635478506F72744E756D3A305B
:101300007825303262782C20756354784C616E6594
:101310004E756D3A307825303262780042757273BE
:1013200074204D6F6465206C616E65207261746518
:1013300020696E6372656173652038304D005258C4
:101340005B485D3A2048746F74616C3A25642C48A0
:101350006163746976653A25642C4873773A25642D
:101360002C4866703A25642C4862703A25642C48F3
:1013700073706F6C3A2562640052585B565D3A2078
:1013800056746F74616C3A25642C56616374697687
:10139000653A25642C5673773A25642C5666703A64
:1013A00025642C5662703A25642C5673706F6C3A23
:1013B00025626400506F72743A2025303262782CB6
:1013C000204C616E653A20253032627800445343E8
:1013D00020736F667420776F7264636E743B007263
:1013E0006462797465636C6B3A25642C2072647056
:1013F0006978636C6B3A256420006873773A2564DA
:101400002C206862703A256420686163746976658F
:101410003A2564007563427070203078253032625E
:10142000783B00726561642064656C61793A256C73
:10143000750041645F6C6D74785F77726974655F85
:10144000636C6B203D20256C756B687A0041645F8E
:101450006C6D74785F726561645F636C6B203D20B6
:10146000256C756B687A0000FFFFFFFFFFFF000629
:10147000B3A02801010101041F0103803E2278EE80
:101480006995AD5246A1270F5054BFCF00814081CE
:10149000809500714F81C0B300D1C0010108E80000
:1014A00030F2705A80B0588A0055502100001E005A
:1014B0000000FD0018901EFF8A000A202020202036
:1014C00020000000FC005647323855514C31410A8B
:1014D000202020000000FF00313233343536373809
:1014E000393032380A01F002035AF15004131F1048
:1014F0000F1E015D5E5F60617603123F23090707DF
:1015000083010000E200EA6D030C001000383C2863
:1015100000600102036DD85DC401788853123078F1
:1015200083341D6D1A000002013090F000000000AD
:1015300000E305C000E421001C00E6060501606030
:1015400012366C80A070703E803020080C6D5521E2
:1015500000001A6FC200A0A0A05550302035006DC9
:10156000552100001A0027000000000000000000C4
:10157000000000000000000000000000000000006B
:10158000000000000000000000000000000000005B
:10159000000000000000000000000000000000004B
:1015A000000000000000000000000000000000003B
:1015B000000000000000000000000000000000002B
:1015C000000000000000000000000000000000001B
:1015D000000000000000000000000000000000000B
:1015E00000000000000000000000000000000000FB
:1015F00000000000000000000000000000000000EB
:1016000000000000000000000000000000000000DA
:1016100000000000000000000000000000000000CA
:1016200000000000000000000000000000000000BA
:1016300000000000000000000000000000000000AA
:10164000000000000000000000000000000000009A
:10165000000000000000000000000000000000008A
:10166000000000000000000A5468697320666D20C5
:101670007278706C6C5F696E5F636C6B000A5468A3
:10168000697320666D20646874785F6469765F6C46
:10169000696E6B5F636C6B000A5741524E494E474F
:1016A0003A2046726571206D6574657220676574B5
:1016B000206661696C005761726E696E673A2069D5
:1016C0006E70757420697320696E76616C69640050
:1016D0000A6C6F6164206B657920646F6E655B30A6
:1016E0007825303262785D000A5061747465726EDC
:1016F000207063722062616E64203D203078253056
:10170000326278000A5061747465726E2070637280
:10171000206C6F636B004D495049566964496E6691
:101720006F557064617465212121212121004D498B
:101730005049566964496E666F436C656172212138
:101740002121212100417564496E666F55706461E5
:10175000746521212121212100417564496E666F44
:10176000436C656172212121000A466C6173682017
:1017700045444944204C6F6164000A466C617368BB
:101780002045444944206E6F742065787369743A2B
:101790000054784576656E742D2562640000000063
:1017A0000000000000000000000000000000000039
:1017B0000000000000000000000000000000000029
:1017C0000000000000000000000000000000000019
:1017D0000000000000000000000000000000000009
:1017E00000000000000000000000000000000000F9
:1017F00000000000000000000000000000000000E9
:1018000000000000000000000000000000000000D8
:1018100000000000000000000000000000000000C8
:1018200000000000000000000000000000000000B8
:1018300000000000000000000000000000000000A8
:101840000000000000000000000000000000000098
:101850000000000000000000000000000000000088
:101860000000000000000000000000000000000078
:101870000000000000000000000000000000000068
:101880000000000000000000000000000000000058
:101890000000000000000000000000000000000048
:1018A0000000000000000000000000000000000038
:1018B0000000000000000000000000000000000028
:1018C0000000000000000000000000000000000018
:1018D0000000000000000000000000000000000008
:1018E00000000000000000000000000000000000F8
:1018F00000000000000000000000000000000000E8
:1019000000000000000000000000000000000000D7
:1019100000000000000000000000000000000000C7
:1019200000000000000000000000000000000000B7
:1019300000000000000000000000000000000000A7
:101940000000000000000000000000000000000097
:101950000000000000000000000000000000000087
:101960000000000000000000000000000000000077
:101970000000000000000000000000000000000067
:101980000000000000000000000000000000000057
:10199000000000000000000000000000004D697021
:1019A0006920445349204F7574004D697069204384
:1019B0005349204F7574004D697069204F7574202C
:1019C00044697361626C6500506F727420307E33BD
:1019D0002052702043616C6920526573756C743AB3
:1019E0002025303262782C2025303262782C202558
:1019F000303262782C20253032627800506F727459
:101A000020307E332052642043616C69205265731C
:101A1000756C743A2025303262782C202530326281
:101A2000782C2025303262782C20253032627800E4
:101A30004450687920436C6B206275727374204D3A
:101A40006F6465004450687920436C6B20636F6E4F
:101A500074696E7565204D6F646500445349207646
:101A60006964656F204E4F4E5F42555253545F4D2F
:101A70004F44455F574954485F53594E435F45565D
:101A8000454E540044534920766964656F204E4F9B
:101A90004E5F42555253545F4D4F44455F57495432
:101AA000485F53594E435F50554C5345004453498A
:101AB00020766964656F2042555253545F4D4F4400
:101AC00045004D49504954585F33445F4D4F44459C
:101AD0003A204D4950495F4C4546545F524947486A
:101AE000545F4D4F4445004D49504954585F33446D
:101AF0005F4D4F44453A204D4950495F4E4F5F334B
:101B0000445F4D4F44450076636F204461746152D9
:101B10006174653A20256C752C20256C7500506F1A
:101B2000737420646976203D2032004132303720C2
:101B300052475F4C4D5458504C4C5F52414E4745B4
:101B40005F53454C203A203078253032627800418E
:101B5000323041204C4D5458504C4C5F4449565FF4
:101B6000534554203A2030782530326278004C4D6D
:101B70005458504C4C2063616C69206661696C005C
:101B80004C4D5458504C4C206C6F636B20666C610C
:101B9000673A3078253032627820004C4D545850E6
:101BA0004C4C20756E6C6F636B004C4D5458504C10
:101BB0004C2063616C6962726174696F6E2062614E
:101BC0006E646F75743A2030782530326278203038
:101BD000782530326278004279746520636C6B3A04
:101BE00025754D687A00636B5F706F7374202830C1
:101BF000784639413929203D2030782530326278C5
:101C000000636B5F7A65726F202830784639413700
:101C100029203D20307825303262780068735F6C6F
:101C2000707820202830784639413429203D2030F2
:101C30007825303262780068735F70726570202892
:101C400030784639413529203D20307825303262C0
:101C5000780068735F747261696C28307846394126
:101C60003629203D20307825303262780068735F55
:101C700072717374202830784639384129203D200C
:101C8000307825303262780000000000000000004B
:101C90000A547261696E696E6720657120696E66AB
:101CA0006F3A000A4C302076616C69645B307825AD
:101CB0003034785D2C45515B307825303262785D68
:101CC000000A4C312076616C69645B3078253034D1
:101CD000785D2C45515B307825303262785D000AA2
:101CE0004C322076616C69645B3078253034785DE5
:101CF0002C45515B307825303262785D000A4C33D8
:101D00002076616C69645B3078253034785D2C45D1
:101D1000515B307825303262785D000A4551486960
:101D200067203D2030782530326278000A45514CDA
:101D30006F77203D2030782530326278000A534397
:101D4000414E205354524154000A46454353544196
:101D50005445203D2030782530326278000A4C61AD
:101D60006E65457272203D203078253034782C30F5
:101D700078253034782C3078253034782C3078251C
:101D8000303478000A5363616E5F45514C4F5720E1
:101D90003D20307825303262782C30782530326220
:101DA000782C307825303262782C307825303262C9
:101DB00078000A5363616E5F4551484947203D20D2
:101DC000307825303262782C307825303262782CA9
:101DD000307825303262782C3078253032627800C5
:101DE0000A414344525F4953535545000A56616CBA
:101DF00069644571203D20307825303262782C307E
:101E00007825303262782C307825303262782C3068
:101E1000782530326278000A536B6577203D203098
:101E20007825303262782C307825303262782C3048
:101E30007825303262782C30782530326278000094
:101E4000000102030405060708090A0B0C0D0E0F1A
:101E50000F0F0F0F0F0F0F0F0F0F0F0F0F0F0F0F92
:101E60000000000000000000000000000000000072
:101E7000000102030405060708090A0B0C0D0E0FEA
:101E80000FFFFFFFFFFFFFFFFFFFFFFFFF0000004F
:101E90000001010101000000000A436F6C6F7269CC
:101EA0006D65747279206368616E6765203D2030CE
:101EB000782530326278000A44705278494E464F95
:101EC0003A000A486270202020203A20252D3864EC
:101ED0002020566270202020203A20252D386400D2
:101EE0000A486670202020203A20252D38642020C2
:101EF000566670202020203A20252D3864000A489C
:101F000073796E6320203A20252D38642020567383
:101F1000796E6320203A20252D3864000A486163D9
:101F2000742020203A20252D3864202056616374C7
:101F30002020203A20252D3864000A48746F6C2038
:101F400020203A20252D3864202056746F6C2020E4
:101F5000203A20252D3864000A44657074682020DA
:101F60003A20252D3862642020537061636520205B
:101F70003A20252D386264000A506978436C6B2042
:101F80003A20252D386C6420205065616B436C6BC2
:101F90003A20252D386C64000A52656672657368B4
:101FA00052617465203D202564000A5278537461A3
:101FB0007465203D20256264000A447052782055E3
:101FC0006E706C7567000A527820506C7567000A55
:101FD0005761697420454343000A45636320657275
:101FE00072000A52782072652D747261696E696E92
:101FF00067000A534B657720556E6C6F636B000A60
:10200000436F6C6F72207370616365206368616EEB
:102010006765000A4D7361206368616E6765000A39
:102020004453432043484E47000A476F746F205083
:102030004352000A417564696F20636867000A4172
:1020400043445220556E6C6F636B000A52415445F5
:102050005F4C414E45203D20307825303262782C4F
:1020600030782530326278000A44652D736B6577CD
:1020700020657272000A5761697420706372207360
:102080007461626C652E2E2E000A50435220484126
:10209000524420524553455400447363456E6320B7
:1020A000536C696365203D202562642C436F6D701D
:1020B00072657373526174696F203D2025626400FC
:1020C000447363456E6320536C6963654865696753
:1020D0006874203D2025642C536C696365576964DE
:1020E0007468203D2025642C4368756E6B53697AB3
:1020F00065203D2025640041645F63736374785FED
:1021000068616C665F7069785F636C6B203D202549
:102110006C756B687A0041645F64736374785F64A4
:1021200073635F72645F636C6B203D20256C756B1D
:10213000687A0041645F64736374785F6473635F9B
:10214000636C6B203D20256C756B687A0041645F81
:1021500064736374785F6473635F6F75745F636CDB
:102160006B203D20256C756B687A0011000089306A
:10217000800F000DE00780037803780200032B0036
:1021800020BE97000C000F00110009180010F0038A
:102190000C2000060B0B330E1C2A38465462697063
:1021A00077797B7D7E01020100094009BE19FC1987
:1021B000FA19F81A381A7822B62AB62AF62AF443F7
:1021C0003463740000000000000000000000000004
:1021D00000000000000000000000000000000000FF
:1021E00000000000000000000000000A4750494FB6
:1021F0002054726967676572204C6F77000A4750F8
:10220000494F2054726967676572204869676800A2
:102210000A44702052782076696420696E666F3AAD
:10222000000A436F6C6F7253706163655B25626473
:102230005D000A436F6C6F7244657074685B256261
:10224000645D000A52785F5065616B5F636C6B2060
:102250003D2020256C640075636142726967687473
:102260006E6573735B315D3A307825303262782C5D
:10227000207563614272696768746E6573735B325F
:102280005D3A3078253032627800445052585F53BE
:1022900054415449435F4844525F4E4F5449465954
:1022A0005F4556454E540054585F564944454F5F6C
:1022B0004F4E5F4556454E545F3300445052585F71
:1022C000564944454F5F4F46465F4556454E54007C
:1022D0000000004D6970692044435320454E44007E
:1022E0000511000529000510000528001536C62334
:1022F000FF2023E010237A07237D0C237E0C23FB91
:102300000123FFE023660023230723FB0123FF258E
:10231000232F00230D07230E6B23111123130023FA
:102320001401232520230F092310A5231217231599
:1023300001230C01230910233803230A0023070279
:1023400023BCFF23BDFF23BEFF23BFFF23C0FF230A
:10235000C1FF23C2FF23C3FF23FB0123FF10392A40
:10236000000008E7392B000008E723030123BB1313
:1023700023C00339C189280028C200033A0545005B
:102380000F0277013539C210F023350039440000BF
:102390002351FF23532423FB014445425547004961
:1023A0004E464F005741524E004552524F52004345
:1023B000524954000A5B252D35735D2025730003B7
:1023C000FF2399FF239FFF23A4FF23A9FF23AF002F
:1023D00000000000000000000000000000000000FD
:1023E00000000000000000000000000000000000ED
:1023F00000000000000000000000000000000000DD
:1024000000000000000000000000000000000000CC
:1024100000000000000000000000000000000000BC
:1024200000000000000000000000000000000000AC
:10243000000000000000000000000000000000009C
:102440000000000000000000000000000000000A82
:10245000447052782048504420495251000A447038
:102460005278204850442048696768000A447052F6
:102470007820485044204C6F77000A5278205274DC
:1024800065726D2069732030782530326278000AD9
:1024900043616C692073756363657373000A4361FC
:1024A0006C69206661696C6564000A44702072780A
:1024B000706C6C2062616E64203D20307825303273
:1024C00062782C307825303262782C3078253032A2
:1024D00062782C30782530326278000A706372207E
:1024E0006873796E63206D6F646500212021200080
:1024F000F02222222223805656AAAA40636868CC82
:10250000CCC0FE436F6C6F7253706163653A2025D7
:102510006264202C20436F6C6F7244657074683A5B
:1025200020256264004453435B485D3A2048746F41
:1025300074616C3A25642C486163746976653A2548
:10254000642C4873773A25642C4866703A25642CCD
:102550004862703A25642C4873706F6C3A25626447
:10256000004453435B565D3A2056746F74616C3A75
:1025700025642C566163746976653A25642C56731C
:10258000773A25642C5666703A25642C5662703A68
:1025900025642C5673706F6C3A256264000A436898
:1025A0006970506F7765724F6E000A46575F5645E7
:1025B00052203D20307825303262782C307825301A
:1025C0003262782C30782530326278000A46532007
:1025D0003D203078253032627800901000E49390EE
:1025E000E080F0901001E49390E081F0901002E41C
:1025F0009390E082F0901003E49390E083F0221235
:10260000567B127BBC123FD3B1DAF13E7BFF7A25B9
:10261000799DF12D7A2579AA90E081E090029AF0D7
:1026200090E082E090029BF090E083E090029C12A8
:102630008314125F8A123E4C80F87BFF900295E073
:1026400090029AF0E4FF900297120A829023BFE46E
:1026500093FEEFD39E50697B017A02799A9002C271
:10266000120A829002971286FC9002C2120A6290AD
:102670000349120A827B017A0279C6121203900280
:10268000C21286C2E49002C5F07B017A0279C612BA
:1026900000169002C5E0FDFB3395E0FAC3EB9FEA1C
:1026A0009E501DEDFF3395E0FE74C62FF582740237
:1026B0003EF583E0FF120FD99002C5E004F080C917
:1026C000227BFF7A1C7990F12D7A1C79A390F1F38B
:1026D000E0FE90F1F4F13512003A90F191F1287A90
:1026E0001C79C190F1F5E0FE90F1F6F13512003A57
:1026F00090F193F1287A1C79DF90F1F7E0FE90F1E8
:10270000F8F13512003A90F195F1287A1C79FD9094
:10271000F1F9E0FE90F1FAF13512003A90F197E00C
:1027200090029CF0E4FFC146E090029CF0E4FFD1EF
:10273000467BFF22FEE07C002400FFEC3E22128458
:102740000B1284237F01123F527F011272471276CF
:10275000AC7B017D0C7F091239F712693512000636
:10276000E49003FCF0127674128720E0A3F0227B41
:10277000017A02796C12385E7BFF7A227910F12D92
:102780007A227921900273D13F7BFF7A22793290AD
:102790000275D13F7B017A02797690F2E7E0FE90F4
:1027A000F2E8F1359000088FF012082990F2DFE08E
:1027B00090F2E01228709000048FF012082990F235
:1027C000E1E0FE90F2E212287312870590000412F5
:1027D00007F112289195F09000028FF012082990CD
:1027E000F2DBE0FE90F2DC12287390000A8FF01208
:1027F0000829900008125F281286CB12288D9C9021
:1028000000068FF012082990F2E9E0FE90F2EA1239
:1028100027359000128FF012082990F2E5E090F22F
:10282000E6117090000E8FF012082990F2E3E0FE9E
:1028300090F2E4117312870590000E1207F11191C6
:1028400095F090000C8FF012082990F2DDE0FE90D8
:10285000F2DE11739000148FF0120829900012120A
:102860005C3C1286CB118D9C9000108FF0020829E1
:10287000547FFEE02400FFEC3E2225E0246CF5822C
:10288000E43402F583E0FEA3E0FF900266E0FCA3DF
:10289000E0FDC3EF9DFFEE22F178F890003971085A
:1028A000900261EEF0A3EFF0E47BD07A077103F1C0
:1028B0007F90002EE0FB7A007014900263F1B2CE9C
:1028C000C313CE13D8F9F0EE900263F0800C90029F
:1028D00063D1457D07120750F17F90002BE0640122
:1028E0006006EB64014A700D900264E025E0F09010
:1028F0000263E033F0900263125E35F1F2F17F1271
:102900007140900265EEF0A3EFF012714F900267F4
:10291000EEF0A3EFF07BFF7A1379DF900263F148CA
:10292000900261F19BE4FF712D7BFF7A1379FA909D
:102930000251F148900253F19B90024D1259E0E48C
:10294000FF712D710E12866A120750F171120A255D
:10295000F16AE0FFF171F15D401A900253E07113EA
:1029600012866A120750900265118D9CFEE4FCFDF0
:10297000D13B800A900271120A31000000009000E1
:1029800032E0640160024107710E2DFDEE3CFC90C7
:10299000024D711C2DFFEC3EFE900263E0FCA3E0B3
:1029A000FD120ABD900275D14D900275710890021A
:1029B00079120A25900267E0FEA3E0FF900266E02C
:1029C0002FFF900265E03EFEF171F15D402DD15088
:1029D0009002757108C006C007F16AE0D158D007AF
:1029E000D006120863C006C007A3E0FEA3E0FBAA5E
:1029F00006E4D007D006120863800E900275120A12
:102A000031000000008008D135900275120A25902F
:102A10000275120A0D900271F15D4008D1359002E5
:102A200075120A257A1479149000317124900031BE
:102A3000E025E0FFE433AB07FA3395E0F9F8E4FF73
:102A40007E80FDFC1208FC90026D120A257119FFB0
:102A5000E4FCFD90026D120A19F1D5900253711C2D
:102A6000FFF1D2900263E0FEA3E0FFE4FCFD120858
:102A70007190026DD14D90026D7108C006C007F1D2
:102A80006AE0D158D007D00612086390026D120A8E
:102A900025E47B07FAF890026D7108900275120A1E
:102AA00019F188900032E064027037D3900254E04C
:102AB00094E8900253E094034028E47B02FAF9F88A
:102AC0009002757108C004C005C006C007E47B070A
:102AD000FAF9F890026D7108D003D002D001D0004D
:102AE000F1887BFF7A147923900269D198712DF1D6
:102AF00064AC06EC90F982F0EF90F983F022F0E4F8
:102B00007B08FAF9F8900035120A0D0208FC9002D1
:102B100053E0C313FCA3E013FD900251E0C313FE86
:102B2000A3E013227BFFE0900281F0E4FF90027D9E
:102B3000EFF0A3120A8278A97C027D017BFF7A2341
:102B400079CF7E007F8012069E90027DE0FFD31237
:102B50003E45505890040AE0FEEFC39E404E7B0174
:102B60007A027981900329120A8290027E1286FCF1
:102B7000900329120A62900349F191121203900303
:102B8000291286C290027DE075F003A424C0F5826C
:102B9000E43423F583120A8B90034FF19190035292
:102BA000120A827BFF7A2379B4120BC122F178F8E2
:102BB0001208FCF1C990026AE0701490026CF1B244
:102BC000CEC313CE13D8F9F0EE90026CF08009D189
:102BD000427D07120750F1C97A1B79D790026CF138
:102BE00046E4FF712D90026CE0FAA3E0FB7D3CFF10
:102BF000F1E190F9A4F07D32AF03F1E190F9A5D1B4
:102C0000417D07F1B9AB07EB240490F9A6D1417DD2
:102C10000612073E7D19120750AE0790F9A7EEF095
:102C2000EB240790F9A9F090026AE07054900269D1
:102C3000E0640190026C7027A3E0FBEE240790F99A
:102C4000A7F07C007D07AF03AE02F1B9EF24079037
:102C5000F9A9F090F9A4E0246790F98AF0800CD1EA
:102C6000457D0A12075090F98AEFF090026BE064FC
:102C700001701E90F9A5E0FF90F9A4E02F240A80CE
:102C80000C90F9A9741EF090F9A4E0243290F98A0E
:102C9000F07BFF7A1B79E690F9A971267BFF7A1CFD
:102CA000790190F9A771267BFF7A1C791C90F9A411
:102CB00071267BFF7A1C793790F9A571267BFF7A04
:102CC0001C795290F9A671267A1C796D90F98A12B6
:102CD00086BBF0E4FF612DF18B90026D7401F0E48E
:102CE000A3F0A3F0A3F0F164D13B90A200E0441064
:102CF000F054FBF090A201E054E0F0F090A20274D6
:102D0000A8F0E490A204F090A205F090A206F09042
:102D1000A207F090A20A7480D1347BC07A27790987
:102D20007800D312099C402D900271120A19C374C5
:102D3000C09BFF74279AFE740999FDE498FCF17812
:102D4000F8D312099C400ED135EF2410FFEE342742
:102D5000127C5ED13B7BFF7A1B7907D135900281D3
:102D6000120A25F164900285120A25E4FF712DE410
:102D700090026FF090026FE01253F9502212692E08
:102D80007C00900271F13F501690026EE004D13445
:102D900078011209C0D13B90026FE004F080D57F2A
:102DA000807E847D1E7C00900271F15D401AD135D9
:102DB00078011209ADD13B90A200E04404F07BFF02
:102DC0007A1B791EE4FF712D90A207E054F8FFF002
:102DD00090026EE0FE4F90A207F07BFF7A1B792BEA
:102DE000900281EEF1ADF1C1900271710890027014
:102DF000EFF0F1C1A37108AC00AD01AE02AF03E486
:102E0000FBFAF9F8C312099C6006900270E004F026
:102E100090A20AE05480FFF0900270E0FE4F90A272
:102E20000AF04480F07BFF7A1B794F900281EEF02C
:102E3000E4FF612DF0900271020A0D900271020A06
:102E400025F090026CE0FEA3E0FF7C0022120A2530
:102E5000900261E0FEA3E0FFFBAA06E4F9F8227D00
:102E60000FD1A47A2079F7D195712D7D12D1A47A52
:102E7000217916D195712D7D137F03F1067F32D113
:102E8000AA7A217933D195712D7D14D1A47A217933
:102E90004DD195612D900261120A0D900281120AA6
:102EA000257F01227F03F1067F057E00D1C6E4FD68
:102EB0007F031241B3900261120A257BFF22E05486
:102EC000F7F07F017E00EF1FAA0670011E4A601313
:102ED000E4FCFDC3ED9474EC940250EA0DBD0001D6
:102EE0000C80F022900261120A31000000007D3156
:102EF000D1A47A147932D195712D7D30D1A47A1470
:102F0000794DD195612D12874860131460181460B3
:102F1000202403702490026DE090C740F0227BFFD4
:102F20007A16796780067BFF7A16797DE4FF0226A0
:102F30004690026DE090E690F0227C0090026212D2
:102F40000A19C302099C7BFFE0FFA3E0900281CF36
:102F5000F0A3EFF0227F807E1A7D067C00120A1912
:102F6000D302099C900269020A0D900265E0FEA35B
:102F700022E4FCFD90027922E47BE87A03F92290B6
:102F80000263EEF0A3EFF022120856900269020AE3
:102F900025120A827B017A0279A922E0FFA3E09040
:102FA0000283CFF0A3EFF0221270F381D7F0E4FF99
:102FB000612DE0FEA3E078032212073E7D64020744
:102FC00050E47BA87A61F9F82290026CEEF0A3EF4E
:102FD000F022E4FCFD120856A804A905AA06AB07D6
:102FE000227C00AE0212073E7C037DE8120750EF00
:102FF0000422FD7C0002073E90038E7414F0A3743B
:1030000004F09003887401F0A3F0A3F07E007F45E4
:103010007D007B007A007922020AEA9003FCE060DE
:1030200021127668EF64017019FD7F091269397BFE
:10303000017A0379F811707BFF7A2179EBE4FF12B2
:1030400026469003FCE06027127668EF70217B0132
:103050007A0379F87FC8FEFDFC715170129003FC71
:10306000F01269357BFF7A2179FDE4FF12264622B2
:10307000B12CF1A4900264120A0DAB07AA06B1327A
:10308000C3EF9BFFEE9AFE12002ED3EF947FEE6407
:103090008094804004B132F1A4900264715E020910
:1030A000F3900385E0120A9730D60130E302310332
:1030B00003311104311F05315406316F0831A50960
:1030C00031CE0A32010B32580D32C90E32EC0F32BA
:1030D000F510000032F81284321254091265B67FDE
:1030E0000241F37157700951FA1170E490038CF0AA
:1030F00051FA7F287E00714D600241F81284357FBD
:103100000341F390038BE06401600241F87F0441C6
:10311000F390038DE06401600241F87F0541F37193
:1031200057700E51FA1170E4FF125E2BE490038C7D
:10313000F051FA7FB07E04714D600241F81284387C
:103140001261B11260617F06B1387F091261537D4F
:10315000010261E3125FEBEF6401600241F851FA92
:103160007F50FEFDFC7151600241F87F0841F37110
:1031700057701751F911707BFF7A20794B7828E648
:1031800090029AF008E6A312566651FA7F807E0CF0
:10319000714D600A12678EEF6401600241F812837C
:1031A0003B7F0941F37157700451F911707143600D
:1031B0000241F8125FB1EF70117F0791DB7BFF7A5C
:1031C000207968E4FF12264641C57F0A41F3715712
:1031D00070187F0691DB7F0191DBE490038CF01F78
:1031E00012843B12670151FA11707143600241F879
:1031F000126701EF70077F0112843B41C57F0B41CD
:10320000F371577029FF123F8812671A7F01126706
:103210003390039974FFF0A3F0A3F0E49003A0F0BF
:10322000A3F0A3F0A3F090038CF0900398F0123970
:103230001B126552EF600241F812000EEF6401703C
:10324000099003AC04F07F0C41F37F01123F88E446
:103250009003ACF07F0D41F37157701CFF12683E74
:1032600051FA11707BFF7A2079757F03122646E4AC
:1032700090038CF0900384F07F0112683E714370DC
:103280001C126832EF6401700E12678EEF640170D9
:10329000067F0EB138800612678EEF605B51FA7FB1
:1032A000D07E07714D7051900384E004F0E0640A11
:1032B00070137A2079891284867F0191DB0F123F87
:1032C000BD900384F051FA01707157701B90039305
:1032D000F090038C51F9117012663F9003AEEFF03D
:1032E0001266459003AFEFF07F0F800771577001B2
:1032F000F07F10A1381238F322F07B017A03798035
:1033000022F1A4B12C90026C120A251209D390026A
:1033100068120A25F1BA122F5D401090026C715E9E
:103320001209F3F1BA120A257F0022900264F1BD5E
:10333000120A1912085690026C122F5D7F0040028B
:103340007F01227B017A0379807F907E017D007C62
:10335000007101EF64012290038CE0640122120AE3
:103360000D900261020A62900261120A82E4FF710A
:10337000F2716190000491CF7F0171F27161900050
:103380000691CF7F0271F2716190000891CF7F03A7
:1033900071F2716190000A91CF7F0471F2716190B6
:1033A000000C91CF7F0571F2716190000E91CF7F7B
:1033B0000671F2716190001091CF7F0771F2716117
:1033C00090001291CF7F0871F2716190001491CF3B
:1033D0007F0971F2716191CC7F0A71F27161900085
:1033E00018EF12071C7F0B71F27161900019EF0248
:1033F000071CAB07900272120A3100000000EB12AA
:103400000A97342A00343401343E023448033452DB
:1034100004346205346F06347C0734890834960915
:1034200034A50A34B10B000034C690F7F6E0FE90E4
:10343000F7F7802690F7FAE0FE90F7FB801C90F7F4
:10344000F2E0FE90F7F3801290F7EAE0FE90F7EBDF
:10345000800890F7F0E0FE90F7F11227351286D63B
:10346000803E90F7F4E0FE90F7F51227358031901A
:10347000F7F8E0FE90F7F9122735802490F7EEE098
:10348000FE90F7EF122735801790F7E8E0FE90F7EF
:10349000E9122735800A90F7ECE090F7ED12273417
:1034A000FEE4FD801B90F7E7E05410C412872980EA
:1034B0000F90F7E7E05420C4135407FFE4FCFDFE2F
:1034C000900272120A25900272020A0D900016EE06
:1034D0008FF00208297F0591DB7F03EF24FD603622
:1034E00014603E14602514600C1460142406703BB4
:1034F00090F1B4802F90F1B4E054DFF04420F0223A
:1035000090C908E054EFF04410F02290F1B5E05477
:10351000F7F04408F02290F1B5E054FBF04404F0D9
:103520002290F1B5E054FDF04402F02290026112C5
:103530000A82900403020A0D900385E0FE6F603654
:10354000900262EEF0900385EFF090038C7401F02E
:103550007BFF7A1F79AA90029A125665900385E044
:10356000641070057F03120007900262E06410701F
:10357000057F041200072290026174FFF090038B14
:10358000E07002E116900385E0D31253FA401890E0
:10359000038DE07012F1C4F11E1253FA5002800242
:1035A0007F04900261EFF0900385E0D3940674806D
:1035B00094804016125FFBEF6401700E7BFF7A1F50
:1035C00079E2FF1226467F06B138900385E0640A4F
:1035D0007024125FB1EF701E782912581D40177ABF
:1035E0001F79F2F117940974809480500280027F51
:1035F00009900261EFF0900385E0D3940B748094FE
:1036000080405912391BEF640170157BFF7A1F79D6
:10361000FFF11AF1AA500280027F0A900261EFF0D6
:10362000126552EF640170157BFF7A207913F11A4D
:10363000F1AA500280027F0A900261EFF012000EA0
:103640009003ACE06F60157BFF7A20791FF119F1D0
:10365000AA500280027F0A900261EFF0900385E099
:10366000D3940D74809480401F126832EF6006126C
:10367000678EEF70137A207929F117F1AA50028032
:10368000027F0A900261EFF01286E89480403F12B8
:1036900058531283D3EF640170131283C87BFF7AEF
:1036A0002079337F031226467F0E120007126633FD
:1036B000EF701B7BFF7A20793E7F03F11B94097426
:1036C000809480500280027F09900261EFF09003A5
:1036D00085E0C3F1B34035900261E0F1B3402D7F46
:1036E00004F1E470097F04F1EB7F0D1200077F0302
:1036F000F1E470097F03F1EB7F0B1200077F05F106
:10370000E470097F05F1EB7F0C120007900261E085
:10371000FFF46002B138227BFFE4FF1226469002DC
:1037200061E0FFC32290026BEFF012848C90026B79
:10373000E024FD601614601C24F9602B24FD605EFB
:10374000240C705FE4900397F0801812412A124114
:103750000C02276FE4FF1267790F123F527F0412A9
:103760007680E4FF023F09900042E0703690002C22
:10377000E0C394077480948040299003FCE0702398
:10378000900394E0900041F0A37401F07BFF7A2253
:10379000798AFF122B2D7F0B127264023C6D7F051C
:1037A00012768022900264020A25940A7480948022
:1037B00022E0D39410748094802290026C120A0D3F
:1037C000900268221257617005FDFF12606F12654A
:1037D000B691D50F91DBE4900393F00F1200077FB1
:1037E00004020007126338EF640122126153900350
:1037F000947401F0229003877401F0227B017A0215
:10380000796190C67CE090000212071C90F2F1E012
:10381000131313540112070A90F2F5E0FF54071135
:10382000E1EF54F090000312071C90F263E0900067
:103830000512071C90F264E090000612071C90F23B
:1038400065E090000712071C90F266E0115890F2B4
:1038500067E090000902071C90000802071C12672D
:1038600045EF640170400412070A90F2BDE0C413F2
:103870001313540111E190F2BCE0FFC4540F11E79F
:10388000FD7C006402700690000704800BED64016B
:103890004C7008900007740212071CEF540F115867
:1038A00090F2BDE08033E412070A90F2EBE0FF13E0
:1038B0001313541FFE540111E1EFC313540311E716
:1038C00064037008900007740412071C90F2EBE088
:1038D000FFEE54031158EFC4135407900009020778
:1038E0001C90000102071C90000712071C900007A3
:1038F0000206DD7A0279613112FF90039AE06F606F
:1039000010EFF07BFF7A1E79991226407F1012008B
:1039100007227B01115E900269E0227A027962310E
:1039200012FE900399E0B5061B90026BE0FF900336
:103930009BE0B5070F900262E0FF900398E0B507A7
:10394000037F0022900262E0900398F0A3EEF090D3
:10395000026AE090039AF090026BE090039BF09073
:103960000398E064017003FF80027F011267337FD8
:10397000012212301B12769AEF6401704A9003FC08
:10398000E070441276A61276A0EF24FD6008146061
:103990001A14602980317A2279A7125DF37F03120D
:1039A00072647F0131C8916DFFE1097A2279BB12FF
:1039B00086947F04127264E4FF31C880081237FCD9
:1039C0007F01125780916D22EF64017B0170247F8B
:1039D0000FF1C490F31CF090F1A5E044C0F090E624
:1039E000E47402F090E6E6E04403F054F3F01D7F47
:1039F0000FE1DCE4FD7F0FEF120A973A68003A7599
:103A0000013A80023A8A033A95043A9F053AAA0697
:103A10003AB4073ABF083AC9093AD40A3ADE0B3A2F
:103A2000E90C3AF30D3AFE0E3B080F3B13103B1D19
:103A3000113B28123B32133B3D143B4A153B5A16AF
:103A40003B64173B75183B86193B991A3BAC1D3BF1
:103A5000B81E3BC91F3BCE203BDA213BEF223BF493
:103A6000233BFC2400003C0C90A3749165EBC43311
:103A700054E04FF02290A35C9114F090A364616D28
:103A800090A372910D90A374618F90A3729114F022
:103A900090A37461A190A371910D90A37361B490F0
:103AA000A3719114F090A373614590A370910D9050
:103AB000A373615390A3709114F090A37361E2908B
:103AC000A36F910D90A373616D90A36F9114F0900B
:103AD000A373617D90A36E910D90A373618F90A3EA
:103AE0006E9114F090A37361A190A369910D90A3BE
:103AF0006A61B490A3699114F090A36A804790A37F
:103B000068910D90A36A804B90A3629114F090A3EA
:103B10006461B490A361910D90A364802890A36127
:103B20009114F090A364802B90A360910D90A364F6
:103B300061E290A3609114F090A363807790A35FFB
:103B4000910D90A363E0FFEB807B90A35F9114F055
:103B500090A363E0FFEB25E0806B90A35E910D9056
:103B6000A363807E90A35E9114F090A363E0FFEBCB
:103B7000C454F0807590A35D910D90A363E0FFEBBA
:103B8000C43354E0806490A35D9114F090A363E08B
:103B9000FFEBC4333354C0805190A35C910D90A3CC
:103BA00063E0FFEBC43333335480803E90A35A91DB
:103BB0000D90A35BE04BF02290A359910D90A35B75
:103BC000E0FFEB25E025E0802190A2A2800390A2F7
:103BD000A39165EBC454F04FF02290A2C0910D90D8
:103BE000A364E0FFEB33333354F8FEEF4EF0229042
:103BF000A2BF800390A2BE9165EB800890A2BD9108
:103C000065AE03EEC433333354804FF022E054F0FA
:103C1000F04DF022E0540FFFF0EDC454F04F2212AB
:103C200086E8948040231275FBEF6401701B9003BB
:103C300097E07B0160067D0C914A21F7E4FD914AF3
:103C400031F7E4FF125780916D227F0331F77F0235
:103C500031F77F0431F77F0531F77F0631F77F07B2
:103C600031F77F0822E054F0F04DFFF0229003FC82
:103C70007401F02290002CE024FE601A14603F14BE
:103C8000605E147002A108147002A12B240560026A
:103C9000A1327F02A13090002DE06018B17931C8C7
:103CA00090038D7401F078477C00FD7A1479677E6B
:103CB00002128731900028E060787F0380729000C4
:103CC0002DE06004B17931C8900029E060647F0480
:103CD000B193E4FFF156125AB97F14F1BDFFE10927
:103CE000126C64125E3F126DE7125663EF6043126E
:103CF00059ED126F241258C31284D9127128122858
:103D000098122EE47F05802890003EE06401702226
:103D10007F01B18112784190002EE07006127193FC
:103D200012715E7F01B1337F0680051283657F07C4
:103D3000B19322EF6401702B7F01B18190003FE0CD
:103D400090F989700FE054DFF04410F07BFF7A198E
:103D5000799D8020E04420F054EFF07BFF7A1979C0
:103D6000AA8011E4FFB18190F989E054CFF07BFF84
:103D70007A1979B77F01022B2DE4F0FFB133E4FF0C
:103D800022EF6401700790F9BF74FFF022E490F90C
:103D9000BFF022900262EFF090002CE06F60249060
:103DA0000262E0640570057F0312768090002D7436
:103DB00001F0900262E090002CF07BFF7A12799182
:103DC000122B272290026174FFF090002CE0D31296
:103DD0004F52400A900028E070047F02B193900097
:103DE0002CE0D3125707400A900029E070047F03AB
:103DF000B19390002CE0D144403A90E0B0E0FDE473
:103E0000FF1284C9EF701190003EE064017025F04C
:103E1000FFB181E4B133801C90003EE07016123790
:103E20001ED145500280027F05900261EFF09000A4
:103E30003E7401F0900261E0FFF46002B1932290C1
:103E40000263E0FFC394057480948022F1CAD1F329
:103E50003172911FE4900261F0A3F078637C027AE2
:103E60002279D0FE7F0312869B90002CE0640760CD
:103E700002C1F2128720A3E0FF9003FDE06F6072A1
:103E8000E0A3F09003FDE02401FFE433FEEFC4F86B
:103E9000540FC868FFEEC454F048900261F0A3EFDD
:103EA000F090026174FFF5F01207DB900263745129
:103EB000F012867AEC900264F0AF05A3EFF07A225C
:103EC0007957900264125E19A3EF122FAD90F9B8E2
:103ED0001256737F01D1F77B017A0279637D037FEC
:103EE000391277DF7F32F1BDFFD1F790F9B8E05496
:103EF000FCF0229174A1C4EF640190F9847005E094
:103F00004408F022E054F7F022EF6401701B90E1C6
:103F100026F090E127F090E580E054DFF14B54FB70
:103F2000F0ED54EF90E580F02290E580E04410F150
:103F30004B4404F0ED442090E580F090E12674FFBE
:103F4000F090E12774F8F022E04401F0FD90E10BDD
:103F5000E022F1887F01EF6401701790E129F09071
:103F6000E580E054FDF14B54FEF0ED54FE90E58009
:103F7000F02290E580F1484401F0ED440290E580A4
:103F8000F090E12974FFF022EF6401701790E128AE
:103F9000F090E580E054F7F14B54FDF0ED54FB90C8
:103FA000E580F02290E580E04404F14B4402F0ED1E
:103FB000440890E580F090E12874FFF0227E001222
:103FC0002EC6E4227D0C31F7E42212570E1235770B
:103FD0000230A17B017F0DF1C4FD7F0DEF120A9726
:103FE000404D00405201405702405C034061044094
:103FF0006605406B06407007407508407A09407FAF
:104000000A40840B40890C408E0D40930E40980F5F
:10401000409D1040A21140A71240AC1340B1144083
:10402000B61540BB1640C01740C51840CA1940CF4E
:104030001A40D41D40D91E40DE1F40E32040E82135
:1040400040ED2240F52340FC240000410B90E6A007
:1040500001F890E6E301F890E6E301F090E6E20172
:10406000F890E6E201F090E6E101F890E6E101F077
:1040700090E6E001F890E6E0807690E6DF807990C7
:10408000E6DF806C90E6DE806F90E6DE806290E690
:10409000DD806590E6DD805890E6DC805B90E6DCB4
:1040A000804E90E6DB805190E6DB804490E6DA803B
:1040B0004790E6DA803A90E6D9803D90E6D98030A4
:1040C00090E6D8803390E6D8802690E6D780299075
:1040D000E6D7801C90E6D6801F90E6D6801290E648
:1040E000D5801590E6D5800890E6D4800B90E6D474
:1040F000E0FFED800F90E6D3E04DF02290E6D3E0B4
:10410000FFAE05EEC454F0FEEF4EF022E490039DA6
:10411000F07BFF7A227943312490029A120A25E437
:10412000FF0226469003A8020A0DE490026CF07D7F
:10413000187F03122F067F0331AA78011209C0905D
:1041400003A4120A2590039BE024FE600B14600C6C
:104150002403700C7F06800A7F0A80067F0C800291
:104160007F08E4FCFDFE9003A4126F1E7803120981
:10417000AD9003A81287386401701C90026CE07047
:1041800016312478011209C0E47B03FAF9F8120809
:10419000FC9003A8120A2522FFE0FEEF4E90A33EFA
:1041A000F07D127F03122F067F0A7E00122EC6E4D6
:1041B000FD7F0312874860461460711470024168E5
:1041C0002403600241A490C740E04480F090C758A7
:1041D00051EFC004C005C006C00790C75951E1782F
:1041E000081209C0D003D002D001D000122FD59000
:1041F000C75A51E151E8120A2590C740419E90C725
:104200004851EFC004C005C006C00790C74951E13E
:1042100078081209C0D003D002D001D000122FD5E7
:1042200090C74A51E151E8120A2541AF90ED30E0C4
:104230004402F090ED3C51EFC004C005C006C00739
:1042400090ED3D51E178081209C0D003D002D001B1
:10425000D000122FD590ED3E51E151E8120A259081
:10426000ED30E054FDF0804790E690E04480F0901F
:10427000E69851EFC004C005C006C00790E699510A
:10428000E178081209C0D003D002D001D000122F6B
:10429000D590E69A51E151E8120A2590E690E05453
:1042A0007FF0800B7BFF7A167998E4FF1226469008
:1042B000026E120A0D90026DE0F9F81209C0A31205
:1042C0000A2590026E020A0D7F02FEFDFC90003965
:1042D000120A19120871A804A905AA06AB079000D2
:1042E00031E0FFE4FCFDFE2212085690026E22E04F
:1042F000540FFFE4FCFDFE78100209C0F104F1D672
:104300009003B57004E0148004E014540F9002612F
:10431000F090A33EE09002613198F121F1191286EC
:10432000DE7004EF25E0FF717E70028006ED64020E
:104330004C700890A341E04402801CEFFD7C0064B7
:1043400004700890A341E04405800CED64084C70B3
:104350000C90A341E0440BF090A342E0F031A1F1B6
:1043600021F119900262122F5590A342E0400544BA
:1043700001F08001F07F647E00022EC6EEF0EFFDBA
:104380007C0064012290002EE07055717E7E1070DA
:10439000027EF090A227D1EA7E2070027E3090A2A9
:1043A00028717C7E0070027EA290A22CB131700236
:1043B0007EB290A22D717C7E0070027E0190A22EB2
:1043C000B13170027E0390A22F717C7E0070027E5C
:1043D000FE90A237B13170027E8090A238EEF022BA
:1043E000717E7E1070027EF490A227B13170027E41
:1043F000A290A22C717C7E0070027EB290A22DB1A0
:104400003170027E0190A22E717C7E0070027EC00F
:1044100090A238B13170027E0F90A239717C7E106B
:1044200090A228D1EA7F3090A228EFF090A238E045
:1044300064C0700A90A2337402F090A234F090A28B
:10444000797403F090A27A7430F090A27BF090A27D
:10445000307402F090A279740FF02290002EE07078
:1044600055717E7E1070027EF090A251D1EA7E20BE
:1044700070027E3090A252717C7E0070027EA2900B
:10448000A256B13170027EB290A257717C7E00704C
:10449000027E0190A258B13170027E0390A2597140
:1044A0007C7E0070027EFE90A261B13170027E803F
:1044B00090A262EEF022717E7E1070027EF490A2D5
:1044C00051B13170027EA290A256717C7E007002C2
:1044D0007EB290A257B13170027E0190A258717CD9
:1044E0007E0070027EC090A262B13170027E0F9099
:1044F000A263717C7E1090A252D1EA7F3090A252CA
:10450000EFF090A262E064C0700A90A25D7402F0C5
:1045100090A25EF090A28F7403F090A2917430F09C
:1045200090A292F090A25A7402F090A28F740FF0B1
:1045300022EEF0ED64014C7E002290002EE07055DA
:10454000717E7E1070027EF090A212D1EA7E207001
:10455000027E3090A213717C7E0070027EA290A237
:1045600017B13170027EB290A218717C7E00700289
:104570007E0190A219B13170027E0390A21A717C63
:104580007E0070027EFE90A222B13170027E809089
:10459000A223EEF022717E7E1070027EF490A212B1
:1045A000B13170027EA290A217717C7E0070027EF3
:1045B000B290A218B13170027E0190A219717C7E76
:1045C0000070027EC090A223B13170027E0F90A2D3
:1045D00024717C7E1090A213D1EA7F3090A213EF59
:1045E000F090A223E064C0700A90A21E7402F090C2
:1045F000A21FF090A26E7420F090A26F74F0F09061
:10460000A2707430F090A21B7402F090A26E7443FA
:10461000F02290002EE07055717E7E1070027EF0C8
:1046200090A23CD1EA7E2070027E3090A23D717C47
:104630007E0070027EA290A241B13170027EB290E3
:10464000A242717C7E0070027E0190A243B1317063
:10465000027E0390A244717C7E0070027EFE90A2D6
:104660004CB13170027E8090A24DEEF022717E7EC0
:104670001070027EF490A23CB13170027EA290A232
:1046800041717C7E0070027EB290A242B131700214
:104690007E0190A243717C7E0070027EC090A24D8C
:1046A000B13170027E0F90A24E717C7E1090A23DBF
:1046B000D1EA7F3090A23DEFF090A24DE064C0704F
:1046C0000A90A2487402F090A249F090A284740C5F
:1046D000F090A28574D0F090A2867410F090A2455C
:1046E0007402F090A284743CF022EEF0ED64014C70
:1046F00022AA05B13AAF027185AF03D112900264CC
:10470000E0FF815B90E140E04401F090A33EE05483
:10471000F0F090A341E054F0F090A342E054F0F0A8
:1047200022900262020A2512723451FCF1E41284D2
:10473000E6126E431285D47BFF7A21796B1285E1F4
:1047400012855C126CD990EF98E04402F09003B2AD
:10475000E0640190EF977003F080037401F0900320
:10476000B1E0FF900262F090EFA77468F07E00EF76
:10477000640170089002617480F08028EF64024E3A
:10478000700890026174C0F0801AEF64044E7008E3
:1047900090026174E0F0800CEF64084E70069002A5
:1047A0006174F0F0F1DDE490EFF8F090EF80F07FCD
:1047B00001FE122EC690EFF874FFF090EF80E0FF3C
:1047C000900262E0FEEF4EFF90EF80F0900261E019
:1047D0004F90EF80F0229003B3E064032290EFAD9E
:1047E00074FFF02290EA18E04401F0227F01126089
:1047F000F7E490F434F02290F433EFF022AE079017
:104800000409E06006E4F07F2080ECF1357811E6E1
:10481000FFC39E500974452FF8E6F1C880EF22E4EB
:10482000780DF690F436E0541F7810F690F426E0F8
:1048300018F690F432E0540F7832F6E008F6E0080B
:10484000F6E004780DF67810E61253F94026780D5C
:10485000E61237B240022174E408F6780EE6FFC390
:104860001896501490F432E0FE74352FF8A60678AE
:104870000E0680E7E4780DF6E4FF1260F7780FE6A5
:104880007002214424F07002211424D0602E24F000
:10489000606224C06017241060022167780DE6FF73
:1048A00031757832E6640F600221638063780DE62B
:1048B000FF5158780DE6FF1247FD216C7834E6FD74
:1048C0007C0064507017780DE6640170257810E65E
:1048D0006405701E1286AC6019F1218012ED6430FF
:1048E0004C700F780DE6640170087835E660037847
:1048F00025F6806FF12A700B7810E664047004715D
:10490000A88069EB64524A70337810E66404702C16
:104910007F108055F12A700B7810E66404700471E2
:10492000A88011EB64504A70137810E66403700C91
:10493000FF1247F7E47856F608F68030780DE6FF68
:10494000F13F80287834E664507018780DE66401F1
:1049500070117810E66405700A1286AC6005F121CA
:104960007825F6E4FF8002E4FF1247F71247ECE4F3
:10497000FF12615322F1D0FF640F7002414C90F19D
:1049800003EFF1EAF1D99F5026EE601390F105E0B4
:10499000F4700690F104E004F090F105E004F07882
:1049A00012E62435F8E690F153F078120680D578B7
:1049B00032E6706408E66401705E71A1120A9749DC
:1049C000DB0049E60149F10249FB034A06044A0AB1
:1049D000054A0E064A120700004A4C7811E6FF12FB
:1049E0005046514D60667811E6FF1257EC514D600C
:1049F0005B7811E6FFD147514D60517811E6FF1207
:104A000057F7514D6046514D6042514D603E514DFA
:104A1000603A7811E6FFE1E47832E6700808E6646F
:104A2000027002800E7832E6FF7E00700A08E664AB
:104A30002070047811F622EF4E70117833E6640688
:104A4000700A08E6700608E6FF125FE02290037C19
:104A5000E0FF781106E66F22F1D0640F700FE0FFDF
:104A60007E007D007B007A007945020AEA7832E612
:104A700090F103F1EAF1D99F5028EE601390F1050F
:104A8000E0F4700690F104E004F090F105E004F029
:104A900090F154E0FF7812E62445F8A60778120654
:104AA00080D37832E6706508E66402705F71A11207
:104AB0000A974ACB004AD7014ADD024AE9034AF580
:104AC000044B01054B070600004B947811E6FFF1FB
:104AD00012514D70026194514D700261947811E64B
:104AE000FF71DA514D700261947811E6FF914B51DC
:104AF0004D700261947811E6FFF159514D700261D9
:104B000094514D70026194125031414D7832E660FB
:104B100002619408E66420707B71A1120A974B4FE2
:104B2000004B52014B55024B5E034B61044B640535
:104B30004B67064B6A074B6D084B70094B730A4B6A
:104B4000760B4B790C4B820D4B8B0E00004B9478FF
:104B500011067811067195503BF112781106781103
:104B60000678110678110678110678110678110674
:104B70007811067811067811067195501771DA7858
:104B800011067195500E914B78110671955005F1F3
:104B9000597811062290037CE0FE7811E6FFD39E3F
:104BA000227811F67834E622780DE6FFF133781199
:104BB000E6FFC39E5018EF785726FDE41836FC74C4
:104BC000472DF58274003CF583E0F1C880E0AF0624
:104BD0007857EF26F618E436F62291C27829E624B3
:104BE000FE602624FE60392403705F915E700B78AE
:104BF0002CE65401640170028036914F404C782CB1
:104C0000E6540F64077043803D915E7006F11970A1
:104C100002801D914F4033782CE66477702C8026FB
:104C2000915E7011F119700D08E654116411700550
:104C30007822760122914F4011782CE66477700A31
:104C400008E66477700478237601229167808DC32B
:104C5000EF9402EE648094802290037DEFF0782A36
:104C6000E6FF7E0064012291597009E02445F8E6D0
:104C7000782DF622914F40437829E6640470367807
:104C80002D761190F1F7E0700690F1F8E060097868
:104C90002DE64407D1A88006D12FE6782DF690F1B5
:104CA000F9E0700690F1FAE06006782DD1A5800B4E
:104CB000D12FE68001E4782DF68000782DD12DA645
:104CC000072291597009E02445F8E6782CF62291E4
:104CD0004F5002A158782C760190F1F3E0700690C5
:104CE000F1F4E06041782CE64407D1A890F1F1E0BE
:104CF0005401702B900408E0700F7826E6700A7F4C
:104D000001F1007D017F03B179900408E0C39406AE
:104D100074809480501BE004F0A37401F08012E4CE
:104D2000900408F0800BE4900408F0D12FE6782C72
:104D3000F67829E6F1514020782CE64410F690F1FF
:104D4000F5E0700690F1F6E06006782CD1A58008B9
:104D5000D12FE6782CF68000782CD12DA60722B131
:104D6000797D020FB1797D0F0FB1797D040FB17993
:104D7000E4FD0FB1790FB1790F90F105EFF090F1EB
:104D800053EDF0227901900264E07F0060027F0120
:104D9000AE07900265E07F8060027FC0AC079002A2
:104DA00066E07F0060027F80AB07E4FFF1007D12C8
:104DB000F10B641E70057D140F800790026AE0FD00
:104DC0007F01B17990026BE04CFD7F02B179EB4E2F
:104DD0000FD137AD010FB15F7D810FB179E4FD7F58
:104DE00021B1737F60B1737D087F80B179E4FD7F6D
:104DF00090B1797F01F1007F0AB1797F22F1007DC6
:104E000014E4FFF10BFD0FB17990026BE04CFD0F44
:104E1000B179AF06EB4F7F03D137AF01AD077F0705
:104E2000B15F7D810FB1797D087F10A179E6FF9098
:104E3000037DE02445F822FDB1797D010FB1791D94
:104E40000FB1790D0FA17974352FF8E6540F782A38
:104E5000F664017044792BE766601D1234D5E4FDD9
:104E60007F03B179E4FD7F04B179E4FD7F05B17979
:104E7000E4FD7F06B179D1A97F0112582678267604
:104E800001E47822F608F608F67F0112664BE4FF8B
:104E9000126669782AE608F622782AE6FFF1514080
:104EA0000308A60722E64470F67828E6FF90037E02
:104EB000EF1257E490E10D128758FD90E10CE05499
:104EC000F0F0ED54E190E10DF090C903E0540F12C1
:104ED0007B9C90037E1287177F2740027F3790A12B
:104EE00038EF12875090E10CE0440FF090E10DE0B4
:104EF000441EF090C903E044F0F0E490A144F02295
:104F0000E490F103F090F104EFF022B17990026A9D
:104F1000E02274452FF8760122782CE654116411B2
:104F200022785646F608E6F6E4227834E6FB7A0064
:104F3000645022AE07E4FF1247F7E47811F622F13D
:104F4000337811E6C39E5008E490F433F00680F104
:104F500022C394027480948022AE07782AE6FD7CF6
:104F60000064017005900407F022C3ED9402EC6424
:104F700080948040367823E664016007F1FCEF649A
:104F800001701F900407E004F078237601E06401CB
:104F9000700974452EF8740146F62274452EF87691
:104FA000012274452EF874FE56F622782AE6701710
:104FB00008E6F15140117823E664017F8070027F9A
:104FC0000174452EF8A6072290F433F078110622DA
:104FD00090037CEFF07832E62290037CE0FF7812B9
:104FE000E6FEC32290037DEFF022F008E690F10484
:104FF000F008E690F105F0E47812F622E4FF782953
:10500000E624FE601524FE601E2403702390F1C97F
:10501000E05411641170197F012290F1C9E05433FA
:105020006433700C7F012290F1C9E0F470027F01BB
:1050300022782AE66401700D7826E670087822E668
:105040007003124EA92274352FF8E67828F6FF1166
:10505000B07828E6FF11EE7828E6FF126626782859
:10506000E6FF11707828E6FF126603E4782BF6223B
:10507000EF24F6601424F6601824F6601C241870DF
:105080002511A77A2479EB801611A77A2479F1806B
:105090000E11A77A2479F7800611A77A2479FD7E6C
:1050A000007F0612069E2278027CA17D017BFF22F2
:1050B000EF24F6600E24F6600A24F66011241870BE
:1050C00013800090A1267413F090A127F02211E420
:1050D0007480800411E47413F090A127F090A1284B
:1050E0007403F02290A1257403F090A12622EF24EE
:1050F000F6600C24F6601624F660242418702C90B8
:10510000A1317408910190A13A7402801C312C7471
:1051100006F090A13A7412F090A13B74A7F02231EE
:105120002C7404F090A13A744831422290A1317459
:1051300008F090A1337464F090A1387437F090A116
:105140003922F090A13B7487F02290A130E0547F87
:10515000F04408F04404F054FC910190A13EF0901A
:10516000A1427480F0E490A13B12875090E300E0EC
:1051700054FDF090E3017420F0E490A132F090A18E
:10518000387427F090A1397406314290A143E0446D
:1051900030F07480443090A144F07420440190E3D6
:1051A00001F090E3097403F071A89002627402F0B8
:1051B000E4F0900262E0FB71F9400261637192EBEE
:1051C00014601114601714601D2403702090E30A0A
:1051D000E0F0801990E30AE04440F0801090E30A88
:1051E000E04480F0800790E30AE044C0F090026160
:1051F0007403F0B144603490E105E054FCF090A1F8
:1052000030E054BFF090E300E054FE122EC190E174
:1052100005E04403F090A130E04440F090E300B199
:105220004D90E324E05403640270C871B0E0440C74
:10523000F090E329E090E32A122734900266F0A36D
:10524000EFF0E4900263F0123E3F400241F1900221
:1052500062E014600F1460101460112403700F7169
:10526000BBF0800A71E8800671D7800271C6E490B5
:10527000026AF0A3F0900264F0A3F0900265E0C32C
:105280009464748094805065122EC2900265E0048C
:10529000F090E326E0FE90E327122735FE900268A7
:1052A000F0A3EFF012288A9CFE12002EC3EF948028
:1052B000EE648094805011900268D16CEE8FF012F1
:1052C00007DB900264E004F0900264E0640870ABD5
:1052D00090026A122FB2CEC313CE13D8F9FF9002F8
:1052E00063E025E0246CF582E43402F17071A141A1
:1052F0004774FF900276F0A3F0E4900263F0123E50
:105300003F5053EF12287A9CFE12002ED390027762
:10531000E09F900276E09E4039900262E0146014B3
:1053200014601514601624037014900263E0FF717A
:10533000BBF0800A71E8800671D7800271C69002C6
:1053400063E012287A9CFE12002E900276EEF0A303
:10535000EFF071A180A871A890E309E054F3F07117
:105360009A21B27A2479AA90E312F16890E313E0CB
:1053700090029BF090E314E090029CF090E315E023
:1053800090029DD16690A143E054CFF1E471B074D6
:105390000DF090E30AE0543FF022900262E004F046
:1053A00022900263E004F02290E30BE054FEF0222E
:1053B00090E30BE04401F090E3092290E31DE02F1D
:1053C00024FE90E31222900263E0FF90E320E02F9E
:1053D00024FE90E315F022900263E0FF90E31FE0CB
:1053E0002F24FE90E314F022900263E0FF90E31E6E
:1053F000E02F24FE90E313F022C394047480948081
:1054000022F090A1337460F02291AB917B91EC7FFC
:10541000011265C2314A915F1265D291481263A0B0
:1054200012667BB15890E10CE054EFF054DFF0903D
:10543000E10DE054BFF054DFF090E10EE0547FF056
:1054400090C90AE04402F02290A37FE054F7F0F103
:10545000DC90F1BB7459F090F1C4E04402F02212E8
:105460005F1D90A3237401F0E4F1D404F090A3260F
:10547000F090E23D7420F04408F02290A108740BF3
:10548000F090A10974FFF090A10A74F0F090A10BC4
:10549000748FF090A10C747CF090A10D74A8F09022
:1054A000A10ED17354F3F04404F02290F409741760
:1054B000F090F100E04440F090F408F17854F7F0F7
:1054C00090F430E04401F090A356E04420F090A323
:1054D00057742CF090A35874BAF07F011260067FC5
:1054E000011260F790F1A8E054FEF022E49002620D
:1054F000F090A108E04408F0900261740AF0B14411
:10550000601D90E200E054FE122EC190E200B14D09
:1055100090E207E05403640270E490026204F07BBE
:10552000FF7A24797A90E20812263F900262E064C2
:10553000017BFF70067A24798F80057A24799DE4B7
:10554000FF022646900261E0FF14F0EF22E04401E2
:10555000F07F027E00022EC690F3007440F090F3BC
:10556000237402F090F324F090F325F0E490F326F6
:10557000F090F3477491F090F3487435F090F3494C
:105580007430F090F34A742AF090F34B7402F09068
:10559000F34C7498F090F34D7402F090F34E7498BD
:1055A000F090F34F7404F090F346E04420F07F0154
:1055B0001267337BFF7A2479DB7F03022646E4906F
:1055C0000261F090A200E054EFF0D15B90E10FE0B7
:1055D00054EFF090E263122EBED15B440FF090E1E5
:1055E0000FE04410122EC190E263E04408B15090E5
:1055F0000261E004D1FA500A90E26DE05402C31354
:1056000070ED90E26DE05403640260087BFF7A1B4A
:10561000796E801C7A1B798090E228122B2490E20C
:1056200028E054041313543F7BFF700C7A1B799BC2
:105630007F03122B2D7F00227A1B79AA90E274E05F
:10564000900281F090E275E0900282122FAD90A25C
:1056500010E0547FF04480F07F012290E107E05495
:10566000F0F022A1BEEFF07F03022646E0FEA3E0A9
:10567000FFA322E054FCF04403F02290A300E05486
:105680007FF0FD90A302E04401F0ED444090A300C0
:10569000F090E2897420F0E4900261F090E289E0F9
:1056A00054BFF0FD90E109D173ED444090E289D1FF
:1056B000FA500890E293E0544060E190A300E05477
:1056C000BFF090E6E9E04460F090C74674BBF0900C
:1056D000C7477480F090E2A174BBF090E2A274809E
:1056E000F090E69674BBF090E6977480F090ED38F9
:1056F00074BBF090ED397480F022F07F057E0012CB
:105700002EC6900261E0C3940374809480229003BB
:1057100085F105403B90038BE06401701CF157EF6D
:10572000702E7A1F79B9F1517F031235381237C4C0
:10573000E490038BF07F028014F157EF6401701046
:105740007A1F79C6F15190038B7401F0FF120007A4
:10575000227BFFFF022646F16170030265AA7F00EB
:1057600022900387E06401227BFFE090029AF022FE
:10577000F583EEF0A3EFF022E04402F054FBF022B8
:10578000AE07127548AA07127616AB0712763FEEDF
:1057900090E0846022F178AE0390E0A2EEF090E019
:1057A000A3EFF0E490E090F0AF0290E091EFF07B97
:1057B000FF7A1779458010E054FDF0E4F1CC1275C2
:1057C0003E7BFF7A1779597F01022B2D90E0A2F0E2
:1057D00090E0A32290A324F090A3252290C7D7E0C5
:1057E00054FEF022F090A14474C0F02274352FF8DA
:1057F000E6541F7929F72290037DEFF0E02435F875
:10580000E6C3111F4008E4FF1126E47826F6900352
:105810007DE02435F8111D4003124EA922E6D394F1
:10582000017480948022EF64017010114BF090F1AC
:105830000674FFF090F152740FF022E4114B7402E1
:10584000F0E490F106F090F152F02290F119F0900E
:10585000F11A2290F2F5E054F06410701D7F0111EE
:105860008554FDF090F2F5E05407111E90F215E01A
:1058700040044401F02254FEF022E4FF118554FE5E
:10588000F04402F022118C90F215E022EF640190B6
:10589000C62F7005E04404F022E054FBF022AB0573
:1058A0007C00120750D3EB111F40177C007D0212C1
:1058B00007A5ED4C600C90F9887421F090F9717493
:1058C00013F0227F01123D81126FBB900032E0FF86
:1058D000127004900032E0FFD121900033E0FFF11C
:1058E0009B7BFF7A1379B4900032E0900281F090B4
:1058F0000033E0900282317DB1E590002AE0FF1292
:10590000703290003DE0FF12706390A37BE054FB87
:10591000F090002BE0600B90A37BE04404F07F014B
:10592000F1347F01F15490002EE0FFF14490002EFD
:10593000E0FFF1C8D101D109D111E4FFF166E451D2
:10594000AB900034E0FF1270B290002FE0FF717254
:105950007A1379CDB1F3900032E0FBFD7C00900327
:10596000C9E0FEA3E0FF120750AC06AD07E4FF71EB
:10597000B190024DD135FD019EE090028BF07F0188
:10598000022B2D7A0379C3518B7A0379C351837A21
:105990002579259003C7122F489003C9122F9B9099
:1059A00003CD31E09003CB51729003CF516590034A
:1059B000DB31797A2579619003D1122F469003D398
:1059C000122F9B9003D731E09003D551729003D9E9
:1059D00051659003DC31791247D67003126F4F2264
:1059E000E0FFA3E0900285CFF0A3EFF0227A0279E6
:1059F00047518B7A02794751837A13793E90024B53
:105A0000122F4890024D122F9B90025131E09002CC
:105A10004F5172900253516590025F31797BFF7A4A
:105A2000137979900255122F48900257122F9B90AC
:105A3000025B31E0900259517290025D5165900213
:105A40006031797B017A02794771DD90025FE0FF76
:105A50005196900260E0FF51A47005E054FEF022E0
:105A6000E04401F022E0FFA3E0900289CFF0A3EF31
:105A7000F022E0FFA3E0900287CFF0A3EFF02271C5
:105A80008F21837B011233677BFF227E007F1A7D8B
:105A9000007B01020AEA51A47005E054FDF022E007
:105AA0004402F022EF640190F9702251A47005E0E5
:105AB0004408F022E054F7F022715A51C5517F1288
:105AC0004727022E5F7E007F137D007B017A0379DA
:105AD000B0120AEA9003B27402F09003B1F0E490BD
