:100000000210FF023F8B02300222220279F60237F1
:100010008222220281B4E4FFFE1206C4600C0FEFBC
:1000200070010E09E970F20A80EF220281B9EE3008
:10003000E707C3E49FFFE49EFE227BFFE4FF023656
:100040003922220281B502038EE86480F8E933E8A0
:100050003360110460F0ED33EC337009E8FCE9FD26
:10006000EAFEEBFF220460DED3EB9FEA9EE99DE807
:10007000C2E78CF0C2F795F0400CE8CCF8E9CDF976
:10008000EACEFAEBCFFB12035985D0F05804700387
:1000900020D5B3E80470075002B2D502039892D578
:1000A000EC0460F7E4CCC0E0C398F8603B941860BF
:1000B00008400DD0E0FB020370E4FBFAC9FC802885
:1000C000E830E406E4C9FBE4CAFCE830E305E4C92F
:1000D000CACBFCE854076010F8C3E913F9EA13FA35
:1000E000EB13FBEC13FCD8F130F52FC3E49CFCEFD1
:1000F0009BFFEE9AFEED99FDD0E0FBEF4E4D4C706C
:100100001222DB03020395EC2CFCEF33FFEE33FEEF
:10011000ED33FDED30E7EB020370EF2BFFEE3AFE1F
:10012000ED39FDD0E0FB50130BBB0003020398ED4B
:1001300013FDEE13FEEF13FFEC13FC020370EC4D06
:100140006011E8497017ED33EC3304600DE4FCFFF7
:10015000FEFD22E933E8330470F802038E120359DE
:1001600058046009E4CC2481500628500902039801
:10017000284003020395C0E0EB4A7044B98006D0E2
:10018000E0FB020384EF4E701CBD8008EBFFEAFE2B
:10019000E9FD80EBE98DF0A4FEE5F0020227E9CD50
:1001A000F9EAFEEBFFEF89F0A4FCE5F0CE89F0A4BC
:1001B0002EFFE435F0CD89F0A42DFEE435F0806704
:1001C000EF4E7005BD80D780C3EF8BF0A4ACF0EE8E
:1001D0008BF0A42CFCE435F0F8EF8AF0A42CE5F0C9
:1001E00038FCE433CB8DF0A42CFCE5F03BF8EE8A30
:1001F000F0A42CFCE5F038F8E433CF89F0A42CFC13
:10020000E5F038CF3400CE89F0A42FFFE5F03EFEB4
:10021000E433C98DF0A42EFEE5F039CD8AF0A42F89
:10022000FFE5F03EFEE43DFD33D0E0FB50070BBBA5
:10023000000F020398EC2CFCEF33FFEE33FEED339E
:10024000FD020370020398EC5D046005E859047038
:100250000302038E120359580460F6EC4860F2EC76
:100260007004FDFEFF22C860DB2481C85009C398DA
:10027000600250060203959850CAF582E9294B4A5C
:100280007005AB8202038475F0007C1A7880C3EF9E
:100290009BEE9AED99400DC3EF9BFFEE9AFEED9910
:1002A000FDE842F0DC23ACF0D0E0FFD0E0FED0E08F
:1002B000FDAB8220E7101BEB60BAEC2CFCEF33FFA8
:1002C000EE33FEED33FD020370E803F830E705C0BE
:1002D000F075F000EF2FFFEE33FEED33FD40B83048
:1002E000E7C280AA75F020800E75F010800575F0C9
:1002F000087D007E007F003392D530D50312098E31
:10030000EC334010EF33FFEE33FEED33FDEC33FC06
:10031000D5F0ED22E5F0247EA2D513CC92E7CDCE28
:10032000FF22EDD2E7CD33EC3392D524814006E4B1
:10033000FFFEFDFC22FCE4CFCECDCC24E0501174B6
:10034000FF80EDC3CC13CCCD13CDCE13CECF13CFC6
:100350000470F030D5DE02098EE9D2E7C933E83304
:10036000F892D5EDD2E7CD33EC33FC5002B2D52272
:10037000EC30E7100FBF000C0EBE00080DBD0004EE
:100380000BEB6014A2D5EB13FCED92E7FD2274FF9A
:10039000FCFDFEFF22E480F8A2D574FF13FC7D80F3
:1003A000E480EF74F8CC6480CCC86480C8F5820423
:1003B000604FC3EB9FF5F0EA9E42F0E99D42F0E802
:1003C0009C45F0603C501DE5825FFFE582D313CB76
:1003D0005BCBF42B5582FB50280ABA002409B900E4
:1003E0002008801DE5825BFBE582D313CF5FCFF44D
:1003F000C3132F5582FF50090EBE00050DBD00012D
:100400000CC3EB9FF5F0EA9E42F0E99D42F0E89CB8
:1004100045F06007CC4820E701B3EC22F920E7362D
:1004200024F950037907E4F42402FBE58215827075
:10043000021583DBF6E024FB501BE96014E4F0E5D1
:1004400082158270021583E004F0B40A08E4F0D942
:10045000EE7401F00A22C2D522ED33EC3392D5FAC4
:10046000602AB4FF33EDC2E77BFF60067A04797E31
:10047000E4227A04798720D5047A047982224E61B5
:100480004E002B494E46002D494E4600E47A08F0B6
:10049000A3DAFC7B00740722C083C082ECC0E0EDCD
:1004A000C0E0EEC0E0EFC0E0EA75F010A4CAABF027
:1004B00075F04DA42BFBE435F0FCEA2410FAEB3484
:1004C000C5FBEC34D9FCEDC2E7FF75F056A4F4246B
:1004D00011C5F0F434C58FF0A42AE5F03BE43CF0FC
:1004E00020E71412058ED0E0FFD0E0FED0E0FDD072
:1004F000E0FC1202478014F40412058ED0E0FFD015
:10050000E0FED0E0FDD0E0FC12013ED082D083E0DE
:10051000FAEDD2E7CD33EC332482FBE4C3CF33CF03
:10052000CE33CECD33CD33DBF37B0775F00A846059
:1005300004F0A31B0AE5F0F0A38FF0740AA4FFAC4B
:10054000F08EF0740AA42CFEACF050010C8DF07407
:100550000AA42CFDE435F0F0A3DBDE7407223F8013
:1005600000004120000042C80000447A0000461C00
:10057000400047C35000497424004B1896804CBE7D
:10058000BC205A0E1BCA6753C21C749DC5AEFB60CB
:10059000065407601C23231205BCEB543860091273
:1005A00005A81205B712013EECF8EDF9EEFAEFCB13
:1005B00022EB1205B780F1543803241C90055EFE2F
:1005C00093FC0EEE93FD0EEE930ECE93FF22E70901
:1005D000F608DFFA8046E709F208DFFA803E8882F3
:1005E0008C83E709F0A3DFFA8032E309F608DFFA2B
:1005F0008078E309F208DFFA807088828C83E3094F
:10060000F0A3DFFA806489828A83E0A3F608DFFA28
:10061000805889828A83E0A3F208DFFA804C80D276
:1006200080FA80C680D4806980F28033801080A6F2
:1006300080EA809A80A880DA80E280CA803389824A
:100640008A83ECFAE493A3C8C582C8CCC583CCF0F6
:10065000A3C8C582C8CCC583CCDFE9DEE7800D899D
:10066000828A83E493A3F608DFF9ECFAA9F0EDFBA4
:100670002289828A83ECFAE0A3C8C582C8CCC583EC
:10068000CCF0A3C8C582C8CCC583CCDFEADEE88045
:10069000DB89828A83E493A3F208DFF980CC88F0B7
:1006A000EF60010E4E60C388F0ED2402B4040050E8
:1006B000B9F582EB2402B4040050AF232345822312
:1006C00090061E73BB010689828A83E0225002E7EE
:1006D00022BBFE02E32289828A83E49322BB010CBF
:1006E000E58229F582E5833AF583E0225006E92583
:1006F00082F8E622BBFE06E92582F8E222E582299D
:10070000F582E5833AF583E49322BB010689828A68
:1007100083F0225002F722BBFE01F322F8BB010D49
:10072000E58229F582E5833AF583E8F0225006E96F
:100730002582C8F622BBFE05E92582C8F222EF8D8C
:10074000F0A4A8F0CF8CF0A428CE8DF0A42EFE2229
:10075000BC000BBE0029EF8DF084FFADF022E4CC8D
:10076000F875F008EF2FFFEE33FEEC33FCEE9DEC56
:10077000984005FCEE9DFE0FD5F0E9E4CEFD22ED9C
:10078000F8F5F0EE8420D21CFEADF075F008EF2FE6
:10079000FFED33FD4007985006D5F0F222C398FDD7
:1007A0000FD5F0EA22C2D5EC30E709B2D5E4C39DFB
:1007B000FDE49CFCEE30E715B2D5E4C39FFFE49E58
:1007C000FE120750C3E49DFDE49CFC800312075019
:1007D00030D507C3E49FFFE49EFE22C5F0F8A3E0F6
:1007E00028F0C5F0F8E582158270021583E038F034
:1007F00022BB0110E58229F582E5833AF583E0F515
:10080000F0A3E0225009E92582F886F008E622BB31
:10081000FE0AE92582F8E2F5F008E222E5832AF5EE
:1008200083E993F5F0A3E99322F8BB0111E582294E
:10083000F582E5833AF583E8F0E5F0A3F02250096C
:10084000E92582C8F608A6F022BBFE09E92582C880
:10085000F2E5F008F222EF2BFFEE3AFEED39FDEC67
:1008600038FC22C3EF9BFFEE9AFEED99FDEC98FC5D
:1008700022E88FF0A4CC8BF0A42CFCE98EF0A42C01
:10088000FC8AF0EDA42CFCEA8EF0A4CDA8F08BF04D
:10089000A42DCC3825F0FDE98FF0A42CCD35F0FC4B
:1008A000EB8EF0A4FEA9F0EB8FF0A4CFC5F02ECD17
:1008B00039FEE43CFCEAA42DCE35F0FDE43CFC22FC
:1008C00075F008758200EF2FFFEE33FECD33CDCCEF
:1008D00033CCC58233C5829BED9AEC99E582984072
:1008E0000CF582EE9BFEED9AFDEC99FC0FD5F0D64F
:1008F000E4CEFBE4CDFAE4CCF9A88222B800C1B979
:100900000059BA002DEC8BF084CFCECDFCE5F0CBB6
:10091000F97818EF2FFFEE33FEED33FDEC33FCEBEF
:1009200033FB10D703994004EB99FB0FD8E5E4F9AA
:10093000FA227818EF2FFFEE33FEED33FDEC33FC97
:10094000C933C910D7059BE99A4007EC9BFCE99A8B
:10095000F90FD8E0E4C9FAE4CCFB2275F010EF2FD0
:10096000FFEE33FEED33FDCC33CCC833C810D707D0
:100970009BEC9AE899400AED9BFDEC9AFCE899F80B
:100980000FD5F0DAE4CDFBE4CCFAE4C8F922C3E4F5
:100990009FFFE49EFEE49DFDE49CFC22EB9FF5F0AE
:1009A000EA9E42F0E99D42F0E89C45F022E8600FA3
:1009B000ECC313FCED13FDEE13FEEF13FFD8F12291
:1009C000E8600FEFC333FFEE33FEED33FDEC33FC95
:1009D000D8F122BB010789828A83020A0D5005E9FA
:1009E000F8020B16BBFE05E9F8020B2289828A8306
:1009F000020B2EBB010789828A83020A255005E972
:100A0000F8020B3EBBFE05E9F8020B4A22E0FCA30C
:100A1000E0FDA3E0FEA3E0FF22E0F8A3E0F9A3E0FD
:100A2000FAA3E0FB22ECF0A3EDF0A3EEF0A3EFF0CD
:100A300022A8828583F0D083D082120A48120A4805
:100A4000120A48120A48E473E493A3C583C5F0C5AB
:100A500083C8C582C8F0A3C583C5F0C583C8C58255
:100A6000C822E0FBA3E0FAA3E0F922F8E0FBA3A38D
:100A7000E0F925F0F0E582158270021583E0FA387E
:100A8000F022EBF0A3EAF0A3E9F022E493FB740177
:100A900093FA740293F922D083D082F8E49370120F
:100AA000740193700DA3A393F8740193F582888366
:100AB000E4737402936860EFA3A3A380DFEC8EF06D
:100AC000A4CCC5F0CCCDF8EFA4CEC5F02DFDE43C10
:100AD000FCE8A42EC8C5F03DFDE43CFCEFA4FFE516
:100AE000F028FEE43DFDE43CFC22EF4E6012EF6096
:100AF000010EEDBB010B89828A83F0A3DFFCDEFAD5
:100B00002289F05007F709DFFCA9F022BBFEFCF3B5
:100B100009DFFCA9F022E6FC08E6FD08E6FE08E68F
:100B2000FF22E2FC08E2FD08E2FE08E2FF22E49375
:100B3000FC740193FD740293FE740393FF22ECF6A0
:100B400008EDF608EEF608EFF622ECF208EDF208F2
:100B5000EEF208EFF222E508244FF582E43403F5C3
:100B600083E005082290034C30070390034FE4759F
:100B7000F001120A6B0206C42000E97F2ED2008029
:100B800018EF540F2490D43440D4FF30040BEF24DA
:100B9000BFB41A0050032461FFE50960021509057E
:100BA0000CE50C7002050B30070E90034CE475F059
:100BB00001120A6BEF02070A020FD97403D20780F1
:100BC00003E4C207F50890034C120A82E4F509F524
:100BD0000BF50CE50960077F20120B9980F5750A6B
:100BE000FFC201C200C202C203C205C206C208128D
:100BF0000B65FF700D3007057F00120BAAAF0CAE1E
:100C00000B22B4255FC2D5C204120B65FF24D0B4F9
:100C10000A00501A75F00A780930D50508B6FF01A8
:100C200006C6A426F620D5047002D20380D924CFAC
:100C3000B41A00EF5004C2E5D204020E9CD2018027
:100C4000C6D20080C0D20280BCD2D580BAD2058084
:100C5000B47F20120B992002077401B5090040F1FE
:100C6000120B56FF120B99020BD3D208D2068095B5
:100C7000120B56FB120B56FA120B56F94A4B700622
:100C8000799A7A0F7BFF20022EE509602A7E008E7A
:100C9000827583001206DD60060EEE650A70F0C2F2
:100CA000D5EBC0E0EAC0E0E9C0E0EE120EFDD0E016
:100CB000F9D0E0FAD0E0FB1206C4FF60AAEBC0E076
:100CC000EAC0E0E9C0E0120B99D0E02401F9D0E0DD
:100CD0003400FAD0E0FBE50A0460DCD50AD980874D
:100CE000D20280A2120EDF60F7E50A70010412043E
:100CF0001CA90A600DE50A600914F50A120F87EFB6
:100D000060F3EA30E702F404C3995079EAF4250A63
:100D10000430E701E404F50A800D120EDF60C1EA39
:100D2000050A250A12041CEA90037BF030E701E46F
:100D3000250A04D50A0420050114120EFDE4C0E0C2
:100D4000120F8790037BE0601320E70714F0120B6B
:100D500081802204F0D0E014C0E07F00120B81E516
:100D60000A6007120B78150A800B300503120B7806
:100D7000D0E0020BD3D0E00480C4120EDF609EE509
:100D80000A0412041C90037BEAF0E50A20050260C5
:100D900001042404120EFD74FF04C0E0120F871238
:100DA0000B81E50A2005026003120B78D0E0B50A3A
:100DB000E87F45120B8B90037BE07F2B30E7047FAD
:100DC0002DF404C0E0120B99D0E075F00A84C0F055
:100DD000120B82D0E0120B82020BD37910800279C1
:100DE00008C206C2088008D2D5790A8004790AC2EE
:100DF000D5E50A047002F50AE4FAFDFEFF120B566F
:100E0000FC7B08200113120B56FD7B1030000A12E8
:100E10000B56FE120B56FF7B20EC3382D592D55039
:100E200013C3E43000069FFFE49EFEE42001039D0F
:100E3000FDE49CFCE4CBF8C201EC700CCFCECDCC31
:100E4000E824F8F870F38017C3EF33FFEE33FEEDBC
:100E500033FDEC33FCEB33FB994002FB0FD8E9EB9D
:100E6000300105F8D0E0C448B201C0E00AEC4D4EB4
:100E70004F78207B0070C2EAB50A0040BCC0E01287
:100E80000EFFD0F0D0E0200104C4C0E0C4B201C025
:100E9000F0120B82D0F0D5F0EB020BD3120A970CB4
:100EA00070530DDB580C414C0C3D420DDF4F0DE7EC
:100EB000440DE7490C56430DED550D1A460D7A4584
:100EC0000CE4470FBA500C452D0C492E0C6C2B0C22
:100ED0004D230C6A200FA32A0C054800000C64E582
:100EE0000AB4FF03750A06120B56FC120B56FD12CC
:100EF0000B56FE120B56FF900374020459790AA296
:100F0000D5200314300509B910020404B9080104FE
:100F1000A2D52006025001042002689202B5090001
:100F20005034C0E07F203003197F30A20272067275
:100F300005500F120F56C202C206C205C2087F300A
:100F4000800F300503E9C0E0120B99300503D0E0B3
:100F5000F9D0E0B509CC3005177F30B9100C120B71
:100F6000997F583004077F788003B90803120B99E2
:100F70003002057F2D020B997F202008F87F2B205F
:100F800006F322920280CF7F00B40700500B247436
:100F9000F582E43403F583E0FF22286E756C6C293A
:100FA00000D201120B563001F8C201780930D50188
:100FB00008F6020C052D50434958120B562403B471
:100FC00005004001E4900FB593120B8A743A120B9E
:100FD0008AD203750904020DDBEFB40A07740D12FF
:100FE0000FE4740A309811A899B8130CC29830987D
:100FF000FDA899C298B811F63099FDC299F59922C9
:1010000025091606FFFFFFFFFFFFFFFFFFFFFFFFA2
:10101000900265120A2574FFFFFEFDFC900265E058
:10102000F8A3E0F9A3E0FAA3E0FBC312099C60383F
:101030007F807E967D187C4B900265E0F8A3E0F9F6
:10104000A3E0FAA3E0FB1203A36002501B7F807EA3
:10105000967D187CCB900265E0F8A3E0F9A3E0FA56
:10106000A3E0FB1203A3500F900265E0FCA3E0FD98
:10107000A3E0FEA3E0FF22900265E0FCA3E0FDA355
:10108000E0FEA3E0FF120322900269120A259002FB
:1010900069E0FCA3E0FDA3E0FEA3E0FFEC1202E4A4
:1010A000C8ECC8C9EDC9CAEECACBEFCB900265E067
:1010B000FCA3E0FDA3E0FEA3E0FF120049E4FBFA7D
:1010C000F9F81203A35025900269E0FCA3E0FDA308
:1010D000E0FEA3E0FFE4FAF9F8EF2401FFEA3EFEA8
:1010E000E93DFDE83CFC900269120A25900269E0A6
:1010F000FCA3E0FDA3E0FEA3E0FFEC1202E42278F3
:101100007FE4F6D8FD758166021146022618E49345
:10111000A3F8E493A34003F68001F208DFF48029EA
:10112000E493A3F85407240CC8C333C4540F4420D9
:10113000C8834004F456800146F6DFE4800B0102C8
:1011400004081020408090118BE47E019360BCA3C2
:10115000FF543F30E509541FFEE493A360010ECF16
:1011600054C025E060A840B8E493A3FAE493A3F840
:10117000E493A3C8C582C8CAC583CAF0A3C8C58200
:10118000C8CAC583CADFE9DEE780BE4103FC00446C
:1011900003F8000000004104090041040800410474
:1011A00007004103FF0041040A0041037F0044039C
:1011B0008000000000602800000010000E000112F6
:1011C000101E000218213E00031E410D00041001F4
:1011D0002C000518240C000618231C000718203DBD
:1011E000004103DD005A03DE000128E0047E0438DC
:1011F000002000110015044E043800120002000205
:10120000010100900346E0FFA3E0FEA3E0CF9003BE
:101210004FF0A3EEF0A3EFF0900349E0CBF0A3E092
:10122000CAF0A3E0C9F07F22900352AD82AC8312D2
:1012300006C48D828C83F0A309E970010ADFEC906B
:101240000349E0FBA3E0FAA3E0F9020BBBC2D5E837
:1012500030E70FB2D5E4C39BFBE49AFAE499F9E4D2
:1012600098F8EC30E717B2D51212831208FCE4C3E9
:101270009BFBE49AFAE499F9E498F880031208FCDD
:1012800030D50DE4C39FFFE49EFEE49DFDE49CFC8D
:101290002254785374617465203D203078253032B3
:1012A000627800525820536574204576656E743A12
:1012B000253032627820004D697069496E436C6B4D
:1012C0003A256C642C2063616C6320756C427974E0
:1012D00065636C6B3A256C642C20756C506879439F
:1012E0006C6B3A256C642C2075634270703A2562F1
:1012F000642C2075635478506F72744E756D3A305B
:101300007825303262782C20756354784C616E6594
:101310004E756D3A307825303262780042757273BE
:1013200074204D6F6465206C616E65207261746518
:1013300020696E6372656173652038304D005258C4
:101340005B485D3A2048746F74616C3A25642C48A0
:101350006163746976653A25642C4873773A25642D
:101360002C4866703A25642C4862703A25642C48F3
:1013700073706F6C3A2562640052585B565D3A2078
:1013800056746F74616C3A25642C56616374697687
:10139000653A25642C5673773A25642C5666703A64
:1013A00025642C5662703A25642C5673706F6C3A23
:1013B00025626400506F72743A2025303262782CB6
:1013C000204C616E653A20253032627800445343E8
:1013D00020736F667420776F7264636E743B007263
:1013E0006462797465636C6B3A25642C2072647056
:1013F0006978636C6B3A256420006873773A2564DA
:101400002C206862703A256420686163746976658F
:101410003A2564007563427070203078253032625E
:10142000783B00726561642064656C61793A256C73
:10143000750041645F6C6D74785F77726974655F85
:10144000636C6B203D20256C756B687A0041645F8E
:101450006C6D74785F726561645F636C6B203D20B6
:10146000256C756B687A0000FFFFFFFFFFFF000629
:10147000B3A02801010101041F0103803E2278EE80
:101480006995AD5246A1270F5054BFCF00814081CE
:10149000809500714F81C0B300D1C0010108E80000
:1014A00030F2705A80B0588A0055502100001E005A
:1014B0000000FD0018901EFF8A000A202020202036
:1014C00020000000FC005647323855514C31410A8B
:1014D000202020000000FF00313233343536373809
:1014E000393032380A01F002035AF15004131F1048
:1014F0000F1E015D5E5F60617603123F23090707DF
:1015000083010000E200EA6D030C001000383C2863
:1015100000600102036DD85DC401788853123078F1
:1015200083341D6D1A000002013090F000000000AD
:1015300000E305C000E421001C00E6060501606030
:1015400012366C80A070703E803020080C6D5521E2
:1015500000001A6FC200A0A0A05550302035006DC9
:10156000552100001A0027000000000000000000C4
:10157000000000000000000000000000000000006B
:10158000000000000000000000000000000000005B
:10159000000000000000000000000000000000004B
:1015A000000000000000000000000000000000003B
:1015B000000000000000000000000000000000002B
:1015C000000000000000000000000000000000001B
:1015D000000000000000000000000000000000000B
:1015E00000000000000000000000000000000000FB
:1015F00000000000000000000000000000000000EB
:1016000000000000000000000000000000000000DA
:1016100000000000000000000000000000000000CA
:1016200000000000000000000000000000000000BA
:1016300000000000000000000000000000000000AA
:10164000000000000000000000000000000000009A
:10165000000000000000000000000000000000008A
:10166000000000000000000A5468697320666D20C5
:101670007278706C6C5F696E5F636C6B000A5468A3
:10168000697320666D20646874785F6469765F6C46
:10169000696E6B5F636C6B000A5741524E494E474F
:1016A0003A2046726571206D6574657220676574B5
:1016B000206661696C005761726E696E673A2069D5
:1016C0006E70757420697320696E76616C69640050
:1016D0000A6C6F6164206B657920646F6E655B30A6
:1016E0007825303262785D000A5061747465726EDC
:1016F000207063722062616E64203D203078253056
:10170000326278000A5061747465726E2070637280
:10171000206C6F636B004D495049566964496E6691
:101720006F557064617465212121212121004D498B
:101730005049566964496E666F436C656172212138
:101740002121212100417564496E666F55706461E5
:10175000746521212121212100417564496E666F44
:10176000436C656172212121000A466C6173682017
:1017700045444944204C6F6164000A466C617368BB
:101780002045444944206E6F742065787369743A2B
:101790000054784576656E742D2562640000000063
:1017A0000000000000000000000000000000000039
:1017B0000000000000000000000000000000000029
:1017C0000000000000000000000000000000000019
:1017D0000000000000000000000000000000000009
:1017E00000000000000000000000000000000000F9
:1017F00000000000000000000000000000000000E9
:1018000000000000000000000000000000000000D8
:1018100000000000000000000000000000000000C8
:1018200000000000000000000000000000000000B8
:1018300000000000000000000000000000000000A8
:101840000000000000000000000000000000000098
:101850000000000000000000000000000000000088
:101860000000000000000000000000000000000078
:101870000000000000000000000000000000000068
:101880000000000000000000000000000000000058
:101890000000000000000000000000000000000048
:1018A0000000000000000000000000000000000038
:1018B0000000000000000000000000000000000028
:1018C0000000000000000000000000000000000018
:1018D0000000000000000000000000000000000008
:1018E00000000000000000000000000000000000F8
:1018F00000000000000000000000000000000000E8
:1019000000000000000000000000000000000000D7
:1019100000000000000000000000000000000000C7
:1019200000000000000000000000000000000000B7
:1019300000000000000000000000000000000000A7
:101940000000000000000000000000000000000097
:101950000000000000000000000000000000000087
:101960000000000000000000000000000000000077
:101970000000000000000000000000000000000067
:101980000000000000000000000000000000000057
:10199000000000000000000000000000004D697021
:1019A0006920445349204F7574004D697069204384
:1019B0005349204F7574004D697069204F7574202C
:1019C00044697361626C6500506F727420307E33BD
:1019D0002052702043616C6920526573756C743AB3
:1019E0002025303262782C2025303262782C202558
:1019F000303262782C20253032627800506F727459
:101A000020307E332052642043616C69205265731C
:101A1000756C743A2025303262782C202530326281
:101A2000782C2025303262782C20253032627800E4
:101A30004450687920436C6B206275727374204D3A
:101A40006F6465004450687920436C6B20636F6E4F
:101A500074696E7565204D6F646500445349207646
:101A60006964656F204E4F4E5F42555253545F4D2F
:101A70004F44455F574954485F53594E435F45565D
:101A8000454E540044534920766964656F204E4F9B
:101A90004E5F42555253545F4D4F44455F57495432
:101AA000485F53594E435F50554C5345004453498A
:101AB00020766964656F2042555253545F4D4F4400
:101AC00045004D49504954585F33445F4D4F44459C
:101AD0003A204D4950495F4C4546545F524947486A
:101AE000545F4D4F4445004D49504954585F33446D
:101AF0005F4D4F44453A204D4950495F4E4F5F334B
:101B0000445F4D4F44450076636F204461746152D9
:101B10006174653A20256C752C20256C7500506F1A
:101B2000737420646976203D2032004132303720C2
:101B300052475F4C4D5458504C4C5F52414E4745B4
:101B40005F53454C203A203078253032627800418E
:101B5000323041204C4D5458504C4C5F4449565FF4
:101B6000534554203A2030782530326278004C4D6D
:101B70005458504C4C2063616C69206661696C005C
:101B80004C4D5458504C4C206C6F636B20666C610C
:101B9000673A3078253032627820004C4D545850E6
:101BA0004C4C20756E6C6F636B004C4D5458504C10
:101BB0004C2063616C6962726174696F6E2062614E
:101BC0006E646F75743A2030782530326278203038
:101BD000782530326278004279746520636C6B3A04
:101BE00025754D687A00636B5F706F7374202830C1
:101BF000784639413929203D2030782530326278C5
:101C000000636B5F7A65726F202830784639413700
:101C100029203D20307825303262780068735F6C6F
:101C2000707820202830784639413429203D2030F2
:101C30007825303262780068735F70726570202892
:101C400030784639413529203D20307825303262C0
:101C5000780068735F747261696C28307846394126
:101C60003629203D20307825303262780068735F55
:101C700072717374202830784639384129203D200C
:101C8000307825303262780000000000000000004B
:101C90000A547261696E696E6720657120696E66AB
:101CA0006F3A000A4C302076616C69645B307825AD
:101CB0003034785D2C45515B307825303262785D68
:101CC000000A4C312076616C69645B3078253034D1
:101CD000785D2C45515B307825303262785D000AA2
:101CE0004C322076616C69645B3078253034785DE5
:101CF0002C45515B307825303262785D000A4C33D8
:101D00002076616C69645B3078253034785D2C45D1
:101D1000515B307825303262785D000A4551486960
:101D200067203D2030782530326278000A45514CDA
:101D30006F77203D2030782530326278000A534397
:101D4000414E205354524154000A46454353544196
:101D50005445203D2030782530326278000A4C61AD
:101D60006E65457272203D203078253034782C30F5
:101D700078253034782C3078253034782C3078251C
:101D8000303478000A5363616E5F45514C4F5720E1
:101D90003D20307825303262782C30782530326220
:101DA000782C307825303262782C307825303262C9
:101DB00078000A5363616E5F4551484947203D20D2
:101DC000307825303262782C307825303262782CA9
:101DD000307825303262782C3078253032627800C5
:101DE0000A414344525F4953535545000A56616CBA
:101DF00069644571203D20307825303262782C307E
:101E00007825303262782C307825303262782C3068
:101E1000782530326278000A536B6577203D203098
:101E20007825303262782C307825303262782C3048
:101E30007825303262782C30782530326278000094
:101E4000000102030405060708090A0B0C0D0E0F1A
:101E50000F0F0F0F0F0F0F0F0F0F0F0F0F0F0F0F92
:101E60000000000000000000000000000000000072
:101E7000000102030405060708090A0B0C0D0E0FEA
:101E80000FFFFFFFFFFFFFFFFFFFFFFFFF0000004F
:101E90000001010101000000000A436F6C6F7269CC
:101EA0006D65747279206368616E6765203D2030CE
:101EB000782530326278000A44705278494E464F95
:101EC0003A000A486270202020203A20252D3864EC
:101ED0002020566270202020203A20252D386400D2
:101EE0000A486670202020203A20252D38642020C2
:101EF000566670202020203A20252D3864000A489C
:101F000073796E6320203A20252D38642020567383
:101F1000796E6320203A20252D3864000A486163D9
:101F2000742020203A20252D3864202056616374C7
:101F30002020203A20252D3864000A48746F6C2038
:101F400020203A20252D3864202056746F6C2020E4
:101F5000203A20252D3864000A44657074682020DA
:101F60003A20252D3862642020537061636520205B
:101F70003A20252D386264000A506978436C6B2042
:101F80003A20252D386C6420205065616B436C6BC2
:101F90003A20252D386C64000A52656672657368B4
:101FA00052617465203D202564000A5278537461A3
:101FB0007465203D20256264000A447052782055E3
:101FC0006E706C7567000A527820506C7567000A55
:101FD0005761697420454343000A45636320657275
:101FE00072000A52782072652D747261696E696E92
:101FF00067000A534B657720556E6C6F636B000A60
:10200000436F6C6F72207370616365206368616EEB
:102010006765000A4D7361206368616E6765000A39
:102020004453432043484E47000A476F746F205083
:102030004352000A417564696F20636867000A4172
:1020400043445220556E6C6F636B000A52415445F5
:102050005F4C414E45203D20307825303262782C4F
:1020600030782530326278000A44652D736B6577CD
:1020700020657272000A5761697420706372207360
:102080007461626C652E2E2E000A50435220484126
:10209000524420524553455400447363456E6320B7
:1020A000536C696365203D202562642C436F6D701D
:1020B00072657373526174696F203D2025626400FC
:1020C000447363456E6320536C6963654865696753
:1020D0006874203D2025642C536C696365576964DE
:1020E0007468203D2025642C4368756E6B53697AB3
:1020F00065203D2025640041645F63736374785FED
:1021000068616C665F7069785F636C6B203D202549
:102110006C756B687A0041645F64736374785F64A4
:1021200073635F72645F636C6B203D20256C756B1D
:10213000687A0041645F64736374785F6473635F9B
:10214000636C6B203D20256C756B687A0041645F81
:1021500064736374785F6473635F6F75745F636CDB
:102160006B203D20256C756B687A0011000089306A
:1021700080043804380010021C021C0200020E0009
:102180002001840007000C0667065C180010F003AD
:102190000C2000060B0B330E1C2A38465462697063
:1021A00077797B7D7E01020100094009BE19FC1987
:1021B000FA19F81A381A781AB62AF62B342B743B07
:1021C000746BF400000000000011000089308008EA
:1021D0007008700010021C021C0352020E00200046
:1021E000000007000C0667065C18000A4750494FBC
:1021F0002054726967676572204C6F77000A4750F8
:10220000494F2054726967676572204869676800A2
:102210000A44702052782076696420696E666F3AAD
:10222000000A436F6C6F7253706163655B25626473
:102230005D000A436F6C6F7244657074685B256261
:10224000645D000A52785F5065616B5F636C6B2060
:102250003D2020256C640075636142726967687473
:102260006E6573735B315D3A307825303262782C5D
:10227000207563614272696768746E6573735B325F
:102280005D3A3078253032627800445052585F53BE
:1022900054415449435F4844525F4E4F5449465954
:1022A0005F4556454E540054585F564944454F5F6C
:1022B0004F4E5F4556454E545F3300445052585F71
:1022C000564944454F5F4F46465F4556454E54007C
:1022D0000000004D6970692044435320454E44007E
:1022E0000511000529000510000528001536C61542
:1022F000B00039B9132A026439EC05D815D6001597
:10230000B00315350015364015260115030129BC0B
:10231000110000893080043804380010021C021CAF
:102320000200020E002001840007000C0667065C14
:10233000180010F0030C2000060B0B330E1C2A387B
:10234000465462697077797B7D7E01020100094005
:1023500009BE19FC19FA19F81A381A781AB62AF6A9
:102360002B342B743B746BF4000000000000110050
:1023700000893080087008700010021C021C035293
:10238000020E002000000007000C0667065C180023
:10239000444542554700494E464F005741524E0072
:1023A0004552524F520043524954000A5B252D3585
:1023B000735D2025730003FF2390FF2396FF239B6B
:1023C000FF23A0FF23A60000000000000000000083
:1023D00000000000000000000000000000000000FD
:1023E00000000000000000000000000000000000ED
:1023F00000000000000000000000000000000000DD
:1024000000000000000000000000000000000000CC
:1024100000000000000000000000000000000000BC
:1024200000000000000000000000000000000000AC
:10243000000000000000000000000000000000009C
:102440000000000000000A447052782048504420E8
:10245000495251000A44705278204850442048693B
:102460006768000A4470527820485044204C6F77C7
:10247000000A527820527465726D2069732030789A
:102480002530326278000A43616C6920737563639A
:10249000657373000A43616C69206661696C6564E9
:1024A000000A4470207278706C6C2062616E642047
:1024B0003D20307825303262782C307825303262F9
:1024C000782C307825303262782C307825303262A2
:1024D00078000A706372206873796E63206D6F6490
:1024E00065002120212000F022222222238056563E
:1024F000AAAA40636868CCCCC0FE436F6C6F72536D
:10250000706163653A20256264202C20436F6C6FF4
:102510007244657074683A20256264004453435BDA
:10252000485D3A2048746F74616C3A25642C4861A8
:1025300063746976653A25642C4873773A25642C70
:102540004866703A25642C4862703A25642C4873BA
:10255000706F6C3A256264004453435B565D3A20C9
:1025600056746F74616C3A25642C56616374697695
:10257000653A25642C5673773A25642C5666703A72
:1025800025642C5662703A25642C5673706F6C3A31
:10259000256264000A43686970506F7765724F6EF8
:1025A000000A46575F564552203D2030782530328C
:1025B00062782C307825303262782C3078253032B1
:1025C0006278000A496E636F7272656374205057B7
:1025D0004D2044757479000A50574D204475747924
:1025E0003A256264000A4653203D20307825303277
:1025F000627800901000E49390E080F0901001E485
:102600009390E081F0901002E49390E082F09010BB
:1026100003E49390E083F0221261A612799A126982
:10262000D1B1F3D14B7A25799412003A7A2579A168
:1026300090E0811280EA90E082E090029BF090E0CE
:102640008312374D126738F15680F91281BE12821B
:102650003C7F011275C17F011275F712784B7B0127
:102660007D0C7F09122A7E7D017F091269E3120029
:10267000097B327D017F0AD188E49003FCF0127857
:102680003F12877FE0A3F022900261EFF0A3EDF00C
:10269000A3EBF0D3946474809480400B7BFF7A2585
:1026A00079C37F01022E7F900263E0FF9003DDE09B
:1026B0006F7002E13A900263E09003DDF07BFF7AF5
:1026C0002579D7900281124770900262E0FBE4FA0C
:1026D000F9F87F807EBBFDFC12124D900264EEF093
:1026E000A3EFF0900263E0FB64647009A3E0FFA332
:1026F000E0A3CF8010900264F14E7D64120750EB8E
:10270000124794A3EEF0A3EFF07F0A1269D97F0A73
:102710001268A1900261E024F7601A14601224FE8E
:10272000600924FE7014F13B02779CF13B0277C9EB
:10273000F13B0277EDF13B12781B22900264E0FE40
:10274000A3E0FFA3E0FCA3E0FD22F090026CE0FE1A
:10275000A3E0FF7C0022123FD412674890E0B1E072
:10276000FB6432600280027B327D017F0AD18812D5
:102770004B6A122C9FE4900261F0A3F078637C0214
:102780007D017BFF7A2279D0FE7F0312069E9000A6
:102790002CE06407600302281D12877FA3E0FF90EE
:1027A00003FDE06F6077E0A3F09003FDE02401FFFC
:1027B000E433FEEFC4F8540FC868FFEEC454F04889
:1027C000900261F0A3EFF090026174FFF5F0120740
:1027D000DB9002637451F01247BFEC900264F0AFDB
:1027E00005A3EFF07A227957900264128697A3EF3F
:1027F000125FDC90F9B8125FA8F07F011274927B2F
:10280000017A0279637D037F3911227F327E0031A4
:102810003BE4FF12749290F9B8E054FCF02293FF6D
:102820007BFF900266EDF0AC0790F9A0E054EFF06A
:10283000ECF58264296006E5826439702A90F99A81
:1028400074E0F0900266E0FF240690F999F090F9A8
:1028500098ECF0EFF0E4F0FF900266E0FEEFC39E2C
:1028600050151286BA80F174C012871290F998EC54
:10287000127AC090F998F03137E490F99AF090F913
:10288000ABE054BFF0221279367F147E00313B90CA
:1028900022EFE47A2279F07D02111E9022F2E47A8E
:1028A0002279F37D05F1E99022F8E47A2279F97D25
:1028B00003F1E99022FCE47A2279FDF1EF112290F4
:1028C00022FFE47A237900F1EF1122902302E47AC7
:1028D0002379031286FA1122902305E47A237906DC
:1028E0001286FA1122902308E493FF7BFF7A237962
:1028F000097D02112290230BE493FF7BFF7A237959
:102900000C7D02112290230EE47A23790F7D811130
:102910001EF18B9022E3E47A2279E4F1839022E0A5
:10292000E47A2279E1F183F1F67BFF7A2279D37F91
:1029300001C17FE054F7F07F017E00EF1FAA06700F
:10294000011E4A6013E4FCFDC3ED9474EC94025044
:10295000EA0DBD00010C80F02290002CE024FE6006
:102960001A14604614606E14700221FE1470024145
:102970007524056002417D7F02417A90002DE06060
:102980001D126D17F1B490038D7401F078477C002F
:10299000FD7BFF7A1479677E027F0012069E90000D
:1029A00028E07002417D7F03417A90002DE06005B0
:1029B000126D17F1B4900029E07002417D7F04127E
:1029C000381BE4FF1275C51283607F147E00313B13
:1029D000E4FF0275431260E1124573124CE7125F87
:1029E00098EF7002417D1246F01282A2126D1F1202
:1029F00073381274121242ADF11A7F05807C900078
:102A00003EE0640170777F01126CBFE4FB7D0C7FB8
:102A100022517E7F2291CB7F20517E7D017F2091AC
:102A2000CD7F21517E7D017F211269E37F0591D207
:102A30007F1F517E7D017F1F1269E37FC87E0031B9
:102A40003B11867FC891D27F1D517E7F1D91CB7F28
:102A50000A517E7D017F0A1269E37F327E00313B9D
:102A600090002EE0700612747D1274487F01126C83
:102A7000D17F06800512811C7F0712381B22EF12BE
:102A80000A972AEF002AFC012B06022B10032B1AAF
:102A9000042B24052B2E062B38072B42082B4C0920
:102AA0002B560A2B600B2B6A0C2B740D2B7E0E2BD6
:102AB000880F2B92102B9C112BA6122BB0132BBA24
:102AC000142BC7152BD6162BE0172BF0182C011939
:102AD0002C131A2C261D2C321E2C431F2C48202C64
:102AE00054212C69222C6E232C762400002C8B90F0
:102AF000A3741286F1C43354E04FF02290A35C918A
:102B00009390A36461E890A372918C90A37481095F
:102B100090A372919390A374811B90A371918C9058
:102B2000A373812E90A371919390A37361C290A31C
:102B300070918C90A37361CF90A370919390A373C5
:102B4000815C90A36F918C90A37361E890A36F91C7
:102B50009390A37361F890A36E918C90A3738109F5
:102B600090A36E919390A373811B90A369918C9015
:102B7000A36A812E90A369919390A36A804490A345
:102B800068918C90A36A804790A362919390A3640C
:102B9000812E90A361918C90A364802690A3619173
:102BA0009390A364802990A360918C90A364815C2E
:102BB00090A360919390A363807490A35F918C9095
:102BC000A363E0FFEB807890A35F919390A363E011
:102BD000FFEB25E0806990A35E918C90A363807CDD
:102BE00090A35E919390A363E0FFEBC454F08074D4
:102BF00090A35D918C90A363E0FFEBC43354E0801D
:102C00006390A35D919390A363E0FFEBC4333354CF
:102C1000C0805190A35C918C90A363E0FFEBC43320
:102C200033335480803E90A35A918C90A35BE04B49
:102C3000F02290A359918C90A35BE0FFEB25E02557
:102C4000E0802190A2A2800390A2A31286F1C45436
:102C5000F04FF02290A2C0918C90A364E0FFEB3380
:102C6000333354F8FEEF4EF02290A2BF800390A2BF
:102C7000BE1286F1800D90A2BDE054F0F04DFFF041
:102C8000AE03EEC433333354804FF022E054F0F0FF
:102C90004DF022E0540FFFF0EDC454F04FF022123B
:102CA000873C94804024127723EF6401701C9003CA
:102CB00097E07B0160067D0C91DB417EE4FD91DBBA
:102CC000517EE4FF1276C7124BC2227D011269E3E6
:102CD0007F327E00313B7B017D0C227F03517E7F62
:102CE00002517E7F04517E7F05517E7F06517E7F9B
:102CF00007517E7F0822FFE0FEEF4E90A33EF07D5D
:102D0000127F03F13C7F0A7E00313BE4FD7F03909C
:102D1000026DEDF0EF14604514606F147002A1C5F0
:102D200024036002C10090C740E04480F090C7587F
:102D3000F198C004C005C006C00790C759D13978C2
:102D4000081209C0D003D002D001D000F1A890C76A
:102D50005AD139F191120A2590C740A1FA90C7487B
:102D6000F198C004C005C006C00790C749D13978A2
:102D7000081209C0D003D002D001D000F1A890C73A
:102D80004AD139F191120A25807D90ED30E044025C
:102D9000F090ED3CF198C004C005C006C00790ED6E
:102DA0003DD13978081209C0D003D002D001D0003B
:102DB000F1A890ED3ED139F191120A2590ED30E065
:102DC00054FDF0804290E690E04480F090E698F167
:102DD00098C004C005C006C00790E699D1397808AC
:102DE0001209C0D003D002D001D000F1A890E69A19
:102DF000D139F191120A2590E690E0547FF08007D6
:102E00007A16799812751E90026E120A0D90026D54
:102E1000E0F9F81209C0A3120A2590026E020A0D09
:102E20007F02FEFDFC900039120A19120871A804F5
:102E3000A905AA06AB07900031E0FFE4FCFDFE22E5
:102E40007D0FF1017A2079F7F174D17F7D12F101C4
:102E50007A217916F174D17F7D137F03F13C7F32A3
:102E6000F1077A217933F174D17F7D14F1017A2150
:102E7000794DF17480097BFFE0900281F0E4FF90CE
:102E8000027DEFF0A3120A8278A97C027D017BFF0C
:102E90007A2379C67E007F8012069E90027DE0FF35
:102EA000D3125DCC505A90040AE0FEEFC39E40500E
:102EB0007B017A027981900329120A8290027E12A4
:102EC0008764900329120A6290034912875A1212EA
:102ED0000390032912870190027DE075F003A4247A
:102EE000B7F582E43423F583120A8B90034F1287DF
:102EF0005A900352120A827BFF7A2379AB120BC1DC
:102F0000227F03F13C7F057E00313BE4FD7F03B16E
:102F10000F900261120A257BFF22900261120A3192
:102F2000000000007D31F1017A147932F174D17F13
:102F30007D30F1017A14794DF174C17F90026DED0D
:102F4000F0EF1460131460181460202403702490B0
:102F5000026DE090C740F0227BFF7A167967800609
:102F60007BFF7A16797DE4FF02363990026DE0909E
:102F7000E690F022900261120A0D900281120A2559
:102F80007F012293FF7BFF7D0211227F967E00212D
:102F90003B12085690026E22E0540FFFE4FCFDFE47
:102FA00078100209C0E4FCFD120856A804A905AA7D
:102FB00006AB0722EF64017B0170287D0C7F0F5167
:102FC0007EE490F31CF090F1A5E044C0F090E6E4BC
:102FD0007402F090E6E6E04403F054F3F01D7F0F36
:102FE0000268A1E4FD7F0F417E93FF7BFF012293E6
:102FF000FF7BFF7D02221179E490F96DF090F96E6C
:10300000F02290038E7414F0A37404F0900388747B
:1030100001F0A3F0A3F07E007F457D007B007A00E5
:103020007922020AEA9003FCE0601C127790EF64B8
:10303000017014FD7F091269E37B017A0379F811AD
:10304000747A2179EBF1479003FCE06026127790C7
:10305000EF70207B017A0379F87FC8FEFDFC715583
:1030600070119003FCF07D017F091269E37A2179E8
:10307000FDF14722F135F141900264120A0DAB07D0
:10308000AA06F13BC3EF9BFFEE9AFE12002ED3EF90
:10309000947FEE648094804004F13BF1419002649F
:1030A00071620209F3900385E0120A9730DA013069
:1030B000E702310703311504312305315B06317610
:1030C0000831AC0931D10A32040B325B0D32CC0E1F
:1030D00032EF0F32F910000032FC1281D412584640
:1030E0001262277F0241F6715B700951FE1174E490
:1030F00090038CF051FE7F287E007151600241FCEC
:1031000012400C7F0341F690038BE06401600241A2
:10311000FC7F0441F690038DE06401600241FC7F76
:103120000541F6715B700E51FE1174E4FF12676386
:10313000E490038CF051FE7FB07E04715160024137
:10314000FC1200061262CD1260437F06123BBC7F68
:1031500009123A8F7D017F090263001257E6EF647E
:1031600001600241FC51FE7F50FEFDFC7155600282
:1031700041FC7F0841F6715B701751FD11747BFFB4
:103180007A20794B7828E690029AF008E6A3125F3D
:103190009B51FE7F807E0C7151600A12685EEF6465
:1031A00001600241FC1280F27F0941F6715B7004FC
:1031B00051FD11747147600241FC126527EF700DDB
:1031C0007F07B1DC7A20796812003A41C87F0A4152
:1031D000F6715B70187F06B1DC7F01B1DCE490030F
:1031E0008CF0FF125E1A12678A51FE1174714760EB
:1031F0000241FC12678AEF70077F01125E1A41C814
:103200007F0B41F6715B7029FF12758C1267A07FEE
:10321000011267B690039974FFF0A3F0A3F0E49055
:1032200003A0F0A3F0A3F0A3F090038CF090039818
:10323000F012412D1281D7EF600241FC123FF0EFF6
:10324000640170099003AC04F07F0C41F67F011219
:10325000758CE49003ACF07F0D41F6715B701AFF42
:1032600091E151FE11747BFF7A2079757F03D1398A
:10327000E490038CF0900384F07F0191E17147703A
:103280001D126895EF6401700F12685EEF640170A3
:10329000077F0E123BBC800612685EEF605E51FE37
:1032A0007FD07E0771517054900384E004F0E06495
:1032B0000A70157BFF7A207989FFD1397F01B1DC53
:1032C000125E13E4900384F051FE0174715B701B75
:1032D000900393F090038C51FD1174126449900394
:1032E000AEEFF012644F9003AFEFF07F0F800771E5
:1032F0005B7001F07F10023BBC12410522F07B01A4
:103300007A03798022F141F13590026C120A25127C
:1033100009D3900268120A25F15612456C401090AC
:10332000026C71621209F3F156120A257F00229095
:103330000264F159120A1912085690026C12456C77
:103340007F0040027F01227B017A0379807F907E9B
:10335000017D007C007105EF64012290038CE06424
:103360000122120A0D900261020A62900261120AA1
:1033700082E4FF71F6716590000491D17F0171F6CE
:10338000716590000691D17F0271F6716590000819
:1033900091D17F0371F6716590000A91D17F04711C
:1033A000F6716590000C91D17F0571F67165900002
:1033B0000E91D17F0671F6716590001091D17F0753
:1033C00071F6716590001291D17F0871F671659068
:1033D000001491D17F0971F6716591CE7F0A71F663
:1033E0007165900018EF12071C7F0B71F6716590E4
:1033F0000019EF02071CAB07900272120A3100009D
:103400000000EB120A97342E0034380134420234A3
:103410004C03345604346505347106347D07348911
:103420000834950934A30A34B30B000034C890F76C
:10343000F6E0FE90F7F7802690F7FAE0FE90F7FBB3
:10344000801C90F7F2E0FE90F7F3801290F7EAE02C
:10345000FE90F7EB800890F7F0E0FE90F7F191D83E
:1034600012870A803990F7F4E0FE90F7F591D88042
:103470002D90F7F8E0FE90F7F991D8802190F7EEC3
:10348000E0FE90F7EF91D8801590F7E8E0FE90F716
:10349000E991D8800990F7ECE090F7ED91D7FEE440
:1034A000FD801F90F7E7E05410C4540FFFE4FCFDCB
:1034B000FE800F90F7E7E05420C4135407FFE4FCAC
:1034C000FDFE900272120A25900272020A0D90000F
:1034D00016EE8FF0020829FEE07C002400FFEC3E8F
:1034E00022AB07900262120A3100000000EB700864
:1034F00090F362E054F0F02290F3E2E030E41F90A9
:10350000F3F8122F98122FAB90F3F9E07F00FE1220
:103510002FA590F3FA122E39120856124FCDE4FF60
:10352000FEFDFCB1CC7002A1C3B1C44002A1C3E452
:103530007F3E7E49FDFCB1CC50089002617406F0DC
:103540008064E47F7C7E92FDFCB1CC5008900261E7
:103550007405F080517FF87E247D01B1CA50089037
:1035600002617404F0803F7FF07E497D02B1CA5051
:10357000089002617403F0802D7FE07E937D04B19A
:10358000CA50089002617402F0801B7FC07E277DC4
:1035900009B1CA50089002617401F08009B1C450A9
:1035A00005E4900261F090F3F8E0C45407FF900244
:1035B00061E0FE6F600DEE4408FFF090F362E054AE
:1035C000F04FF0227F807E4F7D127C0090026212CD
:1035D0000A19C302099C7F05B1DC7F03EF24FD605B
:1035E0003614603E14602514600C146014240670B8
:1035F0003B90F1B4802F90F1B4E054DFF04420F020
:103600002290C908E054EFF04410F02290F1B5E0A8
:1036100054F7F04408F02290F1B5E054FBF0440474
:10362000F02290F1B5E054FDF04402F0227BFF90CF
:103630000295E090029AF0E4FF900297120A8290BD
:1036400023B6E493FEEFD39E50697B017A02799A08
:103650009002C2120A829002971287649002C212EC
:103660000A62900349120A827B017A0279C6121219
:10367000039002C2128701E49002C5F07B017A0236
:1036800079C61200169002C5E0FDFB3395E0FAC33F
:10369000EB9FEA9E501DEDFF3395E0FE74C62FF5BB
:1036A0008274023EF583E0FF120FD99002C5E00458
:1036B000F080C9227BFF7A1C7990E4FFD1397BFF2F
:1036C0007A1C79A390F1F3E0FE90F1F491D8900286
:1036D0009AF0A3EFF090F191F14D7BFF7A1C79C144
:1036E00090F1F5E0FE90F1F691D890029AF0A3EFF8
:1036F000F090F193F14D7BFF7A1C79DF90F1F7E0C8
:10370000FE90F1F891D890029AF0A3EFF090F19525
:10371000F14D7BFF7A1C79FD90F1F9E0FE90F1FA12
:1037200091D890029AF0A3EFF090F197E090029C6C
:10373000F0E4FFC139900261120A82900403020A88
:103740000D900264020A257BFFE4FFC139E090027C
:103750009CF0E4FFC13990026C120A0D90026822BD
:103760001260517005FDFF125E67126227B1D67FAD
:1037700004B1DCE4900393F07F0512000E7F040295
:10378000000E90026BEFF012825290026BE024FD6B
:10379000601614601C24F9602B24FD605E240C70FC
:1037A0005FE4900397F0801812480C1247ED024135
:1037B00084E4FF1268490F1275C17F04123801E4D6
:1037C000FF027543900042E0703690002CE0C394F5
:1037D000077480948040299003FCE0702390039448
:1037E000E0900041F0A37401F07BFF7A22798AFF18
:1037F000122E7F7F0B12488F024BC27F05123801B9
:10380000229004027401F0900401EFF07BFF7A171C
:103810007991900281F07F01022E7F900262EFF099
:1038200090002CE06F6023900262E0640570047FDA
:1038300003110190002D7401F0900262E090002CC1
:10384000F07BFF7A127991122E792290026174FF37
:10385000F090002CE0D3F1DE400A900028E07004E4
:103860007F02111B90002CE0D31260C5400A90002B
:1038700029E070047F03111B90002CE0125DCB4007
:103880003D90E0B0E0FDE4FF128292EF70149000F2
:103890003EE064017028F0FF126CBFE4FF126CD1AF
:1038A000801C90003EE0701611CF125DCC5002805B
:1038B000027F05900261EFF090003E7401F09002EB
:1038C00061E0FFF46002111B227BFFFF123639908A
:1038D0000261E0FFC32290026174FFF090038BE06D
:1038E00070024179900385E0D371FC401890038DFC
:1038F000E0701212376011CF71FC500280027F0419
:10390000900261EFF0900385E0D394067480948078
:1039100040161257F6EF6401700E7BFF7A1F79E2B2
:10392000FF1236397F0671BC900385E0640A702768
:10393000126527EF70217829125649401A7BFF7AC9
:103940001F79F2E411CB94097480948050028002B4
:103950007F09900261EFF0900385E0D3940B7480AF
:103960009480405512412DEF640170137A1F79FF46
:1039700011C9517A500280027F0A900261EFF01261
:1039800081D7EF640170137A20791311C9517A50ED
:103990000280027F0A900261EFF0F1F09003ACE048
:1039A0006F60167BFF7A20791FE411CB517A5002A9
:1039B00080027F0A900261EFF0900385E0D3940DBE
:1039C000748094804022126895EF600612685EEF62
:1039D00070167A20792912862111CF517A500280EF
:1039E000027F0A900261EFF012873C9480403F1200
:1039F00067FC128189EF6401701312817E7BFF7A6C
:103A00002079337F031236397F0E12000E12643D87
:103A1000EF701B7BFF7A20793E7F0311CC940974F1
:103A2000809480500280027F09900261EFF0900341
:103A300085E0C371574038900261E0715740307F94
:103A4000045181700A7F045187F07F0D12000E7FB0
:103A5000035181700A7F035187F07F0B12000E7FA4
:103A6000055181700A7F055187F07F0C12000E907E
:103A70000261E0FFF4600271BC22940A74809480B9
:103A80002251EDEF640122518F900394740122EFD3
:103A9000120A973AAC003AC7033AB1043AD2083A4C
:103AA000BC093AD71D3AE21E00003AEC90E530809E
:103AB0000390F218E04480F0547FF02290F219E075
:103AC0004410F054EFF02290F218E04408F054F75C
:103AD000F02290E539800E90E532E04402F054FD8A
:103AE000F02290E532E04401F054FEF022E4FEEFD3
:103AF000120A973B0F003B2F033B14043B38083B53
:103B00001D093B260A3B3D1D3B461E00003B4D90D8
:103B1000E540800390F2EDE05480FE803090F2EEBC
:103B2000E05410FE802790F2EEE05404FE801E90D8
:103B3000F2EDE05408FE801590E549800C90E542D6
:103B4000E05402FE800790E542E05401FEEE600280
:103B50007E01AF0622E0D39410748094802290F10D
:103B6000CCE06480700790F1CD715540037F002256
:103B7000EFFD7C00F1DD401290F1CEE06480700733
:103B800090F1CF715540037F0022C3ED9404EC64A3
:103B9000809480402490F1D0E06480700790F1D14F
:103BA000715540037F002290F1D2E064807007904D
:103BB000F1D3715540037F00227F0122900385E0FD
:103BC000FE6F6036900262EEF0900385EFF0900396
:103BD0008C7401F07BFF7A1F79AA90029A125F9A87
:103BE000900385E0641070057F0312000E9002625E
:103BF000E0641070057F0412000E22C394047480E8
:103C000094802212464190026D7401F0E4A3F0A367
:103C1000F0A3F0F115F1E54410F054FBF090A2018F
:103C2000E054E0F0F090A20274A8F0E490A204F056
:103C300090A205F090A206F090A207F090A20A745C
:103C400080B1787BC07A2779097800D312099C402B
:103C500036900271120A19C374C09BFF74279AFE32
:103C6000740999FDE498FC128735F8D312099C4039
:103C700016B179EF2410FFEE3427FEE43DFDE43C5D
:103C8000FC900271120A257BFF7A1B7907B17990AB
:103C90000281120A25F115900285120A25E4FF120D
:103CA0002E7FE490026FF090026FE071FB502A7F4C
:103CB000807E4F7D127C009002711235CF501A9099
:103CC000026EE004B17878011209C0900271120A04
:103CD0002590026FE004F080CE7F807E847D1E7C84
:103CE0000090027112456C4017B17978011209AD4C
:103CF000F1E54404F07BFF7A1B791EE4FF122E7F6E
:103D000090A207E054F8FFF090026EE0FE4F90A200
:103D100007F07BFF7A1B792B900281EE125FDCE4C7
:103D20007BA87A61F9F8900271B189900270EFF086
:103D3000E47BA87A61F9F8A3B189AC00AD01AE02C9
:103D4000AF03E4FBFAF9F8C312099C600690027015
:103D5000E004F090A20AE05480FFF0900270E0FED0
:103D60004F90A20AF04480F07BFF7A1B794F9002BB
:103D700081EEF0E4FF022E7FF0900271020A0DF056
:103D8000E47B08FAF9F8900035120A0D0208FCE409
:103D9000780DF690F436E0541F7810F690F426E093
:103DA00018F690F432E0540F7832F6E008F6E008A6
:103DB000F6E004780DF67810E671FB4025780DE604
:103DC00071564002C1E7E408F6780EE6FFC3189684
:103DD000501490F432E0FE74352FF8A606780E06E3
:103DE00080E7E4780DF6E4FFF1F3780FE67002C1A6
:103DF000B924F07002C18624D0602F24F0606324BF
:103E0000C0601824106002C1DC780DE6FF1251E397
:103E10007832E6640F6002C1D88067780DE6FF1241
:103E2000509C780DE6FFD1EEC1E07834E6FD7C00D1
:103E300064507017780DE6640170257810E664050B
:103E4000701EF12DE66019F11B8012ED64304C708C
:103E50000F780DE6640170087835E660037825F682
:103E60008076F124700F7810E664047008780DE60F
:103E7000FFF13B806BEB64524A70367810E66404C5
:103E8000702F7F108058F124700F7810E664047052
:103E900008780DE6FFF13B8010EB64504A70127811
:103EA00010E66403700BFFD1E8E47856F608F6805C
:103EB0002F780DE6FFF17980277834E6645070188A
:103EC000780DE6640170117810E66405700AF12D32
:103ED000E66005F11B7825F6E4FF8002E4FFD1E8F7
:103EE000124FECE4FF518F2290F433EFF022AE0733
:103EF000900409E06006E4F07F2080ECF170781116
:103F0000E6FFC39E500E74452FF8E690F433F07828
:103F1000110680EA22900269020A0D785646F608D8
:103F2000E6F6E4227834E6FB7A006450227835E63F
:103F3000FF7856760008A607782522F16E7811E6FC
:103F4000FFC39E501DEF785726FDE41836FC7447DA
:103F50002DF58274003CF583E090F433F07811067F
:103F600080DBAF067857EF26F618E436F622AE0768
:103F7000E4FFD1E8E47811F622F16E7811E6C39EF1
:103F80005008E490F433F00680F122C0E0C0F0C0A5
:103F900083C082C0D075D000C000C001C002C00381
:103FA000C004C005C006C007E4FF51EDEF600AE49D
:103FB000FF518FB18F7F01F1F3D007D006D005D02C
:103FC00004D003D002D001D000D0D0D082D083D092
:103FD000F0D0E03212606111D60230A5E6C394023F
:103FE0007480948022900271120A2590A200E0222F
:103FF0007F0022EF640190A3587005E044B0F022E6
:10400000E0540FF0229003877401F02280F77B01C7
:104010007A02796190C67CE090000212071C90F24F
:10402000F1E0131313540112070A90F2F5E0FF5464
:104030000711F3EF54F090000312071C90F263E0B5
:1040400090000512071C90F264E090000612071C15
:1040500090F265E090000712071C90F266E0116A8A
:1040600090F267E090000902071C90000802071C0C
:104070001267C8EF640170400412070A90F2BDE0B5
:10408000C4131313540111F390F2BCE0FFC4540F96
:1040900011F9FD7C006402700690000704800BEDAE
:1040A00064014C7008900007740212071CEF540F53
:1040B000116A90F2BDE08033E412070A90F2EBE05F
:1040C000FF131313541FFE540111F3EFC3135403D2
:1040D00011F964037008900007740412071C90F231
:1040E000EBE0FFEE5403116AEFC41354079000098C
:1040F00002071C90000102071C90000712071C9089
:1041000000070206DD7A0279613124FF90039AE00C
:104110006F6010EFF07BFF7A1E79991236337F10B3
:1041200012000E227B011170900269E0227A02795E
:10413000623124FE900399E0B5061B90026BE0FF0C
:1041400090039BE0B5070F900262E0FF900398E0B8
:10415000B507037F0022900262E0900398F0A3EE7F
:10416000F090026AE090039AF090026BE090039B5B
:10417000F0900398E064017003FF80027F011267F2
:10418000B67F01227B017A02796C11707A22791054
:104190001286217BFF7A2279219002731236327BBC
:1041A000FF7A2279329002751236327B017A0279D7
:1041B0007690F2E7E0FE90F2E81234D89000088F93
:1041C000F012082990F2DFE090F2E05185900004AF
:1041D0008FF012082990F2E1E0FE90F2E25188D1CE
:1041E000479000041207F151A695F09000028FF05D
:1041F00012082990F2DBE0FE90F2DC518890000A70
:104200008FF012082990000812675C90000A1207CC
:10421000F1D15051A29C9000068FF012082990F223
:10422000E9E0FE90F2EA1234D89000128FF0120802
:104230002990F2E5E090F2E6518590000E8FF012A1
:10424000082990F2E3E0FE90F2E45188D147900013
:104250000E1207F151A695F090000C8FF01208296C
:1042600090F2DDE0FE90F2DE51889000148FF012A3
:1042700008299000121266CBD15051A29C900010D8
:104280008FF0020829547FFEE02400FFEC3E222537
:10429000E0246CF582E43402F583E0FEA3E0FF90B5
:1042A0000266E0FCA3E0FDC3EF9DFFEE221287351E
:1042B000F8900039123D89900261EEF0A3EFF0E42E
:1042C0007BD07A07123D84B15B90002EE0FB7A0030
:1042D0007015900263125FAFCEC313CE13D8F9F0FE
:1042E000EE900263F0800D90026312274E7D07125C
:1042F0000750B15B90002BE064016006EB64014A5B
:10430000700D900264E025E0F0900263E033F090DD
:104310000263F19AF194B15B12742A900265EEF097
:10432000A3EFF0127439900267EE12837B7A13794F
:10433000DF900263D178900261D15BE4FF122E7F9F
:104340007BFF7A1379FA900251D178900253D15BB6
:1043500090024DD1E3E4FF122E7FB125F1AF120799
:1043600050B154120A25B14DE0FFB154B16C401D5B
:10437000900253E0B12AF1AF12075090026551A2AA
:104380009CFEE4FCFD900271120A25800A900271E5
:10439000120A3100000000900032E06401600281E6
:1043A00022B1252DFDEE3CFC90024DB1332DFFECEA
:1043B0003EFE900263E0FCA3E0FD120ABD90027590
:1043C000B13B900275123D89900279120A25900244
:1043D00067E0FEA3E0FF900266E02FFF900265E039
:1043E0003EFEB154B16C402EB13E900275123D8933
:1043F000C006C007B14DE0B146D007D00612086331
:10440000C006C007A3E0FEA3E0FBAA06E4D007D0E5
:1044100006120863800F900275120A310000000036
:104420008009123D79900275120A25900275120AD0
:104430000D900271B16C4009123D79900275120A1B
:10444000257A147914900031122E76900031E025EF
:10445000E0FFE433AB07FA3395E0F9F8E4FF7E8040
:10446000FDFC1208FC90026D120A25B130FFE4FC3D
:10447000FD90026D120A19122FA8900253B133FF5A
:10448000122FA5900263E0FEA3E0FFE4FCFD1208FA
:104490007190026DB13B90026D123D89C006C0075C
:1044A000B14DE0B146D007D00612086390026D12FC
:1044B0000A25E47B07FAF890026D123D8990027597
:1044C000120A19D13E900032E064027039D3900292
:1044D00054E094E8900253E09403402AE47B02FA0B
:1044E000F9F8900275123D89C004C005C006C007E6
:1044F000E47B07FAF9F890026D123D89D003D002EF
:10450000D001D000D13E7BFF7A147923900269124A
:104510002F77122E7F123F15AC06EC90F982F0EF48
:1045200090F983F022900253E0C313FCA3E013FD43
:10453000900251E0C313FEA3E01322120A25900259
:1045400061E0FEA3E0FFFBAA06E4F9F82290026511
:10455000E0FEA322E4FCFD90027922900263EEF0DB
:10456000A3EFF0227F807E1A7D067C00120A19D309
:1045700002099C90002EE0701C122E20120871C0BF
:1045800006C007900033F19D8FF0A4AEF0B146D085
:1045900007D0068036E4122E20120871E47B07FA59
:1045A000F9F8120871C004C005C006C007900032B7
:1045B000E075F010A4FFAEF0A3E0F194AB07AA06FB
:1045C000E4F9F8D007D006D005D0041208FCD138A1
:1045D000900034E0600DA3120A0DEF2438FFEE3492
:1045E000C18002D168D13090002AE0600FD168D13B
:1045F000307BFF7A13791C7F01122E7F7F807E1A19
:104600007D067C009000351235CF500A900035129F
:104610000A3100061A807FE07E327D297C009000FE
:1046200035B16C400A900035120A31002932E0227F
:10463000FEED3401FDE43CFC900035020A25120831
:1046400056900269020A25FE900292F0A3EFF02232
:10465000C39FFFE5F09EFE90029222E0FFA3E09050
:104660000283CFF0A3EFF022900035120A0DEF2461
:1046700080FFEE3438227BFFE0FFA3E0900281CF81
:10468000F0A3EFF0227A0379C3F1A47B017A0379D6
:10469000C312336B7BFF7A25791C9003C7D17890C6
:1046A00003C9D15B9003CDD1E39003CBF183900399
:1046B000CFF1769003DBF16C7A2579589003D1D154
:1046C000769003D3D15B9003D7D1E39003D5F183E8
:1046D0009003D9F1769003DCF16C1284E27003123E
:1046E00084E922E0FFA3E0900285CFF0A3EFF0225F
:1046F0007A027947F1A47B017A02794712336B7B06
:10470000FF7A13793E90024BD17890024DD15B90A5
:104710000251D1E390024FF183900253F17690025F
:104720005FF16C7BFF7A137979900255D178900212
:1047300057D15B90025BD1E3900259F18390025D07
:10474000F176900260F16C7B017A0279471266D7AC
:1047500090025FE0FF126E5A900260E0FF126E312D
:104760007005E054FEF022E04401F022E090028B5C
:10477000F07F01022E7FE0FFA3E0900289CFF0A33B
:10478000EFF022E0FFA3E0900287CFF0A3EFF0224A
:10479000F1C8C185FD7C0002073EE0FEA3E0FF906A
:1047A0000032E0227E007F1A7D007B01020AEA2DA2
:1047B000FFEE3CFE900263E0FCA3E0FD12073E909A
:1047C0000261E0FCA3E0FD221282309003B3EFF01F
:1047D000128236EF2403FF9003B4F07A2479FA9022
:1047E00003B3128697A3EFF0E4FF022E7FE4900359
:1047F0009DF07BFF7A22794312480690029A120AB2
:1048000025E4FF0236399003A8020A0DE490026CF9
:10481000F07D187F03122F3C7F03122D07780112C1
:1048200009C09003A4120A2590039BE024FE600BAC
:1048300014600C2403700C7F06800A7F0A80067FB8
:104840000C80027F08E4FCFDFE9003A4118978032C
:104850001209AD9003A8120A25900399E064017033
:104860001C90026CE07016110678011209C0E47BFE
:1048700003FAF9F81208FC9003A8120A2522EFF0B7
:10488000E47F02FEFDFC900039120A19020871EF64
:1048900024FD600D147002218E24F97002412C61F8
:1048A0005890E084E04401F054FB117F716090E087
:1048B00085117E78081209AD90E086117E90E08720
:1048C000EFF0E4FF1233F6B13F7F011233F69002AE
:1048D0006EEEF0A3EFF07F051233F6900270EEF06B
:1048E000A3EFF07F061233F6AD07AC0690026C71B1
:1048F0005990E088F0EB90E089F090027071599047
:10490000E08AF0EB90E08BF090026E715990E08CB1
:10491000F0EB90E08DF0EC90E08EF0EF90E08F12F5
:104920003D7F716090E092EF123D7F78081209ADF3
:1049300090E093EF123D7F90E094EFF0900032E032
:1049400090E0A0F090002FE024F6601524FE6009AE
:104950001460162402701A801890E0A17401F0808F
:104960001590E0A17402F0800D90E0A17403F08036
:1049700005E490E0A1F0900399E090E095F09003B9
:104980009BE090E096F07BFF7A1779164127E49040
:10499000E084F090E085F090E086F090E087F09081
:1049A000E088F090E089F090E08AF090E08BF09061
:1049B000E08CF090E08DF090E08EF090E08F127738
:1049C0001990E092F090E093F090E094F090E095F0
:1049D000F090E096F090E097F090E098F090E099F9
:1049E000F090E09AF090E09BF090E09CF090E09DD9
:1049F000F090E09EF090E09FF090E0A0F090E0A1B9
:104A0000F090E0A2F090E0A3F090E0A4F090E0A598
:104A1000F090E0A6F090E0A7F090E0A8F090E0A978
:104A2000F07BFF7A17792E7F01022E7F90E084E0E1
:104A30004404F0E490E085F090F23CE090E086F0F1
:104A400090F23DE090E087F090F23EE090E088F058
:104A500090F23FE090E089F090F240E090E08AF040
:104A600090F241E090E08BF090F242E090E08CF028
:104A700090F243E090E08DF090F244E090E08EF010
:104A800090F245E090E08FF090F246E090E090F0F8
:104A900090F247E090E091F090F248E090E092F0E0
:104AA00090F249E090E093F090F24AE090E094F0C8
:104AB00090F24BE090E095F090F24CE090E096F0B0
:104AC00090F24DE090E097F090F24EE090E098F098
:104AD00090F24FE090E099F090F250E090E09AF080
:104AE00090F251E090E09BF090F252E090E09CF068
:104AF00090F253E090E09DF090F254E090E09EF050
:104B000090F255E090E09FF090F256E090E0A0F037
:104B100090F257E090E0A1F090F258E090E0A2F01F
:104B200090F259E090E0A3F090F25AE090E0A4F007
:104B300090F25BE090E0A5F090F25CE090E0A6F0EF
:104B400090F25DE090E0A7F090F25EE090E0A8F0D7
:104B500090F25FE090E0A9F022E0FAA3E0FBEA2205
:104B600078101209ADEF540FFF22123025F1DAEF61
:104B70006401704D9003FCE07047F1E6F1E0EF2432
:104B8000FD600814601B14602E80367A2279A7120B
:104B90006E2A7F03118F7F01122FB471C2FF02753D
:104BA000437BFF7A2279BB7F01122E7F7F04118F16
:104BB000E4FF122FB4800812400E7F011276C771F5
:104BC000C2229003FC7401F022900261120A3100AB
:104BD0000000009003BC91CF794091DA9003B8EEC9
:104BE000F0A3EFF09003BC12274E7D03120750AFE5
:104BF00005E490EF81F0EFC4333354C0F04410F972
:104C0000F09003B8E0FCA3E0FDEC4990EF81F09058
:104C1000EF82EDF09003B0E0FB9003BC1286DE1251
:104C2000073EE4FCFD91C378081209AD90EF8EEFCA
:104C3000F091C9E490EF8FEFF0EB75F003A4FE2440
:104C40000890EF8BF09003B7E0FFC3EE9F90EF8CDE
:104C5000F09003BE91CF79C091DA91C37808120920
:104C6000AD90EF9AEFF091C990EF9BEFF0E47F06E3
:104C7000FEFDFC9002611189122FAB9003BFE0246E
:104C800006FF9003BEE03400FEE4FCFD120863E47E
:104C90007B06FAF9F81208FC90EF9CEBF0F1D39048
:104CA000E102E064E2701B9003BCE0B4020DA3E0FB
:104CB000B41C0890A37CE054FDF02290A37CE04457
:104CC00002F022900261120A25900261020A0DE0B0
:104CD000FCA3E0FDE41202E9E422FBFA78401202B0
:104CE00047121010020322900035120A0D9002653F
:104CF000B13678031209AD122F117A1279B79000EC
:104D000039120A0D90028191C6900285B136900247
:104D100089120A25900031E090028DF0900032E077
:104D200090028EF0900033E090028F125FDCB13978
:104D30001273DD023C03120A25900265020A0D90EF
:104D4000026CEEF0A3EFF022128735F81208FCB1E6
:104D50003F90026AE0701590026C125FAFCEC313F1
:104D6000CE13D8F9F0EE90026CF0800A12274B7D3A
:104D700007120750B13F7A1B79D790026C12467622
:104D8000E4FF122E7F90026CE0FAA3E0FB7D3CFF73
:104D9000D18790F9A4F07D32AF03D18790F9A512A5
:104DA000274A7D07D17FAB07EB240490F9A6122791
:104DB0004A7D0612073E7D19120750AE0790F9A7EB
:104DC000EEF0EB240790F9A9F090026AE07055909C
:104DD0000269E0640190026C7027A3E0FBEE2407F7
:104DE00090F9A7F07C007D07AF03AE02D17FEF24DE
:104DF0000790F9A9F090F9A4E0246790F98AF0806F
:104E00000D12274E7D0A12075090F98AEFF090029A
:104E10006BE06401701E90F9A5E0FF90F9A4E02F0B
:104E2000240A800C90F9A9741EF090F9A4E02432B1
:104E300090F98AF07BFF7A1B79E690F9A9122E7817
:104E40007BFF7A1C790190F9A7122E787BFF7A1CE0
:104E5000791C90F9A4122E787BFF7A1C793790F98F
:104E6000A5122E787BFF7A1C795290F9A6122E7823
:104E70007A1C796D90F98A1286CAE4FF022E7F129D
:104E8000073E7D640207507C00AE0212073E7C03A1
:104E90007DE8120750EF0422127530F14412838F1F
:104EA00012839712840F1285997BFF7A21796B12F6
:104EB00085A612851D71C990EF98E04402F0900319
:104EC000B2E0640190EF977003F080037401F090FA
:104ED00003B1E0FF900262F090EFA77468F07E00EB
:104EE000EF640170089002617480F08028EF640222
:104EF0004E700890026174C0F0801AEF64044E7026
:104F00000890026174E0F0800CEF64084E70069027
:104F1000026174F0F0F1D3E490EFF8F090EF80F0DC
:104F20007F01FE12293B90EFF874FFF090EF80E0D4
:104F300012871DEF4EFF90EF80F0900261E04F90DE
:104F4000EF80F0221286531284E19003B57004E0E2
:104F5000148004E014540F900261F090A33EE0909E
:104F60000261122CF6F1CD128668F012872B7004C4
:104F7000EF25E0FF12708970028006ED64024C702C
:104F80000890A341E04402801CEFFD7C00640470A3
:104F90000890A341E04405800CED64084C700C902F
:104FA000A341E0440BF090A342E0F0122CFFF1CDBE
:104FB000128668F090026212456490A342E04005B8
:104FC0004401F08001F07F647E0002293B90026280
:104FD000020A2590EFAD74FFF022900402E0FF2258
:104FE000E4900402F022900401E0FF227F01123FCE
:104FF000F3E490F434F022E4FF7829E624FE60150F
:1050000024FE601E2403702390F1C9E05411641142
:1050100070197F012290F1C9E054336433700C7F22
:10502000012290F1C9E0F470027F0122AE07782AD4
:10503000E6FD7C0064017005900407F022C3ED9446
:1050400002EC6480948040377823E66401600812A3
:105050004FF7EF6401701F900407E004F0782376A7
:1050600001E06401700974452EF8740146F622745B
:10507000452EF876012274452EF874FE56F62278F5
:105080002AE6701708123FDC40117823E664017F9E
:105090008070027F0174452EF8A60722D152640F5A
:1050A000700FE0FF7E007D007B007A007945020AE8
:1050B000EA7832E690F103D166D15B9F5028EE602A
:1050C0001390F105E0F4700690F104E004F090F123
:1050D00005E004F090F154E0FF7812E62445F8A6CC
:1050E0000778120680D37832E6706408E6640270AE
:1050F0005E51C3120A97510F00511B0151210251F9
:105100002D03513904514505514B06000051D77804
:1051100011E6FFD11D31D8700221D731D87002219C
:10512000D77811E6FF51CA31D8700221D77811E63D
:10513000FF714531D8700221D77811E6FF112C316B
:10514000D8700221D731D8700221D7D17821D878F0
:1051500032E6600221D708E66420707B51C3120A50
:105160009751920051950151980251A10351A40405
:1051700051A70551AA0651AD0751B00851B30951C5
:10518000B60A51B90B51BC0C51C50D51CE0E0000E1
:1051900051D778110678110651B7503BD11D7811BF
:1051A000067811067811067811067811067811062E
:1051B00078110678110678110678110651B7501744
:1051C00051CA78110651B7500E714578110651B782
:1051D0005005112C7811062290037CE0FF7811060F
:1051E000E66F22D152FF640F700241B690F103EFD7
:1051F000D166D15B9F5026EE601390F105E0F4700C
:105200000690F104E004F090F105E004F07812E675
:105210002435F8E690F153F078120680D57832E61E
:10522000706108E66401705B51C3120A975249002D
:10523000525301525D025267035271045275055276
:105240007906527D07000052B67811E6FFD18C3105
:10525000D860637811E6FFF1D031D860597811E653
:10526000FFB14E31D8604F7811E6FFD12431D860BC
:105270004531D8604131D8603D31D860397811E688
:10528000FFE1C17832E6700808E664027002800E21
:105290007832E6FF7E00700A08E664207004781118
:1052A000F622EF4E70107833E66406700908E67057
:1052B0000508E6FFF1DB2290037CE0FE7811E6FFB3
:1052C000D39E227811F67834E62271BC7829E62440
:1052D000FE602624FE603E240370697149700B78DD
:1052E0002CE6540164017002804071524056782CC3
:1052F000E6540F6407704D80477149700B782CE6B7
:10530000541164117002802271524038782CE66486
:10531000777031802B71497016782CE65411641126
:10532000700D08E65411641170057822760122711F
:10533000524011782CE66477700A08E664777004AE
:105340007823760122715C8083782AE6FF7E0064F0
:105350000122C3EF9402EE648094802290037DEFDB
:10536000F071497009E02445F8E6782DF622715273
:1053700040437829E664047036782D761190F1F771
:10538000E0700690F1F8E06009782DE64407B1AFCF
:105390008006B136E6782DF690F1F9E0700690F1CE
:1053A000FAE06006782DB1AC800BB136E68001E4FE
:1053B000782DF68000782DB134A6072290037DEF7A
:1053C000F071497009E02445F8E6782CF622715214
:1053D00050028157782C760190F1F3E0700690F13D
:1053E000F4E06041782CE64407B1AF90F1F1E0546D
:1053F00001702B900408E0700F7826E6700A7F0198
:10540000D1127D017F039178900408E0C394067463
:10541000809480501BE004F0A37401F08012E490AB
:105420000408F0800BE4900408F0B136E6782CF61E
:105430007829123FDC4020782CE64410F690F1F5F4
:10544000E0700690F1F6E06006782CB1AC8008B10F
:1054500036E6782CF68000782CB134A607229178B5
:105460007D020F91787D0F0F91787D040F9178E484
:10547000FD0F91780F91780F90F105EFF090F153B7
:10548000EDF0227901900264E07F0060027F01AEBE
:1054900007900265E07F8060027FC0AC07900266E3
:1054A000E07F0060027F80AB07E4FFD1127D1291A4
:1054B0007890026AE0641E70057D140F80079002E8
:1054C0006AE0FD7F01917890026BE04CFD7F0291D4
:1054D00078EB4E0FB13EAD010F915E7D810F91785B
:1054E000E4FD7F2191727F6091727D087F809178C9
:1054F000E4FD7F9091787F01D1127F0A91787F221D
:10550000D1127D14E4FF917890026AE0FD0F91784A
:1055100090026BE04CFD0F9178AF06EB4F7F03B12B
:105520003EAF01AD077F07915E7D810F91787D08C9
:105530007F108178E6FF90037DE02445F822FD91FD
:10554000787D010F91781D0F91780D0F817874355A
:105550002FF8E6540F782AF664017043792BE7663A
:10556000601D1235D6E4FD7F039178E4FD7F049140
:1055700078E4FD7F059178E4FD7F069178B1B07FF6
:1055800001D1F678267601E47822F608F608F67F4F
:1055900001126455E4FF12648F782AE608F6227837
:1055A0002AE6FF123FDD400308A60722E64470F614
:1055B0007828E6FF90037EEFF090A14474C0F0904D
:1055C000E10DE054FEF04401F0FD90E10CE054F0F8
:1055D000F0ED54E190E10DF090C903E0540F127921
:1055E0007A90037EF1C77F2740027F3790A138EF82
:1055F000F090A1447480F090E10CE0440FF090E151
:105600000DE0441EF090C903E044F0F0E490A144A2
:10561000F022E490F103F090F104EFF02274452FB2
:10562000F876012290037DEFF0E02435F8E6C3D14F
:105630004B4008E4FFD1F6E47826F690037DE024A1
:1056400035F8D1494002B1B022E6D3940174809478
:10565000802290037CEFF07832E62290037CE0FF1A
:105660007812E6FEC322F008E690F104F008E69016
:10567000F105F0E47812F622782AE66401700C78DD
:1056800026E670077822E67002B1B02274352FF852
:10569000E67828F6FFF1257828E6FFF1637828E61A
:1056A000FF1262977828E6FFD1B67828E6FF1262EB
:1056B00074E4782BF622EF24F6601424F6601824A4
:1056C000F6601C24187025D1ED7A2479E28016D179
:1056D000ED7A2479E8800ED1ED7A2479EE8006D136
:1056E000ED7A2479F47E007F0612069E2278027CF1
:1056F000A17D017BFF22EF6401701590F119F090FC
:10570000F11AF090F10674FFF090F152740FF0224C
:10571000E490F119F090F11A7402F0E490F106F0BF
:1057200090F152F022EF24F6600E24F6600A24F67F
:10573000601124187013800090A1267413F090A1BA
:1057400027F022F15974808004F1597413F090A16C
:1057500027F090A1287403F02290A1257403F09003
:10576000A12622EF24F6600C24F6601B24F66029A3
:105770002418703690A1317408F090A1337460F051
:1057800090A13A7402801CF1AB7406F090A13A74B7
:1057900012F090A13B74A7F022F1AB7404F090A139
:1057A0003A7448F090A13B7487F02290A1317408BC
:1057B000F090A1337464F090A1387437F090A1395F
:1057C0002290037DEFF022E0C39414748094802231
:1057D00074352FF8E6541F7929F722EF640270051B
:1057E0007F051235DC227823E66401700608760115
:1057F0007F01227F00227824E664017F017001FF8F
:105800002290F4097417F090F100E04440F090F415
:1058100008E04402F054FBF054F7F090F430E04418
:1058200001F090A356E04420F090A357742CF09020
:10583000A35874BAF07F01F1E27F01123FF390F1B7
:10584000A8E054FEF022110111A611D77F011262C7
:10585000337130118512624312647331951264A161
:10586000312F90E10CE054EFF054DFF090E10DE0C7
:1058700054BFF054DFF090E10EE0547FF090C90A7D
:10588000E04402F02212676D90A3237401F0E490CB
:10589000A324F090A32504F090A326F090E23D7499
:1058A00020F04408F02290A108740BF090A1097434
:1058B000FFF090A10A74F0F090A10B748FF090A10A
:1058C0000C747CF090A10D74A8F090A10EF1A8F0DA
:1058D00054F3F04404F022E4900262F090A108E056
:1058E0004408F0900261740AF0D106601D90E20055
:1058F000E054FE12293690E200D10F90E207E05406
:1059000003640270E490026204F07BFF7A247971F0
:1059100090E208123632900262E064017BFF70066A
:105920007A24798680057A247994E4FF02363990C6
:10593000F3007440F090F3237402F090F324F0909D
:10594000F325F0E490F326F090F3477491F090F390
:10595000487435F090F3497430F090F34A742AF0AB
:1059600090F34B7402F090F34C7498F090F34D74F4
:1059700002F090F34E7498F090F34F7404F090F3AB
:1059800046E04420F07F011267B67BFF7A2479D28B
:105990007F0302363990F11074A2F090F111740176
:1059A000F090F112740EF090F1137402F090F11473
:1059B000741CF090F1157403F090F116742AF090B5
:1059C000F10C741EF090F139740EF090F10DF0901E
:1059D000F10E7408F090F11B7402F090F15F74E422
:1059E000F0901E40E49390F14AF0901E42E49390B0
:1059F000F14CF0901E44E49390F14EF0901E46E47A
:105A00009390F150F0901E48E49390F164F0901E52
:105A10004AE49390F166F0901E4CE49390F168F0A4
:105A2000901E4EE49390F16CF0901E50E49390F130
:105A30006EF0901E52E49390F170F0901E54E49337
:105A400090F172F0901E56E49390F174F0901E580D
:105A5000E49390F176F0901E5AE49390F178F090F0
:105A60001E5CE49390F17AF0901E5EE49390F17CDA
:105A7000F0901E61E49390F149F0901E63E49390DE
:105A8000F14BF0901E65E49390F14DF0901E67E4A9
:105A90009390F14FF0901E69E49390F163F0901EA3
:105AA0006BE49390F165F0901E6DE49390F167F0D4
:105AB000901E6FE49390F16BF0901E71E49390F15F
:105AC0006DF0901E73E49390F16FF0901E75E49367
:105AD00090F171F0901E77E49390F173F0901E793D
