:100000000210FF028113220226C222027FC2022FA7
:10001000682222028160E4FFFE1206C4600C0FEF2A
:1000200070010E09E970F20A80EF22028165EE305C
:10003000E707C3E49FFFE49EFE22128605E0A3F0DB
:1000400022222202816102038EE86480F8E933E80B
:100050003360110460F0ED33EC337009E8FCE9FD26
:10006000EAFEEBFF220460DED3EB9FEA9EE99DE807
:10007000C2E78CF0C2F795F0400CE8CCF8E9CDF976
:10008000EACEFAEBCFFB12035985D0F05804700387
:1000900020D5B3E80470075002B2D502039892D578
:1000A000EC0460F7E4CCC0E0C398F8603B941860BF
:1000B00008400DD0E0FB020370E4FBFAC9FC802885
:1000C000E830E406E4C9FBE4CAFCE830E305E4C92F
:1000D000CACBFCE854076010F8C3E913F9EA13FA35
:1000E000EB13FBEC13FCD8F130F52FC3E49CFCEFD1
:1000F0009BFFEE9AFEED99FDD0E0FBEF4E4D4C706C
:100100001222DB03020395EC2CFCEF33FFEE33FEEF
:10011000ED33FDED30E7EB020370EF2BFFEE3AFE1F
:10012000ED39FDD0E0FB50130BBB0003020398ED4B
:1001300013FDEE13FEEF13FFEC13FC020370EC4D06
:100140006011E8497017ED33EC3304600DE4FCFFF7
:10015000FEFD22E933E8330470F802038E120359DE
:1001600058046009E4CC2481500628500902039801
:10017000284003020395C0E0EB4A7044B98006D0E2
:10018000E0FB020384EF4E701CBD8008EBFFEAFE2B
:10019000E9FD80EBE98DF0A4FEE5F0020227E9CD50
:1001A000F9EAFEEBFFEF89F0A4FCE5F0CE89F0A4BC
:1001B0002EFFE435F0CD89F0A42DFEE435F0806704
:1001C000EF4E7005BD80D780C3EF8BF0A4ACF0EE8E
:1001D0008BF0A42CFCE435F0F8EF8AF0A42CE5F0C9
:1001E00038FCE433CB8DF0A42CFCE5F03BF8EE8A30
:1001F000F0A42CFCE5F038F8E433CF89F0A42CFC13
:10020000E5F038CF3400CE89F0A42FFFE5F03EFEB4
:10021000E433C98DF0A42EFEE5F039CD8AF0A42F89
:10022000FFE5F03EFEE43DFD33D0E0FB50070BBBA5
:10023000000F020398EC2CFCEF33FFEE33FEED339E
:10024000FD020370020398EC5D046005E859047038
:100250000302038E120359580460F6EC4860F2EC76
:100260007004FDFEFF22C860DB2481C85009C398DA
:10027000600250060203959850CAF582E9294B4A5C
:100280007005AB8202038475F0007C1A7880C3EF9E
:100290009BEE9AED99400DC3EF9BFFEE9AFEED9910
:1002A000FDE842F0DC23ACF0D0E0FFD0E0FED0E08F
:1002B000FDAB8220E7101BEB60BAEC2CFCEF33FFA8
:1002C000EE33FEED33FD020370E803F830E705C0BE
:1002D000F075F000EF2FFFEE33FEED33FD40B83048
:1002E000E7C280AA75F020800E75F010800575F0C9
:1002F000087D007E007F003392D530D50312098E31
:10030000EC334010EF33FFEE33FEED33FDEC33FC06
:10031000D5F0ED22E5F0247EA2D513CC92E7CDCE28
:10032000FF22EDD2E7CD33EC3392D524814006E4B1
:10033000FFFEFDFC22FCE4CFCECDCC24E0501174B6
:10034000FF80EDC3CC13CCCD13CDCE13CECF13CFC6
:100350000470F030D5DE02098EE9D2E7C933E83304
:10036000F892D5EDD2E7CD33EC33FC5002B2D52272
:10037000EC30E7100FBF000C0EBE00080DBD0004EE
:100380000BEB6014A2D5EB13FCED92E7FD2274FF9A
:10039000FCFDFEFF22E480F8A2D574FF13FC7D80F3
:1003A000E480EF74F8CC6480CCC86480C8F5820423
:1003B000604FC3EB9FF5F0EA9E42F0E99D42F0E802
:1003C0009C45F0603C501DE5825FFFE582D313CB76
:1003D0005BCBF42B5582FB50280ABA002409B900E4
:1003E0002008801DE5825BFBE582D313CF5FCFF44D
:1003F000C3132F5582FF50090EBE00050DBD00012D
:100400000CC3EB9FF5F0EA9E42F0E99D42F0E89CB8
:1004100045F06007CC4820E701B3EC22F920E7362D
:1004200024F950037907E4F42402FBE58215827075
:10043000021583DBF6E024FB501BE96014E4F0E5D1
:1004400082158270021583E004F0B40A08E4F0D942
:10045000EE7401F00A22C2D522ED33EC3392D5FAC4
:10046000602AB4FF33EDC2E77BFF60067A04797E31
:10047000E4227A04798720D5047A047982224E61B5
:100480004E002B494E46002D494E4600E47A08F0B6
:10049000A3DAFC7B00740722C083C082ECC0E0EDCD
:1004A000C0E0EEC0E0EFC0E0EA75F010A4CAABF027
:1004B00075F04DA42BFBE435F0FCEA2410FAEB3484
:1004C000C5FBEC34D9FCEDC2E7FF75F056A4F4246B
:1004D00011C5F0F434C58FF0A42AE5F03BE43CF0FC
:1004E00020E71412058ED0E0FFD0E0FED0E0FDD072
:1004F000E0FC1202478014F40412058ED0E0FFD015
:10050000E0FED0E0FDD0E0FC12013ED082D083E0DE
:10051000FAEDD2E7CD33EC332482FBE4C3CF33CF03
:10052000CE33CECD33CD33DBF37B0775F00A846059
:1005300004F0A31B0AE5F0F0A38FF0740AA4FFAC4B
:10054000F08EF0740AA42CFEACF050010C8DF07407
:100550000AA42CFDE435F0F0A3DBDE7407223F8013
:1005600000004120000042C80000447A0000461C00
:10057000400047C35000497424004B1896804CBE7D
:10058000BC205A0E1BCA6753C21C749DC5AEFB60CB
:10059000065407601C23231205BCEB543860091273
:1005A00005A81205B712013EECF8EDF9EEFAEFCB13
:1005B00022EB1205B780F1543803241C90055EFE2F
:1005C00093FC0EEE93FD0EEE930ECE93FF22E70901
:1005D000F608DFFA8046E709F208DFFA803E8882F3
:1005E0008C83E709F0A3DFFA8032E309F608DFFA2B
:1005F0008078E309F208DFFA807088828C83E3094F
:10060000F0A3DFFA806489828A83E0A3F608DFFA28
:10061000805889828A83E0A3F208DFFA804C80D276
:1006200080FA80C680D4806980F28033801080A6F2
:1006300080EA809A80A880DA80E280CA803389824A
:100640008A83ECFAE493A3C8C582C8CCC583CCF0F6
:10065000A3C8C582C8CCC583CCDFE9DEE7800D899D
:10066000828A83E493A3F608DFF9ECFAA9F0EDFBA4
:100670002289828A83ECFAE0A3C8C582C8CCC583EC
:10068000CCF0A3C8C582C8CCC583CCDFEADEE88045
:10069000DB89828A83E493A3F208DFF980CC88F0B7
:1006A000EF60010E4E60C388F0ED2402B4040050E8
:1006B000B9F582EB2402B4040050AF232345822312
:1006C00090061E73BB010689828A83E0225002E7EE
:1006D00022BBFE02E32289828A83E49322BB010CBF
:1006E000E58229F582E5833AF583E0225006E92583
:1006F00082F8E622BBFE06E92582F8E222E582299D
:10070000F582E5833AF583E49322BB010689828A68
:1007100083F0225002F722BBFE01F322F8BB010D49
:10072000E58229F582E5833AF583E8F0225006E96F
:100730002582C8F622BBFE05E92582C8F222EF8D8C
:10074000F0A4A8F0CF8CF0A428CE8DF0A42EFE2229
:10075000BC000BBE0029EF8DF084FFADF022E4CC8D
:10076000F875F008EF2FFFEE33FEEC33FCEE9DEC56
:10077000984005FCEE9DFE0FD5F0E9E4CEFD22ED9C
:10078000F8F5F0EE8420D21CFEADF075F008EF2FE6
:10079000FFED33FD4007985006D5F0F222C398FDD7
:1007A0000FD5F0EA22C2D5EC30E709B2D5E4C39DFB
:1007B000FDE49CFCEE30E715B2D5E4C39FFFE49E58
:1007C000FE120750C3E49DFDE49CFC800312075019
:1007D00030D507C3E49FFFE49EFE22C5F0F8A3E0F6
:1007E00028F0C5F0F8E582158270021583E038F034
:1007F00022BB0110E58229F582E5833AF583E0F515
:10080000F0A3E0225009E92582F886F008E622BB31
:10081000FE0AE92582F8E2F5F008E222E5832AF5EE
:1008200083E993F5F0A3E99322F8BB0111E582294E
:10083000F582E5833AF583E8F0E5F0A3F02250096C
:10084000E92582C8F608A6F022BBFE09E92582C880
:10085000F2E5F008F222EF2BFFEE3AFEED39FDEC67
:1008600038FC22C3EF9BFFEE9AFEED99FDEC98FC5D
:1008700022E88FF0A4CC8BF0A42CFCE98EF0A42C01
:10088000FC8AF0EDA42CFCEA8EF0A4CDA8F08BF04D
:10089000A42DCC3825F0FDE98FF0A42CCD35F0FC4B
:1008A000EB8EF0A4FEA9F0EB8FF0A4CFC5F02ECD17
:1008B00039FEE43CFCEAA42DCE35F0FDE43CFC22FC
:1008C00075F008758200EF2FFFEE33FECD33CDCCEF
:1008D00033CCC58233C5829BED9AEC99E582984072
:1008E0000CF582EE9BFEED9AFDEC99FC0FD5F0D64F
:1008F000E4CEFBE4CDFAE4CCF9A88222B800C1B979
:100900000059BA002DEC8BF084CFCECDFCE5F0CBB6
:10091000F97818EF2FFFEE33FEED33FDEC33FCEBEF
:1009200033FB10D703994004EB99FB0FD8E5E4F9AA
:10093000FA227818EF2FFFEE33FEED33FDEC33FC97
:10094000C933C910D7059BE99A4007EC9BFCE99A8B
:10095000F90FD8E0E4C9FAE4CCFB2275F010EF2FD0
:10096000FFEE33FEED33FDCC33CCC833C810D707D0
:100970009BEC9AE899400AED9BFDEC9AFCE899F80B
:100980000FD5F0DAE4CDFBE4CCFAE4C8F922C3E4F5
:100990009FFFE49EFEE49DFDE49CFC22EB9FF5F0AE
:1009A000EA9E42F0E99D42F0E89C45F022E8600FA3
:1009B000ECC313FCED13FDEE13FEEF13FFD8F12291
:1009C000E8600FEFC333FFEE33FEED33FDEC33FC95
:1009D000D8F122BB010789828A83020A0D5005E9FA
:1009E000F8020B16BBFE05E9F8020B2289828A8306
:1009F000020B2EBB010789828A83020A255005E972
:100A0000F8020B3EBBFE05E9F8020B4A22E0FCA30C
:100A1000E0FDA3E0FEA3E0FF22E0F8A3E0F9A3E0FD
:100A2000FAA3E0FB22ECF0A3EDF0A3EEF0A3EFF0CD
:100A300022A8828583F0D083D082120A48120A4805
:100A4000120A48120A48E473E493A3C583C5F0C5AB
:100A500083C8C582C8F0A3C583C5F0C583C8C58255
:100A6000C822E0FBA3E0FAA3E0F922F8E0FBA3A38D
:100A7000E0F925F0F0E582158270021583E0FA387E
:100A8000F022EBF0A3EAF0A3E9F022E493FB740177
:100A900093FA740293F922D083D082F8E49370120F
:100AA000740193700DA3A393F8740193F582888366
:100AB000E4737402936860EFA3A3A380DFEC8EF06D
:100AC000A4CCC5F0CCCDF8EFA4CEC5F02DFDE43C10
:100AD000FCE8A42EC8C5F03DFDE43CFCEFA4FFE516
:100AE000F028FEE43DFDE43CFC22EF4E6012EF6096
:100AF000010EEDBB010B89828A83F0A3DFFCDEFAD5
:100B00002289F05007F709DFFCA9F022BBFEFCF3B5
:100B100009DFFCA9F022E6FC08E6FD08E6FE08E68F
:100B2000FF22E2FC08E2FD08E2FE08E2FF22E49375
:100B3000FC740193FD740293FE740393FF22ECF6A0
:100B400008EDF608EEF608EFF622ECF208EDF208F2
:100B5000EEF208EFF222E508244FF582E43403F5C3
:100B600083E005082290034C30070390034FE4759F
:100B7000F001120A6B0206C42000E97F2ED2008029
:100B800018EF540F2490D43440D4FF30040BEF24DA
:100B9000BFB41A0050032461FFE50960021509057E
:100BA0000CE50C7002050B30070E90034CE475F059
:100BB00001120A6BEF02070A020FD97403D20780F1
:100BC00003E4C207F50890034C120A82E4F509F524
:100BD0000BF50CE50960077F20120B9980F5750A6B
:100BE000FFC201C200C202C203C205C206C208128D
:100BF0000B65FF700D3007057F00120BAAAF0CAE1E
:100C00000B22B4255FC2D5C204120B65FF24D0B4F9
:100C10000A00501A75F00A780930D50508B6FF01A8
:100C200006C6A426F620D5047002D20380D924CFAC
:100C3000B41A00EF5004C2E5D204020E9CD2018027
:100C4000C6D20080C0D20280BCD2D580BAD2058084
:100C5000B47F20120B992002077401B5090040F1FE
:100C6000120B56FF120B99020BD3D208D2068095B5
:100C7000120B56FB120B56FA120B56F94A4B700622
:100C8000799A7A0F7BFF20022EE509602A7E008E7A
:100C9000827583001206DD60060EEE650A70F0C2F2
:100CA000D5EBC0E0EAC0E0E9C0E0EE120EFDD0E016
:100CB000F9D0E0FAD0E0FB1206C4FF60AAEBC0E076
:100CC000EAC0E0E9C0E0120B99D0E02401F9D0E0DD
:100CD0003400FAD0E0FBE50A0460DCD50AD980874D
:100CE000D20280A2120EDF60F7E50A70010412043E
:100CF0001CA90A600DE50A600914F50A120F87EFB6
:100D000060F3EA30E702F404C3995079EAF4250A63
:100D10000430E701E404F50A800D120EDF60C1EA39
:100D2000050A250A12041CEA90037BF030E701E46F
:100D3000250A04D50A0420050114120EFDE4C0E0C2
:100D4000120F8790037BE0601320E70714F0120B6B
:100D500081802204F0D0E014C0E07F00120B81E516
:100D60000A6007120B78150A800B300503120B7806
:100D7000D0E0020BD3D0E00480C4120EDF609EE509
:100D80000A0412041C90037BEAF0E50A20050260C5
:100D900001042404120EFD74FF04C0E0120F871238
:100DA0000B81E50A2005026003120B78D0E0B50A3A
:100DB000E87F45120B8B90037BE07F2B30E7047FAD
:100DC0002DF404C0E0120B99D0E075F00A84C0F055
:100DD000120B82D0E0120B82020BD37910800279C1
:100DE00008C206C2088008D2D5790A8004790AC2EE
:100DF000D5E50A047002F50AE4FAFDFEFF120B566F
:100E0000FC7B08200113120B56FD7B1030000A12E8
:100E10000B56FE120B56FF7B20EC3382D592D55039
:100E200013C3E43000069FFFE49EFEE42001039D0F
:100E3000FDE49CFCE4CBF8C201EC700CCFCECDCC31
:100E4000E824F8F870F38017C3EF33FFEE33FEEDBC
:100E500033FDEC33FCEB33FB994002FB0FD8E9EB9D
:100E6000300105F8D0E0C448B201C0E00AEC4D4EB4
:100E70004F78207B0070C2EAB50A0040BCC0E01287
:100E80000EFFD0F0D0E0200104C4C0E0C4B201C025
:100E9000F0120B82D0F0D5F0EB020BD3120A970CB4
:100EA00070530DDB580C414C0C3D420DDF4F0DE7EC
:100EB000440DE7490C56430DED550D1A460D7A4584
:100EC0000CE4470FBA500C452D0C492E0C6C2B0C22
:100ED0004D230C6A200FA32A0C054800000C64E582
:100EE0000AB4FF03750A06120B56FC120B56FD12CC
:100EF0000B56FE120B56FF900374020459790AA296
:100F0000D5200314300509B910020404B9080104FE
:100F1000A2D52006025001042002689202B5090001
:100F20005034C0E07F203003197F30A20272067275
:100F300005500F120F56C202C206C205C2087F300A
:100F4000800F300503E9C0E0120B99300503D0E0B3
:100F5000F9D0E0B509CC3005177F30B9100C120B71
:100F6000997F583004077F788003B90803120B99E2
:100F70003002057F2D020B997F202008F87F2B205F
:100F800006F322920280CF7F00B40700500B247436
:100F9000F582E43403F583E0FF22286E756C6C293A
:100FA00000D201120B563001F8C201780930D50188
:100FB00008F6020C052D50434958120B562403B471
:100FC00005004001E4900FB593120B8A743A120B9E
:100FD0008AD203750904020DDBEFB40A07740D12FF
:100FE0000FE4740A309811A899B8130CC29830987D
:100FF000FDA899C298B811F63099FDC299F59922C9
:1010000025112101FFFFFFFFFFFFFFFFFFFFFFFF94
:10101000900265120A2574FFFFFEFDFC900265E058
:10102000F8A3E0F9A3E0FAA3E0FBC312099C60383F
:101030007F807E967D187C4B900265E0F8A3E0F9F6
:10104000A3E0FAA3E0FB1203A36002501B7F807EA3
:10105000967D187CCB900265E0F8A3E0F9A3E0FA56
:10106000A3E0FB1203A3500F900265E0FCA3E0FD98
:10107000A3E0FEA3E0FF22900265E0FCA3E0FDA355
:10108000E0FEA3E0FF120322900269120A259002FB
:1010900069E0FCA3E0FDA3E0FEA3E0FFEC1202E4A4
:1010A000C8ECC8C9EDC9CAEECACBEFCB900265E067
:1010B000FCA3E0FDA3E0FEA3E0FF120049E4FBFA7D
:1010C000F9F81203A35025900269E0FCA3E0FDA308
:1010D000E0FEA3E0FFE4FAF9F8EF2401FFEA3EFEA8
:1010E000E93DFDE83CFC900269120A25900269E0A6
:1010F000FCA3E0FDA3E0FEA3E0FFEC1202E42278F3
:101100007FE4F6D8FD75816602114602259DE493C1
:10111000A3F8E493A34003F68001F208DFF48029EA
:10112000E493A3F85407240CC8C333C4540F4420D9
:10113000C8834004F456800146F6DFE4800B0102C8
:1011400004081020408090118BE47E019360BCA3C2
:10115000FF543F30E509541FFEE493A360010ECF16
:1011600054C025E060A840B8E493A3FAE493A3F840
:10117000E493A3C8C582C8CAC583CAF0A3C8C58200
:10118000C8CAC583CADFE9DEE780BE4103FC00446C
:1011900003F8000000004104090041040800410474
:1011A00007004103FF0041040A0041037F0044039C
:1011B0008000000000602800000010000E000112F6
:1011C000101E000218213E00031E410D00041001F4
:1011D0002C000518240C000618231C000718203DBD
:1011E000004103DD005A03DE0009625808B00870B0
:1011F0000028001E000A09000870007C000A000A8E
:10120000010100900346E0FFA3E0FEA3E0CF9003BE
:101210004FF0A3EEF0A3EFF0900349E0CBF0A3E092
:10122000CAF0A3E0C9F07F22900352AD82AC8312D2
:1012300006C48D828C83F0A309E970010ADFEC906B
:101240000349E0FBA3E0FAA3E0F9020BBBC2D5E837
:1012500030E70FB2D5E4C39BFBE49AFAE499F9E4D2
:1012600098F8EC30E717B2D51212831208FCE4C3E9
:101270009BFBE49AFAE499F9E498F880031208FCDD
:1012800030D50DE4C39FFFE49EFEE49DFDE49CFC8D
:101290002254785374617465203D203078253032B3
:1012A000627800525820536574204576656E743A12
:1012B000253032627820004D697069496E436C6B4D
:1012C0003A256C642C2063616C6320756C427974E0
:1012D00065636C6B3A256C642C20756C506879439F
:1012E0006C6B3A256C642C2075634270703A2562F1
:1012F000642C2075635478506F72744E756D3A305B
:101300007825303262782C20756354784C616E6594
:101310004E756D3A307825303262780042757273BE
:1013200074204D6F6465206C616E65207261746518
:1013300020696E6372656173652038304D005258C4
:101340005B485D3A2048746F74616C3A25642C48A0
:101350006163746976653A25642C4873773A25642D
:101360002C4866703A25642C4862703A25642C48F3
:1013700073706F6C3A2562640052585B565D3A2078
:1013800056746F74616C3A25642C56616374697687
:10139000653A25642C5673773A25642C5666703A64
:1013A00025642C5662703A25642C5673706F6C3A23
:1013B00025626400506F72743A2025303262782CB6
:1013C000204C616E653A2025303262780073656C7E
:1013D000656374204D6970692043706879004453D7
:1013E0004320736F667420776F7264636E743B0082
:1013F000726462797465636C6B3A25642C20726444
:10140000706978636C6B3A256420006873773A25BD
:10141000642C206862703A25642068616374697680
:10142000653A25640075634270702030782530324B
:1014300062783B00726561642064656C61793A256D
:101440006C750041645F6C6D74785F777269746568
:101450005F636C6B203D20256C756B687A0041647E
:101460005F6C6D74785F726561645F636C6B203D67
:1014700020256C756B687A0000FFFFFFFFFFFF00FF
:1014800006B3A02801010101041F0103803E227858
:10149000EE6995AD5246A1270F5054BFCF00814051
:1014A00081809500714F81C0B300D1C0010108E86F
:1014B0000030F2705A80B0588A0055502100001E4A
:1014C000000000FD0018901EFF8A000A2020202046
:1014D0002020000000FC005647323855514C314165
:1014E0000A202020000000FF003132333435363727
:1014F00038393032380A01F002035AF15004131F10
:10150000100F1E015D5E5F60617603123F230907C5
:101510000783010000E200EA6D030C001000383C74
:101520002800600102036DD85DC401788853123031
:101530007883341D6D1A000002013090F000000025
:101540000000E305C000E421001C00E60605016080
:101550006012366C80A070703E803020080C6D5593
:101560002100001A6FC200A0A0A055503020350005
:101570006D552100001A0027000000000000000047
:10158000000000000000000000000000000000005B
:10159000000000000000000000000000000000004B
:1015A000000000000000000000000000000000003B
:1015B000000000000000000000000000000000002B
:1015C000000000000000000000000000000000001B
:1015D000000000000000000000000000000000000B
:1015E00000000000000000000000000000000000FB
:1015F00000000000000000000000000000000000EB
:1016000000000000000000000000000000000000DA
:1016100000000000000000000000000000000000CA
:1016200000000000000000000000000000000000BA
:1016300000000000000000000000000000000000AA
:10164000000000000000000000000000000000009A
:10165000000000000000000000000000000000008A
:10166000000000000000000000000000000000007A
:1016700000000000000000000A5468697320666DD5
:10168000207278706C6C5F696E5F636C6B000A54DB
:1016900068697320666D20646874785F6469765F3A
:1016A0006C696E6B5F636C6B000A5741524E494E1A
:1016B000473A2046726571206D65746572206765D2
:1016C00074206661696C005761726E696E673A20BA
:1016D000696E70757420697320696E76616C6964D7
:1016E000000A6C6F6164206B657920646F6E655BC6
:1016F000307825303262785D000A5061747465720A
:101700006E207063722062616E64203D2030782507
:1017100030326278000A5061747465726E207063B2
:1017200072206C6F636B004D495049566964496E75
:10173000666F557064617465212121212121004D5E
:10174000495049566964496E666F436C6561722100
:10175000212121212100417564496E666F55706415
:1017600061746521212121212100417564496E6642
:101770006F436C656172212121000A466C617368B8
:101780002045444944204C6F6164000A466C6173F3
:10179000682045444944206E6F74206578736974ED
:1017A0003A0054784576656E742D25626400000019
:1017B0000000000000000000000000000000000029
:1017C0000000000000000000000000000000000019
:1017D0000000000000000000000000000000000009
:1017E00000000000000000000000000000000000F9
:1017F00000000000000000000000000000000000E9
:1018000000000000000000000000000000000000D8
:1018100000000000000000000000000000000000C8
:1018200000000000000000000000000000000000B8
:1018300000000000000000000000000000000000A8
:101840000000000000000000000000000000000098
:101850000000000000000000000000000000000088
:101860000000000000000000000000000000000078
:101870000000000000000000000000000000000068
:101880000000000000000000000000000000000058
:101890000000000000000000000000000000000048
:1018A0000000000000000000000000000000000038
:1018B0000000000000000000000000000000000028
:1018C0000000000000000000000000000000000018
:1018D0000000000000000000000000000000000008
:1018E00000000000000000000000000000000000F8
:1018F00000000000000000000000000000000000E8
:1019000000000000000000000000000000000000D7
:1019100000000000000000000000000000000000C7
:1019200000000000000000000000000000000000B7
:1019300000000000000000000000000000000000A7
:101940000000000000000000000000000000000097
:101950000000000000000000000000000000000087
:101960000000000000000000000000000000000077
:101970000000000000000000000000000000000067
:101980000000000000000000000000000000000057
:101990000000000000000000000000000000000047
:1019A00000000000000000000000000000004D6981
:1019B000706920445349204F7574004D6970692047
:1019C000435349204F7574004D697069204F7574F9
:1019D0002044697361626C6500506F727420307EC0
:1019E000332052702043616C6920526573756C74AA
:1019F0003A2025303262782C2025303262782C2033
:101A000025303262782C20253032627800506F7297
:101A10007420307E332052642043616C692052650B
:101A200073756C743A2025303262782C2025303260
:101A300062782C2025303262782C20253032627872
:101A4000004450687920436C6B2062757273742077
:101A50004D6F6465004450687920436C6B20636F60
:101A60006E74696E7565204D6F646500445349203E
:101A7000766964656F204E4F4E5F42555253545FF6
:101A80004D4F44455F574954485F53594E435F4556
:101A900056454E540044534920766964656F204E84
:101AA0004F4E5F42555253545F4D4F44455F574927
:101AB00054485F53594E435F50554C53450044536F
:101AC0004920766964656F2042555253545F4D4FEB
:101AD0004445004D49504954585F33445F4D4F448D
:101AE000453A204D4950495F4C4546545F5249475D
:101AF00048545F4D4F4445004D49504954585F3359
:101B0000445F4D4F44453A204D4950495F4E4F5F29
:101B100033445F4D4F44450076636F2044617461E8
:101B2000526174653A20256C752C20256C75005027
:101B30006F737420646976203D2032004132303763
:101B40002052475F4C4D5458504C4C5F52414E47C9
:101B5000455F53454C203A2030782530326278007A
:101B600041323041204C4D5458504C4C5F44495602
:101B70005F534554203A2030782530326278004C4B
:101B80004D5458504C4C2063616C69206661696CFF
:101B9000004C4D5458504C4C206C6F636B20666C5D
:101BA00061673A3078253032627820004C4D5458C5
:101BB000504C4C20756E6C6F636B004C4D545850FC
:101BC0004C4C2063616C6962726174696F6E206253
:101BD000616E646F75743A203078253032627820F7
:101BE00030782530326278004279746520636C6BFE
:101BF0003A25754D687A00636B5F706F73742028A7
:101C000030784639413929203D20307825303262FC
:101C10007800636B5F7A65726F20283078463941AF
:101C20003729203D20307825303262780068735F94
:101C30006C707820202830784639413429203D20A6
:101C4000307825303262780068735F70726570207A
:101C50002830784639413529203D203078253032EA
:101C600062780068735F747261696C2830784639F5
:101C7000413629203D203078253032627800687363
:101C80005F72717374202830784639384129203DBD
:101C9000203078253032627800000000000000001B
:101CA000000A547261696E696E6720657120696E01
:101CB000666F3A000A4C302076616C69645B30785C
:101CC000253034785D2C45515B3078253032627890
:101CD0005D000A4C312076616C69645B3078253098
:101CE00034785D2C45515B307825303262785D0068
:101CF0000A4C322076616C69645B30782530347828
:101D00005D2C45515B307825303262785D000A4C9D
:101D1000332076616C69645B3078253034785D2CD3
:101D200045515B307825303262785D000A45514874
:101D30006967203D2030782530326278000A4551AD
:101D40004C6F77203D2030782530326278000A537E
:101D500043414E205354524154000A464543535484
:101D6000415445203D2030782530326278000A4CBD
:101D7000616E65457272203D203078253034782CB4
:101D80003078253034782C3078253034782C307801
:101D900025303478000A5363616E5F45514C4F57CC
:101DA000203D20307825303262782C307825303252
:101DB00062782C307825303262782C3078253032B9
:101DC0006278000A5363616E5F4551484947203D80
:101DD00020307825303262782C30782530326278A5
:101DE0002C307825303262782C3078253032627889
:101DF000000A414344525F4953535545000A566116
:101E00006C69644571203D20307825303262782C31
:101E1000307825303262782C307825303262782C58
:101E200030782530326278000A536B6577203D2088
:101E3000307825303262782C307825303262782C38
:101E4000307825303262782C307825303262780054
:101E500000000102030405060708090A0B0C0D0E19
:101E60000F0F0F0F0F0F0F0F0F0F0F0F0F0F0F0F82
:101E70000F00000000000000000000000000000053
:101E800000000102030405060708090A0B0C0D0EE9
:101E90000F0FFFFFFFFFFFFFFFFFFFFFFFFF000030
:101EA000000001010101000000000A436F6C6F7225
:101EB000696D65747279206368616E6765203D2085
:101EC00030782530326278000A44705278494E46A4
:101ED0004F3A000A486270202020203A20252D38F1
:101EE000642020566270202020203A20252D38645E
:101EF000000A486670202020203A20252D386420D2
:101F000020566670202020203A20252D3864000AB3
:101F10004873796E6320203A20252D38642020569E
:101F200073796E6320203A20252D3864000A4861B9
:101F300063742020203A20252D38642020566163C8
:101F4000742020203A20252D3864000A48746F6CD4
:101F50002020203A20252D3864202056746F6C20D4
:101F600020203A20252D3864000A446570746820CA
:101F7000203A20252D38626420205370616365204B
:101F8000203A20252D386264000A506978436C6B32
:101F9000203A20252D386C6420205065616B436CFD
:101FA0006B3A20252D386C64000A526566726573A1
:101FB0006852617465203D202564000A527853748C
:101FC000617465203D20256264000A4470527820C7
:101FD000556E706C7567000A527820506C756700FA
:101FE0000A5761697420454343000A4563632065CD
:101FF0007272000A52782072652D747261696E697E
:102000006E67000A534B657720556E6C6F636B00EB
:102010000A436F6C6F72207370616365206368613F
:102020006E6765000A4D7361206368616E676500C5
:102030000A4453432043484E47000A476F746F20B9
:10204000504352000A417564696F20636867000A53
:102050004143445220556E6C6F636B000A524154E9
:10206000455F4C414E45203D203078253032627826
:102070002C30782530326278000A44652D736B6508
:102080007720657272000A5761697420706372204C
:10209000737461626C652E2E2E000A5043522048E4
:1020A00041524420524553455400447363456E6386
:1020B00020536C696365203D202562642C436F6D5D
:1020C0007072657373526174696F203D202562647C
:1020D00000447363456E6320536C696365486569AA
:1020E000676874203D2025642C536C6963655769CB
:1020F000647468203D2025642C4368756E6B5369B9
:102100007A65203D2025640041645F6373637478C1
:102110005F68616C665F7069785F636C6B203D20FF
:10212000256C756B687A0041645F64736374785FD3
:102130006473635F72645F636C6B203D20256C7514
:102140006B687A0041645F64736374785F6473637F
:102150005F636C6B203D20256C756B687A00416471
:102160005F64736374785F6473635F6F75745F63D8
:102170006C6B203D20256C756B687A00110000891E
:102180003080087008700010021C021C0200020E51
:10219000002001840007000C0667065C180010F0A0
:1021A000030C2000060B0B330E1C2A3846546269C0
:1021B0007077797B7D7E01020100094009BE19FC20
:1021C00019FA19F81A381A781AB62AF62B342B7419
:1021D0003B746BF4000000000000110000893080A7
:1021E000087008700010021C021C0352020E00202E
:1021F00000000007000C0667065C18000A475049FB
:102200004F2054726967676572204C6F77000A47E8
:1022100050494F2054726967676572204869676842
:10222000000A44702052782076696420696E666FD7
:102230003A000A436F6C6F7253706163655B25628D
:10224000645D000A436F6C6F7244657074685B254F
:1022500062645D000A52785F5065616B5F636C6B0E
:10226000203D2020256C64007563614272696768B7
:10227000746E6573735B315D3A3078253032627805
:102280002C207563614272696768746E6573735B55
:10229000325D3A3078253032627800445052585FCF
:1022A0005354415449435F4844525F4E4F5449464A
:1022B000595F4556454E540054585F564944454F62
:1022C0005F4F4E5F4556454E545F33004450525861
:1022D0005F564944454F5F4F46465F4556454E540D
:1022E00000000000444542554700494E464F005704
:1022F00041524E004552524F520043524954000A37
:102300005B252D35735D2025730003FF22E4FF223A
:10231000EAFF22EFFF22F4FF22FA00000000000093
:1023200000000000000000000000000000000000AD
:10233000000000000000000000000000000000009D
:10234000000000000000000000000000000000008D
:10235000000000000000000000000000000000007D
:10236000000000000000000000000000000000006D
:10237000000000000000000000000000000000005D
:10238000000000000000000000000000000000004D
:10239000000000000000000000000A447052782095
:1023A00048504420495251000A4470527820485005
:1023B000442048696768000A4470527820485044B5
:1023C000204C6F77000A527820527465726D206934
:1023D000732030782530326278000A43616C6920BE
:1023E00073756363657373000A43616C692066618A
:1023F000696C6564000A4470207278706C6C2062AD
:10240000616E64203D20307825303262782C30783F
:1024100025303262782C307825303262782C307852
:102420002530326278000A706372206873796E63B7
:10243000206D6F6465002120212000F022222222DD
:1024400023805656AAAA40636868CCCCC0FE436F6E
:102450006C6F7253706163653A20256264202C2092
:10246000436F6C6F7244657074683A202562640033
:102470004453435B485D3A2048746F74616C3A255D
:10248000642C486163746976653A25642C487377D7
:102490003A25642C4866703A25642C4862703A25C7
:1024A000642C4873706F6C3A256264004453435B3C
:1024B000565D3A2056746F74616C3A25642C5661EF
:1024C00063746976653A25642C5673773A25642CD3
:1024D0005666703A25642C5662703A25642C567301
:1024E000706F6C3A256264004D69706920444353F3
:1024F00020454E440005110005290005100005285F
:10250000001536C615B00029B90FE4016F15D600C5
:1025100015B0031535001536000A43686970506F11
:102520007765724F6E000A46575F564552203D2030
:10253000307825303262782C307825303262782C31
:1025400030782530326278000A496E636F727265A6
:1025500063742050574D2044757479000A50574DCC
:1025600020447574793A256264000A4653203D2060
:102570003078253032627800901000E49390E0804B
:10258000F0901001E49390E081F0901002E49390B9
:10259000E082F0901003E49390E083F02212520C5A
:1025A000127F66F1CDB178B1CF7A257919F1C67A6B
:1025B00025792690E0811284D490E082E090029BFD
:1025C000F090E083122F3412577B12556B80F81273
:1025D000816A1281EB7F01D18C7F01127CC4127E53
:1025E0005B7B017D0C7F09123D0B7D017F0912771A
:1025F000111B7D0C7F22123D0B0B7F20123D0B7FA8
:1026000021123D0B7F1F123D0B7F1D123D0B7F0AD8
:10261000123D0B1200067B327D017F0A12547AE4D0
:102620009003FCF0127E4F02003A90038E7414F077
:10263000A37404F09003887401F0A3F0A3F07E006B
:102640007F457D007B007A007922020AEAEF64016F
:10265000701790E128F090E580E054F7D18554FDA3
:10266000F0ED54FB90E580F02290E580E04404D149
:10267000854402F0ED440890E580F090E12874FF75
:10268000F022E04401F0FD90E10BE022D14D7F010A
:10269000EF6401701790E129F090E580E054FDD1DE
:1026A0008554FEF0ED54FE90E580F02290E580D157
:1026B000824401F0ED440290E580F090E12974FF3E
:1026C000F02290026BEFF012820190026BE024FD89
:1026D000601614601C24F9602824FD605B240C70D3
:1026E0005BE4900397F0801612480F1247F0023710
:1026F000FAE4FF1276880FD18C7F04F13DE4FFE10C
:1027000087900042E0703590002CE0C394077480FD
:10271000948040289003FCE07022900394E09000A5
:1027200041F0A37401F07BFF7A22799BFF123615EA
:102730007F0B125A2E025D587F05F13D2290040254
:102740007401F0900401EFF07BFF7A1779A29002F8
:1027500081F07F01023615900262EFF090002CE0CC
:102760006F6023900262E0640570047F03F13D9086
:10277000002D7401F0900262E090002CF07BFF7A53
:1027800012799112360F22EF6401701B90E126F04E
:1027900090E127F090E580E054DFD18554FBF0ED27
:1027A00054EF90E580F02290E580E04410D185441C
:1027B00004F0ED442090E580F090E12674FFF09065
:1027C000E12774F8F0227BFFE4FF022E207F0D1238
:1027D00085967F0DEF120A97284500284A01284F59
:1027E00002285403285904285E0528630628680730
:1027F000286D0828720928770A287C0B28810C2864
:10280000860D288B0E28900F289510289A11289F46
:102810001228A41328A91428AE1528B31628B8170F
:1028200028BD1828C21928C71A28CC1D28D11E284F
:10283000D61F28DB2028E02128E52228ED2328F4D4
:10284000240000290390E6A001F090E6E301F09057
:10285000E6E301E890E6E201F090E6E201E890E6C6
:10286000E101F090E6E101E890E6E001F090E6E0B9
:10287000807690E6DF807990E6DF806C90E6DE80FF
:102880006F90E6DE806290E6DD806590E6DD805840
:1028900090E6DC805B90E6DC804E90E6DB80519039
:1028A000E6DB804490E6DA804790E6DA803A90E60C
:1028B000D9803D90E6D9803090E6D8803390E6D834
:1028C000802690E6D7802990E6D7801C90E6D680B7
:1028D0001F90E6D6801290E6D5801590E6D5800848
:1028E00090E6D4800B90E6D4E0FFED800F90E6D325
:1028F000E04DF02290E6D3E0FFAE05EEC454F0FECA
:10290000EF4EF0229003FCE0601BF1AFEF6401702A
:1029100014FD7F091277117B017A0379F831517A1E
:102920002179FCF12E9003FCE06025F1AFEF7020DF
:102930007B017A0379F87FC8FEFDFC91317011901C
:1029400003FCF07D017F091277117A22790EF12EB6
:1029500022F11CF128900264120A0DAB07AA06F1BD
:1029600022C3EF9BFFEE9AFE12002ED3EF947FEE70
:10297000648094804004F122F128900264913E0228
:1029800009F3900385E0120A9729B70129C40229A7
:10299000E40329F2042A00052A38062A53082A8863
:1029A000092AAD0A2AE00B2B370D2BA80E2BCB0FD3
:1029B0002BD51000002BD81281801269B512700B34
:1029C0007F0261D29137700971DA3151E490038C42
:1029D000F071DA7F287E00912D600261D812000E1E
:1029E0007F0361D290038BE06401600261D87F04B1
:1029F00061D290038DE06401600261D87F0561D2ED
:102A00009137700E71DA3151E4FF12758FE4900343
:102A10008CF071DA7FB07E04912D600261D8128152
:102A20008312707112725F7F0612344A7F0912336B
:102A30001C7D017F090270A4126955EF64016002D8
:102A400061D871DA7F50FEFDFC9131600261D87F60
:102A50000861D29137701771D931517BFF7A207993
:102A60005C7828E690029AF008E6A3126F4271DAC9
:102A70007F807E0C912D6009F1BBEF6401600261E3
:102A8000D812807C7F0961D29137700471D931519D
:102A90009123600261D8127368EF700D7F07B1C394
:102AA0007A2079791227C661A47F0A61D2913770A2
:102AB000187F06B1C37F01B1C3E490038CF0FF120D
:102AC00076AE1275AB71DA31519123600261D81282
:102AD00075ABEF70077F011276AE61A47F0B61D2F8
:102AE00091377029FF12264D1275C17F01126F8D2B
:102AF00090039974FFF0A3F0A3F0E49003A0F0A377
:102B0000F0A3F0A3F090038CF0900398F012310042
:102B1000128186EF600261D81237F7EF6401700905
:102B20009003AC04F07F0C61D27F0112264DE4903B
:102B300003ACF07F0D61D29137701BFF1249DF713A
:102B4000DA31517BFF7A2079867F03D120E490032C
:102B50008CF0900384F07F011249DF9123701B12E7
:102B60007705EF6401700EF1BBEF640170077F0E13
:102B700012344A8005F1BBEF605E71DA7FD07E07C8
:102B8000912D7054900384E004F0E0640A70157B8A
:102B9000FF7A20799AFFD1207F01B1C312409BE4D4
:102BA000900384F071DA21519137701B900393F0F8
:102BB00090038C71D931511272CA9003AEEFF012AA
:102BC00072D09003AFEFF07F0F800791377001F064
:102BD0007F1002344A1230D822F07B017A037980C8
:102BE00022F128F11C90026C120A251209D39002DE
:102BF00068120A25F13D128486401090026C913EC5
:102C00001209F3F13D120A257F0022900264F1407F
:102C1000120A1912085690026C1284867F00400234
:102C20007F01227B017A0379807F907E017D007C89
:102C30000071E1EF64012290038CE0640122120A2A
:102C40000D900261020A62900261120A82E4FF9111
:102C5000D29141900004B1AD7F0191D29141900099
:102C600006B1AD7F0291D29141900008B1AD7F03D2
:102C700091D2914190000AB1AD7F0491D2914190DF
:102C8000000CB1AD7F0591D2914190000EB1AD7FA6
:102C90000691D29141900010B1AD7F0791D2914140
:102CA000900012B1AD7F0891D29141900014B1AD66
:102CB0007F0991D29141B1AA7F0A91D291419000AE
:102CC00018EF12071C7F0B91D29141900019EF026F
:102CD000071CAB07900272120A3100000000EB12D1
:102CE0000A972D0A002D14012D1E022D28032D32C6
:102CF000042D41052D4D062D59072D65082D71090F
:102D00002D7F0A2D8F0B00002DA490F7F6E0FE908A
:102D1000F7F7802690F7FAE0FE90F7FB801C90F71B
:102D2000F2E0FE90F7F3801290F7EAE0FE90F7EB06
:102D3000800890F7F0E0FE90F7F1B1B41285618061
:102D40003990F7F4E0FE90F7F5B1B4802D90F7F8E4
:102D5000E0FE90F7F9B1B4802190F7EEE0FE90F735
:102D6000EFB1B4801590F7E8E0FE90F7E9B1B480D8
:102D70000990F7ECE090F7EDB1B3FEE4FD801F9011
:102D8000F7E7E05410C4540FFFE4FCFDFE800F9001
:102D9000F7E7E05420C4135407FFE4FCFDFE900263
:102DA00072120A25900272020A0D900016EE8FF040
:102DB000020829FEE07C002400FFEC3E227F05B1E2
:102DC000C37F03EF24FD603614603E146025146059
:102DD0000C1460142406703B90F1B4802F90F1B471
:102DE000E054DFF04420F02290C908E054EFF044B2
:102DF00010F02290F1B5E054F7F04408F02290F181
:102E0000B5E054FBF04404F02290F1B5E054FDF03D
:102E10004402F0227BFF900295E090029AF0E4FFDA
:102E2000900297120A8290230AE493FEEFD39E50F9
:102E3000697B017A02799A9002C2120A8290029703
:102E40001285CF9002C2120A62900349120A827B55
:102E5000017A0279C61212039002C2128545E490EB
:102E600002C5F07B017A0279C61200169002C5E015
:102E7000FDFB3395E0FAC3EB9FEA9E501DEDFF3357
:102E800095E0FE74C62FF58274023EF583E0FF12D2
:102E90000FD99002C5E004F080C9227BFF7A1C792B
:102EA000A1E4FFD1207BFF7A1C79B490F1F3E0FE1E
:102EB00090F1F4B1B490029AF0A3EFF090F191F197
:102EC000347BFF7A1C79D290F1F5E0FE90F1F6B1F7
:102ED000B490029AF0A3EFF090F193F1347BFF7A73
:102EE0001C79F090F1F7E0FE90F1F8B1B490029AFD
:102EF000F0A3EFF090F195F1347BFF7A1D790E90FD
:102F0000F1F9E0FE90F1FAB1B490029AF0A3EFF07B
:102F100090F197E090029CF0E4FFC12090026112D2
:102F20000A82900403020A0D900264020A257BFFC4
:102F3000E4FFC120E090029CF0E4FFC12090026C0D
:102F4000120A0D9002682212726D7004FDFFF16F7B
:102F500012700BB1BD7F04B1C3E4900393F07F0501
:102F60001200077F040200079003877401F022908B
:102F7000F1BD7498F0EF64017026ED64017BFF7081
:102F80000F7A23799AFFD12090F1BB1275D6F022E7
:102F90007A2379A8E4FFD12090F1BBE04402F0222B
:102FA0007A2379B71276F490F1BBE054FDF02290C9
:102FB000A387E07F0030E4027F012290F2F6E05424
:102FC00008701B90F2F7E05408701390F2F8E05488
:102FD00008700B90F2F9E0540870037F01227F0023
:102FE000227B017A02796190C67CE0900002120790
:102FF0001C90F2F1E0131313540112070A90F2F53A
:10300000E0FF540711C6EF54F090000312071C9024
:10301000F263E090000512071C90F264E090000655
:1030200012071C90F265E090000712071C90F266F0
:10303000E0113D90F267E090000902071C90000843
:1030400002071C127607EF640170400412070A9011
:10305000F2BDE0C4131313540111C690F2BCE0FF9B
:10306000C4540F11CCFD7C0064027006900007046C
:10307000800BED64014C7008900007740212071C6D
:10308000EF540F113D90F2BDE08033E412070A9037
:10309000F2EBE0FF131313541FFE540111C6EFC3EC
:1030A00013540311CC6403700890000774041207D2
:1030B0001C90F2EBE0FFEE5403113DEFC4135407F4
:1030C00090000902071C90000102071C90000712E3
:1030D000071C9000070206DD7A02796111F7FF9064
:1030E000039AE06F6010EFF07BFF7A1E79AA122E30
:1030F0001A7F10120007227B011143900269E0221F
:103100007A02796211F7FE900399E0B5061B9002EE
:103110006BE0FF90039BE0B5070F900262E0FF9029
:103120000398E0B507037F0022900262E0900398C5
:10313000F0A3EEF090026AE090039AF090026BE048
:1031400090039BF0900398E064017003FF80027F7E
:1031500001126F8D7F012290026174FFF090038B4A
:10316000E0700241F9900385E0D3918A4018900302
:103170008DE07012122F477100918A500280027FF9
:1031800004900261EFF0900385E0D394067480947C
:10319000804016126965EF6401700E7BFF7A1F791B
:1031A000F3FF122E207F06914A900385E0640A7097
:1031B00027127368EF70217829125747401A7BFF56
:1031C0007A207903E451FC94097480948050028041
:1031D000027F09900261EFF0900385E0D3940B74B5
:1031E00080948040543100EF640170137A2079108C
:1031F00051FA7107500280027F0A900261EFF012CB
:103200008186EF640170137A20792451FA71075096
:103210000280027F0A900261EFF0F1F79003ACE0C8
:103220006F60167BFF7A207930E451FC7107500201
:1032300080027F0A900261EFF0900385E0D3940D45
:10324000748094804022127705EF6006122FBBEF46
:1032500070167A20793A12847771007107500280D3
:10326000027F0A900261EFF01285A79480403F121E
:10327000763B1275DDEF640170131281087BFF7AD3
:103280002079447F03122E207F0E1200071271E175
:10329000EF701B7BFF7A20794F7F0351FD940974F7
:1032A000809480500280027F09900261EFF09003C9
:1032B00085E0C371E44038900261E071E440307F02
:1032C00004710E700A7F047114F07F0D1200077FE5
:1032D00003710E700A7F037114F07F0B1200077FD9
:1032E00005710E700A7F057114F07F0C12000790B3
:1032F0000261E0FFF46002914A227BFFFF122E2060
:10330000900261E0FFC322940A7480948022717A53
:10331000EF640122711C900394740122EF120A974A
:10332000333900335403333E04335F0833490933E0
:10333000641D336F1E0000337990E530800390F2F6
:1033400018E04480F0547FF02290F219E04410F02D
:1033500054EFF02290F218E04408F054F7F0229075
:10336000E539800E90E532E04402F054FDF0229001
:10337000E532E04401F054FEF022E4FEEF120A9739
:10338000339C0033BC0333A10433C50833AA09338B
:10339000B30A33CA1D33D31E000033DA90E54080F0
:1033A0000390F2EDE05480FE803090F2EEE0541095
:1033B000FE802790F2EEE05404FE801E90F2EDE0D5
:1033C0005408FE801590E549800C90E542E05402D7
:1033D000FE800790E542E05401FEEE60027E01AF00
:1033E0000622E0D39410748094802290F1CCE064A3
:1033F00080700790F1CD71E240037F0022EFFD7CE9
:1034000000126712401290F1CEE06480700790F1D4
:10341000CF71E240037F0022C3ED9404EC648094FA
:1034200080402490F1D0E06480700790F1D171E287
:1034300040037F002290F1D2E06480700790F1D3C6
:1034400071E240037F00227F0122900385E0FE6F3E
:103450006036900262EEF0900385EFF090038C747A
:1034600001F07BFF7A1F79BB90029A126F419003A3
:1034700085E0641070057F03120007900262E0642B
:103480001070057F0412000722C394047480948096
:103490002212853590026D7401F0E4A3F0A3F0A32D
:1034A000F0F1D01285744410F054FBF090A201E0CA
:1034B00054E0F0F090A20274A8F0E490A204F0901E
:1034C000A205F090A206F090A207F090A20A7480E4
:1034D000D1057BC07A2779097800D312099C403541
:1034E000900271120A19C374C09BFF74279AFE746C
:1034F0000999FDE498FCF1D6F8D312099C4016D145
:1035000006EF2410FFEE3427FEE43DFDE43CFC9082
:103510000271120A257BFF7A1B7918D1069002816D
:10352000120A25F1D0900285120A25E4FFD115E494
:1035300090026FF090026FE09189502A7F807E4F59
:103540007D127C00900271124AC8501A90026EE0FF
:1035500004D10578011209C0900271120A25900267
:103560006FE004F080CE7F807E847D1E7C00900220
:10357000711284864017D10678011209AD12857444
:103580004404F07BFF7A1B792FE4FFD11590A2074A
:10359000E054F8FFF090026EE0FE4F90A207F07B3F
:1035A000FF7A1B793C900281EEF1F2E47BA87A610C
:1035B000F9F8900271123BB6900270EFF0E47BA82C
:1035C0007A61F9F8A3123BB6AC00AD01AE02AF03CD
:1035D000E4FBFAF9F8C312099C6006900270E0045B
:1035E000F090A20AE05480FFF0900270E0FE4F904D
:1035F000A20AF04480F07BFF7A1B7960900281EE92
:10360000F0E4FF8010F0900271020A0D7BFFE09061
:103610000281F0E4FF90027DEFF0A3120A8278A904
:103620007C027D017BFF7A23791A7E007F8012065F
:103630009E90027DE0FFD3125612505A90040AE089
:10364000FEEFC39E40507B017A02798190032912DC
:103650000A8290027E1285CF900329120A6290039B
:10366000491285C512120390032912854590027DE7
:10367000E075F003A4240BF582E43423F583120AE9
:103680008B90034F1285C5900352120A827BFF7AFA
:103690002279FF120BC122F1D6F81208FCF1E59055
:1036A000026AE0701590026C126F48CEC313CE13FD
:1036B000D8F9F0EE90026CF08009F1C57D07120791
:1036C00050F1E57A1B79E890026C1253D0E4FFD1F7
:1036D0001590026CE0FAA3E0FB7D3CFF128502909E
:1036E000F9A4F07D32AF0312850290F9A5F1C47DF3
:1036F00007F1DDAB07EB240490F9A6F1C47D0612B7
:10370000073E7D19120750AE0790F9A7EEF0EB24A3
:103710000790F9A9F090026AE07054900269E064A1
:103720000190026C7027A3E0FBEE240790F9A7F04C
:103730007C007D07AF03AE02F1DDEF240790F9A90D
:10374000F090F9A4E0246790F98AF0800CF1C87D2C
:103750000A12075090F98AEFF090026BE064017052
:103760001E90F9A5E0FF90F9A4E02F240A800C90A8
:10377000F9A9741EF090F9A4E0243290F98AF07B44
:10378000FF7A1B79F790F9A9D10E7BFF7A1C791289
:1037900090F9A7D10E7BFF7A1C792D90F9A4D10E58
:1037A0007BFF7A1C794890F9A5D10E7BFF7A1C79B2
:1037B0006390F9A6D10E7A1C797E90F98A1284FA68
:1037C000E4FFC115F090026CE0FEA3E0FF7C002254
:1037D000900269020A0DE47BE87A03F92212073E9F
:1037E0007D6402075090026CEEF0A3EFF022E090AF
:1037F0000282F0E4FFC1157F00227B017A02796C1E
:103800001230437A2279211284777BFF7A2279322F
:10381000900273122E197BFF7A227943900275125F
:103820002E197B017A02797690F2E7E0FE90F2E8B9
:10383000122DB49000088FF012082990F2DFE0906A
:10384000F2E031009000048FF012082990F2E1E0DC
:10385000FE90F2E231031285D89000041207F13194
:103860002195F09000028FF012082990F2DBE0FE23
:1038700090F2DC310390000A8FF0120829900008C2
:1038800012758890000A1207F112854E311D9C9026
:1038900000068FF012082990F2E9E0FE90F2EA1299
:1038A0002DB49000128FF012082990F2E5E090F20A
:1038B000E6310090000E8FF012082990F2E3E0FE4E
:1038C00090F2E431031285D890000E1207F13121F5
:1038D00095F090000C8FF012082990F2DDE0FE9038
:1038E000F2DE31039000148FF012082990001212BA
:1038F000750D12854E311D9C9000108FF002082925
:10390000547FFEE02400FFEC3E2225E0246CF5828B
:10391000E43402F583E0FEA3E0FF900266E0FCA33E
:10392000E0FDC3EF9DFFEE221237D6F8900039710B
:10393000B6900261EEF0A3EFF0E47BD07A0771B1AC
:1039400012851390002EE0FB7A007015900263122E
:103950006F48CEC313CE13D8F9F0EE900263F08017
:103960000E9002631237C87D07120750128513901C
:10397000002BE064016006EB64014A700D90026464
:10398000E025E0F0900263E033F090026312853BA3
:1039900012857F128513127B7E900265EEF0A3EFF5
:1039A000F0127B8D900267EE12858F7A1379F0907A
:1039B00002631253D2900261125322E4FF123615B1
:1039C0007BFF7A14790B9002511253D2900253125A
:1039D000532290024D1253A9E4FF12361571BC1206
:1039E00051A91207501285A0120A25F1ECE0FF122E
:1039F00085A0128486401E900253E071C11251A925
:103A0000120750900265311D9CFEE4FCFD9002718E
:103A1000120A25800A900271120A310000000090FB
:103A20000032E06401600241AA71BC2DFDEE3CFC55
:103A300090024D71CA2DFFEC3EFE900263E0FCA3A4
:103A4000E0FD120ABD90027571D290027571B690B8
:103A50000279120A25900267E0FEA3E0FF90026659
:103A6000E02FFF900265E03EFE1285A012848640A2
:103A70002D71D590027571B6C006C007F1ECE071EA
:103A8000DDD007D006120863C006C007A3E0FEA37E
:103A9000E0FBAA06E4D007D006120863800F90026C
:103AA00075120A3100000000800912360690027576
:103AB000120A25900275120A0D9002711284864036
:103AC00009123606900275120A257A14792590009B
:103AD0003112360C900031E025E0FFE433AB07FAF9
:103AE0003395E0F9F8E4FF7E80FDFC1208FC9002BB
:103AF0006D120A2571C7FFE4FCFD90026D120A19D0
:103B0000124AD290025371CAFF124ACF900263E068
:103B1000FEA3E0FFE4FCFD12087190026D71D290EB
:103B2000026D71B6C006C007F1ECE071DDD007D0C0
:103B30000612086390026D120A25E47B07FAF890DA
:103B4000026D71B6900275120A1912853290003218
:103B5000E064027038D3900254E094E8900253E09D
:103B600094034029E47B02FAF9F890027571B6C01B
:103B700004C005C006C007E47B07FAF9F890026D9F
:103B800071B6D003D002D001D0001285327BFF7A0B
:103B9000147934900269125A111236151237D0ACCA
:103BA00006EC90F982F0EF90F983F022F0E47B08C4
:103BB000FAF9F8900035120A0D0208FC900253E061
:103BC000C313FCA3E013FD900251E0C313FEA3E076
:103BD0001322120A25900261E0FEA3E0FFFBAA0671
:103BE000E4F9F82290002CE024FE601A14604714D7
:103BF0006070147002818A147002A10224056002B0
:103C0000A10A7F02A10790002DE0601E1285E1123B
:103C10005D5F90038D7401F078477C00FD7BFF7A37
:103C20001479787E027F0012069E900028E07002D0
:103C3000A10A7F03A10790002DE060061285E11222
:103C40005D5F900029E07002A10A7F04122757E40B
:103C5000FF12269012546F7F147E00F17BE4FF0266
:103C60002787125DF3124ADE125978F1F3EF7002E2
:103C7000A10A12532F125F39125671127A10127B59
:103C80006631281259EA7F05807D90003EE064018C
:103C900070787F0112565FE4FB7D0C7F22B10B7FB1
:103CA00022F1997F20B10B7D017F20F19B7F21B113
:103CB0000B7D017F211277117F05F1A07F1FB10BD2
:103CC0007D017F1F1277117FC87E00F17B125100AA
:103CD0007FC8F1A07F1DB10B7F1DF1997F0AB10B49
:103CE0007D017F0A1277117F327E00F17B90002EDA
:103CF000E07006127BD1127B9C7F011256197F0661
:103D000080051280A67F0712275722EF120A973DDF
:103D10007C003D89013D93023D9D033DA7043DB1DB
:103D2000053DBB063DC5073DCF083DD9093DE30A2A
:103D30003DED0B3DF70C3E010D3E0B0E3E150F3ECB
:103D40001F103E29113E33123E3D133E47143E5490
:103D5000153E63163E6D173E7D183E8E193EA01A25
:103D60003EB31D3EBF1E3ED01F3ED5203EE1213E4C
:103D7000F6223EFB233F032400003F1890A3741259
:103D8000851CC43354E04FF02290A35CF14C90A307
:103D900064C17590A372F11990A374C19690A37237
:103DA000F14C90A374C1A890A371F11990A373C1B1
:103DB000BB90A371F14C90A373C14F90A370F11904
:103DC00090A373C15C90A370F14C90A373C1E99070
:103DD000A36FF11990A373C17590A36FF14C90A3D9
:103DE00073C18590A36EF11990A373C19690A36ED1
:103DF000F14C90A373C1A890A369F11990A36AC173
:103E0000BB90A369F14C90A36A804490A368F11918
:103E100090A36A804790A362F14C90A364C1BB90C9
:103E2000A361F11990A364802690A361F14C90A343
:103E300064802990A360F11990A364C1E990A36004
:103E4000F14C90A363807490A35FF11990A363E099
:103E5000FFEB807890A35FF14C90A363E0FFEB252C
:103E6000E0806990A35EF11990A363807C90A35ECB
:103E7000F14C90A363E0FFEBC454F0807490A35D19
:103E8000F11990A363E0FFEBC43354E0806390A387
:103E90005DF14C90A363E0FFEBC4333354C0805119
:103EA00090A35CF11990A363E0FFEBC43333335468
:103EB00080803E90A35AF11990A35BE04BF02290D2
:103EC000A359F11990A35BE0FFEB25E025E08021E9
:103ED00090A2A2800390A2A312851CC454F04FF0BC
:103EE0002290A2C0F11990A364E0FFEB3333335466
:103EF000F8FEEF4EF02290A2BF800390A2BE128582
:103F00001C800D90A2BDE054F0F04DFFF0AE03EE2A
:103F1000C433333354804FF022E054F0F04DF0229C
:103F20001285A794804024127D94EF6401701C9048
:103F30000397E07B0160067D0CF158A10BE4FDF1D5
:103F400058B10BE4FF125D96125D5822E0540FFF4A
:103F5000F0EDC454F04FF0227F03B10B7F02B10BA0
:103F60007F04B10B7F05B10B7F06B10B7F07B10B4F
:103F70007F0822E054F7F07F017E00EF1FAA067051
:103F8000011E4A6013E4FCFDC3ED9474EC940250EE
:103F9000EA0DBD00010C80F0227D011277117F3205
:103FA0007E00F17B7B017D0C227D0F1259CE7A21A0
:103FB0007908125A0E1236157D121259CE7A2179CD
:103FC00027125A0E1236157D137F03124BAA7F3229
:103FD0001259D57A217944125A0E1236157D1412CF
:103FE00059CE7A21795E125A0E023615900265E09A
:103FF000FEA322E4900261F090A200E054EFF09062
:10400000E107E054F0F090E10FE054EFF090E2634C
:10401000123F7390E107E054F0F0440FF090E10F8D
:10402000E04410123F7690E263E04408119A900257
:1040300061E00412578C500A90E26DE05402C31301
:1040400070EC90E26DE05403640260087BFF7A1B21
:10405000797F801C7A1B799190E22812360C90E2CD
:1040600028E054041313543F7BFF700C7A1B79AC87
:104070007F031236157F00227A1B79BB90E274E031
:10408000900281F090E2751237EE90A210E0547F1A
:10409000F04480F07F0122E04401F07F027E0002C4
:1040A0003F7BE4900261F0900264740CF078657CD0
:1040B000027D017BFF7A1E7992D18178697C027D35
:1040C000017BFF7A1E7996D181786D7C027D017B20
:1040D000FF7A1E799AD18178797C027D017BFF7A03
:1040E0001E799ED181787D7C027D017BFF7A1E79CD
:1040F000A2D18178817C027A1E79A6D17DE49002DA
:1041000062F0900262E0FF7E0012348950681285EE
:1041100062FE7B0174F32FF974F13EFAD1A690028E
:1041200062E0FDD1EFEEF0A3EFF0EDD1EFE0FEA302
:10413000E0FF128046900262E0FED16CEFF0EED11B
:10414000EFE0FEA3E0FF12800D900262E0FE247516
:10415000F582E43402F583EFF074712ED16EE0FF46
:10416000D19AC39FFF900261E0FEEFC39E4003EF30
:1041700004F0D176808C7BFF7A1D794EE4FF122EFD
:1041800020E4FF1267C57F01F10BE4900263F09019
:104190000261E02403FFE433FE900263E01285F342
:1041A00098400281F17BFF7A1D795A90F1E1122E3D
:1041B000191272D6EF64017003FFE10B7F07122D15
:1041C000C3E4900262F01285B1400241C3D14F5462
:1041D000017074900262E0FFD16CE0FD74752FD124
:1041E0009DC39DFFE49400CF2401CF34001285616C
:1041F000FE900262E0D161FD1285F398400241BF5A
:10420000900262E0D16CE075F002A42D1285BB240F
:1042100071F582E583341E1284B6747D2CD163124D
:10422000584DD16CE075F002A42F1285BB2450F5D7
:1042300082E583341EF583E493FDEE25E0FFE4334D
:10424000FE1285EAED8075900262E0FF2479D1527A
:104250005402706B900262E0FE2475D19DF9042532
:10426000E0FDD1B7E0FEC3ED9EFE747D2FD163FD6E
:10427000C39E504BE975F002A4C39DFFE5F0940086
:10428000FE74732FF582741E3E1284B674752CD1A1
:104290009D75F002A4FFD15CFBC3EF9BFFE5F0949A
:1042A00000FE74522FF582741E3EF583E493FCEDFC
:1042B00025E0FFE433FE7B011285EAEC12070AD108
:1042C0007621C6F121123F777F0F1276FBE4900230
:1042D00062F0900262E0C394327480948040026184
:1042E00073123F777B017AF179CCD1A6900285EEEB
:1042F000F0A3EFF07AF179CED1A6900287EEF0A389
:10430000EFF07AF179D0D1A6900289EEF0A3EFF028
:104310007AF179D2D1A690028BEEF0A3EFF0E4FF10
:10432000EF1234895033D14FFE30E10D74792FF5FF
:1043300082E43402F583EE801AEFD1FBFDD1DE502A
:1043400007D14F547FF0800ED3ED9401EC94804060
:1043500005D14F4480F00F80C7900279E030E70F1D
:10436000A3E030E70AA3E030E705A3E020E704D1AB
:104370007641D27A1D796E90028512846890028708
:1043800012848D900289E0FFA3E090029ECFF0A3FB
:10439000EFF090028BE0FFA3E09002A0CFF0A3EF3C
:1043A000122F38E4900262F07829E612584DC39F2C
:1043B000400281AFD1B7E0F4707D900262E0D1FBA2
:1043C000D1DE503D74812ED18FE0FE90026230E04C
:1043D00023E0FD2479D1524401F074712DD16EE0B7
:1043E00025E0FD900262E0FCD1612DFD74692CD1C5
:1043F000BAED8030E0FDD18DEE4401F0747D2D806A
:1044000079D188E020E00281A274792ED152440152
:10441000F074712ED16EE025E004D15B2EFE74693C
:104420002DD1BAEEF0900262E0247DF582E43402F0
:10443000F5837401F08074900262E0FED1E5E0F44F
:104440007069EED1FBD1DE5037900262E0D18DE091
:10445000FD30E11D74792ED152D19725E02402FE62
:10446000900262E0FCD161FBC3EE9BFE746D2C8078
:104470002BD188ED4402F0747D2ED16314F0802B93
:10448000D188E030E11C74792ED152D19725E024F7
:1044900002D15B04FCC3EE9CFE746D2DD1E7EEF0FF
:1044A0008009900262E0D1612402F0D17661A87E99
:1044B00000EF64017007900279E020E134EF6402BC
:1044C0004E700C900279E030E105A3E020E1227803
:1044D00029E664047016900279E030E10FA3E03021
:1044E000E10AA3E030E105A3E020E105126EE82136
:1044F0008F7A1D7995900269126F4F90026AE09051
:10450000029BF090026BE090029CF090026CE090B5
:10451000029D122F387A1D79C390026D1285599031
:10452000026EE090029BF090026FE090029CF0908F
:104530000270E090029D122F38E4900262F0128522
:10454000B15045D14FFF5401602EEF5402700690D8
:104550000269E0801E900262E0FFD1E5E0FD74692F
:104560002FD1BAE02DFFE433CF2401CF3400A2E7EE
:1045700013EF13FFD1D0EFF0D1D0E0FFF46005903E
:104580000264EFF0D17680B6E4900262F0900262AD
:10459000E0FF123489501674652FD1D6E0F470090B
:1045A000900264E0FFD1D0EFF0D17680E090026518
:1045B000D1C990F17DD1C290F17EF0900266D1C94F
:1045C00090F17FD1C290F180F0900267D1C990F153
:1045D00081D1C290F182F0900268D1C990F183D16B
:1045E000C290F184F07F0F1276FB119B7B017AF170
:1045F00079CCD1A6BEFF0CBFFF09F1217A1D79F15C
:10460000127581E4FFF10B7A1D79FD90F17E128520
:104610005990F180E090029BF090F182E090029C32
:10462000F090F184E090029D122F387A1E79289044
:10463000F1DD1284D490F1DEE090029BF090F1DF86
:10464000E090029CF090F1E0E090029D022F38741F
:10465000792FF582E43402F583E022FE900262E0D5
:10466000FD247DF582E43402F583E0222471F58295
:10467000E43402F58322900262E004F0227D017BA3
:10468000FF7E007F0402069E900262E0FE2481F518
:1046900082E43402F583224402F074752EF582E43C
:1046A0003402F583E0221284E4FD7C001206C4FE8D
:1046B000E42DFFEC3EFE2274692EF582E43402F50F
:1046C0008322F0EF901E509322E0FF901E71932200
:1046D000900262E02465F582E43402F58322D394EB
:1046E00001EC948022246DF582E43402F5832225C6
:1046F000E0248DF582E43402F5832225E02485F55B
:1047000082E43402F583E0FCA3E022EF640190F13F
:104710008A7005E04402F022E054FDF022E6447085
:10472000F67828E6FF90037EEFF090A14474C0F085
:1047300090E10DE054FEF04401F0FD90E10CE054F6
:10474000F0F0ED54E190E10DF090C903E0540F1248
:104750007F4690037E1285FC7F2740027F3790A121
:1047600038EFF090A1447480F090E10CE0440FF039
:1047700090E10DE0441EF090C903E044F0F0E490B5
:10478000A144F02290037DEFF01264577009E024F9
:1047900045F8E6782DF62212646040437829E664F5
:1047A000047036782D761190F1F7E0700690F1F8EC
:1047B000E06009782DE64407F1208006F1E8E6780C
:1047C0002DF690F1F9E0700690F1FAE06006782D90
:1047D000F11D800BF1E8E68001E4782DF680007889
:1047E0002DF1E6A60722E6FF90037DE02445F8229E
:1047F000E490039DF07BFF7A2279541248099002DD
:104800009A120A25E4FF022E209003A8020A0DE462
:1048100090026CF07D187F0371AA7F0311917801DB
:104820001209C09003A4120A2590039BE024FE60A5
:104830000B14600C2403700C7F06800A7F0A80062C
:104840007F0C80027F08E4FCFDFE9003A4125A282E
:1048500078031209AD9003A8120A25900399E06429
:1048600001701C90026CE07016110978011209C0E9
:10487000E47B03FAF9F81208FC9003A8120A252237
:10488000FFE0FEEF4E90A33EF07D127F0371AA7F02
:104890000A7E00123F7BE4FD7F0390026DEDF0EF96
:1048A00014604514606F14700221502403600221CB
:1048B0008B90C740E04480F090C75831D2C004C00C
:1048C00005C006C00790C75931C478081209C0D086
:1048D00003D002D001D00051D290C75A31C431CB9D
:1048E000120A2590C740218590C74831D2C004C024
:1048F00005C006C00790C74931C478081209C0D066
:1049000003D002D001D00051D290C74A31C431CB7C
:10491000120A25807D90ED30E04402F090ED3C31AC
:10492000D2C004C005C006C00790ED3D31C4780870
:104930001209C0D003D002D001D00051D290ED3E78
:1049400031C431CB120A2590ED30E054FDF08042A5
:1049500090E690E04480F090E69831D2C004C00523
:10496000C006C00790E69931C478081209C0D00388
:10497000D002D001D00051D290E69A31C431CB128E
:104980000A2590E690E0547FF080077A1679A91204
:104990007C9F90026E120A0D90026DE0F9F81209E8
:1049A000C0A3120A2590026E020A0D7F02FEFDFCD2
:1049B000900039120A19120871A804A905AA06ABB9
:1049C00007900031E0FFE4FCFDFE22120856900241
:1049D0006E22E0540FFFE4FCFDFE78100209C0AB2C
:1049E00007900262120A3100000000EB700890F399
:1049F00062E054F0F02290F3E2E030E41A90F3F831
:104A000031D251D590F3F9E07F00FE51CF90F3FA07
:104A100031C4120856F1DDE4FFFEFDFC51C5700201
:104A200041BC51BD400241BCE47F3E7E49FDFC518A
:104A3000C550089002617406F08064E47F7C7E9229
:104A4000FDFC51C550089002617405F080517FF85B
:104A50007E247D0151C350089002617404F0803FB0
:104A60007FF07E497D0251C350089002617403F0CB
:104A7000802D7FE07E937D0451C3500890026174C5
:104A800002F0801B7FC07E277D0951C35008900231
:104A9000617401F0800951BD5005E4900261F0900D
:104AA000F3F8E0C45407FF900261E0FE6F600DEE82
:104AB0004408FFF090F362E054F04FF0227F807ED4
:104AC0004F7D127C00900262120A19C302099CE415
:104AD000FCFD120856A804A905AA06AB07229000FF
:104AE0002EE0701D31AB120871C006C00790003374
:104AF00012853E8FF0A4AEF0123BDDD007D00680C9
:104B000036E431AB120871E47B07FAF9F812087148
:104B1000C004C005C006C007900032E075F010A4C4
:104B2000FFAEF0A3E012857FAB07AA06E4F9F8D048
:104B300007D006D005D0041208FC71A4900034E020
:104B4000600DA3120A0DEF2438FFEE34C18002F18C
:104B5000E3719C90002AE0600FF1E3719C7BFF7A87
:104B600013791C7F011236157F807E1A7D067C002A
:104B700090003551C8500A900035120A3100061ACB
:104B8000807FE07E327D297C009000351284864053
:104B90000A900035120A31002932E022FEED34017C
:104BA000FDE43CFC900035020A2590026DEDF0EF2B
:104BB0001460131460181460202403702490026D94
:104BC000E090C740F0227BFF7A16797880067BFF61
:104BD0007A16798EE4FF022E2090026DE090E69026
:104BE000F02212849A1283A39003B57004E014801B
:104BF00004E014540F900261F090A33EE090026133
:104C00001180F1DD1284AFF01285857004EF25E08C
:104C1000FF916A70028006ED64024C700890A34117
:104C2000E04402801CEFFD7C006404700890A34106
:104C3000E04405800CED64084C700C90A341E04406
:104C40000BF090A342E0F01189F1DD1284AFF090F7
:104C5000026212847E90A342E040054401F080018C
:104C6000F07F647E00023F7BEEF0EFFD7C0064018C
:104C70002290002EE07055916A7E1070027EF090B6
:104C8000A227F1D67E2070027E3090A22891687E05
:104C90000070027EA290A22CD11D70027EB290A262
:104CA0002D91687E0070027E0190A22ED11D7002AF
:104CB0007E0390A22F91687E0070027EFE90A23744
:104CC000D11D70027E8090A238EEF022916A7E1093
:104CD00070027EF490A227D11D70027EA290A22CB9
:104CE00091687E0070027EB290A22DD11D70027E6E
:104CF0000190A22E91687E0070027EC090A238D1F1
:104D00001D70027E0F90A23991687E1090A228F14A
:104D1000D67F3090A228EFF090A238E064C0700AED
:104D200090A2337402F090A234F090A2797403F050
:104D300090A27A7430F090A27BF090A2307402F0CE
:104D400090A279740FF02290002EE07055916A7E47
:104D50001070027EF090A251F1D67E2070027E305B
:104D600090A25291687E0070027EA290A256D11D40
:104D700070027EB290A25791687E0070027E019010
:104D8000A258D11D70027E0390A25991687E0070D6
:104D9000027EFE90A261D11D70027E8090A262EE22
:104DA000F022916A7E1070027EF490A251D11D70A3
:104DB000027EA290A25691687E0070027EB290A2FE
:104DC00057D11D70027E0190A25891687E0070023A
:104DD0007EC090A262D11D70027E0F90A263916886
:104DE0007E1090A252F1D67F3090A252EFF090A2A6
:104DF00062E064C0700A90A25D7402F090A25EF05E
:104E000090A28F7403F090A2917430F090A292F06F
:104E100090A25A7402F090A28F740FF022EEF0ED7F
:104E200064014C7E002290002EE07055916A7E1045
:104E300070027EF090A212F1D67E2070027E309039
:104E4000A21391687E0070027EA290A217D11D70FD
:104E5000027EB290A21891687E0070027E0190A23C
:104E600019D11D70027E0390A21A91687E00700213
:104E70007EFE90A222D11D70027E8090A223EEF0D1
:104E800022916A7E1070027EF490A212D11D7002EF
:104E90007EA290A21791687E0070027EB290A21846
:104EA000D11D70027E0190A21991687E0070027E71
:104EB000C090A223D11D70027E0F90A22491687E23
:104EC0001090A213F1D67F3090A213EFF090A2239E
:104ED000E064C0700A90A21E7402F090A21FF090CD
:104EE000A26E7420F090A26F74F0F090A2707430F3
:104EF000F090A21B7402F090A26E7443F022900016
:104F00002EE07055916A7E1070027EF090A23CF106
:104F1000D67E2070027E3090A23D91687E007002A5
:104F20007EA290A241D11D70027EB290A2429168F1
:104F30007E0070027E0190A243D11D70027E03901C
:104F4000A24491687E0070027EFE90A24CD11D703A
:104F5000027E8090A24DEEF022916A7E1070027E59
:104F6000F490A23CD11D70027EA290A24191687E75
:104F70000070027EB290A242D11D70027E0190A20A
:104F80004391687E0070027EC090A24DD11D7002D8
:104F90007E0F90A24E91687E1090A23DF1D67F3098
:104FA00090A23DEFF090A24DE064C0700A90A2483C
:104FB0007402F090A249F090A284740CF090A28543
:104FC00074D0F090A2867410F090A2457402F09014
:104FD000A284743CF022EEF0ED64014C2290026257
:104FE000020A25900035120A0DEF2480FFEE3438B6
:104FF00022E4900261F0A3F078637C027D017BFFE4
:105000007A2279E1FE7F0312069E90002CE064076D
:1050100060020194128605A3E0FF9003FDE06F603B
:1050200073E0A3F09003FDE02401FFE433FEEFC43E
:10503000F8540FC868FFEEC454F048900261F0A322
:10504000EFF090026174FFF5F01207DB90026374D9
:1050500051F031B9EC900264F0AF05A3EFF07A2281
:105060007968900264518CA3EF1237F290F9B8512D
:1050700005F07F01318B7B017A0279637D037F39F3
:10508000119B7F327E00123F7BE4FF318B90F9B899
:10509000E054FCF02293FF7BFF7D02900266EDF06E
:1050A000AC0790F9A0E054EFF0ECF58264296006BB
:1050B000E5826439702A90F99A74E0F0900266E013
:1050C000FF240690F999F090F998ECF0EFF0E4F0F5
:1050D000FF900266E0FEEFC39E50151284EA80F155
:1050E00074C012856990F998EC1284DC90F998F0FC
:1050F000123F77E490F99AF090F9ABE054BFF022B8
:1051000031C27F147E00123F7B902504E47A25791A
:10511000051195902507E493FF7BFF7A2579087D9B
:1051200005119B90250DE47A25790E318390251089
:10513000E47A2579113183902513E493FF7BFF7A7C
:105140002579147D02119B902516E47A2579173173
:10515000749024F8E47A2479F931749024F5E47A8F
:105160002479F61195317C319D7BFF7A2479E87F93
:105170000102361593FF7BFF7D02119B7F967E0017
:10518000023F7B93FF7BFF7D02019BEF640190F95F
:10519000847005E04408F022E054F7F02211F3E4B3
:1051A00090F96DF090F96EF0222DFFEE3CFE90022A
:1051B00063E0FCA3E0FD12073E900261E0FCA3E087
:1051C000FD2290F96D74FFF090F96EF090F96FE0A8
:1051D000440F11F790F9B67410F090F9A37404F02D
:1051E00090F99A74C2F090F99B7446F090F99C740F
:1051F00010F090F99D7450F090F99E7410F090F9B1
:105200009F7450F022E054FCF044032290A300E08D
:10521000547FF0FD90A302E04401F0ED444090A3E0
:1052200000F090E2897420F0E4900261F090E2894D
:10523000E054BFF0FD90E1095105F0ED444090E2EB
:1052400089F18C500890E293E0544060E090A30014
:10525000E054BFF090E6E9E04460F090C74674BBCC
:10526000F090C7477480F090E2A174BBF090E2A286
:105270007480F090E69674BBF090E6977480F0909E
:10528000ED3874BBF090ED397480F0227BFFE09034
:105290000281F0221281DF9003B3EFF01281E5EF7B
:1052A0002403FF9003B4F07A24794E9003B3518C19
:1052B000A3EFF0E4FF02361551947A0379C3B13CB1
:1052C0007B017A0379C3122C477BFF7A2479709093
:1052D00003C771D29003C971229003CD71A99003C5
:1052E000CB71C39003CF71B69003DB71187A247928
:1052F000AC9003D171D09003D371229003D771A9E0
:105300009003D571C39003D971B69003DC71181264
:1053100083A470031283AB22E090028BF07F010222
:105320003615E0FFA3E0900283CFF0A3EFF0227ADE
:10533000027947B13C7B017A027947122C477BFF07
:105340007A13793E90024B71D290024D71229002F5
:105350005171A990024F71C390025371B690025FD0
:1053600071187BFF7A13797990025571D2900257A8
:10537000712290025B71A990025971C390025D7114
:10538000B690026071187B017A0279471275199004
:10539000025FE0FFB147900260E0FFB1557005E0A9
:1053A00054FEF022E04401F022E0FFA3E0900285E9
:1053B000CFF0A3EFF022E0FFA3E0900289CFF0A3AB
:1053C000EFF022E0FFA3E0900287CFF0A3EFF022FE
:1053D0007BFFE0FFA3E0900281CFF0A3EFF0227EFD
:1053E000007F137D007B017A0379B0120AEA9003F3
:1053F000B27404F09003B1F0E49003B6F09003B4FB
:105400007404F0A314F09003B07408F0902186E4C3
:1054100093FEA3E493122DB59003BAF0A3EFF0909E
:10542000218891643E9003BCF0A3EFF090218A9113
:10543000643E9003BE12858F7A2079AA9003B2E071
:10544000900281F09003B51237EE7BFF7A2079D17C
:105450009003BA71D29003BC71229003BE71A9E48B
:10546000FF023615E493FEA3E4932400FFEC22B17F
:105470005C71DF51B8F1A0023FA9900261EFF0A387
:10548000EDF0A3EBF0D3946474809480400B7BFF29
:105490007A2579487F01023615900263E0FF900378
:1054A000DDE06F7002A12C900263E09003DDF07BE1
:1054B000FF7A25795C900281711C900262E0FBE426
:1054C000FAF9F87F807EBBFDFC12124D900264EE6B
:1054D000F0A3EFF0900263E0FB64647009A3E0FFC7
:1054E000A3E0A3CF80119002641237C87D64120735
:1054F00050EB12857FA3EEF0A3EFF07F0A128596A2
:105500007F0A1227D4900261E024F7601A14601217
:1055100024FE600924FE7014B12D027DAFB12D026E
:105520007DFFB12D027E2CB12D127DDC2290026414
:10553000E0FEA3E0FFA3E0FCA3E0FD227E007F1AD3
:105540007D007B01020AEAB1557005E054FDF022AE
:10555000E04402F022EF640190F97022E490EF80C1
:10556000F090EFF812852554BFF022F13EB18B90F8
:10557000E0B1E0FB6432600280027B327D017F0A91
:10558000917A125D09123F20024FF1123BE4900222
:105590006174FFF090002CE0D3126713400B900071
:1055A00028E070057F0212275790002CE0D3F19974
:1055B000400B900029E070057F0312275790002CC4
:1055C000E0D111403B90E0B0E0FDE4FF128241EFFA
:1055D000701290003EE064017026F0FFD15FE4FF9E
:1055E000D119801C90003EE07016123300D1125089
:1055F0000280027F05900261EFF090003E7401F09E
:10560000900261E0FFF4600312275722900263E0EA
:10561000FFC394057480948022EF6401702B7F0196
:10562000D15F90003FE090F989700FE054DFF044C3
:1056300010F07BFF7A1979AE8020E04420F054EF1F
:10564000F07BFF7A1979BB8011E4FFD15F90F98973
:10565000E054CFF07BFF7A1979C87F01023615EF4D
:105660006401700790F9BF74FFF022E490F9BFF075
:10567000227F01D15F127A1C900032E0FF127A651E
:10568000900032E0FF127A93900033E0FF127A9D8F
:105690007BFF7A1379B4900032E0900281F09000A1
:1056A00033E0900282711C7F01127AB37BFF7A1380
:1056B00079CD7F0112361590A37BE04404F0900071
:1056C0002EE0FF127AC390002EE0FF127AD3127AF6
:1056D000EB127AF3127AFBE4FF127BE6E4FFF1505F
:1056E000900034E0FF127B0390002FE0FFF15E7A20
:1056F0001379DE125EBD900032E0FBFD7C0090036A
:10570000C9E0FEA3E0FF120750AC06AD07E4FF12AC
:105710007BF890024D12853BFDAB057C00120750D3
:10572000D3EBF14940177C007D021207A5ED4C60D8
:105730000C90F9887421F090F9717413F0221272B0
:105740007E123157022982E6D3940174809480221C
:10575000B1557005E04408F022E054F7F0229002C1
:1057600061EFF0E4A3F07F0B7E257D2590F986E0C4
:1057700054C0F04FF090F988EDF02212740E9000B2
:10578000297401F0900028F0B18B80FCF07F057E39
:1057900000123F7B900261E0C394037480948022E6
:1057A000127CB1124BE21282511282591282D11232
:1057B000845B7BFF7A21797C125F9C1283DF125815
:1057C0005B90EF98E04402F09003B2E0640190EF48
:1057D000977003F080037401F09003B1E0FF900232
:1057E00062F090EFA77468F07E00EF64017008909B
:1057F00002617480F08028EF64024E7008900261AC
:1058000074C0F0801AEF64044E700890026174E076
:10581000F0800CEF64084E700690026174F0F01195
:1058200054E490EFF8F090EF80F07F01FE123F7BA0
:1058300090EFF874FFF090EF80E0114DEF4EFF9085
:10584000EF80F0900261E04F90EF80F022FF900235
:1058500062E0FE2290EFAD74FFF022900261120A26
:1058600031000000009003BC31607940316B90033F
:10587000B8EEF0A3EFF09003BC1237C87D03120717
:1058800050AF05E490EF81F0EFC4333354C0F044DF
:1058900010F9F09003B8E0FCA3E0FDEC4990EF8133
:1058A000F090EF82EDF09003B0E0FB9003BCD1CB21
:1058B00012073EE4FCFD315478081209AD90EF8EDA
:1058C000EFF0315AE490EF8FEFF0EB75F003A4FEA8
:1058D000240890EF8BF09003B7E0FFC3EE9F90EFAA
:1058E0008CF09003BE316079C0316B31547808126E
:1058F00009AD90EF9AEFF0315A90EF9BEFF0E47F13
:1059000006FEFDFC9002615128124AD59003BFE0CB
:105910002406FF9003BEE03400FEE4FCFD120863A1
:10592000E47B06FAF9F81208FC90EF9CEBF01154B6
:1059300090E102E064E2701B9003BCE0B4020DA3AE
:10594000E0B41C0890A37CE054FDF02290A37CE01E
:105950004402F022900261120A25900261020A0DAF
:10596000E0FCA3E0FDE41202E9E422FBFA78401235
:105970000247121010020322900035120A0D900205
:105980006531C578031209AD31E17A1279B790001B
:1059900039120A0D900281315790028531C590026B
:1059A00089120A25900031E090028DF0900032E0DB
:1059B00090028EF0900033E090028F1237F231C8DF
:1059C000D1D4023491120A25900265020A0D7F0398
:1059D000124BAA7F057E00123F7BE4FD7F03124835
:1059E0009A900261120A257BFF22900261120A310D
:1059F000000000007D3131CE7A147943510E123609
:105A0000157D3031CE7A14795E510E023615900232
:105A100061120A0D900281120A257F0122EFF0E443
:105A20007F02FEFDFC900039120A19020871EF2472
:105A3000FD600D147002612E24F9700261CB81F7B4
:105A400090E084E04401F054FB511E91FF90E0850A
:105A5000511D78081209AD90E086511D90E087EF46
:105A6000F0E4FF122CD21237E57F01122CD2900203
:105A70006EEEF0A3EFF07F05122CD2900270EEF0E4
:105A8000A3EFF07F06122CD2AD07AC0690026C910A
:105A9000F890E088F0EB90E089F090027091F89037
:105AA000E08AF0EB90E08BF090026E91F890E08C41
:105AB000F0EB90E08DF0EC90E08EF0EF90E08F1244
:105AC0003BAC91FF90E092EF123BAC78081209AD2D
:105AD00090E093EF123BAC90E094EFF0900032E056
