:100000000210FF023F7822022F8522027E7F0237F4
:10001000FD2222027FD3E4FFFE1206C4600C0FEF24
:1000200070010E09E970F20A80EF22027FD8EE30EB
:10003000E707C3E49FFFE49EFE227BFFE4FF022E5E
:10004000A72222027FD402038EE86480F8E933E815
:100050003360110460F0ED33EC337009E8FCE9FD26
:10006000EAFEEBFF220460DED3EB9FEA9EE99DE807
:10007000C2E78CF0C2F795F0400CE8CCF8E9CDF976
:10008000EACEFAEBCFFB12035985D0F05804700387
:1000900020D5B3E80470075002B2D502039892D578
:1000A000EC0460F7E4CCC0E0C398F8603B941860BF
:1000B00008400DD0E0FB020370E4FBFAC9FC802885
:1000C000E830E406E4C9FBE4CAFCE830E305E4C92F
:1000D000CACBFCE854076010F8C3E913F9EA13FA35
:1000E000EB13FBEC13FCD8F130F52FC3E49CFCEFD1
:1000F0009BFFEE9AFEED99FDD0E0FBEF4E4D4C706C
:100100001222DB03020395EC2CFCEF33FFEE33FEEF
:10011000ED33FDED30E7EB020370EF2BFFEE3AFE1F
:10012000ED39FDD0E0FB50130BBB0003020398ED4B
:1001300013FDEE13FEEF13FFEC13FC020370EC4D06
:100140006011E8497017ED33EC3304600DE4FCFFF7
:10015000FEFD22E933E8330470F802038E120359DE
:1001600058046009E4CC2481500628500902039801
:10017000284003020395C0E0EB4A7044B98006D0E2
:10018000E0FB020384EF4E701CBD8008EBFFEAFE2B
:10019000E9FD80EBE98DF0A4FEE5F0020227E9CD50
:1001A000F9EAFEEBFFEF89F0A4FCE5F0CE89F0A4BC
:1001B0002EFFE435F0CD89F0A42DFEE435F0806704
:1001C000EF4E7005BD80D780C3EF8BF0A4ACF0EE8E
:1001D0008BF0A42CFCE435F0F8EF8AF0A42CE5F0C9
:1001E00038FCE433CB8DF0A42CFCE5F03BF8EE8A30
:1001F000F0A42CFCE5F038F8E433CF89F0A42CFC13
:10020000E5F038CF3400CE89F0A42FFFE5F03EFEB4
:10021000E433C98DF0A42EFEE5F039CD8AF0A42F89
:10022000FFE5F03EFEE43DFD33D0E0FB50070BBBA5
:10023000000F020398EC2CFCEF33FFEE33FEED339E
:10024000FD020370020398EC5D046005E859047038
:100250000302038E120359580460F6EC4860F2EC76
:100260007004FDFEFF22C860DB2481C85009C398DA
:10027000600250060203959850CAF582E9294B4A5C
:100280007005AB8202038475F0007C1A7880C3EF9E
:100290009BEE9AED99400DC3EF9BFFEE9AFEED9910
:1002A000FDE842F0DC23ACF0D0E0FFD0E0FED0E08F
:1002B000FDAB8220E7101BEB60BAEC2CFCEF33FFA8
:1002C000EE33FEED33FD020370E803F830E705C0BE
:1002D000F075F000EF2FFFEE33FEED33FD40B83048
:1002E000E7C280AA75F020800E75F010800575F0C9
:1002F000087D007E007F003392D530D50312098E31
:10030000EC334010EF33FFEE33FEED33FDEC33FC06
:10031000D5F0ED22E5F0247EA2D513CC92E7CDCE28
:10032000FF22EDD2E7CD33EC3392D524814006E4B1
:10033000FFFEFDFC22FCE4CFCECDCC24E0501174B6
:10034000FF80EDC3CC13CCCD13CDCE13CECF13CFC6
:100350000470F030D5DE02098EE9D2E7C933E83304
:10036000F892D5EDD2E7CD33EC33FC5002B2D52272
:10037000EC30E7100FBF000C0EBE00080DBD0004EE
:100380000BEB6014A2D5EB13FCED92E7FD2274FF9A
:10039000FCFDFEFF22E480F8A2D574FF13FC7D80F3
:1003A000E480EF74F8CC6480CCC86480C8F5820423
:1003B000604FC3EB9FF5F0EA9E42F0E99D42F0E802
:1003C0009C45F0603C501DE5825FFFE582D313CB76
:1003D0005BCBF42B5582FB50280ABA002409B900E4
:1003E0002008801DE5825BFBE582D313CF5FCFF44D
:1003F000C3132F5582FF50090EBE00050DBD00012D
:100400000CC3EB9FF5F0EA9E42F0E99D42F0E89CB8
:1004100045F06007CC4820E701B3EC22F920E7362D
:1004200024F950037907E4F42402FBE58215827075
:10043000021583DBF6E024FB501BE96014E4F0E5D1
:1004400082158270021583E004F0B40A08E4F0D942
:10045000EE7401F00A22C2D522ED33EC3392D5FAC4
:10046000602AB4FF33EDC2E77BFF60067A04797E31
:10047000E4227A04798720D5047A047982224E61B5
:100480004E002B494E46002D494E4600E47A08F0B6
:10049000A3DAFC7B00740722C083C082ECC0E0EDCD
:1004A000C0E0EEC0E0EFC0E0EA75F010A4CAABF027
:1004B00075F04DA42BFBE435F0FCEA2410FAEB3484
:1004C000C5FBEC34D9FCEDC2E7FF75F056A4F4246B
:1004D00011C5F0F434C58FF0A42AE5F03BE43CF0FC
:1004E00020E71412058ED0E0FFD0E0FED0E0FDD072
:1004F000E0FC1202478014F40412058ED0E0FFD015
:10050000E0FED0E0FDD0E0FC12013ED082D083E0DE
:10051000FAEDD2E7CD33EC332482FBE4C3CF33CF03
:10052000CE33CECD33CD33DBF37B0775F00A846059
:1005300004F0A31B0AE5F0F0A38FF0740AA4FFAC4B
:10054000F08EF0740AA42CFEACF050010C8DF07407
:100550000AA42CFDE435F0F0A3DBDE7407223F8013
:1005600000004120000042C80000447A0000461C00
:10057000400047C35000497424004B1896804CBE7D
:10058000BC205A0E1BCA6753C21C749DC5AEFB60CB
:10059000065407601C23231205BCEB543860091273
:1005A00005A81205B712013EECF8EDF9EEFAEFCB13
:1005B00022EB1205B780F1543803241C90055EFE2F
:1005C00093FC0EEE93FD0EEE930ECE93FF22E70901
:1005D000F608DFFA8046E709F208DFFA803E8882F3
:1005E0008C83E709F0A3DFFA8032E309F608DFFA2B
:1005F0008078E309F208DFFA807088828C83E3094F
:10060000F0A3DFFA806489828A83E0A3F608DFFA28
:10061000805889828A83E0A3F208DFFA804C80D276
:1006200080FA80C680D4806980F28033801080A6F2
:1006300080EA809A80A880DA80E280CA803389824A
:100640008A83ECFAE493A3C8C582C8CCC583CCF0F6
:10065000A3C8C582C8CCC583CCDFE9DEE7800D899D
:10066000828A83E493A3F608DFF9ECFAA9F0EDFBA4
:100670002289828A83ECFAE0A3C8C582C8CCC583EC
:10068000CCF0A3C8C582C8CCC583CCDFEADEE88045
:10069000DB89828A83E493A3F208DFF980CC88F0B7
:1006A000EF60010E4E60C388F0ED2402B4040050E8
:1006B000B9F582EB2402B4040050AF232345822312
:1006C00090061E73BB010689828A83E0225002E7EE
:1006D00022BBFE02E32289828A83E49322BB010CBF
:1006E000E58229F582E5833AF583E0225006E92583
:1006F00082F8E622BBFE06E92582F8E222E582299D
:10070000F582E5833AF583E49322BB010689828A68
:1007100083F0225002F722BBFE01F322F8BB010D49
:10072000E58229F582E5833AF583E8F0225006E96F
:100730002582C8F622BBFE05E92582C8F222EF8D8C
:10074000F0A4A8F0CF8CF0A428CE8DF0A42EFE2229
:10075000BC000BBE0029EF8DF084FFADF022E4CC8D
:10076000F875F008EF2FFFEE33FEEC33FCEE9DEC56
:10077000984005FCEE9DFE0FD5F0E9E4CEFD22ED9C
:10078000F8F5F0EE8420D21CFEADF075F008EF2FE6
:10079000FFED33FD4007985006D5F0F222C398FDD7
:1007A0000FD5F0EA22C2D5EC30E709B2D5E4C39DFB
:1007B000FDE49CFCEE30E715B2D5E4C39FFFE49E58
:1007C000FE120750C3E49DFDE49CFC800312075019
:1007D00030D507C3E49FFFE49EFE22C5F0F8A3E0F6
:1007E00028F0C5F0F8E582158270021583E038F034
:1007F00022BB0110E58229F582E5833AF583E0F515
:10080000F0A3E0225009E92582F886F008E622BB31
:10081000FE0AE92582F8E2F5F008E222E5832AF5EE
:1008200083E993F5F0A3E99322F8BB0111E582294E
:10083000F582E5833AF583E8F0E5F0A3F02250096C
:10084000E92582C8F608A6F022BBFE09E92582C880
:10085000F2E5F008F222EF2BFFEE3AFEED39FDEC67
:1008600038FC22C3EF9BFFEE9AFEED99FDEC98FC5D
:1008700022E88FF0A4CC8BF0A42CFCE98EF0A42C01
:10088000FC8AF0EDA42CFCEA8EF0A4CDA8F08BF04D
:10089000A42DCC3825F0FDE98FF0A42CCD35F0FC4B
:1008A000EB8EF0A4FEA9F0EB8FF0A4CFC5F02ECD17
:1008B00039FEE43CFCEAA42DCE35F0FDE43CFC22FC
:1008C00075F008758200EF2FFFEE33FECD33CDCCEF
:1008D00033CCC58233C5829BED9AEC99E582984072
:1008E0000CF582EE9BFEED9AFDEC99FC0FD5F0D64F
:1008F000E4CEFBE4CDFAE4CCF9A88222B800C1B979
:100900000059BA002DEC8BF084CFCECDFCE5F0CBB6
:10091000F97818EF2FFFEE33FEED33FDEC33FCEBEF
:1009200033FB10D703994004EB99FB0FD8E5E4F9AA
:10093000FA227818EF2FFFEE33FEED33FDEC33FC97
:10094000C933C910D7059BE99A4007EC9BFCE99A8B
:10095000F90FD8E0E4C9FAE4CCFB2275F010EF2FD0
:10096000FFEE33FEED33FDCC33CCC833C810D707D0
:100970009BEC9AE899400AED9BFDEC9AFCE899F80B
:100980000FD5F0DAE4CDFBE4CCFAE4C8F922C3E4F5
:100990009FFFE49EFEE49DFDE49CFC22EB9FF5F0AE
:1009A000EA9E42F0E99D42F0E89C45F022E8600FA3
:1009B000ECC313FCED13FDEE13FEEF13FFD8F12291
:1009C000E8600FEFC333FFEE33FEED33FDEC33FC95
:1009D000D8F122BB010789828A83020A0D5005E9FA
:1009E000F8020B16BBFE05E9F8020B2289828A8306
:1009F000020B2EBB010789828A83020A255005E972
:100A0000F8020B3EBBFE05E9F8020B4A22E0FCA30C
:100A1000E0FDA3E0FEA3E0FF22E0F8A3E0F9A3E0FD
:100A2000FAA3E0FB22ECF0A3EDF0A3EEF0A3EFF0CD
:100A300022A8828583F0D083D082120A48120A4805
:100A4000120A48120A48E473E493A3C583C5F0C5AB
:100A500083C8C582C8F0A3C583C5F0C583C8C58255
:100A6000C822E0FBA3E0FAA3E0F922F8E0FBA3A38D
:100A7000E0F925F0F0E582158270021583E0FA387E
:100A8000F022EBF0A3EAF0A3E9F022E493FB740177
:100A900093FA740293F922D083D082F8E49370120F
:100AA000740193700DA3A393F8740193F582888366
:100AB000E4737402936860EFA3A3A380DFEC8EF06D
:100AC000A4CCC5F0CCCDF8EFA4CEC5F02DFDE43C10
:100AD000FCE8A42EC8C5F03DFDE43CFCEFA4FFE516
:100AE000F028FEE43DFDE43CFC22EF4E6012EF6096
:100AF000010EEDBB010B89828A83F0A3DFFCDEFAD5
:100B00002289F05007F709DFFCA9F022BBFEFCF3B5
:100B100009DFFCA9F022E6FC08E6FD08E6FE08E68F
:100B2000FF22E2FC08E2FD08E2FE08E2FF22E49375
:100B3000FC740193FD740293FE740393FF22ECF6A0
:100B400008EDF608EEF608EFF622ECF208EDF208F2
:100B5000EEF208EFF222E508244FF582E43403F5C3
:100B600083E005082290034C30070390034FE4759F
:100B7000F001120A6B0206C42000E97F2ED2008029
:100B800018EF540F2490D43440D4FF30040BEF24DA
:100B9000BFB41A0050032461FFE50960021509057E
:100BA0000CE50C7002050B30070E90034CE475F059
:100BB00001120A6BEF02070A020FD97403D20780F1
:100BC00003E4C207F50890034C120A82E4F509F524
:100BD0000BF50CE50960077F20120B9980F5750A6B
:100BE000FFC201C200C202C203C205C206C208128D
:100BF0000B65FF700D3007057F00120BAAAF0CAE1E
:100C00000B22B4255FC2D5C204120B65FF24D0B4F9
:100C10000A00501A75F00A780930D50508B6FF01A8
:100C200006C6A426F620D5047002D20380D924CFAC
:100C3000B41A00EF5004C2E5D204020E9CD2018027
:100C4000C6D20080C0D20280BCD2D580BAD2058084
:100C5000B47F20120B992002077401B5090040F1FE
:100C6000120B56FF120B99020BD3D208D2068095B5
:100C7000120B56FB120B56FA120B56F94A4B700622
:100C8000799A7A0F7BFF20022EE509602A7E008E7A
:100C9000827583001206DD60060EEE650A70F0C2F2
:100CA000D5EBC0E0EAC0E0E9C0E0EE120EFDD0E016
:100CB000F9D0E0FAD0E0FB1206C4FF60AAEBC0E076
:100CC000EAC0E0E9C0E0120B99D0E02401F9D0E0DD
:100CD0003400FAD0E0FBE50A0460DCD50AD980874D
:100CE000D20280A2120EDF60F7E50A70010412043E
:100CF0001CA90A600DE50A600914F50A120F87EFB6
:100D000060F3EA30E702F404C3995079EAF4250A63
:100D10000430E701E404F50A800D120EDF60C1EA39
:100D2000050A250A12041CEA90037BF030E701E46F
:100D3000250A04D50A0420050114120EFDE4C0E0C2
:100D4000120F8790037BE0601320E70714F0120B6B
:100D500081802204F0D0E014C0E07F00120B81E516
:100D60000A6007120B78150A800B300503120B7806
:100D7000D0E0020BD3D0E00480C4120EDF609EE509
:100D80000A0412041C90037BEAF0E50A20050260C5
:100D900001042404120EFD74FF04C0E0120F871238
:100DA0000B81E50A2005026003120B78D0E0B50A3A
:100DB000E87F45120B8B90037BE07F2B30E7047FAD
:100DC0002DF404C0E0120B99D0E075F00A84C0F055
:100DD000120B82D0E0120B82020BD37910800279C1
:100DE00008C206C2088008D2D5790A8004790AC2EE
:100DF000D5E50A047002F50AE4FAFDFEFF120B566F
:100E0000FC7B08200113120B56FD7B1030000A12E8
:100E10000B56FE120B56FF7B20EC3382D592D55039
:100E200013C3E43000069FFFE49EFEE42001039D0F
:100E3000FDE49CFCE4CBF8C201EC700CCFCECDCC31
:100E4000E824F8F870F38017C3EF33FFEE33FEEDBC
:100E500033FDEC33FCEB33FB994002FB0FD8E9EB9D
:100E6000300105F8D0E0C448B201C0E00AEC4D4EB4
:100E70004F78207B0070C2EAB50A0040BCC0E01287
:100E80000EFFD0F0D0E0200104C4C0E0C4B201C025
:100E9000F0120B82D0F0D5F0EB020BD3120A970CB4
:100EA00070530DDB580C414C0C3D420DDF4F0DE7EC
:100EB000440DE7490C56430DED550D1A460D7A4584
:100EC0000CE4470FBA500C452D0C492E0C6C2B0C22
:100ED0004D230C6A200FA32A0C054800000C64E582
:100EE0000AB4FF03750A06120B56FC120B56FD12CC
:100EF0000B56FE120B56FF900374020459790AA296
:100F0000D5200314300509B910020404B9080104FE
:100F1000A2D52006025001042002689202B5090001
:100F20005034C0E07F203003197F30A20272067275
:100F300005500F120F56C202C206C205C2087F300A
:100F4000800F300503E9C0E0120B99300503D0E0B3
:100F5000F9D0E0B509CC3005177F30B9100C120B71
:100F6000997F583004077F788003B90803120B99E2
:100F70003002057F2D020B997F202008F87F2B205F
:100F800006F322920280CF7F00B40700500B247436
:100F9000F582E43403F583E0FF22286E756C6C293A
:100FA00000D201120B563001F8C201780930D50188
:100FB00008F6020C052D50434958120B562403B471
:100FC00005004001E4900FB593120B8A743A120B9E
:100FD0008AD203750904020DDBEFB40A07740D12FF
:100FE0000FE4740A309811A899B8130CC29830987D
:100FF000FDA899C298B811F63099FDC299F59922C9
:1010000025091602FFFFFFFFFFFFFFFFFFFFFFFFA6
:10101000900265120A2574FFFFFEFDFC900265E058
:10102000F8A3E0F9A3E0FAA3E0FBC312099C60383F
:101030007F807E967D187C4B900265E0F8A3E0F9F6
:10104000A3E0FAA3E0FB1203A36002501B7F807EA3
:10105000967D187CCB900265E0F8A3E0F9A3E0FA56
:10106000A3E0FB1203A3500F900265E0FCA3E0FD98
:10107000A3E0FEA3E0FF22900265E0FCA3E0FDA355
:10108000E0FEA3E0FF120322900269120A259002FB
:1010900069E0FCA3E0FDA3E0FEA3E0FFEC1202E4A4
:1010A000C8ECC8C9EDC9CAEECACBEFCB900265E067
:1010B000FCA3E0FDA3E0FEA3E0FF120049E4FBFA7D
:1010C000F9F81203A35025900269E0FCA3E0FDA308
:1010D000E0FEA3E0FFE4FAF9F8EF2401FFEA3EFEA8
:1010E000E93DFDE83CFC900269120A25900269E0A6
:1010F000FCA3E0FDA3E0FEA3E0FFEC1202E42278F3
:101100007FE4F6D8FD7581660211460225B6E493A8
:10111000A3F8E493A34003F68001F208DFF48029EA
:10112000E493A3F85407240CC8C333C4540F4420D9
:10113000C8834004F456800146F6DFE4800B0102C8
:1011400004081020408090118BE47E019360BCA3C2
:10115000FF543F30E509541FFEE493A360010ECF16
:1011600054C025E060A840B8E493A3FAE493A3F840
:10117000E493A3C8C582C8CAC583CAF0A3C8C58200
:10118000C8CAC583CADFE9DEE780BE4103FC00446C
:1011900003F8000000004104090041040800410474
:1011A00007004103FF0041040A0041037F0044039C
:1011B0008000000000602800000010000E000112F6
:1011C000101E000218213E00031E410D00041001F4
:1011D0002C000518240C000618231C000718203DBD
:1011E000004103DD005A03DE000E8210128C10E075
:1011F00000D80050008408B10870003900040004D1
:10120000010100900346E0FFA3E0FEA3E0CF9003BE
:101210004FF0A3EEF0A3EFF0900349E0CBF0A3E092
:10122000CAF0A3E0C9F07F22900352AD82AC8312D2
:1012300006C48D828C83F0A309E970010ADFEC906B
:101240000349E0FBA3E0FAA3E0F9020BBBC2D5E837
:1012500030E70FB2D5E4C39BFBE49AFAE499F9E4D2
:1012600098F8EC30E717B2D51212831208FCE4C3E9
:101270009BFBE49AFAE499F9E498F880031208FCDD
:1012800030D50DE4C39FFFE49EFEE49DFDE49CFC8D
:101290002254785374617465203D203078253032B3
:1012A000627800525820536574204576656E743A12
:1012B000253032627820004D697069496E436C6B4D
:1012C0003A256C642C2063616C6320756C427974E0
:1012D00065636C6B3A256C642C20756C506879439F
:1012E0006C6B3A256C642C2075634270703A2562F1
:1012F000642C2075635478506F72744E756D3A305B
:101300007825303262782C20756354784C616E6594
:101310004E756D3A307825303262780042757273BE
:1013200074204D6F6465206C616E65207261746518
:1013300020696E6372656173652038304D005258C4
:101340005B485D3A2048746F74616C3A25642C48A0
:101350006163746976653A25642C4873773A25642D
:101360002C4866703A25642C4862703A25642C48F3
:1013700073706F6C3A2562640052585B565D3A2078
:1013800056746F74616C3A25642C56616374697687
:10139000653A25642C5673773A25642C5666703A64
:1013A00025642C5662703A25642C5673706F6C3A23
:1013B00025626400506F72743A2025303262782CB6
:1013C000204C616E653A20253032627800445343E8
:1013D00020736F667420776F7264636E743B007263
:1013E0006462797465636C6B3A25642C2072647056
:1013F0006978636C6B3A256420006873773A2564DA
:101400002C206862703A256420686163746976658F
:101410003A2564007563427070203078253032625E
:10142000783B00726561642064656C61793A256C73
:10143000750041645F6C6D74785F77726974655F85
:10144000636C6B203D20256C756B687A0041645F8E
:101450006C6D74785F726561645F636C6B203D20B6
:10146000256C756B687A0000FFFFFFFFFFFF000629
:10147000B3A02801010101041F0103803E2278EE80
:101480006995AD5246A1270F5054BFCF00814081CE
:10149000809500714F81C0B300D1C0010108E80000
:1014A00030F2705A80B0588A0055502100001E005A
:1014B0000000FD0018901EFF8A000A202020202036
:1014C00020000000FC005647323855514C31410A8B
:1014D000202020000000FF00313233343536373809
:1014E000393032380A01F002035AF15004131F1048
:1014F0000F1E015D5E5F60617603123F23090707DF
:1015000083010000E200EA6D030C001000383C2863
:1015100000600102036DD85DC401788853123078F1
:1015200083341D6D1A000002013090F000000000AD
:1015300000E305C000E421001C00E6060501606030
:1015400012366C80A070703E803020080C6D5521E2
:1015500000001A6FC200A0A0A05550302035006DC9
:10156000552100001A0027000000000000000000C4
:10157000000000000000000000000000000000006B
:10158000000000000000000000000000000000005B
:10159000000000000000000000000000000000004B
:1015A000000000000000000000000000000000003B
:1015B000000000000000000000000000000000002B
:1015C000000000000000000000000000000000001B
:1015D000000000000000000000000000000000000B
:1015E00000000000000000000000000000000000FB
:1015F00000000000000000000000000000000000EB
:1016000000000000000000000000000000000000DA
:1016100000000000000000000000000000000000CA
:1016200000000000000000000000000000000000BA
:1016300000000000000000000000000000000000AA
:10164000000000000000000000000000000000009A
:10165000000000000000000000000000000000008A
:10166000000000000000000A5468697320666D20C5
:101670007278706C6C5F696E5F636C6B000A5468A3
:10168000697320666D20646874785F6469765F6C46
:10169000696E6B5F636C6B000A5741524E494E474F
:1016A0003A2046726571206D6574657220676574B5
:1016B000206661696C005761726E696E673A2069D5
:1016C0006E70757420697320696E76616C69640050
:1016D0000A6C6F6164206B657920646F6E655B30A6
:1016E0007825303262785D000A5061747465726EDC
:1016F000207063722062616E64203D203078253056
:10170000326278000A5061747465726E2070637280
:10171000206C6F636B004D495049566964496E6691
:101720006F557064617465212121212121004D498B
:101730005049566964496E666F436C656172212138
:101740002121212100417564496E666F55706461E5
:10175000746521212121212100417564496E666F44
:10176000436C656172212121000A466C6173682017
:1017700045444944204C6F6164000A466C617368BB
:101780002045444944206E6F742065787369743A2B
:101790000054784576656E742D2562640000000063
:1017A0000000000000000000000000000000000039
:1017B0000000000000000000000000000000000029
:1017C0000000000000000000000000000000000019
:1017D0000000000000000000000000000000000009
:1017E00000000000000000000000000000000000F9
:1017F00000000000000000000000000000000000E9
:1018000000000000000000000000000000000000D8
:1018100000000000000000000000000000000000C8
:1018200000000000000000000000000000000000B8
:1018300000000000000000000000000000000000A8
:101840000000000000000000000000000000000098
:101850000000000000000000000000000000000088
:101860000000000000000000000000000000000078
:101870000000000000000000000000000000000068
:101880000000000000000000000000000000000058
:101890000000000000000000000000000000000048
:1018A0000000000000000000000000000000000038
:1018B0000000000000000000000000000000000028
:1018C0000000000000000000000000000000000018
:1018D0000000000000000000000000000000000008
:1018E00000000000000000000000000000000000F8
:1018F00000000000000000000000000000000000E8
:1019000000000000000000000000000000000000D7
:1019100000000000000000000000000000000000C7
:1019200000000000000000000000000000000000B7
:1019300000000000000000000000000000000000A7
:101940000000000000000000000000000000000097
:101950000000000000000000000000000000000087
:101960000000000000000000000000000000000077
:101970000000000000000000000000000000000067
:101980000000000000000000000000000000000057
:10199000000000000000000000000000004D697021
:1019A0006920445349204F7574004D697069204384
:1019B0005349204F7574004D697069204F7574202C
:1019C00044697361626C6500506F727420307E33BD
:1019D0002052702043616C6920526573756C743AB3
:1019E0002025303262782C2025303262782C202558
:1019F000303262782C20253032627800506F727459
:101A000020307E332052642043616C69205265731C
:101A1000756C743A2025303262782C202530326281
:101A2000782C2025303262782C20253032627800E4
:101A30004450687920436C6B206275727374204D3A
:101A40006F6465004450687920436C6B20636F6E4F
:101A500074696E7565204D6F646500445349207646
:101A60006964656F204E4F4E5F42555253545F4D2F
:101A70004F44455F574954485F53594E435F45565D
:101A8000454E540044534920766964656F204E4F9B
:101A90004E5F42555253545F4D4F44455F57495432
:101AA000485F53594E435F50554C5345004453498A
:101AB00020766964656F2042555253545F4D4F4400
:101AC00045004D49504954585F33445F4D4F44459C
:101AD0003A204D4950495F4C4546545F524947486A
:101AE000545F4D4F4445004D49504954585F33446D
:101AF0005F4D4F44453A204D4950495F4E4F5F334B
:101B0000445F4D4F44450076636F204461746152D9
:101B10006174653A20256C752C20256C7500506F1A
:101B2000737420646976203D2032004132303720C2
:101B300052475F4C4D5458504C4C5F52414E4745B4
:101B40005F53454C203A203078253032627800418E
:101B5000323041204C4D5458504C4C5F4449565FF4
:101B6000534554203A2030782530326278004C4D6D
:101B70005458504C4C2063616C69206661696C005C
:101B80004C4D5458504C4C206C6F636B20666C610C
:101B9000673A3078253032627820004C4D545850E6
:101BA0004C4C20756E6C6F636B004C4D5458504C10
:101BB0004C2063616C6962726174696F6E2062614E
:101BC0006E646F75743A2030782530326278203038
:101BD000782530326278004279746520636C6B3A04
:101BE00025754D687A00636B5F706F7374202830C1
:101BF000784639413929203D2030782530326278C5
:101C000000636B5F7A65726F202830784639413700
:101C100029203D20307825303262780068735F6C6F
:101C2000707820202830784639413429203D2030F2
:101C30007825303262780068735F70726570202892
:101C400030784639413529203D20307825303262C0
:101C5000780068735F747261696C28307846394126
:101C60003629203D20307825303262780068735F55
:101C700072717374202830784639384129203D200C
:101C8000307825303262780000000000000000004B
:101C90000A547261696E696E6720657120696E66AB
:101CA0006F3A000A4C302076616C69645B307825AD
:101CB0003034785D2C45515B307825303262785D68
:101CC000000A4C312076616C69645B3078253034D1
:101CD000785D2C45515B307825303262785D000AA2
:101CE0004C322076616C69645B3078253034785DE5
:101CF0002C45515B307825303262785D000A4C33D8
:101D00002076616C69645B3078253034785D2C45D1
:101D1000515B307825303262785D000A4551486960
:101D200067203D2030782530326278000A45514CDA
:101D30006F77203D2030782530326278000A534397
:101D4000414E205354524154000A46454353544196
:101D50005445203D2030782530326278000A4C61AD
:101D60006E65457272203D203078253034782C30F5
:101D700078253034782C3078253034782C3078251C
:101D8000303478000A5363616E5F45514C4F5720E1
:101D90003D20307825303262782C30782530326220
:101DA000782C307825303262782C307825303262C9
:101DB00078000A5363616E5F4551484947203D20D2
:101DC000307825303262782C307825303262782CA9
:101DD000307825303262782C3078253032627800C5
:101DE0000A414344525F4953535545000A56616CBA
:101DF00069644571203D20307825303262782C307E
:101E00007825303262782C307825303262782C3068
:101E1000782530326278000A536B6577203D203098
:101E20007825303262782C307825303262782C3048
:101E30007825303262782C30782530326278000094
:101E4000000102030405060708090A0B0C0D0E0F1A
:101E50000F0F0F0F0F0F0F0F0F0F0F0F0F0F0F0F92
:101E60000000000000000000000000000000000072
:101E7000000102030405060708090A0B0C0D0E0FEA
:101E80000FFFFFFFFFFFFFFFFFFFFFFFFF0000004F
:101E90000001010101000000000A436F6C6F7269CC
:101EA0006D65747279206368616E6765203D2030CE
:101EB000782530326278000A44705278494E464F95
:101EC0003A000A486270202020203A20252D3864EC
:101ED0002020566270202020203A20252D386400D2
:101EE0000A486670202020203A20252D38642020C2
:101EF000566670202020203A20252D3864000A489C
:101F000073796E6320203A20252D38642020567383
:101F1000796E6320203A20252D3864000A486163D9
:101F2000742020203A20252D3864202056616374C7
:101F30002020203A20252D3864000A48746F6C2038
:101F400020203A20252D3864202056746F6C2020E4
:101F5000203A20252D3864000A44657074682020DA
:101F60003A20252D3862642020537061636520205B
:101F70003A20252D386264000A506978436C6B2042
:101F80003A20252D386C6420205065616B436C6BC2
:101F90003A20252D386C64000A52656672657368B4
:101FA00052617465203D202564000A5278537461A3
:101FB0007465203D20256264000A447052782055E3
:101FC0006E706C7567000A527820506C7567000A55
:101FD0005761697420454343000A45636320657275
:101FE00072000A52782072652D747261696E696E92
:101FF00067000A534B657720556E6C6F636B000A60
:10200000436F6C6F72207370616365206368616EEB
:102010006765000A4D7361206368616E6765000A39
:102020004453432043484E47000A476F746F205083
:102030004352000A417564696F20636867000A4172
:1020400043445220556E6C6F636B000A52415445F5
:102050005F4C414E45203D20307825303262782C4F
:1020600030782530326278000A44652D736B6577CD
:1020700020657272000A5761697420706372207360
:102080007461626C652E2E2E000A50435220484126
:10209000524420524553455400447363456E6320B7
:1020A000536C696365203D202562642C436F6D701D
:1020B00072657373526174696F203D2025626400FC
:1020C000447363456E6320536C6963654865696753
:1020D0006874203D2025642C536C696365576964DE
:1020E0007468203D2025642C4368756E6B53697AB3
:1020F00065203D2025640041645F63736374785FED
:1021000068616C665F7069785F636C6B203D202549
:102110006C756B687A0041645F64736374785F64A4
:1021200073635F72645F636C6B203D20256C756B1D
:10213000687A0041645F64736374785F6473635F9B
:10214000636C6B203D20256C756B687A0041645F81
:1021500064736374785F6473635F6F75745F636CDB
:102160006B203D20256C756B687A0011000089306A
:1021700080087008700010021C021C0200020E0091
:102180002001840007000C0667065C180010F003AD
:102190000C2000060B0B330E1C2A38465462697063
:1021A00077797B7D7E01020100094009BE19FC1987
:1021B000FA19F81A381A781AB62AF62B342B743B07
:1021C000746BF400000000000011000089308008EA
:1021D0007008700010021C021C0352020E00200046
:1021E000000007000C0667065C18000A4750494FBC
:1021F0002054726967676572204C6F77000A4750F8
:10220000494F2054726967676572204869676800A2
:102210000A44702052782076696420696E666F3AAD
:10222000000A436F6C6F7253706163655B25626473
:102230005D000A436F6C6F7244657074685B256261
:10224000645D000A52785F5065616B5F636C6B2060
:102250003D2020256C640075636142726967687473
:102260006E6573735B315D3A307825303262782C5D
:10227000207563614272696768746E6573735B325F
:102280005D3A3078253032627800445052585F53BE
:1022900054415449435F4844525F4E4F5449465954
:1022A0005F4556454E540054585F564944454F5F6C
:1022B0004F4E5F4556454E545F3300445052585F71
:1022C000564944454F5F4F46465F4556454E54007C
:1022D000000000444542554700494E464F005741D3
:1022E000524E004552524F520043524954000A5B2D
:1022F000252D35735D2025730003FF22D3FF22D9DE
:10230000FF22DEFF22E3FF22E900000000000000C0
:1023100000000000000000000000000000000000BD
:1023200000000000000000000000000000000000AD
:10233000000000000000000000000000000000009D
:10234000000000000000000000000000000000008D
:10235000000000000000000000000000000000007D
:10236000000000000000000000000000000000006D
:10237000000000000000000000000000000000005D
:102380000000000000000000000A4470527820485D
:10239000504420495251000A447052782048504419
:1023A0002048696768000A447052782048504420E9
:1023B0004C6F77000A527820527465726D206973F1
:1023C0002030782530326278000A43616C692073CE
:1023D000756363657373000A43616C6920666169A4
:1023E0006C6564000A4470207278706C6C206261C5
:1023F0006E64203D20307825303262782C3078258C
:10240000303262782C307825303262782C30782562
:1024100030326278000A706372206873796E6320CC
:102420006D6F6465002120212000F02222222223EA
:10243000805656AAAA40636868CCCCC0FE436F6C35
:102440006F7253706163653A20256264202C2043CB
:102450006F6C6F7244657074683A20256264004442
:1024600053435B485D3A2048746F74616C3A25644D
:102470002C486163746976653A25642C4873773A11
:1024800025642C4866703A25642C4862703A2564AD
:102490002C4873706F6C3A256264004453435B565A
:1024A0005D3A2056746F74616C3A25642C566163F2
:1024B000746976653A25642C5673773A25642C56F0
:1024C00066703A25642C5662703A25642C567370F7
:1024D0006F6C3A256264004D697069204443532053
:1024E000454E44000511000529000510000528008F
:1024F0001536C60ABC1100008930800870087000CB
:1025000010021C021C0200020E00200184000700C1
:102510000C066715B00039B9132A026439EC05D8E6
:1025200015D60015B00315350015364015260115D2
:1025300003010A43686970506F7765724F6E000A35
:1025400046575F564552203D20307825303262781C
:102550002C307825303262782C3078253032627811
:10256000000A496E636F72726563742050574D2084
:1025700044757479000A50574D20447574793A2592
:102580006264000A4653203D20307825303262785C
:1025900000901000E49390E080F0901001E493909C
:1025A000E081F0901002E49390E082F0901003E458
:1025B0009390E083F022125582127E231247B2B12B
:1025C00091B1EA7A25793212003A7A25793F90E082
:1025D0008112857290E082E090029BF090E083127D
:1025E0002F52126E01124B0580F8127FDD12808887
:1025F0007F01D15C7F01127AF1127CE67F0912859E
:10260000687F09126F811200067B32124B21E49021
:1026100003FCF0127CDA128650E0A3F022EF640192
:10262000701790E128F090E580E054F7D15554FD03
:10263000F0ED54FB90E580F02290E580E04404D179
:10264000554402F0ED440890E580F090E12874FFD5
:10265000F022E04401F0FD90E10BE022D11D7F016A
:10266000EF6401701790E129F090E580E054FDD10E
:102670005554FEF0ED54FE90E580F02290E580D1B7
:10268000524401F0ED440290E580F090E12974FF9E
:10269000F02290002CE024FE601A14604014606266
:1026A000147002E12C147002E1A524056002E1AD72
:1026B0007F02E1AA90002DE0601712450190038D82
:1026C0007401F078477C00FD7A1479677E021286E7
:1026D0006F900028E07002E1AD7F03E1AA90002D29
:1026E000E06003124501900029E07002E1AD7F0433
:1026F000124445E4FFD160124D9B128668E4FF024C
:102700007AB01272AC12811A124DB9127420EF70A5
:1027100002E1AD124C5A1280EE12541C12783A1299
:1027200079B41231DB12379A7F05807E90003EE04B
:10273000640170797F011244EFE4FB7D0C7F22126B
:1027400045407F22F1D4F1B60B7D0C7F201245402D
:102750007F20F1D4F1B67F211285EB7F21126F81AA
:102760007F057E00F1B67D0C7F1F1245407D017F05
:102770001F126F81F1DE124A2AF1DE7F1D12856879
:102780007F1DF1D6F1B67F0A1285EB7F0AF1D6F1F3
:10279000B690002EE07005F1E41279EA7F01124450
:1027A000A97F068005127F607F0712444522E0540E
:1027B000F7F07F017E00EF1FAA0670011E4A60132A
:1027C000E4FCFDC3ED9474EC940250EA0DBD0001ED
:1027D0000C80F0227D01126F817F327E00227FC843
:1027E0007E0080D290F9ABE054DF127A124420F1DF
:1027F000B190F9ABE054DFF02290038E7414F0A393
:102800007404F09003887401F0A3F0A3F07E007FBD
:10281000457D007B007A007922020AEA9003FCE001
:10282000601C127C2EEF64017014FD7F09126F8111
:102830007B017A0379F8116B7A2179EBF14C9003E3
:10284000FCE06026127C2EEF70207B017A0379F881
:102850007FC8FEFDFC714A70119003FCF07D017F82
:1028600009126F817A2179FDF14C22F11AF146901B
:102870000264120A0DAB07AA06F120C3EF9BFFEE1C
:102880009AFE12002ED3EF947FEE64809480400471
:10289000F120F14690026471570209F3900385E03C
:1028A000120A9728D10128DE0228FE03290C0429E8
:1028B0001A05295006296B0829A10929C60A29F9F0
:1028C0000B2A500D2AC10E2AE40F2AEE1000002A0E
:1028D000F1127FF31256731267E97F0241EB7150D8
:1028E000700951F3116BE490038CF051F37F287E53
:1028F000007146600241F112000E7F0341EB90032C
:102900008BE06401600241F17F0441EB90038DE0B4
:102910006401600241F17F0541EB7150700E51F38B
:10292000116BE4FF126E2CE490038CF051F37FB036
:102930007E047146600241F1127FF6125D8E1260D4
:10294000647F06123C647F09123B367D01025DBB49
:10295000125FEDEF6401600241F151F37F50FEFD23
:10296000FC714A600241F17F0841EB7150701751D0
:10297000F2116B7BFF7A20794B7828E690029AF06F
:1029800008E6A3126EA351F37F807E0C7146600AA5
:10299000126F3EEF6401600241F11267D87F094176
:1029A000EB7150700451F2116B713C600241F112F5
:1029B0006BF7EF700D7F07B1CC7A20796812003A7F
:1029C00041BD7F0A41EB715070187F06B1CC7F0189
:1029D000B1CCE490038CF01F1260D4126E4851F316
:1029E000116B713C600241F1126E48EF70077F017C
:1029F0001260D441BD7F0B41EB71507029FF12264C
:102A00001D126E617F01126BE590039974FFF0A3B4
:102A1000F0A3F0E49003A0F0A3F0A3F0A3F09003E0
:102A20008CF0900398F0123921127FF9EF60024187
:102A3000F1123FECEF640170099003AC04F07F0CDD
:102A400041EB7F0112261DE49003ACF07F0D41EBBA
:102A500071507017FF91D251F3116B7A2079751272
:102A60008659E490038CF0900384F07F0191D27139
:102A70003C701D126F75EF6401700F126F3EEF64B2
:102A80000170077F0E123C648006126F3EEF60619A
:102A900051F37FD07E0771467057900384E004F0B5
:102AA000E0640A70187BFF7A207989FFD1A77F0143
:102AB000B1CC0F7E001227B6E4900384F051F301ED
:102AC0006B7150701B900393F090038C51F2116B5B
:102AD0001269049003AEEFF012690A9003AFEFF0B1
:102AE0007F0F800771507001F07F10023C64123834
:102AF000F922F07B017A03798022F146F11A9002E3
:102B00006C120A251209D3900268120A25F15B1291
:102B100081FD401090026C71571209F3F15B120AAB
:102B2000257F0022900264F15E120A191208569065
:102B3000026C1281FD7F0040027F01227B017A033B
:102B400079807F907E017D007C0051FAEF64012244
:102B500090038CE0640122120A0D900261020A6265
:102B6000900261120A82E4FF71EB715A90000491A5
:102B7000C27F0171EB715A90000691C27F0271EB26
:102B8000715A90000891C27F0371EB715A90000A4C
:102B900091C27F0471EB715A90000C91C27F057154
:102BA000EB715A90000E91C27F0671EB715A900042
:102BB0001091C27F0771EB715A90001291C27F0889
:102BC00071EB715A90001491C27F0971EB715A91A7
:102BD000BF7F0A71EB715A900018EF12071C7F0B30
:102BE00071EB715A900019EF02071CAB079002724B
:102BF000120A3100000000EB120A972C23002C2D42
:102C0000012C37022C41032C4B042C5A052C660650
:102C10002C72072C7E082C8A092C980A2CA40B00F5
:102C2000002CB990F7F6E0FE90F7F7802690F7FABF
:102C3000E0FE90F7FB801C90F7F2E0FE90F7F38047
:102C40001290F7EAE0FE90F7EB800890F7F0E0FED4
:102C500090F7F191C9126784803990F7F4E0FE9003
:102C6000F7F591C9802D90F7F8E0FE90F7F991C93A
:102C7000802190F7EEE0FE90F7EF91C9801590F774
:102C8000E8E0FE90F7E991C9800990F7ECE090F751
:102C9000ED91C8FEE4FD801B90F7E7E05410C412EC
:102CA0008660800F90F7E7E05420C4135407FFE4D8
:102CB000FCFDFE900272120A25900272020A0D902B
:102CC0000016EE8FF0020829FEE07C002400FFECE5
:102CD0003E22AB07900262120A3100000000EB7046
:102CE0000890F362E054F0F02290F3E2E030E41E4A
:102CF00090F3F8128550124F3590F3F9E07F00FE03
:102D0000124F2F90F3FAF13F1208561282A3E4FFFC
:102D1000FEFDFCB1BC7002A1B3B1B44002A1B3E4AA
:102D20007F3E7E49FDFCB1BC50089002617406F004
:102D30008064E47F7C7E92FDFCB1BC50089002610F
:102D40007405F080517FF87E247D01B1BA5008905F
:102D500002617404F0803F7FF07E497D02B1BA5079
:102D6000089002617403F0802D7FE07E937D04B1B2
:102D7000BA50089002617402F0801B7FC07E277DEC
:102D800009B1BA50089002617401F08009B1B450E1
:102D900005E4900261F090F3F8E0C45407FF90025C
:102DA00061E0FE6F600DEE4408FFF090F362E054C6
:102DB000F04FF0227F807E4F7D127C0090026212E5
:102DC0000A19C302099C7F05B1CC7F03EF24FD6083
:102DD0003614603E14602514600C146014240670D0
:102DE0003B90F1B4802F90F1B4E054DFF04420F038
:102DF0002290C908E054EFF04410F02290F1B5E0C1
:102E000054F7F04408F02290F1B5E054FBF044048C
:102E1000F02290F1B5E054FDF04402F0227A1C79E2
:102E2000901285E47BFF7A1C79A390F1F3E0FE9089
:102E3000F1F491C990029AF0A3EFF090F191F15260
:102E40007BFF7A1C79C190F1F5E0FE90F1F691C913
:102E500090029AF0A3EFF090F193F1527BFF7A1C6D
:102E600079DF90F1F7E0FE90F1F891C990029AF0C5
:102E7000A3EFF090F195F1527BFF7A1C79FD90F170
:102E8000F9E0FE90F1FA91C990029AF0A3EFF09068
:102E9000F197E090029CF0E4FF800C7BFF9002959C
:102EA000E090029AF0E4FF900297120A829022F9D1
:102EB000E493FEEFD39E50617B017A02799A9002EF
:102EC000C2120A8290029712863F9002C212860FA7
:102ED0007A0279C61212039002C21285DBE49002D4
:102EE000C5F07B017A0279C61200169002C5E0FD9A
:102EF000FB3395E0FAC3EB9FEA9E501DEDFF33953F
:102F0000E0FE74C62FF58274023EF583E0FF120FD7
:102F1000D99002C5E004F080C922900261120A82B1
:102F2000900403020A0D7F02FEFDFC900039120A94
:102F300019120871A804A905AA06AB07900031E090
:102F4000FFE4FCFDFE22900264020A257BFFE4FF01
:102F5000C1A7E090029CF0E4FFC1A790026C120AA6
:102F60000D900268221274227005FDFF126090120B
:102F700067E9B1C60FB1CCE4900393F00F120007DC
:102F80007F0402000790026BEFF012809E90026BAC
:102F9000E024FD601614601C24F9602B24FD605EA3
:102FA000240C705EE4900397F0801812539212483C
:102FB000EA023FFFE4FF126F290F12265C7F041222
:102FC0003003E4FF027AB0900042E0703590002CAC
:102FD000E0C394077480948040289003FCE0702242
:102FE000900394E0900041F0A37401F07BFF7A22FB
:102FF000798AFF1230257F0B1250460247AB7F05BE
:103000001103229004027401F0900401EFF07BFFA1
:103010007A177991900281F07F0180097BFFE0901F
:103020000281F0E4FF90027DEFF0A3120A8278A9FA
:103030007C027D017BFF7A2379097E007F80120666
:103040009E90027DE0FFD31243C3505E90040AE0DD
:10305000FEEFC39E40547B017A02798190032912CE
:103060000A8290027E12863F90032912860F7A020E
:1030700079A91212039003291285DB90027DE07575
:10308000F003A424FAF582E43422F583120A8B902B
:10309000034F120A827B017A0279A9900352120A25
:1030A000827BFF7A2279EE120BC1221285FB120875
:1030B000FC12532C90026AE0701490026CF1F6CE70
:1030C000C313CE13D8F9F0EE90026CF0800AB1E38E
:1030D0007D0712075012532C7A1B79D790026C127D
:1030E0004CF9E4FF112590026CE0FAA3E0FB7D3C73
:1030F000FF1285A890F9A4F07D32AF031285A89045
:10310000F9A5B1E27D07128648AB07EB240490F9DC
:10311000A6B1E27D0612073E7D19120750AE079058
:10312000F9A7EEF0EB240790F9A9F090026AE0709D
:1031300055900269E0640190026C7028A3E0FBEEF8
:10314000240790F9A7F07C007D07AF03AE0212863A
:1031500048EF240790F9A9F090F9A4E0246790F9CA
:103160008AF0800CB1E67D0A12075090F98AEFF0E0
:1031700090026BE06401701E90F9A5E0FF90F9A445
:10318000E02F240A800C90F9A9741EF090F9A4E0B5
:10319000243290F98AF07BFF7A1B79E690F9A91125
:1031A0001E7BFF7A1C790190F9A7111E7BFF7A1C08
:1031B000791C90F9A4111E7BFF7A1C793790F9A530
:1031C000111E7BFF7A1C795290F9A6111E7A1C7988
:1031D0006D90F98A128598E4FF01251285FB900015
:1031E00039915F900261EEF0A3EFF0E47BD07A07B3
:1031F000915A1285C290002EE0FB7A007014900262
:1032000063F1F6CEC313CE13D8F9F0EE900263F05B
:10321000800D900263B1E67D071207501285C290BF
:10322000002BE064016006EB64014A700D900264BB
:10323000E025E0F0900263E033F0900263125791D2
:103240001282A91285C21279CC900265EEF0A3EF2A
:10325000F01279DB900267EE1286317A1379DF90F3
:103260000263124CFB900261124C4DE4FF11257B6E
:10327000FF7A1379FA900251124CFB900253124CD0
:103280004D90024D124CD2E4FF11259165124AEC8B
:10329000120750128638120A251285F3FF1286385B
:1032A0001281FD401F900253E0916A124AEC12070E
:1032B000509002651241149CFEE4FCFD90027112D4
:1032C0000A25800A900271120A3100000000900065
:1032D00032E064016002615991652DFDEE3CFC9085
:1032E000024D91732DFFEC3EFE900263E0FCA3E0E3
:1032F000FD120ABD900275B1EE900275915F9002C9
:1033000079120A25900267E0FEA3E0FF900266E0D2
:103310002FFF900265E03EFE1286381281FD402D9F
:10332000B1F1900275915FC006C0071285F3B1F943
:10333000D007D006120863C006C007A3E0FEA3E0D2
:10334000FBAA06E4D007D006120863800E9002752F
:10335000120A31000000008008B1DC900275120AE8
:1033600025900275120A0D9002711281FD4008B17C
:10337000DC900275120A257A147914900031111C20
:10338000900031E025E0FFE433AB07FA3395E0F934
:10339000F8E4FF7E80FDFC1208FC90026D120A2505
:1033A0009170FFE4FCFD90026D120A19124F3290E9
:1033B00002539173FF124F2F900263E0FEA3E0FFD0
:1033C000E4FCFD12087190026DB1EE90026D915F08
:1033D000C006C0071285F3B1F9D007D00612086302
:1033E00090026D120A25E47B07FAF890026D915F56
:1033F000900275120A191285D2900032E0640270B0
:1034000038D3900254E094E8900253E094034029AA
:10341000E47B02FAF9F8900275915FC004C005C020
:1034200006C007E47B07FAF9F890026D915FD003BC
:10343000D002D001D0001285D27BFF7A147923907C
:103440000269F1741125F1F0AC06EC90F982F0EF0D
:1034500090F983F022F0E47B08FAF9F89000351235
:103460000A0D0208FC900253E0C313FCA3E013FD15
:10347000900251E0C313FEA3E013221285D59002FF
:103480006D7401F0E4A3F0A3F0A3F0F1F01286262E
:103490004410F054FBF090A201E054E0F0F090A250
:1034A0000274A8F0E490A204F090A205F090A206A5
:1034B000F090A207F090A20A7480B1DB7BC07A275B
:1034C00079097800D312099C4031900271120A19CF
:1034D000C374C09BFF74279AFE740999FDE498FC9D
:1034E0001285FBD312099C4012B1DCEF2410FFEED1
:1034F0003427127EC5900271120A257BFF7A1B7950
:1035000007B1DC900281120A25F1F0900285120ABF
:1035100025E4FF1125E490026FF090026FE0123C69
:10352000A350267E4F7D12128686122DBF501A9010
:10353000026EE004B1DB78011209C0900271120A38
:103540002590026FE004F080D17E847D1E12868675
:103550001281FD4017B1DC78011209AD12862644B4
:1035600004F07BFF7A1B791EE4FF112590A207E08F
:1035700054F8FFF090026EE0FE4F90A207F07BFF40
:103580007A1B792B900281EE124DB312867E900247
:1035900071915F900270EFF012867EA3915FAC0094
:1035A000AD01AE02AF03E4FBFAF9F8C312099C6067
:1035B00006900270E004F090A20AE05480FFF090C0
:1035C0000270E0FE4F90A20AF04480F07BFF7A1B6D
:1035D000794F900281EEF0E4FF0125F09002710234
:1035E0000A0DF090026CE0FEA3E0FF7C0022120ABC
:1035F00025900261E0FEA3E0FFFBAA06E4F9F822B1
:103600007D0FF1807A2079F7F17111257D12F1801B
:103610007A217916F17111257D137F03F1BC7F3278
:10362000F1867A217933F17111257D14F1807A21A7
:10363000794DF1710125FFE0FEEF4E90A33EF07D44
:10364000127F03F1BC7F0A7E001227B6E4FD7F03E0
:10365000128676604A146079147002E111240360C6
:1036600002E15190C740E04480F090C75812855065
:10367000C004C005C006C00790C759122F3F780884
:103680001209C0D003D002D001D000124F3290C72F
:103690005A122F3F1285CB120A2590C740E14B905A
:1036A000C748128550C004C005C006C00790C7496E
:1036B000122F3F78081209C0D003D002D001D000E9
:1036C000124F3290C74A122F3F1285CB120A25E1C2
:1036D0005890ED30E04402F090ED3C128550C0046B
:1036E000C005C006C00790ED3D122F3F78081209B3
:1036F000C0D003D002D001D000124F3290ED3E1264
:103700002F3F1285CB120A2590ED30E054FDF0805A
:103710004790E690E04480F090E698128550C0040F
:10372000C005C006C00790E699122F3F780812091D
:10373000C0D003D002D001D000124F3290E69A12CE
:103740002F3F1285CB120A2590E690E0547FF0803F
:10375000077A167998127A8B90026E120A0D9002EF
:103760006DE0F9F81209C0A3120A2590026E020A50
:103770000D900261120A0D900281120A257F01222A
:103780007F03F1BC7F057E001227B6E4FD7F03D1E5
:1037900050900261120A257BFF22900261120A31C9
:1037A000000000007D31F1807A147932F171112529
:1037B0007D30F1807A14794DF171012512867660A1
:1037C000131460181460202403702490026DE0909C
:1037D000C740F0227BFF7A16796780067BFF7A1656
:1037E000797DE4FF022EA790026DE090E690F02232
:1037F000900269020A0DE0FEA3E07803229003879D
:103800007401F0227B017A02796190C67CE090001D
:103810000212071C90F2F1E0131313540112070A6D
:1038200090F2F5E0FF540711E7EF54F09000031217
:10383000071C90F263E090000512071C90F264E010
:1038400090000612071C90F265E090000712071C1A
:1038500090F266E0116090F267E090000902071CA8
:1038600090000802071C126EA9EF6401703E04125A
:10387000070A90F2BDE0C413131311E590F2BCE007
:10388000FFC4540F11EDFD7C006402700690000728
:1038900004800BED64014C7008900007740212075D
:1038A0001CEF540F116090F2BDE08031E412070A62
:1038B00090F2EBE0FF131313541FFE11E5EFC31357
:1038C000540311ED64037008900007740412071C80
:1038D00090F2EBE0FFEE54031160EFC41354079035
:1038E000000902071C540190000102071C90000708
:1038F00012071C9000070206DD7A0279613118FF79
:1039000090039AE06F6010EFF07BFF7A1E799912B6
:103910002EA17F10120007227B011166900269E040
:10392000227A0279623118FE900399E0B5061B9065
:10393000026BE0FF90039BE0B5070F900262E0FF8F
:10394000900398E0B507037F0022900262E09003A5
:1039500098F0A3EEF090026AE090039AF090026B68
:10396000E090039BF0900398E064017003FF8002F5
:103970007F01126BE57F012290026174FFF09003DA
:103980008BE070026113900385E0D391A4401890FE
:10399000038DE07012122F65711A91A450028002FB
:1039A0007F04900261EFF0900385E0D39406748069
:1039B00094804016125FFDEF6401700E7BFF7A1F4A
:1039C00079E2FF122EA77F069164900385E0640AD6
:1039D0007026126BF7EF70207829F1D1401A7BFF27
:1039E0007A1F79F2E47116940974809480500280F1
:1039F000027F09900261EFF0900385E0D3940B748D
:103A000080948040543121EF640170137A1F79FF54
:103A100071147121500280027F0A900261EFF0124E
:103A20007FF9EF640170137A2079137114712150BA
:103A30000280027F0A900261EFF0F1EC9003ACE0AB
:103A40006F60167BFF7A20791FE471167121500296
:103A500080027F0A900261EFF0900385E0D3940D1D
:103A6000748094804022126F75EF6006126F3EEFF3
:103A700070167A20792912853C711A7121500280C2
:103A8000027F0A900261EFF0128603403B126EDD66
:103A9000126E7AEF6401700F127FC87A20793312A8
:103AA00086597F0E1200071268F8EF701B7BFF7AB1
:103AB00020793E7F037117940974809480500280AE
:103AC000027F09900261EFF0900385E0C371FE4030
:103AD00038900261E071FE40307F047128700A7FE7
:103AE00004712EF07F0D1200077F037128700A7F8A
:103AF00003712EF07F0B1200077F057128700A7F7B
:103B000005712EF07F0C120007900261E0FFF46057
:103B1000029164227BFFFF122EA7900261E0FFC397
:103B200022940A74809480227194EF640122713689
:103B3000900394740122EF120A973B53003B6E03EB
:103B40003B58043B79083B63093B7E1D3B891E00C3
:103B5000003B9390E530800390F218E04480F054ED
:103B60007FF02290F219E04410F054EFF02290F22E
:103B700018E04408F054F7F02290E539800E90E503
:103B800032E04402F054FDF02290E532E04401F0CE
:103B900054FEF022E4FEEF120A973BB6003BD60338
:103BA0003BBB043BDF083BC4093BCD0A3BE41D3B68
:103BB000ED1E00003BF490E540800390F2EDE054F0
:103BC00080FE803090F2EEE05410FE802790F2EEFE
:103BD000E05404FE801E90F2EDE05408FE80159043
:103BE000E549800C90E542E05402FE800790E542F2
:103BF000E05401FEEE60027E01AF0622E0D3941095
:103C0000748094802290F1CCE06480700790F1CDB4
:103C100071FC40037F0022EFFD7C00125D1E40120C
:103C200090F1CEE06480700790F1CF71FC40037F8B
:103C30000022C3ED9404EC64809480402490F1D081
:103C4000E06480700790F1D171FC40037F00229006
:103C5000F1D2E06480700790F1D371FC40037F00E3
:103C6000227F0122900385E0FE6F6036900262EEB3
:103C7000F0900385EFF090038C7401F07BFF7A1FC6
:103C800079AA90029A126EA2900385E064107005E2
:103C90007F03120007900262E0641070057F041237
:103CA000000722C394047480948022E4780DF69077
:103CB000F436E0541F7810F690F426E018F690F4ED
:103CC00032E0540F7832F6E008F6E008F6E00478C7
:103CD0000DF67810E691A34025780DE671FD4002BF
:103CE000A1F9E408F6780EE6FFC31896501490F494
:103CF00032E0FE74352FF8A606780E0680E7E478E9
:103D00000DF6E4FFF1DA780FE67002A1CC24F07032
:103D100002A19D24D0602E24F0606224C06017248C
:103D2000106002A1EF780DE6FFB1FA7832E6640F79
:103D30006002A1EB8063780DE6FF125B46780DE62A
:103D4000FFD1E7A1F37834E6FD7C0064507017786A
:103D50000DE6640170257810E66405701EF11BE61F
:103D60006019F1098012ED64304C700F780DE66433
:103D70000170087835E660037825F6806EF11270E0
:103D80000B7810E664047004F1468067EB64524AD5
:103D900070327810E66404702B7F108054F112703A
:103DA0000B7810E664047004F1468010EB64504A0E
:103DB00070127810E66403700BFFD1E1E47856F6D8
:103DC00008F6802F780DE6FFF12980277834E66425
:103DD000507018780DE6640170117810E664057073
:103DE0000AF11BE66005F1097825F6E4FF8002E49C
:103DF000FFD1E1F1F5E4FF713622125F42FF640F5B
:103E00007002C1D590F103EF125F98125F4B5026FC
:103E1000EE601390F105E0F4700690F104E004F018
:103E200090F105E004F07812E62435F8E690F153BD
:103E3000F078120680D57832E6706608E664017084
:103E400060125C9F120A973E63003E6E013E79024B
:103E50003E84033E8F043E93053E97063E9B07003B
:103E6000003ED57811E6FF125FAAD1D660677811BF
:103E7000E6FF125FD7D1D6605C7811E6FF12599E3B
:103E8000D1D660517811E6FF125D67D1D66046D178
:103E9000D66042D1D6603ED1D6603A7811E6FFE1D5
:103EA000EF7832E6700808E664027002800E78321D
:103EB000E6FF7E00700A08E6642070047811F6229E
:103EC000EF4E70117833E66406700A08E670060853
:103ED000E6FF125FE22290037CE0FF781106E66FB6
:103EE0002290F433EFF022AE07900409E06006E47C
:103EF000F07F2080ECF13D7811E6FFC39E500974FD
:103F0000452FF8E6F1C180EF22785646F608E6F62E
:103F1000E4227834E6FB7A006450227835E6FF78B4
:103F200056760008A607782522F13B7811E6C39E55
:103F30005008E490F433F00680F122AE07E4FFD19C
:103F4000E1E47811F622780DE6FFF13B7811E6FF07
:103F5000C39E5018EF785726FDE41836FC74472DA1
:103F6000F58274003CF583E0F1C180E0AF0678573C
:103F7000EF26F618E436F622C0E0C0F0C083C08217
:103F8000C0D075D000C000C001C002C003C004C0D2
:103F900005C006C007E4FF7194EF600AE4FF7136C4
:103FA00091AB7F01F1DAD007D006D005D004D00361
:103FB000D002D001D000D0D0D082D083D0F0D0E0D9
:103FC0003290F433F07811062212732931780228E6
:103FD0009CE6D394017480948022EF640190A358EE
:103FE0007005E044B0F022E0540FF0227F002290F0
:103FF000037DEFF0227F01F1DAE490F434F0227BCC
:10400000017A02796C1238667A22791012853C7B2B
:10401000FF7A227921900273122EA07BFF7A2279F7
:1040200032900275122EA07B017A02797690F2E727
:10403000E0FE90F2E8122CC99000088FF0120829D7
:1040400090F2DFE090F2E011F79000048FF0120898
:104050002990F2E1E0FE90F2E211FA7192900004F0
:104060001207F13118900002718390F2DBE0FE90AC
:10407000F2DC11FA90000A8FF01208299000081261
:104080006E2590000A1207F1719B31149C90000676
:104090008FF012082990F2E9E0FE90F2EA122CC9A2
:1040A0009000128FF012082990F2E5E090F2E611EC
:1040B000F790000E8FF012082990F2E3E0FE90F2E4
:1040C000E411FA719290000E1207F1311890000C71
:1040D000718390F2DDE0FE90F2DE11FA9000148F11
:1040E000F0120829900012126D94719B31149C906B
:1040F00000108FF0020829547FFEE02400FFEC3E00
:104100002225E0246CF582E43402F583E0FEA3E08E
:10411000FF900266E0FCA3E0FDC3EF9DFFEE22905E
:10412000A130E0547FF04408F04404F054FC1268DD
:10413000F090A13EF090A1427480F0E490A13B1277
:104140005F2990E300E054FDF090E3017420F0E477
:1041500090A132F090A1387427F090A13974061222
:1041600068E890A143E04430F07480443090A1446A
:10417000F07420440190E301F090E3097403F071BE
:104180008A9002627402F0E4F0900262E0FB123C5A
:10419000A34002613B716DEB146011146017146051
:1041A0001D2403702090E30AE0F0801990E30AE0F8
:1041B0004440F0801090E30AE04480F0800790E3F0
:1041C0000AE044C0F09002617403F012577E60353B
:1041D00090E105E054FCF090A130E054BFF090E392
:1041E00000E054FE1227B190E105E04403F090A1F5
:1041F00030E04440F090E30012579B90E324E054F9
:1042000003640270C671A6E0440CF090E329E090CC
:10421000E32A122CC8900266F0A3EFF0E490026348
:10422000F071BD400241CD900262E014600E146056
:104230000F1460102403700E71B1800A91988006EB
:10424000918780029176E490026AF0A3F090026474
:10425000F0A3F0900265E0C3946474809480506988
:104260001227B2900265E004F090E326E0FE90E3AE
:1042700027122CC9FE900268F0A3EFF031119CFECA
:1042800012002EC3EF9480EE64809480501190024F
:1042900068E0FEA3E0A31286BE900264E004F09002
:1042A0000264E0640870AC90026A1237F6CEC31361
:1042B000CE13D8F9FF900263E025E0246CF582E488
:1042C0003402F583EEF0A3EFF0717C412174FF908E
:1042D0000276F0A3F0E4900263F071BD5050EF312C
:1042E000019CFE12002ED3900277E09F900276E0B0
:1042F0009E4037900262E01460131460141460153D
:1043000024037013900263E0FF71B1800A919880DA
:1043100006918780029176900263E031019CFE1243
:10432000002E900276EEF0A3EFF0717C80AC718AE3
:1043300090E309E054F3F0717521897A2379E490D0
:10434000E3121285A090E313E090029BF090E31437
:10435000E090029CF090E315E090029D126EA39015
:10436000A143E054CF125F2171A6740DF090E30ACF
:10437000E0543FF022900262E004F022900263E0F9
:1043800004F02295F08FF002082990E30BE054FE30
:10439000F022FE900292F0A3EFF022C39FFFE5F01F
:1043A0009EFE9002922290E30BE04401F090E3091C
:1043B0002290E31DE02F24FE90E312F0229002638E
:1043C000E0FFC39405748094802290026174FFF032
:1043D00090002CE0D3125D1F400A900028E070048A
:1043E0007F02914590002CE0D3127322400A900086
:1043F00029E070047F03914590002CE071C2403A9F
:1044000090E0B0E0FDE4FF1280DEEF701190003E1E
:10441000E064017025F0FF91EFE491A9801C900009
:104420003EE07016123B1A71C3500280027F059065
:104430000261EFF090003E7401F0900261E0FFF441
:104440006002914522900262EFF090002CE06F60D4
:1044500024900262E0640570057F0312300390002F
:104460002D7401F0900262E090002CF07BFF7A1234
:10447000799112301F22900263E0FF90E320E02F39
:1044800024FE90E315F022900263E0FF90E31FE02A
:104490002F24FE90E314F022900263E0FF90E31ECD
:1044A000E02F24FE90E313F022EF6401702B7F01D4
:1044B00091EF90003FE090F989700FE054DFF044F5
:1044C00010F07BFF7A19799D8020E04420F054EFB2
:1044D000F07BFF7A1979AA8011E4FF91EF90F989B6
:1044E000E054CFF07BFF7A1979B77F01023025EFD6
:1044F0006401700790F9BF74FFF022E490F9BFF0F7
:1045000022E4F0FF91A9E4FFEF64017B0170277DB5
:104510000C7F0FB140E490F31CF090F1A5E044C093
:10452000F090E6E47402F090E6E6E04403F054F321
:10453000F01D7F0FE1BAE4FD7F0F80047B017D0C4D
:10454000EF120A9745B10045BD0145C70245D103A9
:1045500045DB0445E50545EF0645F90746030846F2
:104560000D0946170A46210B462B0C46350D463FD2
:104570000E46490F465310465D11466712467113A9
:10458000467B1446881546971646A11746B118462D
:10459000C21946D41A46E71D46F31E47041F4709B1
:1045A00020471421472922472E234735240000475E
:1045B0004A90A374F1A2C43354E04FF02290A35C5C
:1045C000F17B90A364C1A990A372F14B90A374C135
:1045D000CA90A372F17B90A374C1DC90A371F14BDC
:1045E00090A373C1EF90A371F17B90A373C18390EB
:1045F000A370F14B90A373C19090A370F17B90A333
:1046000073E11C90A36FF14B90A373C1A990A36FAA
:10461000F17B90A373C1B990A36EF14B90A373C1CA
:10462000CA90A36EF17B90A373C1DC90A369F14B98
:1046300090A36AC1EF90A369F17B90A36A80449034
:10464000A368F14B90A36A804790A362F17B90A38B
:1046500064C1EF90A361F14B90A364802690A361A5
:10466000F17B90A364802990A360F14B90A364E157
:104670001C90A360F17B90A363807490A35FF14BC7
:1046800090A363E0FFEB807890A35FF17B90A3633E
:10469000E0FFEB25E0806990A35EF14B90A363807F
:1046A0007B90A35EF17B90A363E0FFEBC454F080AA
:1046B0007390A35DF14B90A363E0FFEBC43354E030
:1046C000806290A35DF17B90A363E0FFEBC4333382
:1046D00054C0805090A35CF14B90A363E0FFEBC407
:1046E0003333335480803D90A35AF14B90A35BE069
:1046F0004BF02290A359F14B90A35BE0FFEB25E038
:1047000025E0802090A2A2800390A2A3F1A2C4542D
:10471000F04FF02290A2C0F14B90A364E0FFEB3386
:10472000333354F8FEEF4EF02290A2BF800390A2E4
:10473000BEF1A2800D90A2BDE054F0F04DFFF0AEAE
:1047400003EEC433333354804FF022E054F0F04D85
:10475000F0221286034023127BC1EF6401701B908C
:104760000397E07B0160067D0CF187A140E4FDF139
:1047700087B140E4FF125335F1AB22E0540FFFF054
:10478000EDC454F04FF0227F03B1407F02B1407F6F
:1047900004B1407F05B1407F06B1407F07B1407F43
:1047A0000822E054F0F04DFFF0EB229003FC74017E
:1047B000F0227F0DB13CE4FD7F0DEF120A97482BEC
:1047C00000483001483502483A03483F0448440550
:1047D000484906484E07485308485809485D0A4862
:1047E000620B48670C486C0D48710E48760F487B89
:1047F00010488011488512488A13488F1448941530
:10480000489916489E1748A31848A81948AD1A4851
:10481000B21D48B71E48BC1F48C12048C62148CB1E
:104820002248D32348DA24000048E990E6A001D6C4
:1048300090E6E301D690E6E301CE90E6E201D69061
:10484000E6E201CE90E6E101D690E6E101CE90E607
:10485000E001D690E6E0807690E6DF807990E6DFB2
:10486000806C90E6DE806F90E6DE806290E6DD8010
:104870006590E6DD805890E6DC805B90E6DC804E5B
:1048800090E6DB805190E6DB804490E6DA8047904A
:10489000E6DA803A90E6D9803D90E6D9803090E61D
:1048A000D8803390E6D8802690E6D7802990E6D746
:1048B000801C90E6D6801F90E6D6801290E6D580C8
:1048C0001590E6D5800890E6D4800B90E6D4E0FF02
:1048D000ED800F90E6D3E04DF02290E6D3E0FFAEFE
:1048E00005EEC454F0FEEF4EF022E490039DF07A02
:1048F0002279439003A811FDE4FF022EA77BFF124B
:104900000A0D90029A020A25E4900261F0A3F07861
:10491000637C027D017BFF7A2279D0FE7F03120641
:104920009E90002CE06407600221AC128650A3E048
:10493000FF9003FDE06F6074E0A3F09003FDE024BE
:1049400001FFE433FEEFC4F8540FC868FFEEC4540F
:10495000F048900261F0A3EFF090026174FFF5F06F
:104960001207DB9002637451F051FCEC900264F08A
:10497000AF05A3EFF07A227957900264128080A3EA
:10498000EFB1B390F9B812557BF07F0131AD7B01E7
:104990007A0279637D037F3931C57F327E00122729
:1049A000B6E4FF31AD90F9B8E054FCF022EF6401B9
:1049B00090F9847005E04408F022E054F7F0229367
:1049C000FF7BFF7D02900266EDF0AC0790F9A0E05E
:1049D00054EFF0ECF58264296006E5826439702AB0
:1049E00090F99A74E0F0900266E0FF240690F9993D
:1049F000F090F998ECF0EFF0E4F0FF900266E0FE42
:104A0000EFC39E501512858880F174C012861B90EA
:104A1000F998EC12857A90F998F01227B2E490F99F
:104A20009AF090F9ABE054BFF022127DCF12866865
:104A3000902513E47A25791431BF902516E47A2560
:104A400079177D0551BB90251CE47A25791D7D03DE
:104A500051BB902520E47A25792151C8902523E483
:104A60007A25792451C8902526E47A25792751D0D2
:104A7000902529E47A25792A51D890252CE47A25A5
:104A8000792D51D890252FE493FF7BFF7A2579303B
:104A90007D0231C551C19024E7E47A2479E851D0F0
:104AA00051C19024E4E47A2479E531BF51C151E049
:104AB0007BFF7A2479D77F0102302593FF7BFF218A
:104AC000C57F967E000227B693FF7BFF7D0221C53E
:104AD00093FF7BFF7D0221C593FF7BFF7D0221C5F4
:104AE000511DE490F96DF090F96EF0222DFFEE3C2F
:104AF000FE900263E0FCA3E0FD12073E900261E03D
:104B0000FCA3E0FD22123FC9126E1190E0B1E0FB60
:104B10006432600280027B327121F1EC1247522133
:104B2000087D017F0A900261EFF0A3EDF0A3EBF0A6
:104B3000D3946474809480400B7BFF7A2579617FE5
:104B400001023025900263E0FF9003DDE06F700208
:104B500061D9900263E09003DDF07BFF7A257975DF
:104B600090028171ED900262E0FBE4FAF9F87F8037
:104B70007EBBFDFC12124D900264EEF0A3EFF090AC
:104B80000263E0FB64647009A3E0FFA3E0A3CF80AD
:104B9000119002641235E67D64120750EB1282A96F
:104BA000A3EEF0A3EFF07F0A12453CE4FD7F0A126A
:104BB00047BA900261E024F7601A14601224FE6084
:104BC0000924FE701471DA027C3A71DA027C8A716F
:104BD000DA027CB771DA127C6722900264E0FEA3ED
:104BE000E0FFA3E0FCA3E0FD22E090028BF07F0158
:104BF0000230257A0379C312855D7A0379C3B1A7A0
:104C00007A24795F9003C791FB9003C9914D90037B
:104C1000CD91D29003CB91EC9003CF91DF9003DB49
:104C200071E97A24799B9003D191F99003D3914D46
:104C30009003D791D29003D591EC9003D991DF9056
:104C400003DC71E91282B0700312839322E0FFA3A8
:104C5000E0900283CFF0A3EFF0227A027947128529
:104C60005D7A027947B1A77A13793E90024B91FBA6
:104C700090024D914D90025191D290024F91EC9043
:104C8000025391DF90025F71E97BFF7A137979908B
:104C9000025591FB900257914D90025B91D2900288
:104CA0005991EC90025D91DF90026071E97B017A8D
:104CB000027947126DA090025FE0FF1257B1900297
:104CC00060E0FF1256037005E054FEF022E044015C
:104CD000F022E0FFA3E0900285CFF0A3EFF022E006
:104CE000FFA3E0900289CFF0A3EFF022E0FFA3E062
:104CF000900287CFF0A3EFF0227BFFE0FFA3E090CC
:104D00000281CFF0A3EFF0227E007F137D007B01B4
:104D10007A0379B0120AEA9003B27408F09003B1F2
:104D2000F0E49003B6F09003B47404F0A314F09090
:104D300003B07408F0902175E493FEA3E493122C61
:104D4000CA9003BAF0A3EFF0902177B18A9003BC28
:104D5000F0A3EFF0902179B18A9003BE1286317AE8
:104D60002079999003B2E0900281F09003B5B1AF41
:104D70007BFF7A2079C09003BA91FB9003BC914DE0
:104D80009003BE91D2E4FF023025E493FEA3E493A6
:104D90002400FFEC3E2212805861F31283C7B10851
:104DA000B196F13E0236007B01122B607BFF22E0C0
:104DB000900282F0E4FF023025900035120A0D9037
:104DC0000265D10778031209AD1237917A1279B7CB
:104DD000900039120A0D900281D113900285D107FB
:104DE000900289120A25900031E090028DF0900027
:104DF00032E090028EF0900033E090028FB1B3D198
:104E00000A12797F02347B120A25900265020A0D8C
:104E1000900261120A25900261020A0D900261124D
:104E20000A31000000009003BCF1177940F1229094
:104E300003B8EEF0A3EFF09003BC1235E67D031249
:104E40000750AF05E490EF81F0EFC4333354C0F066
:104E50004410F9F09003B8E0FCA3E0FDEC4990EFBA
:104E600081F090EF82EDF09003B0E0FB9003BC1274
:104E700085B912073EE4FCFDD11078081209AD9007
:104E8000EF8EEFF0D116E490EF8FEFF0EB75F003BB
:104E9000A4FE240890EF8BF09003B7E0FFC3EE9FD1
:104EA00090EF8CF09003BEF11779C0F122D1107809
:104EB000081209AD90EF9AEFF0D11690EF9BEFF04A
:104EC000E47F06FEFDFC90026112531CF135900355
:104ED000BFE02406FF9003BEE03400FEE4FCFD12B8
:104EE0000863E47B06FAF9F81208FC90EF9CEBF0FB
:104EF00012852690E102E064E2701B9003BCE0B4EE
:104F0000020DA3E0B41C0890A37CE054FDF02290B5
:104F1000A37CE04402F022E0FCA3E0FDE41202E9FD
:104F2000E422FBFA7840120247121010020322E436
:104F3000FCFD120856A804A905AA06AB0722127A9E
:104F40009D1282041283E21283EA1282B71284D87D
:104F50007BFF7A21796B1284E5128460D11C90EF7B
:104F600098E04402F09003B2E0640190EF97700380
:104F7000F080037401F09003B1E0FF900262F090C2
:104F8000EFA77468F07E00EF64017008900261740E
:104F900080F08028EF64024E700890026174C0F0C7
:104FA000801AEF64044E700890026174E0F0800C87
:104FB000EF64084E700690026174F0F0128526E4EA
:104FC00090EFF8F090EF80F07F01FE1227B690EF9F
:104FD000F874FFF090EF80E0126775EF4EFF90EFEE
:104FE00080F0900261E04F90EF80F02212281C12B6
:104FF0005403EF6401704E9003FCE0704812540FAC
:105000009109EF24FD600814601B14602E80367A2D
:105010002279A791157F0311467F01124508124797
:10502000ABFF027AB07BFF7A2279BB7F0112302579
:105030007F041146E4FF12450880071238047F01FF
:1050400071351247AB22EF24FD600D14700221452B
:1050500024F9700221DD610990E084E04401F054FC
:10506000FB7112712290E085711178081209AD90E0
:10507000E086711190E087EFF0E4FF122BEB712CCA
:105080007F01122BEB90026EEEF0A3EFF07F051282
:105090002BEB900270EEF0A3EFF07F06122BEBAD3E
:1050A00007AC0690026C710A90E088F0EB90E08902
:1050B000F0900270710A90E08AF0EB90E08BF09033
:1050C000026E710A90E08CF0EB90E08DF0EC90E0D5
:1050D0008EF0EF90E08F123455712290E092EF1233
:1050E000345578081209AD90E093EF12345590E0F2
:1050F00094EFF0900032E090E0A0F090002FE024D8
:10510000F6601524FE60091460162402701A8018D7
:1051100090E0A17401F0801590E0A17402F0800D80
:1051200090E0A17403F08005E490E0A1F090039971
:10513000E090E095F090039BE090E096F07BFF7AA2
:1051400017791621D8E490E084F090E085F090E0A3
:1051500086F090E087F090E088F090E089F090E0B1
:105160008AF090E08BF090E08CF090E08DF090E091
:105170008EF090E08F718890E092F090E093F09044
:10518000E094F090E095F090E096F090E097F09049
:10519000E098F090E099F090E09AF090E09BF09029
:1051A000E09CF090E09DF090E09EF090E09FF09009
:1051B000E0A0F090E0A1F07180F090E0A4F090E029
:1051C000A5F090E0A6F090E0A7F090E0A8F090E0C5
:1051D000A9F07BFF7A17792E7F0102302590E084B9
:1051E000E04404F0E490E085F090F23CE090E0864A
:1051F000F090F23DE090E087F090F23EE090E088A1
:10520000F090F23FE090E089F090F240E090E08A88
:10521000F090F241E090E08BF090F242E090E08C70
:10522000F090F243E090E08DF090F244E090E08E58
:10523000F090F245E090E08FF090F246E090E09040
:10524000F090F247E090E091F090F248E090E09228
:10525000F090F249E090E093F090F24AE090E09410
:10526000F090F24BE090E095F090F24CE090E096F8
:10527000F090F24DE090E097F090F24EE090E098E0
:10528000F090F24FE090E099F090F250E090E09AC8
:10529000F090F251E090E09BF090F252E090E09CB0
:1052A000F090F253E090E09DF090F254E090E09E98
:1052B000F090F255E090E09FF090F256E090E0A080
:1052C000F090F257E090E0A1F090F258E090E0A268
:1052D000F090F259E090E0A3F090F25AE090E0A450
:1052E000F090F25BE090E0A5F090F25CE090E0A638
:1052F000F090F25DE090E0A7F090F25EE090E0A820
:10530000F090F25FE090E0A9F022E0FAA3E0FBEA7F
:1053100022EFF0E47F02FEFDFC900039120A190230
:10532000087178101209ADEF540FFF2290026CEE55
:10533000F0A3EFF022AE07127B0EAA07127BDCABC4
:1053400007127C05EE90E0846022D12AAE0390E043
:10535000A2EEF090E0A3EFF0E490E090F0AF0290C6
:10536000E091EFF07BFF7A177945800FE054FDF074
:10537000E4718071887BFF7A1779597F01023025AB
:1053800090E0A2F090E0A322F090E090F090E09105
:10539000F022E490026CF07D187F031237BC7F038B
:1053A00012364778011209C09003A4120A2590030F
:1053B0009BE024FE600B14600C2403700C7F0680BD
:1053C0000A7F0A80067F0C80027F08E4FCFDFE90C5
:1053D00003A4711C78031209AD9003A8D1226401C3
:1053E000702090026CE0701A9003A8120A0D7801E8
:1053F0001209C0E47B03FAF9F81208FC9003A81222
:105400000A2522900402E0FF22E4900402F0229098
:105410000401E0FF227BFF7F010230257F0112445F
:10542000EF127846900032E0FF12788F900032E061
:10543000FFF187900033E0FF1278BD7BFF7A13798C
:10544000B4900032E0900281F0900033E09002824C
:10545000124BEDB17490002AE0FF1278D390003D1A
:10546000E0FFB12790A37BE054FBF090002BE060BD
:105470000B90A37BE04404F07F01F1CF7F01127910
:105480002C90002EE0FF12790490002EE0FF12799C
:1054900014D10AD112D11AE4FF127A1FE491FC90C0
:1054A0000034E0FF12793E90002FE0FFB10A7A133A
:1054B00079CD9115900032E0FBFD7C009003C9E0AE
:1054C000FEA3E0FF120750AC06AD07E4FF127A31ED
:1054D00090024DF191FDAB057C00120750D3EB1209
:1054E0003FD340177C007D021207A5ED4C600C9065
:1054F000F9887421F090F9717413F022D1037005CA
:10550000E04408F022E054F7F022900261EFF0E46A
:10551000A3F07F0B7E257D2590F986E054C0F04FE7
:10552000F090F988EDF022900261EFF06401700DC7
:10553000B16C4401F07BFF7A1A795B80299002619B
:10554000E06402700DB16C4402F07BFF7A1A79843A
:105550008014900261E06403701190F997B17BF0C0
:105560007BFF7A1A79ADE4FF1230252290F997E09B
:1055700054FCF02290F9AA74AAF022E054FCF04402
:10558000032290A300E0547FF0FD90A302E04401C9
:10559000F0ED444090A300F090E2897420F0E49094
:1055A0000261F090E289E054BFF0FD90E109B17B27
:1055B000F0ED444090E289127315500890E293E0B8
:1055C000544060DF90A300E054BFF090E6E9E0446F
:1055D00060F090C74674BBF090C7477480F090E2CB
:1055E000A174BBF090E2A27480F090E69674BBF0D8
:1055F00090E6977480F090ED3874BBF090ED3974BC
:1056000080F022EF640190F9702290F96FE044106D
:10561000F02290F900E04404F02290F900E0440107
:10562000F022120A25900399E022E04402F054FB94
:10563000F02290F4097417F090F100E04440F090EB
:10564000F408D12A54F7F090F430E04401F090A32C
:1056500056E04420F090A357742CF090A35874BAED
:10566000F07F011260087F01123FDA90F1A8E05448
:10567000FEF022D132D1E5F1167F01F1BF12411FB8
:10568000D1CA126833D1B312696E126AFA126B80F2
:1056900090E10CE054EFF054DFF090E10DE054BFE6
:1056A000F054DFF090E10EE0547FF090C90AE0443E
:1056B00002F02290A37FE054F7F0F17690F1BB74F2
:1056C00059F090F1C4E04402F022F1A690A32374B3
:1056D00001F0E4F16E04F090A326F090E23D742016
:1056E000F04408F02290A108740BF090A10974FF17
:1056F000F090A10A74F0F090A10B748FF090A10CBF
:10570000747CF090A10D74A8F090A10EB17BF054C0
:10571000F3F04404F022E4900262F090A108E04427
:1057200008F0900261740AF0F17E601D90E200E0E2
:1057300054FE1227B190E200F19B90E207E054037F
:10574000640270E490026204F07BFF7A2379B490E3
:10575000E208122EA0900262E064017BFF70067ADC
:105760002379C980057A2379D7E4FF022EA790A375
:1057700024F090A3252290C7D7E054FEF022900297
:1057800061E0FF14F0EF2290F987E054F0F04FF061
:1057900022E0FEA3E0FF900032E022E04401F07F2F
:1057A000027E000227B690A320E054EFF054FCF0F4
:1057B00022D1037005E054FDF022E04402F022EF14
:1057C000640190A11F70047410F022740FF022EF96
:1057D00090F9A06005E04440F022E054BFF022E4DC
:1057E000FF7829E624FE601524FE601E2403702342
:1057F00090F1C9E05411641170197F012290F1C930
:10580000E054336433700C7F012290F1C9E0F470EE
:10581000027F012290037DEFF051C07009E0244522
:10582000F8E6782CF6227138500201AE782C760119
:1058300090F1F3E0700690F1F4E06041782CE644DA
:1058400007510D90F1F1E05401702B900408E070C5
:105850000F7826E6700A7F0131937D017F0311CF17
:10586000900408E0C3940674809480501BE004F018
:10587000A37401F08012E4900408F0800BE490041B
:1058800008F05102E6782CF67829B11D4020782CDA
:10589000E64410F690F1F5E0700690F1F6E060064F
:1058A000782C510A80085102E6782CF68000782C7A
:1058B0005100A6072211CF7D020F11CF7D0F0F11CE
:1058C000CF7D040F11CFE4FD0F11CF0F11CF0F903B
:1058D000F105EFF090F153EDF0227901900264E0D0
:1058E0007F0060027F01AE07900265E07F8060026A
:1058F0007FC0AC07900266E07F0060027F80AB074C
:10590000E4FF31937D1231F9641E70057D140F8020
:105910000790026AE0FD7F0111CF90026BE04CFD21
:105920007F0211CFEB4E0F3183AD010F11B57D8199
:105930000F11CFE4FD7F2111C97F6011C97D087F60
:105940008011CFE4FD7F9011CF7F0131937F0A1149
:10595000CF7F2231937D14E4FF31F9FD0F11CF90F9
:10596000026BE04CFD0F11CFAF06EB4F7F0331838D
:10597000AF01AD077F0711B57D810F11CF7D087F86
:105980001001CFFD11CF7D010F11CF1D0F11CF0DD4
:105990000F01CFE490F103F090F104EFF0227435A1
:1059A0002FF8E6540F782AF664017041792BE766E8
:1059B000601D122DC6E4FD7F0311CFE4FD7F0411AD
:1059C000CFE4FD7F0511CFE4FD7F0611CF510E7F9F
:1059D00001B13A78267601E47822F608F608F67FD7
:1059E00001F174E4FFF186782AE608F622782AE6C7
:1059F000FFB11E400308A6072211CF90026AE022E1
:105A0000E6FF90037DE02445F822E64470F678280E
:105A1000E6FF90037EEFF12190E10DF131FD90E181
:105A20000CE054F0F0ED54E190E10DF090C903E08A
:105A3000540FF16490037EF1397F2740027F379045
:105A4000A138EFF12990E10CE0440FF090E10DE076
:105A5000441EF090C903E044F0F0E490A144F02229
:105A600090037DEFF051C07009E02445F8E6782DF1
:105A7000F622713840437829E664047036782D7632
:105A80001190F1F7E0700690F1F8E06009782DE6EA
:105A90004407510D80065102E6782DF690F1F9E0A9
:105AA000700690F1FAE06006782D510A800B5102E1
:105AB000E68001E4782DF68000782D5100A60722BB
:105AC000782AE6FF7E006401227829E624FE60261B
:105AD00024FE60392403705F51C0700B782CE654AB
