:100000000210FF026286022FF22222027FF30237E1
:10001000F9222202814DE4FFFE1206C4600C0FEFAC
:1000200070010E09E970F20A80EF22028152EE306F
:10003000E707C3E49FFFE49EFE227BFFE4FF023D4F
:100040009D222202814E02038EE86480F8E933E8A3
:100050003360110460F0ED33EC337009E8FCE9FD26
:10006000EAFEEBFF220460DED3EB9FEA9EE99DE807
:10007000C2E78CF0C2F795F0400CE8CCF8E9CDF976
:10008000EACEFAEBCFFB12035985D0F05804700387
:1000900020D5B3E80470075002B2D502039892D578
:1000A000EC0460F7E4CCC0E0C398F8603B941860BF
:1000B00008400DD0E0FB020370E4FBFAC9FC802885
:1000C000E830E406E4C9FBE4CAFCE830E305E4C92F
:1000D000CACBFCE854076010F8C3E913F9EA13FA35
:1000E000EB13FBEC13FCD8F130F52FC3E49CFCEFD1
:1000F0009BFFEE9AFEED99FDD0E0FBEF4E4D4C706C
:100100001222DB03020395EC2CFCEF33FFEE33FEEF
:10011000ED33FDED30E7EB020370EF2BFFEE3AFE1F
:10012000ED39FDD0E0FB50130BBB0003020398ED4B
:1001300013FDEE13FEEF13FFEC13FC020370EC4D06
:100140006011E8497017ED33EC3304600DE4FCFFF7
:10015000FEFD22E933E8330470F802038E120359DE
:1001600058046009E4CC2481500628500902039801
:10017000284003020395C0E0EB4A7044B98006D0E2
:10018000E0FB020384EF4E701CBD8008EBFFEAFE2B
:10019000E9FD80EBE98DF0A4FEE5F0020227E9CD50
:1001A000F9EAFEEBFFEF89F0A4FCE5F0CE89F0A4BC
:1001B0002EFFE435F0CD89F0A42DFEE435F0806704
:1001C000EF4E7005BD80D780C3EF8BF0A4ACF0EE8E
:1001D0008BF0A42CFCE435F0F8EF8AF0A42CE5F0C9
:1001E00038FCE433CB8DF0A42CFCE5F03BF8EE8A30
:1001F000F0A42CFCE5F038F8E433CF89F0A42CFC13
:10020000E5F038CF3400CE89F0A42FFFE5F03EFEB4
:10021000E433C98DF0A42EFEE5F039CD8AF0A42F89
:10022000FFE5F03EFEE43DFD33D0E0FB50070BBBA5
:10023000000F020398EC2CFCEF33FFEE33FEED339E
:10024000FD020370020398EC5D046005E859047038
:100250000302038E120359580460F6EC4860F2EC76
:100260007004FDFEFF22C860DB2481C85009C398DA
:10027000600250060203959850CAF582E9294B4A5C
:100280007005AB8202038475F0007C1A7880C3EF9E
:100290009BEE9AED99400DC3EF9BFFEE9AFEED9910
:1002A000FDE842F0DC23ACF0D0E0FFD0E0FED0E08F
:1002B000FDAB8220E7101BEB60BAEC2CFCEF33FFA8
:1002C000EE33FEED33FD020370E803F830E705C0BE
:1002D000F075F000EF2FFFEE33FEED33FD40B83048
:1002E000E7C280AA75F020800E75F010800575F0C9
:1002F000087D007E007F003392D530D50312098E31
:10030000EC334010EF33FFEE33FEED33FDEC33FC06
:10031000D5F0ED22E5F0247EA2D513CC92E7CDCE28
:10032000FF22EDD2E7CD33EC3392D524814006E4B1
:10033000FFFEFDFC22FCE4CFCECDCC24E0501174B6
:10034000FF80EDC3CC13CCCD13CDCE13CECF13CFC6
:100350000470F030D5DE02098EE9D2E7C933E83304
:10036000F892D5EDD2E7CD33EC33FC5002B2D52272
:10037000EC30E7100FBF000C0EBE00080DBD0004EE
:100380000BEB6014A2D5EB13FCED92E7FD2274FF9A
:10039000FCFDFEFF22E480F8A2D574FF13FC7D80F3
:1003A000E480EF74F8CC6480CCC86480C8F5820423
:1003B000604FC3EB9FF5F0EA9E42F0E99D42F0E802
:1003C0009C45F0603C501DE5825FFFE582D313CB76
:1003D0005BCBF42B5582FB50280ABA002409B900E4
:1003E0002008801DE5825BFBE582D313CF5FCFF44D
:1003F000C3132F5582FF50090EBE00050DBD00012D
:100400000CC3EB9FF5F0EA9E42F0E99D42F0E89CB8
:1004100045F06007CC4820E701B3EC22F920E7362D
:1004200024F950037907E4F42402FBE58215827075
:10043000021583DBF6E024FB501BE96014E4F0E5D1
:1004400082158270021583E004F0B40A08E4F0D942
:10045000EE7401F00A22C2D522ED33EC3392D5FAC4
:10046000602AB4FF33EDC2E77BFF60067A04797E31
:10047000E4227A04798720D5047A047982224E61B5
:100480004E002B494E46002D494E4600E47A08F0B6
:10049000A3DAFC7B00740722C083C082ECC0E0EDCD
:1004A000C0E0EEC0E0EFC0E0EA75F010A4CAABF027
:1004B00075F04DA42BFBE435F0FCEA2410FAEB3484
:1004C000C5FBEC34D9FCEDC2E7FF75F056A4F4246B
:1004D00011C5F0F434C58FF0A42AE5F03BE43CF0FC
:1004E00020E71412058ED0E0FFD0E0FED0E0FDD072
:1004F000E0FC1202478014F40412058ED0E0FFD015
:10050000E0FED0E0FDD0E0FC12013ED082D083E0DE
:10051000FAEDD2E7CD33EC332482FBE4C3CF33CF03
:10052000CE33CECD33CD33DBF37B0775F00A846059
:1005300004F0A31B0AE5F0F0A38FF0740AA4FFAC4B
:10054000F08EF0740AA42CFEACF050010C8DF07407
:100550000AA42CFDE435F0F0A3DBDE7407223F8013
:1005600000004120000042C80000447A0000461C00
:10057000400047C35000497424004B1896804CBE7D
:10058000BC205A0E1BCA6753C21C749DC5AEFB60CB
:10059000065407601C23231205BCEB543860091273
:1005A00005A81205B712013EECF8EDF9EEFAEFCB13
:1005B00022EB1205B780F1543803241C90055EFE2F
:1005C00093FC0EEE93FD0EEE930ECE93FF22E70901
:1005D000F608DFFA8046E709F208DFFA803E8882F3
:1005E0008C83E709F0A3DFFA8032E309F608DFFA2B
:1005F0008078E309F208DFFA807088828C83E3094F
:10060000F0A3DFFA806489828A83E0A3F608DFFA28
:10061000805889828A83E0A3F208DFFA804C80D276
:1006200080FA80C680D4806980F28033801080A6F2
:1006300080EA809A80A880DA80E280CA803389824A
:100640008A83ECFAE493A3C8C582C8CCC583CCF0F6
:10065000A3C8C582C8CCC583CCDFE9DEE7800D899D
:10066000828A83E493A3F608DFF9ECFAA9F0EDFBA4
:100670002289828A83ECFAE0A3C8C582C8CCC583EC
:10068000CCF0A3C8C582C8CCC583CCDFEADEE88045
:10069000DB89828A83E493A3F208DFF980CC88F0B7
:1006A000EF60010E4E60C388F0ED2402B4040050E8
:1006B000B9F582EB2402B4040050AF232345822312
:1006C00090061E73BB010689828A83E0225002E7EE
:1006D00022BBFE02E32289828A83E49322BB010CBF
:1006E000E58229F582E5833AF583E0225006E92583
:1006F00082F8E622BBFE06E92582F8E222E582299D
:10070000F582E5833AF583E49322BB010689828A68
:1007100083F0225002F722BBFE01F322F8BB010D49
:10072000E58229F582E5833AF583E8F0225006E96F
:100730002582C8F622BBFE05E92582C8F222EF8D8C
:10074000F0A4A8F0CF8CF0A428CE8DF0A42EFE2229
:10075000BC000BBE0029EF8DF084FFADF022E4CC8D
:10076000F875F008EF2FFFEE33FEEC33FCEE9DEC56
:10077000984005FCEE9DFE0FD5F0E9E4CEFD22ED9C
:10078000F8F5F0EE8420D21CFEADF075F008EF2FE6
:10079000FFED33FD4007985006D5F0F222C398FDD7
:1007A0000FD5F0EA22C2D5EC30E709B2D5E4C39DFB
:1007B000FDE49CFCEE30E715B2D5E4C39FFFE49E58
:1007C000FE120750C3E49DFDE49CFC800312075019
:1007D00030D507C3E49FFFE49EFE22C5F0F8A3E0F6
:1007E00028F0C5F0F8E582158270021583E038F034
:1007F00022BB0110E58229F582E5833AF583E0F515
:10080000F0A3E0225009E92582F886F008E622BB31
:10081000FE0AE92582F8E2F5F008E222E5832AF5EE
:1008200083E993F5F0A3E99322F8BB0111E582294E
:10083000F582E5833AF583E8F0E5F0A3F02250096C
:10084000E92582C8F608A6F022BBFE09E92582C880
:10085000F2E5F008F222EF2BFFEE3AFEED39FDEC67
:1008600038FC22C3EF9BFFEE9AFEED99FDEC98FC5D
:1008700022E88FF0A4CC8BF0A42CFCE98EF0A42C01
:10088000FC8AF0EDA42CFCEA8EF0A4CDA8F08BF04D
:10089000A42DCC3825F0FDE98FF0A42CCD35F0FC4B
:1008A000EB8EF0A4FEA9F0EB8FF0A4CFC5F02ECD17
:1008B00039FEE43CFCEAA42DCE35F0FDE43CFC22FC
:1008C00075F008758200EF2FFFEE33FECD33CDCCEF
:1008D00033CCC58233C5829BED9AEC99E582984072
:1008E0000CF582EE9BFEED9AFDEC99FC0FD5F0D64F
:1008F000E4CEFBE4CDFAE4CCF9A88222B800C1B979
:100900000059BA002DEC8BF084CFCECDFCE5F0CBB6
:10091000F97818EF2FFFEE33FEED33FDEC33FCEBEF
:1009200033FB10D703994004EB99FB0FD8E5E4F9AA
:10093000FA227818EF2FFFEE33FEED33FDEC33FC97
:10094000C933C910D7059BE99A4007EC9BFCE99A8B
:10095000F90FD8E0E4C9FAE4CCFB2275F010EF2FD0
:10096000FFEE33FEED33FDCC33CCC833C810D707D0
:100970009BEC9AE899400AED9BFDEC9AFCE899F80B
:100980000FD5F0DAE4CDFBE4CCFAE4C8F922C3E4F5
:100990009FFFE49EFEE49DFDE49CFC22EB9FF5F0AE
:1009A000EA9E42F0E99D42F0E89C45F022E8600FA3
:1009B000ECC313FCED13FDEE13FEEF13FFD8F12291
:1009C000E8600FEFC333FFEE33FEED33FDEC33FC95
:1009D000D8F122BB010789828A83020A0D5005E9FA
:1009E000F8020B16BBFE05E9F8020B2289828A8306
:1009F000020B2EBB010789828A83020A255005E972
:100A0000F8020B3EBBFE05E9F8020B4A22E0FCA30C
:100A1000E0FDA3E0FEA3E0FF22E0F8A3E0F9A3E0FD
:100A2000FAA3E0FB22ECF0A3EDF0A3EEF0A3EFF0CD
:100A300022A8828583F0D083D082120A48120A4805
:100A4000120A48120A48E473E493A3C583C5F0C5AB
:100A500083C8C582C8F0A3C583C5F0C583C8C58255
:100A6000C822E0FBA3E0FAA3E0F922F8E0FBA3A38D
:100A7000E0F925F0F0E582158270021583E0FA387E
:100A8000F022EBF0A3EAF0A3E9F022E493FB740177
:100A900093FA740293F922D083D082F8E49370120F
:100AA000740193700DA3A393F8740193F582888366
:100AB000E4737402936860EFA3A3A380DFEC8EF06D
:100AC000A4CCC5F0CCCDF8EFA4CEC5F02DFDE43C10
:100AD000FCE8A42EC8C5F03DFDE43CFCEFA4FFE516
:100AE000F028FEE43DFDE43CFC22EF4E6012EF6096
:100AF000010EEDBB010B89828A83F0A3DFFCDEFAD5
:100B00002289F05007F709DFFCA9F022BBFEFCF3B5
:100B100009DFFCA9F022E6FC08E6FD08E6FE08E68F
:100B2000FF22E2FC08E2FD08E2FE08E2FF22E49375
:100B3000FC740193FD740293FE740393FF22ECF6A0
:100B400008EDF608EEF608EFF622ECF208EDF208F2
:100B5000EEF208EFF222E508244FF582E43403F5C3
:100B600083E005082290034C30070390034FE4759F
:100B7000F001120A6B0206C42000E97F2ED2008029
:100B800018EF540F2490D43440D4FF30040BEF24DA
:100B9000BFB41A0050032461FFE50960021509057E
:100BA0000CE50C7002050B30070E90034CE475F059
:100BB00001120A6BEF02070A020FD97403D20780F1
:100BC00003E4C207F50890034C120A82E4F509F524
:100BD0000BF50CE50960077F20120B9980F5750A6B
:100BE000FFC201C200C202C203C205C206C208128D
:100BF0000B65FF700D3007057F00120BAAAF0CAE1E
:100C00000B22B4255FC2D5C204120B65FF24D0B4F9
:100C10000A00501A75F00A780930D50508B6FF01A8
:100C200006C6A426F620D5047002D20380D924CFAC
:100C3000B41A00EF5004C2E5D204020E9CD2018027
:100C4000C6D20080C0D20280BCD2D580BAD2058084
:100C5000B47F20120B992002077401B5090040F1FE
:100C6000120B56FF120B99020BD3D208D2068095B5
:100C7000120B56FB120B56FA120B56F94A4B700622
:100C8000799A7A0F7BFF20022EE509602A7E008E7A
:100C9000827583001206DD60060EEE650A70F0C2F2
:100CA000D5EBC0E0EAC0E0E9C0E0EE120EFDD0E016
:100CB000F9D0E0FAD0E0FB1206C4FF60AAEBC0E076
:100CC000EAC0E0E9C0E0120B99D0E02401F9D0E0DD
:100CD0003400FAD0E0FBE50A0460DCD50AD980874D
:100CE000D20280A2120EDF60F7E50A70010412043E
:100CF0001CA90A600DE50A600914F50A120F87EFB6
:100D000060F3EA30E702F404C3995079EAF4250A63
:100D10000430E701E404F50A800D120EDF60C1EA39
:100D2000050A250A12041CEA90037BF030E701E46F
:100D3000250A04D50A0420050114120EFDE4C0E0C2
:100D4000120F8790037BE0601320E70714F0120B6B
:100D500081802204F0D0E014C0E07F00120B81E516
:100D60000A6007120B78150A800B300503120B7806
:100D7000D0E0020BD3D0E00480C4120EDF609EE509
:100D80000A0412041C90037BEAF0E50A20050260C5
:100D900001042404120EFD74FF04C0E0120F871238
:100DA0000B81E50A2005026003120B78D0E0B50A3A
:100DB000E87F45120B8B90037BE07F2B30E7047FAD
:100DC0002DF404C0E0120B99D0E075F00A84C0F055
:100DD000120B82D0E0120B82020BD37910800279C1
:100DE00008C206C2088008D2D5790A8004790AC2EE
:100DF000D5E50A047002F50AE4FAFDFEFF120B566F
:100E0000FC7B08200113120B56FD7B1030000A12E8
:100E10000B56FE120B56FF7B20EC3382D592D55039
:100E200013C3E43000069FFFE49EFEE42001039D0F
:100E3000FDE49CFCE4CBF8C201EC700CCFCECDCC31
:100E4000E824F8F870F38017C3EF33FFEE33FEEDBC
:100E500033FDEC33FCEB33FB994002FB0FD8E9EB9D
:100E6000300105F8D0E0C448B201C0E00AEC4D4EB4
:100E70004F78207B0070C2EAB50A0040BCC0E01287
:100E80000EFFD0F0D0E0200104C4C0E0C4B201C025
:100E9000F0120B82D0F0D5F0EB020BD3120A970CB4
:100EA00070530DDB580C414C0C3D420DDF4F0DE7EC
:100EB000440DE7490C56430DED550D1A460D7A4584
:100EC0000CE4470FBA500C452D0C492E0C6C2B0C22
:100ED0004D230C6A200FA32A0C054800000C64E582
:100EE0000AB4FF03750A06120B56FC120B56FD12CC
:100EF0000B56FE120B56FF900374020459790AA296
:100F0000D5200314300509B910020404B9080104FE
:100F1000A2D52006025001042002689202B5090001
:100F20005034C0E07F203003197F30A20272067275
:100F300005500F120F56C202C206C205C2087F300A
:100F4000800F300503E9C0E0120B99300503D0E0B3
:100F5000F9D0E0B509CC3005177F30B9100C120B71
:100F6000997F583004077F788003B90803120B99E2
:100F70003002057F2D020B997F202008F87F2B205F
:100F800006F322920280CF7F00B40700500B247436
:100F9000F582E43403F583E0FF22286E756C6C293A
:100FA00000D201120B563001F8C201780930D50188
:100FB00008F6020C052D50434958120B562403B471
:100FC00005004001E4900FB593120B8A743A120B9E
:100FD0008AD203750904020DDBEFB40A07740D12FF
:100FE0000FE4740A309811A899B8130CC29830987D
:100FF000FDA899C298B811F63099FDC299F59922C9
:1010000025101701FFFFFFFFFFFFFFFFFFFFFFFF9F
:10101000900265120A2574FFFFFEFDFC900265E058
:10102000F8A3E0F9A3E0FAA3E0FBC312099C60383F
:101030007F807E967D187C4B900265E0F8A3E0F9F6
:10104000A3E0FAA3E0FB1203A36002501B7F807EA3
:10105000967D187CCB900265E0F8A3E0F9A3E0FA56
:10106000A3E0FB1203A3500F900265E0FCA3E0FD98
:10107000A3E0FEA3E0FF22900265E0FCA3E0FDA355
:10108000E0FEA3E0FF120322900269120A259002FB
:1010900069E0FCA3E0FDA3E0FEA3E0FFEC1202E4A4
:1010A000C8ECC8C9EDC9CAEECACBEFCB900265E067
:1010B000FCA3E0FDA3E0FEA3E0FF120049E4FBFA7D
:1010C000F9F81203A35025900269E0FCA3E0FDA308
:1010D000E0FEA3E0FFE4FAF9F8EF2401FFEA3EFEA8
:1010E000E93DFDE83CFC900269120A25900269E0A6
:1010F000FCA3E0FDA3E0FEA3E0FFEC1202E42278F3
:101100007FE4F6D8FD758166021146022618E49345
:10111000A3F8E493A34003F68001F208DFF48029EA
:10112000E493A3F85407240CC8C333C4540F4420D9
:10113000C8834004F456800146F6DFE4800B0102C8
:1011400004081020408090118BE47E019360BCA3C2
:10115000FF543F30E509541FFEE493A360010ECF16
:1011600054C025E060A840B8E493A3FAE493A3F840
:10117000E493A3C8C582C8CAC583CAF0A3C8C58200
:10118000C8CAC583CADFE9DEE780BE4103FC00446C
:1011900003F8000000004104090041040800410474
:1011A00007004103FF0041040A0041037F0044039C
:1011B0008000000000602800000010000E000112F6
:1011C000101E000218213E00031E410D00041001F4
:1011D0002C000518240C000618231C000718203DBD
:1011E000004103DD005A03DE00093D7311B810E031
:1011F000006C002A004208B10870003900040004A5
:10120000010100900346E0FFA3E0FEA3E0CF9003BE
:101210004FF0A3EEF0A3EFF0900349E0CBF0A3E092
:10122000CAF0A3E0C9F07F22900352AD82AC8312D2
:1012300006C48D828C83F0A309E970010ADFEC906B
:101240000349E0FBA3E0FAA3E0F9020BBBC2D5E837
:1012500030E70FB2D5E4C39BFBE49AFAE499F9E4D2
:1012600098F8EC30E717B2D51212831208FCE4C3E9
:101270009BFBE49AFAE499F9E498F880031208FCDD
:1012800030D50DE4C39FFFE49EFEE49DFDE49CFC8D
:101290002254785374617465203D203078253032B3
:1012A000627800525820536574204576656E743A12
:1012B000253032627820004D697069496E436C6B4D
:1012C0003A256C642C2063616C6320756C427974E0
:1012D00065636C6B3A256C642C20756C506879439F
:1012E0006C6B3A256C642C2075634270703A2562F1
:1012F000642C2075635478506F72744E756D3A305B
:101300007825303262782C20756354784C616E6594
:101310004E756D3A307825303262780042757273BE
:1013200074204D6F6465206C616E65207261746518
:1013300020696E6372656173652038304D005258C4
:101340005B485D3A2048746F74616C3A25642C48A0
:101350006163746976653A25642C4873773A25642D
:101360002C4866703A25642C4862703A25642C48F3
:1013700073706F6C3A2562640052585B565D3A2078
:1013800056746F74616C3A25642C56616374697687
:10139000653A25642C5673773A25642C5666703A64
:1013A00025642C5662703A25642C5673706F6C3A23
:1013B00025626400506F72743A2025303262782CB6
:1013C000204C616E653A20253032627800445343E8
:1013D00020736F667420776F7264636E743B007263
:1013E0006462797465636C6B3A25642C2072647056
:1013F0006978636C6B3A256420006873773A2564DA
:101400002C206862703A256420686163746976658F
:101410003A2564007563427070203078253032625E
:10142000783B00726561642064656C61793A256C73
:10143000750041645F6C6D74785F77726974655F85
:10144000636C6B203D20256C756B687A0041645F8E
:101450006C6D74785F726561645F636C6B203D20B6
:10146000256C756B687A0000FFFFFFFFFFFF000629
:10147000B3A02801010101041F0103803E2278EE80
:101480006995AD5246A1270F5054BFCF00814081CE
:10149000809500714F81C0B300D1C0010108E80000
:1014A00030F2705A80B0588A0055502100001E005A
:1014B0000000FD0018901EFF8A000A202020202036
:1014C00020000000FC005647323855514C31410A8B
:1014D000202020000000FF00313233343536373809
:1014E000393032380A01F002035AF15004131F1048
:1014F0000F1E015D5E5F60617603123F23090707DF
:1015000083010000E200EA6D030C001000383C2863
:1015100000600102036DD85DC401788853123078F1
:1015200083341D6D1A000002013090F000000000AD
:1015300000E305C000E421001C00E6060501606030
:1015400012366C80A070703E803020080C6D5521E2
:1015500000001A6FC200A0A0A05550302035006DC9
:10156000552100001A0027000000000000000000C4
:10157000000000000000000000000000000000006B
:10158000000000000000000000000000000000005B
:10159000000000000000000000000000000000004B
:1015A000000000000000000000000000000000003B
:1015B000000000000000000000000000000000002B
:1015C000000000000000000000000000000000001B
:1015D000000000000000000000000000000000000B
:1015E00000000000000000000000000000000000FB
:1015F00000000000000000000000000000000000EB
:1016000000000000000000000000000000000000DA
:1016100000000000000000000000000000000000CA
:1016200000000000000000000000000000000000BA
:1016300000000000000000000000000000000000AA
:10164000000000000000000000000000000000009A
:10165000000000000000000000000000000000008A
:10166000000000000000000A5468697320666D20C5
:101670007278706C6C5F696E5F636C6B000A5468A3
:10168000697320666D20646874785F6469765F6C46
:10169000696E6B5F636C6B000A5741524E494E474F
:1016A0003A2046726571206D6574657220676574B5
:1016B000206661696C005761726E696E673A2069D5
:1016C0006E70757420697320696E76616C69640050
:1016D0000A6C6F6164206B657920646F6E655B30A6
:1016E0007825303262785D000A5061747465726EDC
:1016F000207063722062616E64203D203078253056
:10170000326278000A5061747465726E2070637280
:10171000206C6F636B004D495049566964496E6691
:101720006F557064617465212121212121004D498B
:101730005049566964496E666F436C656172212138
:101740002121212100417564496E666F55706461E5
:10175000746521212121212100417564496E666F44
:10176000436C656172212121000A466C6173682017
:1017700045444944204C6F6164000A466C617368BB
:101780002045444944206E6F742065787369743A2B
:101790000054784576656E742D2562640000000063
:1017A0000000000000000000000000000000000039
:1017B0000000000000000000000000000000000029
:1017C0000000000000000000000000000000000019
:1017D0000000000000000000000000000000000009
:1017E00000000000000000000000000000000000F9
:1017F00000000000000000000000000000000000E9
:1018000000000000000000000000000000000000D8
:1018100000000000000000000000000000000000C8
:1018200000000000000000000000000000000000B8
:1018300000000000000000000000000000000000A8
:101840000000000000000000000000000000000098
:101850000000000000000000000000000000000088
:101860000000000000000000000000000000000078
:101870000000000000000000000000000000000068
:101880000000000000000000000000000000000058
:101890000000000000000000000000000000000048
:1018A0000000000000000000000000000000000038
:1018B0000000000000000000000000000000000028
:1018C0000000000000000000000000000000000018
:1018D0000000000000000000000000000000000008
:1018E00000000000000000000000000000000000F8
:1018F00000000000000000000000000000000000E8
:1019000000000000000000000000000000000000D7
:1019100000000000000000000000000000000000C7
:1019200000000000000000000000000000000000B7
:1019300000000000000000000000000000000000A7
:101940000000000000000000000000000000000097
:101950000000000000000000000000000000000087
:101960000000000000000000000000000000000077
:101970000000000000000000000000000000000067
:101980000000000000000000000000000000000057
:10199000000000000000000000000000004D697021
:1019A0006920445349204F7574004D697069204384
:1019B0005349204F7574004D697069204F7574202C
:1019C00044697361626C6500506F727420307E33BD
:1019D0002052702043616C6920526573756C743AB3
:1019E0002025303262782C2025303262782C202558
:1019F000303262782C20253032627800506F727459
:101A000020307E332052642043616C69205265731C
:101A1000756C743A2025303262782C202530326281
:101A2000782C2025303262782C20253032627800E4
:101A30004450687920436C6B206275727374204D3A
:101A40006F6465004450687920436C6B20636F6E4F
:101A500074696E7565204D6F646500445349207646
:101A60006964656F204E4F4E5F42555253545F4D2F
:101A70004F44455F574954485F53594E435F45565D
:101A8000454E540044534920766964656F204E4F9B
:101A90004E5F42555253545F4D4F44455F57495432
:101AA000485F53594E435F50554C5345004453498A
:101AB00020766964656F2042555253545F4D4F4400
:101AC00045004D49504954585F33445F4D4F44459C
:101AD0003A204D4950495F4C4546545F524947486A
:101AE000545F4D4F4445004D49504954585F33446D
:101AF0005F4D4F44453A204D4950495F4E4F5F334B
:101B0000445F4D4F44450076636F204461746152D9
:101B10006174653A20256C752C20256C7500506F1A
:101B2000737420646976203D2032004132303720C2
:101B300052475F4C4D5458504C4C5F52414E4745B4
:101B40005F53454C203A203078253032627800418E
:101B5000323041204C4D5458504C4C5F4449565FF4
:101B6000534554203A2030782530326278004C4D6D
:101B70005458504C4C2063616C69206661696C005C
:101B80004C4D5458504C4C206C6F636B20666C610C
:101B9000673A3078253032627820004C4D545850E6
:101BA0004C4C20756E6C6F636B004C4D5458504C10
:101BB0004C2063616C6962726174696F6E2062614E
:101BC0006E646F75743A2030782530326278203038
:101BD000782530326278004279746520636C6B3A04
:101BE00025754D687A00636B5F706F7374202830C1
:101BF000784639413929203D2030782530326278C5
:101C000000636B5F7A65726F202830784639413700
:101C100029203D20307825303262780068735F6C6F
:101C2000707820202830784639413429203D2030F2
:101C30007825303262780068735F70726570202892
:101C400030784639413529203D20307825303262C0
:101C5000780068735F747261696C28307846394126
:101C60003629203D20307825303262780068735F55
:101C700072717374202830784639384129203D200C
:101C8000307825303262780000000000000000004B
:101C90000A547261696E696E6720657120696E66AB
:101CA0006F3A000A4C302076616C69645B307825AD
:101CB0003034785D2C45515B307825303262785D68
:101CC000000A4C312076616C69645B3078253034D1
:101CD000785D2C45515B307825303262785D000AA2
:101CE0004C322076616C69645B3078253034785DE5
:101CF0002C45515B307825303262785D000A4C33D8
:101D00002076616C69645B3078253034785D2C45D1
:101D1000515B307825303262785D000A4551486960
:101D200067203D2030782530326278000A45514CDA
:101D30006F77203D2030782530326278000A534397
:101D4000414E205354524154000A46454353544196
:101D50005445203D2030782530326278000A4C61AD
:101D60006E65457272203D203078253034782C30F5
:101D700078253034782C3078253034782C3078251C
:101D8000303478000A5363616E5F45514C4F5720E1
:101D90003D20307825303262782C30782530326220
:101DA000782C307825303262782C307825303262C9
:101DB00078000A5363616E5F4551484947203D20D2
:101DC000307825303262782C307825303262782CA9
:101DD000307825303262782C3078253032627800C5
:101DE0000A414344525F4953535545000A56616CBA
:101DF00069644571203D20307825303262782C307E
:101E00007825303262782C307825303262782C3068
:101E1000782530326278000A536B6577203D203098
:101E20007825303262782C307825303262782C3048
:101E30007825303262782C30782530326278000094
:101E4000000102030405060708090A0B0C0D0E0F1A
:101E50000F0F0F0F0F0F0F0F0F0F0F0F0F0F0F0F92
:101E60000000000000000000000000000000000072
:101E7000000102030405060708090A0B0C0D0E0FEA
:101E80000FFFFFFFFFFFFFFFFFFFFFFFFF0000004F
:101E90000001010101000000000A436F6C6F7269CC
:101EA0006D65747279206368616E6765203D2030CE
:101EB000782530326278000A44705278494E464F95
:101EC0003A000A486270202020203A20252D3864EC
:101ED0002020566270202020203A20252D386400D2
:101EE0000A486670202020203A20252D38642020C2
:101EF000566670202020203A20252D3864000A489C
:101F000073796E6320203A20252D38642020567383
:101F1000796E6320203A20252D3864000A486163D9
:101F2000742020203A20252D3864202056616374C7
:101F30002020203A20252D3864000A48746F6C2038
:101F400020203A20252D3864202056746F6C2020E4
:101F5000203A20252D3864000A44657074682020DA
:101F60003A20252D3862642020537061636520205B
:101F70003A20252D386264000A506978436C6B2042
:101F80003A20252D386C6420205065616B436C6BC2
:101F90003A20252D386C64000A52656672657368B4
:101FA00052617465203D202564000A5278537461A3
:101FB0007465203D20256264000A447052782055E3
:101FC0006E706C7567000A527820506C7567000A55
:101FD0005761697420454343000A45636320657275
:101FE00072000A52782072652D747261696E696E92
:101FF00067000A534B657720556E6C6F636B000A60
:10200000436F6C6F72207370616365206368616EEB
:102010006765000A4D7361206368616E6765000A39
:102020004453432043484E47000A476F746F205083
:102030004352000A417564696F20636867000A4172
:1020400043445220556E6C6F636B000A52415445F5
:102050005F4C414E45203D20307825303262782C4F
:1020600030782530326278000A44652D736B6577CD
:1020700020657272000A5761697420706372207360
:102080007461626C652E2E2E000A50435220484126
:10209000524420524553455400447363456E6320B7
:1020A000536C696365203D202562642C436F6D701D
:1020B00072657373526174696F203D2025626400FC
:1020C000447363456E6320536C6963654865696753
:1020D0006874203D2025642C536C696365576964DE
:1020E0007468203D2025642C4368756E6B53697AB3
:1020F00065203D2025640041645F63736374785FED
:1021000068616C665F7069785F636C6B203D202549
:102110006C756B687A0041645F64736374785F64A4
:1021200073635F72645F636C6B203D20256C756B1D
:10213000687A0041645F64736374785F6473635F9B
:10214000636C6B203D20256C756B687A0041645F81
:1021500064736374785F6473635F6F75745F636CDB
:102160006B203D20256C756B687A0011000089306A
:1021700080087008700010021C021C0200020E0091
:102180002001840007000C0667065C180010F003AD
:102190000C2000060B0B330E1C2A38465462697063
:1021A00077797B7D7E01020100094009BE19FC1987
:1021B000FA19F81A381A781AB62AF62B342B743B07
:1021C000746BF400000000000011000089308008EA
:1021D0007008700010021C021C0352020E00200046
:1021E000000007000C0667065C18000A4750494FBC
:1021F0002054726967676572204C6F77000A4750F8
:10220000494F2054726967676572204869676800A2
:102210000A44702052782076696420696E666F3AAD
:10222000000A436F6C6F7253706163655B25626473
:102230005D000A436F6C6F7244657074685B256261
:10224000645D000A52785F5065616B5F636C6B2060
:102250003D2020256C640075636142726967687473
:102260006E6573735B315D3A307825303262782C5D
:10227000207563614272696768746E6573735B325F
:102280005D3A3078253032627800445052585F53BE
:1022900054415449435F4844525F4E4F5449465954
:1022A0005F4556454E540054585F564944454F5F6C
:1022B0004F4E5F4556454E545F3300445052585F71
:1022C000564944454F5F4F46465F4556454E54007C
:1022D0000000004D6970692044435320454E44007E
:1022E0000511000529000510000528001536C61542
:1022F000B00039B9132A026439EC05D815D6001597
:10230000B00315350015364015260115030129BC0B
:10231000110000893080043804380010021C021CAF
:102320000200020E002001840007000C0667065C14
:10233000180010F0030C2000060B0B330E1C2A387B
:10234000465462697077797B7D7E01020100094005
:1023500009BE19FC19FA19F81A381A781AB62AF6A9
:102360002B342B743B746BF4000000000000110050
:1023700000893080087008700010021C021C035293
:10238000020E002000000007000C0667065C180023
:10239000444542554700494E464F005741524E0072
:1023A0004552524F520043524954000A5B252D3585
:1023B000735D2025730003FF2390FF2396FF239B6B
:1023C000FF23A0FF23A60000000000000000000083
:1023D00000000000000000000000000000000000FD
:1023E00000000000000000000000000000000000ED
:1023F00000000000000000000000000000000000DD
:1024000000000000000000000000000000000000CC
:1024100000000000000000000000000000000000BC
:1024200000000000000000000000000000000000AC
:10243000000000000000000000000000000000009C
:102440000000000000000A447052782048504420E8
:10245000495251000A44705278204850442048693B
:102460006768000A4470527820485044204C6F77C7
:10247000000A527820527465726D2069732030789A
:102480002530326278000A43616C6920737563639A
:10249000657373000A43616C69206661696C6564E9
:1024A000000A4470207278706C6C2062616E642047
:1024B0003D20307825303262782C307825303262F9
:1024C000782C307825303262782C307825303262A2
:1024D00078000A706372206873796E63206D6F6490
:1024E00065002120212000F022222222238056563E
:1024F000AAAA40636868CCCCC0FE436F6C6F72536D
:10250000706163653A20256264202C20436F6C6FF4
:102510007244657074683A20256264004453435BDA
:10252000485D3A2048746F74616C3A25642C4861A8
:1025300063746976653A25642C4873773A25642C70
:102540004866703A25642C4862703A25642C4873BA
:10255000706F6C3A256264004453435B565D3A20C9
:1025600056746F74616C3A25642C56616374697695
:10257000653A25642C5673773A25642C5666703A72
:1025800025642C5662703A25642C5673706F6C3A31
:10259000256264000A43686970506F7765724F6EF8
:1025A000000A46575F564552203D2030782530328C
:1025B00062782C307825303262782C3078253032B1
:1025C0006278000A496E636F7272656374205057B7
:1025D0004D2044757479000A50574D204475747924
:1025E0003A256264000A4653203D20307825303277
:1025F000627800901000E49390E080F0901001E485
:102600009390E081F0901002E49390E082F09010BB
:1026100003E49390E083F0221269C0127F97127551
:102620000DB1F3D14B7A25799412003A7A2579A12C
:1026300090E0811285B090E082E090029BF090E003
:1026400083123F6D1271F1F15280F912815712819C
:102650006F7F01127B547F01127B8A127E3D7B01CA
:102660007D0C7F09122952122BA91200097B32D14D
:1026700080E49003FCF0127DD51286E9E0A3F022FD
:102680007D017F0A900261EFF0A3EDF0A3EBF0D3A0
:10269000946474809480400B7BFF7A2579C37F011A
:1026A000023099900263E0FF9003DDE06F7002E179
:1026B00036900263E09003DDF07BFF7A2579D790B6
:1026C0000281126CDA900262E0FBE4FAF9F87F8092
:1026D0007EBBFDFC12124D900264EEF0A3EFF09071
:1026E0000263E0FB64647009A3E0FFA3E0A3CF8072
:1026F00010900264F14A7D64120750EB1282DCA351
:10270000EEF0A3EFF07F0A1275157F0A1273DD90C9
:102710000261E024F7601A14601224FE600924FEAE
:102720007014F137027D35F137027D85F137027D76
:10273000B2F137127D6222900264E0FEA3E0FFA3B3
:10274000E0FCA3E0FD22F090026CE0FEA3E0FF7C41
:1027500000221257C712720190E0B1E0FB643260B0
:102760000280027B32D180124304122B6EE490026D
:1027700061F0A3F078637C027A2279D0FE7F0312A5
:10278000864390002CE06407600302280E1286E95D
:10279000A3E0FF9003FDE06F6074E0A3F09003FD01
:1027A000E02401FFE433FEEFC4F8540FC868FFEEE5
:1027B000C454F048900261F0A3EFF090026174FFFE
:1027C000F5F01207DB9002637451F0128591EC90E2
:1027D0000264F0AF05A3EFF07A22795790026412F9
:1027E000859AA3EF12374D90F9B8126A3F7F011214
:1027F0007A727B017A0279637D037F39122F537FCE
:1028000032F1BFFF127A7290F9B8E054FCF022E086
:1028100054F7F07F017E00EF1FAA0670011E4A6088
:1028200013E4FCFDC3ED9474EC940250EA0DBD007A
:10283000010C80F02290002CE024FE601A1460430A
:1028400014606914700201D61470022149240560D5
:102850000221517F02214E90002DE0601A126EB9C4
:1028600012436090038D7401F078477C00FD7A1468
:1028700079677E021286FA900028E0700221517F6B
:1028800003214E90002DE06006126EB91243609055
:102890000029E0700221517F04127DFBE4FF127BCE
:1028A00058126E1F7F14F1BFFF027AD6126A71129E
:1028B000820612797E120006EF70022151126D48D5
:1028C0001281DA126C121277021279F512324F125B
:1028D00036C17F05807890003EE0640170737F010F
:1028E000126E61E4FB7D0C7F2231527F22719A7F50
:1028F0002031527D017F20719C7F2131527D017FEB
:102900002171AD7F0571A07F1F31527D017F1F7145
:10291000AD7FC87E001117D1A47FC871A07F1D3183
:10292000527F1D719A7F0A31527D017F0A71AD7FFE
:10293000327E00111790002EE07005F1DD127A2B27
:102940007F01126E737F0680051280DA7F07127D89
:10295000FB22EF120A9729C30029D00129DA0229A4
:10296000E40329EE0429F8052A02062A0C072A1690
:10297000082A20092A2A0A2A340B2A3E0C2A480D42
:102980002A520E2A5C0F2A66102A70112A7A122AFD
:1029900084132A8E142A9B152AAA162AB4172AC42D
:1029A000182AD5192AE71A2AFA1D2B061E2B171FDB
:1029B0002B1C202B28212B3D222B42232B4A240089
:1029C000002B5A90A374F1B7EBC43354E04FF022BC
:1029D00090A35C716290A36441BC90A372715B9000
:1029E000A37441DD90A372716290A37441EF90A330
:1029F00071715B90A373610290A371716290A37374
:102A0000419690A370715B90A37341A390A37071E2
:102A10006290A373613090A36F715B90A37341BC0C
:102A200090A36F716290A37341CC90A36E715B9081
:102A3000A37341DD90A36E716290A37341EF90A3E5
:102A400069715B90A36A610290A369716290A36A45
:102A5000804490A368715B90A36A804790A36271E1
:102A60006290A364610290A361715B90A36480266D
:102A700090A361716290A364802990A360715B90C0
:102A8000A364613090A360716290A363807490A38B
:102A90005F715B90A363E0FFEB807890A35F71624E
:102AA00090A363E0FFEB25E0806990A35E715B90EB
:102AB000A363807C90A35E716290A363E0FFEBC48C
:102AC00054F0807490A35D715B90A363E0FFEBC44E
:102AD0003354E0806390A35D716290A363E0FFEBE9
:102AE000C4333354C0805190A35C715B90A363E006
:102AF000FFEBC43333335480803E90A35A715B9014
:102B0000A35BE04BF02290A359715B90A35BE0FFC5
:102B1000EB25E025E0802190A2A2800390A2A3F102
:102B2000B7EBC454F04FF02290A2C0715B90A36445
:102B3000E0FFEB33333354F8FEEF4EF02290A2BFA8
:102B4000800390A2BEF1B7EB800890A2BDF1B7AEB2
:102B500003EEC433333354804FF022E054F0F04D91
:102B6000F022E0540FFFF0EDC454F04FF022128633
:102B7000A994804024127CBCEF6401701C900397E0
:102B8000E07B0160067D0CD1892152E4FDD18931C1
:102B900052E4FF127C5A124359227D0171AD7F32FB
:102BA0007E0011177B017D0C227D017F09EF120A47
:102BB000972C1E002C2F012C40022C51032C620458
:102BC0002C73052C84062C95072CA6082CB7092CF1
:102BD000C80A2CD90B2CEA0C2CFB0D2D0C0E2D1D2C
:102BE0000F2D2E102D3F112D50122D61132D72140B
:102BF0002D83152D94162DA5172DB6182DC7192D1B
:102C0000D81A2DE91D2DFA1E2E0B1F2E1C202E2D3D
:102C1000212E44222E5B232E722400002E8890A3A6
:102C200085E04480F0ED6002C17C90A385C1849072
:102C3000A37FE04402F0ED6002C13790A37FC13F63
:102C400090A389E04402F0ED6002C13790A389C1EE
:102C50003F90A388E04402F0ED6002C13790A38862
:102C6000C13F90A388E04408F0ED6002C14E90A3FC
:102C700088C15690A388E04420F0ED6002C16590C1
:102C8000A388C16D90A388E04480F0ED6002C17C10
:102C900090A388C18490A387E04402F0ED6002C154
:102CA0003790A387C13F90A387E04408F0ED60020E
:102CB000C14E90A387C15690A387E04420F0ED60F9
:102CC00002C16590A387C16D90A387E04480F0EDB9
:102CD0006002C17C90A387C18490A386E04402F087
:102CE000ED6002C13790A386C13F90A384E0440207
:102CF000F0ED6002C13790A384C13F90A384E0440B
:102D000008F0ED6002C14E90A384C15690A384E008
:102D10004420F0ED6002C16590A384C16D90A38250
:102D2000E04402F0ED6002C13790A382C13F90A35E
:102D300082E04408F0ED6002C14E90A382C156903B
:102D4000A382E04420F0ED6002C16590A382C16DD2
:102D500090A382E04480F0ED6002C17C90A382C128
:102D60008490A381E04402F0ED6002C13790A3811A
:102D7000C13F90A381E04408F0ED6002C14E90A3F2
:102D800081C15690A381E04420F0ED6002C16590BE
:102D9000A381C16D90A381E04480F0ED6002C17C0D
:102DA00090A381C18490A380E04402F0ED6002C151
:102DB0003790A380C13F90A380E04408F0ED60020B
:102DC000C14E90A380C15690A380E04420F0ED60F6
:102DD00002C16590A380C16D90A380E04480F0EDB6
:102DE0006002C17C90A380C18490A37EE04402F085
:102DF000ED6002804290A37E804590A37EE044086F
:102E0000F0ED6002804890A37E804B90A2A5E04444
:102E100002F0ED6002802090A2A5802390A2A6E09F
:102E20004402F0ED6002800F90A2A6801290A2C929
:102E3000E04402F0ED6005E04401F02290A2C9E018
:102E400054FEF02290A2C9E04408F0ED6005E04491
:102E500004F02290A2C9E054FBF02290A2C9E04401
:102E600020F0ED6005E04410F02290A2C9E054EF9C
:102E7000F02290A2C9E04480F0ED6005E04440F00B
:102E80002290A2C9E054BFF0227F0331527F023169
:102E9000527F0431527F0531527F0631527F073114
:102EA000527F0822127F267F147E0011179022EF96
:102EB000E47A2279F0F14D9022F2E493FF7BFF7ADD
:102EC0002279F37D05F1539022F8E493FF7BFF7A9A
:102ED0002279F97D03F1539022FCE47A2279FDF105
:102EE000C59022FFE47A237900F1C5902302E47AA9
:102EF000237903F1CD902305E47A237906F1D59067
:102F00002308E47A237909F1D590230BE493FF7B1E
:102F1000FF7A23790C7D02F1537F967E0011179082
:102F200022E3E47A2279E4F1CD7F967E00111790B6
:102F300022E0E47A2279E1F14D7F967E00111712AA
:102F40007F6A7BFF7A2279D37F0102309993FF7BDE
:102F5000FF7D02900266EDF0AC0790F9A0E054EF1F
:102F6000F0ECF58264296006E5826439702A90F9F4
:102F70009A74E0F0900266E0FF240690F999F090D0
:102F8000F998ECF0EFF0E4F0FF900266E0FEEFC39A
:102F90009E50151285CD80F174C012869490F998D8
:102FA000EC1285B890F998F01113E490F99AF0902A
:102FB000F9ABE054BFF022E054F0F04DFFF0227E78
:102FC000001117E42293FF7BFF7D02808693FF7B35
:102FD000FF7D02E15393FF7BFF7D02E15390F9AB4C
:102FE000E054DF127A534420111290F9ABE054DF21
:102FF000F022E4900261F090A200E054EFF012871A
:103000001190E10FE054EFF090E26312280F128765
:1030100011440FF090E10FE0441012281290E26387
:10302000E04408125FAB900261E0041269AC500A00
:1030300090E26DE05402C31370EC90E26DE0540333
:10304000640260087BFF7A1B796E801B7A1B798093
:1030500090E228119090E228E054041313543F7B2F
:10306000FF700B7A1B799B7F0311997F00227A1BDB
:1030700079AA90E274E0900281F090E275E090020B
:1030800082F14D90A210E0547FF04480F07F012245
:103090007BFFE0900281F0E4FF90027DEFF0A3124D
:1030A0000A8278A97C027D017BFF7A2379C67E00A3
:1030B0007F8012069E90027DE0FFD3125FCF505AB0
:1030C00090040AE0FEEFC39E40507B017A027981B2
:1030D000900329120A8290027E1286BD9003291263
:1030E0000A629003491286B31212039003291286D2
:1030F0007590027DE075F003A424B7F582E43423D3
:10310000F583120A8B90034F1286B3900352120A72
:10311000827BFF7A2379AB120BC122F1EBF8120804
:10312000FC12865C90026AE0701490026CF1F2CEA0
:10313000C313CE13D8F9F0EE90026CF0800B122777
:10314000477D0712075012865C7A1B79D790026C74
:10315000F12FE4FF119990026CE0FAA3E0FB7D3CB3
:10316000FF1285EC90F9A4F07D32AF031285EC904C
:10317000F9A51227467D071286D8AB07EB240490E9
:10318000F9A61227467D0612073E7D19120750AE9A
:103190000790F9A7EEF0EB240790F9A9F090026AE6
:1031A000E07056900269E0640190026C7028A3E020
:1031B000FBEE240790F9A7F07C007D07AF03AE0279
:1031C0001286D8EF240790F9A9F090F9A4E02467BB
:1031D00090F98AF0800D12274A7D0A12075090F963
:1031E0008AEFF090026BE06401701E90F9A5E0FF99
:1031F00090F9A4E02F240A800C90F9A9741EF09095
:10320000F9A4E0243290F98AF07BFF7A1B79E690EA
:10321000F9A911927BFF7A1C790190F9A711927B91
:10322000FF7A1C791C90F9A411927BFF7A1C7937E4
:1032300090F9A511927BFF7A1C795290F9A6119210
:103240007A1C796D90F98A128665F0E4FF0199F194
:10325000EBF890003991CB900261EEF0A3EFF0E42F
:103260007BD07A0791C612865390002EE0FB7A003D
:103270007014900263F1F2CEC313CE13D8F9F0EEBE
:10328000900263F0800E90026312274A7D071207B6
:103290005012865390002BE064016006EB64014AF3
:1032A000700D900264E025E0F0900263E033F0904E
:1032B00002631282E91282DC128653127A0D9002A6
:1032C00065EEF0A3EFF0127A1C900267EEF0A3EF28
:1032D000F07BFF7A1379DF900263F1319002611283
:1032E0006D3BE4FF11997BFF7A1379FA900251F15B
:1032F00031900253126D3B90024D126DBEE4FF11EE
:103300009991D1128581120750F1E4120A25F1DD5D
:10331000E0FFF1E4F146401B900253E091D61285A4
:1033200081120750900265123F569CFEE4FCFDD1CD
:1033300049800A900271120A3100000000900032A8
:10334000E06401600261C691D12DFDEE3CFC90026B
:103350004D91DF2DFFEC3EFE900263E0FCA3E0FD0B
:10336000120ABD900275D14F90027591CB900279EF
:10337000120A25900267E0FEA3E0FF900266E02FAC
:10338000FF900265E03EFEF1E4F146402DD15290FF
:10339000027591CBC006C007F1DDE0D15AD007D04D
:1033A00006120863C006C007A3E0FEA3E0FBAA065E
:1033B000E4D007D006120863800E900275120A311D
:1033C000000000008008D143900275120A25900287
:1033D00075120A0D900271F1464008D143900275B2
:1033E000120A257A1479149000311190900031E07E
:1033F00025E0FFE433AB07FA3395E0F9F8E4FF7E0C
:1034000080FDFC1208FC90026D120A2591DCFFE49D
:10341000FCFD90026D120A191244B590025391DF1F
:10342000FF1244B2900263E0FEA3E0FFE4FCFD1251
:10343000087190026DD14F90026D91CBC006C0070C
:10344000F1DDE0D15AD007D00612086390026D1268
:103450000A25E47B07FAF890026D91CB9002751271
:103460000A1912866C900032E064027038D3900220
:1034700054E094E8900253E094034029E47B02FA7C
:10348000F9F890027591CBC004C005C006C007E4EE
:103490007B07FAF9F890026D91CBD003D002D001EE
:1034A000D00012866C7BFF7A147923900269D19A3E
:1034B0001199F129AC06EC90F982F0EF90F983F0C4
:1034C00022F0E47B08FAF9F8900035120A0D0208A0
:1034D000FC900253E0C313FCA3E013FD900251E003
:1034E000C313FEA3E0132212866F90026D7401F0E5
:1034F000E4A3F0A3F0A3F0F129D14990A200E044A5
:1035000010F054FBF090A201E054E0F0F090A20221
:1035100074A8F0E490A204F090A205F090A206F046
:1035200090A207F090A20A7480D1427BC07A2779DA
:10353000097800D312099C402D900271120A19C318
:1035400074C09BFF74279AFE740999FDE498FCF1FE
:10355000EBF8D312099C400ED143EF2410FFEE3458
:1035600027128039D1497BFF7A1B7907D14390021A
:1035700081120A25F129900285120A25E4FF11998A
:10358000E490026FF090026FE0124E8350217E4F64
:103590007D12128721F122501690026EE004D14272
:1035A00078011209C0D14990026FE004F080D67E04
:1035B000847D1E128721F146401AD14378011209F9
:1035C000ADD14990A200E04404F07BFF7A1B791E44
:1035D000E4FF119990A207E054F8FFF090026EE02A
:1035E000FE4F90A207F07BFF7A1B792B900281EEB1
:1035F000F14D12871990027191CB900270EFF01289
:103600008719A391CBAC00AD01AE02AF03E4FBFA86
:10361000F9F8C312099C6006900270E004F090A2D1
:103620000AE05480FFF0900270E0FE4F90A20AF092
:103630004480F07BFF7A1B794F900281EEF0E4FF2B
:103640000199F0900271020A0D900271020A25128E
:103650000A25900261E0FEA3E0FFFBAA06E4F9F868
:10366000227D0FD1A67A2079F7D19711997D12D1B9
:10367000A67A217916D19711997D137F03D1E37F23
:1036800032D1AC7A217933D19711997D14D1A67AB0
:1036900021794DD1970199900261120A0D90028112
:1036A000120A257F01227F03D1E37F057E001228C5
:1036B00017E4FD7F031244DC900261120A257BFFB0
:1036C00022900261120A31000000007D31D1A67AF9
:1036D000147932D19711997D30D1A67A14794DD1D0
:1036E000970199128709601314601814602024034D
:1036F000702490026DE090C740F0227BFF7A16792B
:103700006780067BFF7A16797DE4FF023D9D90027B
:103710006DE090E690F0227F807E4F7D127C0090DD
:103720000262120A19C302099C900269020A0D7B07
:10373000FFE0FFA3E0900281CFF0A3EFF0227F80B3
:103740007E1A7D067C00120A19D302099CF0E4FF60
:1037500001997E007F137D007B017A0379B0120A04
:10376000EA9003B27408F09003B1F0E49003B6F06D
:103770009003B47404F0A314F09003B07408F090B4
:103780002175E493FEA3E493123CC59003BAF0A321
:10379000EFF09021771286893E9003BCF0A3EFF002
:1037A0009021791286893E9003BEF0A3EFF07A2033
:1037B00079999003B21285DDF09003B5E090028212
:1037C000F14D7BFF7A2079C09003BAF1319003BCB0
:1037D000126D3B9003BE126DBEE4FF01999002652D
:1037E000E0FEA322E4FCFD90027922E47BE87A0368
:1037F000F922E0FEA3E078032290038E7414F0A374
:103800007404F09003887401F0A3F0A3F07E007FAD
:10381000457D007B007A007922020AEA9003FCE0F1
:10382000601C127D29EF64017014FD7F09122BAD1D
:103830007B017A0379F811677A2179EBF1679003BC
:10384000FCE06022127D29EF701C7B017A0379F87D
:103850007FC8FEFDFC7145700D9003FCF0122BA992
:103860007A2179FDF16722D120F161900264120A78
:103870000DAB07AA06D126C3EF9BFFEE9AFE1200FE
:103880002ED3EF947FEE648094804004D126F161C2
:1038900090026471520209F3900385E0120A97388E
:1038A000CD0138DA0238FA03390804391605394DE2
:1038B00006396808399E0939C30A39F60B3A4D0DA5
:1038C0003ABD0E3AE00F3AE91000003AEC12817E60
:1038D000125A5C126FE17F0241E7714B700951EEA1
:1038E0001167E490038CF051EE7F287E00714160F7
:1038F0000241EC1258057F0341E790038BE064011D
:10390000600241EC7F0441E790038DE064016002B6
:1039100041EC7F0541E7714B700E51EE1167E4FFFA
:1039200012721EE490038CF051EE7FB07E04714160
:10393000600241EC12000E12632D1268497F06D11D
:103940002C7F091262CF7D017F0902635F1267D26B
:10395000EF6401600241EC51EE7F50FEFDFC7145C9
:10396000600241EC7F0841E7714B701751ED116720
:103970007BFF7A20794B7828E690029AF008E6A33C
:10398000125FD751EE7F807E0C7141600A1272BFC8
:10399000EF6401600241EC1280B07F0941E7714B96
:1039A000700451ED11677137600241EC1270EAEF5B
:1039B000700D7F0791D37A20796812003A41B97F60
:1039C0000A41E7714B70187F0691D37F0191D3E4D0
:1039D00090038CF0FF1268B412724551EE116771BA
:1039E00037600241EC127245EF70077F011268B434
:1039F00041B97F0B41E7714B7029FF127B1F126A9F
:103A0000477F011259B190039974FFF0A3F0A3F01E
:103A1000E49003A0F0A3F0A3F0A3F090038CF09047
:103A20000398F0125925126533EF600241EC1257EA
:103A3000E3EF640170099003AC04F07F0C41E77F71
:103A400001127B1FE49003ACF07F0D41E7714B70D6
:103A50001BFF1272F151EE11677BFF7A2079757F9F
:103A600003B19DE490038CF0900384F07F01127207
:103A7000F17137701C1272E5EF6401700E1272BFA3
:103A8000EF640170067F0ED12C80061272BFEF60CA
:103A90005B51EE7FD07E0771417051900384E0044A
:103AA000F0E0640A70137A2079891268F97F019135
:103AB000D3125FACE4900384F051EE0167714B7058
:103AC0001B900393F090038C51ED116712703A90A4
:103AD00003AEEFF01270409003AFEFF07F0F80075E
:103AE000714B7001F07F10C12C1258FD22F07B0148
:103AF0007A03798022F161D12090026C120A25129A
:103B000009D3900268120A25F176123746401090C8
:103B1000026C71521209F3F176120A257F0022908D
:103B20000264F179120A1912085690026C12374693
:103B30007F0040027F01227B017A0379807F907EA3
:103B4000017D007C0051F5EF64012290038CE0645C
:103B50000122120A0D900261020A62900261120AA9
:103B600082E4FF71E6715590000491BD7F0171E61A
:103B7000715590000691BD7F0271E6715590000865
:103B800091BD7F0371E6715590000A91BD7F04716C
:103B9000E6715590000C91BD7F0571E6715590005E
:103BA0000E91BD7F0671E6715590001091BD7F07A3
:103BB00071E6715590001291BD7F0871E6715590C4
:103BC000001491BD7F0971E6715591BA7F0A71E6C3
:103BD0007155900018EF12071C7F0B71E67155901C
:103BE0000019EF02071CAB07900272120A310000A5
:103BF0000000EB120A973C1E003C28013C32023CBC
:103C00003C033C46043C55053C61063C6D073C7951
:103C1000083C85093C930A3C9F0B00003CB490F79C
:103C2000F6E0FE90F7F7802690F7FAE0FE90F7FBBB
:103C3000801C90F7F2E0FE90F7F3801290F7EAE034
:103C4000FE90F7EB800890F7F0E0FE90F7F191C45A
:103C5000124F85803990F7F4E0FE90F7F591C4801B
:103C60002D90F7F8E0FE90F7F991C4802190F7EEDF
:103C7000E0FE90F7EF91C4801590F7E8E0FE90F732
:103C8000E991C4800990F7ECE090F7ED91C3FEE470
:103C9000FD801B90F7E7E05410C41286F2800F906D
:103CA000F7E7E05420C4135407FFE4FCFDFE900244
:103CB00072120A25900272020A0D900016EE8FF021
:103CC000020829FEE07C002400FFEC3E227F0591E3
:103CD000D37F03EF24FD603614603E14602514602A
:103CE0000C1460142406703B90F1B4802F90F1B452
:103CF000E054DFF04420F02290C908E054EFF04493
:103D000010F02290F1B5E054F7F04408F02290F161
:103D1000B5E054FBF04404F02290F1B5E054FDF01E
:103D20004402F0227BFF7A1C7990E4FFB19D7BFF77
:103D30007A1C79A390F1F3E0FE90F1F491C4D118CC
:103D400090F191F16D7BFF7A1C79C190F1F5E0FE65
:103D500090F1F691C4D11890F193F16D7BFF7A1C2C
:103D600079DF90F1F7E0FE90F1F891C4D11890F16D
:103D700095F16D7BFF7A1C79FD90F1F9E0FE90F1F1
:103D8000FA91C4D11890F197E090029CF0E4FF8082
:103D90000C7BFF900295E090029AF0E4FF9002976E
:103DA000120A829023B6E493FEEFD39E50697B0102
:103DB0007A02799A9002C2120A829002971286BD04
:103DC0009002C2120A62900349120A827B017A02AF
:103DD00079C61212039002C2128675E49002C5F0F1
:103DE0007B017A0279C61200169002C5E0FDFB3312
:103DF00095E0FAC3EB9FEA9E501DEDFF3395E0FE80
:103E000074C62FF58274023EF583E0FF120FD9903D
:103E100002C5E004F080C92290029AF0A3EFF022DC
:103E2000900261120A82900403020A0D900385E059
:103E3000FE6F6034900262EEF0900385EFF0900325
:103E40008C7401F07BFF7A1F79AA90029A125FD6D8
:103E5000900385E0641070047F03F19E900262E09D
:103E6000641070047F04F19E2290F2E7E0FE90F26D
:103E7000E891C49000088FF012082990F2DFE090DA
:103E8000F2E0F1399000048FF012082990F2E1E09D
:103E9000FE90F2E2F13C1286C69000041207F1F1A6
:103EA0005A95F09000028FF012082990F2DBE0FEA4
:103EB00090F2DCF13C90000A8FF012082990000883
:103EC00012863712867EF1569C9000068FF01208FB
:103ED0002990F2E9E0FE90F2EA91C49000128FF08E
:103EE00012082990F2E5E090F2E6F13990000E8F89
:103EF000F012082990F2E3E0FE90F2E4F13C128621
:103F0000C690000E1207F1F15A95F090000C8FF058
:103F100012082990F2DDE0FE90F2DEF13C900014F0
:103F20008FF0120829900012126F4612867EF15609
:103F30009C9000108FF0020829547FFEE02400FFBF
:103F4000EC3E2225E0246CF582E43402F583E0FEA9
:103F5000A3E0FF900266E0FCA3E0FDC3EF9DFFEE4F
:103F600022900264020A257BFFE4FFA19DE09002FB
:103F70009CF0E4FFA19D90026C120A0D9002682251
:103F80001268FF7005FDFF12686F126FE191CD7F1F
:103F90000491D3E4900393F07F05F19E7F04900297
:103FA0006BEFF012818D90026BE024FD60161460BF
:103FB0001C24F9602B24FD605C240C705DE49003EC
:103FC00097F08018126002125FE402597BE4FF123E
:103FD00072AA0F127B547F04127DE1E4FF027AD6AD
:103FE000900042E0703490002CE0C39407748094F9
:103FF0008040279003FCE07021900394E090004102
:10400000F0A37401F07BFF7A22798AFF1230997F46
:104010000B111B61597F05127DE122EF24FD600D1C
:10402000147002211B24F9700221B541E190E08453
:10403000E04401F054FB51EA51FA90E08551E978EF
:10404000081209AD90E08651E990E087EFF0E4FFB7
:10405000123BE612865C7F01123BE690026EEEF0A8
:10406000A3EFF07F05123BE6900270EEF0A3EFF0B5
:104070007F06123BE6AD07AC0690026C51E290E081
:1040800088F0EB90E089F090027051E290E08AF0C5
:10409000EB90E08BF090026E51E290E08CF0EB90B0
:1040A000E08DF0EC90E08EF0EF90E08F1234C15193
:1040B000FA90E092EF1234C178081209AD90E093C3
:1040C000EF1234C190E094EFF0900032E090E0A065
:1040D000F090002FE024F6601524FE6009146016AD
:1040E0002402701A801890E0A17401F0801590E00D
:1040F000A17402F0800D90E0A17403F08005E490BB
:10410000E0A1F0900399E090E095F090039BE0909F
:10411000E096F07BFF7A17791621B0E490E084F006
:1041200090E085F090E086F090E087F090E088F0F5
:1041300090E089F090E08AF090E08BF090E08CF0D5
:1041400090E08DF090E08EF090E08F127CB290E0E5
:1041500092F090E093F090E094F090E095F090E091
:1041600096F090E097F090E098F090E099F090E071
:104170009AF090E09BF090E09CF090E09DF090E051
:104180009EF090E09FF090E0A0F090E0A1F0127C13
:10419000A2F090E0A4F090E0A5F090E0A6F090E00E
:1041A000A7F090E0A8F090E0A9F07BFF7A17792EB5
:1041B0007F0102309990E084E04404F0E490E085CF
:1041C000F090F23CE090E086F090F23DE090E087E5
:1041D000F090F23EE090E088F090F23FE090E089CD
:1041E000F090F240E090E08AF090F241E090E08BB5
:1041F000F090F242E090E08CF090F243E090E08D9D
:10420000F090F244E090E08EF090F245E090E08F84
:10421000F090F246E090E090F090F247E090E0916C
:10422000F090F248E090E092F090F249E090E09354
:10423000F090F24AE090E094F090F24BE090E0953C
:10424000F090F24CE090E096F090F24DE090E09724
:10425000F090F24EE090E098F090F24FE090E0990C
:10426000F090F250E090E09AF090F251E090E09BF4
:10427000F090F252E090E09CF090F253E090E09DDC
:10428000F090F254E090E09EF090F255E090E09FC4
:10429000F090F256E090E0A0F090F257E090E0A1AC
:1042A000F090F258E090E0A2F090F259E090E0A394
:1042B000F090F25AE090E0A4F090F25BE090E0A57C
:1042C000F090F25CE090E0A6F090F25DE090E0A764
:1042D000F090F25EE090E0A8F090F25FE090E0A94C
:1042E000F022E0FAA3E0FBEA22EFF0E47F02FEFD19
:1042F000FC900039120A1902087178101209ADEF0A
:10430000540FFF2212381C127E2BEF64017049906B
:1043100003FCE07043127E37127E31EF24FD60080B
:1043200014601A14602880307A2279A71285C67F1B
:1043300003111B7F0171607159FF027AD67A2279CD
:10434000BB1286307F04111BE4FF71608008125895
:10435000077F01127C5A7159229003FC7401F022EC
:10436000EF64017B0170297D0C7F0F122952E490CC
:10437000F31CF090F1A5E044C0F090E6E47402F084
:1043800090E6E6E04403F054F3F01D7F0F0273DD86
:10439000E4FD7F0F022952900261120A31000000F1
:1043A000009003BC919A794091A59003B8EEF0A3D8
:1043B000EFF09003BC12274A7D03120750AF05E4CB
:1043C00090EF81F0EFC4333354C0F04410F9F09013
:1043D00003B81284374990EF81F090EF82EDF090AE
:1043E00003B0E0FB9003BC12864A12073EE4FCFDDA
:1043F000918E78081209AD90EF8EEFF09194E490D1
:10440000EF8FEFF0EB75F003A4FE240890EF8BF034
:104410009003B7E0FFC3EE9F90EF8CF09003BE9146
:104420009A79C091A5918E78081209AD90EF9AEF14
:10443000F0919490EF9BEFF0E47F06FEFDFC90027C
:104440006151F491B89003BFE02406FF9003BEE0F1
:104450003400FEE4FCFD120863E47B06FAF9F8126E
:1044600008FC90EF9CEBF012854090E102E064E2E2
:10447000701B9003BCE0B4020DA3E0B41C0890A331
:104480007CE054FDF02290A37CE04402F0229002F4
:1044900061120A25900261020A0DE0FCA3E0FDE42E
:1044A0001202E9E422FBFA784012024712101002CD
:1044B0000322E4FCFD120856A804A905AA06AB07CE
:1044C00022FFE0FEEF4E90A33EF07D127F031236F6
:1044D000E37F0A7E00122817E4FD7F03128709603C
:1044E0004514606F147002A18E24036002A1C9906C
:1044F000C740E04480F090C758D110C004C005C048
:1045000006C00790C759D10278081209C0D003D05D
:1045100002D001D00091B590C75AD102D109120A38
:104520002590C740A1C390C748D110C004C005C0A2
:1045300006C00790C749D10278081209C0D003D03D
:1045400002D001D00091B590C74AD102D109120A18
:1045500025807D90ED30E04402F090ED3CD110C01C
:1045600004C005C006C00790ED3DD10278081209CD
:10457000C0D003D002D001D00091B590ED3ED10261
:10458000D109120A2590ED30E054FDF0804290E60A
:1045900090E04480F090E698D110C004C005C006B9
:1045A000C00790E699D10278081209C0D003D00262
:1045B000D001D00091B590E69AD102D109120A2516
:1045C00090E690E0547FF080077A167998127AB1DD
:1045D00090026E120A0D90026DE0F9F81209C0A364
:1045E000120A2590026E020A0D7F02FEFDFC900069
:1045F00039120A19120871A804A905AA06AB079076
:104600000031E0FFE4FCFDFE2212085690026E220B
:10461000E0540FFFE4FCFDFE78100209C0F18A129D
:10462000843E9003B57004E0148004E014540F90AD
:104630000261F090A33EE090026191C1F1A6F19F6A
:10464000F012869F7004EF25E0FFD1A27002800671
:10465000ED64024C700890A341E04402801CEFFD21
:104660007C006404700890A341E04405800CED6474
:10467000084C700C90A341E0440BF090A342E0F092
:1046800091CAF1A6F19FF090026212373E90A342C8
:10469000E040054401F08001F07F647E00022817AD
:1046A000EEF0EFFD7C0064012290002EE07056D108
:1046B000A27E1070027EF090A2271276057E2070F6
:1046C000027E3090A228D1A07E0070027EA290A22D
:1046D0002CF18170027EB290A22DD1A07E007002DA
:1046E0007E0190A22EF18170027E0390A22FD1A0B4
:1046F0007E0070027EFE90A237F18170027E809073
:10470000A238EEF022D1A27E1070027EF490A22791
:10471000F18170027EA290A22CD1A07E0070027E58
:10472000B290A22DF18170027E0190A22ED1A07EC6
:104730000070027EC090A238F18170027E0F90A2BC
:1047400039D1A07E1090A2281276057F3090A22841
:10475000EFF090A238E064C0700A90A2337402F0C7
:1047600090A234F090A2797403F090A27A7430F0A1
:1047700090A27BF090A2307402F090A279740FF0B6
:1047800022EEF0ED64014C7E002290E140E0440115
:10479000F090A33EE054F0F090A341E054F0F0908C
:1047A000A342E054F022900262020A25127AC3D199
:1047B0001D1282F31282FB1283711284F27BFF7A44
:1047C00021796B1284FF12847A719790EF98E044FC
:1047D00002F09003B2E0640190EF977003F0800361
:1047E0007401F09003B1E0FF900262F090EFA774C3
:1047F00068F07E00EF640170089002617480F080C0
:1048000028EF64024E700890026174C0F0801AEFC5
:1048100064044E700890026174E0F0800CEF64084C
:104820004E700690026174F0F0128540E490EFF84B
:10483000F090EF80F07F01FE12281790EFF874FFE0
:10484000F090EF80E01158EF4EFF90EF80F0900273
:1048500061E04F90EF80F022FF900262E0FE22E4E0
:10486000900261F0900264740CF078657C027D0126
:104870007BFF7A1E7981D11F78697C027D017BFFE5
:104880007A1E7985D11F786D7C027D017BFF7A1EAF
:104890007989D11F78797C027D017BFF7A1E798D21
:1048A000D11F787D7C027D017BFF7A1E7991D11F1B
:1048B00078817C027A1E7995D11BE4900262F09097
:1048C0000262E0FF7E00D183505DF186FE7B0174C1
:1048D000F32FF974F13EFAD144900262E0FD25E035
:1048E000248DF582E43402128701EDF1CF12807A33
:1048F000900262E0FED10AEFF0EEF1CF128041F1BA
:104900008DF582E43402F583EFF074712ED10CE062
:10491000FFD138C39FFF900261E0FEEFC39E4003CA
:10492000EF04F0D11480987BFF7A1D793DE4FF12EB
:104930003D9DE4FF1270467F01D1A5E4900263F033
:10494000900261E02403FFE433FE900263E0F1B1E2
:104950004002818F7BFF7A1D794990F1E1123D96EB
:10496000127058EF64017003FFC1A57F07123CD39A
:10497000E4900262F0F1BB40024164B1ED54017079
:104980006D900262E0FFD10AE0FD74752FD13BC348
:104990009DFFE49400CF2401CF3400F185FE900206
:1049A00062E0B1FFFDF1B140024160900262E0D1EE
:1049B0000AE075F002A42DF1C52460F582E5833488
:1049C0001E128563747D2CD1011158D10AE075F057
:1049D00002A42FF1C5243FF582E583341EF583E45C
:1049E00093FDEE25E0FFE433FEF19EED806F900233
:1049F00062E0FF2479B1F054027065F18DD13BF98A
:104A00000425E0FDD155E0FEC3ED9EFE747D2FD15F
:104A100001FDC39E504AE975F002A4C39DFFE5F075
:104A20009400FE74622FF582741E3E1285637475C5
:104A30002CD13B75F002A4FFB1FAFBC3EF9BFFE55D
:104A4000F09400FE74412FF582741E3EF583E493CA
:104A5000FCED25E0FFE433FE7B01F19EEC12070A3A
:104A6000D1142175D1BB1228137F0FF1A7E4900256
:104A700062F0900262E0C3943274809480400261DC
:104A8000121228137B017AF179CCD144900285EE81
:104A9000F0A3EFF07AF179CED144900287EEF0A343
:104AA000EFF07AF179D0D144900289EEF0A3EFF0E3
:104AB0007AF179D2D14490028BEEF0A3EFF0E4FFCB
:104AC000EFD1835033B1EDFE30E10D74792FF582D3
:104AD000E43402F583EE801AEFD195FDD17C5007C6
:104AE000B1ED547FF0800ED3ED9401EC948040053D
:104AF000B1ED4480F00F80C8900279E030E70FA359
:104B0000E030E70AA3E030E705A3E020E704D11492
:104B100041727A1D795D9002851285479002871255
:104B20008556900289E0FFA3E090029ECFF0A3EFAC
:104B3000F090028BE0FFA3E09002A0CFF0A3EF1271
:104B40003F71E4900262F07829E61158C39F400259
:104B5000814DD155E0F4707D900262E0D195D17C19
:104B6000503D74812ED12DE0FE90026230E023E0B2
:104B7000FD2479B1F04401F074712DD10CE025E0F1
:104B8000FD900262E0FCB1FF2DFD74692CD158ED5F
:104B90008030E0FDD12BEE4401F0747D2D8079D181
:104BA00026E020E002814074792EB1F04401F074D7
:104BB000712ED10CE025E004B1F92EFE74692DD1DF
:104BC00058EEF0900262E0247DF582E43402F58331
:104BD0007401F08074900262E0FED18BE0F47069A1
:104BE000EED195D17C5037900262E0D12BE0FD30C0
:104BF000E11D74792EB1F0D13525E02402FE90023A
:104C000062E0FCB1FFFBC3EE9BFE746D2C802BD1E8
:104C100026ED4402F0747D2ED10114F0802BD126B4
:104C2000E030E11C74792EB1F0D13525E02402B1D9
:104C3000F904FCC3EE9CFE746D2DD18DEEF080095D
:104C4000900262E0B1FF2402F0D11461477E00EFD0
:104C500064017007900279E020E134EF64024E7045
:104C60000C900279E030E105A3E020E1227829E60A
:104C700064047016900279E030E10FA3E030E10A9D
:104C8000A3E030E105A3E020E105125F9021407A26
:104C90001D79849002691285E490026AE090029B7B
:104CA000F090026BE090029CF090026CE090029D0C
:104CB000123F717A1D79B290026DF17D90026EE023
:104CC00090029BF090026FE090029CF0900270E0E6
:104CD00090029D123F71E4900262F0F1BB5045B129
:104CE000EDFF5401602EEF54027006900269E080DF
:104CF0001E900262E0FFD18BE0FD74692FD158E075
:104D00002DFFE433CF2401CF3400A2E713EF13FFCC
:104D1000D16EEFF0D16EE0FFF46005900264EFF029
:104D2000D11480B7E4900262F0900262E0FFD18378
:104D3000501674652FD174E0F47009900264E0FF9E
:104D4000D16EEFF0D11480E1900265D16790F17DD2
:104D5000D16090F17EF0900266D16790F17FD160D2
:104D600090F180F0900267D16790F181D16090F16D
:104D700082F0900268D16790F183D16090F184F065
:104D80007F0FF1A7125FAC7B017AF179CCD144BEE1
:104D9000FF10BFFF0DD1BB7BFF7A1D79E0E4FF124E
:104DA0003D9DE4FFD1A57A1D79EC90F17EF17D90D7
:104DB000F180E090029BF090F182E090029CF090F4
:104DC000F184E090029D123F717A1E791790F1DD17
:104DD0001285B090F1DEE090029BF090F1DFE09060
:104DE000029CF090F1E0E090029D023F7174792FF7
:104DF000F582E43402F583E022FE900262E0FD24B5
:104E00007DF582E43402F583E0222471F582E434F6
:104E100002F58322900262E004F0227D017BFF7E96
:104E2000007F0402069E900262E0FE2481F582E487
:104E30003402F583224402F074752EF582E43402C4
:104E4000F583E0221285C0FD7C001206C4FEE42D2D
:104E5000FFEC3EFE2274692EF582E43402F58322D3
:104E6000F0EF901E3F9322E0FF901E60932290028D
:104E700062E02465F582E43402F58322D39401ECE8
:104E8000948022C394047480948022246DF582E47B
:104E90003402F5832225E02485F582E43402F5838B
:104EA000E0FCA3E022EF640190F18A7005E0440287
:104EB000F022E054FDF022E64470F67828E6FF90F8
:104EC000037EEF12872990E10D128739FD90E10CE6
:104ED000E054F0F0ED54E190E10DF090C903E0549E
:104EE0000F127F7790037E1286E07F2740027F3784
:104EF00090A138EF12873190E10CE0440FF090E17F
:104F00000DE0441EF090C903E044F0F0E490A144A9
:104F1000F02290037DEFF0F1957009E02445F8E66A
:104F2000782DF62212505340437829E664047036F7
:104F3000782D761190F1F7E0700690F1F8E06009B5
:104F4000782DE64407D1BA8006F175E6782DF69003
:104F5000F1F9E0700690F1FAE06006782DD1B780A3
:104F60000BF175E68001E4782DF68000782DF17361
:104F7000A60722E6FF90037DE02445F8227BFFE0B0
:104F800090029AF022FEEF25E0FFEE3322900262BB
:104F9000E0FE247522782AE6FF7E00640122747EFA
:104FA0002FF974F13EFA2290F1A5E04FF054F0F0A1
:104FB00022C39FEE6480F874809822900262E0FF22
:104FC000C378299622F582E435F0F583E58222251F
:104FD000E0248DF582E43402F583E0FEA3E0FF22B5
:104FE000F1127829E624FE602624FE603A2403703C
:104FF00061F195700B782CE65401640170028038E1
:105000001153404E782CE6540F64077045803F12D0
:105010004F957006115D7002801E11534034782C3C
:10502000E66477702D8027124F957011115D700D19
:1050300008E654116411700578227601221153405C
:1050400011782CE66477700A08E664777004782398
:10505000760122C3EF9402EE6480948022782CE6DD
:10506000541164112290037DEFF0124F957009E006
:105070002445F8E6782CF622115350022105782CAD
:10508000760190F1F3E0700690F1F4E06042782C44
:10509000E64407124EBA90F1F1E05401702B9004EF
:1050A00008E0700F7826E6700A7F0131EB7D017F02
:1050B000033127900408E0C3940674809480501C48
:1050C000E004F0A37401F08013E4900408F0800C75
:1050D000E4900408F0124F75E6782CF67829E6B1D2
:1050E0000D4022782CE64410F690F1F5E070069021
:1050F000F1F6E06007782C124EB78009124F75E682
:10510000782CF68000782C124F73A6072231277D69
:10511000020F31277D0F0F31277D040F3127E4FD6A
:105120000F31270F31270F90F105EFF090F153ED7C
:10513000F0227901900264E07F0060027F01AE07F7
:10514000900265E07F8060027FC0AC07900266E05D
:105150007F0060027F80AB07E4FF31EB7D12918F0F
:10516000641E70057D140F800790026AE0FD7F01C8
:10517000312790026BE04CFD7F023127EB4E0F315F
:10518000DBAD010F310D7D810F3127E4FD7F213132
:10519000217F6031217D087F803127E4FD7F9031C0
:1051A000277F0131EB7F0A31277F2231EB7D14E429
:1051B000FF918FFD0F312790026BE04CFD0F3127DF
:1051C000AF06EB4F7F0331DBAF01AD077F07310D3A
:1051D0007D810F31277D087F102127FD31277D013B
:1051E0000F31271D0F31270D0F2127E490F103F018
:1051F00090F104EFF02274352FF8E6540F782AF678
:1052000064017045792BE766601E123CCDE4FD7F9A
:10521000033127E4FD7F043127E4FD7F053127E4D6
:10522000FD7F063127124EBB7F0112674978267633
:1052300001E47822F608F608F67F01127046E4FFD2
:10524000124EA5782AE608F622782AE6FFB10D402C
:105250000308A60722F1CFFF640F7002612C90F1C2
:1052600003EFF1ECF1D89F5026EE601390F105E0CA
:10527000F4700690F104E004F090F105E004F07899
:1052800012E62435F8E690F153F078120680D578CE
:1052900032E6706408E66401705E9188120A9752E3
:1052A000BB0052C60152D10252DB0352E60452EA5D
:1052B0000552EE0652F2070000532C7811E6FF1259
:1052C00065D5712D60667811E6FF12670F712D604C
:1052D0005B7811E6FF31F6712D60517811E6FF120F
:1052E000671A712D6046712D6042712D603E712DDF
:1052F000603A7811E6FFE1E67832E6700808E66485
:10530000027002800E7832E6FF7E00700A08E664C2
:105310002070047811F622EF4E70117833E664069F
:10532000700A08E6700608E6FF1267C72290037C41
:10533000E0FF781106E66F22F1CF640F700FE0FFF7
:105340007E007D007B007A007945020AEA7832E629
:1053500090F103F1ECF1D89F5028EE601390F10525
:10536000E0F4700690F104E004F090F105E004F040
:1053700090F154E0FF7812E62445F8A6077812066B
:1053800080D37832E6706608E66402706091881215
:105390000A9753AB0053B70153BD0253C90353D609
:1053A0000453E20553E806000054767811E6FF91B5
:1053B00096712D70028176712D700281767811E6DA
:1053C000FF9183712D700281767811E6FF124FE014
:1053D000712D700281767811E6FF919D712D70021A
:1053E0008176712D700281761265C0612D7832E66A
:1053F0006002817608E66420707C9188120A9754D6
:105400003000543301543602543F0354420454458F
:1054100005544806544B07544E0854510954540A35
:1054200054570B545A0C54630D546D0E00005476AF
:105430007811067811069177503C9196781106788C
:105440001106781106781106781106781106781180
:105450000678110678110678110691775018918315
:105460007811069177500F124FE07811069177501E
:1054700005919D7811062290037CE0FE7811E6FFED
:10548000D39E221165024FE27811F67834E622317C
:105490002790026AE02274452FF8760122AE077841
:1054A0002AE6FD7C0064017005900407F022C3ED3C
:1054B0009402EC6480948040377823E664016008AD
:1054C00012658BEF6401701F900407E004F07823ED
:1054D0007601E06401700974452EF8740146F622E5
:1054E00074452EF876012274452EF874FE56F62285
:1054F000782AE6701708E6B10D40117823E66401BA
:105500007F8070027F0174452EF8A60722C39402A3
:10551000748094802290F1CCE06480700790F1CD8B
:10552000B17340037F0022EFFD7C00B10D4012906B
:10553000F1CEE06480700790F1CFB17340037F003B
:1055400022C3ED9404EC64809480402490F1D0E078
:105550006480700790F1D1B17340037F002290F115
:10556000D2E06480700790F1D3B17340037F0022D2
:105570007F0122E0D39410748094802290026174A1
:10558000FFF090038BE07002E120900385E0D312DE
:105590004E84401990038DE07013123F80F1271262
:1055A0004E84500280027F04900261EFF0900385E8
:1055B000E0D394067480948040171267E2EF640190
:1055C000700F7BFF7A1F79E2FF123D9D7F06123E2E
:1055D0002C900385E0640A70271270EAEF7021783E
:1055E00029126740401A7BFF7A1F79F2E4F1239475
:1055F0000974809480500280027F09900261EFF06C
:10560000900385E0D3940B74809480405512592503
:10561000EF640170137A1F79FFF121F12E5002809F
:10562000027F0A900261EFF0126533EF640170139C
:105630007A207913F121F12E500280027F0A900224
:1056400061EFF0F1E39003ACE06F60167BFF7A202E
:10565000791FE4F123F12E500280027F0A9002614B
:10566000EFF0900385E0D3940D7480948040221273
:1056700072E5EF60061272BFEF70167A2079291278
:1056800059AAF127F12E500280027F0A900261EFA1
:10569000F01286A99480403F12725E126B15EF647F
:1056A0000170131281427BFF7A2079337F03123D10
:1056B0009D7F0E123F9E12702EEF701B7BFF7A2093
:1056C000793E7F03F1249409748094805002800213
:1056D0007F09900261EFF0900385E0C3B17540351A
:1056E000900261E0B175402D7F04F1B670097F042E
:1056F000F1BD7F0D123F9E7F03F1B670097F03F16C
:10570000BD7F0B123F9E7F05F1B670097F05F1BD8D
:105710007F0C123F9E900261E0FFF46003123E2C6A
:10572000227BFFFF123D9D900261E0FFC322940A9D
:10573000748094802290026174FFF090002CE0D37A
:10574000B10E400B900028E070057F02127DFB90A7
:10575000002CE0D31269B9400B900029E070057F5E
:1057600003127DFB90002CE0125FCE403D90E0B034
:10577000E0FDE4FF1281CAEF701490003EE0640186
:105780007028F0FF126E61E4FF126E73801C9000AF
:105790003EE07016F127125FCF500280027F059025
:1057A0000261EFF090003E7401F0900261E0FFF4BE
:1057B0006003127DFB221264B6EF6401221262CFF5
:1057C0009003947401F02212690FB17C0238989012
:1057D000037CEFF07832E62290037CE0FF7812E65B
:1057E000FEC3227F002290037DEFF022F008E690B6
:1057F000F104F008E690F105F0E47812F622900347
:10580000877401F02280F77B017A02796190C67C6F
:10581000E090000212071C90F2F1E0131313540100
:1058200012070A90F2F5E0FF540711EBEF54F090E5
:10583000000312071C90F263E090000512071C9011
:10584000F264E090000612071C90F265E0900007F9
:1058500012071C90F266E0116390F267E090000975
:1058600002071C90000802071C31C3EF640170405E
:105870000412070A90F2BDE0C4131313540111EB94
:1058800090F2BCE0FFC4540F11F1FD7C0064027083
:105890000690000704800BED64014C70089000072F
:1058A000740212071CEF540F116390F2BDE08033B5
:1058B000E412070A90F2EBE0FF131313541FFE5497
:1058C0000111EBEFC313540311F16403700890004E
:1058D00007740412071C90F2EBE0FFEE540311630F
:1058E000EFC413540790000902071C90000102073F
:1058F0001C90000712071C9000070206DD7A02794F
:1059000061311CFF90039AE06F6010EFF07BFF7A2B
:105910001E7999123D977F10123F9E227B011169DB
:10592000900269E0227A027962311CFE900399E0CC
:10593000B5061B90026BE0FF90039BE0B5070F904C
:105940000262E0FF900398E0B507037F0022900217
:1059500062E0900398F0A3EEF090026AE090039A60
:10596000F090026BE090039BF0900398E06401706C
:1059700003FF80027F0131B17F01227B017A02792E
:105980006C11697A22791031AA7BFF7A22792190F1
:105990000273123D967BFF7A227932900275123D96
:1059A000967B017A027976023E697BFFE4FF023D35
:1059B0009DEF640190F3627005E04480F022E054B2
:1059C0007FF02290F2ECE030E62A90F2A9E0640742
:1059D000702290F2AAE06405701A90F2ABE06413B2
:1059E000701290F2BCE054F0D394307480948050E4
:1059F000037F01227F002290F3007440F090F32394
:105A00007402F090F324F090F325F0E490F326F084
:105A100090F3477491F090F3487435F090F3497423
:105A200030F090F34A742AF090F34B7402F090F344
:105A30004C7498F090F34D7402F090F34E7498F01B
:105A400090F34F7404F090F346E04420F07F01316E
:105A5000B17BFF7A2479D27F03023D9D710051CF43
:105A600071427F01126FEDB13651B2126FFD519A42
:105A7000719A12706431F790E10CE054EFF054DF4A
:105A8000F090E10DE054BFF054DFF090E10EE054EF
:105A90007FF090C90AE04402F02290A37FE054F71F
:105AA000F012721690F1BB7459F090F1C4E0440208
:105AB000F02212722890A3237401F0E412720E04F3
:105AC000F090A326F090E23D7420F04408F022907C
:105AD000A108740BF090A10974FFF090A10A74F072
