:100000000210FF025885022FF82222027EE4023FEE
:10001000832222028045E4FFFE1206C4600C0FEF2B
:1000200070010E09E970F20A80EF2202804AEE3078
:10003000E707C3E49FFFE49EFE227BFFE4FF023E4E
:10004000A5222202804602038EE86480F8E933E8A4
:100050003360110460F0ED33EC337009E8FCE9FD26
:10006000EAFEEBFF220460DED3EB9FEA9EE99DE807
:10007000C2E78CF0C2F795F0400CE8CCF8E9CDF976
:10008000EACEFAEBCFFB12035985D0F05804700387
:1000900020D5B3E80470075002B2D502039892D578
:1000A000EC0460F7E4CCC0E0C398F8603B941860BF
:1000B00008400DD0E0FB020370E4FBFAC9FC802885
:1000C000E830E406E4C9FBE4CAFCE830E305E4C92F
:1000D000CACBFCE854076010F8C3E913F9EA13FA35
:1000E000EB13FBEC13FCD8F130F52FC3E49CFCEFD1
:1000F0009BFFEE9AFEED99FDD0E0FBEF4E4D4C706C
:100100001222DB03020395EC2CFCEF33FFEE33FEEF
:10011000ED33FDED30E7EB020370EF2BFFEE3AFE1F
:10012000ED39FDD0E0FB50130BBB0003020398ED4B
:1001300013FDEE13FEEF13FFEC13FC020370EC4D06
:100140006011E8497017ED33EC3304600DE4FCFFF7
:10015000FEFD22E933E8330470F802038E120359DE
:1001600058046009E4CC2481500628500902039801
:10017000284003020395C0E0EB4A7044B98006D0E2
:10018000E0FB020384EF4E701CBD8008EBFFEAFE2B
:10019000E9FD80EBE98DF0A4FEE5F0020227E9CD50
:1001A000F9EAFEEBFFEF89F0A4FCE5F0CE89F0A4BC
:1001B0002EFFE435F0CD89F0A42DFEE435F0806704
:1001C000EF4E7005BD80D780C3EF8BF0A4ACF0EE8E
:1001D0008BF0A42CFCE435F0F8EF8AF0A42CE5F0C9
:1001E00038FCE433CB8DF0A42CFCE5F03BF8EE8A30
:1001F000F0A42CFCE5F038F8E433CF89F0A42CFC13
:10020000E5F038CF3400CE89F0A42FFFE5F03EFEB4
:10021000E433C98DF0A42EFEE5F039CD8AF0A42F89
:10022000FFE5F03EFEE43DFD33D0E0FB50070BBBA5
:10023000000F020398EC2CFCEF33FFEE33FEED339E
:10024000FD020370020398EC5D046005E859047038
:100250000302038E120359580460F6EC4860F2EC76
:100260007004FDFEFF22C860DB2481C85009C398DA
:10027000600250060203959850CAF582E9294B4A5C
:100280007005AB8202038475F0007C1A7880C3EF9E
:100290009BEE9AED99400DC3EF9BFFEE9AFEED9910
:1002A000FDE842F0DC23ACF0D0E0FFD0E0FED0E08F
:1002B000FDAB8220E7101BEB60BAEC2CFCEF33FFA8
:1002C000EE33FEED33FD020370E803F830E705C0BE
:1002D000F075F000EF2FFFEE33FEED33FD40B83048
:1002E000E7C280AA75F020800E75F010800575F0C9
:1002F000087D007E007F003392D530D50312098E31
:10030000EC334010EF33FFEE33FEED33FDEC33FC06
:10031000D5F0ED22E5F0247EA2D513CC92E7CDCE28
:10032000FF22EDD2E7CD33EC3392D524814006E4B1
:10033000FFFEFDFC22FCE4CFCECDCC24E0501174B6
:10034000FF80EDC3CC13CCCD13CDCE13CECF13CFC6
:100350000470F030D5DE02098EE9D2E7C933E83304
:10036000F892D5EDD2E7CD33EC33FC5002B2D52272
:10037000EC30E7100FBF000C0EBE00080DBD0004EE
:100380000BEB6014A2D5EB13FCED92E7FD2274FF9A
:10039000FCFDFEFF22E480F8A2D574FF13FC7D80F3
:1003A000E480EF74F8CC6480CCC86480C8F5820423
:1003B000604FC3EB9FF5F0EA9E42F0E99D42F0E802
:1003C0009C45F0603C501DE5825FFFE582D313CB76
:1003D0005BCBF42B5582FB50280ABA002409B900E4
:1003E0002008801DE5825BFBE582D313CF5FCFF44D
:1003F000C3132F5582FF50090EBE00050DBD00012D
:100400000CC3EB9FF5F0EA9E42F0E99D42F0E89CB8
:1004100045F06007CC4820E701B3EC22F920E7362D
:1004200024F950037907E4F42402FBE58215827075
:10043000021583DBF6E024FB501BE96014E4F0E5D1
:1004400082158270021583E004F0B40A08E4F0D942
:10045000EE7401F00A22C2D522ED33EC3392D5FAC4
:10046000602AB4FF33EDC2E77BFF60067A04797E31
:10047000E4227A04798720D5047A047982224E61B5
:100480004E002B494E46002D494E4600E47A08F0B6
:10049000A3DAFC7B00740722C083C082ECC0E0EDCD
:1004A000C0E0EEC0E0EFC0E0EA75F010A4CAABF027
:1004B00075F04DA42BFBE435F0FCEA2410FAEB3484
:1004C000C5FBEC34D9FCEDC2E7FF75F056A4F4246B
:1004D00011C5F0F434C58FF0A42AE5F03BE43CF0FC
:1004E00020E71412058ED0E0FFD0E0FED0E0FDD072
:1004F000E0FC1202478014F40412058ED0E0FFD015
:10050000E0FED0E0FDD0E0FC12013ED082D083E0DE
:10051000FAEDD2E7CD33EC332482FBE4C3CF33CF03
:10052000CE33CECD33CD33DBF37B0775F00A846059
:1005300004F0A31B0AE5F0F0A38FF0740AA4FFAC4B
:10054000F08EF0740AA42CFEACF050010C8DF07407
:100550000AA42CFDE435F0F0A3DBDE7407223F8013
:1005600000004120000042C80000447A0000461C00
:10057000400047C35000497424004B1896804CBE7D
:10058000BC205A0E1BCA6753C21C749DC5AEFB60CB
:10059000065407601C23231205BCEB543860091273
:1005A00005A81205B712013EECF8EDF9EEFAEFCB13
:1005B00022EB1205B780F1543803241C90055EFE2F
:1005C00093FC0EEE93FD0EEE930ECE93FF22E70901
:1005D000F608DFFA8046E709F208DFFA803E8882F3
:1005E0008C83E709F0A3DFFA8032E309F608DFFA2B
:1005F0008078E309F208DFFA807088828C83E3094F
:10060000F0A3DFFA806489828A83E0A3F608DFFA28
:10061000805889828A83E0A3F208DFFA804C80D276
:1006200080FA80C680D4806980F28033801080A6F2
:1006300080EA809A80A880DA80E280CA803389824A
:100640008A83ECFAE493A3C8C582C8CCC583CCF0F6
:10065000A3C8C582C8CCC583CCDFE9DEE7800D899D
:10066000828A83E493A3F608DFF9ECFAA9F0EDFBA4
:100670002289828A83ECFAE0A3C8C582C8CCC583EC
:10068000CCF0A3C8C582C8CCC583CCDFEADEE88045
:10069000DB89828A83E493A3F208DFF980CC88F0B7
:1006A000EF60010E4E60C388F0ED2402B4040050E8
:1006B000B9F582EB2402B4040050AF232345822312
:1006C00090061E73BB010689828A83E0225002E7EE
:1006D00022BBFE02E32289828A83E49322BB010CBF
:1006E000E58229F582E5833AF583E0225006E92583
:1006F00082F8E622BBFE06E92582F8E222E582299D
:10070000F582E5833AF583E49322BB010689828A68
:1007100083F0225002F722BBFE01F322F8BB010D49
:10072000E58229F582E5833AF583E8F0225006E96F
:100730002582C8F622BBFE05E92582C8F222EF8D8C
:10074000F0A4A8F0CF8CF0A428CE8DF0A42EFE2229
:10075000BC000BBE0029EF8DF084FFADF022E4CC8D
:10076000F875F008EF2FFFEE33FEEC33FCEE9DEC56
:10077000984005FCEE9DFE0FD5F0E9E4CEFD22ED9C
:10078000F8F5F0EE8420D21CFEADF075F008EF2FE6
:10079000FFED33FD4007985006D5F0F222C398FDD7
:1007A0000FD5F0EA22C2D5EC30E709B2D5E4C39DFB
:1007B000FDE49CFCEE30E715B2D5E4C39FFFE49E58
:1007C000FE120750C3E49DFDE49CFC800312075019
:1007D00030D507C3E49FFFE49EFE22C5F0F8A3E0F6
:1007E00028F0C5F0F8E582158270021583E038F034
:1007F00022BB0110E58229F582E5833AF583E0F515
:10080000F0A3E0225009E92582F886F008E622BB31
:10081000FE0AE92582F8E2F5F008E222E5832AF5EE
:1008200083E993F5F0A3E99322F8BB0111E582294E
:10083000F582E5833AF583E8F0E5F0A3F02250096C
:10084000E92582C8F608A6F022BBFE09E92582C880
:10085000F2E5F008F222EF2BFFEE3AFEED39FDEC67
:1008600038FC22C3EF9BFFEE9AFEED99FDEC98FC5D
:1008700022E88FF0A4CC8BF0A42CFCE98EF0A42C01
:10088000FC8AF0EDA42CFCEA8EF0A4CDA8F08BF04D
:10089000A42DCC3825F0FDE98FF0A42CCD35F0FC4B
:1008A000EB8EF0A4FEA9F0EB8FF0A4CFC5F02ECD17
:1008B00039FEE43CFCEAA42DCE35F0FDE43CFC22FC
:1008C00075F008758200EF2FFFEE33FECD33CDCCEF
:1008D00033CCC58233C5829BED9AEC99E582984072
:1008E0000CF582EE9BFEED9AFDEC99FC0FD5F0D64F
:1008F000E4CEFBE4CDFAE4CCF9A88222B800C1B979
:100900000059BA002DEC8BF084CFCECDFCE5F0CBB6
:10091000F97818EF2FFFEE33FEED33FDEC33FCEBEF
:1009200033FB10D703994004EB99FB0FD8E5E4F9AA
:10093000FA227818EF2FFFEE33FEED33FDEC33FC97
:10094000C933C910D7059BE99A4007EC9BFCE99A8B
:10095000F90FD8E0E4C9FAE4CCFB2275F010EF2FD0
:10096000FFEE33FEED33FDCC33CCC833C810D707D0
:100970009BEC9AE899400AED9BFDEC9AFCE899F80B
:100980000FD5F0DAE4CDFBE4CCFAE4C8F922C3E4F5
:100990009FFFE49EFEE49DFDE49CFC22EB9FF5F0AE
:1009A000EA9E42F0E99D42F0E89C45F022E8600FA3
:1009B000ECC313FCED13FDEE13FEEF13FFD8F12291
:1009C000E8600FEFC333FFEE33FEED33FDEC33FC95
:1009D000D8F122BB010789828A83020A0D5005E9FA
:1009E000F8020B16BBFE05E9F8020B2289828A8306
:1009F000020B2EBB010789828A83020A255005E972
:100A0000F8020B3EBBFE05E9F8020B4A22E0FCA30C
:100A1000E0FDA3E0FEA3E0FF22E0F8A3E0F9A3E0FD
:100A2000FAA3E0FB22ECF0A3EDF0A3EEF0A3EFF0CD
:100A300022A8828583F0D083D082120A48120A4805
:100A4000120A48120A48E473E493A3C583C5F0C5AB
:100A500083C8C582C8F0A3C583C5F0C583C8C58255
:100A6000C822E0FBA3E0FAA3E0F922F8E0FBA3A38D
:100A7000E0F925F0F0E582158270021583E0FA387E
:100A8000F022EBF0A3EAF0A3E9F022E493FB740177
:100A900093FA740293F922D083D082F8E49370120F
:100AA000740193700DA3A393F8740193F582888366
:100AB000E4737402936860EFA3A3A380DFEC8EF06D
:100AC000A4CCC5F0CCCDF8EFA4CEC5F02DFDE43C10
:100AD000FCE8A42EC8C5F03DFDE43CFCEFA4FFE516
:100AE000F028FEE43DFDE43CFC22EF4E6012EF6096
:100AF000010EEDBB010B89828A83F0A3DFFCDEFAD5
:100B00002289F05007F709DFFCA9F022BBFEFCF3B5
:100B100009DFFCA9F022E6FC08E6FD08E6FE08E68F
:100B2000FF22E2FC08E2FD08E2FE08E2FF22E49375
:100B3000FC740193FD740293FE740393FF22ECF6A0
:100B400008EDF608EEF608EFF622ECF208EDF208F2
:100B5000EEF208EFF222E508244FF582E43403F5C3
:100B600083E005082290034C30070390034FE4759F
:100B7000F001120A6B0206C42000E97F2ED2008029
:100B800018EF540F2490D43440D4FF30040BEF24DA
:100B9000BFB41A0050032461FFE50960021509057E
:100BA0000CE50C7002050B30070E90034CE475F059
:100BB00001120A6BEF02070A020FD97403D20780F1
:100BC00003E4C207F50890034C120A82E4F509F524
:100BD0000BF50CE50960077F20120B9980F5750A6B
:100BE000FFC201C200C202C203C205C206C208128D
:100BF0000B65FF700D3007057F00120BAAAF0CAE1E
:100C00000B22B4255FC2D5C204120B65FF24D0B4F9
:100C10000A00501A75F00A780930D50508B6FF01A8
:100C200006C6A426F620D5047002D20380D924CFAC
:100C3000B41A00EF5004C2E5D204020E9CD2018027
:100C4000C6D20080C0D20280BCD2D580BAD2058084
:100C5000B47F20120B992002077401B5090040F1FE
:100C6000120B56FF120B99020BD3D208D2068095B5
:100C7000120B56FB120B56FA120B56F94A4B700622
:100C8000799A7A0F7BFF20022EE509602A7E008E7A
:100C9000827583001206DD60060EEE650A70F0C2F2
:100CA000D5EBC0E0EAC0E0E9C0E0EE120EFDD0E016
:100CB000F9D0E0FAD0E0FB1206C4FF60AAEBC0E076
:100CC000EAC0E0E9C0E0120B99D0E02401F9D0E0DD
:100CD0003400FAD0E0FBE50A0460DCD50AD980874D
:100CE000D20280A2120EDF60F7E50A70010412043E
:100CF0001CA90A600DE50A600914F50A120F87EFB6
:100D000060F3EA30E702F404C3995079EAF4250A63
:100D10000430E701E404F50A800D120EDF60C1EA39
:100D2000050A250A12041CEA90037BF030E701E46F
:100D3000250A04D50A0420050114120EFDE4C0E0C2
:100D4000120F8790037BE0601320E70714F0120B6B
:100D500081802204F0D0E014C0E07F00120B81E516
:100D60000A6007120B78150A800B300503120B7806
:100D7000D0E0020BD3D0E00480C4120EDF609EE509
:100D80000A0412041C90037BEAF0E50A20050260C5
:100D900001042404120EFD74FF04C0E0120F871238
:100DA0000B81E50A2005026003120B78D0E0B50A3A
:100DB000E87F45120B8B90037BE07F2B30E7047FAD
:100DC0002DF404C0E0120B99D0E075F00A84C0F055
:100DD000120B82D0E0120B82020BD37910800279C1
:100DE00008C206C2088008D2D5790A8004790AC2EE
:100DF000D5E50A047002F50AE4FAFDFEFF120B566F
:100E0000FC7B08200113120B56FD7B1030000A12E8
:100E10000B56FE120B56FF7B20EC3382D592D55039
:100E200013C3E43000069FFFE49EFEE42001039D0F
:100E3000FDE49CFCE4CBF8C201EC700CCFCECDCC31
:100E4000E824F8F870F38017C3EF33FFEE33FEEDBC
:100E500033FDEC33FCEB33FB994002FB0FD8E9EB9D
:100E6000300105F8D0E0C448B201C0E00AEC4D4EB4
:100E70004F78207B0070C2EAB50A0040BCC0E01287
:100E80000EFFD0F0D0E0200104C4C0E0C4B201C025
:100E9000F0120B82D0F0D5F0EB020BD3120A970CB4
:100EA00070530DDB580C414C0C3D420DDF4F0DE7EC
:100EB000440DE7490C56430DED550D1A460D7A4584
:100EC0000CE4470FBA500C452D0C492E0C6C2B0C22
:100ED0004D230C6A200FA32A0C054800000C64E582
:100EE0000AB4FF03750A06120B56FC120B56FD12CC
:100EF0000B56FE120B56FF900374020459790AA296
:100F0000D5200314300509B910020404B9080104FE
:100F1000A2D52006025001042002689202B5090001
:100F20005034C0E07F203003197F30A20272067275
:100F300005500F120F56C202C206C205C2087F300A
:100F4000800F300503E9C0E0120B99300503D0E0B3
:100F5000F9D0E0B509CC3005177F30B9100C120B71
:100F6000997F583004077F788003B90803120B99E2
:100F70003002057F2D020B997F202008F87F2B205F
:100F800006F322920280CF7F00B40700500B247436
:100F9000F582E43403F583E0FF22286E756C6C293A
:100FA00000D201120B563001F8C201780930D50188
:100FB00008F6020C052D50434958120B562403B471
:100FC00005004001E4900FB593120B8A743A120B9E
:100FD0008AD203750904020DDBEFB40A07740D12FF
:100FE0000FE4740A309811A899B8130CC29830987D
:100FF000FDA899C298B811F63099FDC299F59922C9
:1010000025101601FFFFFFFFFFFFFFFFFFFFFFFFA0
:10101000900265120A2574FFFFFEFDFC900265E058
:10102000F8A3E0F9A3E0FAA3E0FBC312099C60383F
:101030007F807E967D187C4B900265E0F8A3E0F9F6
:10104000A3E0FAA3E0FB1203A36002501B7F807EA3
:10105000967D187CCB900265E0F8A3E0F9A3E0FA56
:10106000A3E0FB1203A3500F900265E0FCA3E0FD98
:10107000A3E0FEA3E0FF22900265E0FCA3E0FDA355
:10108000E0FEA3E0FF120322900269120A259002FB
:1010900069E0FCA3E0FDA3E0FEA3E0FFEC1202E4A4
:1010A000C8ECC8C9EDC9CAEECACBEFCB900265E067
:1010B000FCA3E0FDA3E0FEA3E0FF120049E4FBFA7D
:1010C000F9F81203A35025900269E0FCA3E0FDA308
:1010D000E0FEA3E0FFE4FAF9F8EF2401FFEA3EFEA8
:1010E000E93DFDE83CFC900269120A25900269E0A6
:1010F000FCA3E0FDA3E0FEA3E0FFEC1202E42278F3
:101100007FE4F6D8FD758166021146022618E49345
:10111000A3F8E493A34003F68001F208DFF48029EA
:10112000E493A3F85407240CC8C333C4540F4420D9
:10113000C8834004F456800146F6DFE4800B0102C8
:1011400004081020408090118BE47E019360BCA3C2
:10115000FF543F30E509541FFEE493A360010ECF16
:1011600054C025E060A840B8E493A3FAE493A3F840
:10117000E493A3C8C582C8CAC583CAF0A3C8C58200
:10118000C8CAC583CADFE9DEE780BE4103FC00446C
:1011900003F8000000004104090041040800410474
:1011A00007004103FF0041040A0041037F0044039C
:1011B0008000000000602800000010000E000112F6
:1011C000101E000218213E00031E410D00041001F4
:1011D0002C000518240C000618231C000718203DBD
:1011E000004103DD005A03DE00093C7411B610E033
:1011F000006C0028004208B10870003900040004A7
:10120000010100900346E0FFA3E0FEA3E0CF9003BE
:101210004FF0A3EEF0A3EFF0900349E0CBF0A3E092
:10122000CAF0A3E0C9F07F22900352AD82AC8312D2
:1012300006C48D828C83F0A309E970010ADFEC906B
:101240000349E0FBA3E0FAA3E0F9020BBBC2D5E837
:1012500030E70FB2D5E4C39BFBE49AFAE499F9E4D2
:1012600098F8EC30E717B2D51212831208FCE4C3E9
:101270009BFBE49AFAE499F9E498F880031208FCDD
:1012800030D50DE4C39FFFE49EFEE49DFDE49CFC8D
:101290002254785374617465203D203078253032B3
:1012A000627800525820536574204576656E743A12
:1012B000253032627820004D697069496E436C6B4D
:1012C0003A256C642C2063616C6320756C427974E0
:1012D00065636C6B3A256C642C20756C506879439F
:1012E0006C6B3A256C642C2075634270703A2562F1
:1012F000642C2075635478506F72744E756D3A305B
:101300007825303262782C20756354784C616E6594
:101310004E756D3A307825303262780042757273BE
:1013200074204D6F6465206C616E65207261746518
:1013300020696E6372656173652038304D005258C4
:101340005B485D3A2048746F74616C3A25642C48A0
:101350006163746976653A25642C4873773A25642D
:101360002C4866703A25642C4862703A25642C48F3
:1013700073706F6C3A2562640052585B565D3A2078
:1013800056746F74616C3A25642C56616374697687
:10139000653A25642C5673773A25642C5666703A64
:1013A00025642C5662703A25642C5673706F6C3A23
:1013B00025626400506F72743A2025303262782CB6
:1013C000204C616E653A20253032627800445343E8
:1013D00020736F667420776F7264636E743B007263
:1013E0006462797465636C6B3A25642C2072647056
:1013F0006978636C6B3A256420006873773A2564DA
:101400002C206862703A256420686163746976658F
:101410003A2564007563427070203078253032625E
:10142000783B00726561642064656C61793A256C73
:10143000750041645F6C6D74785F77726974655F85
:10144000636C6B203D20256C756B687A0041645F8E
:101450006C6D74785F726561645F636C6B203D20B6
:10146000256C756B687A0000FFFFFFFFFFFF000629
:10147000B3A02801010101041F0103803E2278EE80
:101480006995AD5246A1270F5054BFCF00814081CE
:10149000809500714F81C0B300D1C0010108E80000
:1014A00030F2705A80B0588A0055502100001E005A
:1014B0000000FD0018901EFF8A000A202020202036
:1014C00020000000FC005647323855514C31410A8B
:1014D000202020000000FF00313233343536373809
:1014E000393032380A01F002035AF15004131F1048
:1014F0000F1E015D5E5F60617603123F23090707DF
:1015000083010000E200EA6D030C001000383C2863
:1015100000600102036DD85DC401788853123078F1
:1015200083341D6D1A000002013090F000000000AD
:1015300000E305C000E421001C00E6060501606030
:1015400012366C80A070703E803020080C6D5521E2
:1015500000001A6FC200A0A0A05550302035006DC9
:10156000552100001A0027000000000000000000C4
:10157000000000000000000000000000000000006B
:10158000000000000000000000000000000000005B
:10159000000000000000000000000000000000004B
:1015A000000000000000000000000000000000003B
:1015B000000000000000000000000000000000002B
:1015C000000000000000000000000000000000001B
:1015D000000000000000000000000000000000000B
:1015E00000000000000000000000000000000000FB
:1015F00000000000000000000000000000000000EB
:1016000000000000000000000000000000000000DA
:1016100000000000000000000000000000000000CA
:1016200000000000000000000000000000000000BA
:1016300000000000000000000000000000000000AA
:10164000000000000000000000000000000000009A
:10165000000000000000000000000000000000008A
:10166000000000000000000A5468697320666D20C5
:101670007278706C6C5F696E5F636C6B000A5468A3
:10168000697320666D20646874785F6469765F6C46
:10169000696E6B5F636C6B000A5741524E494E474F
:1016A0003A2046726571206D6574657220676574B5
:1016B000206661696C005761726E696E673A2069D5
:1016C0006E70757420697320696E76616C69640050
:1016D0000A6C6F6164206B657920646F6E655B30A6
:1016E0007825303262785D000A5061747465726EDC
:1016F000207063722062616E64203D203078253056
:10170000326278000A5061747465726E2070637280
:10171000206C6F636B004D495049566964496E6691
:101720006F557064617465212121212121004D498B
:101730005049566964496E666F436C656172212138
:101740002121212100417564496E666F55706461E5
:10175000746521212121212100417564496E666F44
:10176000436C656172212121000A466C6173682017
:1017700045444944204C6F6164000A466C617368BB
:101780002045444944206E6F742065787369743A2B
:101790000054784576656E742D2562640000000063
:1017A0000000000000000000000000000000000039
:1017B0000000000000000000000000000000000029
:1017C0000000000000000000000000000000000019
:1017D0000000000000000000000000000000000009
:1017E00000000000000000000000000000000000F9
:1017F00000000000000000000000000000000000E9
:1018000000000000000000000000000000000000D8
:1018100000000000000000000000000000000000C8
:1018200000000000000000000000000000000000B8
:1018300000000000000000000000000000000000A8
:101840000000000000000000000000000000000098
:101850000000000000000000000000000000000088
:101860000000000000000000000000000000000078
:101870000000000000000000000000000000000068
:101880000000000000000000000000000000000058
:101890000000000000000000000000000000000048
:1018A0000000000000000000000000000000000038
:1018B0000000000000000000000000000000000028
:1018C0000000000000000000000000000000000018
:1018D0000000000000000000000000000000000008
:1018E00000000000000000000000000000000000F8
:1018F00000000000000000000000000000000000E8
:1019000000000000000000000000000000000000D7
:1019100000000000000000000000000000000000C7
:1019200000000000000000000000000000000000B7
:1019300000000000000000000000000000000000A7
:101940000000000000000000000000000000000097
:101950000000000000000000000000000000000087
:101960000000000000000000000000000000000077
:101970000000000000000000000000000000000067
:101980000000000000000000000000000000000057
:10199000000000000000000000000000004D697021
:1019A0006920445349204F7574004D697069204384
:1019B0005349204F7574004D697069204F7574202C
:1019C00044697361626C6500506F727420307E33BD
:1019D0002052702043616C6920526573756C743AB3
:1019E0002025303262782C2025303262782C202558
:1019F000303262782C20253032627800506F727459
:101A000020307E332052642043616C69205265731C
:101A1000756C743A2025303262782C202530326281
:101A2000782C2025303262782C20253032627800E4
:101A30004450687920436C6B206275727374204D3A
:101A40006F6465004450687920436C6B20636F6E4F
:101A500074696E7565204D6F646500445349207646
:101A60006964656F204E4F4E5F42555253545F4D2F
:101A70004F44455F574954485F53594E435F45565D
:101A8000454E540044534920766964656F204E4F9B
:101A90004E5F42555253545F4D4F44455F57495432
:101AA000485F53594E435F50554C5345004453498A
:101AB00020766964656F2042555253545F4D4F4400
:101AC00045004D49504954585F33445F4D4F44459C
:101AD0003A204D4950495F4C4546545F524947486A
:101AE000545F4D4F4445004D49504954585F33446D
:101AF0005F4D4F44453A204D4950495F4E4F5F334B
:101B0000445F4D4F44450076636F204461746152D9
:101B10006174653A20256C752C20256C7500506F1A
:101B2000737420646976203D2032004132303720C2
:101B300052475F4C4D5458504C4C5F52414E4745B4
:101B40005F53454C203A203078253032627800418E
:101B5000323041204C4D5458504C4C5F4449565FF4
:101B6000534554203A2030782530326278004C4D6D
:101B70005458504C4C2063616C69206661696C005C
:101B80004C4D5458504C4C206C6F636B20666C610C
:101B9000673A3078253032627820004C4D545850E6
:101BA0004C4C20756E6C6F636B004C4D5458504C10
:101BB0004C2063616C6962726174696F6E2062614E
:101BC0006E646F75743A2030782530326278203038
:101BD000782530326278004279746520636C6B3A04
:101BE00025754D687A00636B5F706F7374202830C1
:101BF000784639413929203D2030782530326278C5
:101C000000636B5F7A65726F202830784639413700
:101C100029203D20307825303262780068735F6C6F
:101C2000707820202830784639413429203D2030F2
:101C30007825303262780068735F70726570202892
:101C400030784639413529203D20307825303262C0
:101C5000780068735F747261696C28307846394126
:101C60003629203D20307825303262780068735F55
:101C700072717374202830784639384129203D200C
:101C8000307825303262780000000000000000004B
:101C90000A547261696E696E6720657120696E66AB
:101CA0006F3A000A4C302076616C69645B307825AD
:101CB0003034785D2C45515B307825303262785D68
:101CC000000A4C312076616C69645B3078253034D1
:101CD000785D2C45515B307825303262785D000AA2
:101CE0004C322076616C69645B3078253034785DE5
:101CF0002C45515B307825303262785D000A4C33D8
:101D00002076616C69645B3078253034785D2C45D1
:101D1000515B307825303262785D000A4551486960
:101D200067203D2030782530326278000A45514CDA
:101D30006F77203D2030782530326278000A534397
:101D4000414E205354524154000A46454353544196
:101D50005445203D2030782530326278000A4C61AD
:101D60006E65457272203D203078253034782C30F5
:101D700078253034782C3078253034782C3078251C
:101D8000303478000A5363616E5F45514C4F5720E1
:101D90003D20307825303262782C30782530326220
:101DA000782C307825303262782C307825303262C9
:101DB00078000A5363616E5F4551484947203D20D2
:101DC000307825303262782C307825303262782CA9
:101DD000307825303262782C3078253032627800C5
:101DE0000A414344525F4953535545000A56616CBA
:101DF00069644571203D20307825303262782C307E
:101E00007825303262782C307825303262782C3068
:101E1000782530326278000A536B6577203D203098
:101E20007825303262782C307825303262782C3048
:101E30007825303262782C30782530326278000094
:101E4000000102030405060708090A0B0C0D0E0F1A
:101E50000F0F0F0F0F0F0F0F0F0F0F0F0F0F0F0F92
:101E60000000000000000000000000000000000072
:101E7000000102030405060708090A0B0C0D0E0FEA
:101E80000FFFFFFFFFFFFFFFFFFFFFFFFF0000004F
:101E90000001010101000000000A436F6C6F7269CC
:101EA0006D65747279206368616E6765203D2030CE
:101EB000782530326278000A44705278494E464F95
:101EC0003A000A486270202020203A20252D3864EC
:101ED0002020566270202020203A20252D386400D2
:101EE0000A486670202020203A20252D38642020C2
:101EF000566670202020203A20252D3864000A489C
:101F000073796E6320203A20252D38642020567383
:101F1000796E6320203A20252D3864000A486163D9
:101F2000742020203A20252D3864202056616374C7
:101F30002020203A20252D3864000A48746F6C2038
:101F400020203A20252D3864202056746F6C2020E4
:101F5000203A20252D3864000A44657074682020DA
:101F60003A20252D3862642020537061636520205B
:101F70003A20252D386264000A506978436C6B2042
:101F80003A20252D386C6420205065616B436C6BC2
:101F90003A20252D386C64000A52656672657368B4
:101FA00052617465203D202564000A5278537461A3
:101FB0007465203D20256264000A447052782055E3
:101FC0006E706C7567000A527820506C7567000A55
:101FD0005761697420454343000A45636320657275
:101FE00072000A52782072652D747261696E696E92
:101FF00067000A534B657720556E6C6F636B000A60
:10200000436F6C6F72207370616365206368616EEB
:102010006765000A4D7361206368616E6765000A39
:102020004453432043484E47000A476F746F205083
:102030004352000A417564696F20636867000A4172
:1020400043445220556E6C6F636B000A52415445F5
:102050005F4C414E45203D20307825303262782C4F
:1020600030782530326278000A44652D736B6577CD
:1020700020657272000A5761697420706372207360
:102080007461626C652E2E2E000A50435220484126
:10209000524420524553455400447363456E6320B7
:1020A000536C696365203D202562642C436F6D701D
:1020B00072657373526174696F203D2025626400FC
:1020C000447363456E6320536C6963654865696753
:1020D0006874203D2025642C536C696365576964DE
:1020E0007468203D2025642C4368756E6B53697AB3
:1020F00065203D2025640041645F63736374785FED
:1021000068616C665F7069785F636C6B203D202549
:102110006C756B687A0041645F64736374785F64A4
:1021200073635F72645F636C6B203D20256C756B1D
:10213000687A0041645F64736374785F6473635F9B
:10214000636C6B203D20256C756B687A0041645F81
:1021500064736374785F6473635F6F75745F636CDB
:102160006B203D20256C756B687A0011000089306A
:1021700080087008700010021C021C0200020E0091
:102180002001840007000C0667065C180010F003AD
:102190000C2000060B0B330E1C2A38465462697063
:1021A00077797B7D7E01020100094009BE19FC1987
:1021B000FA19F81A381A781AB62AF62B342B743B07
:1021C000746BF400000000000011000089308008EA
:1021D0007008700010021C021C0352020E00200046
:1021E000000007000C0667065C18000A4750494FBC
:1021F0002054726967676572204C6F77000A4750F8
:10220000494F2054726967676572204869676800A2
:102210000A44702052782076696420696E666F3AAD
:10222000000A436F6C6F7253706163655B25626473
:102230005D000A436F6C6F7244657074685B256261
:10224000645D000A52785F5065616B5F636C6B2060
:102250003D2020256C640075636142726967687473
:102260006E6573735B315D3A307825303262782C5D
:10227000207563614272696768746E6573735B325F
:102280005D3A3078253032627800445052585F53BE
:1022900054415449435F4844525F4E4F5449465954
:1022A0005F4556454E540054585F564944454F5F6C
:1022B0004F4E5F4556454E545F3300445052585F71
:1022C000564944454F5F4F46465F4556454E54007C
:1022D0000000004D6970692044435320454E44007E
:1022E0000511000529000510000528001536C61542
:1022F000B00039B9132A026439EC05D815D6001597
:10230000B00315350015364015260115030129BC0B
:10231000110000893080043804380010021C021CAF
:102320000200020E002001840007000C0667065C14
:10233000180010F0030C2000060B0B330E1C2A387B
:10234000465462697077797B7D7E01020100094005
:1023500009BE19FC19FA19F81A381A781AB62AF6A9
:102360002B342B743B746BF4000000000000110050
:1023700000893080087008700010021C021C035293
:10238000020E002000000007000C0667065C180023
:10239000444542554700494E464F005741524E0072
:1023A0004552524F520043524954000A5B252D3585
:1023B000735D2025730003FF2390FF2396FF239B6B
:1023C000FF23A0FF23A60000000000000000000083
:1023D00000000000000000000000000000000000FD
:1023E00000000000000000000000000000000000ED
:1023F00000000000000000000000000000000000DD
:1024000000000000000000000000000000000000CC
:1024100000000000000000000000000000000000BC
:1024200000000000000000000000000000000000AC
:10243000000000000000000000000000000000009C
:102440000000000000000A447052782048504420E8
:10245000495251000A44705278204850442048693B
:102460006768000A4470527820485044204C6F77C7
:10247000000A527820527465726D2069732030789A
:102480002530326278000A43616C6920737563639A
:10249000657373000A43616C69206661696C6564E9
:1024A000000A4470207278706C6C2062616E642047
:1024B0003D20307825303262782C307825303262F9
:1024C000782C307825303262782C307825303262A2
:1024D00078000A706372206873796E63206D6F6490
:1024E00065002120212000F022222222238056563E
:1024F000AAAA40636868CCCCC0FE436F6C6F72536D
:10250000706163653A20256264202C20436F6C6FF4
:102510007244657074683A20256264004453435BDA
:10252000485D3A2048746F74616C3A25642C4861A8
:1025300063746976653A25642C4873773A25642C70
:102540004866703A25642C4862703A25642C4873BA
:10255000706F6C3A256264004453435B565D3A20C9
:1025600056746F74616C3A25642C56616374697695
:10257000653A25642C5673773A25642C5666703A72
:1025800025642C5662703A25642C5673706F6C3A31
:10259000256264000A43686970506F7765724F6EF8
:1025A000000A46575F564552203D2030782530328C
:1025B00062782C307825303262782C3078253032B1
:1025C0006278000A496E636F7272656374205057B7
:1025D0004D2044757479000A50574D204475747924
:1025E0003A256264000A4653203D20307825303277
:1025F000627800901000E49390E080F0901001E485
:102600009390E081F0901002E49390E082F09010BB
:1026100003E49390E083F022127892127E88126E87
:10262000CBB1F3D14B7A25799412003A7A2579A16E
:1026300090E0811267CF90E082E090029BF090E002
:1026400083123F50124F53F15280F912804F128182
:10265000747F0112517C7F011279F3127BFA7F099A
:102660001285EA7F09122BBC1200097B32D17EE46D
:102670009003FCF0127BDC1286C2E0A3F0227D0105
:102680007F0A900261EFF0A3EDF0A3EBF0D3946426
:1026900074809480400B7BFF7A2579C37F01022FE1
:1026A0005F900263E0FF9003DDE06F7002E136901F
:1026B0000263E09003DDF07BFF7A2579D7900281F9
:1026C00012531F900262E0FBE4FAF9F87F807EBBB0
:1026D000FDFC12124D900264EEF0A3EFF090026345
:1026E000E0FB64647009A3E0FFA3E0A3CF80109037
:1026F0000264F14A7D64120750EB1237F1A3EEF049
:10270000A3EFF07F0A122952E4FD7F0A126D9B901D
:102710000261E024F7601A14601224FE600924FEAE
:102720007014F137027B3CF137027B8CF137027B6E
:10273000B9F137127B6922900264E0FEA3E0FFA3A7
:10274000E0FCA3E0FD22F090026CE0FEA3E0FF7C41
:10275000002212797D124F9490E0B1E0FB64326068
:102760000280027B32D17E125009122B77E4900254
:1027700061F0A3F078637C027D017BFF7A2279D03F
:10278000FE7F0312069E90002CE06407600302287F
:10279000161286C2A3E0FF9003FDE06F6078E0A30D
:1027A000F09003FDE02401FFE433FEEFC4F8540F82
:1027B000C868FFEEC454F048900261F0A3EFF090B7
:1027C000026174FFF5F01207DB9002637451F0129E
:1027D00085E1EC900264F0AF05A3EFF07A2279571F
:1027E00090026412816CA3EF12309E90F9B8124FE0
:1027F000B6F07F011278807B017A0279637D037FD6
:1028000039127DBC7F327E00111FE4FF1278809068
:10281000F9B8E054FCF022E054F7F07F017E00EFBD
:102820001FAA0670011E4A6013E4FCFDC3ED9474F8
:10283000EC940250EA0DBD00010C80F02290002CB7
:10284000E024FE601A14604014606214700201D625
:1028500014700221492405600221517F02214E900B
:10286000002DE0601712506890038D7401F07847D6
:102870007C00FD7A1479677E021286DA900028E0E7
:10288000700221517F03214E90002DE06003125011
:1028900068900029E0700221517F0412401BE4FF80
:1028A0001251801254C9F1F2E4FF0250FE126F710E
:1028B0001282681281DA120006EF7002215112535F
:1028C0008A12769F12520012736812834E123214CB
:1028D000F1257F05807890003EE0640170737F01F0
:1028E0001250ECE4FB7D0C7F2231567F22D19811EF
:1028F0001F0B7D0C7F2031567F20D198111F7F2127
:10290000F1EB7F2171BC7F057E00111F7D0C7F1FC5
:1029100031567D017F1F71BCF1E5127D26F1E57F07
:102920001D1285EA7F1DD19A111F7F0AF1EB7F0AE4
:10293000D19A111F90002EE0700612785912782457
:102940007F011250A67F068005127FE57F071240A7
:102950001B227B017D0CEF120A9729C70029D401A5
:1029600029DE0229E80329F20429FC052A06062AA1
:1029700010072A1A082A24092A2E0A2A380B2A4262
:102980000C2A4C0D2A560E2A600F2A6A102A74113E
:102990002A7E122A88132A92142A9F152AAE162AF2
:1029A000B8172AC8182AD9192AEB1A2AFE1D2B0A89
:1029B0001E2B1B1F2B20202B2C212B41222B46238F
:1029C0002B4E2400002B6390A374128632C4335420
:1029D000E04FF02290A35C716B90A36441C090A380
:1029E00072716490A37441E190A372716B90A374AF
:1029F00041F390A371716490A373610690A3717108
:102A00006B90A373419A90A370716490A37341A7D4
:102A100090A370716B90A373613490A36F716490F5
:102A2000A37341C090A36F716B90A37341D090A327
:102A30006E716490A37341E190A36E716B90A37368
:102A400041F390A369716490A36A610690A36971D0
:102A50006B90A36A804490A368716490A36A8047D6
:102A600090A362716B90A364610690A361716490FE
:102A7000A364802690A361716B90A364802990A3C6
:102A800060716490A364613490A360716B90A363E0
:102A9000807490A35F716490A363E0FFEB807890F3
:102AA000A35F716B90A363E0FFEB25E0806990A3C7
:102AB0005E716490A363807C90A35E716B90A3634E
:102AC000E0FFEBC454F0807490A35D716490A36345
:102AD000E0FFEBC43354E0806390A35D716B90A37F
:102AE00063E0FFEBC4333354C0805190A35C716446
:102AF00090A363E0FFEBC43333335480803E90A354
:102B00005A716490A35BE04BF02290A359716490DA
:102B1000A35BE0FFEB25E025E0802190A2A28003EB
:102B200090A2A3128632C454F04FF02290A2C0713A
:102B30006490A364E0FFEB33333354F8FEEF4EF0C0
:102B40002290A2BF800390A2BE128632800D90A276
:102B5000BDE054F0F04DFFF0AE03EEC43333335418
:102B6000804FF022E054F0F04DF022E0540FFFF0DF
:102B7000EDC454F04FF02212865F4024127AC3EF66
:102B80006401701C900397E07B0160067D0C71A1CD
:102B90002156E4FD71A13156E4FF1251B212506189
:102BA000227F0331567F0231567F0431567F053133
:102BB000567F0631567F0731567F0822EF120A975B
:102BC0002C2D002C3E012C4F022C60032C71042C68
:102BD00082052C93062CA4072CB5082CC6092CD7EB
:102BE0000A2CE80B2CF90C2D0A0D2D1B0E2D2C0F89
:102BF0002D3D102D4E112D5F122D70132D81142D92
:102C000092152DA3162DB4172DC5182DD6192DE705
:102C10001A2DF81D2E091E2E1A1F2E2B202E3C2198
:102C20002E53222E6A232E812400002E9790A385F6
:102C3000E04480F0ED6002C18B90A385C19390A326
:102C40007FE04402F0ED6002C14690A37FC14E9048
:102C5000A389E04402F0ED6002C14690A389C14E11
:102C600090A388E04402F0ED6002C14690A388C1C1
:102C70004E90A388E04408F0ED6002C15D90A38807
:102C8000C16590A388E04420F0ED6002C17490A378
:102C900088C17C90A388E04480F0ED6002C18B90F5
:102CA000A388C19390A387E04402F0ED6002C1467F
:102CB00090A387C14E90A387E04408F0ED6002C165
:102CC0005D90A387C16590A387E04420F0ED60028A
:102CD000C17490A387C17C90A387E04480F0ED602D
:102CE00002C18B90A387C19390A386E04402F0EDCC
:102CF0006002C14690A386C14E90A384E04402F0D6
:102D0000ED6002C14690A384C14E90A384E04408C4
:102D1000F0ED6002C15D90A384C16590A384E0449E
:102D200020F0ED6002C17490A384C17C90A382E086
:102D30004402F0ED6002C14690A382C14E90A3828E
:102D4000E04408F0ED6002C15D90A382C16590A3EC
:102D500082E04420F0ED6002C17490A382C17C90B7
:102D6000A382E04480F0ED6002C18B90A382C19306
:102D700090A381E04402F0ED6002C14690A381C1BE
:102D80004E90A381E04408F0ED6002C15D90A38104
:102D9000C16590A381E04420F0ED6002C17490A36E
:102DA00081C17C90A381E04480F0ED6002C18B90F2
:102DB000A381C19390A380E04402F0ED6002C1467C
:102DC00090A380C14E90A380E04408F0ED6002C162
:102DD0005D90A380C16590A380E04420F0ED600287
:102DE000C17490A380C17C90A380E04480F0ED602A
:102DF00002C18B90A380C19390A37EE04402F0EDCA
:102E00006002804290A37E804590A37EE04408F05B
:102E1000ED6002804890A37E804B90A2A5E0440222
:102E2000F0ED6002802090A2A5802390A2A6E0444D
:102E300002F0ED6002800F90A2A6801290A2C9E07D
:102E40004402F0ED6005E04401F02290A2C9E05494
:102E5000FEF02290A2C9E04408F0ED6005E04404D1
:102E6000F02290A2C9E054FBF02290A2C9E04420D5
:102E7000F0ED6005E04410F02290A2C9E054EFF0BC
:102E80002290A2C9E04480F0ED6005E04440F022C9
:102E900090A2C9E054BFF0227D0171BC7F327E0058
:102EA000227D0FD1D77A2079F7F147F15F7D12D1DA
:102EB000D77A217916F147F15F7D137F03D1F17F36
:102EC00032D1DD7A217933F147F15F7D14D1D77AA0
:102ED00021794DF147E15F7F03D1F17F057E00113C
:102EE0001FE4FD7F03125682900261120A257BFFC8
:102EF000221286F9601314601814602024037024D1
:102F000090026DE090C740F0227BFF7A16796780CF
:102F1000067BFF7A16797DE4FF023EA590026DE004
:102F200090E690F022900261120A31000000007DCC
:102F300031D1D77A147932F147F15F7D30D1D77A28
:102F400014794DF1478018900261120A0D900281A8
:102F5000120A257F01227BFFE0900281F0E4FF90BE
:102F6000027DEFF0A3120A8278A97C027D017BFF2B
:102F70007A2379C67E007F8012069E90027DE0FF54
:102F8000D3124D2E505E90040AE0FEEFC39E4054D3
:102F90007B017A027981900329120A8290027E12C3
:102FA000869490032912866B7A0279A912120390F3
:102FB000032912865690027DE075F003A424B7F52C
:102FC00082E43423F583120A8B90034F120A827B2A
:102FD000017A0279A9900352120A827BFF7A23793F
:102FE000AB120BC1227FC87E00011F7D0C31567DC4
:102FF00001227F147E00011FE4900261F090A20084
:10300000E054EFF0119290E10FE054EFF090E263A2
:103010001228171192440FF090E10FE0441012288B
:103020001A90E263E0440812685B900261E00412C7
:103030007913500A90E26DE05402C31370EC90E2F1
:103040006DE05403640260087BFF7A1B796E801C7C
:103050007A1B798090E228122F5690E228E05404DF
:103060001313543F7BFF700C7A1B799B7F03122F45
:103070005F7F00227A1B79AA90E274E0900281F0CF
:1030800090E275119A90A210E0547FF04480F07F96
:10309000012290E107E054F0F022E0900282F0E497
:1030A000FF022F5FF1A890026D7401F0E4A3F0A37A
:1030B000F0A3F0F180F1E64410F054FBF090A2018F
:1030C000E054E0F0F090A20274A8F0E490A204F0C2
:1030D00090A205F090A206F090A207F090A20A74C8
:1030E0008031FD7BC07A2779097800D312099C4092
:1030F00030900271120A19C374C09BFF74279AFEA4
:10310000740999FDE498FCF1C4D312099C40123172
:10311000FEEF2410FFEE3427127F2A900271120A6C
:10312000257BFF7A1B790731FE900281120A25F177
:1031300080900285120A25E4FF122F5FE490026F4F
:10314000F090026FE01243F750257E4F7D12F1D4CC
:10315000123DBD501A90026EE00431FD7801120953
:10316000C0900271120A2590026FE004F080D27EB6
:10317000847D1EF1D4F179401731FE78011209AD3A
:10318000F1E64404F07BFF7A1B791EE4FF122F5F07
:1031900090A207E054F8FFF090026EE0FE4F90A27C
:1031A00007F07BFF7A1B792B900281EE119EF1CC08
:1031B000900271510E900270EFF0F1CCA3510EAC61
:1031C00000AD01AE02AF03E4FBFAF9F8C312099CAB
:1031D0006006900270E004F090A20AE05480FFF0D4
:1031E000900270E0FE4F90A20AF04480F07BFF7ADC
:1031F0001B794F900281EEF0E4FF022F5FF0900206
:1032000071020A0DF0E47B08FAF9F8900035120A11
:103210000D0208FCF1C4900039510E900261EEF0ED
:10322000A3EFF0E47BD07A075109F19C90002EE0E7
:10323000FB7A007015900263124FBDCEC313CE13FC
:10324000D8F9F0EE900263F0800D90026312274AE5
:103250007D07120750F19C90002BE064016006EBA3
:1032600064014A700D900264E025E0F0900263E092
:1032700033F0900263128344F1F1F19C12780690CE
:103280000265EEF0A3EFF0127815900267EE128659
:103290008D7A1379DF9002631254289002611253E1
:1032A0007DE4FF122F5F7BFF7A1379FA90025112AF
:1032B000542890025312537D90024D1253FFE4FFA5
:1032C000122F5F91851285D1120750F186120A25BF
:1032D000F194FFF186F179401F900253E0918A1238
:1032E00085D1120750900265124A8B9CFEE4FCFDCA
:1032F000900271120A25800A900271120A310000B0
:103300000000900032E064016002618A91852DFD29
:10331000EE3CFC90024D91932DFFEC3EFE9002633B
:10332000E0FCA3E0FD120ABD900275919B9002752E
:10333000510E900279120A25900267E0FEA3E0FF89
:10334000900266E02FFF900265E03EFEF186F17983
:10335000402C919E900275510EC006C007F19491C9
:10336000A6D007D006120863C006C007A3E0FEA3DC
:10337000E0FBAA06E4D007D006120863800E900294
:1033800075120A3100000000800831FE90027512AB
:103390000A25900275120A0D900271F179400831E8
:1033A000FE900275120A257A147914900031122FBA
:1033B00056900031E025E0FFE433AB07FA3395E0A7
:1033C000F9F8E4FF7E80FDFC1208FC90026D120A01
:1033D000259190FFE4FCFD90026D120A191257AE80
:1033E0009002539193FF1257AB900263E0FEA3E06B
:1033F000FFE4FCFD12087190026D919B90026D51EB
:103400000EC006C007F19491A6D007D0061208633B
:1034100090026D120A25E47B07FAF890026D510EB6
:10342000900275120A19F1A5900032E0640270371B
:10343000D3900254E094E8900253E094034028E4CF
:103440007B02FAF9F8900275510EC004C005C0065F
:10345000C007E47B07FAF9F890026D510ED003D053
:1034600002D001D000F1A57BFF7A14792390026984
:10347000122F4A122F5FF180AC06EC90F982F0EF28
:1034800090F983F022900253E0C313FCA3E013FDF4
:10349000900251E0C313FEA3E01322120A2590020A
:1034A00061E0FEA3E0FFFBAA06E4F9F822EF24FDA9
:1034B000600D147002A1AA24F97002C144E1709059
:1034C000E084E04401F054FBF1AFF1DC90E085F1E1
:1034D000AE78081209AD90E086F1AE90E087EFF08B
:1034E000E4FF123BE91276857F01123BE990026E00
:1034F000EEF0A3EFF07F05123BE9900270EEF0A32F
:10350000EFF07F06123BE9AD07AC0690026CF18D3F
:1035100090E088F0EB90E089F0900270F18D90E0FF
:103520008AF0EB90E08BF090026EF18D90E08CF0E1
:10353000EB90E08DF0EC90E08EF0EF90E08F510496
:10354000F1DC90E092EF510478081209AD90E0931D
:10355000EF510490E094EFF0900032E090E0A0F0A2
:1035600090002FE024F6601524FE600914601624F4
:1035700002701A801890E0A17401F0801590E0A10B
:103580007402F0800D90E0A17403F08005E490E0F7
:10359000A1F0900399E090E095F090039BE090E01B
:1035A00096F07BFF7A177916C13FE490E084F090A3
:1035B000E085F090E086F090E087F090E088F09071
:1035C000E089F090E08AF090E08BF090E08CF09051
:1035D000E08DF090E08EF090E08F12869D90E0926A
:1035E000F090E093F090E094F090E095F090E09609
:1035F000F090E097F090E098F090E099F090E09AE9
:10360000F090E09BF090E09CF090E09DF090E09EC8
:10361000F090E09FF090E0A0F090E0A1F01286F131
:10362000F090E0A4F090E0A5F090E0A6F090E0A784
:10363000F090E0A8F090E0A9F07BFF7A17792E7F58
:1036400001022F5F90E084E04404F0E490E085F014
:1036500090F23CE090E086F090F23DE090E087F060
:1036600090F23EE090E088F090F23FE090E089F048
:1036700090F240E090E08AF090F241E090E08BF030
:1036800090F242E090E08CF090F243E090E08DF018
:1036900090F244E090E08EF090F245E090E08FF000
:1036A00090F246E090E090F090F247E090E091F0E8
:1036B00090F248E090E092F090F249E090E093F0D0
:1036C00090F24AE090E094F090F24BE090E095F0B8
:1036D00090F24CE090E096F090F24DE090E097F0A0
:1036E00090F24EE090E098F090F24FE090E099F088
:1036F00090F250E090E09AF090F251E090E09BF070
:1037000090F252E090E09CF090F253E090E09DF057
:1037100090F254E090E09EF090F255E090E09FF03F
:1037200090F256E090E0A0F090F257E090E0A1F027
:1037300090F258E090E0A2F090F259E090E0A3F00F
:1037400090F25AE090E0A4F090F25BE090E0A5F0F7
:1037500090F25CE090E0A6F090F25DE090E0A7F0DF
:1037600090F25EE090E0A8F090F25FE090E0A9F0C7
:10377000227F807E1A7D067C00120A19D302099CE2
:10378000900269020A0DE4FCFD90027922E0FAA39E
:10379000E0FBEA22900265E0FEA3E022900263EEE5
:1037A000F0A3EFF022120856900269020A25EFF00A
:1037B000E47F02FEFDFC900039120A190208711222
:1037C000753401A4E47BE87A03F9F822E47BA87A53
:1037D00061F9F8227F807C00900271227810120932
:1037E000ADEF540FFF22900271120A2590A200E063
:1037F00022FD7C0002073E90038E7414F0A3740433
:10380000F09003887401F0A3F0A3F07E007F457D63
:10381000007B007A007922020AEA9003FCE0601C37
:10382000127B30EF64017014FD7F09122BBC7B0109
:103830007A0379F811697A2179EBF14A9003FCE077
:103840006026127B30EF70207B017A0379F87FC805
:10385000FEFDFC714870119003FCF07D017F0912A0
:103860002BBC7A2179FDF14A22F118F144900264CF
:10387000120A0DAB07AA06F11EC3EF9BFFEE9AFEDC
:1038800012002ED3EF947FEE648094804004F11EEA
:10389000F14490026471550209F3900385E0120A25
:1038A0009738CF0138DC0238FC03390A043918058F
:1038B000394E06396908399F0939C40A39F70B3A74
:1038C0004E0D3ABF0E3AE20F3AEC1000003AEF12FA
:1038D0008065124E751267EB7F0241E9714E7009E7
:1038E00051F11169E490038CF051F17F287E007151
:1038F00044600241EF1248047F0341E990038BE0EA
:103900006401600241EF7F0441E990038DE06401AE
:10391000600241EF7F0541E9714E700E51F111696E
:10392000E4FF127985E490038CF051F17FB07E04BE
:103930007144600241EF128068125D071260467F99
:10394000061243B87F0912428A7D01025D34125F7C
:10395000E0EF6401600241EF51F17F50FEFDFC7128
:1039600048600241EF7F0841E9714E701751F01134
:10397000697BFF7A20794B7828E690029AF008E676
:10398000A3124FA951F17F807E0C7144600A126D21
:1039900055EF6401600241EF1267B57F0941E9719B
:1039A0004E700451F01169713A600241EF126BEAF6
:1039B000EF700D7F07B1CA7A20796812003A41BBD7
:1039C0007F0A41E9714E70187F06B1CA7F01B1CA02
:1039D000E490038CF01F1260B4126C9351F11169E2
:1039E000713A600241EF126C93EF70077F01126031
:1039F000B441BB7F0B41E9714E7029FF1251471250
:103A00006CAC7F01126BD890039974FFF0A3F0A304
:103A1000F0E49003A0F0A3F0A3F0A3F090038CF0E7
:103A2000900398F01249231280E5EF600241EF12F3
:103A30006D7BEF640170099003AC04F07F0C41E9E9
:103A40007F01125147E49003ACF07F0D41E9714EC4
:103A50007017FF91D051F111697A2079751286CBD8
:103A6000E490038CF0900384F07F0191D0713A7060
:103A70001D126D8FEF6401700F126D55EF640170B0
:103A8000077F0E1243B88006126D55EF606151F149
:103A90007FD07E0771447057900384E004F0E064A7
:103AA0000A70187BFF7A207989FFD1A57F01B1CAFE
:103AB0000F7E0012281FE4900384F051F101697118
:103AC0004E701B900393F090038C51F011691269B2
:103AD000379003AEEFF012693D9003AFEFF07F0F28
:103AE0008007714E7001F07F100243B81248FB222C
:103AF000F07B017A03798022F144F11890026C1274
:103B00000A251209D3900268120A25F15912377951
:103B1000401090026C71551209F3F159120A257F79
:103B20000022900264F15C120A1912085690026C8D
:103B30001237797F0040027F01227B017A0379806E
:103B40007F907E017D007C0051F8EF64012290039C
:103B50008CE0640122120A0D900261020A62900256
:103B600061120A82E4FF71E9715890000491C07FEC
:103B70000171E9715890000691C07F0271E9715896
:103B800090000891C07F0371E9715890000A91C0BC
:103B90007F0471E9715890000C91C07F0571E97143
:103BA0005890000E91C07F0671E9715890001091F5
:103BB000C07F0771E9715890001291C07F0871E9C8
:103BC000715890001491C07F0971E9715891BD7FBF
:103BD0000A71E97158900018EF12071C7F0B71E908
:103BE0007158900019EF02071CAB07900272120A7D
:103BF0003100000000EB120A973C21003C2B013CF5
:103C000035023C3F033C49043C58053C64063C708B
:103C1000073C7C083C88093C960A3CA20B00003C0F
:103C2000B790F7F6E0FE90F7F7802690F7FAE0FEFF
:103C300090F7FB801C90F7F2E0FE90F7F380129073
:103C4000F7EAE0FE90F7EB800890F7F0E0FE90F7DF
:103C5000F191C7126761803990F7F4E0FE90F7F5B3
:103C600091C7802D90F7F8E0FE90F7F991C7802179
:103C700090F7EEE0FE90F7EF91C7801590F7E8E03F
:103C8000FE90F7E991C7800990F7ECE090F7ED918D
:103C9000C6FEE4FD801B90F7E7E05410C41286D204
:103CA000800F90F7E7E05420C4135407FFE4FCFDB5
:103CB000FE900272120A25900272020A0D900016FE
:103CC000EE8FF0020829FEE07C002400FFEC3E228B
:103CD000AB07900262120A3100000000EB700890FE
:103CE000F362E054F0F02290F3E2E030E41E90F34F
:103CF000F812579E1257B190F3F9E07F00FE125769
:103D0000AB90F3FAF13D1208561257D6E4FFFEFDD0
:103D1000FCB1BA7002A1B1B1B24002A1B1E47F3EE0
:103D20007E49FDFCB1BA50089002617406F08064CF
:103D3000E47F7C7E92FDFCB1BA500890026174056C
:103D4000F080517FF87E247D01B1B8500890026167
:103D50007404F0803F7FF07E497D02B1B850089036
:103D600002617403F0802D7FE07E937D04B1B85032
:103D7000089002617402F0801B7FC07E277D09B12C
:103D8000B850089002617401F08009B1B25005E4A6
:103D9000900261F090F3F8E0C45407FF900261E0F4
:103DA000FE6F600DEE4408FFF090F362E054F04FB8
:103DB000F0227F807E4F7D127C00900262120A19F1
:103DC000C302099C7F05B1CA7F03EF24FD6036144E
:103DD000603E14602514600C1460142406703B903F
:103DE000F1B4802F90F1B4E054DFF04420F0229041
:103DF000C908E054EFF04410F02290F1B5E054F718
:103E0000F04408F02290F1B5E054FBF04404F022B5
:103E100090F1B5E054FDF04402F0227A1C79901242
:103E200067C87BFF7A1C79A390F1F3E0FE90F1F470
:103E300091C790029AF0A3EFF090F191F1507BFFBF
:103E40007A1C79C190F1F5E0FE90F1F691C79002ED
:103E50009AF0A3EFF090F193F1507BFF7A1C79DF99
:103E600090F1F7E0FE90F1F891C790029AF0A3EF7D
:103E7000F090F195F1507BFF7A1C79FD90F1F9E01B
:103E8000FE90F1FA91C790029AF0A3EFF090F197AB
:103E9000E090029CF0E4FF800C7BFF900295E090A4
:103EA000029AF0E4FF900297120A829023B6E493FC
:103EB000FEEFD39E50617B017A02799A9002C21282
:103EC0000A829002971286949002C212866B7A023E
:103ED00079C61212039002C2128656E49002C5F00F
:103EE0007B017A0279C61200169002C5E0FDFB3311
:103EF00095E0FAC3EB9FEA9E501DEDFF3395E0FE7F
:103F000074C62FF58274023EF583E0FF120FD9903C
:103F100002C5E004F080C922900261120A82900476
:103F200003020A0D7F02FEFDFC900039120A1912ED
:103F30000871A804A905AA06AB07900031E0FFE4C8
:103F4000FCFDFE22900264020A257BFFE4FFC1A56E
:103F5000E090029CF0E4FFC1A590026C120A0D9063
:103F60000268221267C17005FDFF1260711267EBD3
:103F7000B1C40FB1CAE4900393F00F12000E7F0496
:103F800002000E90026BEFF012818A90026BE02427
:103F9000FD601614601C24F9602B24FD605E240C67
:103FA000705EE4900397F0801812806B124FEB0262
:103FB000497AE4FF126D400F12517C7F04124001D8
:103FC000E4FF0250FE900042E0703590002CE0C308
:103FD00094077480948040289003FCE07022900342
:103FE00094E0900041F0A37401F07BFF7A22798A7B
:103FF000FF122F5F7F0B1234AD0250617F0511015C
:10400000229004027401F0900401EFF07BFF7A1714
:104010007991900281F07F01022F5F900262EFF0B0
:1040200090002CE06F6023900262E0640570047FD2
:1040300003110190002D7401F0900262E090002CB9
:10404000F07BFF7A127991122F592290026174FF4E
:10405000F090002CE0D3125994400A900028E070B0
:10406000047F02111B90002CE0D3127920400A90AB
:104070000029E070047F03111B90002CE0124D2DED
:10408000403C90E0B0E0FDE4FF1281CAEF70139075
:10409000003EE064017027F0FF1250ECE41250A6DD
:1040A000801C90003EE0701611CF124D2E50028001
:1040B000027F05900261EFF090003E7401F09002E3
:1040C00061E0FFF46002111B227BFFFF123EA5900E
:1040D0000261E0FFC32290026174FFF090038BE065
:1040E00070024174900385E0D371F8401890038DFD
:1040F000E07012123F6311CF71F8500280027F040A
:10410000900261EFF0900385E0D394067480948070
:104110004016125FF0EF6401700E7BFF7A1F79E2A8
:10412000FF123EA57F0671B8900385E0640A7027F0
:10413000126BEAEF702178291252EB401A7BFF7A5A
:104140001F79F2E411CB94097480948050028002AC
:104150007F09900261EFF0900385E0D3940B7480A7
:1041600094804056124923EF640170137A1F79FF3F
:1041700011C95175500280027F0A900261EFF0125E
:1041800080E5EF640170137A20791311C9517550DD
:104190000280027F0A900261EFF0126D7B9003AC07
:1041A000E06F60167BFF7A20791FE411CB517550C8
:1041B0000280027F0A900261EFF0900385E0D394C1
:1041C0000D748094804022126D8FEF6006126D5541
:1041D000EF70167A207929124FA111CF5175500234
:1041E00080027F0A900261EFF012865F403B126C02
:1041F000F412801BEF6401700F1280107A20793363
:104200001286CB7F0E12000E12692BEF701B7BFF04
:104210007A20793E7F0311CC9409748094805002F7
:1042200080027F09900261EFF0900385E0C3715234
:104230004038900261E0715240307F04517C700A36
:104240007F045182F07F0D12000E7F03517C700AB3
:104250007F035182F07F0B12000E7F05517C700AA4
:104260007F055182F07F0C12000E900261E0FFF496
:10427000600271B822940A748094802251E8EF643D
:104280000122518A900394740122EF120A9742A7E7
:104290000042C20342AC0442CD0842B70942D21DDB
:1042A00042DD1E000042E790E530800390F218E006
:1042B0004480F0547FF02290F219E04410F054EF63
:1042C000F02290F218E04408F054F7F02290E5391B
:1042D000800E90E532E04402F054FDF02290E53289
:1042E000E04401F054FEF022E4FEEF120A97430A84
:1042F00000432A03430F0443330843180943210AA8
:1043000043381D43411E0000434890E54080039020
:10431000F2EDE05480FE803090F2EEE05410FE802A
:104320002790F2EEE05404FE801E90F2EDE0540877
:10433000FE801590E549800C90E542E05402FE8035
:104340000790E542E05401FEEE60027E01AF0622D6
:10435000E0D39410748094802290F1CCE06480705B
:104360000790F1CD715040037F0022EFFD7C0012D9
:104370005993401290F1CEE06480700790F1CF71B4
:104380005040037F0022C3ED9404EC64809480408D
:104390002490F1D0E06480700790F1D17150400317
:1043A0007F002290F1D2E06480700790F1D37150C9
:1043B00040037F00227F0122900385E0FE6F60367C
:1043C000900262EEF0900385EFF090038C7401F0A0
:1043D0007BFF7A1F79AA90029A124FA8900385E07A
:1043E000641070057F0312000E900262E06410708A
:1043F000057F0412000E22C394047480948022E48A
:10440000780DF690F436E0541F7810F690F426E01C
:1044100018F690F432E0540F7832F6E008F6E0082F
:10442000F6E004780DF67810E671F74025780DE691
:1044300071514002A155E408F6780EE6FFC31896C4
:10444000501490F432E0FE74352FF8A606780E066C
:1044500080E7E4780DF6E4FF12581A780FE6700250
:10446000A12524F0700281F424D0602D24F0606333
:1044700024C0601724106002A14A780DE6FFB156EF
:104480007832E6640F6002A1468065780DE6FFD1C0
:104490003D780DE6FFF19FA14E7834E6FD7C006487
:1044A000507019780DE6640170277810E664057085
:1044B0002012863BE6601A1286A78012ED64304C0B
:1044C000700F780DE6640170087835E66003782592
:1044D000F680731286B0700B7810E664047004F1F5
:1044E000C2806BEB64524A70337810E66404702C1F
:1044F0007F1080581286B0700B7810E66404700448
:10450000F1C28010EB64504A70127810E6640370B8
:104510000BFFF192E47856F608F68032780DE6FF4C
:104520001258D180297834E66450701A780DE66408
:104530000170137810E66405700C12863BE6600685
:104540001286A77825F6E4FF8002E4FFF192125864
:1045500010E4FF518A221286B9FF640F7002C13144
:1045600090F103EF1285FC1286775026EE601390CF
:10457000F105E0F4700690F104E004F090F105E03C
:1045800004F07812E62435F8E690F153F07812063C
:1045900080D57832E6706608E664017060F19812A2
:1045A0000A9745BE0045C90145D40245DF0345EAE7
:1045B0000445EE0545F20645F60700004631781140
:1045C000E6FF125F0FD13260687811E6FF125FC418
:1045D000D132605D7811E6FF12599BD1326052787A
:1045E00011E6FF1252F4D1326047D1326043D1322A
:1045F000603FD132603B7811E6FF025FCF7832E650
:10460000700808E664027002800E7832E6FF7E00D1
:10461000700A08E6642070047811F622EF4E7011DB
:104620007833E66406700A08E6700608E6FF125F53
:10463000D52290037CE0FF781106E66F221286B93E
:10464000640F700FE0FF7E007D007B007A007945EB
:10465000020AEA7832E690F1031285FC128677505E
:1046600028EE601390F105E0F4700690F104E00488
:10467000F090F105E004F090F154E0FF7812E624A8
:1046800045F8A60778120680D37832E6706908E606
:1046900064027063F198120A9746B20046BF014661
:1046A000C50246D20346DF0446EC0546F20600008A
:1046B00047857811E6FF125F08D1327002E185D19B
:1046C000327002E1857811E6FF125CCAD1327002C5
:1046D000E1857811E6FF125CCED1327002E1857877
:1046E00011E6FF125924D1327002E185D1327002F5
:1046F000E185125EF4C1327832E66002E18508E6B7
:1047000064206002E185F198120A97473C00473F18
:1047100001474202474C03474F044752054755069D
:10472000475807475B08475E0947610A47640B47DC
:10473000670C47710D477B0E00004785781106789E
:104740001106F186503F125F08781106781106783D
:10475000110678110678110678110678110678117D
:1047600006781106781106F186501A125CCA781183
:1047700006F1865010125CCE781106F186500612B2
:1047800059247811062290037CE0FE7811E6FFD3CD
:104790009E2290F433EFF0227811F67834E622AEC0
:1047A00007900409E06006E4F07F2080E51258E5F8
:1047B0007811E6FFC39E500974452FF8E6F1F580A5
:1047C000EF22780DE6FF1258E37811E6FFC39E5002
:1047D00018EF785726FDE41836FC74472DF58274DF
:1047E000003CF583E0F1F580E0AF067857EF26F660
:1047F00018E436F62290F433F078110622900387FD
:104800007401F02280F77B017A02796190C67CE026
:1048100090000212071C90F2F1E0131313540112DE
:10482000070A90F2F5E0FF540711E9EF54F0900009
:104830000312071C90F263E090000512071C90F22F
:1048400064E090000612071C90F265E090000712E9
:10485000071C90F266E0116290F267E09000090296
:10486000071C90000802071C126CC0EF6401703E28
:104870000412070A90F2BDE0C413131311E790F27B
:10488000BCE0FFC4540F11EFFD7C00640270069081
:10489000000704800BED64014C700890000774025F
:1048A00012071CEF540F116290F2BDE08031E41248
:1048B000070A90F2EBE0FF131313541FFE11E7EF0A
:1048C000C313540311EF64037008900007740412BB
:1048D000071C90F2EBE0FFEE54031162EFC4135497
:1048E0000790000902071C540190000102071C9068
:1048F000000712071C9000070206DD7A0279613179
:104900001AFF90039AE06F6010EFF07BFF7A1E7938
:1049100099123E9F7F1012000E227B0111689002B7
:1049200069E0227A027962311AFE900399E0B506B5
:104930001B90026BE0FF90039BE0B5070F900262B3
:10494000E0FF900398E0B507037F0022900262E049
:10495000900398F0A3EEF090026AE090039AF09032
:10496000026BE090039BF0900398E064017003FFFA
:1049700080027F01126BD87F01227B017A02796C61
:1049800011687A227910F1A17BFF7A2279219002B5
:1049900073123E9E7BFF7A227932900275123E9E00
:1049A0007B017A02797690F2E7E0FE90F2E8123C21
:1049B000C79000088FF012082990F2DFE090F2E033
:1049C000516E9000048FF012082990F2E1E0FE9001
:1049D000F2E2517191FD9000041207F1518F9000A5
:1049E0000291EE90F2DBE0FE90F2DC517190000A51
:1049F0008FF0120829900008D16590000A1207F183
:104A0000B106518B9C9000068FF012082990F2E9B4
:104A1000E0FE90F2EA123CC79000128FF0120829D3
:104A200090F2E5E090F2E6516E90000E8FF01208E1
:104A30002990F2E3E0FE90F2E4517191FD90000EB6
:104A40001207F1518F90000C91EE90F2DDE0FE9094
:104A5000F2DE51719000148FF0120829900012B10B
:104A60006CB106518B9C9000108FF0020829547F86
:104A7000FEE02400FFEC3E2225E0246CF582E434C5
:104A800002F583E0FEA3E0FF900266E0FCA3E0FDF8
:104A9000C3EF9DFFEE2290A130E0547FF04408F078
:104AA0004404F054FC12692390A13EF090A142749A
:104AB00080F0E490A13B125E9A90E300E054FDF098
:104AC00090E3017420F0E490A132F090A1387427B3
:104AD000F090A139740612691B90A143E04430F0B4
:104AE0007480443090A144F07420440190E301F0BC
:104AF00090E3097403F091F59002627402F0E4F01F
:104B0000900262E0FB1243F7400281B091DFEB14A8
:104B1000601114601714601D2403702090E30AE0F4
:104B2000F0801990E30AE04440F0801090E30AE03E
:104B30004480F0800790E30AE044C0F09002617482
:104B400003F012684F603590E105E054FCF090A14D
:104B500030E054BFF090E300E054FE12281A90E1D8
:104B600005E04403F090A130E04440F090E30012EF
:104B7000685890E324E05403640270C6B111E04425
:104B80000CF090E329E090E32A123CC6900266F014
:104B9000A3EFF0E4900263F0B1284002814290025A
:104BA00062E014600E14600F1460102403700EB1E4
:104BB0001C800AB1578006B1468002B135E49002EC
:104BC0006AF0A3F0900264F0A3F0900265E0C39451
:104BD0006474809480506712281B900265E004F092
:104BE00090E326E0FE90E327123CC7FE900268F0B7
:104BF000A3EFF051889CFE12002EC3EF9480EE6468
:104C00008094805010900268E0FEA3E0A3F1C4906D
:104C10000264E004F0900264E0640870AD90026AFF
:104C2000F1BDCEC313CE13D8F9FF900263E025E0A7
:104C3000246CF582E43402F583EEF0A3EFF091E703
:104C4000619874FF900276F0A3F0E4900263F0B1F3
:104C5000285050EF51789CFE12002ED3900277E03E
:104C60009F900276E09E4037900262E01460131439
:104C7000601414601524037013900263E0FFB11CEC
:104C8000800AB1578006B1468002B135900263E0D8
:104C900051789CFE12002E900276EEF0A3EFF09178
:104CA000E780AC91F590E309E054F3F0F1AF6100D7
:104CB0007A2479A190E312F1CB90E313E090029B68
:104CC000F090E314E090029CF090E315E090029DD8
:104CD000F1A990A143E054CFF1E3B111740DF0902C
:104CE000E30AE0543FF022900263E004F02295F0E2
:104CF0008FF002082990E30BE054FEF022FE9002B0
:104D000092F0A3EFF022C39FFFE5F09EFE90029287
:104D10002290E30BE04401F090E3092290E31DE0D0
:104D20002F24FE90E312F022900263E0FFC394056B
:104D30007480948022900263E0FF90E320E02F24AF
:104D4000FE90E315F022900263E0FF90E31FE02F56
:104D500024FE90E314F022900263E0FF90E31EE053
:104D60002F24FE90E313F022F09000161207F1FFBB
:104D7000AEF09000140207F190000CD16590000A8B
:104D80001207F12FFFE5F03EB1F990C7C3F0AF0570
:104D900090C7C4EFB16890C7C5D16C90C7C6EFF09B
:104DA000900006B1F390C7C7F0AF0590C7C8EFD128
:104DB0000190C7C9F0AF0590C7CAEFF0900004B1E9
:104DC000F390C7CBF0AF0590C7CCEFF090000ED1B9
:104DD0000590C7CDF0AF0590C7CEEFF090000AB1B7
:104DE000F390C7CFF0AF0590C7D0EFF0B17290C786
:104DF000D1F0221207F1FFE5F0C313FCEF13FDEC35
:104E000022F09000101207F1FDACF0EC22900006A9
:104E1000D10590F97EF0AF05EF90F97FD10190F9BF
:104E20007CF0AF05EF90F97DB16890F980D16CEF1F
:104E300090F981F090F97AE054F0FFF0FDD15ACE6C
:104E4000C313CE13D8F9EE4D90F97AF0D15ACEC3F0
:104E500013CE13D8F990F97BF0229000061207F1D7
:104E6000AEF07802221207F1FFAEF0222FFDE5F03E
:104E70003EF0AF052212582CF1631267F77F011242
:104E800068635196D1CE126873D1B7126961126A04
:104E9000ED126B7390E10CE054EFF054DFF090E111
:104EA0000DE054BFF054DFF090E10EE0547FF0903D
:104EB000C90AE04402F02290A37FE054F7F0F1DB4E
:104EC00090F1BB7459F090F1C4E04402F022126CEE
:104ED0008890A3237401F0E4F1D304F090A326F0AA
:104EE00090E23D7420F04408F0229002617430F0AA
:104EF000A37490F07B017A0379DEB178900261E0CF
:104F0000FFA3E0FD1279E1126C09F19A90C7D7E096
:104F100054BFF07F3012798590A345E054E0F090C3
:104F2000A33CE05480F0FD90A33EE05480FFF0905D
:104F3000A341E05480F090A342E05480F0FCE49060
:104F4000A346F0EF90A33EF0ED90A33CF0EC90A3CD
:104F500042F022D1EA9000297401F0900028F0F18B
:104F60009480FC90A108740BF090A10974FFF0905C
:104F7000A10A74F0F090A10B748FF090A10C747CD6
:104F8000F090A10D74A8F090A10EF1B6F054F3F0DA
:104F90004404F02212283D02404B90C7D67430F0F2
:104FA000227BFFE4FF023EA5EFF07F03023EA590C7
:104FB0000262E004F022E054FCF0440322E0FEA38D
:104FC000E0780322FFEE8FF00207DB7BFFE0900228
:104FD0009AF02290A324F090A3252290C7D7E05402
:104FE000FEF022F090A14474C0F022E490039DF002
:104FF0007A2279439003A8F1FEE4FF023EA57BFFED
:10500000120A0D90029A020A2512381A127BE8EF52
:105010006401704C9003FCE07046127BF4127BEE4E
:10502000EF24FD600814601914602C80337A227913
:10503000A751E47F031234AD7F01116F1161FF01AD
:10504000FE7BFF7A2279BB7F01122F5F7F0412342F
:10505000ADE4FF116F80071248067F0131B2116184
:10506000229003FC7401F022E4F0FF11A6E4FFEFAC
:1050700064017B0170297D0C7F0F122956E490F3A7
:105080001CF090F1A5E044C0F090E6E47402F090CA
:10509000E6E6E04403F054F3F01D7F0F026D9BE45D
:1050A000FD7F0F022956EF6401702B7F0111EC90F8
:1050B000003FE090F989700FE054DFF04410F07B7E
:1050C000FF7A19799D8020E04420F054EFF07BFFB7
:1050D0007A1979AA8011E4FF11EC90F989E054CF94
:1050E000F07BFF7A1979B77F01022F5FEF640170BF
:1050F0000790F9BF74FFF022E490F9BFF022EF644B
:1051000001701B90E126F090E127F090E580E054DB
:10511000DF314054FBF0ED54EF90E580F02290E554
:1051200080E0441031404404F0ED442090E580F0EC
:1051300090E12674FFF090E12774F8F022E044013A
:10514000F0FD90E10BE022EF6401701790E128F090
:1051500090E580E054F7314054FDF0ED54FB90E5CC
:1051600080F02290E580E0440431404402F0ED44B8
:105170000890E580F090E12874FFF02231477F012C
:10518000EF6401701790E129F090E580E054FD3163
:105190004054FEF0ED54FE90E580F02290E5803121
:1051A0003D4401F0ED440290E580F090E12974FF68
:1051B000F022AE07127A10AA07127ADEAB07127B32
:1051C00007EE90E084602312586BAE0390E0A2EEED
:1051D000F090E0A3EFF0E490E090F0AF0290E09167
:1051E000EFF07BFF7A1779458011E054FDF0E4126F
:1051F00086F112869D7BFF7A1779597F01022F5F16
:105200007F0111EC127374900032E0FF1273BD90B5
:105210000032E0FF1273EB900033E0FF1273F57B76
:10522000FF7A1379B4900032E0900281F09000335D
:10523000E0900282711F12740B90002AE0FF12743A
:105240001290003DE0FF12744390A37BE054FBF00A
:1052500090002BE0600C90A37BE04404F07F0112EF
:1052600074917F011274E190002EE0FF1274A190FE
:10527000002EE0FF1274B11274C91274D11274D9E5
:10528000E4FF12786EE491FC900034E0FF1274F3B6
:1052900090002FE0FFB1197A1379CD51E4900032DC
:1052A000E0FBFD7C009003C9E0FEA3E0FF12075085
:1052B000AC06AD07E4FFF1E490024D128344FDAB70
:1052C000057C00120750D3EB51ED40177C007D02A6
:1052D0001207A5ED4C600C90F9887421F090F971DB
:1052E0007413F0227BFF7F01022F5FE6D3940174D9
:1052F0008094802290037DEFF0E02435F8E6C351DE
:10530000ED4009E4FF125CDAE47826F690037DE0D4
:105310002435F851EB4003125B9522E090028BF0AC
:105320007F01022F5F7A0379C391DC7A0379C391FD
:10533000D47A25791C9003C791289003C9717D9078
:1053400003CD71FF9003CB91199003CF910C900383
:10535000DB711B7A2579589003D191269003D37184
:105360007D9003D771FF9003D591199003D9910CCB
:105370009003DC711BF1DD70031284B822E0FFA3FF
:10538000E0900283CFF0A3EFF0227A02794791DC1C
:105390007A02794791D47A13793E90024B91289002
:1053A000024D717D90025171FF90024F9119900250
:1053B00053910C90025F711B7BFF7A1379799002F5
:1053C000559128900257717D90025B71FF900259B0
:1053D000911990025D910C900260711B7B017A0221
:1053E0007947124E0D90025FE0FF91E7900260E076
:1053F000FF91F57005E054FEF022E04401F022E058
:10540000FFA3E0900285CFF0A3EFF022E0FFA3E03E
:10541000900289CFF0A3EFF022E0FFA3E090028793
:10542000CFF0A3EFF0227BFFE0FFA3E0900281CF5B
:10543000F0A3EFF0227E007F137D007B017A0379D9
:10544000B0120AEA9003B27404F09003B1F0E49051
:1054500003B6F09003B47404F0A314F09003B07496
:1054600008F0902175E493FEA3E493123CC89003E6
:10547000BAF0A3EFF090217791B89003BCF0A3EFBE
:10548000F090217991B89003BE12868D7A20799997
:105490009003B2E0900281F09003B512309A7BFF46
:1054A0007A2079C09003BA91289003BC717D900353
:1054B000BE71FFE4FF022F5FE493FEA3E493240098
:1054C000FFEC3E221281446125B10A913591C4B1AD
:1054D00036022EA17B01123B5E7BFF227E007F1AEB
:1054E0007D007B01020AEA91F57005E054FDF0228F
:1054F000E04402F022EF640190F9702291F570050A
:10550000E04408F022E054F7F022E490EF80F090BD
:10551000EFF812864954BFF022900261EFF0E4A345
:10552000F07F0B7E257D2590F986E054C0F04FF08A
:1055300090F988EDF0221279CEB1E41283671283DC
:105540006F1283E51285647BFF7A21796B12857176
:105550001284EC1276D590EF98E04402F09003B2FA
:10556000E0640190EF977003F080037401F0900302
:10557000B1E0FF900262F090EFA77468F07E00EF58
:10558000640170089002617480F08028EF64024E1C
:10559000700890026174C0F0801AEF64044E7008C5
:1055A00090026174E0F0800CEF64084E7006900287
:1055B0006174F0F01277DDE490EFF8F090EF80F096
:1055C0007F01FE12281F90EFF874FFF090EF80E04B
:1055D000126752EF4EFF90EF80F0900261E04F9023
:1055E000EF80F022F1BAF1DC9003B57004E0148092
:1055F00004E014540F900261F090A33EE090026129
:10560000D167F1D6F1CFF01286837004EF25E0FF69
:105610001270B970028006ED64024C700890A341CC
:10562000E04402801CEFFD7C006404700890A341FC
:10563000E04405800CED64084C700C90A341E044FC
:105640000BF090A342E0F0D170F1D6F1CFF09002D0
:105650006212377190A342E040054401F08001F0EE
:105660007F647E0002281FFFE0FEEF4E90A33EF015
:105670007D127F03122EF17F0A7E0012281FE4FDA7
:105680007F031286F96047146073147002E13A24B4
:10569000036002E17790C740E04480F090C758F182
:1056A0009EC004C005C006C00790C759123F3D7890
:1056B000081209C0D003D002D001D000F1AE90C7CB
:1056C0005A123F3DF197120A2590C740E17190C7E9
:1056D00048F19EC004C005C006C00790C749123FEC
:1056E0003D78081209C0D003D002D001D000F1AE3D
:1056F00090C74A123F3DF197120A25E17E90ED30A6
:10570000E04402F090ED3CF19EC004C005C006C02C
:105710000790ED3D123F3D78081209C0D003D0023A
:10572000D001D000F1AE90ED3E123F3DF197120A4C
:105730002590ED30E054FDF0804490E690E0448008
:10574000F090E698F19EC004C005C006C00790E640
:1057500099123F3D78081209C0D003D002D001D081
:1057600000F1AE90E69A123F3DF197120A2590E6BD
:1057700090E0547FF080077A1679981279BC9002F5
:105780006E120A0D90026DE0F9F81209C0A3120A18
:105790002590026E020A0D12085690026E22E05405
:1057A0000FFFE4FCFDFE78100209C0E4FCFD1208C6
:1057B00056A804A905AA06AB072290E140E04401DF
:1057C000F090A33EE054F0F090A341E054F0F0904C
:1057D000A342E054F022900262020A25F09003B343
:1057E000E0640322EB51EC90F97AE040054480F04C
:1057F0008003547FF0EF90F97A7006E04440F08027
:1058000004E054BFF0EC90F990F090F991EDF022A3
:105810007F01111AE490F434F022EF640190A35850
:105820007005E044B0F022E0540FF02290F40974C7
:1058300017F090F100E04440F090F408116B54F739
:10584000F090F430E04401F090A356E04420F09052
:10585000A357742CF090A35874BAF07F0111737F92
:1058600001111A90F1A8E054FEF022E04402F05435
:10587000FBF022EF640190A3567005E04410F02283
:10588000E054EFF022C0E0C0F0C083C082C0D07509
:10589000D000C000C001C002C003C004C005C006E3
:1058A000C007E4FF1242E8EF600CE4FF12428A12E4
:1058B00043FF7F01111AD007D006D005D004D003D2
:1058C000D002D001D000D0D0D082D083D0F0D0E0B0
:1058D0003211E37811E6C39E5008E490F433F006E9
:1058E00080F122AE07E4FF124792E47811F622E439
:1058F000FF7829E624FE601524FE601E2403702331
:1059000090F1C9E05411641170197F012290F1C91E
:10591000E054336433700C7F012290F1C9E0F470DD
:10592000027F0122AE07782AE6FD7C006401700543
:10593000900407F022C3ED9402EC6480948040361A
:105940007823E66401600711EFEF6401701F900493
:1059500007E004F078237601E06401700974452EB5
:10596000F8740146F62274452EF876012274452E0D
:10597000F874FE56F622782AE67016083192401125
:105980007823E664017F8070027F0174452EF8A6BB
:105990000722E6C39402748094802274352FF8E6BF
:1059A000540F782AF664017041792BE766601D1266
:1059B0003DC4E4FD7F035110E4FD7F045110E4FD7C
:1059C0007F055110E4FD7F06511071957F0191DA3A
:1059D00078267601E47822F608F608F67F01D1D021
:1059E000E4FFD1E2782AE608F622782AE6FF31932E
:1059F000400308A6072251107D020F51107D0F0FA2
:105A000051107D040F5110E4FD0F51100F51100F74
:105A100090F105EFF090F153EDF0227901900264DE
:105A2000E07F0060027F01AE07900265E07F80604A
:105A3000027FC0AC07900266E07F0060027F80AB0F
:105A400007E4FF51DB7D1251D4641E70057D140FF5
:105A5000800790026AE0FD7F01511090026BE04CDC
:105A6000FD7F025110EB4E0F51C4AD010F31F67D99
:105A7000810F5110E4FD7F21510A7F60510A7D089A
:105A80007F805110E4FD7F9051107F0151DB7F0A30
:105A900051107F2251DB7D14E4FF51D4FD0F5110D2
:105AA00090026BE04CFD0F5110AF06EB4F7F03519E
:105AB000C4AF01AD077F0731F67D810F51107D081E
:105AC0007F104110FD51107D010F51101D0F51101D
:105AD0000D0F4110511090026AE022E490F103F0A2
