:100000000210FF0276BB022FDE2222027F9C023703
:10001000FE22220280EFE4FFFE1206C4600C0FEF06
:1000200070010E09E970F20A80EF220280F4EE30CE
:10003000E707C3E49FFFE49EFE227BFFE4FF022A62
:100040003022220280F002038EE86480F8E933E86F
:100050003360110460F0ED33EC337009E8FCE9FD26
:10006000EAFEEBFF220460DED3EB9FEA9EE99DE807
:10007000C2E78CF0C2F795F0400CE8CCF8E9CDF976
:10008000EACEFAEBCFFB12035985D0F05804700387
:1000900020D5B3E80470075002B2D502039892D578
:1000A000EC0460F7E4CCC0E0C398F8603B941860BF
:1000B00008400DD0E0FB020370E4FBFAC9FC802885
:1000C000E830E406E4C9FBE4CAFCE830E305E4C92F
:1000D000CACBFCE854076010F8C3E913F9EA13FA35
:1000E000EB13FBEC13FCD8F130F52FC3E49CFCEFD1
:1000F0009BFFEE9AFEED99FDD0E0FBEF4E4D4C706C
:100100001222DB03020395EC2CFCEF33FFEE33FEEF
:10011000ED33FDED30E7EB020370EF2BFFEE3AFE1F
:10012000ED39FDD0E0FB50130BBB0003020398ED4B
:1001300013FDEE13FEEF13FFEC13FC020370EC4D06
:100140006011E8497017ED33EC3304600DE4FCFFF7
:10015000FEFD22E933E8330470F802038E120359DE
:1001600058046009E4CC2481500628500902039801
:10017000284003020395C0E0EB4A7044B98006D0E2
:10018000E0FB020384EF4E701CBD8008EBFFEAFE2B
:10019000E9FD80EBE98DF0A4FEE5F0020227E9CD50
:1001A000F9EAFEEBFFEF89F0A4FCE5F0CE89F0A4BC
:1001B0002EFFE435F0CD89F0A42DFEE435F0806704
:1001C000EF4E7005BD80D780C3EF8BF0A4ACF0EE8E
:1001D0008BF0A42CFCE435F0F8EF8AF0A42CE5F0C9
:1001E00038FCE433CB8DF0A42CFCE5F03BF8EE8A30
:1001F000F0A42CFCE5F038F8E433CF89F0A42CFC13
:10020000E5F038CF3400CE89F0A42FFFE5F03EFEB4
:10021000E433C98DF0A42EFEE5F039CD8AF0A42F89
:10022000FFE5F03EFEE43DFD33D0E0FB50070BBBA5
:10023000000F020398EC2CFCEF33FFEE33FEED339E
:10024000FD020370020398EC5D046005E859047038
:100250000302038E120359580460F6EC4860F2EC76
:100260007004FDFEFF22C860DB2481C85009C398DA
:10027000600250060203959850CAF582E9294B4A5C
:100280007005AB8202038475F0007C1A7880C3EF9E
:100290009BEE9AED99400DC3EF9BFFEE9AFEED9910
:1002A000FDE842F0DC23ACF0D0E0FFD0E0FED0E08F
:1002B000FDAB8220E7101BEB60BAEC2CFCEF33FFA8
:1002C000EE33FEED33FD020370E803F830E705C0BE
:1002D000F075F000EF2FFFEE33FEED33FD40B83048
:1002E000E7C280AA75F020800E75F010800575F0C9
:1002F000087D007E007F003392D530D50312098E31
:10030000EC334010EF33FFEE33FEED33FDEC33FC06
:10031000D5F0ED22E5F0247EA2D513CC92E7CDCE28
:10032000FF22EDD2E7CD33EC3392D524814006E4B1
:10033000FFFEFDFC22FCE4CFCECDCC24E0501174B6
:10034000FF80EDC3CC13CCCD13CDCE13CECF13CFC6
:100350000470F030D5DE02098EE9D2E7C933E83304
:10036000F892D5EDD2E7CD33EC33FC5002B2D52272
:10037000EC30E7100FBF000C0EBE00080DBD0004EE
:100380000BEB6014A2D5EB13FCED92E7FD2274FF9A
:10039000FCFDFEFF22E480F8A2D574FF13FC7D80F3
:1003A000E480EF74F8CC6480CCC86480C8F5820423
:1003B000604FC3EB9FF5F0EA9E42F0E99D42F0E802
:1003C0009C45F0603C501DE5825FFFE582D313CB76
:1003D0005BCBF42B5582FB50280ABA002409B900E4
:1003E0002008801DE5825BFBE582D313CF5FCFF44D
:1003F000C3132F5582FF50090EBE00050DBD00012D
:100400000CC3EB9FF5F0EA9E42F0E99D42F0E89CB8
:1004100045F06007CC4820E701B3EC22F920E7362D
:1004200024F950037907E4F42402FBE58215827075
:10043000021583DBF6E024FB501BE96014E4F0E5D1
:1004400082158270021583E004F0B40A08E4F0D942
:10045000EE7401F00A22C2D522ED33EC3392D5FAC4
:10046000602AB4FF33EDC2E77BFF60067A04797E31
:10047000E4227A04798720D5047A047982224E61B5
:100480004E002B494E46002D494E4600E47A08F0B6
:10049000A3DAFC7B00740722C083C082ECC0E0EDCD
:1004A000C0E0EEC0E0EFC0E0EA75F010A4CAABF027
:1004B00075F04DA42BFBE435F0FCEA2410FAEB3484
:1004C000C5FBEC34D9FCEDC2E7FF75F056A4F4246B
:1004D00011C5F0F434C58FF0A42AE5F03BE43CF0FC
:1004E00020E71412058ED0E0FFD0E0FED0E0FDD072
:1004F000E0FC1202478014F40412058ED0E0FFD015
:10050000E0FED0E0FDD0E0FC12013ED082D083E0DE
:10051000FAEDD2E7CD33EC332482FBE4C3CF33CF03
:10052000CE33CECD33CD33DBF37B0775F00A846059
:1005300004F0A31B0AE5F0F0A38FF0740AA4FFAC4B
:10054000F08EF0740AA42CFEACF050010C8DF07407
:100550000AA42CFDE435F0F0A3DBDE7407223F8013
:1005600000004120000042C80000447A0000461C00
:10057000400047C35000497424004B1896804CBE7D
:10058000BC205A0E1BCA6753C21C749DC5AEFB60CB
:10059000065407601C23231205BCEB543860091273
:1005A00005A81205B712013EECF8EDF9EEFAEFCB13
:1005B00022EB1205B780F1543803241C90055EFE2F
:1005C00093FC0EEE93FD0EEE930ECE93FF22E70901
:1005D000F608DFFA8046E709F208DFFA803E8882F3
:1005E0008C83E709F0A3DFFA8032E309F608DFFA2B
:1005F0008078E309F208DFFA807088828C83E3094F
:10060000F0A3DFFA806489828A83E0A3F608DFFA28
:10061000805889828A83E0A3F208DFFA804C80D276
:1006200080FA80C680D4806980F28033801080A6F2
:1006300080EA809A80A880DA80E280CA803389824A
:100640008A83ECFAE493A3C8C582C8CCC583CCF0F6
:10065000A3C8C582C8CCC583CCDFE9DEE7800D899D
:10066000828A83E493A3F608DFF9ECFAA9F0EDFBA4
:100670002289828A83ECFAE0A3C8C582C8CCC583EC
:10068000CCF0A3C8C582C8CCC583CCDFEADEE88045
:10069000DB89828A83E493A3F208DFF980CC88F0B7
:1006A000EF60010E4E60C388F0ED2402B4040050E8
:1006B000B9F582EB2402B4040050AF232345822312
:1006C00090061E73BB010689828A83E0225002E7EE
:1006D00022BBFE02E32289828A83E49322BB010CBF
:1006E000E58229F582E5833AF583E0225006E92583
:1006F00082F8E622BBFE06E92582F8E222E582299D
:10070000F582E5833AF583E49322BB010689828A68
:1007100083F0225002F722BBFE01F322F8BB010D49
:10072000E58229F582E5833AF583E8F0225006E96F
:100730002582C8F622BBFE05E92582C8F222EF8D8C
:10074000F0A4A8F0CF8CF0A428CE8DF0A42EFE2229
:10075000BC000BBE0029EF8DF084FFADF022E4CC8D
:10076000F875F008EF2FFFEE33FEEC33FCEE9DEC56
:10077000984005FCEE9DFE0FD5F0E9E4CEFD22ED9C
:10078000F8F5F0EE8420D21CFEADF075F008EF2FE6
:10079000FFED33FD4007985006D5F0F222C398FDD7
:1007A0000FD5F0EA22C2D5EC30E709B2D5E4C39DFB
:1007B000FDE49CFCEE30E715B2D5E4C39FFFE49E58
:1007C000FE120750C3E49DFDE49CFC800312075019
:1007D00030D507C3E49FFFE49EFE22C5F0F8A3E0F6
:1007E00028F0C5F0F8E582158270021583E038F034
:1007F00022BB0110E58229F582E5833AF583E0F515
:10080000F0A3E0225009E92582F886F008E622BB31
:10081000FE0AE92582F8E2F5F008E222E5832AF5EE
:1008200083E993F5F0A3E99322F8BB0111E582294E
:10083000F582E5833AF583E8F0E5F0A3F02250096C
:10084000E92582C8F608A6F022BBFE09E92582C880
:10085000F2E5F008F222EF2BFFEE3AFEED39FDEC67
:1008600038FC22C3EF9BFFEE9AFEED99FDEC98FC5D
:1008700022E88FF0A4CC8BF0A42CFCE98EF0A42C01
:10088000FC8AF0EDA42CFCEA8EF0A4CDA8F08BF04D
:10089000A42DCC3825F0FDE98FF0A42CCD35F0FC4B
:1008A000EB8EF0A4FEA9F0EB8FF0A4CFC5F02ECD17
:1008B00039FEE43CFCEAA42DCE35F0FDE43CFC22FC
:1008C00075F008758200EF2FFFEE33FECD33CDCCEF
:1008D00033CCC58233C5829BED9AEC99E582984072
:1008E0000CF582EE9BFEED9AFDEC99FC0FD5F0D64F
:1008F000E4CEFBE4CDFAE4CCF9A88222B800C1B979
:100900000059BA002DEC8BF084CFCECDFCE5F0CBB6
:10091000F97818EF2FFFEE33FEED33FDEC33FCEBEF
:1009200033FB10D703994004EB99FB0FD8E5E4F9AA
:10093000FA227818EF2FFFEE33FEED33FDEC33FC97
:10094000C933C910D7059BE99A4007EC9BFCE99A8B
:10095000F90FD8E0E4C9FAE4CCFB2275F010EF2FD0
:10096000FFEE33FEED33FDCC33CCC833C810D707D0
:100970009BEC9AE899400AED9BFDEC9AFCE899F80B
:100980000FD5F0DAE4CDFBE4CCFAE4C8F922C3E4F5
:100990009FFFE49EFEE49DFDE49CFC22EB9FF5F0AE
:1009A000EA9E42F0E99D42F0E89C45F022E8600FA3
:1009B000ECC313FCED13FDEE13FEEF13FFD8F12291
:1009C000E8600FEFC333FFEE33FEED33FDEC33FC95
:1009D000D8F122BB010789828A83020A0D5005E9FA
:1009E000F8020B16BBFE05E9F8020B2289828A8306
:1009F000020B2EBB010789828A83020A255005E972
:100A0000F8020B3EBBFE05E9F8020B4A22E0FCA30C
:100A1000E0FDA3E0FEA3E0FF22E0F8A3E0F9A3E0FD
:100A2000FAA3E0FB22ECF0A3EDF0A3EEF0A3EFF0CD
:100A300022A8828583F0D083D082120A48120A4805
:100A4000120A48120A48E473E493A3C583C5F0C5AB
:100A500083C8C582C8F0A3C583C5F0C583C8C58255
:100A6000C822E0FBA3E0FAA3E0F922F8E0FBA3A38D
:100A7000E0F925F0F0E582158270021583E0FA387E
:100A8000F022EBF0A3EAF0A3E9F022E493FB740177
:100A900093FA740293F922D083D082F8E49370120F
:100AA000740193700DA3A393F8740193F582888366
:100AB000E4737402936860EFA3A3A380DFEC8EF06D
:100AC000A4CCC5F0CCCDF8EFA4CEC5F02DFDE43C10
:100AD000FCE8A42EC8C5F03DFDE43CFCEFA4FFE516
:100AE000F028FEE43DFDE43CFC22EF4E6012EF6096
:100AF000010EEDBB010B89828A83F0A3DFFCDEFAD5
:100B00002289F05007F709DFFCA9F022BBFEFCF3B5
:100B100009DFFCA9F022E6FC08E6FD08E6FE08E68F
:100B2000FF22E2FC08E2FD08E2FE08E2FF22E49375
:100B3000FC740193FD740293FE740393FF22ECF6A0
:100B400008EDF608EEF608EFF622ECF208EDF208F2
:100B5000EEF208EFF222E508244FF582E43403F5C3
:100B600083E005082290034C30070390034FE4759F
:100B7000F001120A6B0206C42000E97F2ED2008029
:100B800018EF540F2490D43440D4FF30040BEF24DA
:100B9000BFB41A0050032461FFE50960021509057E
:100BA0000CE50C7002050B30070E90034CE475F059
:100BB00001120A6BEF02070A020FD97403D20780F1
:100BC00003E4C207F50890034C120A82E4F509F524
:100BD0000BF50CE50960077F20120B9980F5750A6B
:100BE000FFC201C200C202C203C205C206C208128D
:100BF0000B65FF700D3007057F00120BAAAF0CAE1E
:100C00000B22B4255FC2D5C204120B65FF24D0B4F9
:100C10000A00501A75F00A780930D50508B6FF01A8
:100C200006C6A426F620D5047002D20380D924CFAC
:100C3000B41A00EF5004C2E5D204020E9CD2018027
:100C4000C6D20080C0D20280BCD2D580BAD2058084
:100C5000B47F20120B992002077401B5090040F1FE
:100C6000120B56FF120B99020BD3D208D2068095B5
:100C7000120B56FB120B56FA120B56F94A4B700622
:100C8000799A7A0F7BFF20022EE509602A7E008E7A
:100C9000827583001206DD60060EEE650A70F0C2F2
:100CA000D5EBC0E0EAC0E0E9C0E0EE120EFDD0E016
:100CB000F9D0E0FAD0E0FB1206C4FF60AAEBC0E076
:100CC000EAC0E0E9C0E0120B99D0E02401F9D0E0DD
:100CD0003400FAD0E0FBE50A0460DCD50AD980874D
:100CE000D20280A2120EDF60F7E50A70010412043E
:100CF0001CA90A600DE50A600914F50A120F87EFB6
:100D000060F3EA30E702F404C3995079EAF4250A63
:100D10000430E701E404F50A800D120EDF60C1EA39
:100D2000050A250A12041CEA90037BF030E701E46F
:100D3000250A04D50A0420050114120EFDE4C0E0C2
:100D4000120F8790037BE0601320E70714F0120B6B
:100D500081802204F0D0E014C0E07F00120B81E516
:100D60000A6007120B78150A800B300503120B7806
:100D7000D0E0020BD3D0E00480C4120EDF609EE509
:100D80000A0412041C90037BEAF0E50A20050260C5
:100D900001042404120EFD74FF04C0E0120F871238
:100DA0000B81E50A2005026003120B78D0E0B50A3A
:100DB000E87F45120B8B90037BE07F2B30E7047FAD
:100DC0002DF404C0E0120B99D0E075F00A84C0F055
:100DD000120B82D0E0120B82020BD37910800279C1
:100DE00008C206C2088008D2D5790A8004790AC2EE
:100DF000D5E50A047002F50AE4FAFDFEFF120B566F
:100E0000FC7B08200113120B56FD7B1030000A12E8
:100E10000B56FE120B56FF7B20EC3382D592D55039
:100E200013C3E43000069FFFE49EFEE42001039D0F
:100E3000FDE49CFCE4CBF8C201EC700CCFCECDCC31
:100E4000E824F8F870F38017C3EF33FFEE33FEEDBC
:100E500033FDEC33FCEB33FB994002FB0FD8E9EB9D
:100E6000300105F8D0E0C448B201C0E00AEC4D4EB4
:100E70004F78207B0070C2EAB50A0040BCC0E01287
:100E80000EFFD0F0D0E0200104C4C0E0C4B201C025
:100E9000F0120B82D0F0D5F0EB020BD3120A970CB4
:100EA00070530DDB580C414C0C3D420DDF4F0DE7EC
:100EB000440DE7490C56430DED550D1A460D7A4584
:100EC0000CE4470FBA500C452D0C492E0C6C2B0C22
:100ED0004D230C6A200FA32A0C054800000C64E582
:100EE0000AB4FF03750A06120B56FC120B56FD12CC
:100EF0000B56FE120B56FF900374020459790AA296
:100F0000D5200314300509B910020404B9080104FE
:100F1000A2D52006025001042002689202B5090001
:100F20005034C0E07F203003197F30A20272067275
:100F300005500F120F56C202C206C205C2087F300A
:100F4000800F300503E9C0E0120B99300503D0E0B3
:100F5000F9D0E0B509CC3005177F30B9100C120B71
:100F6000997F583004077F788003B90803120B99E2
:100F70003002057F2D020B997F202008F87F2B205F
:100F800006F322920280CF7F00B40700500B247436
:100F9000F582E43403F583E0FF22286E756C6C293A
:100FA00000D201120B563001F8C201780930D50188
:100FB00008F6020C052D50434958120B562403B471
:100FC00005004001E4900FB593120B8A743A120B9E
:100FD0008AD203750904020DDBEFB40A07740D12FF
:100FE0000FE4740A309811A899B8130CC29830987D
:100FF000FDA899C298B811F63099FDC299F59922C9
:1010000025091501FFFFFFFFFFFFFFFFFFFFFFFFA8
:10101000900265120A2574FFFFFEFDFC900265E058
:10102000F8A3E0F9A3E0FAA3E0FBC312099C60383F
:101030007F807E967D187C4B900265E0F8A3E0F9F6
:10104000A3E0FAA3E0FB1203A36002501B7F807EA3
:10105000967D187CCB900265E0F8A3E0F9A3E0FA56
:10106000A3E0FB1203A3500F900265E0FCA3E0FD98
:10107000A3E0FEA3E0FF22900265E0FCA3E0FDA355
:10108000E0FEA3E0FF120322900269120A259002FB
:1010900069E0FCA3E0FDA3E0FEA3E0FFEC1202E4A4
:1010A000C8ECC8C9EDC9CAEECACBEFCB900265E067
:1010B000FCA3E0FDA3E0FEA3E0FF120049E4FBFA7D
:1010C000F9F81203A35025900269E0FCA3E0FDA308
:1010D000E0FEA3E0FFE4FAF9F8EF2401FFEA3EFEA8
:1010E000E93DFDE83CFC900269120A25900269E0A6
:1010F000FCA3E0FDA3E0FEA3E0FFEC1202E42278F3
:101100007FE4F6D8FD758166021146022596E493C8
:10111000A3F8E493A34003F68001F208DFF48029EA
:10112000E493A3F85407240CC8C333C4540F4420D9
:10113000C8834004F456800146F6DFE4800B0102C8
:1011400004081020408090118BE47E019360BCA3C2
:10115000FF543F30E509541FFEE493A360010ECF16
:1011600054C025E060A840B8E493A3FAE493A3F840
:10117000E493A3C8C582C8CAC583CAF0A3C8C58200
:10118000C8CAC583CADFE9DEE780BE4103FC00446C
:1011900003F8000000004104090041040800410474
:1011A00007004103FF0041040A0041037F0044039C
:1011B0008000000000602800000010000E000112F6
:1011C000101E000218213E00031E410D00041001F4
:1011D0002C000518240C000618231C000718203DBD
:1011E000004103DD005A03DE000DDAE011B610E025
:1011F000006C0028004208B10870003900040004A7
:10120000010100900346E0FFA3E0FEA3E0CF9003BE
:101210004FF0A3EEF0A3EFF0900349E0CBF0A3E092
:10122000CAF0A3E0C9F07F22900352AD82AC8312D2
:1012300006C48D828C83F0A309E970010ADFEC906B
:101240000349E0FBA3E0FAA3E0F9020BBBC2D5E837
:1012500030E70FB2D5E4C39BFBE49AFAE499F9E4D2
:1012600098F8EC30E717B2D51212831208FCE4C3E9
:101270009BFBE49AFAE499F9E498F880031208FCDD
:1012800030D50DE4C39FFFE49EFEE49DFDE49CFC8D
:101290002254785374617465203D203078253032B3
:1012A000627800525820536574204576656E743A12
:1012B000253032627820004D697069496E436C6B4D
:1012C0003A256C642C2063616C6320756C427974E0
:1012D00065636C6B3A256C642C20756C506879439F
:1012E0006C6B3A256C642C2075634270703A2562F1
:1012F000642C2075635478506F72744E756D3A305B
:101300007825303262782C20756354784C616E6594
:101310004E756D3A307825303262780042757273BE
:1013200074204D6F6465206C616E65207261746518
:1013300020696E6372656173652038304D005258C4
:101340005B485D3A2048746F74616C3A25642C48A0
:101350006163746976653A25642C4873773A25642D
:101360002C4866703A25642C4862703A25642C48F3
:1013700073706F6C3A2562640052585B565D3A2078
:1013800056746F74616C3A25642C56616374697687
:10139000653A25642C5673773A25642C5666703A64
:1013A00025642C5662703A25642C5673706F6C3A23
:1013B00025626400506F72743A2025303262782CB6
:1013C000204C616E653A20253032627800445343E8
:1013D00020736F667420776F7264636E743B007263
:1013E0006462797465636C6B3A25642C2072647056
:1013F0006978636C6B3A256420006873773A2564DA
:101400002C206862703A256420686163746976658F
:101410003A2564007563427070203078253032625E
:10142000783B00726561642064656C61793A256C73
:10143000750041645F6C6D74785F77726974655F85
:10144000636C6B203D20256C756B687A0041645F8E
:101450006C6D74785F726561645F636C6B203D20B6
:10146000256C756B687A0000FFFFFFFFFFFF000629
:10147000B3A02801010101041F0103803E2278EE80
:101480006995AD5246A1270F5054BFCF00814081CE
:10149000809500714F81C0B300D1C0010108E80000
:1014A00030F2705A80B0588A0055502100001E005A
:1014B0000000FD0018901EFF8A000A202020202036
:1014C00020000000FC005647323855514C31410A8B
:1014D000202020000000FF00313233343536373809
:1014E000393032380A01F002035AF15004131F1048
:1014F0000F1E015D5E5F60617603123F23090707DF
:1015000083010000E200EA6D030C001000383C2863
:1015100000600102036DD85DC401788853123078F1
:1015200083341D6D1A000002013090F000000000AD
:1015300000E305C000E421001C00E6060501606030
:1015400012366C80A070703E803020080C6D5521E2
:1015500000001A6FC200A0A0A05550302035006DC9
:10156000552100001A0027000000000000000000C4
:10157000000000000000000000000000000000006B
:10158000000000000000000000000000000000005B
:10159000000000000000000000000000000000004B
:1015A000000000000000000000000000000000003B
:1015B000000000000000000000000000000000002B
:1015C000000000000000000000000000000000001B
:1015D000000000000000000000000000000000000B
:1015E00000000000000000000000000000000000FB
:1015F00000000000000000000000000000000000EB
:1016000000000000000000000000000000000000DA
:1016100000000000000000000000000000000000CA
:1016200000000000000000000000000000000000BA
:1016300000000000000000000000000000000000AA
:10164000000000000000000000000000000000009A
:10165000000000000000000000000000000000008A
:10166000000000000000000A5468697320666D20C5
:101670007278706C6C5F696E5F636C6B000A5468A3
:10168000697320666D20646874785F6469765F6C46
:10169000696E6B5F636C6B000A5741524E494E474F
:1016A0003A2046726571206D6574657220676574B5
:1016B000206661696C005761726E696E673A2069D5
:1016C0006E70757420697320696E76616C69640050
:1016D0000A6C6F6164206B657920646F6E655B30A6
:1016E0007825303262785D000A5061747465726EDC
:1016F000207063722062616E64203D203078253056
:10170000326278000A5061747465726E2070637280
:10171000206C6F636B004D495049566964496E6691
:101720006F557064617465212121212121004D498B
:101730005049566964496E666F436C656172212138
:101740002121212100417564496E666F55706461E5
:10175000746521212121212100417564496E666F44
:10176000436C656172212121000A466C6173682017
:1017700045444944204C6F6164000A466C617368BB
:101780002045444944206E6F742065787369743A2B
:101790000054784576656E742D2562640000000063
:1017A0000000000000000000000000000000000039
:1017B0000000000000000000000000000000000029
:1017C0000000000000000000000000000000000019
:1017D0000000000000000000000000000000000009
:1017E00000000000000000000000000000000000F9
:1017F00000000000000000000000000000000000E9
:1018000000000000000000000000000000000000D8
:1018100000000000000000000000000000000000C8
:1018200000000000000000000000000000000000B8
:1018300000000000000000000000000000000000A8
:101840000000000000000000000000000000000098
:101850000000000000000000000000000000000088
:101860000000000000000000000000000000000078
:101870000000000000000000000000000000000068
:101880000000000000000000000000000000000058
:101890000000000000000000000000000000000048
:1018A0000000000000000000000000000000000038
:1018B0000000000000000000000000000000000028
:1018C0000000000000000000000000000000000018
:1018D0000000000000000000000000000000000008
:1018E00000000000000000000000000000000000F8
:1018F00000000000000000000000000000000000E8
:1019000000000000000000000000000000000000D7
:1019100000000000000000000000000000000000C7
:1019200000000000000000000000000000000000B7
:1019300000000000000000000000000000000000A7
:101940000000000000000000000000000000000097
:101950000000000000000000000000000000000087
:101960000000000000000000000000000000000077
:101970000000000000000000000000000000000067
:101980000000000000000000000000000000000057
:10199000000000000000000000000000004D697021
:1019A0006920445349204F7574004D697069204384
:1019B0005349204F7574004D697069204F7574202C
:1019C00044697361626C6500506F727420307E33BD
:1019D0002052702043616C6920526573756C743AB3
:1019E0002025303262782C2025303262782C202558
:1019F000303262782C20253032627800506F727459
:101A000020307E332052642043616C69205265731C
:101A1000756C743A2025303262782C202530326281
:101A2000782C2025303262782C20253032627800E4
:101A30004450687920436C6B206275727374204D3A
:101A40006F6465004450687920436C6B20636F6E4F
:101A500074696E7565204D6F646500445349207646
:101A60006964656F204E4F4E5F42555253545F4D2F
:101A70004F44455F574954485F53594E435F45565D
:101A8000454E540044534920766964656F204E4F9B
:101A90004E5F42555253545F4D4F44455F57495432
:101AA000485F53594E435F50554C5345004453498A
:101AB00020766964656F2042555253545F4D4F4400
:101AC00045004D49504954585F33445F4D4F44459C
:101AD0003A204D4950495F4C4546545F524947486A
:101AE000545F4D4F4445004D49504954585F33446D
:101AF0005F4D4F44453A204D4950495F4E4F5F334B
:101B0000445F4D4F44450076636F204461746152D9
:101B10006174653A20256C752C20256C7500506F1A
:101B2000737420646976203D2032004132303720C2
:101B300052475F4C4D5458504C4C5F52414E4745B4
:101B40005F53454C203A203078253032627800418E
:101B5000323041204C4D5458504C4C5F4449565FF4
:101B6000534554203A2030782530326278004C4D6D
:101B70005458504C4C2063616C69206661696C005C
:101B80004C4D5458504C4C206C6F636B20666C610C
:101B9000673A3078253032627820004C4D545850E6
:101BA0004C4C20756E6C6F636B004C4D5458504C10
:101BB0004C2063616C6962726174696F6E2062614E
:101BC0006E646F75743A2030782530326278203038
:101BD000782530326278004279746520636C6B3A04
:101BE00025754D687A00636B5F706F7374202830C1
:101BF000784639413929203D2030782530326278C5
:101C000000636B5F7A65726F202830784639413700
:101C100029203D20307825303262780068735F6C6F
:101C2000707820202830784639413429203D2030F2
:101C30007825303262780068735F70726570202892
:101C400030784639413529203D20307825303262C0
:101C5000780068735F747261696C28307846394126
:101C60003629203D20307825303262780068735F55
:101C700072717374202830784639384129203D200C
:101C8000307825303262780000000000000000004B
:101C90000A547261696E696E6720657120696E66AB
:101CA0006F3A000A4C302076616C69645B307825AD
:101CB0003034785D2C45515B307825303262785D68
:101CC000000A4C312076616C69645B3078253034D1
:101CD000785D2C45515B307825303262785D000AA2
:101CE0004C322076616C69645B3078253034785DE5
:101CF0002C45515B307825303262785D000A4C33D8
:101D00002076616C69645B3078253034785D2C45D1
:101D1000515B307825303262785D000A4551486960
:101D200067203D2030782530326278000A45514CDA
:101D30006F77203D2030782530326278000A534397
:101D4000414E205354524154000A46454353544196
:101D50005445203D2030782530326278000A4C61AD
:101D60006E65457272203D203078253034782C30F5
:101D700078253034782C3078253034782C3078251C
:101D8000303478000A5363616E5F45514C4F5720E1
:101D90003D20307825303262782C30782530326220
:101DA000782C307825303262782C307825303262C9
:101DB00078000A5363616E5F4551484947203D20D2
:101DC000307825303262782C307825303262782CA9
:101DD000307825303262782C3078253032627800C5
:101DE0000A414344525F4953535545000A56616CBA
:101DF00069644571203D20307825303262782C307E
:101E00007825303262782C307825303262782C3068
:101E1000782530326278000A536B6577203D203098
:101E20007825303262782C307825303262782C3048
:101E30007825303262782C30782530326278000094
:101E4000000102030405060708090A0B0C0D0E0F1A
:101E50000F0F0F0F0F0F0F0F0F0F0F0F0F0F0F0F92
:101E60000000000000000000000000000000000072
:101E7000000102030405060708090A0B0C0D0E0FEA
:101E80000FFFFFFFFFFFFFFFFFFFFFFFFF0000004F
:101E90000001010101000000000A436F6C6F7269CC
:101EA0006D65747279206368616E6765203D2030CE
:101EB000782530326278000A44705278494E464F95
:101EC0003A000A486270202020203A20252D3864EC
:101ED0002020566270202020203A20252D386400D2
:101EE0000A486670202020203A20252D38642020C2
:101EF000566670202020203A20252D3864000A489C
:101F000073796E6320203A20252D38642020567383
:101F1000796E6320203A20252D3864000A486163D9
:101F2000742020203A20252D3864202056616374C7
:101F30002020203A20252D3864000A48746F6C2038
:101F400020203A20252D3864202056746F6C2020E4
:101F5000203A20252D3864000A44657074682020DA
:101F60003A20252D3862642020537061636520205B
:101F70003A20252D386264000A506978436C6B2042
:101F80003A20252D386C6420205065616B436C6BC2
:101F90003A20252D386C64000A52656672657368B4
:101FA00052617465203D202564000A5278537461A3
:101FB0007465203D20256264000A447052782055E3
:101FC0006E706C7567000A527820506C7567000A55
:101FD0005761697420454343000A45636320657275
:101FE00072000A52782072652D747261696E696E92
:101FF00067000A534B657720556E6C6F636B000A60
:10200000436F6C6F72207370616365206368616EEB
:102010006765000A4D7361206368616E6765000A39
:102020004453432043484E47000A476F746F205083
:102030004352000A417564696F20636867000A4172
:1020400043445220556E6C6F636B000A52415445F5
:102050005F4C414E45203D20307825303262782C4F
:1020600030782530326278000A44652D736B6577CD
:1020700020657272000A5761697420706372207360
:102080007461626C652E2E2E000A50435220484126
:10209000524420524553455400447363456E6320B7
:1020A000536C696365203D202562642C436F6D701D
:1020B00072657373526174696F203D2025626400FC
:1020C000447363456E6320536C6963654865696753
:1020D0006874203D2025642C536C696365576964DE
:1020E0007468203D2025642C4368756E6B53697AB3
:1020F00065203D2025640041645F63736374785FED
:1021000068616C665F7069785F636C6B203D202549
:102110006C756B687A0041645F64736374785F64A4
:1021200073635F72645F636C6B203D20256C756B1D
:10213000687A0041645F64736374785F6473635F9B
:10214000636C6B203D20256C756B687A0041645F81
:1021500064736374785F6473635F6F75745F636CDB
:102160006B203D20256C756B687A0011000089306A
:1021700080087008700010021C021C0200020E0091
:102180002001840007000C0667065C180010F003AD
:102190000C2000060B0B330E1C2A38465462697063
:1021A00077797B7D7E01020100094009BE19FC1987
:1021B000FA19F81A381A781AB62AF62B342B743B07
:1021C000746BF400000000000011000089308008EA
:1021D0007008700010021C021C0352020E00200046
:1021E000000007000C0667065C18000A4750494FBC
:1021F0002054726967676572204C6F77000A4750F8
:10220000494F2054726967676572204869676800A2
:102210000A44702052782076696420696E666F3AAD
:10222000000A436F6C6F7253706163655B25626473
:102230005D000A436F6C6F7244657074685B256261
:10224000645D000A52785F5065616B5F636C6B2060
:102250003D2020256C640075636142726967687473
:102260006E6573735B315D3A307825303262782C5D
:10227000207563614272696768746E6573735B325F
:102280005D3A3078253032627800445052585F53BE
:1022900054415449435F4844525F4E4F5449465954
:1022A0005F4556454E540054585F564944454F5F6C
:1022B0004F4E5F4556454E545F3300445052585F71
:1022C000564944454F5F4F46465F4556454E54007C
:1022D000000000444542554700494E464F005741D3
:1022E000524E004552524F520043524954000A5B2D
:1022F000252D35735D2025730003FF22D3FF22D9DE
:10230000FF22DEFF22E3FF22E900000000000000C0
:1023100000000000000000000000000000000000BD
:1023200000000000000000000000000000000000AD
:10233000000000000000000000000000000000009D
:10234000000000000000000000000000000000008D
:10235000000000000000000000000000000000007D
:10236000000000000000000000000000000000006D
:10237000000000000000000000000000000000005D
:102380000000000000000000000A4470527820485D
:10239000504420495251000A447052782048504419
:1023A0002048696768000A447052782048504420E9
:1023B0004C6F77000A527820527465726D206973F1
:1023C0002030782530326278000A43616C692073CE
:1023D000756363657373000A43616C6920666169A4
:1023E0006C6564000A4470207278706C6C206261C5
:1023F0006E64203D20307825303262782C3078258C
:10240000303262782C307825303262782C30782562
:1024100030326278000A706372206873796E6320CC
:102420006D6F6465002120212000F02222222223EA
:10243000805656AAAA40636868CCCCC0FE436F6C35
:102440006F7253706163653A20256264202C2043CB
:102450006F6C6F7244657074683A20256264004442
:1024600053435B485D3A2048746F74616C3A25644D
:102470002C486163746976653A25642C4873773A11
:1024800025642C4866703A25642C4862703A2564AD
:102490002C4873706F6C3A256264004453435B565A
:1024A0005D3A2056746F74616C3A25642C566163F2
:1024B000746976653A25642C5673773A25642C56F0
:1024C00066703A25642C5662703A25642C567370F7
:1024D0006F6C3A256264004D697069204443532053
:1024E000454E44000511000529000510000528008F
:1024F0001536C615B00039B9132A026439EC05D86F
:1025000015D60015B00315350015364015260115F2
:1025100003010A43686970506F7765724F6E000A55
:1025200046575F564552203D20307825303262783C
:102530002C307825303262782C3078253032627831
:10254000000A496E636F72726563742050574D20A4
:1025500044757479000A50574D20447574793A25B2
:102560006264000A4653203D20307825303262787C
:1025700000901000E49390E080F0901001E49390BC
:10258000E081F0901002E49390E082F0901003E478
:102590009390E083F0221275CC127F40126D15B13A
:1025A00071B1CA7A25791212003A7A25791F90E022
:1025B0008112850290E082E090029BF090E083120D
:1025C000562B12823C123E5180F81280F912811172
:1025D0007F01D13E7F0112783F127D1B7B017D0C74
:1025E0007F09123BE112386A1200097B32126C54E7
:1025F000E49003FCF0127CC5128662E0A3F022EFA7
:102600006401701790E128F090E580E054F7D1372D
:1026100054FDF0ED54FB90E580F02290E580E0441D
:1026200004D1374402F0ED440890E580F090E128B1
:1026300074FFF022E04401F0FD90E10BE022B1FFD5
:102640007F01EF6401701790E129F090E580E0547C
:10265000FDD13754FEF0ED54FE90E580F02290E578
:1026600080D1344401F0ED440290E580F090E129FE
:1026700074FFF02290002CE024FE601A14604314D2
:102680006069147002E115147002E1922405600281
:10269000E19A7F02E19790002DE0601A12703012EB
:1026A0003BAE90038D7401F078477C00FD7A14797D
:1026B000677E02128673900028E07002E19A7F0321
:1026C000E19790002DE06006127030123BAE900052
:1026D00029E07002E19A7F04127CEBE4FFD1421200
:1026E0006ECE7F14128581FF0277EC1281D71271B2
:1026F00047124E13127532EF7002E19A126D8C126E
:10270000817312705812822F127561123219124D94
:10271000ED7F05E19790003EE06401707D7F01123E
:102720006FD7E4FB7D0C7F22123BE17F22F1C17F5A
:1027300020123BE17D017F20F1C37F21123BE17D2F
:10274000017F2112386E7F05F1C87F1F123BE17DAA
:10275000017F1F12386E7FC87E00F1A3127E487F72
:10276000C8F1C87F1D123BE17F1DF1C17F0A123BFA
:10277000E17D017F0A12386E7F327E00F1A3900066
:102780002EE07005F1D11275977F01126FE97F0677
:10279000800512807C7F07127CEB22E054F7F07FEB
:1027A000017E00EF1FAA0670011E4A6013E4FCFDC3
:1027B000C3ED9474EC940250EA0DBD00010C80F05E
:1027C000227D0112386E7F327E00F1A37B017D0CE9
:1027D0002290F9ABE054DF1275BF4420F19E90F9CE
:1027E000ABE054DFF022D17490026174FFF09000EE
:1027F0002CE0D3125E8E400B900028E070057F0223
:10280000127CEB90002CE0D312675D400B90002906
:10281000E070057F03127CEB90002CE0124519401C
:102820003D90E0B0E0FDE4FF128163EF7014900092
:102830003EE064017028F0FF126FD7E4FF126FE9E9
:10284000801C90003EE07016116F12451A500280F5
:10285000027F05900261EFF090003E7401F090025B
:1028600061E0FFF46003127CEB227BFFFF513090AC
:102870000261E0FFC32290026174FFF090038BE0DD
:1028800070024123900385E0D31247BB40199003A7
:102890008DE0701312622B116F1247BB5002800241
:1028A0007F04900261EFF0900385E0D3940674807A
:1028B00094804015126161EF6401700D7BFF7A1FF7
:1028C00079E2FF51307F06F19F900385E0640A7042
:1028D00027126986EF70217829125F61401A7BFF09
:1028E0007A1F79F2E4116C9409748094805002800C
:1028F000027F09900261EFF0900385E0D3940B749E
:102900008094804059124115EF640170147A1F7948
:10291000FF116A12858F500280027F0A900261EFD8
:10292000F0127707EF640170147A207913116A129C
:10293000858F500280027F0A900261EFF0126B15C2
:102940009003ACE06F60177BFF7A20791FE4116C75
:1029500012858F500280027F0A900261EFF090038F
:1029600085E0D3940D748094804023126B18EF603F
:1029700006126AEFEF70177A20792912479E116FBD
:1029800012858F500280027F0A900261EFF012865A
:102990000E9480403E126A8E12678EEF64017012B0
:1029A0001280E47BFF7A2079337F0351307F0E124F
:1029B0000006126853EF701B7BFF7A20793E7F037D
:1029C000116D940974809480500280027F099002F6
:1029D00061EFF0900385E0C3125E28403C900261F5
:1029E000E0125E2840337F041276B5700A7F04122D
:1029F00065317F0D1200067F031276B5700A7F03E2
:102A00001265317F0B1200067F051276B5700A7FC2
:102A1000051265317F0C120006900261E0FFF46040
:102A200002F19F227BFF900295E090029AF0E4FF72
:102A3000900297120A829022F9E493FEEFD39E50FF
:102A4000697B017A02799A9002C2120A82900297F7
:102A50001286369002C2120A62900349120A827BE1
:102A6000017A0279C61212039002C21285A9E4907B
:102A700002C5F07B017A0279C61200169002C5E009
:102A8000FDFB3395E0FAC3EB9FEA9E501DEDFF334B
:102A900095E0FE74C62FF58274023EF583E0FF12C6
:102AA0000FD99002C5E004F080C922900385E0129E
:102AB0000A972AE0012AED022B0D032B1B042B2978
:102AC000052B60062B7B082BB1092BD70A2C0C0B8E
:102AD0002C630D2CD40E2CF70F2D001000002D03AD
:102AE0001281201245F81267267F0281FEB10C7018
:102AF00009B105B113E490038CF0B1057F287E0085
:102B0000B1966002A1031281237F0381FE90038BA3
:102B1000E064016002A1037F0481FE90038DE06404
:102B2000016002A1037F0581FEB10C700EB105B1F9
:102B300013E4FF1277ACE490038CF0B1057FB07E14
:102B400004B1966002A10312000E1262F91261C76D
:102B50007F06F19F7F091264D37D017F0902632AFA
:102B6000126151EF64016002A103B1057F50FEFDC7
:102B7000FCB19A6002A1037F0881FEB10C7017B10D
:102B800004B1137BFF7A20794B7828E690029AF003
:102B900008E6A31247A6B1057F807E0CB196600AB5
:102BA000126AEFEF64016002A1031280527F098173
:102BB000FEB10C7004B104B113B18C6002A1031218
:102BC0006986EF700E7F071262507A2079681200D2
:102BD0003A81D07F0A81FEB10C701A7F06126250D2
:102BE0007F01126250E490038CF0FF12642E126A8F
:102BF00041B105B113B18C6002A103126A41EF70BB
:102C0000077F0112642E81D07F0B81FEB10C7029E9
:102C1000FF1225FF1267647F011269749003997493
:102C2000FFF0A3F0A3F0E49003A0F0A3F0A3F0A3BF
:102C3000F090038CF0900398F0124115127707EF93
:102C40006002A103126B15EF640170099003AC04DC
:102C5000F07F0C81FE7F011225FFE49003ACF07F32
:102C60000D81FEB10C701BFF124CD2B105B1137B6C
:102C7000FF7A2079757F035130E490038CF0900344
:102C800084F07F01124CD2B18C701C126B18EF646F
:102C900001700E126AEFEF640170067F0EF19F80E3
:102CA00006126AEFEF605CB1057FD07E07B19670C7
:102CB00052900384E004F0E0640A70147A20798969
:102CC0001266D57F01126250127538E4900384F0C9
:102CD000B105803FB10C701B900393F090038CB151
:102CE00004B11312685F9003AEEFF01268659003B1
:102CF000AFEFF07F0F8007B10C7001F07F10E19F04
:102D00001240ED22F07B017A0379802290038CE05F
:102D1000640122F1931285E9900264120A0DAB0757
:102D2000AA06F199C3EF9BFFEE9AFE12002ED3EF95
:102D3000947FEE648094804005F1991285E99002B9
:102D400064B1A00209F31285E9F19390026C120AB2
:102D5000251209D3900268120A2512859F12722546
:102D6000401190026CB1A01209F312859F120A253E
:102D70007F00229002641285A2120A19120856904E
:102D8000026C1272257F0040027F01227B017A03D0
:102D900079807F907E017D007C00B146EF64012246
:102DA000120A0D900261020A62900261120A82E424
:102DB000FFD134B1A3900004F10B7F01D134B1A352
:102DC000900006F10B7F02D134B1A3900008F10B03
:102DD0007F03D134B1A390000AF10B7F04D134B149
:102DE000A390000CF10B7F05D134B1A390000EF13C
:102DF0000B7F06D134B1A3900010F10B7F07D134C3
:102E0000B1A3900012F10B7F08D134B1A39000144C
:102E1000F10B7F09D134B1A3F1087F0AD134B1A3FA
:102E2000900018EF12071C7F0BD134B1A39000194A
:102E3000EF02071CAB07900272120A31000000007B
:102E4000EB120A972E6C002E76012E80022E8A033A
:102E50002E94042EA3052EAF062EBB072EC7082ED8
:102E6000D3092EE10A2EED0B00002F0290F7F6E0B9
:102E7000FE90F7F7802690F7FAE0FE90F7FB801CB3
:102E800090F7F2E0FE90F7F3801290F7EAE0FE9000
:102E9000F7EB800890F7F0E0FE90F7F1F112128561
:102EA000C5803990F7F4E0FE90F7F5F112802D908F
:102EB000F7F8E0FE90F7F9F112802190F7EEE0FECE
:102EC00090F7EFF112801590F7E8E0FE90F7E9F146
:102ED00012800990F7ECE090F7EDF111FEE4FD802F
:102EE0001B90F7E7E05410C412866B800F90F7E751
:102EF000E05420C4135407FFE4FCFDFE900272125C
:102F00000A25900272020A0D900016EE8FF0020858
:102F100029FEE07C002400FFEC3E227BFF7A1C7936
:102F200090E4FF51307BFF7A1C79A390F1F3E0FE2F
:102F300090F1F4F112F18B90F19112562B7BFF7A04
:102F40001C79C190F1F5E0FE90F1F6F112F18B9051
:102F5000F19312562B7BFF7A1C79DF90F1F7E0FE9C
:102F600090F1F8F112F18B90F19512562B7BFF7ACC
:102F70001C79FD90F1F9E0FE90F1FAF112F18B90DD
:102F8000F197E090029CF0E4FF413090029AF0A3A8
:102F9000EFF022900261120A82900403020A0D905F
:102FA0000385E0FE6F6036900262EEF0900385EFDD
:102FB000F090038C7401F07BFF7A1F79AA90029A3B
:102FC0001247A5900385E0641070057F0312000688
:102FD000900262E0641070057F04120006229002E5
:102FE0006BEFF012812690026BE024FD60161460F6
:102FF0001C24F9602B24FD605D240C705EE49003BA
:1030000097F080181248001247E202416CE4FF1268
:103010006ADA0F12263E7F04127CD1E4FF0277ECBD
:10302000900042E0703590002CE0C39407748094C7
:103030008040289003FCE07022900394E0900041CF
:10304000F0A37401F07BFF7A22798AFF11657F0B70
:1030500012785C023E4A7F05127CD1227BFFE09011
:103060000281F0E4FF90027DEFF0A3120A8278A9BA
:103070007C027D017BFF7A2379097E007F80120626
:103080009E90027DE0FFD312451A505A90040AE048
:10309000FEEFC39E40507B017A0279819003291292
:1030A0000A8290027E128636900329120A629003E9
:1030B0004912862C1212039003291285A990027DD1
:1030C000E075F003A424FAF582E43422F583120AB1
:1030D0008B90034F12862C900352120A827BFF7A48
:1030E0002279EE120BC122128607F81208FC127B1D
:1030F0004290026AE0701490026CF1F7CEC313CED6
:1031000013D8F9F0EE90026CF0800AD1297D0712F5
:103110000750127B427A1B79D790026C126E28E41A
:10312000FF116590026CE0FAA3E0FB7D3CFF128585
:103130003990F9A4F07D32AF0312853990F9A5D109
:10314000287D07128648AB07EB240490F9A6D12806
:103150007D0612073E7D19120750AE0790F9A7EEC3
:10316000F0EB240790F9A9F090026AE07055900204
:1031700069E0640190026C7028A3E0FBEE240790E4
:10318000F9A7F07C007D07AF03AE02128648EF245A
:103190000790F9A9F090F9A4E0246790F98AF080EB
:1031A0000CD12C7D0A12075090F98AEFF090026B37
:1031B000E06401701E90F9A5E0FF90F9A4E02F24CF
:1031C0000A800C90F9A9741EF090F9A4E0243290C2
:1031D000F98AF07BFF7A1B79E690F9A9115E7BFFF3
:1031E0007A1C790190F9A7115E7BFF7A1C791C90FB
:1031F000F9A4115E7BFF7A1C793790F9A5115E7BEB
:10320000FF7A1C795290F9A6115E7A1C796D90F9BB
:103210008A128588F0E4FF0165128607F89000396C
:10322000919F900261EEF0A3EFF0E47BD07A0791DA
:103230009A12857890002EE0FB7A00701490026359
:10324000F1F7CEC313CE13D8F9F0EE900263F080FD
:103250000D900263D12C7D071207501285789000E3
:103260002BE064016006EB64014A700D900264E09B
:1032700025E0F0900263E033F090026312713D129A
:103280006F98128578127579900265EEF0A3EFF0D1
:10329000127588900267EEF0A3EFF07BFF7A137946
:1032A000DF900263126E2A900261126D7FE4FF11BB
:1032B000657BFF7A1379FA900251126E2A900253BD
:1032C000126D7F90024D126E01E4FF116591A512FF
:1032D00084E9120750128600120A251285F9E0FFD0
:1032E000128600127225401B900253E091AA1284AC
:1032F000E91207509002651242819CFEE4FCFDD168
:1033000022800A900271120A3100000000900032FF
:10331000E064016002619991A52DFDEE3CFC9002F4
:103320004D91B32DFFEC3EFE900263E0FCA3E0FD67
:10333000120ABD900275D134900275919F90027966
:10334000120A25900267E0FEA3E0FF900266E02FDC
:10335000FF900265E03EFE128600127225402ED1DB
:1033600037900275919FC006C0071285F9E0D13FE2
:10337000D007D006120863C006C007A3E0FEA3E092
:10338000FBAA06E4D007D006120863800E900275EF
:10339000120A31000000008008D11C900275120A48
:1033A00025900275120A0D9002711272254008D103
:1033B0001C900275120A257A147914900031115C60
:1033C000900031E025E0FFE433AB07FA3395E0F9F4
:1033D000F8E4FF7E80FDFC1208FC90026D120A25C5
:1033E00091B0FFE4FCFD90026D120A19F1D0900239
:1033F0005391B3FFF1CD900263E0FEA3E0FFE4FC44
:10340000FD12087190026DD13490026D919FC0063B
:10341000C0071285F9E0D13FD007D00612086390AB
:10342000026D120A25E47B07FAF890026D919F90D5
:103430000275120A19128596900032E06402703803
:10344000D3900254E094E8900253E094034029E4BE
:103450007B02FAF9F8900275919FC004C005C0067E
:10346000C007E47B07FAF9F890026D919FD003D072
:1034700002D001D0001285967BFF7A147923900246
:1034800069F1DF11651285E3AC06EC90F982F0EF8B
:1034900090F983F022F0E47B08FAF9F890003512F5
:1034A0000A0D0208FC900253E0C313FCA3E013FDD5
:1034B000900251E0C313FEA3E013221285999002FB
:1034C0006D7401F0E4A3F0A3F0A3F01285E3D12220
:1034D00090A200E04410F054FBF090A201E054E010
:1034E000F0F090A20274A8F0E490A204F090A2057B
:1034F000F090A206F090A207F090A20A7480D11B6F
:103500007BC07A2779097800D312099C402E90025B
:1035100071120A19C374C09BFF74279AFE7409992B
:10352000FDE498FC128607F8D312099C400ED11CCA
:10353000EF2410FFEE342712868AD1227BFF7A1BFC
:103540007907D11C900281120A251285E390028529
:10355000120A25E4FF1165E490026FF090026FE01B
:103560001247BA50227E4F7D121286AA124DBE50CB
:103570001690026EE004D11B78011209C0D122908E
:10358000026FE004F080D57E847D1E1286AA12723E
:1035900025401AD11C78011209ADD12290A200E079
:1035A0004404F07BFF7A1B791EE4FF116590A207AB
:1035B000E054F8FFF090026EE0FE4F90A207F07B1F
:1035C000FF7A1B792B900281EEF1F21286A2900213
:1035D00071919F900270EFF01286A2A3919FAC00B0
:1035E000AD01AE02AF03E4FBFAF9F8C312099C6027
:1035F00006900270E004F090A20AE05480FFF09080
:103600000270E0FE4F90A20AF04480F07BFF7A1B2C
:10361000794F900281EEF0E4FF0165F090027102B3
:103620000A0D900271020A25F090026CE0FEA3E000
:10363000FF7C0022120A25900261E0FEA3E0FFFB5E
:10364000AA06E4F9F8227D0F124DD27A2079F7F11B
:10365000DC11657D12124DD27A217916F1DC1165EB
:103660007D137F0312486F7F32124DD87A21793350
:10367000F1DC11657D14124DD27A21794DF1DC0116
:1036800065FFE0FEEF4E90A33EF07D127F031248EF
:103690006F7F0A7E001227A3E4FD7F0312869A60E3
:1036A00046146071147002E15124036002E18D90B0
:1036B000C740E04480F090C758124DC5C004C00513
:1036C000C006C00790C759F1C678081209C0D003D8
:1036D000D002D001D000F1D090C75AF1C6F1EB1260
:1036E0000A2590C740E18790C748124DC5C004C065
:1036F00005C006C00790C749F1C678081209C0D0B6
:1037000003D002D001D000F1D090C74AF1C6F1EB4E
:10371000120A25807F90ED30E04402F090ED3C12DB
:103720004DC5C004C005C006C00790ED3DF1C67888
:10373000081209C0D003D002D001D000F1D090ED22
:103740003EF1C6F1EB120A2590ED30E054FDF08019
:103750004390E690E04480F090E698124DC5C00496
:10376000C005C006C00790E699F1C678081209C0E6
:10377000D003D002D001D000F1D090E69AF1C6F18A
:10378000EB120A2590E690E0547FF080077A1679D4
:10379000981277E590026E120A0D90026DE0F9F82A
:1037A0001209C0A3120A2590026E020A0D7F02FEC2
:1037B000FDFC900039120A19120871A804A905AA83
:1037C00006AB07900031E0FFE4FCFDFE22E4FCFDC7
:1037D000120856A804A905AA06AB07229002611296
:1037E0000A0D900281120A257F01221208569002CA
:1037F0006E22F0E4FF0165E0FEA3E078032290036F
:103800008E7414F0A37404F09003887401F0A3F094
:10381000A3F07E007F457D007B007A007922020ABA
:10382000EA9003FCE0601B7151EF64017014FD7FAE
:1038300009116E7B017A0379F8122D137A2179EB45
:10384000714A9003FCE060217151EF701C7B017A9A
:103850000379F87FC8FEFDFC122D9A700C9003FCD2
:10386000F0116A7A2179FD714A227D017F09EF12F8
:103870000A9738DF0038F001390102391203392381
:103880000439340539450639560739670839780946
:1038900039890A399A0B39AB0C39BC0D39CD0E393F
:1038A000DE0F39EF103A00113A11123A22133A336F
:1038B000143A44153A55163A66173A77183A881961
:1038C0003A991A3AAA1D3ABB1E3ACC1F3ADD203A61
:1038D000EE213B05223B1C233B332400003B499057
:1038E000A385E04480F0ED6002613D90A3856145D1
:1038F00090A37FE04402F0ED600241F890A37F6165
:103900000090A389E04402F0ED600241F890A389A1
:10391000610090A388E04402F0ED600241F890A3BA
:1039200088610090A388E04408F0ED6002610F9088
:10393000A388611790A388E04420F0ED600261261F
:1039400090A388612E90A388E04480F0ED6002612E
:103950003D90A388614590A387E04402F0ED6002AA
:1039600041F890A387610090A387E04408F0ED60E0
:1039700002610F90A387611790A387E04420F0EDC8
:103980006002612690A387612E90A387E04480F0B7
:10399000ED6002613D90A387614590A386E04402FB
:1039A000F0ED600241F890A386610090A384E044AA
:1039B00002F0ED600241F890A384610090A384E0DE
:1039C0004408F0ED6002610F90A384611790A38416
:1039D000E04420F0ED6002612690A384612E90A364
:1039E00082E04402F0ED600241F890A38261009011
:1039F000A382E04408F0ED6002610F90A38261179A
:103A000090A382E04420F0ED6002612690A38261E1
:103A10002E90A382E04480F0ED6002613D90A3828D
:103A2000614590A381E04402F0ED600241F890A36B
:103A300081610090A381E04408F0ED6002610F9085
:103A4000A381611790A381E04420F0ED600261261C
:103A500090A381612E90A381E04480F0ED6002612B
:103A60003D90A381614590A380E04402F0ED6002A7
:103A700041F890A380610090A380E04408F0ED60DD
:103A800002610F90A380611790A380E04420F0EDC5
:103A90006002612690A380612E90A380E04480F0B4
:103AA000ED6002613D90A380614590A37EE04402F9
:103AB000F0ED6002804290A37E804590A37EE044BA
:103AC00008F0ED6002804890A37E804B90A2A5E0B4
:103AD0004402F0ED6002802090A2A5802390A2A66F
:103AE000E04402F0ED6002800F90A2A6801290A246
:103AF000C9E04402F0ED6005E04401F02290A2C963
:103B0000E054FEF02290A2C9E04408F0ED6005E028
:103B10004404F02290A2C9E054FBF02290A2C9E034
:103B20004420F0ED6005E04410F02290A2C9E0547A
:103B3000EFF02290A2C9E04480F0ED6005E044403F
:103B4000F02290A2C9E054BFF0227BFFE4FF022ADA
:103B50003090A387E07F0030E4027F01221121F141
:103B6000DDEF640170479003FCE07041F1E9F1E39F
:103B7000EF24FD600814601B14602A80307A2279DB
:103B8000A71271147F0312785C7F0171AED14AFFD6
:103B90000277EC7A2279BB12854A7F0412785CE4C2
:103BA000FF71AE8006F1F67F01F186D14A22EF6403
:103BB000017B0170287D0C7F0F71E1E490F31CF014
:103BC00090F1A5E044C0F090E6E47402F090E6E6DF
:103BD000E04403F054F3F01D7F0F026B24E4FD7FFB
:103BE0000FEF120A973C52003C5F013C69023C73A4
:103BF000033C7D043C87053C91063C9B073CA508A3
:103C00003CAF093CB90A3CC30B3CCD0C3CD70D3C46
:103C1000E10E3CEB0F3CF5103CFF113D09123D134A
:103C2000133D1D143D2A153D39163D43173D5318CC
:103C30003D64193D761A3D891D3D951E3DA61F3DEB
:103C4000AB203DB7213DCC223DD1233DD9240000FE
:103C50003DE990A374D142EBC43354E04FF022907D
:103C6000A35CB1F190A364A14B90A372B1EA90A3BD
:103C700074A16C90A372B1F190A374A17E90A37112
:103C8000B1EA90A373A19190A371B1F190A373A134
:103C90002590A370B1EA90A373A13290A370B1F103
:103CA00090A373A1BF90A36FB1EA90A373A14B90AF
:103CB000A36FB1F190A373A15B90A36EB1EA90A33F
:103CC00073A16C90A36EB1F190A373A17E90A369D0
:103CD000B1EA90A36AA19190A369B1F190A36A801F
:103CE0004490A368B1EA90A36A804790A362B1F1BF
:103CF00090A364A19190A361B1EA90A364802690FF
:103D0000A361B1F190A364802990A360B1EA90A36C
:103D100064A1BF90A360B1F190A363807490A35F8E
:103D2000B1EA90A363E0FFEB807890A35FB1F190DC
:103D3000A363E0FFEB25E0806990A35EB1EA90A366
:103D400063807C90A35EB1F190A363E0FFEBC45469
:103D5000F0807490A35DB1EA90A363E0FFEBC433FD
:103D600054E0806390A35DB1F190A363E0FFEBC4E6
:103D7000333354C0805190A35CB1EA90A363E0FF59
:103D8000EBC43333335480803E90A35AB1EA90A3FE
:103D90005BE04BF02290A359B1EA90A35BE0FFEB0C
:103DA00025E025E0802190A2A2800390A2A3D14229
:103DB000EBC454F04FF02290A2C0B1EA90A364E0AB
:103DC000FFEB33333354F8FEEF4EF02290A2BF8066
:103DD0000390A2BED142EB800890A2BDD142AE03B7
:103DE000EEC433333354804FF022E054F0F04DF002
:103DF00022E0540FFFF0EDC454F04FF02212860E73
:103E000094804022127C10EF6401701A900397E0B6
:103E10007B0160067D0CD12761E1E4FDD12771E1D2
:103E2000E4FFF186D14A227F0371E17F0271E17FD5
:103E30000471E17F0571E17F0671E17F0771E17F28
:103E40000822E054F0F04DFFF0229003FC7401F0E2
:103E500022F1D41227E690E0B1E0FB6432600280E8
:103E6000027B32126C54715DB1FDE4900261F0A3EB
:103E7000F078637C027A2279D0FE7F03128551901C
:103E8000002CE064076002E108128662A3E0FF9064
:103E900003FDE06F6072E0A3F09003FDE02401FFFA
:103EA000E433FEEFC4F8540FC868FFEEC454F04882
:103EB000900261F0A3EFF090026174FFF5F0120739
:103EC000DB9002637451F01284F9EC900264F0AF5D
:103ED00005A3EFF07A227957900264126FA5A3EF41
:103EE0001237F290F9B81247D27F01F1747B017A50
:103EF0000279637D037F39F10F7F32128581FFF1F3
:103F00007490F9B8E054FCF02293FF7BFF7D02909F
:103F10000266EDF0AC0790F9A0E054EFF0ECF5820A
:103F200064296006E5826439702A90F99A74E0F099
:103F3000900266E0FF240690F999F090F998ECF071
:103F4000EFF0E4F0FF900266E0FEEFC39E50151222
:103F5000851880F174C01285CD90F998EC12850A0D
:103F600090F998F012279FE490F99AF090F9ABE05D
:103F700054BFF022EF640190F9847005E04408F02A
:103F800022E054F7F022AE07127B5DAA07127C2BC9
:103F9000AB07127C54EE90E0846023128692AE034D
:103FA00090E0A2EEF090E0A3EFF0E490E090F0AFAC
:103FB0000290E091EFF07BFF7A1779458011E05491
:103FC000FDF0E4127B4B127B537BFF7A1779597F0C
:103FD000010230651262B1122876022AAB90040207
:103FE000E0FF22E4900402F022900401E0FF22901E
:103FF00003877401F0227B017A02796190C67CE02C
:1040000090000212071C90F2F1E0131313540112F6
:10401000070A90F2F5E0FF540711DBEF54F090002F
:104020000312071C90F263E090000512071C90F247
:1040300064E090000612071C90F265E09000071201
:10404000071C90F266E0115290F267E090000902BE
:10405000071C90000802071C126A5AEF64017040A6
:104060000412070A90F2BDE0C4131313540111DBCC
:1040700090F2BCE0FFC4540F11E1FD7C00640270BB
:104080000690000704800BED64014C700890000757
:10409000740212071CEF540F115290F2BDE08033EE
:1040A000E412070A90F2EBE0FF131313541FFE54BF
:1040B0000111DBEFC313540311E164037008900096
:1040C00007740412071C90F2EBE0FFEE5403115248
:1040D000EFC413540790000902071C900001020767
:1040E0001C90000712071C9000070206DD7A027977
:1040F00061310CFF90039AE06F6010EFF07BFF7A64
:104100001E7999122A2A7F10120006227B0111586B
:10411000900269E0227A027962310CFE900399E004
:10412000B5061B90026BE0FF90039BE0B5070F9074
:104130000262E0FF900398E0B507037F002290023F
:1041400062E0900398F0A3EEF090026AE090039A88
:10415000F090026BE090039BF0900398E064017094
:1041600003FF80027F011269747F01227B017A02C2
:10417000796C11587A227910F19E7BFF7A2279218D
:10418000900273122A297BFF7A22793290027512EB
:104190002A297B017A02797690F2E7E0FE90F2E834
:1041A000122F129000088FF012082990F2DFE09091
:1041B000F2E051649000048FF012082990F2E1E0DF
:1041C000FE90F2E2516791EA9000041207F15185E6
:1041D00095F09000028FF012082990F2DBE0FE903B
:1041E000F2DC516790000A8FF0120829900008B1A4
:1041F000EC91F351819C9000068FF012082990F207
:10420000E9E0FE90F2EA122F129000128FF01208ED
:104210002990F2E5E090F2E6516490000E8FF012E2
:10422000082990F2E3E0FE90F2E4516791EA9000F1
:104230000E1207F1518595F090000C8FF0120829AD
:1042400090F2DDE0FE90F2DE51679000148FF012E4
:104250000829900012B15891F351819C9000108F61
:10426000F0020829547FFEE02400FFEC3E2225E006
:10427000246CF582E43402F583E0FEA3E0FF9002B3
:1042800066E0FCA3E0FDC3EF9DFFEE2290A130E0CD
:10429000547FF04408F04404F054FC12611990A1DA
:1042A0003EF090A1427480F0E490A13B1286BA9057
:1042B000E300E054FDF090E3017420F0E490A132BB
:1042C000F090A1387427F090A13974061261119012
:1042D000A143E04430F07480443090A144F0742055
:1042E000440190E301F090E3097403F091E290023D
:1042F000627402F0E4F0900262E0FBF1BA400281E5
:10430000A391D3EB14601114601714601D24037083
:104310002090E30AE0F0801990E30AE04440F08046
:104320001090E30AE04480F0800790E30AE044C084
:10433000F09002617403F0128650603590E105E060
:1043400054FCF090A130E054BFF090E300E054FE44
:1043500012279E90E105E04403F090A130E0444034
:10436000F090E30012753490E324E054036402708B
:10437000C691FEE0440CF090E329E090E32A122F6E
:1043800011900266F0A3EFF0E4900263F0B11440E4
:10439000028134900262E014600F14601014601106
:1043A0002403700FB109F0800AB1438006B1328056
:1043B00002B121E490026AF0A3F0900264F0A3F04D
:1043C000900265E0C3946474809480506312279FC8
:1043D000900265E004F090E326E0FE90E327122FC0
:1043E00012FE900268F0A3EFF0517E9CFE12002EA8
:1043F000C3EF9480EE648094805010900268E0FED9
:10440000A3E0A3F1B3900264E004F0900264E064DE
:104410000870AD90026A1237F7CEC313CE13D8F9E5
:10442000FF900263E025E0246CF582E43402F1DAC7
:1044300091DB618D74FF900276F0A3F0E49002634B
:10444000F0B1145051EF516E9CFE12002ED3900229
:1044500077E09F900276E09E4038900262E0146020
:104460001414601514601624037014900263E0FFA6
:10447000B109F0800AB1438006B1328002B12190C7
:104480000263E0516E9CFE12002E900276EEF0A3C5
:10449000EFF091DB80AB91E290E309E054F3F0F1AF
:1044A000AC41F67A2379E490E312F1C290E313E091
:1044B00090029BF090E314E090029CF090E315E0F2
:1044C00090029DF1A690A143E054CF1286B291FED6
:1044D000740DF090E30AE0543FF022900263E00490
:1044E000F02290E30BE054FEF022FE900292F0A343
:1044F000EFF022C39FFFE5F09EFE9002922290E330
:104500000BE04401F090E3092290E31DE02F24FE2C
:1045100090E31222900263E0FFC3940574809480BC
:1045200022900263E0FF90E320E02F24FE90E31549
:10453000F022900263E0FF90E31FE02F24FE90E35F
:1045400014F022900263E0FF90E31EE02F24FE901F
:10455000E313F022F09000161207F1FFAEF0900086
:10456000140207F190000CB1EC2FFFE5F03EB1E42E
:1045700090C7C3F0AF0590C7C4EFB15490C7C51240
:10458000747090C7C6EFF0900006B1DE90C7C7F018
:10459000AF0590C7C8EF127467ACF0EC90C7C9F0D4
:1045A000AF0590C7CAEFF0900004B1DE90C7CBF022
:1045B000AF0590C7CCEFF090000E1207F190C7CD79
:1045C000F1CA90C7CEEFF090000AB1DE90C7CFF0ED
:1045D000AF0590C7D0EFF0B15E90C7D1F0221207BF
:1045E000F1FFE5F0C313FCEF13FDEC221207F1FF1E
:1045F000AEF090000A0207F1F107D1D71267B87F39
:1046000001126812518CD151126822D13912653AC7
:1046100012688912690F90E10CE054EFF054DFF05A
:1046200090E10DE054BFF054DFF090E10EE0547FD4
:10463000F090C90AE04402F02290A37FE054F7F022
:10464000126A2E90F1BB7459F090F1C4E04402F06C
:1046500022126A3690A3237401F0E4126A2604F051
:1046600090A326F090E23D7420F04408F0229002DE
:10467000617449F0A37490F07B017A0379DEB16430
:10468000900261E0FFA3E0FD12782D1269A5F19779
:1046900090C7D7E054BFF07F301277AC90A345E0CD
:1046A00054E0F090A33CE05480F0FD90A33EE05431
:1046B00080FFF090A341E05480F090A342E054804A
:1046C000F0FCE490A346F0EF90A33EF0ED90A33C05
:1046D000F0EC90A342F02290A108740BF090A10995
:1046E00074FFF090A10A74F0F090A10B748FF09019
:1046F000A10C747CF090A10D74A8F090A10EF1D2E1
:1047000054F3F04404F02290F4097417F090F1008F
:10471000E04440F090F40812869254F7F090F430A0
:10472000E04401F090A356E04420F090A357742C8D
:10473000F090A35874BAF07F0112616C7F01125F90
:104740000390F1A8E054FEF022900265120A3100B5
:10475000000000E4900269F07D147F0312486F7F2F
:10476000057E001227A3900269E0B11950237F0350
:1047700012775FEF6401700EFD7F0312369C90028A
:1047800065120A25800B12279F900269E004F080D1
:10479000D5900265020A0D90C7D67430F0227BFFD7
:1047A000E4FF022A30EFF07F03022A30900262E039
:1047B00004F022FFEE8FF00207DBC39404748094B0
:1047C00080227BFFE090029AF022FDACF0ECF0AF8B
:1047D0000522E054FCF04403F022F583EEF0A3EF51
:1047E000F022E490039DF07BFF7A227943F1FA9066
:1047F000029A120A25E4FF022A309003A8020A0D49
:10480000E490026CF07D187F03116F7F03123693E2
:1048100078011209C09003A4120A2590039BE0249A
:10482000FE600B14600C2403700C7F06800A7F0A64
:1048300080067F0C80027F08E4FCFDFE9003A4123A
:104840007B3278031209AD9003A812867A64017056
:104850001D90026CE070171247FA78011209C0E44B
:104860007B03FAF9F81208FC9003A8120A25221219
:10487000869A601314601814602024037024900238
:104880006DE090C740F0227BFF7A16796780067B47
:10489000FF7A16797DE4FF022A3090026DE090E6FF
:1048A00090F02291B0126FAD9003B57004E01480C7
:1048B00004E014540F900261F090A33EE090026176
:1048C00012368191CC91C5F01285EF7004EF25E08E
:1048D000FF312A70028006ED64024C700890A341FB
:1048E000E04402801CEFFD7C006404700890A3414A
:1048F000E04405800CED64084C700C90A341E0444A
:104900000BF090A342E0F012368A91CC91C5F09062
:10491000026212721D90A342E040054401F0800142
:10492000F07F647E000227A3EEF0EFFD7C006401BF
:104930002290002EE07055312A7E1070027EF09099
:10494000A22791967E2070027E3090A22831287E88
:104950000070027EA290A22C51DD70027EB290A265
:104960002D31287E0070027E0190A22E51DD700252
:104970007E0390A22F31287E0070027EFE90A23727
:1049800051DD70027E8090A238EEF022312A7E1036
:1049900070027EF490A22751DD70027EA290A22CBC
:1049A00031287E0070027EB290A22D51DD70027E11
:1049B0000190A22E31287E0070027EC090A2385154
:1049C000DD70027E0F90A23931287E1090A22891CE
:1049D000967F3090A228EFF090A238E064C0700A71
:1049E00090A2337402F090A234F090A2797403F094
:1049F00090A27A7430F090A27BF090A2307402F012
:104A000090A279740FF02290002EE07055312A7E2A
:104A10001070027EF090A25191967E2070027E303E
:104A200090A25231287E0070027EA290A25651DDE3
:104A300070027EB290A25731287E0070027E0190F3
:104A4000A25851DD70027E0390A25931287E007079
:104A5000027EFE90A26151DD70027E8090A262EE25
:104A6000F022312A7E1070027EF490A25151DD7046
:104A7000027EA290A25631287E0070027EB290A2E1
:104A80005751DD70027E0190A25831287E007002DD
:104A90007EC090A26251DD70027E0F90A263312829
:104AA0007E1090A25291967F3090A252EFF090A289
:104AB00062E064C0700A90A25D7402F090A25EF0A1
:104AC00090A28F7403F090A2917430F090A292F0B3
:104AD00090A25A7402F090A28F740FF022EEF0EDC3
:104AE00064014C7E002290002EE07055312A7E1029
:104AF00070027EF090A21291967E2070027E30901D
:104B0000A21331287E0070027EA290A21751DD70A0
:104B1000027EB290A21831287E0070027E0190A21F
:104B20001951DD70027E0390A21A31287E007002B6
:104B30007EFE90A22251DD70027E8090A223EEF0D4
:104B400022312A7E1070027EF490A21251DD700292
:104B50007EA290A21731287E0070027EB290A21829
:104B600051DD70027E0190A21931287E0070027E14
:104B7000C090A22351DD70027E0F90A22431287EC6
:104B80001090A21391967F3090A213EFF090A22381
:104B9000E064C0700A90A21E7402F090A21FF09010
:104BA000A26E7420F090A26F74F0F090A270743036
:104BB000F090A21B7402F090A26E7443F022900059
:104BC0002EE07055312A7E1070027EF090A23C914A
:104BD000967E2070027E3090A23D31287E007002C9
:104BE0007EA290A24151DD70027EB290A242312895
:104BF0007E0070027E0190A24351DD70027E039020
:104C0000A24431287E0070027EFE90A24C51DD70DD
:104C1000027E8090A24DEEF022312A7E1070027E3C
:104C2000F490A23C51DD70027EA290A24131287E18
:104C30000070027EB290A24251DD70027E0190A20D
:104C40004331287E0070027EC090A24D51DD70027B
:104C50007E0F90A24E31287E1090A23D91967F301B
:104C600090A23DEFF090A24DE064C0700A90A2487F
:104C70007402F090A249F090A284740CF090A28586
:104C800074D0F090A2867410F090A2457402F09057
:104C9000A284743CF022EEF0ED64014C22AA05518E
:104CA000E6AF023131AF0371BE900264E0FF41070D
:104CB00090E140E04401F090A33EE054F0F090A376
:104CC00041E054F0F090A342E054F02290026202DE
:104CD0000A25AB07900262120A3100000000EB7057
:104CE0000890F362E054F0F02290F3E2E030E41D2B
:104CF00090F3F8B1C51237D390F3F9E07F00FE12BC
:104D000037CD90F3FA1237C612085691CCE4FFFE65
:104D1000FDFCB1BB7002A1B2B1B34002A1B2E47F0D
:104D20003E7E49FDFCB1BB50089002617406F080E4
:104D300064E47F7C7E92FDFCB1BB500890026174FC
:104D400005F080517FF87E247D01B1B950089002B2
:104D5000617404F0803F7FF07E497D02B1B9500854
:104D60009002617403F0802D7FE07E937D04B1B9E1
:104D700050089002617402F0801B7FC07E277D097D
:104D8000B1B950089002617401F08009B1B35005C7
:104D9000E4900261F090F3F8E0C45407FF900261E0
:104DA000E0FE6F600DEE4408FFF090F362E054F017
:104DB0004FF0227F807E4F7D127C00900262120AAB
:104DC00019C302099CE0540FFFE4FCFDFE781002B9
:104DD00009C07F03116F7F057E001227A3E4FD7FCA
:104DE0000312369C900261120A257BFF2290026119
:104DF000120A31000000007D31B1D27A14793212EA
:104E000037DC1230657D30B1D27A14794D1237DC3F
:104E1000023065900035120A0D900265D161780369
:104E20001209ADB1E47A1279B7900039120A0D90E7
:104E30000281D16D900285D161900289120A25907C
:104E40000031E090028DF0900032E090028EF09000
:104E50000033E090028F1237F2D164127479023479
:104E6000BB120A25900265020A0D900261120A2502
:104E7000900261020A0D900261120A3100000000E6
:104E80009003BC1285BA79401285629003B8EEF0A7
:104E9000A3EFF09003BC12362C7D03120750AF0530
:104EA000E490EF81F0EFC4333354C0F04410F9F0D4
:104EB0009003B81283A74990EF81F090EF82EDF054
:104EC0009003B0E0FB9003BC12856F12073EE4FC38
:104ED000FDD16A78081209AD90EF8EEFF0D170E441
:104EE00090EF8FEFF0EB75F003A4FE240890EF8BAA
:104EF000F09003B7E0FFC3EE9F90EF8CF09003BEFD
:104F00001285BA79C0128562D16A78081209AD900B
:104F1000EF9AEFF0D17090EF9BEFF0E47F06FEFD8B
:104F2000FC900261127B321237D39003BFE024065B
:104F3000FF9003BEE03400FEE4FCFD120863E47B56
:104F400006FAF9F81208FC90EF9CEBF01284A89096
:104F5000E102E064E2701B9003BCE0B4020DA3E048
:104F6000B41C0890A37CE054FDF02290A37CE044A4
:104F700002F02212824E11A312826212826A1282FF
:104F8000E012845A7BFF7A21796B1284671283E2E4
:104F9000D17690EF98E04402F09003B2E064019083
:104FA000EF977003F080037401F09003B1E0FF907D
:104FB0000262F090EFA77468F07E00EF6401700861
:104FC0009002617480F08028EF64024E70089002B5
:104FD0006174C0F0801AEF64044E7008900261742E
:104FE000E0F0800CEF64084E700690026174F0F0FF
:104FF0001284A8E490EFF8F090EF80F07F01FE12A9
:1050000027A390EFF874FFF090EF80E0111FEF4EB0
:10501000FF90EF80F0900261E04F90EF80F022FF70
:10502000900262E0FE22E4900261F0900264740C4F
:10503000F078657C027D017BFF7A1E7981B1F5787D
:10504000697C027D017BFF7A1E7985B1F5786D7CE4
:10505000027D017BFF7A1E7989B1F578797C027D2A
:10506000017BFF7A1E798DB1F5787D7C027D017B15
:10507000FF7A1E7991B1F578817C027A1E7995B11B
:10508000F1E4900262F0900262E0FF7E001247BA03
:1050900050621285C6FE7B0174F32FF974F13EFA5B
:1050A000D11A900262E0FD25E0248DF582E43402FD
:1050B0001247DAED12852812801C900262E0FEB1E0
:1050C000E7EFF0EE128528127FE3128682F582E484
:1050D0003402F583EFF074712EB1E9E0FFD10EC315
:1050E0009FFF900261E0FEEFC39E4003EF04F012C9
:1050F00047AC80927BFF7A1D793DE4FF122A30E4B1
:10510000FF12686B7F01D17DE4900263F090026131
:10511000E02403FFE433FE900263E012855840026E
:1051200081697BFF7A1D794990F1E1122A29126881
:105130007DEF64017003FFC17D7F07126250E49030
:105140000262F01286184002413BB1CA54017072EB
:10515000900262E0FFB1E7E0FD74752FD111C39DAD
:10516000FFE49400CF2401CF34001285C5FE9002E5
:1051700062E0B1DCFD12855840024136900262E0E7
:10518000B1E7E075F002A42D1286222460F582E5D5
:1051900083341E1284CB747D2CB1DE111FB1E7E085
:1051A00075F002A42F128622243FF582E583341E77
:1051B000F583E493FDEE25E0FFE433FE12863FED38
:1051C0008071900262E0FF2479B1CD5402706712C1
:1051D0008682D111F90425E0FDD135E0FEC3ED9EB4
:1051E000FE747D2FB1DEFDC39E504BE975F002A425
:1051F000C39DFFE5F09400FE74622FF582741E3E9D
:105200001284CB74752CD11175F002A4FFB1D7FBB9
:10521000C3EF9BFFE5F09400FE74412FF582741EEE
:105220003EF583E493FCED25E0FFE433FE7B0112C1
:10523000863FEC12070A1247AC2143D19312279FF5
:105240007F0F126476E4900262F0900262E0C394F1
:105250003274809480400241EC12279F7B017AF1E6
:1052600079CCD11A900285EEF0A3EFF07AF179CEE5
:10527000D11A900287EEF0A3EFF07AF179D0D11A2B
:10528000900289EEF0A3EFF07AF179D2D11A900270
:105290008BEEF0A3EFF0E4FFEF1247BA5033B1CA40
:1052A000FE30E10D74792FF582E43402F583EE804F
:1052B0001AEFD16DFDD15C5007B1CA547FF0800E5A
:1052C000D3ED9401EC94804005B1CA4480F00F8086
:1052D000C7900279E030E70FA3E030E70AA3E0309F
:1052E000E705A3E020E7051247AC414A7A1D795D46
:1052F0009002851284AF9002871284BE900289E0EA
:10530000FFA3E090029ECFF0A3EFF090028BE0FFAE
:10531000A3E09002A0CFF0A3EFD12FE4900262F0BF
:105320007829E6111FC39F40028127D135E0F47030
:105330007D900262E0D16DD15C503D74812ED1032D
:10534000E0FE90026230E023E0FD2479B1CD44011B
:10535000F074712DB1E9E025E0FD900262E0FCB14E
:10536000DC2DFD74692CD138ED8030E0FDD101EEEB
:105370004401F0747D2D8079B1FCE020E0028119B8
:1053800074792EB1CD4401F074712EB1E9E025E0BD
:1053900004B1D62EFE74692DD138EEF0900262E091
:1053A000247DF582E43402F5837401F08074900268
:1053B00062E0FED163E0F47069EED16DD15C5037EC
:1053C000900262E0D101E0FD30E11D74792EB1CD93
:1053D000D10B25E02402FE900262E0FCB1DCFBC3AD
:1053E000EE9BFE746D2C802BB1FCED4402F0747DBD
:1053F0002EB1DE14F0802BB1FCE030E11C74792E6C
:10540000B1CDD10B25E02402B1D604FCC3EE9CFE45
:10541000746D2DD165EEF08009900262E0B1DC245C
:1054200002F01247AC61207E00EF64017007900229
:1054300079E020E134EF64024E700C900279E030A4
:10544000E105A3E020E1227829E6640470169002C9
:1054500079E030E10FA3E030E10AA3E030E105A3F9
:10546000E020E1051244DB210D7A1D798490026968
:105470001247C290026AE090029BF090026BE090AB
:10548000029CF090026CE090029DD12F7A1D79B2BF
:1054900090026D1285B290026EE090029BF0900235
:1054A0006FE090029CF0900270E090029DD12FE49A
:1054B000900262F01286185046B1CAFF5401602E65
:1054C000EF54027006900269E0801E900262E0FFD5
:1054D000D163E0FD74692FD138E02DFFE433CF2490
:1054E00001CF3400A2E713EF13FFD14EEFF0D14EFE
:1054F000E0FFF46005900264EFF01247AC80B5E481
:10550000900262F0900262E0FF1247BA5017746591
:105510002FD154E0F47009900264E0FFD14EEFF017
:105520001247AC80DF900265D14790F17DD1409069
:10553000F17EF0900266D14790F17FD14090F180EA
:10554000F0900267D14790F181D14090F182F090C4
:105550000268D14790F183D14090F184F07F0F121F
:1055600064761275387B017AF179CCD11ABEFF10BE
:10557000BFFF0DD1937BFF7A1D79E0E4FF122A3043
:10558000E4FFD17D7A1D79EC90F17E1285B290F125
:1055900080E090029BF090F182E090029CF090F10C
:1055A00084E090029DD12F7A1E791790F1DD12854B
:1055B0000290F1DEE090029BF090F1DFE090029C1F
:1055C000F090F1E0E090029D806574792FF582E41F
:1055D0003402F583E022FE900262E0FD247DF58234
:1055E000E43402F583E0222471F582E43402F58389
:1055F000227D017BFF7E007F0402069E900262E016
:10560000FE2481F582E43402F583224402F07475AD
:105610002EF582E43402F583E022128512FD7C002F
:105620001206C4FEE42DFFEC3EFE22E090029CF048
:10563000E4FF022A3074692EF582E43402F58322F5
:10564000F0EF901E3F9322E0FF901E6093229002A5
:1056500062E02465F582E43402F58322D39401EC00
:10566000948022246DF582E43402F5832225E0241F
:1056700085F582E43402F583E0FCA3E022EF6401C7
:1056800090F18A7005E04402F022E054FDF022E639
:105690004470F67828E6FF90037EEF1286B290E120
:1056A0000D1286C2FD90E10CE054F0F0ED54E19053
:1056B000E10DF090C903E0540F127F2090037E1299
:1056C00086597F2740027F3790A138EF1286BA9023
:1056D000E10CE0440FF090E10DE0441EF090C903AE
:1056E000E044F0F0E490A144F02274352FF8E65441
:1056F0000F782AF664017043792BE766601D126209
:105700004AE4FD7F03F162E4FD7F04F162E4FD7F82
:1057100005F162E4FD7F06F162D1937F01125F6AB9
:1057200078267601E47822F608F608F67F011268FA
:105730006BE4FFD17D782AE608F622782AE6FF128C
:105740005E8D400308A60722F1627D020FF1627DA3
:105750000F0FF1627D040FF162E4FD0FF1620FF1B2
:10576000620F90F105EFF090F153EDF02279019086
:105770000264E07F0060027F01AE07900265E07F77
:105780008060027FC0AC07900266E07F0060027F0D
:1057900080AB07E4FF1258287D12125820641E7057
:1057A000057D140F800790026AE0FD7F01F1629091
:1057B000026BE04CFD7F02F162EB4E0F125F27ADF2
:1057C000010FF1487D810FF162E4FD7F21F15C7FE3
:1057D00060F15C7D087F80F162E4FD7F90F1627F83
:1057E000011258287F0AF1627F221258287D14E4A2
:1057F000FF125820FD0FF16290026BE04CFD0F127A
:105800005762AF06EB4F7F03F127AF01AD077F076C
:105810001257487D810F1257627D087F1002576230
:1058200012576290026AE022E490F103F090F104D2
:10583000EFF02290037DEFF031447009E02445F849
:10584000E6782CF62231BC500201D1782C760190FA
:10585000F1F3E0700690F1F4E06043782CE6440741
:1058600012569290F1F1E05401702C900408E0700F
:10587000107826E6700B7F0111287D017F031257F7
:1058800062900408E0C3940674809480501BE00486
:10589000F0A37401F08012E4900408F0800BE4900F
:1058A0000408F011DAE6782CF67829E6D18D40214B
:1058B000782CE64410F690F1F5E0700690F1F6E0F1
:1058C0006007782C12568F800811DAE6782CF68063
:1058D00000782C11D8A60722E6FF90037DE024452E
:1058E000F82290037DEFF031447009E02445F8E69A
:1058F000782DF62231BC40457829E664047038786A
:105900002D761190F1F7E0700690F1F8E0600A78DA
:105910002DE64407125692800611DAE6782DF690AD
:10592000F1F9E0700690F1FAE06007782D12568FD9
:10593000800B11DAE68001E4782DF68000782D11D5
:10594000D8A60722782AE6FF7E006401227829E69D
:1059500024FE602624FE60392403705F3144700BFE
:10596000782CE6540164017002803631BC404C78DA
:105970002CE6540F64077043803D31447006910556
:105980007002801D31BC4033782CE66477702C8027
:1059900026314470119105700D08E65411641170A0
:1059A00005782276012231BC4011782CE6647770AC
:1059B0000A08E6647770047823760122C3EF940224
:1059C000EE648094802211338083D1DA640F700FEB
:1059D000E0FF7E007D007B007A007945020AEA78CC
:1059E00032E690F103F115D1F89F5028EE60139044
:1059F000F105E0F4700690F104E004F090F105E0A8
:105A000004F090F154E0FF7812E62445F8A60778F8
:105A1000120680D37832E6706408E66402705E7124
:105A2000F7120A975A3D005A49015A4F025A5B032E
:105A30005A67045A73055A790600005B057811E627
:105A4000FF71FE71067002610571067002610578D2
:105A500011E6FF31C67106700261057811E6FF712B
:105A6000F37106700261057811E6FF910D71067001
:105A7000026105710670026105F1A861067832E6DF
:105A80006002610508E66420707B71F7120A975A7C
:105A9000C0005AC3015AC6025ACF035AD2045AD57B
:105AA000055AD8065ADB075ADE085AE1095AE40AB1
:105AB0005AE70B5AEA0C5AF30D5AFC0E00005B052C
:105AC00078110678110671E7503B71FE781106785F
:105AD00011067811067811067811067811067811EA
