:100000000210FF027D7D2202264D22027C23022F58
:100010007A2222027DCAE4FFFE1206C4600C0FEFB2
:1000200070010E09E970F20A80EF22027DCFEE30F6
:10003000E707C3E49FFFE49EFE227BFFE4FF022E5E
:100040008D2222027DCB02038EE86480F8E933E83A
:100050003360110460F0ED33EC337009E8FCE9FD26
:10006000EAFEEBFF220460DED3EB9FEA9EE99DE807
:10007000C2E78CF0C2F795F0400CE8CCF8E9CDF976
:10008000EACEFAEBCFFB12035985D0F05804700387
:1000900020D5B3E80470075002B2D502039892D578
:1000A000EC0460F7E4CCC0E0C398F8603B941860BF
:1000B00008400DD0E0FB020370E4FBFAC9FC802885
:1000C000E830E406E4C9FBE4CAFCE830E305E4C92F
:1000D000CACBFCE854076010F8C3E913F9EA13FA35
:1000E000EB13FBEC13FCD8F130F52FC3E49CFCEFD1
:1000F0009BFFEE9AFEED99FDD0E0FBEF4E4D4C706C
:100100001222DB03020395EC2CFCEF33FFEE33FEEF
:10011000ED33FDED30E7EB020370EF2BFFEE3AFE1F
:10012000ED39FDD0E0FB50130BBB0003020398ED4B
:1001300013FDEE13FEEF13FFEC13FC020370EC4D06
:100140006011E8497017ED33EC3304600DE4FCFFF7
:10015000FEFD22E933E8330470F802038E120359DE
:1001600058046009E4CC2481500628500902039801
:10017000284003020395C0E0EB4A7044B98006D0E2
:10018000E0FB020384EF4E701CBD8008EBFFEAFE2B
:10019000E9FD80EBE98DF0A4FEE5F0020227E9CD50
:1001A000F9EAFEEBFFEF89F0A4FCE5F0CE89F0A4BC
:1001B0002EFFE435F0CD89F0A42DFEE435F0806704
:1001C000EF4E7005BD80D780C3EF8BF0A4ACF0EE8E
:1001D0008BF0A42CFCE435F0F8EF8AF0A42CE5F0C9
:1001E00038FCE433CB8DF0A42CFCE5F03BF8EE8A30
:1001F000F0A42CFCE5F038F8E433CF89F0A42CFC13
:10020000E5F038CF3400CE89F0A42FFFE5F03EFEB4
:10021000E433C98DF0A42EFEE5F039CD8AF0A42F89
:10022000FFE5F03EFEE43DFD33D0E0FB50070BBBA5
:10023000000F020398EC2CFCEF33FFEE33FEED339E
:10024000FD020370020398EC5D046005E859047038
:100250000302038E120359580460F6EC4860F2EC76
:100260007004FDFEFF22C860DB2481C85009C398DA
:10027000600250060203959850CAF582E9294B4A5C
:100280007005AB8202038475F0007C1A7880C3EF9E
:100290009BEE9AED99400DC3EF9BFFEE9AFEED9910
:1002A000FDE842F0DC23ACF0D0E0FFD0E0FED0E08F
:1002B000FDAB8220E7101BEB60BAEC2CFCEF33FFA8
:1002C000EE33FEED33FD020370E803F830E705C0BE
:1002D000F075F000EF2FFFEE33FEED33FD40B83048
:1002E000E7C280AA75F020800E75F010800575F0C9
:1002F000087D007E007F003392D530D50312098E31
:10030000EC334010EF33FFEE33FEED33FDEC33FC06
:10031000D5F0ED22E5F0247EA2D513CC92E7CDCE28
:10032000FF22EDD2E7CD33EC3392D524814006E4B1
:10033000FFFEFDFC22FCE4CFCECDCC24E0501174B6
:10034000FF80EDC3CC13CCCD13CDCE13CECF13CFC6
:100350000470F030D5DE02098EE9D2E7C933E83304
:10036000F892D5EDD2E7CD33EC33FC5002B2D52272
:10037000EC30E7100FBF000C0EBE00080DBD0004EE
:100380000BEB6014A2D5EB13FCED92E7FD2274FF9A
:10039000FCFDFEFF22E480F8A2D574FF13FC7D80F3
:1003A000E480EF74F8CC6480CCC86480C8F5820423
:1003B000604FC3EB9FF5F0EA9E42F0E99D42F0E802
:1003C0009C45F0603C501DE5825FFFE582D313CB76
:1003D0005BCBF42B5582FB50280ABA002409B900E4
:1003E0002008801DE5825BFBE582D313CF5FCFF44D
:1003F000C3132F5582FF50090EBE00050DBD00012D
:100400000CC3EB9FF5F0EA9E42F0E99D42F0E89CB8
:1004100045F06007CC4820E701B3EC22F920E7362D
:1004200024F950037907E4F42402FBE58215827075
:10043000021583DBF6E024FB501BE96014E4F0E5D1
:1004400082158270021583E004F0B40A08E4F0D942
:10045000EE7401F00A22C2D522ED33EC3392D5FAC4
:10046000602AB4FF33EDC2E77BFF60067A04797E31
:10047000E4227A04798720D5047A047982224E61B5
:100480004E002B494E46002D494E4600E47A08F0B6
:10049000A3DAFC7B00740722C083C082ECC0E0EDCD
:1004A000C0E0EEC0E0EFC0E0EA75F010A4CAABF027
:1004B00075F04DA42BFBE435F0FCEA2410FAEB3484
:1004C000C5FBEC34D9FCEDC2E7FF75F056A4F4246B
:1004D00011C5F0F434C58FF0A42AE5F03BE43CF0FC
:1004E00020E71412058ED0E0FFD0E0FED0E0FDD072
:1004F000E0FC1202478014F40412058ED0E0FFD015
:10050000E0FED0E0FDD0E0FC12013ED082D083E0DE
:10051000FAEDD2E7CD33EC332482FBE4C3CF33CF03
:10052000CE33CECD33CD33DBF37B0775F00A846059
:1005300004F0A31B0AE5F0F0A38FF0740AA4FFAC4B
:10054000F08EF0740AA42CFEACF050010C8DF07407
:100550000AA42CFDE435F0F0A3DBDE7407223F8013
:1005600000004120000042C80000447A0000461C00
:10057000400047C35000497424004B1896804CBE7D
:10058000BC205A0E1BCA6753C21C749DC5AEFB60CB
:10059000065407601C23231205BCEB543860091273
:1005A00005A81205B712013EECF8EDF9EEFAEFCB13
:1005B00022EB1205B780F1543803241C90055EFE2F
:1005C00093FC0EEE93FD0EEE930ECE93FF22E70901
:1005D000F608DFFA8046E709F208DFFA803E8882F3
:1005E0008C83E709F0A3DFFA8032E309F608DFFA2B
:1005F0008078E309F208DFFA807088828C83E3094F
:10060000F0A3DFFA806489828A83E0A3F608DFFA28
:10061000805889828A83E0A3F208DFFA804C80D276
:1006200080FA80C680D4806980F28033801080A6F2
:1006300080EA809A80A880DA80E280CA803389824A
:100640008A83ECFAE493A3C8C582C8CCC583CCF0F6
:10065000A3C8C582C8CCC583CCDFE9DEE7800D899D
:10066000828A83E493A3F608DFF9ECFAA9F0EDFBA4
:100670002289828A83ECFAE0A3C8C582C8CCC583EC
:10068000CCF0A3C8C582C8CCC583CCDFEADEE88045
:10069000DB89828A83E493A3F208DFF980CC88F0B7
:1006A000EF60010E4E60C388F0ED2402B4040050E8
:1006B000B9F582EB2402B4040050AF232345822312
:1006C00090061E73BB010689828A83E0225002E7EE
:1006D00022BBFE02E32289828A83E49322BB010CBF
:1006E000E58229F582E5833AF583E0225006E92583
:1006F00082F8E622BBFE06E92582F8E222E582299D
:10070000F582E5833AF583E49322BB010689828A68
:1007100083F0225002F722BBFE01F322F8BB010D49
:10072000E58229F582E5833AF583E8F0225006E96F
:100730002582C8F622BBFE05E92582C8F222EF8D8C
:10074000F0A4A8F0CF8CF0A428CE8DF0A42EFE2229
:10075000BC000BBE0029EF8DF084FFADF022E4CC8D
:10076000F875F008EF2FFFEE33FEEC33FCEE9DEC56
:10077000984005FCEE9DFE0FD5F0E9E4CEFD22ED9C
:10078000F8F5F0EE8420D21CFEADF075F008EF2FE6
:10079000FFED33FD4007985006D5F0F222C398FDD7
:1007A0000FD5F0EA22C2D5EC30E709B2D5E4C39DFB
:1007B000FDE49CFCEE30E715B2D5E4C39FFFE49E58
:1007C000FE120750C3E49DFDE49CFC800312075019
:1007D00030D507C3E49FFFE49EFE22C5F0F8A3E0F6
:1007E00028F0C5F0F8E582158270021583E038F034
:1007F00022BB0110E58229F582E5833AF583E0F515
:10080000F0A3E0225009E92582F886F008E622BB31
:10081000FE0AE92582F8E2F5F008E222E5832AF5EE
:1008200083E993F5F0A3E99322F8BB0111E582294E
:10083000F582E5833AF583E8F0E5F0A3F02250096C
:10084000E92582C8F608A6F022BBFE09E92582C880
:10085000F2E5F008F222EF2BFFEE3AFEED39FDEC67
:1008600038FC22C3EF9BFFEE9AFEED99FDEC98FC5D
:1008700022E88FF0A4CC8BF0A42CFCE98EF0A42C01
:10088000FC8AF0EDA42CFCEA8EF0A4CDA8F08BF04D
:10089000A42DCC3825F0FDE98FF0A42CCD35F0FC4B
:1008A000EB8EF0A4FEA9F0EB8FF0A4CFC5F02ECD17
:1008B00039FEE43CFCEAA42DCE35F0FDE43CFC22FC
:1008C00075F008758200EF2FFFEE33FECD33CDCCEF
:1008D00033CCC58233C5829BED9AEC99E582984072
:1008E0000CF582EE9BFEED9AFDEC99FC0FD5F0D64F
:1008F000E4CEFBE4CDFAE4CCF9A88222B800C1B979
:100900000059BA002DEC8BF084CFCECDFCE5F0CBB6
:10091000F97818EF2FFFEE33FEED33FDEC33FCEBEF
:1009200033FB10D703994004EB99FB0FD8E5E4F9AA
:10093000FA227818EF2FFFEE33FEED33FDEC33FC97
:10094000C933C910D7059BE99A4007EC9BFCE99A8B
:10095000F90FD8E0E4C9FAE4CCFB2275F010EF2FD0
:10096000FFEE33FEED33FDCC33CCC833C810D707D0
:100970009BEC9AE899400AED9BFDEC9AFCE899F80B
:100980000FD5F0DAE4CDFBE4CCFAE4C8F922C3E4F5
:100990009FFFE49EFEE49DFDE49CFC22EB9FF5F0AE
:1009A000EA9E42F0E99D42F0E89C45F022E8600FA3
:1009B000ECC313FCED13FDEE13FEEF13FFD8F12291
:1009C000E8600FEFC333FFEE33FEED33FDEC33FC95
:1009D000D8F122BB010789828A83020A0D5005E9FA
:1009E000F8020B16BBFE05E9F8020B2289828A8306
:1009F000020B2EBB010789828A83020A255005E972
:100A0000F8020B3EBBFE05E9F8020B4A22E0FCA30C
:100A1000E0FDA3E0FEA3E0FF22E0F8A3E0F9A3E0FD
:100A2000FAA3E0FB22ECF0A3EDF0A3EEF0A3EFF0CD
:100A300022A8828583F0D083D082120A48120A4805
:100A4000120A48120A48E473E493A3C583C5F0C5AB
:100A500083C8C582C8F0A3C583C5F0C583C8C58255
:100A6000C822E0FBA3E0FAA3E0F922F8E0FBA3A38D
:100A7000E0F925F0F0E582158270021583E0FA387E
:100A8000F022EBF0A3EAF0A3E9F022E493FB740177
:100A900093FA740293F922D083D082F8E49370120F
:100AA000740193700DA3A393F8740193F582888366
:100AB000E4737402936860EFA3A3A380DFEC8EF06D
:100AC000A4CCC5F0CCCDF8EFA4CEC5F02DFDE43C10
:100AD000FCE8A42EC8C5F03DFDE43CFCEFA4FFE516
:100AE000F028FEE43DFDE43CFC22EF4E6012EF6096
:100AF000010EEDBB010B89828A83F0A3DFFCDEFAD5
:100B00002289F05007F709DFFCA9F022BBFEFCF3B5
:100B100009DFFCA9F022E6FC08E6FD08E6FE08E68F
:100B2000FF22E2FC08E2FD08E2FE08E2FF22E49375
:100B3000FC740193FD740293FE740393FF22ECF6A0
:100B400008EDF608EEF608EFF622ECF208EDF208F2
:100B5000EEF208EFF222E508244FF582E43403F5C3
:100B600083E005082290034C30070390034FE4759F
:100B7000F001120A6B0206C42000E97F2ED2008029
:100B800018EF540F2490D43440D4FF30040BEF24DA
:100B9000BFB41A0050032461FFE50960021509057E
:100BA0000CE50C7002050B30070E90034CE475F059
:100BB00001120A6BEF02070A020FD97403D20780F1
:100BC00003E4C207F50890034C120A82E4F509F524
:100BD0000BF50CE50960077F20120B9980F5750A6B
:100BE000FFC201C200C202C203C205C206C208128D
:100BF0000B65FF700D3007057F00120BAAAF0CAE1E
:100C00000B22B4255FC2D5C204120B65FF24D0B4F9
:100C10000A00501A75F00A780930D50508B6FF01A8
:100C200006C6A426F620D5047002D20380D924CFAC
:100C3000B41A00EF5004C2E5D204020E9CD2018027
:100C4000C6D20080C0D20280BCD2D580BAD2058084
:100C5000B47F20120B992002077401B5090040F1FE
:100C6000120B56FF120B99020BD3D208D2068095B5
:100C7000120B56FB120B56FA120B56F94A4B700622
:100C8000799A7A0F7BFF20022EE509602A7E008E7A
:100C9000827583001206DD60060EEE650A70F0C2F2
:100CA000D5EBC0E0EAC0E0E9C0E0EE120EFDD0E016
:100CB000F9D0E0FAD0E0FB1206C4FF60AAEBC0E076
:100CC000EAC0E0E9C0E0120B99D0E02401F9D0E0DD
:100CD0003400FAD0E0FBE50A0460DCD50AD980874D
:100CE000D20280A2120EDF60F7E50A70010412043E
:100CF0001CA90A600DE50A600914F50A120F87EFB6
:100D000060F3EA30E702F404C3995079EAF4250A63
:100D10000430E701E404F50A800D120EDF60C1EA39
:100D2000050A250A12041CEA90037BF030E701E46F
:100D3000250A04D50A0420050114120EFDE4C0E0C2
:100D4000120F8790037BE0601320E70714F0120B6B
:100D500081802204F0D0E014C0E07F00120B81E516
:100D60000A6007120B78150A800B300503120B7806
:100D7000D0E0020BD3D0E00480C4120EDF609EE509
:100D80000A0412041C90037BEAF0E50A20050260C5
:100D900001042404120EFD74FF04C0E0120F871238
:100DA0000B81E50A2005026003120B78D0E0B50A3A
:100DB000E87F45120B8B90037BE07F2B30E7047FAD
:100DC0002DF404C0E0120B99D0E075F00A84C0F055
:100DD000120B82D0E0120B82020BD37910800279C1
:100DE00008C206C2088008D2D5790A8004790AC2EE
:100DF000D5E50A047002F50AE4FAFDFEFF120B566F
:100E0000FC7B08200113120B56FD7B1030000A12E8
:100E10000B56FE120B56FF7B20EC3382D592D55039
:100E200013C3E43000069FFFE49EFEE42001039D0F
:100E3000FDE49CFCE4CBF8C201EC700CCFCECDCC31
:100E4000E824F8F870F38017C3EF33FFEE33FEEDBC
:100E500033FDEC33FCEB33FB994002FB0FD8E9EB9D
:100E6000300105F8D0E0C448B201C0E00AEC4D4EB4
:100E70004F78207B0070C2EAB50A0040BCC0E01287
:100E80000EFFD0F0D0E0200104C4C0E0C4B201C025
:100E9000F0120B82D0F0D5F0EB020BD3120A970CB4
:100EA00070530DDB580C414C0C3D420DDF4F0DE7EC
:100EB000440DE7490C56430DED550D1A460D7A4584
:100EC0000CE4470FBA500C452D0C492E0C6C2B0C22
:100ED0004D230C6A200FA32A0C054800000C64E582
:100EE0000AB4FF03750A06120B56FC120B56FD12CC
:100EF0000B56FE120B56FF900374020459790AA296
:100F0000D5200314300509B910020404B9080104FE
:100F1000A2D52006025001042002689202B5090001
:100F20005034C0E07F203003197F30A20272067275
:100F300005500F120F56C202C206C205C2087F300A
:100F4000800F300503E9C0E0120B99300503D0E0B3
:100F5000F9D0E0B509CC3005177F30B9100C120B71
:100F6000997F583004077F788003B90803120B99E2
:100F70003002057F2D020B997F202008F87F2B205F
:100F800006F322920280CF7F00B40700500B247436
:100F9000F582E43403F583E0FF22286E756C6C293A
:100FA00000D201120B563001F8C201780930D50188
:100FB00008F6020C052D50434958120B562403B471
:100FC00005004001E4900FB593120B8A743A120B9E
:100FD0008AD203750904020DDBEFB40A07740D12FF
:100FE0000FE4740A309811A899B8130CC29830987D
:100FF000FDA899C298B811F63099FDC299F59922C9
:1010000025090301FFFFFFFFFFFFFFFFFFFFFFFFBA
:10101000900265120A2574FFFFFEFDFC900265E058
:10102000F8A3E0F9A3E0FAA3E0FBC312099C60383F
:101030007F807E967D187C4B900265E0F8A3E0F9F6
:10104000A3E0FAA3E0FB1203A36002501B7F807EA3
:10105000967D187CCB900265E0F8A3E0F9A3E0FA56
:10106000A3E0FB1203A3500F900265E0FCA3E0FD98
:10107000A3E0FEA3E0FF22900265E0FCA3E0FDA355
:10108000E0FEA3E0FF120322900269120A259002FB
:1010900069E0FCA3E0FDA3E0FEA3E0FFEC1202E4A4
:1010A000C8ECC8C9EDC9CAEECACBEFCB900265E067
:1010B000FCA3E0FDA3E0FEA3E0FF120049E4FBFA7D
:1010C000F9F81203A35025900269E0FCA3E0FDA308
:1010D000E0FEA3E0FFE4FAF9F8EF2401FFEA3EFEA8
:1010E000E93DFDE83CFC900269120A25900269E0A6
:1010F000FCA3E0FDA3E0FEA3E0FFEC1202E42278F3
:101100007FE4F6D8FD758166021146022574E493EA
:10111000A3F8E493A34003F68001F208DFF48029EA
:10112000E493A3F85407240CC8C333C4540F4420D9
:10113000C8834004F456800146F6DFE4800B0102C8
:1011400004081020408090118BE47E019360BCA3C2
:10115000FF543F30E509541FFEE493A360010ECF16
:1011600054C025E060A840B8E493A3FAE493A3F840
:10117000E493A3C8C582C8CAC583CAF0A3C8C58200
:10118000C8CAC583CADFE9DEE780BE4103FC00446C
:1011900003F8000000004104090041040800410474
:1011A00007004103FF0041040A0041037F0044039C
:1011B0008000000000602800000010000E000112F6
:1011C000101E000218213E00031E410D00041001F4
:1011D0002C000518240C000618231C000718203DBD
:1011E000004103DD005A03DE0007A12009B20870A8
:1011F00000A2003C006408B108700039000400043B
:10120000010100900346E0FFA3E0FEA3E0CF9003BE
:101210004FF0A3EEF0A3EFF0900349E0CBF0A3E092
:10122000CAF0A3E0C9F07F22900352AD82AC8312D2
:1012300006C48D828C83F0A309E970010ADFEC906B
:101240000349E0FBA3E0FAA3E0F9020BBBC2D5E837
:1012500030E70FB2D5E4C39BFBE49AFAE499F9E4D2
:1012600098F8EC30E717B2D51212831208FCE4C3E9
:101270009BFBE49AFAE499F9E498F880031208FCDD
:1012800030D50DE4C39FFFE49EFEE49DFDE49CFC8D
:101290002254785374617465203D203078253032B3
:1012A000627800525820536574204576656E743A12
:1012B000253032627820004D697069496E436C6B4D
:1012C0003A256C642C2063616C6320756C427974E0
:1012D00065636C6B3A256C642C20756C506879439F
:1012E0006C6B3A256C642C2075634270703A2562F1
:1012F000642C2075635478506F72744E756D3A305B
:101300007825303262782C20756354784C616E6594
:101310004E756D3A307825303262780042757273BE
:1013200074204D6F6465206C616E65207261746518
:1013300020696E6372656173652038304D005258C4
:101340005B485D3A2048746F74616C3A25642C48A0
:101350006163746976653A25642C4873773A25642D
:101360002C4866703A25642C4862703A25642C48F3
:1013700073706F6C3A2562640052585B565D3A2078
:1013800056746F74616C3A25642C56616374697687
:10139000653A25642C5673773A25642C5666703A64
:1013A00025642C5662703A25642C5673706F6C3A23
:1013B00025626400506F72743A2025303262782CB6
:1013C000204C616E653A20253032627800445343E8
:1013D00020736F667420776F7264636E743B007263
:1013E0006462797465636C6B3A25642C2072647056
:1013F0006978636C6B3A256420006873773A2564DA
:101400002C206862703A256420686163746976658F
:101410003A2564007563427070203078253032625E
:10142000783B00726561642064656C61793A256C73
:10143000750041645F6C6D74785F77726974655F85
:10144000636C6B203D20256C756B687A0041645F8E
:101450006C6D74785F726561645F636C6B203D20B6
:10146000256C756B687A0000FFFFFFFFFFFF000629
:10147000B3A02801010101041F0103803E2278EE80
:101480006995AD5246A1270F5054BFCF00814081CE
:10149000809500714F81C0B300D1C0010108E80000
:1014A00030F2705A80B0588A0055502100001E005A
:1014B0000000FD0018901EFF8A000A202020202036
:1014C00020000000FC005647323855514C31410A8B
:1014D000202020000000FF00313233343536373809
:1014E000393032380A01F002035AF15004131F1048
:1014F0000F1E015D5E5F60617603123F23090707DF
:1015000083010000E200EA6D030C001000383C2863
:1015100000600102036DD85DC401788853123078F1
:1015200083341D6D1A000002013090F000000000AD
:1015300000E305C000E421001C00E6060501606030
:1015400012366C80A070703E803020080C6D5521E2
:1015500000001A6FC200A0A0A05550302035006DC9
:10156000552100001A0027000000000000000000C4
:10157000000000000000000000000000000000006B
:10158000000000000000000000000000000000005B
:10159000000000000000000000000000000000004B
:1015A000000000000000000000000000000000003B
:1015B000000000000000000000000000000000002B
:1015C000000000000000000000000000000000001B
:1015D000000000000000000000000000000000000B
:1015E00000000000000000000000000000000000FB
:1015F00000000000000000000000000000000000EB
:1016000000000000000000000000000000000000DA
:1016100000000000000000000000000000000000CA
:1016200000000000000000000000000000000000BA
:1016300000000000000000000000000000000000AA
:10164000000000000000000000000000000000009A
:10165000000000000000000000000000000000008A
:10166000000000000000000A5468697320666D20C5
:101670007278706C6C5F696E5F636C6B000A5468A3
:10168000697320666D20646874785F6469765F6C46
:10169000696E6B5F636C6B000A5741524E494E474F
:1016A0003A2046726571206D6574657220676574B5
:1016B000206661696C005761726E696E673A2069D5
:1016C0006E70757420697320696E76616C69640050
:1016D0000A6C6F6164206B657920646F6E655B30A6
:1016E0007825303262785D000A5061747465726EDC
:1016F000207063722062616E64203D203078253056
:10170000326278000A5061747465726E2070637280
:10171000206C6F636B004D495049566964496E6691
:101720006F557064617465212121212121004D498B
:101730005049566964496E666F436C656172212138
:101740002121212100417564496E666F55706461E5
:10175000746521212121212100417564496E666F44
:10176000436C656172212121000A466C6173682017
:1017700045444944204C6F6164000A466C617368BB
:101780002045444944206E6F742065787369743A2B
:101790000054784576656E742D2562640000000063
:1017A0000000000000000000000000000000000039
:1017B0000000000000000000000000000000000029
:1017C0000000000000000000000000000000000019
:1017D0000000000000000000000000000000000009
:1017E00000000000000000000000000000000000F9
:1017F00000000000000000000000000000000000E9
:1018000000000000000000000000000000000000D8
:1018100000000000000000000000000000000000C8
:1018200000000000000000000000000000000000B8
:1018300000000000000000000000000000000000A8
:101840000000000000000000000000000000000098
:101850000000000000000000000000000000000088
:101860000000000000000000000000000000000078
:101870000000000000000000000000000000000068
:101880000000000000000000000000000000000058
:101890000000000000000000000000000000000048
:1018A0000000000000000000000000000000000038
:1018B0000000000000000000000000000000000028
:1018C0000000000000000000000000000000000018
:1018D0000000000000000000000000000000000008
:1018E00000000000000000000000000000000000F8
:1018F00000000000000000000000000000000000E8
:1019000000000000000000000000000000000000D7
:1019100000000000000000000000000000000000C7
:1019200000000000000000000000000000000000B7
:1019300000000000000000000000000000000000A7
:101940000000000000000000000000000000000097
:101950000000000000000000000000000000000087
:101960000000000000000000000000000000000077
:101970000000000000000000000000000000000067
:101980000000000000000000000000000000000057
:10199000000000000000000000000000004D697021
:1019A0006920445349204F7574004D697069204384
:1019B0005349204F7574004D697069204F7574202C
:1019C00044697361626C6500506F727420307E33BD
:1019D0002052702043616C6920526573756C743AB3
:1019E0002025303262782C2025303262782C202558
:1019F000303262782C20253032627800506F727459
:101A000020307E332052642043616C69205265731C
:101A1000756C743A2025303262782C202530326281
:101A2000782C2025303262782C20253032627800E4
:101A30004450687920436C6B206275727374204D3A
:101A40006F6465004450687920436C6B20636F6E4F
:101A500074696E7565204D6F646500445349207646
:101A60006964656F204E4F4E5F42555253545F4D2F
:101A70004F44455F574954485F53594E435F45565D
:101A8000454E540044534920766964656F204E4F9B
:101A90004E5F42555253545F4D4F44455F57495432
:101AA000485F53594E435F50554C5345004453498A
:101AB00020766964656F2042555253545F4D4F4400
:101AC00045004D49504954585F33445F4D4F44459C
:101AD0003A204D4950495F4C4546545F524947486A
:101AE000545F4D4F4445004D49504954585F33446D
:101AF0005F4D4F44453A204D4950495F4E4F5F334B
:101B0000445F4D4F44450076636F204461746152D9
:101B10006174653A20256C752C20256C7500506F1A
:101B2000737420646976203D2032004132303720C2
:101B300052475F4C4D5458504C4C5F52414E4745B4
:101B40005F53454C203A203078253032627800418E
:101B5000323041204C4D5458504C4C5F4449565FF4
:101B6000534554203A2030782530326278004C4D6D
:101B70005458504C4C2063616C69206661696C005C
:101B80004C4D5458504C4C206C6F636B20666C610C
:101B9000673A3078253032627820004C4D545850E6
:101BA0004C4C20756E6C6F636B004C4D5458504C10
:101BB0004C2063616C6962726174696F6E2062614E
:101BC0006E646F75743A2030782530326278203038
:101BD000782530326278004279746520636C6B3A04
:101BE00025754D687A00636B5F706F7374202830C1
:101BF000784639413929203D2030782530326278C5
:101C000000636B5F7A65726F202830784639413700
:101C100029203D20307825303262780068735F6C6F
:101C2000707820202830784639413429203D2030F2
:101C30007825303262780068735F70726570202892
:101C400030784639413529203D20307825303262C0
:101C5000780068735F747261696C28307846394126
:101C60003629203D20307825303262780068735F55
:101C700072717374202830784639384129203D200C
:101C8000307825303262780000000000000000004B
:101C90000A547261696E696E6720657120696E66AB
:101CA0006F3A000A4C302076616C69645B307825AD
:101CB0003034785D2C45515B307825303262785D68
:101CC000000A4C312076616C69645B3078253034D1
:101CD000785D2C45515B307825303262785D000AA2
:101CE0004C322076616C69645B3078253034785DE5
:101CF0002C45515B307825303262785D000A4C33D8
:101D00002076616C69645B3078253034785D2C45D1
:101D1000515B307825303262785D000A4551486960
:101D200067203D2030782530326278000A45514CDA
:101D30006F77203D2030782530326278000A534397
:101D4000414E205354524154000A46454353544196
:101D50005445203D2030782530326278000A4C61AD
:101D60006E65457272203D203078253034782C30F5
:101D700078253034782C3078253034782C3078251C
:101D8000303478000A5363616E5F45514C4F5720E1
:101D90003D20307825303262782C30782530326220
:101DA000782C307825303262782C307825303262C9
:101DB00078000A5363616E5F4551484947203D20D2
:101DC000307825303262782C307825303262782CA9
:101DD000307825303262782C3078253032627800C5
:101DE0000A414344525F4953535545000A56616CBA
:101DF00069644571203D20307825303262782C307E
:101E00007825303262782C307825303262782C3068
:101E1000782530326278000A536B6577203D203098
:101E20007825303262782C307825303262782C3048
:101E30007825303262782C30782530326278000094
:101E4000000102030405060708090A0B0C0D0E0F1A
:101E50000F0F0F0F0F0F0F0F0F0F0F0F0F0F0F0F92
:101E60000000000000000000000000000000000072
:101E7000000102030405060708090A0B0C0D0E0FEA
:101E80000FFFFFFFFFFFFFFFFFFFFFFFFF0000004F
:101E90000001010101000000000A436F6C6F7269CC
:101EA0006D65747279206368616E6765203D2030CE
:101EB000782530326278000A44705278494E464F95
:101EC0003A000A486270202020203A20252D3864EC
:101ED0002020566270202020203A20252D386400D2
:101EE0000A486670202020203A20252D38642020C2
:101EF000566670202020203A20252D3864000A489C
:101F000073796E6320203A20252D38642020567383
:101F1000796E6320203A20252D3864000A486163D9
:101F2000742020203A20252D3864202056616374C7
:101F30002020203A20252D3864000A48746F6C2038
:101F400020203A20252D3864202056746F6C2020E4
:101F5000203A20252D3864000A44657074682020DA
:101F60003A20252D3862642020537061636520205B
:101F70003A20252D386264000A506978436C6B2042
:101F80003A20252D386C6420205065616B436C6BC2
:101F90003A20252D386C64000A52656672657368B4
:101FA00052617465203D202564000A5278537461A3
:101FB0007465203D20256264000A447052782055E3
:101FC0006E706C7567000A527820506C7567000A55
:101FD0005761697420454343000A45636320657275
:101FE00072000A52782072652D747261696E696E92
:101FF00067000A534B657720556E6C6F636B000A60
:10200000436F6C6F72207370616365206368616EEB
:102010006765000A4D7361206368616E6765000A39
:102020004453432043484E47000A476F746F205083
:102030004352000A417564696F20636867000A4172
:1020400043445220556E6C6F636B000A52415445F5
:102050005F4C414E45203D20307825303262782C4F
:1020600030782530326278000A44652D736B6577CD
:1020700020657272000A5761697420706372207360
:102080007461626C652E2E2E000A50435220484126
:10209000524420524553455400447363456E6320B7
:1020A000536C696365203D202562642C436F6D701D
:1020B00072657373526174696F203D2025626400FC
:1020C000447363456E6320536C6963654865696753
:1020D0006874203D2025642C536C696365576964DE
:1020E0007468203D2025642C4368756E6B53697AB3
:1020F00065203D2025640041645F63736374785FED
:1021000068616C665F7069785F636C6B203D202549
:102110006C756B687A0041645F64736374785F64A4
:1021200073635F72645F636C6B203D20256C756B1D
:10213000687A0041645F64736374785F6473635F9B
:10214000636C6B203D20256C756B687A0041645F81
:1021500064736374785F6473635F6F75745F636CDB
:102160006B203D20256C756B687A0011000089306A
:10217000800F000DE00780037803780200032B0036
:1021800020BE97000C000F00110009180010F0038A
:102190000C2000060B0B330E1C2A38465462697063
:1021A00077797B7D7E01020100094009BE19FC1987
:1021B000FA19F81A381A7822B62AB62AF62AF443F7
:1021C0003463740000000000000000000000000004
:1021D00000000000000000000000000000000000FF
:1021E00000000000000000000000000A4750494FB6
:1021F0002054726967676572204C6F77000A4750F8
:10220000494F2054726967676572204869676800A2
:102210000A44702052782076696420696E666F3AAD
:10222000000A436F6C6F7253706163655B25626473
:102230005D000A436F6C6F7244657074685B256261
:10224000645D000A52785F5065616B5F636C6B2060
:102250003D2020256C640075636142726967687473
:102260006E6573735B315D3A307825303262782C5D
:10227000207563614272696768746E6573735B325F
:102280005D3A3078253032627800445052585F53BE
:1022900054415449435F4844525F4E4F5449465954
:1022A0005F4556454E540054585F564944454F5F6C
:1022B0004F4E5F4556454E545F3300445052585F71
:1022C000564944454F5F4F46465F4556454E54007C
:1022D000000000444542554700494E464F005741D3
:1022E000524E004552524F520043524954000A5B2D
:1022F000252D35735D2025730003FF22D3FF22D9DE
:10230000FF22DEFF22E3FF22E900000000000000C0
:1023100000000000000000000000000000000000BD
:1023200000000000000000000000000000000000AD
:10233000000000000000000000000000000000009D
:10234000000000000000000000000000000000008D
:10235000000000000000000000000000000000007D
:10236000000000000000000000000000000000006D
:10237000000000000000000000000000000000005D
:102380000000000000000000000A4470527820485D
:10239000504420495251000A447052782048504419
:1023A0002048696768000A447052782048504420E9
:1023B0004C6F77000A527820527465726D206973F1
:1023C0002030782530326278000A43616C692073CE
:1023D000756363657373000A43616C6920666169A4
:1023E0006C6564000A4470207278706C6C206261C5
:1023F0006E64203D20307825303262782C3078258C
:10240000303262782C307825303262782C30782562
:1024100030326278000A706372206873796E6320CC
:102420006D6F6465002120212000F02222222223EA
:10243000805656AAAA40636868CCCCC0FE436F6C35
:102440006F7253706163653A20256264202C2043CB
:102450006F6C6F7244657074683A20256264004442
:1024600053435B485D3A2048746F74616C3A25644D
:102470002C486163746976653A25642C4873773A11
:1024800025642C4866703A25642C4862703A2564AD
:102490002C4873706F6C3A256264004453435B565A
:1024A0005D3A2056746F74616C3A25642C566163F2
:1024B000746976653A25642C5673773A25642C56F0
:1024C00066703A25642C5662703A25642C567370F7
:1024D0006F6C3A256264004D697069204443532053
:1024E000454E44000511000529000510000528008F
:1024F0001536C629B00039B9132A026439EC05D85B
:1025000029D60029B003293500293640292601297A
:1025100003010A43686970506F7765724F6E000A55
:1025200046575F564552203D20307825303262783C
:102530002C307825303262782C3078253032627831
:10254000000A4653203D20307825303262780090D2
:102550001000E49390E080F0901001E49390E0810B
:10256000F0901002E49390E082F0901003E49390D6
:10257000E083F02212653F127BC7126E71B14FB13A
:10258000A87A25791212003A7A25791F90E08112F3
:1025900082C490E082E090029BF090E083122F488A
:1025A000127FFC12565C80F8127DD4127DEC7F0104
:1025B000D1177F01127641127A6D7B017D0C7F0964
:1025C00012533A126E83120006E49003FCF0127A62
:1025D0004F128485E0A3F022EF6401701790E12888
:1025E000F090E580E054F7D11054FDF0ED54FB90ED
:1025F000E580F02290E580E04404D1104402F0ED43
:10260000440890E580F090E12874FFF022E0440156
:10261000F0FD90E10BE022B1D87F01EF640170176B
:1026200090E129F090E580E054FDD11054FEF0EDEA
:1026300054FE90E580F02290E580D10D4401F0ED4C
:10264000440290E580F090E12974FFF02290026B43
:10265000EFF0127E6690026BE024FD601614601CA1
:1026600024F9602924FD605B240C705BE4900397DF
:10267000F08016124012123FF40237FEE4FF126C93
:10268000B60FD1177F04F1D8E4FF0275E79000423E
:10269000E0703490002CE0C394077480948040274D
:1026A0009003FCE07021900394E0900041F0A3744B
:1026B00001F07BFF7A22798AFFD1D17F0B12765EFF
:1026C0000256BD7F05F1D8227BFFE0900281F0E445
:1026D000FF90027DEFF0A3120A8278A97C027D01AF
:1026E0007BFF7A2379097E007F8012069E90027D0F
:1026F000E0FFD3125655505890040AE0FEEFC39EF7
:10270000404E7B017A027981900329120A8290025D
:102710007E128434900329120A62900349F1F11267
:1027200012039003291283CB90027DE075F003A47D
:1027300024FAF582E43422F583120A8B90034FF1D8
:10274000F1900352120A827BFF7A2279EE120BC1BA
:10275000227D0FF1977A2079F7F188D1D17D12F19E
:10276000977A217916F188D1D17D137F0312407FAA
:102770007F32F19E7A217933F188D1D17D14F1979E
:102780007A21794DF188C1D1900261120A0D90022F
:1027900081120A257F01227F0312407F7F057E0080
:1027A000F1BAE4FD7F03123E6B900261120A257BB1
:1027B000FF22E054F7F07F017E00EF1FAA067001B0
:1027C0001E4A6013E4FCFDC3ED9474EC940250EADD
:1027D0000DBD00010C80F0229004027401F0900401
:1027E00001EFF07BFF7A177991900281F07F01C1B0
:1027F000D1120A827B017A0279A92290038E741485
:10280000F0A37404F09003887401F0A3F0A3F07EA9
:10281000007F457D007B007A007922020AEA90035E
:10282000FCE0601BF1C0EF64017014FD7F09126EC3
:10283000877B017A0379F811677A2179EBF142906D
:1028400003FCE06021F1C0EF701C7B017A0379F892
:102850007FC8FEFDFC7141700D9003FCF0126E8389
:102860007A2179FDF14222F110F13C900264120AC2
:102870000DAB07AA06F116C3EF9BFFEE9AFE1200FE
:102880002ED3EF947FEE648094804004F116F13CE7
:10289000900264714E0209F3900385E0120A9728B2
:1028A000CD0128DA0228FA03290804291605294C43
:1028B00006296708299C0929C10A29F40B2A4B0D0E
:1028C0002AB80E2ADB0F2AE51000002AE8127DFB49
:1028D0001262401268197F0241E27147700951EAA1
:1028E0001167E490038CF051EA7F287E00713D600F
:1028F0000241E812000E7F0341E290038BE0640185
:10290000600241E87F0441E290038DE064016002CF
:1029100041E87F0541E27147700E51EA1167E4FF1B
:1029200012758BE490038CF051EA7FB07E04713D08
:10293000600241E8127DFE1268E912669F7F06126E
:1029400034597F0912332B7D0102691C1267FEEF97
:102950006401600241E851EA7F50FEFDFC71416074
:102960000241E87F0841E27147701751E911677B26
:10297000FF7A20794B7828E690029AF008E6A312B5
:102980006C3051EA7F807E0C713D6009F1CCEF64C0
:1029900001600241E8127CE07F0941E27147700466
:1029A00051E911677133600241E8126BB9EF700DA4
:1029B0007F07B1C37A20796812003A41B47F0A4197
:1029C000E2714770187F06B1C37F01B1C3E4900381
:1029D0008CF01F126CDC126BD151EA1167713360FD
:1029E0000241E8126BD1EF70077F01126CDC41B439
:1029F0007F0B41E271477029FF1225D8126BEA7FE5
:102A00000112662090039974FFF0A3F0A3F0E49004
:102A100003A0F0A3F0A3F0A3F090038CF090039830
:102A2000F0123111127E01EF600241E81237F3EF2C
:102A3000640170099003AC04F07F0C41E27F011245
:102A400025D8E49003ACF07F0D41E27147701AFF86
:102A500091C951EA11677BFF7A2079757F03D18D87
:102A6000E490038CF0900384F07F0191C97133707E
:102A70001B126D35EF6401700EF1CCEF640170072D
:102A80007F0E1234598005F1CCEF605C51EA7FD0A3
:102A90007E07713D7052900384E004F0E0640A7098
:102AA000137A207989126D257F01B1C30F128395A6
:102AB000900384F051EA01677147701B900393F013
:102AC00090038C51E91167126AC99003AEEFF012BE
:102AD0006ACF9003AFEFF07F0F800771477001F06E
:102AE0007F100234591230E922F07B017A03798099
:102AF00022F13CF11090026C120A251209D39002C7
:102B000068120A25F151123FA9401090026C714ED3
:102B10001209F3F151120A257F0022900264F15448
:102B2000120A1912085690026C123FA97F00400247
:102B30007F01227B017A0379807F907E017D007C7A
:102B40000051F1EF64012290038CE0640122120A2B
:102B50000D900261020A62900261120A82E4FF7122
:102B6000E2715190000491B97F0171E271519000BE
:102B70000691B97F0271E2715190000891B97F030B
:102B800071E2715190000A91B97F0471E271519024
:102B9000000C91B97F0571E2715190000E91B97FDF
:102BA0000671E2715190001091B97F0771E2715185
:102BB00090001291B97F0871E2715190001491B99F
:102BC0007F0971E2715191B67F0A71E271519000F3
:102BD00018EF12071C7F0B71E27151900019EF0280
:102BE000071CAB07900272120A3100000000EB12C2
:102BF0000A972C1A002C24012C2E022C38032C426C
:102C0000042C51052C5D062C69072C75082C8109B4
:102C10002C8F0A2C9B0B00002CB090F7F6E0FE9056
:102C2000F7F7802690F7FAE0FE90F7FB801C90F70C
:102C3000F2E0FE90F7F3801290F7EAE0FE90F7EBF7
:102C4000800890F7F0E0FE90F7F191C01283DC80ED
:102C50003990F7F4E0FE90F7F591C0802D90F7F8E9
:102C6000E0FE90F7F991C0802190F7EEE0FE90F73A
:102C7000EF91C0801590F7E8E0FE90F7E991C080F1
:102C80000990F7ECE090F7ED91BFFEE4FD801B901A
:102C9000F7E7E05410C412848E800F90F7E7E054F9
:102CA00020C4135407FFE4FCFDFE900272120A25B3
:102CB000900272020A0D900016EE8FF0020829FEB3
:102CC000E07C002400FFEC3E22AB07900262120A77
:102CD0003100000000EB700890F362E054F0F02245
:102CE00090F3E2E030E41E90F3F8123F87123E4783
:102CF00090F3F9E07F00FE123E4190F3FAF13512B5
:102D000008561244DCE4FFFEFDFCB1B37002A1AA38
:102D1000B1AB4002A1AAE47F3E7E49FDFCB1B350B5
:102D2000089002617406F08064E47F7C7E92FDFC72
:102D3000B1B350089002617405F080517FF87E2491
:102D40007D01B1B150089002617404F0803F7FF0C2
:102D50007E497D02B1B150089002617403F0802D6C
:102D60007FE07E937D04B1B150089002617402F05F
:102D7000801B7FC07E277D09B1B15008900261742D
:102D800001F08009B1AB5005E4900261F090F3F8D6
:102D9000E0C45407FF900261E0FE6F600DEE44084E
:102DA000FFF090F362E054F04FF0227F807E4F7D81
:102DB000127C00900262120A19C302099C7F05B1BD
:102DC000C37F03EF24FD603614603E146025146059
:102DD0000C1460142406703B90F1B4802F90F1B471
:102DE000E054DFF04420F02290C908E054EFF044B2
:102DF00010F02290F1B5E054F7F04408F02290F181
:102E0000B5E054FBF04404F02290F1B5E054FDF03D
:102E10004402F0227BFF7A1C7990E4FFD18D7BFF86
:102E20007A1C79A390F1F3E0FE90F1F491C0F108DF
:102E300090F191F1487BFF7A1C79C190F1F5E0FEA9
:102E400090F1F691C0F10890F193F1487BFF7A1C64
:102E500079DF90F1F7E0FE90F1F891C0F10890F180
:102E600095F1487BFF7A1C79FD90F1F9E0FE90F135
:102E7000FA91C0F10890F197E090029CF0E4FF8095
:102E80000C7BFF900295E090029AF0E4FF9002978D
:102E9000120A829022F9E493FEEFD39E50697B01DF
:102EA0007A02799A9002C2120A82900297128434AE
:102EB0009002C2120A62900349120A827B017A02CE
:102EC00079C61212039002C21283CBE49002C5F0BD
:102ED0007B017A0279C61200169002C5E0FDFB3331
:102EE00095E0FAC3EB9FEA9E501DEDFF3395E0FE9F
:102EF00074C62FF58274023EF583E0FF120FD9905D
:102F000002C5E004F080C92290029AF0A3EFF022FB
:102F1000900261120A82900403020A0D7F02FEFDF4
:102F2000FC900039120A19120871A804A905AA0612
:102F3000AB07900031E0FFE4FCFDFE22900264024A
:102F40000A257BFFE4FFC18DE090029CF0E4FFC105
:102F50008D90026C120A0D9002682212669870041D
:102F6000FDFFF181126819B1BD0FB1C3E490039365
:102F7000F00F1200077F040200079003877401F02E
:102F80002290F1BD7498F0EF6401701EED64017B36
:102F9000FF700B7A237989F1B9126BFFF0227A2343
:102FA0007997E4F1B9E04402F0227A2379A6126D10
:102FB0001E90F1BBE054FDF022FFD18D90F1BB22B9
:102FC00090A387E07F0030E4027F012290F2F6E0D8
:102FD0005408701B90F2F7E05408701390F2F8E078
:102FE0005408700B90F2F9E0540870037F01227FBF
:102FF00000227B017A02796190C67CE09000021287
:10300000071C90F2F1E0131313540112070A90F217
:10301000F5E0FF540711D7EF54F090000312071C9E
:1030200090F263E090000512071C90F264E09000BB
:103030000612071C90F265E090000712071C90F240
:1030400066E0114E90F267E090000902071C9000C4
:103050000802071C126C36EF640170400412070A64
:1030600090F2BDE0C4131313540111D790F2BCE0E9
:10307000FFC4540F11DDFD7C006402700690000750
:1030800004800BED64014C70089000077402120775
:103090001CEF540F114E90F2BDE08033E412070A8A
:1030A00090F2EBE0FF131313541FFE540111D7EFFE
:1030B000C313540311DD64037008900007740412F5
:1030C000071C90F2EBE0FFEE5403114EEFC41354D3
:1030D0000790000902071C90000102071C900007DE
:1030E00012071C9000070206DD7A0279613108FFA1
:1030F00090039AE06F6010EFF07BFF7A1E799912CF
:103100002E877F10120007227B011154900269E084
:10311000227A0279623108FE900399E0B5061B908D
:10312000026BE0FF90039BE0B5070F900262E0FFA7
:10313000900398E0B507037F0022900262E09003BD
:1031400098F0A3EEF090026AE090039AF090026B80
:10315000E090039BF0900398E064017003FF80020D
:103160007F011266207F012290026174FFF09003BC
:103170008BE070026107900385E0D391994018902D
:10318000038DE07012122F5B710E91995002800234
:103190007F04900261EFF0900385E0D39406748081
:1031A0009480401612680EEF6401700E7BFF7A1F48
:1031B00079E2FF122E8D7F069159900385E0640A13
:1031C0007027126BB9EF70217829125D19401A7BB4
:1031D000FF7A1F79F2E4710A940974809480500296
:1031E00080027F09900261EFF0900385E0D3940B99
:1031F0007480948040543111EF640170137A1F7908
:10320000FF71087115500280027F0A900261EFF091
:10321000127E01EF640170137A2079137108711521
:10322000500280027F0A900261EFF0F1F39003AC4C
:10323000E06F60167BFF7A20791FE4710A711550E8
:103240000280027F0A900261EFF0900385E0D39440
:103250000D748094804022126D35EF6006122FCCE1
:10326000EF70167A207929128271710E7115500251
:1032700080027F0A900261EFF01284169480403F32
:10328000126C6A126C06EF64017013127D727BFF80
:103290007A2079337F03122E8D7F0E120007126A77
:1032A000BDEF701B7BFF7A20793E7F03710B940981
:1032B00074809480500280027F09900261EFF09048
:1032C0000385E0C371F34035900261E071F3402D56
:1032D0007F04711C70097F0471227F0D1200077F2B
:1032E00003711C70097F0371227F0B1200077F0599
:1032F000711C70097F0571227F0C1200079002611A
:10330000E0FFF460029159227BFFFF122E8D9002A4
:1033100061E0FFC322940A74809480227189EF6473
:103320000122712B9003947401F022EF120A97335B
:103330004800336303334D04336E08335809337345
:103340001D337E1E0000338890E530800390F21814
:10335000E04480F0547FF02290F219E04410F054E1
:10336000EFF02290F218E04408F054F7F02290E5D4
:1033700039800E90E532E04402F054FDF02290E5F1
:1033800032E04401F054FEF022E4FEEF120A9733DB
:10339000AB0033CB0333B00433D40833B90933C2A1
:1033A0000A33D91D33E21E000033E990E540800363
:1033B00090F2EDE05480FE803090F2EEE05410FE8A
:1033C000802790F2EEE05404FE801E90F2EDE0546F
:1033D00008FE801590E549800C90E542E05402FE1D
:1033E000800790E542E05401FEEE60027E01AF06E8
:1033F00022E0D39410748094802290F1CCE0648019
:10340000700790F1CD71F140037F0022EFFD7C0049
:10341000126139401290F1CEE06480700790F1CFD4
:1034200071F140037F0022C3ED9404EC648094802A
:10343000402490F1D0E06480700790F1D171F140A8
:10344000037F002290F1D2E06480700790F1D37185
:10345000F140037F00227F0122900385E0FE6F6030
:1034600036900262EEF0900385EFF090038C7401C9
:10347000F07BFF7A1F79AA90029A126C2F90038535
:10348000E0641070057F03120007900262E0641090
:1034900070057F0412000722C39404748094802274
:1034A000123FC990026D7401F0E4A3F0A3F0A3F001
:1034B000F1EDD10890A200E04410F054FBF090A28E
:1034C00001E054E0F0F090A20274A8F0E490A204AD
:1034D000F090A205F090A206F090A207F090A20A48
:1034E0007480D1017BC07A2779097800D312099CB6
:1034F000402E900271120A19C374C09BFF74279A60
:10350000FE740999FDE498FC12840FF8D312099C0B
:10351000400ED102EF2410FFEE3427127C69D1084F
:103520007BFF7A1B7907D102900281120A25F1ED07
:10353000900285120A25E4FF1226D1E490026FF072
:1035400090026FE0919850227E4F7D121284D51226
:103550002DB6501690026EE004D10178011209C018
:10356000D10890026FE004F080D67E847D1E128424
:10357000D5123FA9401BD10278011209ADD10890A4
:10358000A200E04404F07BFF7A1B791EE4FF1226C0
:10359000D190A207E054F8FFF090026EE0FE4F9049
:1035A000A207F07BFF7A1B792B900281EE12580F55
:1035B0001284CD900271D118900270EFF01284CD78
:1035C000A3D118AC00AD01AE02AF03E4FBFAF9F8E9
:1035D000C312099C6006900270E004F090A20AE019
:1035E0005480FFF0900270E0FE4F90A20AF04480F9
:1035F000F07BFF7A1B794F900281EEF0E4FF022608
:10360000D1F0900271020A0D900271020A25F0E4D5
:103610007B08FAF9F8900035120A0D0208FCE478EC
:103620000DF690F436E0541F7810F690F426E0186A
:10363000F690F432E0540F7832F6E008F6E008F63F
:10364000E004780DF67810E691984025780DE67143
:10365000F24002E175E408F6780EE6FFC3189650D2
:103660001490F432E0FE74352FF8A606780E06802A
:10367000E7E4780DF6E4FF1261EF780FE67002E1FF
:103680004524F07002E11524D0602F24F0606524F9
:10369000C0601824106002E16A780DE6FF125D49EF
:1036A0007832E6640F6002E1668066780DE6FF120C
:1036B0005E30780DE6FFF17CE16E7834E6FD7C004B
:1036C00064507019780DE6640170277810E664057F
:1036D00070201283B6E6601A12846A8012ED64309C
:1036E0004C700F780DE6640170087835E660037859
:1036F00025F68072128473700B7810E664047004EF
:10370000F19E806AEB64524A70337810E66404706C
:103710002C7F108057128473700B7810E66404704D
:1037200004F19E8010EB64504A70127810E6640336
:10373000700BFFF176E47856F608F68031780DE6E6
:10374000FFF1DB80297834E66450701A780DE66466
:103750000170137810E66405700C1283B6E66006FB
:1037600012846A7825F6E4FF8002E4FFF1761261A4
:10377000E5E4FF712B2290F433EFF022AE079004C2
:1037800009E06006E4F07F2080ECF1D27811E6FFDA
:10379000C39E500974452FF8E6F1F680EF22780DAC
:1037A000E6FFF1D07811E6FFC39E5018EF78572658
:1037B000FDE41836FC74472DF58274003CF583E077
:1037C000F1F680E0AF067857EF26F618E436F622D9
:1037D000AE07E4FFF176E47811F622F1D07811E635
:1037E000C39E5008E490F433F00680F12290026901
:1037F000020A0D7F002290F433F0781106227B013B
:103800007A02796C1230547A2279101282717BFF1D
:103810007A227921900273122E867BFF7A227932E6
:10382000900275122E867B017A02797690F2E7E09B
:10383000FE90F2E8122CC09000088FF01208299038
:10384000F2DFE090F2E011FA9000048FF012082904
:1038500090F2E1E0FE90F2E211FDF1CF900004124F
:1038600007F1311B95F09000028FF012082990F2B9
:10387000DBE0FE90F2DC11FD90000A8FF0120829C7
:10388000900008128382F1D831179C9000068FF0C7
:1038900012082990F2E9E0FE90F2EA122CC09000A2
:1038A000128FF012082990F2E5E090F2E611FA90FA
:1038B000000E8FF012082990F2E3E0FE90F2E4117E
:1038C000FDF1CF90000E1207F1311B95F090000C26
:1038D0008FF012082990F2DDE0FE90F2DE11FD90EB
:1038E00000148FF0120829900012125A8EF1D8316C
:1038F000179C9000108FF0020829547FFEE02400EE
:10390000FFEC3E2225E0246CF582E43402F583E0EE
:10391000FEA3E0FF900266E0FCA3E0FDC3EF9DFF85
:10392000EE2290A130E0547FF04408F04404F054BB
:10393000FC126AB590A13EF090A1427480F0E49030
:10394000A13B1284E590E300E054FDF090E30174A4
:1039500020F0E490A132F090A1387427F090A139C2
:103960007406126AAD90A143E04430F07480443094
:1039700090A144F07420440190E301F090E30974B5
:1039800003F0F1BE9002627402F0E4F0900262E093
:10399000FB123498400261467178EB146011146098
:1039A0001714601D2403702090E30AE0F080199042
:1039B000E30AE04440F0801090E30AE04480F080A5
:1039C0000790E30AE044C0F09002617403F01265CE
:1039D000DF603590E105E054FCF090A130E054BF89
:1039E000F090E300E054FE1227B590E105E04403B7
:1039F000F090A130E04440F090E3001265E890E3DD
:103A000024E05403640270C6F1E3E0440CF090E358
:103A100029E090E32A122CBF900266F0A3EFF0E4B5
:103A2000900263F012564F400241D2900262E014BD
:103A30006010146012146014240370131283EFF0EA
:103A4000800D12836A80081283598003128348E430
:103A500090026AF0A3F0900264F0A3F0900265E097
:103A6000C394647480948050651227B6900265E018
:103A700004F090E326E0FE90E327122CC0FE9002B3
:103A800068F0A3EFF031149CFE12002EC3EF948077
:103A9000EE6480948050129002681283A6EE8FF03C
:103AA0001207DB900264E004F0900264E0640870A6
:103AB000AB90026AF1B0CEC313CE13D8F9FF9002D7
:103AC00063E025E0246CF582E434021284ADF1B7A2
:103AD000412474FF900276F0A3F0E4900263F012A8
:103AE000564F5055EF31049CFE12002ED3900277B2
:103AF000E09F900276E09E403C900262E0146015E8
:103B000014601714601924037018900263E0FF1208
:103B100083EFF0800D12836A8008128359800312AC
:103B20008348900263E031049CFE12002E900276DE
:103B3000EEF0A3EFF0F1B780A6F1BE90E309E054F8
:103B4000F3F07180218C7A2379E490E31212830CD4
:103B500090E313E090029BF090E314E090029CF05D
:103B600090E315E090029D126C3090A143E054CF99
:103B70001284DDF1E3740DF090E30AE0543FF0228B
:103B8000900262E004F02212840FF890003912369D
:103B900018900261EEF0A3EFF0E47BD07A071236C2
:103BA00013D13890002EE0FB7A007014900263F17C
:103BB000B0CEC313CE13D8F9F0EE900263F0800DAF
:103BC0009002631246057D07120750D13890002BF2
:103BD000E064016006EB64014A700D900264E02528
:103BE000E0F0900263E033F0900263127FBDF1EEEB
:103BF000D1381274E4900265EEF0A3EFF01274F382
:103C0000900267EEF0A3EFF07BFF7A1379DF90026A
:103C100063125913900261F194E4FF1226D17BFFE5
:103C20007A1379FA900251125913900253F1949039
:103C3000024D1258A9E4FF1226D1D1021282A3121A
:103C40000750D131120A25D12AE0FFD131F1A94024
:103C50001B900253E0D1071282A312075090026515
:103C600031179CFEE4FCFD123608800A90027112A6
:103C70000A3100000000900032E064016002A101FE
:103C8000D1022DFDEE3CFC90024DD1102DFFEC3EFB
:103C9000FE900263E0FCA3E0FD120ABD900275D124
:103CA00018900275123618900279120A2590026750
:103CB000E0FEA3E0FF900266E02FFF900265E03E89
:103CC000FED131F1A9402ED11B900275123618C0D9
:103CD00006C007D12AE0D123D007D006120863C05E
:103CE00006C007A3E0FEA3E0FBAA06E4D007D006C7
:103CF000120863800F900275120A310000000080E4
:103D000009123602900275120A25900275120A0DE8
:103D1000900271F1A94009123602900275120A252B
:103D20007A1479149000311226C8900031E025E011
:103D3000FFE433AB07FA3395E0F9F8E4FF7E80FD4A
:103D4000FC1208FC90026D120A25D10DFFE4FCFD67
:103D500090026D120A19D144900253D110FFD14143
:103D6000900263E0FEA3E0FFE4FCFD120871900204
:103D70006DD11890026D123618C006C007D12AE026
:103D8000D123D007D00612086390026D120A25E4F1
:103D90007B07FAF890026D123618900275120A1914
:103DA000F1C6900032E064027039D3900254E0947E
:103DB000E8900253E09403402AE47B02FAF9F89079
:103DC0000275123618C004C005C006C007E47B07A0
:103DD000FAF9F890026D123618D003D002D001D053
:103DE00000F1C67BFF7A14792390026912278B12A7
:103DF00026D11237EDAC06EC90F982F0EF90F98302
:103E0000F022900253E0C313FCA3E013FD90025193
:103E1000E0C313FEA3E01322120A25900261E0FE24
:103E2000A3E0FFFBAA06E4F9F822900265E0FEA3F6
:103E300022E4FCFD90027922900263EEF0A3EFF001
:103E400022E4FCFD120856A804A905AA06AB072225
:103E5000FFE0FEEF4E90A33EF07D127F0312407F05
:103E60007F0A7E001227BAE4FD7F031284BD6047FB
:103E7000146073147002E12324036002E16090C7B0
:103E800040E04480F090C758F187C004C005C006E8
:103E9000C00790C759122F3578081209C0D003D037
:103EA00002D001D000D14490C75A122F35F18012B0
:103EB0000A2590C740E15A90C748F187C004C00561
:103EC000C006C00790C749122F3578081209C0D024
:103ED00003D002D001D000D14490C74A122F35F14F
:103EE00080120A25E16790ED30E04402F090ED3C4D
:103EF000F187C004C005C006C00790ED3D122F3504
:103F000078081209C0D003D002D001D000D144906B
:103F1000ED3E122F35F180120A2590ED30E054FD70
:103F2000F0804490E690E04480F090E698F187C0FD
:103F300004C005C006C00790E699122F3578081214
:103F400009C0D003D002D001D000D14490E69A122B
:103F50002F35F180120A2590E690E0547FF080071B
:103F60007A1679981275C290026E120A0D90026D3F
:103F7000E0F9F81209C0A3120A2590026E020A0D98
:103F800012085690026E22E0540FFFE4FCFDFE780A
:103F9000100209C0E0FFA3E0900283CFF0A3EFF08E
:103FA000227F807E1A7D067C00120A19D302099CAA
:103FB000E0FEA3E0780322900263E004F02290E3A5
:103FC0000BE054FEF022120856900269020A25FE08
:103FD000900292F0A3EFF022C39FFFE5F09EFE90C7
:103FE00002922290E30BE04401F090E30922FD7C71
:103FF0000002073EE490039DF07BFF7A2279431193
:104000000C90029A120A25E4FF022E8D9003A8025A
:104010000A0DE490026CF07D187F03117F7F03127C
:104020003E6278011209C09003A4120A2590039BF6
:10403000E024FE600B14600C2403700C7F06800AE1
:104040007F0A80067F0C80027F08E4FCFDFE90035F
:10405000A491ED78031209AD9003A812849D640128
:10406000701C90026CE07016110C78011209C0E40B
:104070007B03FAF9F81208FC9003A8120A25221211
:1040800084BD60131460181460202403702490020F
:104090006DE090C740F0227BFF7A16796780067B3F
:1040A000FF7A16797DE4FF022E8D90026DE090E696
:1040B00090F02291C01281599003B57004E01480F1
:1040C00004E014540F900261F090A33EE09002616E
:1040D000123E5091DC91D5F01284057004EF25E07A
:1040E000FF313A70028006ED64024C700890A341E3
:1040F000E04402801CEFFD7C006404700890A34142
:10410000E04405800CED64084C700C90A341E04441
:104110000BF090A342E0F0123E5991DC91D5F09063
:104120000262123FA190A342E040054401F08001E9
:10413000F07F647E000227BAEEF0EFFD7C006401A0
:104140002290002EE07055313A7E1070027EF09081
:10415000A22791A67E2070027E3090A22831387E60
:104160000070027EA290A22C51ED70027EB290A24D
:104170002D31387E0070027E0190A22E51ED70022A
:104180007E0390A22F31387E0070027EFE90A2370F
:1041900051ED70027E8090A238EEF022313A7E100E
:1041A00070027EF490A22751ED70027EA290A22CA4
:1041B00031387E0070027EB290A22D51ED70027EE9
:1041C0000190A22E31387E0070027EC090A238513C
:1041D000ED70027E0F90A23931387E1090A22891A6
:1041E000A67F3090A228EFF090A238E064C0700A59
:1041F00090A2337402F090A234F090A2797403F08C
:1042000090A27A7430F090A27BF090A2307402F009
:1042100090A279740FF02290002EE07055313A7E12
:104220001070027EF090A25191A67E2070027E3026
:1042300090A25231387E0070027EA290A25651EDBB
:1042400070027EB290A25731387E0070027E0190DB
:10425000A25851ED70027E0390A25931387E007051
:10426000027EFE90A26151ED70027E8090A262EE0D
:10427000F022313A7E1070027EF490A25151ED701E
:10428000027EA290A25631387E0070027EB290A2C9
:104290005751ED70027E0190A25831387E007002B5
:1042A0007EC090A26251ED70027E0F90A263313801
:1042B0007E1090A25291A67F3090A252EFF090A271
:1042C00062E064C0700A90A25D7402F090A25EF099
:1042D00090A28F7403F090A2917430F090A292F0AB
:1042E00090A25A7402F090A28F740FF022EEF0EDBB
:1042F00064014C7E002290002EE07055313A7E1011
:1043000070027EF090A21291A67E2070027E309004
:10431000A21331387E0070027EA290A21751ED7078
:10432000027EB290A21831387E0070027E0190A207
:104330001951ED70027E0390A21A31387E0070028E
:104340007EFE90A22251ED70027E8090A223EEF0BC
:1043500022313A7E1070027EF490A21251ED70026A
:104360007EA290A21731387E0070027EB290A21811
:1043700051ED70027E0190A21931387E0070027EEC
:10438000C090A22351ED70027E0F90A22431387E9E
:104390001090A21391A67F3090A213EFF090A22369
:1043A000E064C0700A90A21E7402F090A21FF09008
:1043B000A26E7420F090A26F74F0F090A27074302E
:1043C000F090A21B7402F090A26E7443F022900051
:1043D0002EE07055313A7E1070027EF090A23C9132
:1043E000A67E2070027E3090A23D31387E007002A1
:1043F0007EA290A24151ED70027EB290A24231386D
:104400007E0070027E0190A24351ED70027E039007
:10441000A24431387E0070027EFE90A24C51ED70B5
:10442000027E8090A24DEEF022313A7E1070027E24
:10443000F490A23C51ED70027EA290A24131387EF0
:104440000070027EB290A24251ED70027E0190A2F5
:104450004331387E0070027EC090A24D51ED700253
:104460007E0F90A24E31387E1090A23D91A67F30F3
:1044700090A23DEFF090A24DE064C0700A90A24877
:104480007402F090A249F090A284740CF090A2857E
:1044900074D0F090A2867410F090A2457402F0904F
:1044A000A284743CF022EEF0ED64014C22AA055186
:1044B000F6AF023141AF0371CE900264E0FF4117C5
:1044C00090E140E04401F090A33EE054F0F090A36E
:1044D00041E054F0F090A342E054F02290026202D6
:1044E0000A25EFF0E47F02FEFDFC900039120A1964
:1044F000020871900261120A31000000009003BCB2
:10450000B1F67940F1549003B8EEF0A3EFF09003C8
:10451000BCD1057D03120750AF05E490EF81F0EFA9
:10452000C4333354C0F04410F9F09003B8128152F0
:104530004990EF81F090EF82EDF09003B0E0FB90B6
:1045400003BC1283AD12073EE4FCFDB1EA78081209
:1045500009AD90EF8EEFF0B1F0E490EF8FEFF0EB5C
:1045600075F003A4FE240890EF8BF09003B7E0FFF2
:10457000C3EE9F90EF8CF09003BEB1F679C0F1547A
:10458000B1EA78081209AD90EF9AEFF0B1F090EF30
:104590009BEFF0E47F06FEFDFC90026191ED123E80
:1045A000479003BFE02406FF9003BEE03400FEE422
:1045B000FCFD120863E47B06FAF9F81208FC90EFA0
:1045C0009CEBF012825B90E102E064E2701B9003CE
:1045D000BCE0B4020DA3E0B41C0890A37CE054FD41
:1045E000F02290A37CE04402F022900261120A259E
:1045F000900261020A0DE0FCA3E0FDE41202E9E48E
:1046000022F090026CE0FEA3E0FF7C002212840FF7
:10461000F81208FCF14B90026AE0701590026C12DF
:104620003FB0CEC313CE13D8F9F0EE90026CF080F9
:1046300009D1027D07120750F14B7A1B79D79002FE
:104640006C125911E4FF1226D190026CE0FAA3E03B
:10465000FB7D3CFF12833790F9A4F07D32AF03124B
:10466000833790F9A5D1017D07F143AB07EB240413
:1046700090F9A6D1017D0612073E7D19120750AEB2
:104680000790F9A7EEF0EB240790F9A9F090026AE1
:10469000E07054900269E0640190026C7027A3E01E
:1046A000FBEE240790F9A7F07C007D07AF03AE0274
:1046B000F143EF240790F9A9F090F9A4E024679062
:1046C000F98AF0800CD1057D0A12075090F98AEF23
:1046D000F090026BE06401701E90F9A5E0FF90F984
:1046E000A4E02F240A800C90F9A9741EF090F9A47C
:1046F000E0243290F98AF07BFF7A1B79E690F9A9E1
:104700001226CA7BFF7A1C790190F9A71226CA7B70
:10471000FF7A1C791C90F9A41226CA7BFF7A1C79B7
:104720003790F9A51226CA7BFF7A1C795290F9A618
:104730001226CA7A1C796D90F98A1283C4F0E4FFBC
:104740000226D112073E7D6402075090026CEEF003
:10475000A3EFF022FBFA7840120247121010020376
:10476000221275D411B312800E12801612808C1290
:10477000820D7BFF7A21796B12821A12819591F357
:1047800090EF98E04402F09003B2E0640190EF975C
:104790007003F080037401F09003B1E0FF900262B7
:1047A000F090EFA77468F07E00EF6401700890024B
:1047B000617480F08028EF64024E7008900261748A
:1047C000C0F0801AEF64044E700890026174E0F04B
:1047D000800CEF64084E700690026174F0F0128253
:1047E0005BE490EFF8F090EF80F07F01FE1227BAC3
:1047F00090EFF874FFF090EF80E012480EEF4EFF5C
:1048000090EF80F0900261E04F90EF80F022FF90F7
:104810000262E0FE22E4900261F0900264740CF007
:1048200078657C027D017BFF7A1E7981B1E9786928
:104830007C027D017BFF7A1E7985B1E9786D7C026F
:104840007D017BFF7A1E7989B1E978797C027D014F
:104850007BFF7A1E798DB1E9787D7C027D017BFF3B
:104860007A1E7991B1E978817C027A1E7995B1E559
:10487000E4900262F0900262E0FF7E0012349850F1
:10488000621283DDFE7B0174F32FF974F13EFAD1DD
:104890000E900262E0FD25E0248DF582E4340212E0
:1048A00084ADED128326127CAA900262E0FEB1DB99
:1048B000EFF0EE128326127C711284A5F582E434A7
:1048C00002F583EFF074712EB1DDE0FFD102C39FDA
:1048D000FF900261E0FEEFC39E4003EF04F0123B45
:1048E0008080927BFF7A1D793DE4FF122E8DE4FFDC
:1048F000126B157F01D167E4900263F0900261E0D2
:104900002403FFE433FE900263E012839C400281A3
:10491000597BFF7A1D794990F1E1122E86126B279F
:10492000EF64017003FFC1677F07122DC3E490029B
:1049300062F01284204002412AB1BE54017072908C
:104940000262E0FFB1DBE0FD74752FD105C39DFF6E
:10495000E49400CF2401CF34001283DCFE90026285
:10496000E0B1D0FD12839C40024125900262E0B18B
:10497000DBE075F002A42D12842A2460F582E58321
:10498000341E128285747D2CB1D2110EB1DBE0751C
:10499000F002A42F12842A243FF582E583341EF509
:1049A00083E493FDEE25E0FFE433FE128458ED80AE
:1049B00071900262E0FF2479B1C1540270671284E1
:1049C000A5D105F90425E0FDD11FE0FEC3ED9EFE53
:1049D000747D2FB1D2FDC39E504BE975F002A4C384
:1049E0009DFFE5F09400FE74622FF582741E3E1266
:1049F000828574752CD10575F002A4FFB1CBFBC381
:104A0000EF9BFFE5F09400FE74412FF582741E3E8B
:104A1000F583E493FCED25E0FFE433FE7B01128493
:104A200058EC12070A123B802132D17D1227B67F43
:104A30000F126D2BE4900262F0900262E0C3943298
:104A400074809480400241DB1227B67B017AF179B1
:104A5000CCD10E900285EEF0A3EFF07AF179CED1B1
:104A60000E900287EEF0A3EFF07AF179D0D10E909C
:104A70000289EEF0A3EFF07AF179D2D10E90028B99
:104A8000EEF0A3EFF0E4FFEF1234985033B1BEFE26
:104A900030E10D74792FF582E43402F583EE801A4B
:104AA000EFD157FDD1465007B1BE547FF0800ED3F1
:104AB000ED9401EC94804005B1BE4480F00F80C7B6
:104AC000900279E030E70FA3E030E70AA3E030E797
:104AD00005A3E020E705123B8041397A1D795D90FE
:104AE0000285128262900287128278900289E0FF2A
:104AF000A3E090029ECFF0A3EFF090028BE0FFA323
:104B0000E09002A0CFF0A3EF122F4CE4900262F0ED
:104B10007829E6110EC39F40028117D11FE0F4707F
:104B20007D900262E0D157D146503D74812EB1F79D
:104B3000E0FE90026230E023E0FD2479B1C144013F
:104B4000F074712DB1DDE025E0FD900262E0FCB172
:104B5000D02DFD74692CD122ED8030E0FDB1F5EE51
:104B60004401F0747D2D8079B1F0E020E0028109EC
:104B700074792EB1C14401F074712EB1DDE025E0ED
:104B800004B1CA2EFE74692DD122EEF0900262E0CB
:104B9000247DF582E43402F5837401F08074900280
:104BA00062E0FED14DE0F47069EED157D146503746
:104BB000900262E0B1F5E0FD30E11D74792EB1C1E3
:104BC000B1FF25E02402FE900262E0FCB1D0FBC3FD
:104BD000EE9BFE746D2C802BB1F0ED4402F0747DE1
:104BE0002EB1D214F0802BB1F0E030E11C74792E9C
:104BF000B1C1B1FF25E02402B1CA04FCC3EE9CFEA2
:104C0000746D2DD14FEEF08009900262E0B1D02496
:104C100002F0123B8061107E00EF64017007900289
:104C200079E020E134EF64024E700C900279E030BC
:104C3000E105A3E020E1227829E6640470169002E1
:104C400079E030E10FA3E030E10AA3E030E105A311
:104C5000E020E105123FB701FC7A1D7984900269DA
:104C600012830C90026AE090029BF090026BE0903D
:104C7000029CF090026CE090029D122F4C7A1D79FC
:104C8000B290026D1283D490026EE090029BF0907D
:104C9000026FE090029CF0900270E090029D122F53
:104CA0004CE4900262F01284205046B1BEFF5401E1
:104CB000602EEF54027006900269E0801E9002623E
:104CC000E0FFD14DE0FD74692FD122E02DFFE433E8
:104CD000CF2401CF3400A2E713EF13FFD138EFF058
:104CE000D138E0FFF46005900264EFF0123B808061
:104CF000B5E4900262F0900262E0FF12349850171F
:104D000074652FD13EE0F47009900264E0FFD13861
:104D1000EFF0123B8080DF900265D13190F17DD1C0
:104D20002A90F17EF0900266D13190F17FD12A90E5
:104D3000F180F0900267D13190F181D12A90F18217
:104D4000F0900268D13190F183D12A90F184F07F04
:104D50000F126D2B1265EC7B017AF179CCD10EBE6E
:104D6000FF10BFFF0DD17D7BFF7A1D79E0E4FF12BC
:104D70002E8DE4FFD1677A1D79EC90F17E1283D4F9
:104D800090F180E090029BF090F182E090029CF024
:104D900090F184E090029D122F4C7A1E791790F1C9
:104DA000DD1282C490F1DEE090029BF090F1DFE032
:104DB00090029CF090F1E0E090029D022F4C7479FB
:104DC0002FF582E43402F583E022FE900262E0FDDA
:104DD000247DF582E43402F583E0222471F582E437
:104DE0003402F583227D017BFF7E007F0402069E54
:104DF000900262E0FE2481F582E43402F5832244CD
:104E000002F074752EF582E43402F583E0221282FA
:104E1000D4FD7C001206C4FEE42DFFEC3EFE22749D
:104E2000692EF582E43402F58322F0EF901E3F9361
:104E300022E0FF901E609322900262E02465F582DA
:104E4000E43402F58322D39401EC948022246DF59E
:104E500082E43402F5832225E02485F582E43402DD
:104E6000F583E0FCA3E022EF640190F18A7005E095
:104E70004402F022E054FDF022E64470F67828E681
:104E8000FF90037EEF1284DD90E10D1284EDFD9022
:104E9000E10CE054F0F0ED54E190E10DF090C90325
:104EA000E0540F127BA790037E1284617F2740029B
:104EB0007F3790A138EF1284E590E10CE0440FF0C9
:104EC00090E10DE0441EF090C903E044F0F0E4905E
:104ED000A144F02274352FF8E6540F782AF66401C5
:104EE0007043792BE766601D122DBDE4FD7F03F151
:104EF0004CE4FD7F04F14CE4FD7F05F14CE4FD7FC3
:104F000006F14CD17D7F0112682578267601E47880
:104F100022F608F608F67F01126B15E4FFD16778D8
:104F20002AE608F622782AE6FF126139400308A62D
:104F30000722F14C7D020FF14C7D0F0FF14C7D04E7
:104F40000FF14CE4FD0FF14C0FF14C0F90F105EF18
:104F5000F090F153EDF0227901900264E07F00605F
:104F6000027F01AE07900265E07F8060027FC0ACE7
:104F700007900266E07F0060027F80AB07E4FF12CB
:104F8000612E7D121284F5641E70057D140F80075A
:104F900090026AE0FD7F01F14C90026BE04CFD7FD6
:104FA00002F14CEB4E0F1282F1AD010FF1327D8117
:104FB0000FF14CE4FD7F21F1467F60F1467D087FD3
:104FC00080F14CE4FD7F90F14C7F0112612E7F0A4D
:104FD000F14C7F2212612E7D14E4FF1284F5FD0F47
:104FE000F14C90026BE04CFD0FF14CAF06EB4F7FA4
:104FF000031282F1AF01AD077F07F1327D810F12FD
:105000004F4C7D087F10024F4CE4900261F0A3F0FA
:1050100078637C027A2279D0FE7F0312838E90001F
:105020002CE06407600201A7128485A3E0FF9003CF
:10503000FDE06F6072E0A3F09003FDE02401FFE467
:1050400033FEEFC4F8540FC868FFEEC454F0489024
:105050000261F0A3EFF090026174FFF5F01207DB3C
:105060009002637451F01282B3EC900264F0AF05C9
:10507000A3EFF07A2279579002641282BCA3EF1258
:10508000580F90F9B81265377F0131D87B017A0249
:1050900079637D037F3911AE7F32128395FF31D85A
:1050A00090F9B8E054FCF02293FF7BFF7D02900260
:1050B00066EDF0AC0790F9A0E054EFF0ECF58264F7
:1050C000296006E5826439702A90F99A74E0F090BC
:1050D0000266E0FF240690F999F090F998ECF0EF61
:1050E000F0E4F0FF900266E0FEEFC39E50151282DE
:1050F000E180F174C01283E490F998EC1282CC90B4
:10510000F998F01227B6E490F99AF090F9ABE054D0
:10511000BFF022127B567F147E001227BA9024F330
:10512000E47A2479F411A89024F6E493FF7BFF7AC3
:105130002479F77D0511AE9024FCE493FF7BFF7A80
:105140002479FD7D0311AE902500E47A25790131A3
:10515000C0902503E47A25790431C0902506E47ACD
:1051600025790731C8902509E47A25790A31D0904C
:10517000250CE47A25790D31D090250FE493FF7B3F
:10518000FF7A2579107D0211AE7F967E001227BA34
:105190009024E7E47A2479E831C87F967E001227CC
:1051A000BA9024E4E47A2479E511A87F967E00126F
:1051B00027BA127B9A7BFF7A2479D77F010226D106
:1051C00093FF7BFF7D0201AE93FF7BFF7D0201AE6B
:1051D00093FF7BFF7D0201AEEF640190F9847005BF
:1051E000E04408F022E054F7F02290002CE024FE86
:1051F000601A14603F146061147002417F147002E1
:1052000041A12405600241A87F0241A690002DE043
:10521000601851EF710990038D7401F078477C009C
:10522000FD7A1479677E02128496900028E06078F7
:105230007F03807290002DE0600451EF71099000AF
:1052400029E060647F04D11EE4FF12261B1259BEC0
:105250007F14128395FF0275E71271EB127EDFF166
:1052600016F16FEF6042125920127EB3125C3012B9
:105270007FC71274CC123B87127FD47F05802790A2
:10528000003EE0640170217F0151F7311390002E40
:10529000E070061275371275027F0151A97F0680F2
:1052A00005127D0A7F07D11E22EF6401702B7F015A
:1052B00051F790003FE090F989700FE054DFF0441F
:1052C00010F07BFF7A19799D8020E04420F054EFA4
:1052D000F07BFF7A1979AA8011E4FF51F790F989E0
:1052E000E054CFF07BFF7A1979B77F010226D1E431
:1052F000F0FF51A9E4FF22EF6401700790F9BF7439
:10530000FFF022E490F9BFF022EF64017B017026E8
:105310007F0F126E7C90F31CF090F1A5E044C0F07A
:1053200090E6E47402F090E6E6E04403F054F3F013
:105330001D7F0F026D41E4FD7F0FEF120A9753AB03
:105340000053B80153C20253CC0353D60453E005B3
:1053500053EA0653F40753FE0854080954120A543A
:105360001C0B54260C54300D543A0E54440F544E1A
:1053700010545811546212546C13547614548315FB
:10538000549216549C1754AC1854BD1954CF1A5447
:10539000E21D54EE1E54FF1F5504205510215525C3
:1053A00022552A235532240000554290A374B19B04
:1053B000EBC43354E04FF02290A35CB14A90A36455
:1053C00081A490A372B14390A37481C590A372B1DC
:1053D0004A90A37481D790A371B14390A37381EADB
:1053E00090A371B14A90A373817E90A370B1439052
:1053F000A373818B90A370B14A90A373A11890A35B
:105400006FB14390A37381A490A36FB14A90A3732B
:1054100081B490A36EB14390A37381C590A36EB184
:105420004A90A37381D790A369B14390A36A81EA9C
:1054300090A369B14A90A36A804490A368B1439055
:10544000A36A804790A362B14A90A36481EA90A3C3
:1054500061B14390A364802690A361B14A90A36494
:10546000802990A360B14390A364A11890A360B178
:105470004A90A363807490A35FB14390A363E0FF5D
:10548000EB807890A35FB14A90A363E0FFEB25E047
:10549000806990A35EB14390A363807C90A35EB1CA
:1054A0004A90A363E0FFEBC454F0807490A35DB115
:1054B0004390A363E0FFEBC43354E0806390A35DAB
:1054C000B14A90A363E0FFEBC4333354C0805190E2
:1054D000A35CB14390A363E0FFEBC4333333548048
:1054E000803E90A35AB14390A35BE04BF02290A37F
:1054F00059B14390A35BE0FFEB25E025E0802190CC
:10550000A2A2800390A2A3B19BEBC454F04FF0225F
:1055100090A2C0B14390A364E0FFEB33333354F85F
:10552000FEEF4EF02290A2BF800390A2BEB19BEB93
:10553000800890A2BDB19BAE03EEC43333335480D8
:105540004FF022E054F0F04DF022E0540FFFF0ED68
:10555000C454F04FF022128416948040221279E253
:10556000EF6401701A900397E07B0160067D0CB137
:1055700080613AE4FDB180713AE4FFD1C8D1BD2227
:105580007F03713A7F02713A7F04713A7F05713A65
:105590007F06713A7F07713A7F0822E054F0F04DA0
:1055A000FFF02290026174FFF090002CE0D31261B2
:1055B0003A400A900028E070047F02D11E90002C2F
:1055C000E0D312663F400A900029E070047F03D1C7
:1055D0001E90002CE0D154403A90E0B0E0FDE4FF92
:1055E000127EA3EF701190003EE064017025F0FF81
:1055F00051F7E451A9801C90003EE0701612330E62
:10560000D155500280027F05900261EFF090003E7C
:105610007401F0900261E0FFF46002D11E2290025A
:1056200062EFF090002CE06F6024900262E064056D
:1056300070057F031227D890002D7401F09002624C
:10564000E090002CF07BFF7A1279911226CB229009
:105650000263E0FFC39405748094802212672DD109
:10566000C4D167B156010912281E127A5BEF64019A
:10567000704A9003FCE07044127A67127A61EF245A
:10568000FD600814601B14602A80317A2279A71209
:1056900082DA7F0312765E7F017109D1BDFF027548
:1056A000E77A2279BB12837B7F0412765EE4FF7176
:1056B000098007122FF27F01D1C8D1BD229003FCCF
:1056C0007401F02231EAA1A3AE0712792FAA0712C2
:1056D00079FDAB07127A26EE90E08460231265BE56
:1056E000AE0390E0A2EEF090E0A3EFF0E490E09043
:1056F000F0AF0290E091EFF07BFF7A1779458011CF
:10570000E054FDF0E41284B512843D7BFF7A1779F2
:10571000597F010226D1900035120A0D900265F1E1
:105720006678031209AD1227A97A1279B790003969
:10573000120A0D9002811245ED900285F1669002E9
:1057400089120A25900031E090028DF0900032E03D
:1057500090028EF0900033E090028F12580FF169A2
:105760001274970234A0120A25900265020A0DE411
:10577000900261F090A200E054EFF01284C590E135
:105780000FE054EFF090E2631227B21284C5440F89
:10579000F090E10FE044101227B590E263E0440876
:1057A0001265EB900261E004126632500A90E26DDD
:1057B000E05402C31370EC90E26DE05403640260A5
:1057C000087BFF7A1B796E801C7A1B798090E22817
:1057D0001226C890E228E054041313543F7BFF7054
:1057E0000C7A1B799B7F031226D17F00227A1B79CA
:1057F000AA90E274E0900281F090E275E09002825B
:10580000110F90A210E0547FF04480F07F0122F04D
:10581000E4FF0226D17E007F137D007B017A0379AD
:10582000B0120AEA9003B27402F09003B1F0E4906F
:1058300003B6F09003B47404F0A314F09003B074B2
:1058400008F0902175E493FEA3E493122CC1900319
:10585000BAF0A3EFF0902177119E3E9003BCF0A325
:10586000EFF0902179119E3E9003BEF0A3EFF07A05
:105870002079999003B2128305F09003B5E090026D
:1058800082110F7BFF7A2079C09003BA3113900305
:10589000BC123F949003BE11A9E4FF0226D1E49309
:1058A000FEA3E4932400FFEC22E0FFA3E090028536
:1058B000CFF0A3EFF0227A0379C331EA7A0379C3F8
:1058C00031CA7A24795F9003C731139003C9123F1C
:1058D000949003CD11A99003CB31AD9003CF31A0AB
:1058E0009003DB31967A24799B9003D13111900398
:1058F000D3123F949003D711A99003D531AD9003F3
:10590000D931A09003DC319612815A700312816163
:10591000227BFFE0FFA3E0900281CFF0A3EFF02213
:105920007A02794731EA7A02794731CA7A13793EA5
:1059300090024B311390024D123F9490025111A9E5
:1059400090024F31AD90025331A090025F31967BAF
:10595000FF7A1379799002553113900257123F94D0
:1059600090025B11A990025931AD90025D31A09077
:10597000026031967B017A027947512F90025FE0F5
:10598000FF31F5900260E0FF51037005E054FEF036
:1059900022E04401F022E090028BF07F010226D148
:1059A000E0FFA3E0900289CFF0A3EFF022E0FFA395
:1059B000E0900287CFF0A3EFF022510A01B631D276
:1059C000111531BA1247610227517B01122B577B07
:1059D000FF22E490EF80F090EFF8F090ED30E0548B
:1059E000EFF090F984E054BFF0227E007F1A7D0032
:1059F0007B01020AEA51037005E054FDF022E04405
:105A000002F022EF640190F97022127E5A9003B3E3
:105A1000EFF0127E60EF2403FF9003B4F07A247954
:105A20003D9003B31282BCA3EFF0E4FF0226D190B5
:105A300000061207F190F97E7121EF90F97F71292C
:105A4000ACF0EC90F97CF0AF05EF90F97D518A90C5
:105A5000F9807132EF90F981F090F97AE054F0FF1B
:105A6000F0FD517FCEC313CE13D8F9EE4D90F97AE5
:105A7000F0517FCEC313CE13D8F990F97BF022906A
:105A800000061207F1AEF0780222F090001612071D
:105A9000F1FFAEF09000140207F190000C12838227
:105AA0002FFFE5F03E711990C7C3F0AF0590C7C452
:105AB000EF518A90C7C5713290C7C6EFF0900006CB
:105AC000711390C7C7F0AF0590C7C8EF7129ACF04C
:105AD000EC90C7C9F0AF0590C7CAEFF09000047111
