:100000000210FF026D17022FEA22220280630247CC
:10001000E322220281D9E4FFFE1206C4600C0FEF36
:1000200070010E09E970F20A80EF220281DEEE30E3
:10003000E707C3E49FFFE49EFE227BFFE4FF022A62
:100040002A22220281DA02038EE86480F8E933E88A
:100050003360110460F0ED33EC337009E8FCE9FD26
:10006000EAFEEBFF220460DED3EB9FEA9EE99DE807
:10007000C2E78CF0C2F795F0400CE8CCF8E9CDF976
:10008000EACEFAEBCFFB12035985D0F05804700387
:1000900020D5B3E80470075002B2D502039892D578
:1000A000EC0460F7E4CCC0E0C398F8603B941860BF
:1000B00008400DD0E0FB020370E4FBFAC9FC802885
:1000C000E830E406E4C9FBE4CAFCE830E305E4C92F
:1000D000CACBFCE854076010F8C3E913F9EA13FA35
:1000E000EB13FBEC13FCD8F130F52FC3E49CFCEFD1
:1000F0009BFFEE9AFEED99FDD0E0FBEF4E4D4C706C
:100100001222DB03020395EC2CFCEF33FFEE33FEEF
:10011000ED33FDED30E7EB020370EF2BFFEE3AFE1F
:10012000ED39FDD0E0FB50130BBB0003020398ED4B
:1001300013FDEE13FEEF13FFEC13FC020370EC4D06
:100140006011E8497017ED33EC3304600DE4FCFFF7
:10015000FEFD22E933E8330470F802038E120359DE
:1001600058046009E4CC2481500628500902039801
:10017000284003020395C0E0EB4A7044B98006D0E2
:10018000E0FB020384EF4E701CBD8008EBFFEAFE2B
:10019000E9FD80EBE98DF0A4FEE5F0020227E9CD50
:1001A000F9EAFEEBFFEF89F0A4FCE5F0CE89F0A4BC
:1001B0002EFFE435F0CD89F0A42DFEE435F0806704
:1001C000EF4E7005BD80D780C3EF8BF0A4ACF0EE8E
:1001D0008BF0A42CFCE435F0F8EF8AF0A42CE5F0C9
:1001E00038FCE433CB8DF0A42CFCE5F03BF8EE8A30
:1001F000F0A42CFCE5F038F8E433CF89F0A42CFC13
:10020000E5F038CF3400CE89F0A42FFFE5F03EFEB4
:10021000E433C98DF0A42EFEE5F039CD8AF0A42F89
:10022000FFE5F03EFEE43DFD33D0E0FB50070BBBA5
:10023000000F020398EC2CFCEF33FFEE33FEED339E
:10024000FD020370020398EC5D046005E859047038
:100250000302038E120359580460F6EC4860F2EC76
:100260007004FDFEFF22C860DB2481C85009C398DA
:10027000600250060203959850CAF582E9294B4A5C
:100280007005AB8202038475F0007C1A7880C3EF9E
:100290009BEE9AED99400DC3EF9BFFEE9AFEED9910
:1002A000FDE842F0DC23ACF0D0E0FFD0E0FED0E08F
:1002B000FDAB8220E7101BEB60BAEC2CFCEF33FFA8
:1002C000EE33FEED33FD020370E803F830E705C0BE
:1002D000F075F000EF2FFFEE33FEED33FD40B83048
:1002E000E7C280AA75F020800E75F010800575F0C9
:1002F000087D007E007F003392D530D50312098E31
:10030000EC334010EF33FFEE33FEED33FDEC33FC06
:10031000D5F0ED22E5F0247EA2D513CC92E7CDCE28
:10032000FF22EDD2E7CD33EC3392D524814006E4B1
:10033000FFFEFDFC22FCE4CFCECDCC24E0501174B6
:10034000FF80EDC3CC13CCCD13CDCE13CECF13CFC6
:100350000470F030D5DE02098EE9D2E7C933E83304
:10036000F892D5EDD2E7CD33EC33FC5002B2D52272
:10037000EC30E7100FBF000C0EBE00080DBD0004EE
:100380000BEB6014A2D5EB13FCED92E7FD2274FF9A
:10039000FCFDFEFF22E480F8A2D574FF13FC7D80F3
:1003A000E480EF74F8CC6480CCC86480C8F5820423
:1003B000604FC3EB9FF5F0EA9E42F0E99D42F0E802
:1003C0009C45F0603C501DE5825FFFE582D313CB76
:1003D0005BCBF42B5582FB50280ABA002409B900E4
:1003E0002008801DE5825BFBE582D313CF5FCFF44D
:1003F000C3132F5582FF50090EBE00050DBD00012D
:100400000CC3EB9FF5F0EA9E42F0E99D42F0E89CB8
:1004100045F06007CC4820E701B3EC22F920E7362D
:1004200024F950037907E4F42402FBE58215827075
:10043000021583DBF6E024FB501BE96014E4F0E5D1
:1004400082158270021583E004F0B40A08E4F0D942
:10045000EE7401F00A22C2D522ED33EC3392D5FAC4
:10046000602AB4FF33EDC2E77BFF60067A04797E31
:10047000E4227A04798720D5047A047982224E61B5
:100480004E002B494E46002D494E4600E47A08F0B6
:10049000A3DAFC7B00740722C083C082ECC0E0EDCD
:1004A000C0E0EEC0E0EFC0E0EA75F010A4CAABF027
:1004B00075F04DA42BFBE435F0FCEA2410FAEB3484
:1004C000C5FBEC34D9FCEDC2E7FF75F056A4F4246B
:1004D00011C5F0F434C58FF0A42AE5F03BE43CF0FC
:1004E00020E71412058ED0E0FFD0E0FED0E0FDD072
:1004F000E0FC1202478014F40412058ED0E0FFD015
:10050000E0FED0E0FDD0E0FC12013ED082D083E0DE
:10051000FAEDD2E7CD33EC332482FBE4C3CF33CF03
:10052000CE33CECD33CD33DBF37B0775F00A846059
:1005300004F0A31B0AE5F0F0A38FF0740AA4FFAC4B
:10054000F08EF0740AA42CFEACF050010C8DF07407
:100550000AA42CFDE435F0F0A3DBDE7407223F8013
:1005600000004120000042C80000447A0000461C00
:10057000400047C35000497424004B1896804CBE7D
:10058000BC205A0E1BCA6753C21C749DC5AEFB60CB
:10059000065407601C23231205BCEB543860091273
:1005A00005A81205B712013EECF8EDF9EEFAEFCB13
:1005B00022EB1205B780F1543803241C90055EFE2F
:1005C00093FC0EEE93FD0EEE930ECE93FF22E70901
:1005D000F608DFFA8046E709F208DFFA803E8882F3
:1005E0008C83E709F0A3DFFA8032E309F608DFFA2B
:1005F0008078E309F208DFFA807088828C83E3094F
:10060000F0A3DFFA806489828A83E0A3F608DFFA28
:10061000805889828A83E0A3F208DFFA804C80D276
:1006200080FA80C680D4806980F28033801080A6F2
:1006300080EA809A80A880DA80E280CA803389824A
:100640008A83ECFAE493A3C8C582C8CCC583CCF0F6
:10065000A3C8C582C8CCC583CCDFE9DEE7800D899D
:10066000828A83E493A3F608DFF9ECFAA9F0EDFBA4
:100670002289828A83ECFAE0A3C8C582C8CCC583EC
:10068000CCF0A3C8C582C8CCC583CCDFEADEE88045
:10069000DB89828A83E493A3F208DFF980CC88F0B7
:1006A000EF60010E4E60C388F0ED2402B4040050E8
:1006B000B9F582EB2402B4040050AF232345822312
:1006C00090061E73BB010689828A83E0225002E7EE
:1006D00022BBFE02E32289828A83E49322BB010CBF
:1006E000E58229F582E5833AF583E0225006E92583
:1006F00082F8E622BBFE06E92582F8E222E582299D
:10070000F582E5833AF583E49322BB010689828A68
:1007100083F0225002F722BBFE01F322F8BB010D49
:10072000E58229F582E5833AF583E8F0225006E96F
:100730002582C8F622BBFE05E92582C8F222EF8D8C
:10074000F0A4A8F0CF8CF0A428CE8DF0A42EFE2229
:10075000BC000BBE0029EF8DF084FFADF022E4CC8D
:10076000F875F008EF2FFFEE33FEEC33FCEE9DEC56
:10077000984005FCEE9DFE0FD5F0E9E4CEFD22ED9C
:10078000F8F5F0EE8420D21CFEADF075F008EF2FE6
:10079000FFED33FD4007985006D5F0F222C398FDD7
:1007A0000FD5F0EA22C2D5EC30E709B2D5E4C39DFB
:1007B000FDE49CFCEE30E715B2D5E4C39FFFE49E58
:1007C000FE120750C3E49DFDE49CFC800312075019
:1007D00030D507C3E49FFFE49EFE22C5F0F8A3E0F6
:1007E00028F0C5F0F8E582158270021583E038F034
:1007F00022BB0110E58229F582E5833AF583E0F515
:10080000F0A3E0225009E92582F886F008E622BB31
:10081000FE0AE92582F8E2F5F008E222E5832AF5EE
:1008200083E993F5F0A3E99322F8BB0111E582294E
:10083000F582E5833AF583E8F0E5F0A3F02250096C
:10084000E92582C8F608A6F022BBFE09E92582C880
:10085000F2E5F008F222EF2BFFEE3AFEED39FDEC67
:1008600038FC22C3EF9BFFEE9AFEED99FDEC98FC5D
:1008700022E88FF0A4CC8BF0A42CFCE98EF0A42C01
:10088000FC8AF0EDA42CFCEA8EF0A4CDA8F08BF04D
:10089000A42DCC3825F0FDE98FF0A42CCD35F0FC4B
:1008A000EB8EF0A4FEA9F0EB8FF0A4CFC5F02ECD17
:1008B00039FEE43CFCEAA42DCE35F0FDE43CFC22FC
:1008C00075F008758200EF2FFFEE33FECD33CDCCEF
:1008D00033CCC58233C5829BED9AEC99E582984072
:1008E0000CF582EE9BFEED9AFDEC99FC0FD5F0D64F
:1008F000E4CEFBE4CDFAE4CCF9A88222B800C1B979
:100900000059BA002DEC8BF084CFCECDFCE5F0CBB6
:10091000F97818EF2FFFEE33FEED33FDEC33FCEBEF
:1009200033FB10D703994004EB99FB0FD8E5E4F9AA
:10093000FA227818EF2FFFEE33FEED33FDEC33FC97
:10094000C933C910D7059BE99A4007EC9BFCE99A8B
:10095000F90FD8E0E4C9FAE4CCFB2275F010EF2FD0
:10096000FFEE33FEED33FDCC33CCC833C810D707D0
:100970009BEC9AE899400AED9BFDEC9AFCE899F80B
:100980000FD5F0DAE4CDFBE4CCFAE4C8F922C3E4F5
:100990009FFFE49EFEE49DFDE49CFC22EB9FF5F0AE
:1009A000EA9E42F0E99D42F0E89C45F022E8600FA3
:1009B000ECC313FCED13FDEE13FEEF13FFD8F12291
:1009C000E8600FEFC333FFEE33FEED33FDEC33FC95
:1009D000D8F122BB010789828A83020A0D5005E9FA
:1009E000F8020B16BBFE05E9F8020B2289828A8306
:1009F000020B2EBB010789828A83020A255005E972
:100A0000F8020B3EBBFE05E9F8020B4A22E0FCA30C
:100A1000E0FDA3E0FEA3E0FF22E0F8A3E0F9A3E0FD
:100A2000FAA3E0FB22ECF0A3EDF0A3EEF0A3EFF0CD
:100A300022A8828583F0D083D082120A48120A4805
:100A4000120A48120A48E473E493A3C583C5F0C5AB
:100A500083C8C582C8F0A3C583C5F0C583C8C58255
:100A6000C822E0FBA3E0FAA3E0F922F8E0FBA3A38D
:100A7000E0F925F0F0E582158270021583E0FA387E
:100A8000F022EBF0A3EAF0A3E9F022E493FB740177
:100A900093FA740293F922D083D082F8E49370120F
:100AA000740193700DA3A393F8740193F582888366
:100AB000E4737402936860EFA3A3A380DFEC8EF06D
:100AC000A4CCC5F0CCCDF8EFA4CEC5F02DFDE43C10
:100AD000FCE8A42EC8C5F03DFDE43CFCEFA4FFE516
:100AE000F028FEE43DFDE43CFC22EF4E6012EF6096
:100AF000010EEDBB010B89828A83F0A3DFFCDEFAD5
:100B00002289F05007F709DFFCA9F022BBFEFCF3B5
:100B100009DFFCA9F022E6FC08E6FD08E6FE08E68F
:100B2000FF22E2FC08E2FD08E2FE08E2FF22E49375
:100B3000FC740193FD740293FE740393FF22ECF6A0
:100B400008EDF608EEF608EFF622ECF208EDF208F2
:100B5000EEF208EFF222E508244FF582E43403F5C3
:100B600083E005082290034C30070390034FE4759F
:100B7000F001120A6B0206C42000E97F2ED2008029
:100B800018EF540F2490D43440D4FF30040BEF24DA
:100B9000BFB41A0050032461FFE50960021509057E
:100BA0000CE50C7002050B30070E90034CE475F059
:100BB00001120A6BEF02070A020FD97403D20780F1
:100BC00003E4C207F50890034C120A82E4F509F524
:100BD0000BF50CE50960077F20120B9980F5750A6B
:100BE000FFC201C200C202C203C205C206C208128D
:100BF0000B65FF700D3007057F00120BAAAF0CAE1E
:100C00000B22B4255FC2D5C204120B65FF24D0B4F9
:100C10000A00501A75F00A780930D50508B6FF01A8
:100C200006C6A426F620D5047002D20380D924CFAC
:100C3000B41A00EF5004C2E5D204020E9CD2018027
:100C4000C6D20080C0D20280BCD2D580BAD2058084
:100C5000B47F20120B992002077401B5090040F1FE
:100C6000120B56FF120B99020BD3D208D2068095B5
:100C7000120B56FB120B56FA120B56F94A4B700622
:100C8000799A7A0F7BFF20022EE509602A7E008E7A
:100C9000827583001206DD60060EEE650A70F0C2F2
:100CA000D5EBC0E0EAC0E0E9C0E0EE120EFDD0E016
:100CB000F9D0E0FAD0E0FB1206C4FF60AAEBC0E076
:100CC000EAC0E0E9C0E0120B99D0E02401F9D0E0DD
:100CD0003400FAD0E0FBE50A0460DCD50AD980874D
:100CE000D20280A2120EDF60F7E50A70010412043E
:100CF0001CA90A600DE50A600914F50A120F87EFB6
:100D000060F3EA30E702F404C3995079EAF4250A63
:100D10000430E701E404F50A800D120EDF60C1EA39
:100D2000050A250A12041CEA90037BF030E701E46F
:100D3000250A04D50A0420050114120EFDE4C0E0C2
:100D4000120F8790037BE0601320E70714F0120B6B
:100D500081802204F0D0E014C0E07F00120B81E516
:100D60000A6007120B78150A800B300503120B7806
:100D7000D0E0020BD3D0E00480C4120EDF609EE509
:100D80000A0412041C90037BEAF0E50A20050260C5
:100D900001042404120EFD74FF04C0E0120F871238
:100DA0000B81E50A2005026003120B78D0E0B50A3A
:100DB000E87F45120B8B90037BE07F2B30E7047FAD
:100DC0002DF404C0E0120B99D0E075F00A84C0F055
:100DD000120B82D0E0120B82020BD37910800279C1
:100DE00008C206C2088008D2D5790A8004790AC2EE
:100DF000D5E50A047002F50AE4FAFDFEFF120B566F
:100E0000FC7B08200113120B56FD7B1030000A12E8
:100E10000B56FE120B56FF7B20EC3382D592D55039
:100E200013C3E43000069FFFE49EFEE42001039D0F
:100E3000FDE49CFCE4CBF8C201EC700CCFCECDCC31
:100E4000E824F8F870F38017C3EF33FFEE33FEEDBC
:100E500033FDEC33FCEB33FB994002FB0FD8E9EB9D
:100E6000300105F8D0E0C448B201C0E00AEC4D4EB4
:100E70004F78207B0070C2EAB50A0040BCC0E01287
:100E80000EFFD0F0D0E0200104C4C0E0C4B201C025
:100E9000F0120B82D0F0D5F0EB020BD3120A970CB4
:100EA00070530DDB580C414C0C3D420DDF4F0DE7EC
:100EB000440DE7490C56430DED550D1A460D7A4584
:100EC0000CE4470FBA500C452D0C492E0C6C2B0C22
:100ED0004D230C6A200FA32A0C054800000C64E582
:100EE0000AB4FF03750A06120B56FC120B56FD12CC
:100EF0000B56FE120B56FF900374020459790AA296
:100F0000D5200314300509B910020404B9080104FE
:100F1000A2D52006025001042002689202B5090001
:100F20005034C0E07F203003197F30A20272067275
:100F300005500F120F56C202C206C205C2087F300A
:100F4000800F300503E9C0E0120B99300503D0E0B3
:100F5000F9D0E0B509CC3005177F30B9100C120B71
:100F6000997F583004077F788003B90803120B99E2
:100F70003002057F2D020B997F202008F87F2B205F
:100F800006F322920280CF7F00B40700500B247436
:100F9000F582E43403F583E0FF22286E756C6C293A
:100FA00000D201120B563001F8C201780930D50188
:100FB00008F6020C052D50434958120B562403B471
:100FC00005004001E4900FB593120B8A743A120B9E
:100FD0008AD203750904020DDBEFB40A07740D12FF
:100FE0000FE4740A309811A899B8130CC29830987D
:100FF000FDA899C298B811F63099FDC299F59922C9
:1010000025090405FFFFFFFFFFFFFFFFFFFFFFFFB5
:10101000900265120A2574FFFFFEFDFC900265E058
:10102000F8A3E0F9A3E0FAA3E0FBC312099C60383F
:101030007F807E967D187C4B900265E0F8A3E0F9F6
:10104000A3E0FAA3E0FB1203A36002501B7F807EA3
:10105000967D187CCB900265E0F8A3E0F9A3E0FA56
:10106000A3E0FB1203A3500F900265E0FCA3E0FD98
:10107000A3E0FEA3E0FF22900265E0FCA3E0FDA355
:10108000E0FEA3E0FF120322900269120A259002FB
:1010900069E0FCA3E0FDA3E0FEA3E0FFEC1202E4A4
:1010A000C8ECC8C9EDC9CAEECACBEFCB900265E067
:1010B000FCA3E0FDA3E0FEA3E0FF120049E4FBFA7D
:1010C000F9F81203A35025900269E0FCA3E0FDA308
:1010D000E0FEA3E0FFE4FAF9F8EF2401FFEA3EFEA8
:1010E000E93DFDE83CFC900269120A25900269E0A6
:1010F000FCA3E0FDA3E0FEA3E0FFEC1202E42278F3
:101100007FE4F6D8FD758166021146022596E493C8
:10111000A3F8E493A34003F68001F208DFF48029EA
:10112000E493A3F85407240CC8C333C4540F4420D9
:10113000C8834004F456800146F6DFE4800B0102C8
:1011400004081020408090118BE47E019360BCA3C2
:10115000FF543F30E509541FFEE493A360010ECF16
:1011600054C025E060A840B8E493A3FAE493A3F840
:10117000E493A3C8C582C8CAC583CAF0A3C8C58200
:10118000C8CAC583CADFE9DEE780BE4103FC00446C
:1011900003F8000000004104090041040800410474
:1011A00007004103FF0041040A0041037F0044039C
:1011B0008000000000602800000010000E000112F6
:1011C000101E000218213E00031E410D00041001F4
:1011D0002C000518240C000618231C000718203DBD
:1011E000004103DD005A03DE0007A12009B20870A8
:1011F00000A2003C006408B108700039000400043B
:10120000010100900346E0FFA3E0FEA3E0CF9003BE
:101210004FF0A3EEF0A3EFF0900349E0CBF0A3E092
:10122000CAF0A3E0C9F07F22900352AD82AC8312D2
:1012300006C48D828C83F0A309E970010ADFEC906B
:101240000349E0FBA3E0FAA3E0F9020BBBC2D5E837
:1012500030E70FB2D5E4C39BFBE49AFAE499F9E4D2
:1012600098F8EC30E717B2D51212831208FCE4C3E9
:101270009BFBE49AFAE499F9E498F880031208FCDD
:1012800030D50DE4C39FFFE49EFEE49DFDE49CFC8D
:101290002254785374617465203D203078253032B3
:1012A000627800525820536574204576656E743A12
:1012B000253032627820004D697069496E436C6B4D
:1012C0003A256C642C2063616C6320756C427974E0
:1012D00065636C6B3A256C642C20756C506879439F
:1012E0006C6B3A256C642C2075634270703A2562F1
:1012F000642C2075635478506F72744E756D3A305B
:101300007825303262782C20756354784C616E6594
:101310004E756D3A307825303262780042757273BE
:1013200074204D6F6465206C616E65207261746518
:1013300020696E6372656173652038304D005258C4
:101340005B485D3A2048746F74616C3A25642C48A0
:101350006163746976653A25642C4873773A25642D
:101360002C4866703A25642C4862703A25642C48F3
:1013700073706F6C3A2562640052585B565D3A2078
:1013800056746F74616C3A25642C56616374697687
:10139000653A25642C5673773A25642C5666703A64
:1013A00025642C5662703A25642C5673706F6C3A23
:1013B00025626400506F72743A2025303262782CB6
:1013C000204C616E653A20253032627800445343E8
:1013D00020736F667420776F7264636E743B007263
:1013E0006462797465636C6B3A25642C2072647056
:1013F0006978636C6B3A256420006873773A2564DA
:101400002C206862703A256420686163746976658F
:101410003A2564007563427070203078253032625E
:10142000783B00726561642064656C61793A256C73
:10143000750041645F6C6D74785F77726974655F85
:10144000636C6B203D20256C756B687A0041645F8E
:101450006C6D74785F726561645F636C6B203D20B6
:10146000256C756B687A0000FFFFFFFFFFFF000629
:10147000B3A02801010101041F0103803E2278EE80
:101480006995AD5246A1270F5054BFCF00814081CE
:10149000809500714F81C0B300D1C0010108E80000
:1014A00030F2705A80B0588A0055502100001E005A
:1014B0000000FD0018901EFF8A000A202020202036
:1014C00020000000FC005647323855514C31410A8B
:1014D000202020000000FF00313233343536373809
:1014E000393032380A01F002035AF15004131F1048
:1014F0000F1E015D5E5F60617603123F23090707DF
:1015000083010000E200EA6D030C001000383C2863
:1015100000600102036DD85DC401788853123078F1
:1015200083341D6D1A000002013090F000000000AD
:1015300000E305C000E421001C00E6060501606030
:1015400012366C80A070703E803020080C6D5521E2
:1015500000001A6FC200A0A0A05550302035006DC9
:10156000552100001A0027000000000000000000C4
:10157000000000000000000000000000000000006B
:10158000000000000000000000000000000000005B
:10159000000000000000000000000000000000004B
:1015A000000000000000000000000000000000003B
:1015B000000000000000000000000000000000002B
:1015C000000000000000000000000000000000001B
:1015D000000000000000000000000000000000000B
:1015E00000000000000000000000000000000000FB
:1015F00000000000000000000000000000000000EB
:1016000000000000000000000000000000000000DA
:1016100000000000000000000000000000000000CA
:1016200000000000000000000000000000000000BA
:1016300000000000000000000000000000000000AA
:10164000000000000000000000000000000000009A
:10165000000000000000000000000000000000008A
:10166000000000000000000A5468697320666D20C5
:101670007278706C6C5F696E5F636C6B000A5468A3
:10168000697320666D20646874785F6469765F6C46
:10169000696E6B5F636C6B000A5741524E494E474F
:1016A0003A2046726571206D6574657220676574B5
:1016B000206661696C005761726E696E673A2069D5
:1016C0006E70757420697320696E76616C69640050
:1016D0000A6C6F6164206B657920646F6E655B30A6
:1016E0007825303262785D000A5061747465726EDC
:1016F000207063722062616E64203D203078253056
:10170000326278000A5061747465726E2070637280
:10171000206C6F636B004D495049566964496E6691
:101720006F557064617465212121212121004D498B
:101730005049566964496E666F436C656172212138
:101740002121212100417564496E666F55706461E5
:10175000746521212121212100417564496E666F44
:10176000436C656172212121000A466C6173682017
:1017700045444944204C6F6164000A466C617368BB
:101780002045444944206E6F742065787369743A2B
:101790000054784576656E742D2562640000000063
:1017A0000000000000000000000000000000000039
:1017B0000000000000000000000000000000000029
:1017C0000000000000000000000000000000000019
:1017D0000000000000000000000000000000000009
:1017E00000000000000000000000000000000000F9
:1017F00000000000000000000000000000000000E9
:1018000000000000000000000000000000000000D8
:1018100000000000000000000000000000000000C8
:1018200000000000000000000000000000000000B8
:1018300000000000000000000000000000000000A8
:101840000000000000000000000000000000000098
:101850000000000000000000000000000000000088
:101860000000000000000000000000000000000078
:101870000000000000000000000000000000000068
:101880000000000000000000000000000000000058
:101890000000000000000000000000000000000048
:1018A0000000000000000000000000000000000038
:1018B0000000000000000000000000000000000028
:1018C0000000000000000000000000000000000018
:1018D0000000000000000000000000000000000008
:1018E00000000000000000000000000000000000F8
:1018F00000000000000000000000000000000000E8
:1019000000000000000000000000000000000000D7
:1019100000000000000000000000000000000000C7
:1019200000000000000000000000000000000000B7
:1019300000000000000000000000000000000000A7
:101940000000000000000000000000000000000097
:101950000000000000000000000000000000000087
:101960000000000000000000000000000000000077
:101970000000000000000000000000000000000067
:101980000000000000000000000000000000000057
:10199000000000000000000000000000004D697021
:1019A0006920445349204F7574004D697069204384
:1019B0005349204F7574004D697069204F7574202C
:1019C00044697361626C6500506F727420307E33BD
:1019D0002052702043616C6920526573756C743AB3
:1019E0002025303262782C2025303262782C202558
:1019F000303262782C20253032627800506F727459
:101A000020307E332052642043616C69205265731C
:101A1000756C743A2025303262782C202530326281
:101A2000782C2025303262782C20253032627800E4
:101A30004450687920436C6B206275727374204D3A
:101A40006F6465004450687920436C6B20636F6E4F
:101A500074696E7565204D6F646500445349207646
:101A60006964656F204E4F4E5F42555253545F4D2F
:101A70004F44455F574954485F53594E435F45565D
:101A8000454E540044534920766964656F204E4F9B
:101A90004E5F42555253545F4D4F44455F57495432
:101AA000485F53594E435F50554C5345004453498A
:101AB00020766964656F2042555253545F4D4F4400
:101AC00045004D49504954585F33445F4D4F44459C
:101AD0003A204D4950495F4C4546545F524947486A
:101AE000545F4D4F4445004D49504954585F33446D
:101AF0005F4D4F44453A204D4950495F4E4F5F334B
:101B0000445F4D4F44450076636F204461746152D9
:101B10006174653A20256C752C20256C7500506F1A
:101B2000737420646976203D2032004132303720C2
:101B300052475F4C4D5458504C4C5F52414E4745B4
:101B40005F53454C203A203078253032627800418E
:101B5000323041204C4D5458504C4C5F4449565FF4
:101B6000534554203A2030782530326278004C4D6D
:101B70005458504C4C2063616C69206661696C005C
:101B80004C4D5458504C4C206C6F636B20666C610C
:101B9000673A3078253032627820004C4D545850E6
:101BA0004C4C20756E6C6F636B004C4D5458504C10
:101BB0004C2063616C6962726174696F6E2062614E
:101BC0006E646F75743A2030782530326278203038
:101BD000782530326278004279746520636C6B3A04
:101BE00025754D687A00636B5F706F7374202830C1
:101BF000784639413929203D2030782530326278C5
:101C000000636B5F7A65726F202830784639413700
:101C100029203D20307825303262780068735F6C6F
:101C2000707820202830784639413429203D2030F2
:101C30007825303262780068735F70726570202892
:101C400030784639413529203D20307825303262C0
:101C5000780068735F747261696C28307846394126
:101C60003629203D20307825303262780068735F55
:101C700072717374202830784639384129203D200C
:101C8000307825303262780000000000000000004B
:101C90000A547261696E696E6720657120696E66AB
:101CA0006F3A000A4C302076616C69645B307825AD
:101CB0003034785D2C45515B307825303262785D68
:101CC000000A4C312076616C69645B3078253034D1
:101CD000785D2C45515B307825303262785D000AA2
:101CE0004C322076616C69645B3078253034785DE5
:101CF0002C45515B307825303262785D000A4C33D8
:101D00002076616C69645B3078253034785D2C45D1
:101D1000515B307825303262785D000A4551486960
:101D200067203D2030782530326278000A45514CDA
:101D30006F77203D2030782530326278000A534397
:101D4000414E205354524154000A46454353544196
:101D50005445203D2030782530326278000A4C61AD
:101D60006E65457272203D203078253034782C30F5
:101D700078253034782C3078253034782C3078251C
:101D8000303478000A5363616E5F45514C4F5720E1
:101D90003D20307825303262782C30782530326220
:101DA000782C307825303262782C307825303262C9
:101DB00078000A5363616E5F4551484947203D20D2
:101DC000307825303262782C307825303262782CA9
:101DD000307825303262782C3078253032627800C5
:101DE0000A414344525F4953535545000A56616CBA
:101DF00069644571203D20307825303262782C307E
:101E00007825303262782C307825303262782C3068
:101E1000782530326278000A536B6577203D203098
:101E20007825303262782C307825303262782C3048
:101E30007825303262782C30782530326278000094
:101E4000000102030405060708090A0B0C0D0E0F1A
:101E50000F0F0F0F0F0F0F0F0F0F0F0F0F0F0F0F92
:101E60000000000000000000000000000000000072
:101E7000000102030405060708090A0B0C0D0E0FEA
:101E80000FFFFFFFFFFFFFFFFFFFFFFFFF0000004F
:101E90000001010101000000000A436F6C6F7269CC
:101EA0006D65747279206368616E6765203D2030CE
:101EB000782530326278000A44705278494E464F95
:101EC0003A000A486270202020203A20252D3864EC
:101ED0002020566270202020203A20252D386400D2
:101EE0000A486670202020203A20252D38642020C2
:101EF000566670202020203A20252D3864000A489C
:101F000073796E6320203A20252D38642020567383
:101F1000796E6320203A20252D3864000A486163D9
:101F2000742020203A20252D3864202056616374C7
:101F30002020203A20252D3864000A48746F6C2038
:101F400020203A20252D3864202056746F6C2020E4
:101F5000203A20252D3864000A44657074682020DA
:101F60003A20252D3862642020537061636520205B
:101F70003A20252D386264000A506978436C6B2042
:101F80003A20252D386C6420205065616B436C6BC2
:101F90003A20252D386C64000A52656672657368B4
:101FA00052617465203D202564000A5278537461A3
:101FB0007465203D20256264000A447052782055E3
:101FC0006E706C7567000A527820506C7567000A55
:101FD0005761697420454343000A45636320657275
:101FE00072000A52782072652D747261696E696E92
:101FF00067000A534B657720556E6C6F636B000A60
:10200000436F6C6F72207370616365206368616EEB
:102010006765000A4D7361206368616E6765000A39
:102020004453432043484E47000A476F746F205083
:102030004352000A417564696F20636867000A4172
:1020400043445220556E6C6F636B000A52415445F5
:102050005F4C414E45203D20307825303262782C4F
:1020600030782530326278000A44652D736B6577CD
:1020700020657272000A5761697420706372207360
:102080007461626C652E2E2E000A50435220484126
:10209000524420524553455400447363456E6320B7
:1020A000536C696365203D202562642C436F6D701D
:1020B00072657373526174696F203D2025626400FC
:1020C000447363456E6320536C6963654865696753
:1020D0006874203D2025642C536C696365576964DE
:1020E0007468203D2025642C4368756E6B53697AB3
:1020F00065203D2025640041645F63736374785FED
:1021000068616C665F7069785F636C6B203D202549
:102110006C756B687A0041645F64736374785F64A4
:1021200073635F72645F636C6B203D20256C756B1D
:10213000687A0041645F64736374785F6473635F9B
:10214000636C6B203D20256C756B687A0041645F81
:1021500064736374785F6473635F6F75745F636CDB
:102160006B203D20256C756B687A0011000089306A
:1021700080087008700010021C021C0200020E0091
:102180002001840007000C0667065C180010F003AD
:102190000C2000060B0B330E1C2A38465462697063
:1021A00077797B7D7E01020100094009BE19FC1987
:1021B000FA19F81A381A781AB62AF62B342B743B07
:1021C000746BF400000000000011000089308008EA
:1021D0007008700010021C021C0352020E00200046
:1021E000000007000C0667065C18000A4750494FBC
:1021F0002054726967676572204C6F77000A4750F8
:10220000494F2054726967676572204869676800A2
:102210000A44702052782076696420696E666F3AAD
:10222000000A436F6C6F7253706163655B25626473
:102230005D000A436F6C6F7244657074685B256261
:10224000645D000A52785F5065616B5F636C6B2060
:102250003D2020256C640075636142726967687473
:102260006E6573735B315D3A307825303262782C5D
:10227000207563614272696768746E6573735B325F
:102280005D3A3078253032627800445052585F53BE
:1022900054415449435F4844525F4E4F5449465954
:1022A0005F4556454E540054585F564944454F5F6C
:1022B0004F4E5F4556454E545F3300445052585F71
:1022C000564944454F5F4F46465F4556454E54007C
:1022D000000000444542554700494E464F005741D3
:1022E000524E004552524F520043524954000A5B2D
:1022F000252D35735D2025730003FF22D3FF22D9DE
:10230000FF22DEFF22E3FF22E900000000000000C0
:1023100000000000000000000000000000000000BD
:1023200000000000000000000000000000000000AD
:10233000000000000000000000000000000000009D
:10234000000000000000000000000000000000008D
:10235000000000000000000000000000000000007D
:10236000000000000000000000000000000000006D
:10237000000000000000000000000000000000005D
:102380000000000000000000000A4470527820485D
:10239000504420495251000A447052782048504419
:1023A0002048696768000A447052782048504420E9
:1023B0004C6F77000A527820527465726D206973F1
:1023C0002030782530326278000A43616C692073CE
:1023D000756363657373000A43616C6920666169A4
:1023E0006C6564000A4470207278706C6C206261C5
:1023F0006E64203D20307825303262782C3078258C
:10240000303262782C307825303262782C30782562
:1024100030326278000A706372206873796E6320CC
:102420006D6F6465002120212000F02222222223EA
:10243000805656AAAA40636868CCCCC0FE436F6C35
:102440006F7253706163653A20256264202C2043CB
:102450006F6C6F7244657074683A20256264004442
:1024600053435B485D3A2048746F74616C3A25644D
:102470002C486163746976653A25642C4873773A11
:1024800025642C4866703A25642C4862703A2564AD
:102490002C4873706F6C3A256264004453435B565A
:1024A0005D3A2056746F74616C3A25642C566163F2
:1024B000746976653A25642C5673773A25642C56F0
:1024C00066703A25642C5662703A25642C567370F7
:1024D0006F6C3A256264004D697069204443532053
:1024E000454E44000511000529000510000528008F
:1024F0001536C615B00039B9132A026439EC05D86F
:1025000015D60015B00315350015364015260115F2
:1025100003010A43686970506F7765724F6E000A55
:1025200046575F564552203D20307825303262783C
:102530002C307825303262782C3078253032627831
:10254000000A496E636F72726563742050574D20A4
:1025500044757479000A50574D20447574793A25B2
:102560006264000A4653203D20307825303262787C
:1025700000901000E49390E080F0901001E49390BC
:10258000E081F0901002E49390E082F0901003E478
:102590009390E083F02212737B1280061271CBB10C
:1025A00071B1CA7A25791212003A7A25791F90E022
:1025B000811267D490E082E090029BF090E0831259
:1025C0006670128325123EF180F81281E31281FFBA
:1025D0007F01D13F7F01127839127D7C7F09F1BEE6
:1025E0007F091238641200097B327D017F0A123E96
:1025F00029E49003FCF0127D5E1286B5E0A3F02280
:10260000EF6401701790E128F090E580E054F7D175
:102610003854FDF0ED54FB90E580F02290E580E029
:102620004404D1384402F0ED440890E580F090E194
:102630002874FFF022E04401F0FD90E10BE022D18C
:10264000007F01EF6401701790E129F090E580E0D0
:1026500054FDD13854FEF0ED54FE90E580F0229008
:10266000E580D1354401F0ED440290E580F090E141
:102670002974FFF02290002CE024FE601A146047B9
:1026800014606F147002E11C147002E18424056070
:1026900002E18C7F02E18990002DE0601E125DBB9B
:1026A000123BAE90038D7401F078477C00FD7BFFF8
:1026B0007A1479677E027F0012069E900028E070EF
:1026C00002E18C7F03E18990002DE06006125DBB82
:1026D000123BAE900029E07002E18C7F041282155B
:1026E000E4FFD143125C9A7F147E00F195E4FF026F
:1026F000775C127224124E031282961274A0EF704D
:1027000002E18C125BD01282EC125A9612831812DC
:10271000769212321912369C7F05806D90003EE051
:10272000640170687F01125D63E4FB7D0C7F2212FF
:102730003BE77F22F1B37F20123BE37F20F1B37FA1
:10274000211286707F211238647F057E00F1957F0B
:102750001F1286707F1F1238647FC87E00F19512A9
:102760007F177FC87E00F1957F1DF1BE7F1DF1B5FB
:1027700090002EE07005F1C81276C87F01125D75D9
:102780007F0680051281417F0712821522E054F7EF
:10279000F07F017E00EF1FAA0670011E4A6013E45D
:1027A000FCFDC3ED9474EC940250EA0DBD00010CE5
:1027B00080F0227D011238647F327E0080D77B0159
:1027C0007D0C123BE77D012290F9ABE054DF1276DD
:1027D000F04420F19090F9ABE054DFF022D17590F5
:1027E000026174FFF090002CE0D31257C2400B90AE
:1027F0000028E070057F0212821590002CE0D312B1
:10280000729A400B900029E070057F0312821590A8
:10281000002CE01244FE403D90E0B0E0FDE4FF12E9
:102820008286EF701490003EE064017028F0FF1281
:102830005D63E4FF125D75801C90003EE070161130
:10284000661244FF500280027F05900261EFF09013
:10285000003E7401F0900261E0FFF4600312821503
:10286000227BFFFF512A900261E0FFC322900261A8
:1028700074FFF090038BE07002411D900385E0D35C
:102880001247AB401990038DE070131266A11166D8
:102890001247AB500280027F04900261EFF0900378
:1028A00085E0D394067480948040151267F6EF6437
:1028B00001700D7BFF7A1F79E2FF512A7F06F1AB91
:1028C000900385E0640A7027126F77EF70217829F2
:1028D000125A1C401A7BFF7A1F79F2E411639409A3
:1028E00074809480500280027F09900261EFF09022
:1028F0000385E0D3940B7480948040591240D5EF47
:10290000640170147A1F79FF1161128628500280C9
:10291000027F0A900261EFF0126DD0EF6401701433
:102920007A2079131161128628500280027F0A9062
:102930000261EFF01270319003ACE06F60177BFF23
:102940007A20791FE41163128628500280027F0AE0
:10295000900261EFF0900385E0D3940D7480948031
:10296000402312708FEF600612700BEF70177A2001
:10297000792912478E1166128628500280027F0A3A
:10298000900261EFF01286819480403E125A251227
:1029900081AEEF640170121281A37BFF7A2079333C
:1029A0007F03512A7F0E120006126E28EF701B7BE8
:1029B000FF7A20793E7F03116494097480948050DB
:1029C0000280027F09900261EFF0900385E0C3125C
:1029D000575B403F900261E012575B40367F041224
:1029E0006DCA700B7F04126B5FF07F0D1200067FC3
:1029F00003126DCA700B7F03126B5FF07F0B120026
:102A0000067F05126DCA700B7F05126B5FF07F0C9D
:102A1000120006900261E0FFF46002F1AB227BFF3E
:102A2000900295E090029AF0E4FF900297120A82D9
:102A30009022F9E493FEEFD39E50697B017A0279EC
:102A40009A9002C2120A829002971286919002C254
:102A5000120A62900349120A827B017A0279C61235
:102A600012039002C2128646E49002C5F07B017AFE
:102A70000279C61200169002C5E0FDFB3395E0FA1C
:102A8000C3EB9FEA9E501DEDFF3395E0FE74C62F09
:102A9000F58274023EF583E0FF120FD99002C5E083
:102AA00004F080C922900385E0120A972ADA012AED
:102AB000E7022B07032B15042B23052B5A062B7536
:102AC000082BAB092BD10A2C060B2C5D0D2CD00E3C
:102AD0002CF30F2CFC1000002CFF1281F91246463B
:102AE0001268A27F0281FAB1087009B101B10FE446
:102AF00090038CF0B1017F287E00B192600281FFCB
:102B000012000E7F0381FA90038BE0640160028162
:102B1000FF7F0481FA90038DE06401600281FF7FF2
:102B20000581FAB108700EB101B10FE4FF1247C37D
:102B3000E490038CF0B1017FB07E04B19260028119
:102B4000FF1281FC1269A11267BF7F06F1AB7F09FA
:102B5000126B017D017F090269D31267E6EF640100
:102B6000600281FFB1017F50FEFDFCB196600281E1
:102B7000FF7F0881FAB1087017B100B10F7BFF7AAF
:102B800020794B7828E690029AF008E6A31247963F
:102B9000B1017F807E0CB192600A12700BEF64016C
:102BA000600281FF1267A57F0981FAB1087004B144
:102BB00000B10FB188600281FF126F77EF700E7F56
:102BC000071260227A20796812003A81CC7F0A814C
:102BD000FAB108701A7F061260227F01126022E4A7
:102BE00090038CF0FF127045126F96B101B10FB1D6
:102BF00088600281FF126F96EF70077F01127045A7
:102C000081CC7F0B81FAB1087029FF122600126F68
:102C1000AC7F01126F6590039974FFF0A3F0A3F0ED
:102C2000E49003A0F0A3F0A3F0A3F090038CF09045
:102C30000398F01240D5126DD0EF600281FF127040
:102C400031EF640170099003AC04F07F0C81FA7FCE
:102C500001122600E49003ACF07F0D81FAB10870F8
:102C60001BFF124EE3B101B10F7BFF7A2079757F14
:102C700003512AE490038CF0900384F07F01124EFC
:102C8000E3B188701C12708FEF6401700E12700B2C
:102C9000EF640170067F0EF1AB800612700BEF60DF
:102CA0005EB1017FD07E07B1927054900384E0043E
:102CB000F0E0640A70167BFF7A207989FF512A7F41
:102CC000011260221247D1E4900384F0B101803FE9
:102CD000B108701B900393F090038CB100B10F12F8
:102CE0006E349003AEEFF0126E3A9003AFEFF07FC8
:102CF0000F8007B1087001F07F10E1AB1240AD22E8
:102D0000F07B017A0379802290038CE0640122F148
:102D10009F12868B900264120A0DAB07AA06F1A5DA
:102D2000C3EF9BFFEE9AFE12002ED3EF947FEE646A
:102D30008094804005F1A512868B900264B19C02BC
:102D400009F312868BF19F90026C120A251209D3A7
:102D5000900268120A2512863C1237344011900204
:102D60006CB19C1209F312863C120A257F00229056
:102D7000026412863F120A1912085690026C12372A
:102D8000347F0040027F01227B017A0379807F90AB
:102D90007E017D007C00B142EF640122120A0D9099
:102DA0000261020A62900261120A82E4FFD130B12C
:102DB0009F900004F10B7F01D130B19F900006F18C
:102DC0000B7F02D130B19F900008F10B7F03D1300F
:102DD000B19F90000AF10B7F04D130B19F90000C9D
:102DE000F10B7F05D130B19F90000EF10B7F06D122
:102DF00030B19F900010F10B7F07D130B19F900050
:102E000012F10B7F08D130B19F900014F10B7F09B4
:102E1000D130B19FF1087F0AD130B19F900018EFF7
:102E200012071C7F0BD130B19F900019EF02071CD5
:102E3000AB07900272120A3100000000EB120A97F1
:102E40002E68002E72012E7C022E86032E90042EF8
:102E50009F052EAB062EB7072EC3082ECF092EDDF9
:102E60000A2EED0B00002F0290F7F6E0FE90F7F728
:102E7000802690F7FAE0FE90F7FB801C90F7F2E0D6
:102E8000FE90F7F3801290F7EAE0FE90F7EB8008EF
:102E900090F7F0E0FE90F7F1F11212670F80399091
:102EA000F7F4E0FE90F7F5F112802D90F7F8E0FED0
:102EB00090F7F9F112802190F7EEE0FE90F7EFF134
:102EC00012801590F7E8E0FE90F7E9F11280099082
:102ED000F7ECE090F7EDF111FEE4FD801F90F7E7CD
:102EE000E05410C4540FFFE4FCFDFE800F90F7E7A0
:102EF000E05420C4135407FFE4FCFDFE900272125C
:102F00000A25900272020A0D900016EE8FF0020858
:102F100029FEE07C002400FFEC3E227BFF7A1C7936
:102F200090E4FF512A7BFF7A1C79A390F1F3E0FE35
:102F300090F1F4F11290029AF0A3EFF090F1911257
:102F400066707BFF7A1C79C190F1F5E0FE90F1F696
:102F5000F11290029AF0A3EFF090F1931266707B59
:102F6000FF7A1C79DF90F1F7E0FE90F1F8F1129012
:102F7000029AF0A3EFF090F1951266707BFF7A1C35
:102F800079FD90F1F9E0FE90F1FAF11290029AF0D9
:102F9000A3EFF090F197E090029CF0E4FF412A90BB
:102FA0000261120A82900403020A0D900385E0FE7A
:102FB0006F6036900262EEF0900385EFF090038C24
:102FC0007401F07BFF7A1F79AA90029A12479590BC
:102FD0000385E0641070057F03120006900262E032
:102FE000641070057F041200062290026BEFF0124D
:102FF000824690026BE024FD601614601C24F96088
:103000002A24FD605B240C705BE4900397F080172A
:103010001248091247EA02412CE4FF126FF60F1220
:10302000263F7F04F13BE4FF02775C900042E070B2
:103030003390002CE0C39407748094804026900362
:10304000FCE07020900394E0900041F0A37401F044
:103050007BFF7A22798AFF116E7F0B127856E197F7
:103060007F05F13B227BFFE0900281F0E4FF9002BC
:103070007DEFF0A3120A8278A97C027D017BFF7AA2
:103080002379097E007F8012069E90027DE0FFD3A7
:103090001244FF505890040AE0FEEFC39E404E7B5E
:1030A000017A027981900329120A8290027E1286A7
:1030B00091900329120A62900349F17B1212039046
:1030C000032912864690027DE075F003A424FAF5E8
:1030D00082E43422F583120A8B90034FF17B900334
:1030E00052120A827BFF7A2279EE120BC122F16220
:1030F000F81208FCF1DC90026AE0701490026CF1A6
:10310000CDCEC313CE13D8F9F0EE90026CF0800947
:10311000D11F7D07120750F1DC7A1B79D790026C22
:10312000F10EE4FF116E90026CE0FAA3E0FB7D3C2F
:10313000FF12860090F9A4F07D32AF031286009052
:10314000F9A5D11E7D07F1D4AB07EB240490F9A6B5
:10315000D11E7D0612073E7D19120750AE0790F969
:10316000A7EEF0EB240790F9A9F090026AE0705402
:10317000900269E0640190026C7027A3E0FBEE24EA
:103180000790F9A7F07C007D07AF03AE02F1D4EF02
:10319000240790F9A9F090F9A4E0246790F98AF047
:1031A000800CD1227D0A12075090F98AEFF090022C
:1031B0006BE06401701E90F9A5E0FF90F9A4E02F88
:1031C000240A800C90F9A9741EF090F9A4E024322E
:1031D00090F98AF07BFF7A1B79E690F9A911677B59
:1031E000FF7A1C790190F9A711677BFF7A1C791C83
:1031F00090F9A411677BFF7A1C793790F9A51167C4
:103200007BFF7A1C795290F9A611677A1C796D9030
:10321000F98A1285E6E4FF016EF162F890003991B7
:103220008B900261EEF0A3EFF0E47BD07A079186F9
:10323000F16990002EE0FB7A007014900263F1CDEA
:10324000CEC313CE13D8F9F0EE900263F0800C9049
:103250000263D1227D07120750F16990002BE064D0
:10326000016006EB64014A700D900264E025E0F015
:10327000900263E033F0900263124FDBF1EEF169EC
:103280001276AA900265EEF0A3EFF01276B99002E2
:1032900067EE12867A7A1379DF900263F11090025A
:1032A00061F185E4FF116E7BFF7A1379FA90025188
:1032B000F110900253F18590024D125BC3E4FF11AF
:1032C0006E91911285A7120750F15B120A25F154F5
:1032D000E0FFF15BF134401F900253E091961285BC
:1032E000A71207509002651242479CFEE4FCFD9035
:1032F0000271120A25800A900271120A3100000040
:1033000000900032E064016002618A91912DFDEE2F
:103310003CFC90024D919F2DFFEC3EFE900263E03D
:10332000FCA3E0FD120ABD900275D12A90027591AE
:103330008B900279120A25900267E0FEA3E0FF90CD
:103340000266E02FFF900265E03EFEF15BF1344043
:103350002DD12D900275918BC006C007F154E0D19C
:1033600035D007D006120863C006C007A3E0FEA34D
:10337000E0FBAA06E4D007D006120863800E900294
:1033800075120A31000000008008D11890027512F1
:103390000A25900275120A0D900271F1344008D18D
:1033A00018900275120A257A14791490003111656B
:1033B000900031E025E0FFE433AB07FA3395E0F904
:1033C000F8E4FF7E80FDFC1208FC90026D120A25D5
:1033D000919CFFE4FCFD90026D120A19F12090020D
:1033E00053919FFFF11D900263E0FEA3E0FFE4FC18
:1033F000FD12087190026DD12A90026D918BC0066A
:10340000C007F154E0D135D007D00612086390020E
:103410006D120A25E47B07FAF890026D918B9002F9
:1034200075120A19F172900032E064027037D3907D
:103430000254E094E8900253E094034028E47B02B5
:10344000FAF9F8900275918BC004C005C006C00758
:10345000E47B07FAF9F890026D918BD003D002D08B
:1034600001D000F1727BFF7A147923900269D17543
:10347000116EF108AC06EC90F982F0EF90F983F050
:1034800022F0E47B08FAF9F8900035120A0D0208E0
:10349000FC900253E0C313FCA3E013FD900251E043
:1034A000C313FEA3E01322F17590026D7401F0E4E2
:1034B000A3F0A3F0A3F0F10812865A4410F054FBD5
:1034C000F090A201E054E0F0F090A20274A8F0E4C1
:1034D00090A204F090A205F090A206F090A207F04E
:1034E00090A20A7480D1177BC07A2779097800D31B
:1034F00012099C4035900271120A19C374C09BFFD7
:1035000074279AFE740999FDE498FCF162F8D312CD
:10351000099C4016D118EF2410FFEE3427FEE43D3D
:10352000FDE43CFC900271120A257BFF7A1B7907AF
:10353000D118900281120A25F108900285120A25FD
:10354000E4FF116EE490026FF090026FE01247AA60
:1035500050297F807E4F7D127C00900271F10150D6
:103560001A90026EE004D11778011209C09002711E
:10357000120A2590026FE004F080CE7F807E847D69
:103580001E7C00900271F1344017D11878011209A5
:10359000AD12865A4404F07BFF7A1B791EE4FF11BA
:1035A0006E90A207E054F8FFF090026EE0FE4F909C
:1035B000A207F07BFF7A1B792B900281EEF1E9E400
:1035C0007BA87A61F9F8900271918B900270EFF00C
:1035D000E47BA87A61F9F8A3918BAC00AD01AE024F
:1035E000AF03E4FBFAF9F8C312099C60069002707D
:1035F000E004F090A20AE05480FFF0900270E0FE38
:103600004F90A20AF04480F07BFF7A1B794F900222
:1036100081EEF0E4FF016EF0900271020A0DF0906D
:10362000026CE0FEA3E0FF7C0022120A25900261FA
:10363000E0FEA3E0FFFBAA06E4F9F8227D0FD181AA
:103640007A2079F7D172116E7D12D1817A217916A3
:10365000D172116E7D137F03D1BE7F32D1877A2163
:103660007933D172116E7D14D1817A21794DD17265
:10367000016E900261120A0D900281120A257F01EB
:10368000227F03D1BE7F057E00122795E4FD7F03D4
:10369000124896900261120A257BFF229002611265
:1036A0000A31000000007D31D1817A147932D17263
:1036B000116E7D30D1817A14794DD172016E9002F4
:1036C0006DEDF0EF14601314601814602024037083
:1036D0002490026DE090C740F0227BFF7A16796754
:1036E00080067BFF7A16797DE4FF022A2A90026D1C
:1036F000E090E690F0227F807E4F7D127C00900269
:1037000062120A19C302099C900269020A0D7BFF2A
:10371000E0FFA3E0900281CFF0A3EFF022E4FCFDF4
:10372000120856A804A905AA06AB07227F807E1AB4
:103730007D067C00120A19D302099C9004027401D0
:10374000F0900401EFF07BFF7A177991900281F0FD
:103750007F01016E900265E0FEA322E4FCFD900271
:103760007922E47BE87A03F922900263EEF0A3EF7A
:10377000F022120856900269020A25120A827B0181
:103780007A0279A922E0FFA3E0900283CFF0A3EFB1
:10379000F02212765D81A79003FC7401F02212865C
:1037A0008194804027127CA3EF6401701F900397DF
:1037B000E07B0160087D0C123E05023BE7E4FD1250
:1037C0003E05123BE7E4FF127B4CF19722E0FEA39B
:1037D000E078032212073E7D6402075090026CEEEF
:1037E000F0A3EFF022E0900282F0E4FF016EFD7C96
:1037F0000002073E90038E7414F0A37404F090034B
:10380000887401F0A3F0A3F07E007F457D007B006B
:103810007A007922020AEA9003FCE0601B7147EF0C
:1038200064017014FD7F0911647B017A0379F81239
:103830002D0F7A2179EB71409003FCE060257147F0
:10384000EF70207B017A0379F87FC8FEFDFC122D12
:103850009670109003FCF07D017F0911647A217944
:10386000FD714022EF120A9738D50038E60138F78B
:1038700002390803391904392A05393B06394C073E
:10388000395D08396E09397F0A39900B39A10C3935
:10389000B20D39C30E39D40F39E51039F6113A0794
:1038A000123A18133A29143A3A153A4B163A5C1759
:1038B0003A6D183A7E193A8F1A3AA01D3AB11E3A5B
:1038C000C21F3AD3203AE4213AFB223B12233B2980
:1038D0002400003B3F90A385E04480F0ED6002614E
:1038E0003390A385613B90A37FE04402F0ED60023A
:1038F00041EE90A37F41F690A389E04402F0ED6091
:103900000241EE90A38941F690A388E04402F0EDD5
:10391000600241EE90A38841F690A388E04408F04D
:10392000ED6002610590A388610D90A388E04420BA
:10393000F0ED6002611C90A388612490A388E044AC
:1039400080F0ED6002613390A388613B90A387E033
:103950004402F0ED600241EE90A38741F690A38708
:10396000E04408F0ED6002610590A387610D90A32B
:1039700087E04420F0ED6002611C90A387612490F1
:10398000A387E04480F0ED6002613390A387613B40
:1039900090A386E04402F0ED600241EE90A38641E0
:1039A000F690A384E04402F0ED600241EE90A3841F
:1039B00041F690A384E04408F0ED6002610590A315
:1039C00084610D90A384E04420F0ED6002611C90BE
:1039D000A384612490A382E04402F0ED600241EEF2
:1039E00090A38241F690A382E04408F0ED6002616A
:1039F0000590A382610D90A382E04420F0ED600267
:103A0000611C90A382612490A382E04480F0ED6069
:103A100002613390A382613B90A381E04402F0ED08
:103A2000600241EE90A38141F690A381E04408F04A
:103A3000ED6002610590A381610D90A381E04420B7
:103A4000F0ED6002611C90A381612490A381E044A9
:103A500080F0ED6002613390A381613B90A380E030
:103A60004402F0ED600241EE90A38041F690A38005
:103A7000E04408F0ED6002610590A380610D90A321
:103A800080E04420F0ED6002611C90A380612490EE
:103A9000A380E04480F0ED6002613390A380613B3D
:103AA00090A37EE04402F0ED6002804290A37E800D
:103AB0004590A37EE04408F0ED6002804890A37E2C
:103AC000804B90A2A5E04402F0ED6002802090A21D
:103AD000A5802390A2A6E04402F0ED6002800F9042
:103AE000A2A6801290A2C9E04402F0ED6005E04475
:103AF00001F02290A2C9E054FEF02290A2C9E04455
:103B000008F0ED6005E04404F02290A2C9E054FB07
:103B1000F02290A2C9E04420F0ED6005E04410F0EE
:103B20002290A2C9E054EFF02290A2C9E04480F0B4
:103B3000ED6005E04440F02290A2C9E054BFF022BD
:103B40007BFFE4FF022A2A90A387E07F0030E40293
:103B50007F01221117127D6AEF640170509003FCFF
:103B6000E0704A127D76127D70EF24FD60081460CB
:103B70001C14602F80377A2279A7125FDF7F03122F
:103B800078567F0171AE123797FF02775C7BFF7A20
:103B90002279BB7F0112306E7F04127856E4FF71E8
:103BA000AE8007F1B57F01127B4C12379722EF648C
:103BB000017B0170287D0C7F0F71E7E490F31CF00E
:103BC00090F1A5E044C0F090E6E47402F090E6E6DF
:103BD000E04403F054F3F01D7F0F02709BE4FD7F7F
:103BE0000F80047B017D0CEF120A973C58003C6467
:103BF000013C6E023C78033C82043C8C053C9606FA
:103C00003CA0073CAA083CB4093CBE0A3CC80B3C9B
:103C1000D20C3CDC0D3CE60E3CF00F3CFA103D04AF
:103C2000113D0E123D18133D22143D2F153D3E1639
:103C30003D48173D58183D69193D7B1A3D8E1D3D85
:103C40009A1E3DAB1F3DB0203DBB213DD0223DD54E
:103C5000233DDC2400003DF190A374D120C43354F3
:103C6000E04FF02290A35CB1F990A364A15090A31F
:103C700072B1F290A374A17190A372B1F990A37480
:103C8000A18390A371B1F290A373A19690A371B197
:103C9000F990A373A12A90A370B1F290A373A137F6
:103CA00090A370B1F990A373A1C390A36FB1F290E8
:103CB000A373A15090A36FB1F990A373A16090A3D7
:103CC0006EB1F290A373A17190A36EB1F990A3733A
:103CD000A18390A369B1F290A36AA19690A369B160
:103CE000F990A36A804490A368B1F290A36A8047D8
:103CF00090A362B1F990A364A19690A361B1F290F0
:103D0000A364802690A361B1F990A364802990A355
:103D100060B1F290A364A1C390A360B1F990A363D2
:103D2000807490A35FB1F290A363E0FFEB80789082
:103D3000A35FB1F990A363E0FFEB25E0806990A356
:103D40005EB1F290A363807B90A35EB1F990A36310
:103D5000E0FFEBC454F0807390A35DB1F290A363D5
:103D6000E0FFEBC43354E0806290A35DB1F990A30F
:103D700063E0FFEBC4333354C0805090A35CB1F2D6
:103D800090A363E0FFEBC43333335480803D90A3B2
:103D90005AB1F290A35BE04BF02290A359B1F2909C
:103DA000A35BE0FFEB25E025E0802090A2A280034A
:103DB00090A2A3D120C454F04FF02290A2C0B1F23F
:103DC00090A364E0FFEB33333354F8FEEF4EF02260
:103DD00090A2BF800390A2BED120800D90A2BDE032
:103DE00054F0F04DFFF0AE03EEC433333354804F44
:103DF000F022E054F0F04DF022E0540FFFF0EDC45B
:103E000054F04FF0227F0371E77F0271E77F047166
:103E1000E77F0571E77F0671E77F0771E77F08227B
:103E2000E054F0F04DFFF0EB22900261EFF0A3EDD3
:103E3000F0A3EBF0D3946474809480400B7BFF7A02
:103E40002579417F0102306E900263E0FF9003DD2F
:103E5000E06F7002C1E1900263E09003DDF07BFF50
:103E60007A257955900281125B5B900262E0FBE457
:103E7000FAF9F87F807EBBFDFC12124D900264EED1
:103E8000F0A3EFF0900263E0FB64647009A3E0FF2D
:103E9000A3E0A3CF80119002641236227D64120742
:103EA00050EB1237EEA3EEF0A3EFF07B017D0C7F19
:103EB0000A71E7E4FD7F0A12709B900261E024F72B
:103EC000601A14601224FE600924FE7014D1E2020C
:103ED0007CBED1E2027D0ED1E2027D3BD1E2127CBA
:103EE000EB22900264E0FEA3E0FFA3E0FCA3E0FD70
:103EF000221273731227DD90E0B1E0FB643260029E
:103F000080027B327D017F0AD129715312379EE4F2
:103F1000900261F0A3F078637C027D017BFF7A223E
:103F200079D0FE7F0312069E90002CE064076002A9
:103F3000E1B41286B5A3E0FF9003FDE06F6075E089
:103F4000A3F09003FDE02401FFE433FEEFC4F85436
:103F50000FC868FFEEC454F048900261F0A3EFF080
:103F600090026174FFF5F01207DB9002637451F068
:103F70001285B7EC900264F0AF05A3EFF07A2279D6
:103F8000579002641285C0A3EF1237E990F9B81276
:103F900047A3F07F0112770F7B017A0279637D03DB
:103FA0007F39127EBD1227B8E4FF12770F90F9B85F
:103FB000E054FCF0227B017A02796190C67CE090AB
:103FC000000212071C90F2F1E013131354011207C0
:103FD0000A90F2F5E0FF540712409BEF54F0900076
:103FE0000312071C90F263E090000512071C90F288
:103FF00064E090000612071C90F265E09000071242
:10400000071C90F266E0111290F267E0900009023E
:10401000071C90000802071C126FC2EF6401704079
:104020000412070A90F2BDE0C41313135401119B4C
:1040300090F2BCE0FFC4540F11A1FD7C006402703B
:104040000690000704800BED64014C700890000797
:10405000740212071CEF540F111290F2BDE080336E
:10406000E412070A90F2EBE0FF131313541FFE54FF
:1040700001119BEFC313540311A164037008900056
:1040800007740412071C90F2EBE0FFEE54031112C8
:10409000EFC413540790000902071C9000010207A7
:1040A0001C90000712071C9000070206DD7A0279B7
:1040B0006111CCFF90039AE06F6010EFF07BFF7A04
:1040C0001E7999122A247F10120006227B011118F2
:1040D000900269E0227A02796211CCFE900399E0A5
:1040E000B5061B90026BE0FF90039BE0B5070F90B5
:1040F0000262E0FF900398E0B507037F0022900280
:1041000062E0900398F0A3EEF090026AE090039AC8
:10411000F090026BE090039BF0900398E0640170D4
:1041200003FF80027F01126F657F01227B017A020B
:10413000796C11187A227910F18E7BFF7A2279211D
:10414000900273122A237BFF7A2279329002751231
:104150002A237B017A02797690F2E7E0FE90F2E87A
:10416000122F129000088FF012082990F2DFE090D1
:10417000F2E0512A9000048FF012082990F2E1E059
:10418000FE90F2E2512D91CF9000041207F1514BB5
:1041900095F09000028FF012082990F2DBE0FE907B
:1041A000F2DC512D90000A8FF0120829900008D1FE
:1041B0003690000A1207F191D851479C9000068F63
:1041C000F012082990F2E9E0FE90F2EA122F129024
:1041D00000128FF012082990F2E5E090F2E6512AE1
:1041E00090000E8FF012082990F2E3E0FE90F2E4C6
:1041F000512D91CF90000E1207F1514B95F0900088
:104200000C8FF012082990F2DDE0FE90F2DE512DC5
:104210009000148FF0120829900012B13D91D851EE
:10422000479C9000108FF0020829547FFEE0240084
:10423000FFEC3E2225E0246CF582E43402F583E0B5
:10424000FEA3E0FF900266E0FCA3E0FDC3EF9DFF4C
:10425000EE2290A130E0547FF04408F04404F05482
:10426000FCF090A1337460F090A13EF090A14274F4
:1042700080F0E490A13BF090A1447480F090E300C2
:10428000E054FDF090E3017420F0E490A132F0904E
:10429000A1387427F090A1397406F090A13B74877F
:1042A000F090A143E04430F07480443090A144F099
:1042B0007420440190E301F090E3097403F090E36B
:1042C0000BE054FEF09002627402F0E4F09002629F
:1042D000E0FBF1AA4002818C90E30AE0543FF0EB4E
:1042E00014601114601714601D2403702090E30AF9
:1042F000E0F0801990E30AE04440F0801090E30A77
:10430000E04480F0800790E30AE044C0F09002614E
:104310007403F0F1BA603490E105E054FCF090A130
:1043200030E054BFF090E300E054FE12279090E19B
:1043300005E04403F090A130E04440F090E300F148
:10434000CD90E324E05403640270C891E3E0440C90
:10435000F090E329E090E32A122F11900266F0A377
:10436000EFF0E4900263F091F9400281189002624C
:10437000E014600F1460101460112403700F91EEAC
:10438000F0800AB1288006B1178002B106E49002DD
:104390006AF0A3F0900264F0A3F0900265E0C39489
:1043A0006474809480506D122791900265E004F04F
:1043B00090E326E0FE90E327122F12FE900268F0B1
:1043C000A3EFF051449CFE12002EC3EF9480EE64E4
:1043D0008094805015900268E0FEA3E0FFA3EE8F6A
:1043E000F01207DB900264E004F0900264E06408DD
:1043F00070A890026A1237CDCEC313CE13D8F9FF3E
:10440000900263E025E0246CF582E43402F583EE4B
:10441000F0A3EFF091C8616774FF900276F0A3F00B
:10442000E4900263F091F95051EF51349CFE120078
:104430002ED3900277E09F900276E09E4038900263
:1044400062E0146014146015146016240370149054
:104450000263E0FF91EEF0800AB1288006B1178078
:1044600002B106900263E051349CFE12002E9002CD
:1044700076EEF0A3EFF091C880AB90E30BE054FE32
:10448000F090E309E054F3F0F19C41CD7A2379E414
:1044900090E312F1B290E313E090029BF090E314EA
:1044A000E090029CF090E315E090029DF19690A1BF
:1044B00043E054CFF090A14474C0F091E3740DF048
:1044C00090E30AE0543FF022900263E004F022FE01
:1044D000900292F0A3EFF022C39FFFE5F09EFE90C2
:1044E00002922290E30BE04401F090E3092290E372
:1044F0001DE02F24FE90E31222900263E0FFC3949C
:10450000057480948022900263E0FF90E320E02F06
:1045100024FE90E315F022900263E0FF90E31FE099
:104520002F24FE90E314F022900263E0FF90E31E3C
:10453000E02F24FE90E313F022F09000161207F112
:10454000FFAEF09000140207F190000CD1369000FD
:104550000A1207F12FFFE5F03EB1CA90C7C3F0AFD2
:104560000590C7C4EFB13990C7C5D13D90C7C6EF1C
:10457000F0900006B1C490C7C7F0AF0590C7C8EF70
:10458000B1D290C7C9F0AF0590C7CAEFF090000450
:10459000B1C490C7CBF0AF0590C7CCEFF090000E40
:1045A000B1D690C7CDF0AF0590C7CEEFF090000A1E
:1045B000B1C490C7CFF0AF0590C7D0EFF0B1439032
:1045C000C7D1F0221207F1FFE5F0C313FCEF13FD92
:1045D000EC22F09000101207F1FDACF0EC229000FC
:1045E00006B1D690F97EF0AF05EF90F97FB1D29089
:1045F000F97CF0AF05EF90F97DB13990F980D13DAC
:10460000EF90F981F090F97AE054F0FFF0FDD12BB2
:10461000CEC313CE13D8F9EE4D90F97AF0D12BCE4C
:10462000C313CE13D8F990F97BF02290000612073D
:10463000F1AEF07802221207F1FFAEF0222FFDE575
:10464000F03EF0AF0522F141F1101268AE7F011289
:1046500069375152D188126947126E5E126B671228
:104660006E7A126F0090E10CE054EFF054DFF0909E
:10467000E10DE054BFF054DFF090E10EE0547FF024
:1046800090C90AE04402F022F1D890A3237401F00B
:10469000E490A324F090A32504F090A326F090E2E8
:1046A0003D7420F04408F0229002617450F0A3742D
:1046B000A0F07B017A0379DEB149900261E0FFA3AB
:1046C000E0FD12779D1277AFF18790C7D7E054BF16
:1046D000F07F30F1C390A345E054E0F090A33CE0BC
:1046E0005480F0FD90A33EE05480FFF090A341E0A1
:1046F0005480F090A342E05480F0FCE490A346F094
:10470000EF90A33EF0ED90A33CF0EC90A342F0229A
:1047100090A108740BF090A10974FFF090A10A74A5
:10472000F0F090A10B748FF090A10C747CF090A12C
:104730000D74A8F090A10EF1A3F054F3F04404F02E
:104740002290F4097417F090F100E04440F090F4E6
:1047500008E04402F054FBF054F7F090F430E044E9
:1047600001F090A356E04420F090A357742CF090F1
:10477000A35874BAF07F011268017F01124FF990BB
:10478000F1A8E054FEF02290C7D67430F0227BFFEF
:10479000E4FF022A2AEFF07F03022A2A900262E055
:1047A00004F022E054FCF0440322C3940474809487
:1047B00080227BFFE090029AF022900261E0FF14D9
:1047C000F0EF2290C7D7E054CFF04FF022E0440141
:1047D000F07F027E0002279590A320E054EFF05472
:1047E000FCF0229003877401F022E490039DF07B9B
:1047F000FF7A22794312480390029A120A25E4FFB5
:10480000022A2A9003A8020A0DE490026CF07D1897
:104810007F031236BE7F03118D78011209C0900309
:10482000A4120A2590039BE024FE600B14600C2464
:1048300003700C7F06800A7F0A80067F0C80027F4F
:1048400008E4FCFDFE9003A4127B3278031209AD4C
:104850009003A8120A25900399E06401701C90024D
:104860006CE07016110378011209C0E47B03FAF9B9
:10487000F81208FC9003A8120A2522FFE0FEEF4E72
:1048800090A33EF07D127F031236BE7F0A7E001297
:104890002795E4FD7F0390026DEDF0EF1460461460
:1048A0006071147002214F24036002218B90C74075
:1048B000E04480F090C75831D1C004C005C006C0A4
:1048C0000790C75931C378081209C0D003D002D06D
:1048D00001D00012372090C75A31C331CA120A25BD
:1048E00090C740218590C74831D1C004C005C0069B
:1048F000C00790C74931C378081209C0D003D0025D
:10490000D001D00012372090C74A31C331CA120AF1
:1049100025807E90ED30E04402F090ED3C31D1C036
:1049200004C005C006C00790ED3D31C378081209E8
:10493000C0D003D002D001D00012372090ED3E311C
:10494000C331CA120A2590ED30E054FDF080429048
:10495000E690E04480F090E69831D1C004C005C0F4
:1049600006C00790E69931C378081209C0D003D079
:1049700002D001D00012372090E69A31C331CA121A
:104980000A2590E690E0547FF080067A167998F137
:10499000CC90026E120A0D90026DE0F9F81209C077
:1049A000A3120A2590026E020A0D7F02FEFDFC9002
:1049B0000039120A19120871A804A905AA06AB0742
:1049C000900031E0FFE4FCFDFE2212085690026EDA
:1049D00022E0540FFFE4FCFDFE78100209C0B1E7AD
:1049E000F1D39003B57004E0148004E014540F90E8
:1049F0000261F090A33EE0900261117BD1CFB1FC47
:104A0000F0F1E57004EF25E0FF516170028006EDE2
:104A100064024C700890A341E04402801CEFFD7CCE
:104A2000006404700890A341E04405800CED640824
:104A30004C700C90A341E0440BF090A342E0F011C5
:104A400084D1CFB1FCF090026212372C90A342E0E7
:104A500040054401F08001F07F647E00022795EE5E
:104A6000F0EFFD7C0064012290002EE07055516152
:104A70007E1070027EF090A227B1CD7E2070027E63
:104A80003090A228515F7E0070027EA290A22C91ED
:104A90001470027EB290A22D515F7E0070027E01E2
:104AA00090A22E911470027E0390A22F515F7E007F
:104AB00070027EFE90A237911470027E8090A23820
:104AC000EEF02251617E1070027EF490A2279114C4
:104AD00070027EA290A22C515F7E0070027EB29086
:104AE000A22D911470027E0190A22E515F7E007063
:104AF000027EC090A238911470027E0F90A23951AC
:104B00005F7E1090A228B1CD7F3090A228EFF09068
:104B1000A238E064C0700A90A2337402F090A2340C
:104B2000F090A2797403F090A27A7430F090A27B96
:104B3000F090A2307402F090A279740FF0229000ED
:104B40002EE0705551617E1070027EF090A251B13E
:104B5000CD7E2070027E3090A252515F7E007002A6
:104B60007EA290A256911470027EB290A257515F1D
:104B70007E0070027E0190A258911470027E039014
:104B8000A259515F7E0070027EFE90A26191147066
:104B9000027E8090A262EEF02251617E1070027E51
:104BA000F490A251911470027EA290A256515F7EA1
:104BB0000070027EB290A257911470027E0190A202
:104BC00058515F7E0070027EC090A2629114700204
:104BD0007E0F90A263515F7E1090A252B1CD7F30C4
:104BE00090A252EFF090A262E064C0700A90A25DC1
:104BF0007402F090A25EF090A28F7403F090A291E4
:104C00007430F090A292F090A25A7402F090A28FA9
:104C1000740FF022EEF0ED64014C7E002290002E25
:104C2000E0705551617E1070027EF090A212B1CDFD
:104C30007E2070027E3090A213515F7E0070027E53
:104C4000A290A217911470027EB290A218515F7EBA
:104C50000070027E0190A219911470027E0390A24E
:104C60001A515F7E0070027EFE90A22291147002A3
:104C70007E8090A223EEF02251617E1070027EF4BD
:104C800090A212911470027EA290A217515F7E0032
:104C900070027EB290A218911470027E0190A21947
:104CA000515F7E0070027EC090A223911470027E3C
:104CB0000F90A224515F7E1090A213B1CD7F30904F
:104CC000A213EFF090A223E064C0700A90A21E74B9
:104CD00002F090A21FF090A26E7420F090A26F7468
:104CE000F0F090A2707430F090A21B7402F090A2C9
:104CF0006E7443F02290002EE0705551617E10706A
:104D0000027EF090A23CB1CD7E2070027E3090A257
:104D10003D515F7E0070027EA290A241911470020C
:104D20007EB290A242515F7E0070027E0190A2434B
:104D3000911470027E0390A244515F7E0070027E47
:104D4000FE90A24C911470027E8090A24DEEF02253
:104D500051617E1070027EF490A23C911470027E2C
:104D6000A290A241515F7E0070027EB290A2429159
:104D70001470027E0190A243515F7E0070027EC0DB
:104D800090A24D911470027E0F90A24E515F7E1042
:104D900090A23DB1CD7F3090A23DEFF090A24DE0CA
:104DA00064C0700A90A2487402F090A249F090A2E8
:104DB00084740CF090A28574D0F090A2867410F0E8
:104DC00090A2457402F090A284743CF022EEF0EDC3
:104DD00064014C22AA05911DAF025168AF0391F501
:104DE000900264E0FF613E90E140E04401F090A356
:104DF0003EE054F0F090A341E054F0F090A342E084
:104E000054F02290002EE0701C31AA120871C006E6
:104E1000C007900033F1DE8FF0A4AEF0123635D02B
:104E200007D0068036E431AA120871E47B07FAF94C
:104E3000F8120871C004C005C006C007900032E037
:104E400075F010A4FFAEF0A3E01237EEAB07AA0690
:104E5000E4F9F8D007D006D005D0041208FCD1C977
:104E6000900034E0600DA3120A0DEF2438FFEE34F9
:104E7000C18002D1D5D1C190002AE0600FD1D5D137
:104E8000C17BFF7A13791C7F0112306E7F807E1AFE
:104E90007D067C00900035123701500A90003512D3
:104EA0000A3100061A807FE07E327D297C00900066
:104EB00035123734400A900035120A31002932E0A9
:104EC00022FEED3401FDE43CFC900035020A259001
:104ED0000262020A25900035120A0DEF2480FFEECF
:104EE000343822AB07900262120A3100000000EB56
:104EF000700890F362E054F0F02290F3E2E030E4C6
:104F00001C90F3F831D112372390F3F9E07F00FEC3
:104F100012371D90F3FA31C3120856D1CFE4FFFEC9
:104F2000FDFC1236FE7002E1CB1236F64002E1CBF8
:104F3000E47F3E7E49FDFC1236FE5008900261740B
:104F400006F0806AE47F7C7E92FDFC1236FE5008FB
:104F50009002617405F080567FF87E247D01123640
:104F6000FC50089002617404F080437FF07E497D1C
:104F7000021236FC50089002617403F080307FE02A
:104F80007E937D041236FC50089002617402F0801A
:104F90001D7FC07E277D091236FC50089002617487
:104FA00001F0800A1236F65005E4900261F090F3A9
:104FB000F8E0C45407FF900261E0FE6F600DEE441C
:104FC00008FFF090F362E054F04FF0227BFFE4FF23
:104FD000022A2AF09003B3E0640322E0FEA3E0FF7C
:104FE000900032E0229003B2E0FFA3E06401227F50
:104FF00001F1F9E490F434F022EF640190A35870C9
:1050000005E044B0F022E0540FF022E4780DF69071
:10501000F436E0541F7810F690F426E018F690F479
:1050200032E0540F7832F6E008F6E008F6E0047853
:105030000DF67810E61247AA4025780DE6F15A40A1
:1050400002216AE408F6780EE6FFC3189650149021
:10505000F432E0FE74352FF8A606780E0680E7E4F9
:10506000780DF6E4FF124FF9780FE670022139242B
:10507000F07002210524D0602D24F0606324C0600C
:105080001724106002215E780DE6FF316B7832E65E
:10509000640F6002215A8069780DE6FF5150780D47
:1050A000E6FF71AC21627834E6FD7C006450701933
:1050B000780DE6640170277810E66405702012868A
:1050C0001AE6601A1286A38012ED64304C700F78D5
:1050D0000DE6640170087835E660037825F6807A7D
:1050E0001286AC700F7810E664047008780DE6FF45
:1050F00071D3806EEB64524A70377810E6640470A6
:10510000307F10805B1286AC700F7810E6640470FC
:1051100008780DE6FF71D38010EB64504A70127866
:1051200010E66403700BFF71A6E47856F608F6806B
:1051300031780DE6FFF1D480297834E66450701A96
:10514000780DE6640170137810E66405700C128621
:105150001AE660061286A37825F6E4FF8002E4FFD3
:1051600071A6124FEFE4FF126B0122F1ECFF640F06
:105170007002414490F103EF1285EE1286659F5054
:1051800026EE601390F105E0F4700690F104E0045F
:10519000F090F105E004F07812E62435F8E690F19D
:1051A00053F078120680D47832E6706408E6640121
:1051B000705E719F120A9751D30051DE0151E902CE
:1051C00051F30351FE04520205520606520A07002B
:1051D0000052447811E6FF1258B6514560667811C6
:1051E000E6FF1259EA5145605B7811E6FFD189511B
:1051F0004560517811E6FF1259F551456046514519
:1052000060425145603E5145603A7811E6FFE1E663
:105210007832E6700808E664027002800E7832E6A2
:10522000FF7E00700A08E6642070047811F622EF11
:105230004E70117833E66406700A08E6700608E6D8
:10524000FF1260122290037CE0FF781106E66F22C5
:10525000F1EC640F700FE0FF7E007D007B007A00B0
:105260007945020AEA7832E690F1031285EE128659
:10527000659F5028EE601390F105E0F4700690F100
:1052800004E004F090F105E004F090F154E0FF78C0
:1052900012E62445F8A60778120680D27832E67026
:1052A0006708E664027061719F120A9752C5005246
:1052B000D20152D80252E40352F00452FD055303C6
:1052C00006000053927811E6FF12589A5145700279
:1052D00061925145700261927811E6FF9106514545
:1052E000700261927811E6FF9181514570026192DE
:1052F0007811E6FF12582A514570026192514570AB
:105300000261921258A141457832E660026192082A
:10531000E66420707D719F120A97534B00534E0133
:10532000535102535B03535E0453610553640653A8
:105330006707536A08536D0953700A53730B53760A
:105340000C537F0D53880E0000539278110678118C
:10535000067193503D12589A78110678110678110B
:10536000067811067811067811067811067811066C
:10537000781106781106719350189106781106710C
:1053800093500F91817811067193500612582A7824
:1053900011062290037CE0FE7811E6FFD39E22786E
:1053A00011F67834E62290F433EFF022AE07900441
:1053B00009E06006E4F07F2080ECF1CB7811E6FF95
:1053C000C39E500E74452FF8E690F433F078110622
:1053D00080EA22F1C97811E6FFC39E501DEF78578D
:1053E00026FDE41836FC74472DF58274003CF583E5
:1053F000E090F433F078110680DBAF067857EF26A3
:10540000F618E436F62291F87829E624FE60262480
:10541000FE603E240370699185700B782CE6540180
:10542000640170028040918E4056782CE6540F64DF
:1054300007704D80479185700B782CE654116411EC
:1054400070028022918E4038782CE664777031802B
:105450002B91857016782CE654116411700D08E6B6
:105460005411641170057822760122918E401178D2
:105470002CE66477700A08E6647770047823760176
:105480002291988083782AE6FF7E00640122C3EF90
:105490009402EE648094802290037DEFF0918570F9
:1054A00009E02445F8E6782DF622918E40437829CC
:1054B000E664047036782D761190F1F7E07006906E
:1054C000F1F8E06009782DE64407D1EA8006D17151
:1054D000E6782DF690F1F9E0700690F1FAE06006BA
:1054E000782DD1E7800BD171E68001E4782DF6802C
:1054F00000782DD16FA6072290037DEFF091857083
:1055000009E02445F8E6782CF622918E5002A1920B
:10551000782C760190F1F3E0700690F1F4E06041B0
:10552000782CE64407D1EA90F1F1E05401702B9019
:105530000408E0700F7826E6700A7F01F14E7D01C5
:105540007F03B1B3900408E0C39406748094805044
:105550001BE004F0A37401F08012E4900408F080D2
:105560000BE4900408F0D171E6782CF67829F1C0AC
:105570004020782CE64410F690F1F5E0700690F1AA
:10558000F6E06006782CD1E78008D171E6782CF639
:105590008000782CD16FA60722B1B37D020FB1B382
:1055A0007D0F0FB1B37D040FB1B3E4FD0FB1B30FA5
:1055B000B1B30F90F105EFF090F153EDF0227901C6
:1055C000900264E07F0060027F01AE07900265E018
:1055D0007F8060027FC0AC07900266E07F006002BF
:1055E0007F80AB07E4FFF14E7D12B1B390026AE019
:1055F000641E70057D140F800790026AE0FD7F0134
:10560000B1B390026BE04CFD7F02B1B3EB4E0FD112
:1056100079AD010FB1997D810FB1B3E4FD7F21B167
:10562000AD7F60B1AD7D087F80B1B3E4FD7F90B107
:10563000B37F01F14E7F0AB1B37F22F14E7D14E4B6
:10564000FFB1B390026AE0FD0FB1B390026BE04C82
:10565000FD0FB1B3AF06EB4F7F03D179AF01AD07BB
:105660007F07B1997D810FB1B37D087F10A1B3E6AB
:10567000FF90037DE02445F822FDB1B37D010FB119
:10568000B31D0FB1B30D0FA1B374352FF8E6540F4E
:10569000782AF664017044792BE766601D12601C5D
:1056A000E4FD7F03B1B3E4FD7F04B1B3E4FD7F0506
:1056B000B1B3E4FD7F06B1B3D1EB7F011269087885
:1056C000267601E47822F608F608F67F01126E408D
:1056D000E4FF1266EE782AE608F622782AE6FFF161
:1056E000C1400308A60722E64470F67828E6FF903A
:1056F000037EEFF090A14474C0F090E10DE054FE01
:10570000F04401F0FD90E10CE054F0F0ED54E19034
:10571000E10DF090C903E0540F127FE690037E1272
:10572000869A7F2740027F3790A138EFF090A144FE
:105730007480F090E10CE0440FF090E10DE0441E25
:10574000F090C903E044F0F0E490A144F022E4902A
:10575000F103F090F104EFF022E0D3941074809400
:10576000802290F1CCE06480700790F1CDF1594037
:10577000037F0022EFFD7C00F1C1401290F1CEE0EA
:105780006480700790F1CFF15940037F0022C3ED90
:105790009404EC64809480402490F1D0E0648070A4
:1057A0000790F1D1F15940037F002290F1D2E064DB
:1057B00080700790F1D3F15940037F00227F0122CE
:1057C000E6C394027480948022AE07E4FF71A6E4DD
:1057D0007811F622F1C97811E6C39E5008E490F4DE
:1057E00033F00680F12290037DEFF02290037CEFEE
:1057F000F07832E622E4FF7829E624FE601524FEE4
:10580000601E2403702390F1C9E0541164117019D3
:105810007F012290F1C9E054336433700C7F012280
:1058200090F1C9E0F470027F0122AE07782AE6FD0C
:105830007C0064017005900407F022C3ED9402EC33
:105840006480948040377823E6640160081257F53D
:10585000EF6401701F900407E004F078237601E004
:105860006401700974452EF8740146F62274452EC1
:10587000F876012274452EF874FE56F622782AE650
:105880007017081257C040117823E664017F8070BA
:10589000027F0174452EF8A6072274452FF8760181
:1058A00022782AE66401700D7826E670087822E6F0
:1058B00070031256EB2274352FF8E67828F6FF3184
:1058C0001E7828E6FF315C7828E6FF31BA7828E6B2
:1058D000FF11DE7828E6FF31C7E4782BF622EF24AB
:1058E000F6601424F6601824F6601C241870253124
:1058F000157A247925801631157A24792B800E317A
:10590000157A247931800631157A2479377E007F23
:105910000612069E2278027CA17D017BFF22EF24E5
:10592000F6600E24F6600A24F660112418701380C5
:105930000090A1267413F090A127F02231527480B8
:10594000800431527413F090A127F090A1287403C1
:10595000F02290A1257403F090A12622EF24F66096
:105960000C24F6601B24F660292418703690A131AF
:105970007408F090A1337460F090A13A7402801C16
:1059800031A47406F090A13A7412F090A13B74A770
:10599000F02231A47404F090A13A7448F090A13B35
:1059A0007487F02290A1317408F090A1337464F0F0
:1059B00090A1387437F090A1392290A11B7490F017
:1059C00090C8197405F022E490C811F0EF24F66035
:1059D0000C24F6600E24F6600A2418700CE490C8BB
:1059E00012F02290C8127402F02274352FF8E65497
:1059F0001F7929F72290037DEFF0E02435F8E6C304
:105A0000511E4009E4FF126908E47826F690037DF0
:105A1000E02435F8511C40031256EB22E6D39401E2
:105A2000748094802290F2F5E054F0641070217F2D
:105A300001515F90F215E054FDF090F2F5E054074B
:105A4000511D90F215E040044401F02254FEF02272
:105A5000E4FF515F90F215E054FEF04402F022EFB3
:105A6000640190C62F7005E04404F022E054FBF07E
:105A700022AB057C00120750D3EB511E40177C006F
:105A80007D021207A5ED4C600C90F9887421F0900E
:105A9000F9717413F0227F01B1631274A290003285
:105AA000E0FF1274EB900032E0FF127519900033A2
:105AB000E0FF1275237BFF7A1379B4900032E090F7
:105AC0000281F0900033E0900282715BF1D8900087
:105AD0002AE0FF12753990003DE0FF12756A90A32D
