:100000000210100237350228A12222027870022F36
:100010005E22220279C3E4FFFE1206C4600C0FEFD9
:1000200070010E09E970F20A80EF220279C8EE3001
:10003000E707C3E49FFFE49EFE2212235E90026165
:10004000020A620279C402038EE86480F8E933E8A8
:100050003360110460F0ED33EC337009E8FCE9FD26
:10006000EAFEEBFF220460DED3EB9FEA9EE99DE807
:10007000C2E78CF0C2F795F0400CE8CCF8E9CDF976
:10008000EACEFAEBCFFB12035985D0F05804700387
:1000900020D5B3E80470075002B2D502039892D578
:1000A000EC0460F7E4CCC0E0C398F8603B941860BF
:1000B00008400DD0E0FB020370E4FBFAC9FC802885
:1000C000E830E406E4C9FBE4CAFCE830E305E4C92F
:1000D000CACBFCE854076010F8C3E913F9EA13FA35
:1000E000EB13FBEC13FCD8F130F52FC3E49CFCEFD1
:1000F0009BFFEE9AFEED99FDD0E0FBEF4E4D4C706C
:100100001222DB03020395EC2CFCEF33FFEE33FEEF
:10011000ED33FDED30E7EB020370EF2BFFEE3AFE1F
:10012000ED39FDD0E0FB50130BBB0003020398ED4B
:1001300013FDEE13FEEF13FFEC13FC020370EC4D06
:100140006011E8497017ED33EC3304600DE4FCFFF7
:10015000FEFD22E933E8330470F802038E120359DE
:1001600058046009E4CC2481500628500902039801
:10017000284003020395C0E0EB4A7044B98006D0E2
:10018000E0FB020384EF4E701CBD8008EBFFEAFE2B
:10019000E9FD80EBE98DF0A4FEE5F0020227E9CD50
:1001A000F9EAFEEBFFEF89F0A4FCE5F0CE89F0A4BC
:1001B0002EFFE435F0CD89F0A42DFEE435F0806704
:1001C000EF4E7005BD80D780C3EF8BF0A4ACF0EE8E
:1001D0008BF0A42CFCE435F0F8EF8AF0A42CE5F0C9
:1001E00038FCE433CB8DF0A42CFCE5F03BF8EE8A30
:1001F000F0A42CFCE5F038F8E433CF89F0A42CFC13
:10020000E5F038CF3400CE89F0A42FFFE5F03EFEB4
:10021000E433C98DF0A42EFEE5F039CD8AF0A42F89
:10022000FFE5F03EFEE43DFD33D0E0FB50070BBBA5
:10023000000F020398EC2CFCEF33FFEE33FEED339E
:10024000FD020370020398EC5D046005E859047038
:100250000302038E120359580460F6EC4860F2EC76
:100260007004FDFEFF22C860DB2481C85009C398DA
:10027000600250060203959850CAF582E9294B4A5C
:100280007005AB8202038475F0007C1A7880C3EF9E
:100290009BEE9AED99400DC3EF9BFFEE9AFEED9910
:1002A000FDE842F0DC23ACF0D0E0FFD0E0FED0E08F
:1002B000FDAB8220E7101BEB60BAEC2CFCEF33FFA8
:1002C000EE33FEED33FD020370E803F830E705C0BE
:1002D000F075F000EF2FFFEE33FEED33FD40B83048
:1002E000E7C280AA75F020800E75F010800575F0C9
:1002F000087D007E007F003392D530D50312098E31
:10030000EC334010EF33FFEE33FEED33FDEC33FC06
:10031000D5F0ED22E5F0247EA2D513CC92E7CDCE28
:10032000FF22EDD2E7CD33EC3392D524814006E4B1
:10033000FFFEFDFC22FCE4CFCECDCC24E0501174B6
:10034000FF80EDC3CC13CCCD13CDCE13CECF13CFC6
:100350000470F030D5DE02098EE9D2E7C933E83304
:10036000F892D5EDD2E7CD33EC33FC5002B2D52272
:10037000EC30E7100FBF000C0EBE00080DBD0004EE
:100380000BEB6014A2D5EB13FCED92E7FD2274FF9A
:10039000FCFDFEFF22E480F8A2D574FF13FC7D80F3
:1003A000E480EF74F8CC6480CCC86480C8F5820423
:1003B000604FC3EB9FF5F0EA9E42F0E99D42F0E802
:1003C0009C45F0603C501DE5825FFFE582D313CB76
:1003D0005BCBF42B5582FB50280ABA002409B900E4
:1003E0002008801DE5825BFBE582D313CF5FCFF44D
:1003F000C3132F5582FF50090EBE00050DBD00012D
:100400000CC3EB9FF5F0EA9E42F0E99D42F0E89CB8
:1004100045F06007CC4820E701B3EC22F920E7362D
:1004200024F950037907E4F42402FBE58215827075
:10043000021583DBF6E024FB501BE96014E4F0E5D1
:1004400082158270021583E004F0B40A08E4F0D942
:10045000EE7401F00A22C2D522ED33EC3392D5FAC4
:10046000602AB4FF33EDC2E77BFF60067A04797E31
:10047000E4227A04798720D5047A047982224E61B5
:100480004E002B494E46002D494E4600E47A08F0B6
:10049000A3DAFC7B00740722C083C082ECC0E0EDCD
:1004A000C0E0EEC0E0EFC0E0EA75F010A4CAABF027
:1004B00075F04DA42BFBE435F0FCEA2410FAEB3484
:1004C000C5FBEC34D9FCEDC2E7FF75F056A4F4246B
:1004D00011C5F0F434C58FF0A42AE5F03BE43CF0FC
:1004E00020E71412058ED0E0FFD0E0FED0E0FDD072
:1004F000E0FC1202478014F40412058ED0E0FFD015
:10050000E0FED0E0FDD0E0FC12013ED082D083E0DE
:10051000FAEDD2E7CD33EC332482FBE4C3CF33CF03
:10052000CE33CECD33CD33DBF37B0775F00A846059
:1005300004F0A31B0AE5F0F0A38FF0740AA4FFAC4B
:10054000F08EF0740AA42CFEACF050010C8DF07407
:100550000AA42CFDE435F0F0A3DBDE7407223F8013
:1005600000004120000042C80000447A0000461C00
:10057000400047C35000497424004B1896804CBE7D
:10058000BC205A0E1BCA6753C21C749DC5AEFB60CB
:10059000065407601C23231205BCEB543860091273
:1005A00005A81205B712013EECF8EDF9EEFAEFCB13
:1005B00022EB1205B780F1543803241C90055EFE2F
:1005C00093FC0EEE93FD0EEE930ECE93FF22E70901
:1005D000F608DFFA8046E709F208DFFA803E8882F3
:1005E0008C83E709F0A3DFFA8032E309F608DFFA2B
:1005F0008078E309F208DFFA807088828C83E3094F
:10060000F0A3DFFA806489828A83E0A3F608DFFA28
:10061000805889828A83E0A3F208DFFA804C80D276
:1006200080FA80C680D4806980F28033801080A6F2
:1006300080EA809A80A880DA80E280CA803389824A
:100640008A83ECFAE493A3C8C582C8CCC583CCF0F6
:10065000A3C8C582C8CCC583CCDFE9DEE7800D899D
:10066000828A83E493A3F608DFF9ECFAA9F0EDFBA4
:100670002289828A83ECFAE0A3C8C582C8CCC583EC
:10068000CCF0A3C8C582C8CCC583CCDFEADEE88045
:10069000DB89828A83E493A3F208DFF980CC88F0B7
:1006A000EF60010E4E60C388F0ED2402B4040050E8
:1006B000B9F582EB2402B4040050AF232345822312
:1006C00090061E73BB010689828A83E0225002E7EE
:1006D00022BBFE02E32289828A83E49322BB010CBF
:1006E000E58229F582E5833AF583E0225006E92583
:1006F00082F8E622BBFE06E92582F8E222E582299D
:10070000F582E5833AF583E49322BB010689828A68
:1007100083F0225002F722BBFE01F322F8BB010D49
:10072000E58229F582E5833AF583E8F0225006E96F
:100730002582C8F622BBFE05E92582C8F222EF8D8C
:10074000F0A4A8F0CF8CF0A428CE8DF0A42EFE2229
:10075000BC000BBE0029EF8DF084FFADF022E4CC8D
:10076000F875F008EF2FFFEE33FEEC33FCEE9DEC56
:10077000984005FCEE9DFE0FD5F0E9E4CEFD22ED9C
:10078000F8F5F0EE8420D21CFEADF075F008EF2FE6
:10079000FFED33FD4007985006D5F0F222C398FDD7
:1007A0000FD5F0EA22C2D5EC30E709B2D5E4C39DFB
:1007B000FDE49CFCEE30E715B2D5E4C39FFFE49E58
:1007C000FE120750C3E49DFDE49CFC800312075019
:1007D00030D507C3E49FFFE49EFE22C5F0F8A3E0F6
:1007E00028F0C5F0F8E582158270021583E038F034
:1007F00022BB0110E58229F582E5833AF583E0F515
:10080000F0A3E0225009E92582F886F008E622BB31
:10081000FE0AE92582F8E2F5F008E222E5832AF5EE
:1008200083E993F5F0A3E99322F8BB0111E582294E
:10083000F582E5833AF583E8F0E5F0A3F02250096C
:10084000E92582C8F608A6F022BBFE09E92582C880
:10085000F2E5F008F222EF2BFFEE3AFEED39FDEC67
:1008600038FC22C3EF9BFFEE9AFEED99FDEC98FC5D
:1008700022E88FF0A4CC8BF0A42CFCE98EF0A42C01
:10088000FC8AF0EDA42CFCEA8EF0A4CDA8F08BF04D
:10089000A42DCC3825F0FDE98FF0A42CCD35F0FC4B
:1008A000EB8EF0A4FEA9F0EB8FF0A4CFC5F02ECD17
:1008B00039FEE43CFCEAA42DCE35F0FDE43CFC22FC
:1008C00075F008758200EF2FFFEE33FECD33CDCCEF
:1008D00033CCC58233C5829BED9AEC99E582984072
:1008E0000CF582EE9BFEED9AFDEC99FC0FD5F0D64F
:1008F000E4CEFBE4CDFAE4CCF9A88222B800C1B979
:100900000059BA002DEC8BF084CFCECDFCE5F0CBB6
:10091000F97818EF2FFFEE33FEED33FDEC33FCEBEF
:1009200033FB10D703994004EB99FB0FD8E5E4F9AA
:10093000FA227818EF2FFFEE33FEED33FDEC33FC97
:10094000C933C910D7059BE99A4007EC9BFCE99A8B
:10095000F90FD8E0E4C9FAE4CCFB2275F010EF2FD0
:10096000FFEE33FEED33FDCC33CCC833C810D707D0
:100970009BEC9AE899400AED9BFDEC9AFCE899F80B
:100980000FD5F0DAE4CDFBE4CCFAE4C8F922C3E4F5
:100990009FFFE49EFEE49DFDE49CFC22EB9FF5F0AE
:1009A000EA9E42F0E99D42F0E89C45F022E8600FA3
:1009B000ECC313FCED13FDEE13FEEF13FFD8F12291
:1009C000E8600FEFC333FFEE33FEED33FDEC33FC95
:1009D000D8F122BB010789828A83020A0D5005E9FA
:1009E000F8020B16BBFE05E9F8020B2289828A8306
:1009F000020B2EBB010789828A83020A255005E972
:100A0000F8020B3EBBFE05E9F8020B4A22E0FCA30C
:100A1000E0FDA3E0FEA3E0FF22E0F8A3E0F9A3E0FD
:100A2000FAA3E0FB22ECF0A3EDF0A3EEF0A3EFF0CD
:100A300022A8828583F0D083D082120A48120A4805
:100A4000120A48120A48E473E493A3C583C5F0C5AB
:100A500083C8C582C8F0A3C583C5F0C583C8C58255
:100A6000C822E0FBA3E0FAA3E0F922F8E0FBA3A38D
:100A7000E0F925F0F0E582158270021583E0FA387E
:100A8000F022EBF0A3EAF0A3E9F022E493FB740177
:100A900093FA740293F922D083D082F8E49370120F
:100AA000740193700DA3A393F8740193F582888366
:100AB000E4737402936860EFA3A3A380DFEC8EF06D
:100AC000A4CCC5F0CCCDF8EFA4CEC5F02DFDE43C10
:100AD000FCE8A42EC8C5F03DFDE43CFCEFA4FFE516
:100AE000F028FEE43DFDE43CFC22EF4E6012EF6096
:100AF000010EEDBB010B89828A83F0A3DFFCDEFAD5
:100B00002289F05007F709DFFCA9F022BBFEFCF3B5
:100B100009DFFCA9F022E6FC08E6FD08E6FE08E68F
:100B2000FF22E2FC08E2FD08E2FE08E2FF22E49375
:100B3000FC740193FD740293FE740393FF22ECF6A0
:100B400008EDF608EEF608EFF622ECF208EDF208F2
:100B5000EEF208EFF222E508244FF582E43403F5C3
:100B600083E005082290034C30070390034FE4759F
:100B7000F001120A6B0206C42000E97F2ED2008029
:100B800018EF540F2490D43440D4FF30040BEF24DA
:100B9000BFB41A0050032461FFE50960021509057E
:100BA0000CE50C7002050B30070E90034CE475F059
:100BB00001120A6BEF02070A020FD97403D20780F1
:100BC00003E4C207F50890034C120A82E4F509F524
:100BD0000BF50CE50960077F20120B9980F5750A6B
:100BE000FFC201C200C202C203C205C206C208128D
:100BF0000B65FF700D3007057F00120BAAAF0CAE1E
:100C00000B22B4255FC2D5C204120B65FF24D0B4F9
:100C10000A00501A75F00A780930D50508B6FF01A8
:100C200006C6A426F620D5047002D20380D924CFAC
:100C3000B41A00EF5004C2E5D204020E9CD2018027
:100C4000C6D20080C0D20280BCD2D580BAD2058084
:100C5000B47F20120B992002077401B5090040F1FE
:100C6000120B56FF120B99020BD3D208D2068095B5
:100C7000120B56FB120B56FA120B56F94A4B700622
:100C8000799A7A0F7BFF20022EE509602A7E008E7A
:100C9000827583001206DD60060EEE650A70F0C2F2
:100CA000D5EBC0E0EAC0E0E9C0E0EE120EFDD0E016
:100CB000F9D0E0FAD0E0FB1206C4FF60AAEBC0E076
:100CC000EAC0E0E9C0E0120B99D0E02401F9D0E0DD
:100CD0003400FAD0E0FBE50A0460DCD50AD980874D
:100CE000D20280A2120EDF60F7E50A70010412043E
:100CF0001CA90A600DE50A600914F50A120F87EFB6
:100D000060F3EA30E702F404C3995079EAF4250A63
:100D10000430E701E404F50A800D120EDF60C1EA39
:100D2000050A250A12041CEA90037BF030E701E46F
:100D3000250A04D50A0420050114120EFDE4C0E0C2
:100D4000120F8790037BE0601320E70714F0120B6B
:100D500081802204F0D0E014C0E07F00120B81E516
:100D60000A6007120B78150A800B300503120B7806
:100D7000D0E0020BD3D0E00480C4120EDF609EE509
:100D80000A0412041C90037BEAF0E50A20050260C5
:100D900001042404120EFD74FF04C0E0120F871238
:100DA0000B81E50A2005026003120B78D0E0B50A3A
:100DB000E87F45120B8B90037BE07F2B30E7047FAD
:100DC0002DF404C0E0120B99D0E075F00A84C0F055
:100DD000120B82D0E0120B82020BD37910800279C1
:100DE00008C206C2088008D2D5790A8004790AC2EE
:100DF000D5E50A047002F50AE4FAFDFEFF120B566F
:100E0000FC7B08200113120B56FD7B1030000A12E8
:100E10000B56FE120B56FF7B20EC3382D592D55039
:100E200013C3E43000069FFFE49EFEE42001039D0F
:100E3000FDE49CFCE4CBF8C201EC700CCFCECDCC31
:100E4000E824F8F870F38017C3EF33FFEE33FEEDBC
:100E500033FDEC33FCEB33FB994002FB0FD8E9EB9D
:100E6000300105F8D0E0C448B201C0E00AEC4D4EB4
:100E70004F78207B0070C2EAB50A0040BCC0E01287
:100E80000EFFD0F0D0E0200104C4C0E0C4B201C025
:100E9000F0120B82D0F0D5F0EB020BD3120A970CB4
:100EA00070530DDB580C414C0C3D420DDF4F0DE7EC
:100EB000440DE7490C56430DED550D1A460D7A4584
:100EC0000CE4470FBA500C452D0C492E0C6C2B0C22
:100ED0004D230C6A200FA32A0C054800000C64E582
:100EE0000AB4FF03750A06120B56FC120B56FD12CC
:100EF0000B56FE120B56FF900374020459790AA296
:100F0000D5200314300509B910020404B9080104FE
:100F1000A2D52006025001042002689202B5090001
:100F20005034C0E07F203003197F30A20272067275
:100F300005500F120F56C202C206C205C2087F300A
:100F4000800F300503E9C0E0120B99300503D0E0B3
:100F5000F9D0E0B509CC3005177F30B9100C120B71
:100F6000997F583004077F788003B90803120B99E2
:100F70003002057F2D020B997F202008F87F2B205F
:100F800006F322920280CF7F00B40700500B247436
:100F9000F582E43403F583E0FF22286E756C6C293A
:100FA00000D201120B563001F8C201780930D50188
:100FB00008F6020C052D50434958120B562403B471
:100FC00005004001E4900FB593120B8A743A120B9E
:100FD0008AD203750904020DDBEFB40A07740D12FF
:100FE0000FE4740A309811A899B8130CC29830987D
:100FF000FDA899C298B811F63099FDC299F59922C9
:1010000025090402FFFFFFFFFFFFFFFFFFFFFFFFB8
:10101000787FE4F6D8FD7581660210570222A9E4B4
:1010200093A3F8E493A34003F68001F208DFF48071
:1010300029E493A3F85407240CC8C333C4540F44C1
:1010400020C8834004F456800146F6DFE4800B019B
:101050000204081020408090109CE47E019360BC44
:10106000A3FF543F30E509541FFEE493A360010E33
:10107000CF54C025E060A840B8E493A3FAE493A35A
:10108000F8E493A3C8C582C8CAC583CAF0A3C8C57B
:1010900082C8CAC583CADFE9DEE780BE4103CF004C
:1010A0004403CB000000004103DC004103DB0041AE
:1010B00003DA004103D2004103DD0041037F004415
:1010C000038000000000602800000010000E0001F6
:1010D00012101E000218213E00031E410D000410D4
:1010E000012C000518240C000618231C00071820EA
:1010F0003D004103B0005A03B10007A12009B20826
:101100007000A2003C006408B108700039000400BF
:1011100004010100900346E0FFA3E0FEA3E0CF90AE
:10112000034FF0A3EEF0A3EFF0900349E0CBF0A360
:10113000E0CAF0A3E0C9F07F22900352AD82AC83F5
:101140001206C48D828C83F0A309E970010ADFECDA
:10115000900349E0FBA3E0FAA3E0F9020BBBC2D580
:10116000E830E70FB2D5E4C39BFBE49AFAE499F9BF
:10117000E498F8EC30E717B2D51211941208FCE4A9
:10118000C39BFBE49AFAE499F9E498F88003120807
:10119000FC30D50DE4C39FFFE49EFEE49DFDE49C7E
:1011A000FC2254785374617465203D2030782530DA
:1011B00032627800525820536574204576656E740B
:1011C0003A253032627820004D697069496E436C6F
:1011D0006B3A256C642C2063616C6320756C4279DA
:1011E0007465636C6B3A256C642C20756C5068795F
:1011F000436C6B3A256C642C2075634270703A2501
:1012000062642C2075635478506F72744E756D3A19
:10121000307825303262782C20756354784C616EBA
:10122000654E756D3A3078253032627800427572BD
:101230007374204D6F6465206C616E6520726174FB
:101240006520696E6372656173652038304D0052A8
:10125000585B485D3A2048746F74616C3A25642C81
:10126000486163746976653A25642C4873773A253A
:10127000642C4866703A25642C4862703A25642CC8
:101280004873706F6C3A2562640052585B565D3A41
:101290002056746F74616C3A25642C5661637469CE
:1012A00076653A25642C5673773A25642C56667019
:1012B0003A25642C5662703A25642C5673706F6C14
:1012C0003A25626400506F72743A20253032627899
:1012D0002C204C616E653A202530326278007264B1
:1012E00062797465636C6B3A25642C207264706952
:1012F00078636C6B3A256420006873773A25642C18
:10130000206862703A256420686163746976653A82
:101310002564007563427070203078253032627821
:101320003B00726561642064656C61793A256C7577
:101330000041645F6C6D74785F77726974655F6398
:101340006C6B203D20256C756B687A0041645F6C86
:101350006D74785F726561645F636C6B203D2025FE
:101360006C756B687A0000FFFFFFFFFFFF0006B39C
:10137000A02801010101041F0103803E2278EE69CB
:1013800095AD5246A1270F5054BFCF0081408180B8
:101390009500714F81C0B300D1C0010108E8003051
:1013A000F2705A80B0588A0055502100001E00008B
:1013B00000FD0018901EFF8A000A20202020202017
:1013C000000000FC005647323855514C31410A208C
:1013D0002020000000FF00313233343536373839F1
:1013E0003032380A01F002035AF15004131F100F73
:1013F0001E015D5E5F60617603123F23090707836C
:10140000010000E200EA6D030C001000383C2800E7
:10141000600102036DD85DC401788853123078836F
:10142000341D6D1A000002013090F0000000000031
:10143000E305C000E421001C00E60605016060121F
:10144000366C80A070703E803020080C6D552100F5
:10145000001A6FC200A0A0A05550302035006D5575
:101460002100001A0027000000000000000000001A
:10147000000000000000000000000000000000006C
:10148000000000000000000000000000000000005C
:10149000000000000000000000000000000000004C
:1014A000000000000000000000000000000000003C
:1014B000000000000000000000000000000000002C
:1014C000000000000000000000000000000000001C
:1014D000000000000000000000000000000000000C
:1014E00000000000000000000000000000000000FC
:1014F00000000000000000000000000000000000EC
:1015000000000000000000000000000000000000DB
:1015100000000000000000000000000000000000CB
:1015200000000000000000000000000000000000BB
:1015300000000000000000000000000000000000AB
:10154000000000000000000000000000000000009B
:10155000000000000000000000000000000000008B
:101560000000000000000A5468697320666D207254
:1015700078706C6C5F696E5F636C6B000A546869AD
:101580007320666D20646874785F6469765F6C6947
:101590006E6B5F636C6B000A5741524E494E473A7F
:1015A0002046726571206D657465722067657420D0
:1015B0006661696C005761726E696E673A20696E88
:1015C00070757420697320696E76616C6964000AB5
:1015D0006C6F6164206B657920646F6E655B307839
:1015E00025303262785D000A5061747465726E2035
:1015F0007063722062616E64203D20307825303245
:101600006278000A5061747465726E207063722093
:101610006C6F636B004D495049566964496E666F43
:10162000557064617465212121212121004D4950AB
:1016300049566964496E666F436C65617221212168
:1016400021212100417564496E666F557064617493
:101650006521212121212100417564496E666F4376
:101660006C656172212121000A466C617368204516
:10167000444944204C6F6164000A466C61736820E1
:1016800045444944206E6F742065787369743A004C
:1016900054784576656E742D256264000000000064
:1016A000000000000000000000000000000000003A
:1016B000000000000000000000000000000000002A
:1016C000000000000000000000000000000000001A
:1016D000000000000000000000000000000000000A
:1016E00000000000000000000000000000000000FA
:1016F00000000000000000000000000000000000EA
:1017000000000000000000000000000000000000D9
:1017100000000000000000000000000000000000C9
:1017200000000000000000000000000000000000B9
:1017300000000000000000000000000000000000A9
:101740000000000000000000000000000000000099
:101750000000000000000000000000000000000089
:101760000000000000000000000000000000000079
:101770000000000000000000000000000000000069
:101780000000000000000000000000000000000059
:101790000000000000000000000000000000000049
:1017A0000000000000000000000000000000000039
:1017B0000000000000000000000000000000000029
:1017C0000000000000000000000000000000000019
:1017D0000000000000000000000000000000000009
:1017E00000000000000000000000000000000000F9
:1017F00000000000000000000000000000000000E9
:1018000000000000000000000000000000000000D8
:1018100000000000000000000000000000000000C8
:1018200000000000000000000000000000000000B8
:1018300000000000000000000000000000000000A8
:101840000000000000000000000000000000000098
:101850000000000000000000000000000000000088
:101860000000000000000000000000000000000078
:101870000000000000000000000000000000000068
:101880000000000000000000000000000000000058
:101890000000000000000000000000004D697069B9
:1018A00020445349204F7574004D6970692043539B
:1018B00049204F7574004D697069204F757420443C
:1018C000697361626C6500506F727420307E3320E2
:1018D00052702043616C6920526573756C743A20B4
:1018E00025303262782C2025303262782C20253049
:1018F0003262782C20253032627800506F7274206A
:10190000307E332052642043616C692052657375C8
:101910006C743A2025303262782C2025303262787F
:101920002C2025303262782C202530326278004419
:1019300050687920436C6B206275727374204D6F10
:101940006465004450687920436C6B20636F6E744B
:10195000696E7565204D6F64650044534920766952
:1019600064656F204E4F4E5F42555253545F4D4F4A
:1019700044455F574954485F53594E435F45564568
:101980004E540044534920766964656F204E4F4E93
:101990005F42555253545F4D4F44455F5749544839
:1019A0005F53594E435F50554C53450044534920B3
:1019B000766964656F2042555253545F4D4F4445DC
:1019C000004D49504954585F33445F4D4F44453AA8
:1019D000204D4950495F4C4546545F524947485451
:1019E0005F4D4F4445004D49504954585F33445F63
:1019F0004D4F44453A204D4950495F4E4F5F334467
:101A00005F4D4F44450076636F20446174615261BD
:101A100074653A20256C752C20256C7500506F7309
:101A20007420646976203D203200413230372052E4
:101A3000475F4C4D5458504C4C5F52414E47455FA8
:101A400053454C203A2030782530326278004132BC
:101A50003041204C4D5458504C4C5F4449565F53D4
:101A60004554203A2030782530326278004C4D546D
:101A700058504C4C2063616C69206661696C004C65
:101A80004D5458504C4C206C6F636B20666C6167F2
:101A90003A3078253032627820004C4D5458504C02
:101AA0004C20756E6C6F636B004C4D5458504C4C11
:101AB0002063616C6962726174696F6E2062616E2D
:101AC000646F75743A20307825303262782030782F
:101AD0002530326278004279746520636C6B3A2558
:101AE000754D687A00636B5F706F7374202830786F
:101AF0004639413929203D2030782530326278003E
:101B0000636B5F7A65726F202830784639413729D8
:101B1000203D20307825303262780068735F6C7029
:101B20007820202830784639413429203D203078EB
:101B300025303262780068735F70726570202830DB
:101B4000784639413529203D203078253032627879
:101B50000068735F747261696C2830784639413669
:101B600029203D20307825303262780068735F721A
:101B7000717374202830784639384129203D20304F
:101B80007825303262780000000000000000000A72
:101B9000547261696E696E6720657120696E666F47
:101BA0003A000A4C302076616C69645B30782530ED
:101BB00034785D2C45515B307825303262785D0099
:101BC0000A4C312076616C69645B3078253034785A
:101BD0005D2C45515B307825303262785D000A4CCF
:101BE000322076616C69645B3078253034785D2C06
:101BF00045515B307825303262785D000A4C3320E5
:101C000076616C69645B3078253034785D2C4551A1
:101C10005B307825303262785D000A45514869674B
:101C2000203D2030782530326278000A45514C6FD3
:101C300077203D2030782530326278000A534341C6
:101C40004E205354524154000A4645435354415484
:101C500045203D2030782530326278000A4C616E94
:101C600065457272203D203078253034782C3078EC
:101C7000253034782C3078253034782C3078253065
:101C80003478000A5363616E5F45514C4F57203DD5
:101C900020307825303262782C30782530326278E6
:101CA0002C307825303262782C30782530326278CA
:101CB000000A5363616E5F4551484947203D20301B
:101CC0007825303262782C307825303262782C30AA
:101CD0007825303262782C30782530326278000AEC
:101CE000414344525F4953535545000A56616C695C
:101CF000644571203D20307825303262782C307870
:101D000025303262782C307825303262782C307869
:101D10002530326278000A536B6577203D20307899
:101D200025303262782C307825303262782C307849
:101D300025303262782C307825303262780000000D
:101D40000102030405060708090A0B0C0D0E0F0F0C
:101D50000F0F0F0F0F0F0F0F0F0F0F0F0F0F0F00A2
:101D60000000000000000000000000000000000073
:101D70000102030405060708090A0B0C0D0E0F0FDC
:101D8000FFFFFFFFFFFFFFFFFFFFFFFF000000005F
:101D900001010101000000000A436F6C6F72696D60
:101DA00065747279206368616E6765203D203078C4
:101DB0002530326278000A44705278494E464F3AD4
:101DC000000A486270202020203A20252D38642007
:101DD00020566270202020203A20252D3864000AE9
:101DE000486670202020203A20252D386420205677
:101DF0006670202020203A20252D3864000A487380
:101E0000796E6320203A20252D386420205673797E
:101E10006E6320203A20252D3864000A48616374DF
:101E20002020203A20252D3864202056616374201C
:101E300020203A20252D3864000A48746F6C202039
:101E4000203A20252D3864202056746F6C202020E5
:101E50003A20252D3864000A446570746820203AC1
:101E600020252D3862642020537061636520203A5C
:101E700020252D386264000A506978436C6B203A43
:101E800020252D386C6420205065616B436C6B3AC3
:101E900020252D386C64000A52656672657368529D
:101EA000617465203D202564000A52785374617482
:101EB00065203D20256264000A4470527820556EEA
:101EC000706C7567000A527820506C7567000A576D
:101ED00061697420454343000A456363206572725B
:101EE000000A52782072652D747261696E696E679E
:101EF000000A534B657720556E6C6F636B000A4385
:101F00006F6C6F72207370616365206368616E67C8
:101F100065000A4D7361206368616E6765000A445D
:101F200053432043484E47000A476F746F20504385
:101F300052000A417564696F20636867000A414373
:101F4000445220556E6C6F636B000A524154455FDA
:101F50004C414E45203D20307825303262782C307F
:101F6000782530326278000A44652D736B657720DE
:101F7000657272000A57616974207063722073740D
:101F800061626C652E2E2E000A5043522048415249
:101F900044205245534554000A4750494F2054723B
:101FA0006967676572204C6F77000A4750494F2078
:101FB000547269676765722048696768000A4470EF
:101FC0002052782076696420696E666F3A000A4371
:101FD0006F6C6F7253706163655B2562645D000AAC
:101FE000436F6C6F7244657074685B2562645D005A
:101FF0000A52785F5065616B5F636C6B203D2020F7
:10200000256C64007563614272696768746E6573FC
:10201000735B315D3A307825303262782C207563FD
:10202000614272696768746E6573735B325D3A30E2
:1020300078253032627800445052585F53544154EE
:1020400049435F4844525F4E4F544946595F455695
:10205000454E540054585F564944454F5F4F4E5FBC
:102060004556454E545F3300445052585F564944DC
:10207000454F5F4F46465F4556454E5400000000B1
:10208000444542554700494E464F005741524E0085
:102090004552524F520043524954000A5B252D3598
:1020A000735D2025730003FF2080FF2086FF208BB7
:1020B000FF2090FF209600000000000000000000BC
:1020C0000000000000000000000000000000000010
:1020D0000000000000000000000000000000000000
:1020E00000000000000000000000000000000000F0
:1020F00000000000000000000000000000000000E0
:1021000000000000000000000000000000000000CF
:1021100000000000000000000000000000000000BF
:1021200000000000000000000000000000000000AF
:102130000000000000000A447052782048504420FB
:10214000495251000A44705278204850442048694E
:102150006768000A4470527820485044204C6F77DA
:10216000000A527820527465726D206973203078AD
:102170002530326278000A43616C692073756363AD
:10218000657373000A43616C69206661696C6564FC
:10219000000A4470207278706C6C2062616E64205A
:1021A0003D20307825303262782C3078253032620C
:1021B000782C307825303262782C307825303262B5
:1021C00078000A706372206873796E63206D6F64A3
:1021D00065002120212000F0222222222380565651
:1021E000AAAA40636868CCCCC0FE4D6970692044DF
:1021F000435320454E4400051100052900051000F9
:102200000528001536C629B00039B9132A026439E9
:10221000EC05D829D60029B00329350029364029F4
:1022200026012903010A43686970506F7765724F70
:102230006E000A46575F564552203D2030782530C3
:102240003262782C307825303262782C3078253024
:10225000326278000A496E636F727265637420504F
:10226000574D2044757479000A50574D20447574B9
:10227000793A256264000A4653203D2030782530A3
:1022800032627800901000E49390E080F0901001AA
:10229000E49390E081F0901002E49390E082F0905B
:1022A0001003E49390E083F022125AAE127814F1F6
:1022B00063518491B17A227925122FDD7A22793205
:1022C00090E081127B2790E082E090029BF090E00A
:1022D0008351DB126B861257E780F8E090029CF086
:1022E000E4FF022EB37A1B798F127B9A7BFF7A1B55
:1022F00079A290F1F3E0FE90F1F47155F153F09072
:10230000F19151DB7BFF7A1B79C090F1F5E0FE90F3
:10231000F1F67155F153F090F19351DB7BFF7A1B8D
:1023200079DE90F1F7E0FE90F1F87155F153F090FD
:10233000F19551DB7BFF7A1B79FC90F1F9E0FE907F
:10234000F1FA7155F153F090F197E090029CF0E4AE
:10235000FF022EB3FEE07C002400FFEC3E22AB0720
:10236000900272120A3100000000EB120A972396C5
:102370000023A00123AA0223B40323BE0423CD0516
:1023800023D90623E50723F10823FD09240B0A249A
:10239000170B0000242C90F7F6E0FE90F7F780264C
:1023A00090F7FAE0FE90F7FB801C90F7F2E0FE90C9
:1023B000F7F3801290F7EAE0FE90F7EB800890F7D1
:1023C000F0E0FE90F7F17155124FDA803990F7F492
:1023D000E0FE90F7F57155802D90F7F8E0FE90F74C
:1023E000F97155802190F7EEE0FE90F7EF7155807E
:1023F0001590F7E8E0FE90F7E97155800990F7EC49
:10240000E090F7ED7154FEE4FD801B90F7E7E05497
:1024100010C4127C17800F90F7E7E05420C41354C7
:1024200007FFE4FCFDFE900272120A259002720280
:102430000A0D900261120A82E4FF12003A90000431
:10244000D1FC7F0112003A900006D1FC7F021200FD
:102450003A900008D1FC7F0312003A90000AD1FCA8
:102460007F0412003A90000CD1FC7F0512003A90D4
:10247000000ED1FC7F0612003A900010D1FC7F07BD
:1024800012003A900012D1FC7F0812003A9000141A
:10249000D1FC7F0912003AD1F97F0A12003A90006C
:1024A00018EF12071C7F0B12003A900019EF020779
:1024B0001C1279CD127A3B7F011253A77F0112754E
:1024C000521276C77F09127AE67F091241B21200D2
:1024D00009125806E49003CFF012769B127C0EE0AE
:1024E000A3F0227B017D0CEF120A9725580025648A
:1024F00001256E02257803258204258C0525960684
:1025000025A00725AA0825B40925BE0A25C80B253C
:10251000D20C25DC0D25E60E25F00F25FA10260439
:1025200011260E12261813262214262F15263E16C3
:10253000264817265818266919267B1A268E1D2626
:102540009A1E26AB1F26B02026BB2126D02226D5D8
:102550002326DC24000026F190A374F15AC43354DE
:10256000E04FF02290A35CF12C90A364C15090A3A3
:1025700072D1F290A374C17190A372F12C90A374E4
:10258000C18390A371D1F290A373C19690A371F10E
:102590002C90A373C12A90A370D1F290A373C1377A
:1025A00090A370F12C90A373C1C390A36FD1F2904C
:1025B000A373C15090A36FF12C90A373C16090A33B
:1025C0006ED1F290A373C17190A36EF12C90A3739E
:1025D000C18390A369D1F290A36AC19690A369F1D7
:1025E0002C90A36A804490A368D1F290A36A80479C
:1025F00090A362F12C90A364C19690A361D1F29054
:10260000A364802690A361F12C90A364802990A3F9
:1026100060D1F290A364C1C390A360F12C90A36336
:10262000807490A35FD1F290A363E0FFEB80789079
:10263000A35FF12C90A363E0FFEB25E0806990A3FA
:102640005ED1F290A363807B90A35EF12C90A36394
:10265000E0FFEBC454F0807390A35DD1F290A363CC
:10266000E0FFEBC43354E0806290A35DF12C90A3B3
:1026700063E0FFEBC4333354C0805090A35CD1F2CD
:1026800090A363E0FFEBC43333335480803D90A3C9
:102690005AD1F290A35BE04BF02290A359D1F29073
:1026A000A35BE0FFEB25E025E0802090A2A2800361
:1026B00090A2A3F15AC454F04FF02290A2C0D1F2DC
:1026C00090A364E0FFEB33333354F8FEEF4EF02277
:1026D00090A2BF800390A2BEF15A800D90A2BDE0EF
:1026E00054F0F04DFFF0AE03EEC433333354804F5B
:1026F000F022E054F0F04DF022900016EE8FF00240
:102700000829127BA14024127622EF6401701C90EC
:102710000397E07B0160067D0CF13881E7E4FDF171
:102720003891E7E4FF1253DD12531822E0540FFFF3
:10273000F0EDC454F04FF0227F0391E77F0291E760
:102740007F0491E77F0591E77F0691E77F0791E797
:102750007F082290029AF0A3EF22E054F0F04DFFA0
:10276000F0EB227F0D91E3E4FD7F0DEF120A972736
:10277000DC0027E20127E80227EE0327F40427FA0A
:1027800005280006280507280A08280F0928140A22
:1027900028190B281E0C28230D28280E282D0F2859
:1027A0003210283711283C12284113284614284B90
:1027B00015285016285517285A18285F1928641A02
:1027C00028691D286E1E28731F287820287D21283F
:1027D0008222288A23289124000028A090E6A002C3
:1027E000288D90E6E302288D90E6E302288590E6A6
:1027F000E202288D90E6E202288590E6E102288D2B
:1028000090E6E1018590E6E0018D90E6E08076902B
:10281000E6DF807990E6DF806C90E6DE806F90E600
:10282000DE806290E6DD806590E6DD805890E6DC33
:10283000805B90E6DC804E90E6DB805190E6DB80AA
:102840004490E6DA804790E6DA803A90E6D9803D17
:1028500090E6D9803090E6D8803390E6D8802690F4
:10286000E6D7802990E6D7801C90E6D6801F90E6B8
:10287000D6801290E6D5801590E6D5800890E6D4F3
:10288000800B90E6D4E0FFED800F90E6D3E04DF0B2
:102890002290E6D3E0FFAE05EEC454F0FEEF4EF01A
:1028A0002290038E7414F0A37404F09003887401D2
:1028B000F0A3F0A3F07E007F457D007B007A0079D5
:1028C00022020AEA9003CFE0601C12768FEF6401C7
:1028D0007014FD7F091241B27B017A0379CB311369
:1028E0007A1F7998F12C9003CFE0602612768FEF53
:1028F00070207B017A0379CB7FC8FEFDFC71F470F8
:10290000119003CFF07D017F091241B27A1F79AA9D
:10291000F12C22B14CF126900264120A0DAB07AAE9
:1029200006B152C3EF9BFFEE9AFE12002ED3EF9436
:102930007FEE648094804004B152F12690026412CC
:102940000A0D12003D0209F3900385E0120A97294F
:102950007D0129890229A90329B70429C50529FD73
:10296000062A18082A4D092A710A2AA40B2AFA0DE8
:102970002B670E2B8A0F2B941000002B97F1F81267
:10298000676D12689C7F02619171FA7009719931CB
:1029900013E490038CF071997F287E0071F060023F
:1029A00061971279E37F03619190038BE06401608A
:1029B0000261977F04619190038DE0640160026180
:1029C000977F05619171FA700E71993113E4FF12CE
:1029D0006B60E490038CF071997FB07E0471F060BD
:1029E0000261971200061254E9125D867F06125D9D
:1029F000407F091233367D017F0902551B1267F5AE
:102A0000EF64016002619771997F50FEFDFC71F4E3
:102A1000600261977F08619171FA701671983113A5
:102A20007BFF7A1F794A7828E690029AF008E6A39D
:102A3000F1E471997F807E0C71F0600A126F60EF93
:102A400064016002619712792D7F09619171FA70BA
:102A5000047198311371E660026197126B97EF7001
:102A60000C7F0791FB7A1F7967F1DD61637F0A6153
:102A70009171FA70187F0691FB7F0191FBE490033E
:102A80008CF0FF125E26126EB27199311371E660FE
:102A9000026197126EB2EF70077F01125E266163CA
:102AA0007F0B619171FA7029FF125372125F3B7FA5
:102AB00001126EA090039974FFF0A3F0A3F0E490CC
:102AC00003A0F0A3F0A3F0A3F090038CF090039880
:102AD000F012311F1279E6EF60026197F1F5EF64B1
:102AE0000170099003AC04F07F0C61917F011253D7
:102AF00072E49003ACF07F0D619171FA7016FF9152
:102B000001719931137A1F7974F1EFE490038CF01D
:102B1000900384F07F01910171E6701D126F86EFC2
:102B20006401700F126F60EF640170077F0E125D19
:102B3000408006126F60EF605E71997FD07E0771F2
:102B4000F07054900384E004F0E0640A70157BFF99
:102B50007A1F7988FFD1B37F0191FB124897E490E7
:102B60000384F07199211371FA701B900393F09014
:102B7000038C71983113126BED9003AEEFF0126B72
:102B8000F39003AFEFF07F0F800771FA7001F07FD1
:102B900010025D401230F722F07B017A0379802227
:102BA000F126B14C90026C120A251209D3900268EA
:102BB000120A25F132123EEF401490026C120A0DF7
:102BC00012003D1209F3F132120A257F0022900211
:102BD00064F135120A1912085690026C123EEF7F0A
:102BE0000040027F01227B017A0379807F907E0181
:102BF0007D007C0071A0EF64012290038CE06401F1
:102C000022AB07900262120A3100000000EB70084C
:102C100090F362E054F0F02290F3E2E030E41E9092
:102C2000F3F8D193D18A90F3F9E07F00FED184903C
:102C3000F3FAB171120856900262120A25E4FFFEFF
:102C4000FDFC91EB700281E291E3400281E2E47FBE
:102C50003E7E49FDFC91EB50089002617406F080C5
:102C600064E47F7C7E92FDFC91EB500890026174DD
:102C700005F080517FF87E247D0191E95008900293
:102C8000617404F0803F7FF07E497D0291E9500835
:102C90009002617403F0802D7FE07E937D0491E9C2
:102CA00050089002617402F0801B7FC07E277D096E
:102CB00091E950089002617401F0800991E3500598
:102CC000E4900261F090F3F8E0C45407FF900261D1
:102CD000E0FE6F600DEE4408FFF090F362E054F008
:102CE0004FF0227F807E4F7D127C00900262120A9C
:102CF00019C302099C7F0591FB7F03EF24FD603619
:102D000014603E14602514600C1460142406703B9B
:102D100090F1B4802F90F1B4E054DFF04420F02221
:102D200090C908E054EFF04410F02290F1B5E0545F
:102D3000F7F04408F02290F1B5E054FBF04404F0C1
:102D40002290F1B5E054FDF04402F02290026112AD
:102D50000A829003D6020A0D7F02FEFDFC90003924
:102D6000120A19120871A804A905AA06AB07900057
:102D700031E0FFE4FCFDFE22127C2E604514606F02
:102D8000147002C12A24036002C16590C740E04468
:102D900080F090C758D193C004C005C006C007900A
:102DA000C759B17178081209C0D003D002D001D040
:102DB00000D18790C75AB171D1A0120A2590C7409F
:102DC000C15F90C748D193C004C005C006C007903A
:102DD000C749B17178081209C0D003D002D001D020
:102DE00000D18790C74AB171D1A0120A25807C908A
:102DF000ED30E04402F090ED3CD193C004C005C03A
:102E000006C00790ED3DB17178081209C0D003D01B
:102E100002D001D000D18790ED3EB171D1A0120A4D
:102E20002590ED30E054FDF0804190E690E0448044
:102E3000F090E698D193C004C005C006C00790E6A4
:102E400099B17178081209C0D003D002D001D00026
:102E5000D18790E69AB171D1A0120A2590E690E050
:102E6000547FF080067A157997F1E990026E120A84
:102E70000D90026DE0F9F81209C0A3120A25900224
:102E80006E020A0DE4FCFD120856A804A905AA0664
:102E9000AB0722E0540FFFE4FCFDFE78100209C0EE
:102EA00012085690026E227BFF900295E090029AE3
:102EB000F0E4FF900297120A829020A6E493FEEFBE
:102EC000D39E50617B017A02799A9002C2120A82E3
:102ED000900297127BEA9002C2127BAD7A0279C609
:102EE0001211149002C2127B91E49002C5F07B0192
:102EF0007A0279C61200169002C5E0FDFB3395E018
:102F0000FAC3EB9FEA9E501DEDFF3395E0FE74C6B9
:102F10002FF58274023EF583E0FF120FD99002C5AF
:102F2000E004F080C922900264020A257BFFE4FFDE
:102F3000808190026C120A0D90026822125D7F70EF
:102F400005FDFF125D9312689C91F57F0491FBE4EF
:102F5000900393F07F0512000E7F0402000E900292
:102F60006BEFF0127A5190026BE024FD6016146052
:102F70001C24F9602B24FD605E240C705FE4900338
:102F800097F0801812543B123FF10237F7E4FF121A
:102F90006F4B0F1253A77F041276A7E4FF02532949
:102FA000900042E0703690002CE0C3940774809447
:102FB0008040299003CFE07023900394E09000417B
:102FC000F0A37401F07BFF7A207937FF123BAE7FCC
:102FD0000B12503C0253187F051276A7227BFFE4A8
:102FE000FFC1B3EFF07F03C1B37BFFE4FFC1B37B4D
:102FF000FF7F03C1B37F002202000A9003877401A0
:10300000F0227B017A02796190C67CE09000021286
:10301000071C90F2F1E0131313540112070A90F207
:10302000F5E0FF540711E5EF54F090000312071C80
:1030300090F263E090000512071C90F264E09000AB
:103040000612071C90F265E090000712071C90F230
:1030500066E0115E90F267E090000902071C9000A4
:103060000802071C126ECBEF6401703E0412070ABF
:1030700090F2BDE0C413131311E390F2BCE0FFC45F
:10308000540F11EBFD7C0064027006900007048071
:103090000BED64014C7008900007740212071CEFDE
:1030A000540F115E90F2BDE08031E412070A90F2F5
:1030B000EBE0FF131313541FFE11E3EFC31354038C
:1030C00011EB64037008900007740412071C90F25F
:1030D000EBE0FFEE5403115EEFC4135407900009B8
:1030E00002071C540190000102071C900007120700
:1030F0001C9000070206DD7A0279613116FF900309
:103100009AE06F6010EFF07BFF7A1D7998122EAD78
:103110007F1012000E227B011164900269E0227A76
:103120000279623116FE900399E0B5061B90026B9E
:10313000E0FF90039BE0B5070F900262E0FF900371
:1031400098E0B507037F0022900262E0900398F0B8
:10315000A3EEF090026AE090039AF090026BE09088
:10316000039BF0900398E064017003FF80027F01ED
:10317000126EA07F012290026174FFF090038BE039
:1031800070026113900385E0D39164401890038D21
:10319000E07012122F3C711A9164500280027F0479
:1031A000900261EFF0900385E0D3940674809480E0
:1031B0004017126805EF6401700F7BFF7A1E79E1FA
:1031C000FF122EB37F06125D40900385E0640A7003
:1031D00026126B97EF70207829F18E401A7BFF7AC8
:1031E0001E79F1E471169409748094805002800273
:1031F0007F09900261EFF0900385E0D3940B748017
:1032000094804055311FEF640170137A1E79FE716E
:10321000147121500280027F0A900261EFF012794E
:10322000E6EF640170137A1F791271147121500254
:1032300080027F0A900261EFF0122FF59003ACE05C
:103240006F60167BFF7A1F791EE4711671215002A0
:1032500080027F0A900261EFF0900385E0D3940D25
:10326000748094804021126F86EF6006126F60EFC9
:1032700070157A1F7928F1E0711A712150028002CD
:103280007F0A900261EFF0127BA1403B126EFF12A9
:103290005F7CEF6401700F1279B87A1F7932122FB8
:1032A000EF7F0E12000E126BE1EF701B7BFF7A1F97
:1032B000793D7F03711794097480948050028002D5
:1032C0007F09900261EFF0900385E0C371FE403802
:1032D000900261E071FE40307F047128700A7F0423
:1032E000712EF07F0D12000E7F037128700A7F038C
:1032F000712EF07F0B12000E7F057128700A7F057A
:10330000712EF07F0C12000E900261E0FFF460035A
:10331000125D40227BFFFF122EB3900261E0FFC3DB
:1033200022940A74809480227194EF640122713691
:10333000900394740122EF120A97335300336E0303
:10334000335804337908336309337E1D33891E00F3
:1033500000339390E530800390F218E04480F054FD
:103360007FF02290F219E04410F054EFF02290F236
:1033700018E04408F054F7F02290E539800E90E50B
:1033800032E04402F054FDF02290E532E04401F0D6
:1033900054FEF022E4FEEF120A9733B60033D60350
:1033A00033BB0433DF0833C40933CD0A33E41D33A0
:1033B000ED1E000033F490E540800390F2EDE05400
:1033C00080FE803090F2EEE05410FE802790F2EE06
:1033D000E05404FE801E90F2EDE05408FE8015904B
:1033E000E549800C90E542E05402FE800790E542FA
:1033F000E05401FEEE60027E01AF0622E0D394109D
:10340000748094802290F1CCE06480700790F1CDBC
:1034100071FC40037F0022EFFD7C00F1EF40129031
:10342000F1CEE06480700790F1CF71FC40037F0023
:1034300022C3ED9404EC64809480402490F1D0E0A9
:103440006480700790F1D171FC40037F002290F1FD
:10345000D2E06480700790F1D371FC40037F0022BA
:103460007F0122C394047480948022E4780DF69046
:10347000F436E0541F7810F690F426E018F690F435
:1034800032E0540F7832F6E008F6E008F6E004780F
:103490000DF67810E691634025780DE671FD400247
:1034A000A1B7E408F6780EE6FFC31896501490F41E
:1034B00032E0FE74352FF8A606780E0680E7E47831
:1034C0000DF6E4FFF1BE780FE67002A18B24F070D8
:1034D00002A15C24D0602E24F0606124C060172417
:1034E000106002A1AD780DE6FFB1B87832E6640F46
:1034F0006002A1A98062780DE6FF126135780DE6C1
:10350000FFD1A3A1B17834E6FD7C00645070167839
:103510000DE6640170247810E66405701DF11460F6
:1035200019D1F78012ED64304C700F780DE664010C
:1035300070087835E660037825F6806DF100700B31
:103540007810E664047004D1C58066EB64524A705A
:10355000327810E66404702B7F108053F100700BFA
:103560007810E664047004D1C58010EB64504A7092
:10357000127810E66403700BFFD19DE47856F608CC
:10358000F6802E780DE6FFF12380267834E664502D
:103590007017780DE6640170107810E66405700904
:1035A000F1146005D1F77825F6E4FF8002E4FFD13D
:1035B0009DF1D0E4FF713622126309FF640F70029F
:1035C000C19190F103EF12631E1263125026EE6058
:1035D0001390F105E0F4700690F104E004F090F12E
:1035E00005E004F07812E62435F8E690F153F0781F
:1035F000120680D57832E6706408E66401705EF1E8
:10360000E7120A97362000362B0136360236410380
:10361000364B04364F0536530636570700003691B1
:103620007811E6FF126345D19260667811E6FF12C9
:1036300067DFD192605B7811E6FF1256D4D19260B9
:10364000507811E6FFF197D1926046D1926042D155
:1036500092603ED192603A7811E6FFE1DA7832E684
:10366000700808E664027002800E7832E6FF7E0081
:10367000700A08E6642070047811F622EF4E70118B
:103680007833E66406700A08E6700608E6FF1267FB
:10369000EA2290037CE0FF781106E66F2290F43373
:1036A000EFF022AE079003DCE06006E4F07F2080BC
:1036B000ECF10B7811E6FFC39E500974452FF8E634
:1036C000F17E80EF22780DE6FFF1097811E6FFC365
:1036D0009E5018EF785726FDE41836FC74472DF5F8
:1036E0008274003CF583E0F17E80E0AF067857EF0E
:1036F00026F618E436F622785646F608E6F6E42270
:103700007834E6FB7A00645022AE07E4FFD19DE4F2
:103710007811F6227835E6FF7856760008A6077805
:1037200025E622F1097811E6C39E5008E490F433AF
:10373000F00680F122C0E0C0F0C083C082C0D07526
:10374000D000C000C001C002C003C004C005C00654
:10375000C007E4FF7194EF600AE4FF7136916B7F5C
:1037600001F1BED007D006D005D004D003D002D0DE
:1037700001D000D0D0D082D083D0F0D0E03290F40D
:1037800033F078110622125CED3176022948E6D337
:103790009401748094802290037DEFF0E02435F84A
:1037A000E6C3F1904009E4FF125745E47826F6900D
:1037B000037DE02435F8F18E4003124F1722EF64A9
:1037C0000190A3587005E044B0F022E0540FF022BD
:1037D0007F01F1BEE490F434F02290037DEFF022FB
:1037E0007BFFE4FF022EB37811F67834E622E6C3BD
:1037F000940274809480227B017A02796C11647A3D
:103800001F79BD1237E07BFF7A1F79CE90027312C9
:103810002EAC7BFF7A1F79DF900275122EAC7B01F4
:103820007A02797690F2E7E0FE90F2E81223559062
:1038300000088FF012082990F2DFE090F2E011F119
:103840009000048FF012082990F2E1E0FE90F2E27D
:1038500011F4F14E9000041207F13112900002F1C0
:103860000C90F2DBE0FE90F2DC11F490000A8FF095
:10387000120829900008126B6A1207F1F12B9002CE
:1038800092310E9C9000068FF012082990F2E9E028
:10389000FE90F2EA1223559000128FF01208299040
:1038A000F2E5E090F2E611F190000E8FF012082997
:1038B00090F2E3E0FE90F2E411F4F14E90000E126B
:1038C00007F1311290000CF10C90F2DDE0FE90F265
:1038D000DE11F49000148FF0120829900012126A81
:1038E000E5F12B900292310E9C9000108FF00208AF
:1038F00029547FFEE02400FFEC3E2225E0246CF5F5
:1039000082E43402F583E0FEA3E0FF900266E0FC6F
:10391000A3E0FDC3EF9DFFEE22F11B9000397189FA
:10392000900261EEF0A3EFF0E47BD07A077184F1AE
:103930003390002EE0FB7A007014F105E07803CE9E
:10394000C313CE13D8F9F0EE900263F0800C90020E
:1039500063B1687D07120750F13390002BE06401DA
:103960006006EB64014A700D900264E025E0F0907F
:103970000263E033F0F105E0FF900032125B39F1B1
:10398000331274B9900265EEF0A3EFF01274C89090
:103990000267EEF0A3EFF07BFF7A1279DE9002630C
:1039A000D1F8900261F157E4FF71AE7A1279F99083
:1039B0000251D1F6900253F15790024D127B2FE441
:1039C000FF71AE718F127B0E120750E4FCFD900266
:1039D00079120A25F113FFD1E9401E900253E071DC
:1039E00094127B0E120750900265310E9CFEE4FC8F
:1039F000FD900271120A25800A900271120A3100AC
:103A0000000000900032E06401707C718F2DFDEEAB
:103A10003CFC90024D719D2DFFEC3EFE900263E058
:103A2000FCA3E0FD120ABD900275B17090027571A1
:103A300089900279120A25900267E0FEA3E0FF90C8
:103A40000266E02FFF900265E03EFED1E9402CB116
:103A5000739002757189C006C007F113B17BD0075E
:103A6000D006120863C006C007A3E0FEA3E0FBAACD
:103A700006E4D007D006120863800E900275120A81
:103A800031000000008008D1DD900275120A2590F7
:103A90000275120A0D900271D1EF4008D1DD90023B
:103AA00075120A257A13791390003171A5900031AF
:103AB000E025E0FFE433AB07FA3395E0F9F8E4FFE3
:103AC0007E80FDFC1208FC90026D120A25719AFF9F
:103AD000E4FCFD90026D120A19122E8790025371B8
:103AE0009DFF122E84F105E0FFE4FCFD12087190A9
:103AF000026DB17090026D7189C006C007F113B1FB
:103B00007BD007D00612086390026D120A25E47B71
:103B100007FAF890026D7189900275120A19F14541
:103B2000900032E064027037D3900254E094E89041
:103B30000253E094034028E47B02FAF9F8900275FE
:103B40007189C004C005C006C007E47B07FAF9F814
:103B500090026D7189D003D002D001D000F1457B75
:103B6000FF7A1379229002691274767F0171AED1C7
:103B7000E3AC06EC90F982F0EF90F983F022EFF0DD
:103B8000E47B08FAF9F8900035120A0D0208FC905F
:103B90000253E0C313FCA3E013FD900251E0C313F2
:103BA000FEA3E013227BFFE0900281F0E4FF90028D
:103BB0007DEFF0A3120A8278A97C027A2079B67F81
:103BC00080127B5290027DE0FFD31245DD505E9063
:103BD00003DDE0FEEFC39E40547B017A02798190C1
:103BE0000329120A8290027E127BEA900329127B3B
:103BF000AD7A0279A9121114900329127B919002D7
:103C00007DE075F003A424A7F582E43420F5831247
:103C10000A8B90034F120A827B017A0279A99003E2
:103C200052120A827BFF7A20799B120BC122F11B70
:103C30001208FCF13C90026AE0701890026CE0FE01
:103C4000A3E07803CEC313CE13D8F9F0EE90026C44
:103C5000F08009B1657D07120750F13C7A1A79D6D8
:103C600090026CD1F6E4FF71AE90026CE0FAA3E032
:103C7000FB7D3CFF127B83EF0490F9A4F07D32AF13
:103C800003127B83EF0490F9A5B1647D07F123ABA8
:103C900007EB240490F9A6B1647D0612073E7D1956
:103CA000120750AE0790F9A7EEF0EB240790F9A9A0
:103CB000F090026AE07054900269E0640190026C36
:103CC0007027A3E0FBEE240790F9A7F07C007D07A6
:103CD000AF03AE02F123EF240790F9A9F090F9A405
:103CE000E0246790F98AF0800CB1687D0A120750D1
:103CF00090F98AEFF090026BE06401701E90F9A5D4
:103D0000E0FF90F9A4E02F240A800C90F9A9741E1A
:103D1000F090F9A4E0243290F98AF07BFF7A1A79C6
:103D2000E590F9A971A77BFF7A1B790090F9A7713B
:103D3000A77BFF7A1B791B90F9A471A77BFF7A1BE5
:103D4000793690F9A571A77BFF7A1B795190F9A676
:103D500071A77BFF7A1B796C90F98AE0900281F061
:103D6000E4FF61AEF090026CE0FEA3E0FF7C002275
:103D7000120A25900261E0FEA3E0FFFBAA06E4F927
:103D8000F822F14890026D7401F0E4A3F0A3F0A3CF
:103D9000F0D1E3127BC44410F054FBF090A201E098
:103DA00054E0F0F090A20274A8F0E490A204F09025
:103DB000A205F090A206F090A207F090A20A7480EB
:103DC000D1DC7BC07A2779097800D312099C403076
:103DD000900271120A19C374C09BFF74279AFE7473
:103DE0000999FDE498FCF11BD312099C4012D1DD26
:103DF000EF2410FFEE34271278B6900271120A25D4
:103E00007BFF7A1A7906900271127476D1E39002E0
:103E100085120A25E4FF71AEE490026FF090026F04
:103E2000E012346350267E4F7D12127C3E122CEE3F
:103E3000501A90026EE004D1DC78011209C09002A1
:103E400071120A2590026FE004F080D17E847D1EFD
:103E5000127C3ED1EF4017D1DD78011209AD127B03
:103E6000C44404F07BFF7A1A791DE4FF71AE90A27E
:103E700007E054F8FFF090026EE0FE4F90A207F0CA
:103E80007BFF7A1A792A900281EEF1EC127C36904F
:103E900002717189900270EFF0127C36A37189ACC7
:103EA00000AD01AE02AF03E4FBFAF9F8C312099CBE
:103EB0006006900270E004F090A20AE05480FFF0E7
:103EC000900270E0FE4F90A20AF04480F07BFF7AEF
:103ED0001A794E900281EEF0E4FF61AEF09002712B
:103EE000020A0D900269020A0DE4FCFD90027912AB
:103EF0000A19D302099C7BFFE0FFA3E0900281CF67
:103F0000F0A3EFF022900263E0FEA32295F08FF081
:103F1000020829900265E0FEA3E022E47BE87A0330
:103F2000F9F82212073E7D64020750C39FFFE5F0B7
:103F30009EFE22900263EEF0A3EFF02290026CEE60
:103F4000F0A3EFF022120856900269020A25FE90B3
:103F50000292F0A3EFF022E0FFA3E0900283CFF003
:103F6000A3EFF0227E007F1A7D00127BCF120AEAB7
:103F7000127BCF1224327BFF7A12794F90024BD101
:103F8000F890024DF157900251127B2F90024F1280
:103F90007B77F0900253127B6BF090025F1258CA4D
:103FA0007BFF7A12798A900255D1F8900257F15727
:103FB00090025B127B2F900259127B77F090025D8A
:103FC000127B6BF09002601258CA127BCF126AF11A
:103FD00090025FE0FF125EC6900260E0FF125C1A82
:103FE0007005E054FEF022E04401F022F0E4FF61AD
:103FF000AEE490039DF07A1F79F09003A81240057B
:10400000E4FF022EB37BFF120A0D90029A020A25EA
:10401000E4900261F0A3F078637C027D017BFF7A7B
:1040200020797DFE7F0312069E90002CE0640760DD
:104030000201B1127C0EA3E0FF9003D0E06F60712B
:10404000E0A3F09003D0E02401FFE433FEEFC4F8D6
:10405000540FC868FFEEC454F048900261F0A3EF1B
:10406000F090026174FFF5F01207DB900263745167
:10407000F0127B1EEC900264F0AF05A3EFF07A2003
:104080007904900264127B4AA3EF123FEC90F9B8D6
:10409000125AA7F07F01B1E47B017A0279637D03B4
:1040A0007F39D12211B6E4FFB1E490F9B8E054FCB5
:1040B000F0227D0131B27F327E00A1FE90002CE023
:1040C00024FE601814603D1460531460781470026C
:1040D00021AA2405600221B17F0221AF90002DE0CA
:1040E0006016B19390038D7401F078477C00FD7ADF
:1040F0001379667E02127C1F900028E0700221B1C5
:104100007F0321AF90002DE06002B193900029E081
:10411000700221B17F0491E6E4FF025329125C771B
:10412000125B4012741BF1EBEF700221B1123F647D
:10413000127A9E12597412733C1274A1123919F139
:10414000A07F05806A90003EE0640170647F019169
:10415000D4E4FB7D0C7F221224E77F2211B27F2062
:104160001224E37F2011B27F21125B327D017F2177
:1041700031B2F1437B017D0C7F1F1224E77D017F6B
:104180001F31B2B1D1D186B1D17F1D127AE67F1D28
:1041900011B412580611B690002EE07005F14912C4
:1041A00074D77F01918E7F0680051279347F079145
:1041B000E622EF120A9742230042340142450242AE
:1041C0005603426704427805428906429A0742AB89
:1041D0000842BC0942CD0A42DE0B42EF0C43000DFF
:1041E00043110E43220F43331043441143551243EE
:1041F000661343771443881543991643AA1743BBA4
:104200001843CC1943DD1A43EE1D43FF1E44101F13
:10421000442120443221444922446023447724002D
:1042200000448D90A385E04480F0ED600281819090
:10423000A385818990A37FE04402F0ED6002813C78
:1042400090A37F814490A389E04402F0ED60028155
:104250003C90A389814490A388E04402F0ED600281
:10426000813C90A388814490A388E04408F0ED60ED
:1042700002815390A388815B90A388E04420F0EDF5
:104280006002816A90A388817290A388E04480F0E4
:10429000ED6002818190A388818990A387E0440228
:1042A000F0ED6002813C90A387814490A387E044B5
:1042B00008F0ED6002815390A387815B90A387E0B3
:1042C0004420F0ED6002816A90A387817290A387F9
:1042D000E04480F0ED6002818190A387818990A302
:1042E00086E04402F0ED6002813C90A38681449018
:1042F000A384E04402F0ED6002813C90A3848144F9
:1043000090A384E04408F0ED6002815390A384817F
:104310005B90A384E04420F0ED6002816A90A38466
:10432000817290A382E04402F0ED6002813C90A390
:1043300082814490A382E04408F0ED6002815390B2
:10434000A382815B90A382E04420F0ED6002816A49
:1043500090A382817290A382E04480F0ED6002819C
:104360008190A382818990A381E04402F0ED6002F4
:10437000813C90A381814490A381E04408F0ED60EA
:1043800002815390A381815B90A381E04420F0EDF2
:104390006002816A90A381817290A381E04480F0E1
:1043A000ED6002818190A381818990A380E0440225
:1043B000F0ED6002813C90A380814490A380E044B2
:1043C00008F0ED6002815390A380815B90A380E0B0
:1043D0004420F0ED6002816A90A380817290A380F6
:1043E000E04480F0ED6002818190A380818990A3F8
:1043F0007EE04402F0ED6002804290A37E80459012
:10440000A37EE04408F0ED6002804890A37E804BDC
:1044100090A2A5E04402F0ED6002802090A2A58069
:104420002390A2A6E04402F0ED6002800F90A2A6C5
:10443000801290A2C9E04402F0ED6005E04401F072
:104440002290A2C9E054FEF02290A2C9E04408F0F4
:10445000ED6005E04404F02290A2C9E054FBF02294
:1044600090A2C9E04420F0ED6005E04410F02290F5
:10447000A2C9E054EFF02290A2C9E04480F0ED60C0
:1044800005E04440F02290A2C9E054BFF022EF645E
:1044900001702B7F0191D490003FE090F989700F5B
:1044A000E054DFF04410F07BFF7A18799C8020E024
:1044B0004420F054EFF07BFF7A1879A98011E4FFD3
:1044C00091D490F989E054CFF07BFF7A1879B67FC8
:1044D00001023BAEEF6401700790F9BF74FFF02258
:1044E000E490F9BFF022900262EFF090002CE06FB0
:1044F0006024900262E0640570057F031276A79045
:10450000002D7401F0900262E090002CF07BFF7AA5
:104510001179A2123BA82290026174FFF090002C46
:10452000E0D31237F0400A900028E070047F029137
:10453000E690002CE0D3125CE6400A900029E0707F
:10454000047F0391E690002CE0B1DC403B90E0B0AA
:10455000E0FDE4FF127A8EEF701290003EE06401FD
:104560007026F0FF91D4E4FF918E801C90003EE015
:10457000701612331AB1DD500280027F059002617D
:10458000EFF090003E7401F0900261E0FFF46002F1
:1045900091E622E4F0FF918EE4FFEF64017B01706D
:1045A000297D0C7F0F1224E7E490F31CF090F1A515
:1045B000E044C0F090E6E47402F090E6E6E04403E4
:1045C000F054F3F01D7F0F02276BE4FD7F0F0224F0
:1045D000E77FC87E008027900263E0FFC3940574E4
:1045E00080948022EF640190F9847005E04408F023
:1045F00022E054F7F022E054F7F07F017E00EF1F35
:10460000AA0670011E4A6013E4FCFDC3ED9474EC2D
:10461000940250EA0DBD00010C80F02293FF7BFF55
:104620007D02900266EDF0AC0790F9A0E054EFF047
:10463000ECF58264296006E5826439702A90F99A63
:1046400074E0F0900266E0FF240690F999F090F98A
:1046500098ECF0EFF0E4F0FF900266E0FEEFC39E0E
:104660005015127B5B80F174C0127BB990F998EC05
:10467000127B3C90F998F0B1FAE490F99AF090F935
:10468000ABE054BFF0221277B07F147E00B1FE90F1
:104690002206E47A227907D11C902209E47A227951
:1046A0000A7D05F12090220FE47A2279107D03F132
:1046B00020902213E47A227914F126902216E47ACB
:1046C000227917F126902219E47A22791AF12E9094
:1046D000221CE47A22791DF13690221FE47A227995
:1046E00020F136902222E493FF7BFF7A2279237D0A
:1046F00002D122F11A9021FAE47A2179FBF12EF10C
:104700001A9021F7E47A2179F8D11CF11AF1D27BC1
:10471000FF7A2179EA7F01023BAE7F967E00A1FEFF
:1047200093FF7BFFC12293FF7BFF7D02C12293FF9A
:104730007BFF7D02C12293FF7BFF7D02C1227F03AD
:104740001254B57F057E00A1FEF155F14390F9ABFF
:10475000E04420B1F990F9ABE054DFF0229002651B
:10476000120A3100000000E4900269F07D14F13E6D
:10477000900269E0B1DC50227F03127505EF6401FD
:10478000700EFD7F03122D78900265120A25800AB3
:10479000B1FA900269E004F080D6900265020A0D39
:1047A000900261120A31000000007D31F13EF1DE1D
:1047B0007A1379311274717F01123BAE7D30F13E74
:1047C000F1DE7A13794C1274717F01023BAE11BC99
:1047D000A117D179E490F96DF090F96EF022E4FD23
:1047E0007F03122D78900261020A25E4900261F0A5
:1047F00090A200E054EFF012488E90E10FE054EFE9
:10480000F090E2631245F6118E440FF090E10FE054
:1048100044101245F990E263E04408119690026159
:10482000E004F0124743125CE1500A90E26DE0545C
:1048300002C31370E890E26DE05403640260087BE9
:10484000FF7A1A796D801C7A1A797F90E228123BE0
:10485000A590E228E054041313543F7BFF700C7AB8
:104860001A799A7F03123BAE7F00227A1A79A990B7
:10487000E274E0900281F090E275E0900282123FD3
:10488000EC90A210E0547FF04480F07F012290E190
:1048900007E054F0F022F07F027E000245FEE49033
:1048A0000261F0900264740CF078657C027D017BFB
:1048B000FF7A1D7980D17178697C027D017BFF7A56
:1048C0001D7984D171786D7C027D017BFF7A1D7921
:1048D00088D17178797C027D017BFF7A1D798CD13A
:1048E00071787D7C027D017BFF7A1D7990D1717892
:1048F000817C027A1D7994D16DE4900262F090027D
:1049000062E0FF7E00123463505DF1DBFE7B0174D8
:10491000F32FF974F13EFAD19C900262E0FDD1E5EB
:10492000EEF0A3EFF0EDD1E5E0FEA3E0FF1278F7A3
:10493000D157EFF0EED1E5E0FEA3E0FF1278BEF133
:10494000E2F582E43402F583EFF074712ED15EE07B
:10495000FFD18AC39FFF900261E0FEEFC39E400338
:10496000EF04F0D16680977A1C793C127B9AE4FFC1
:10497000126BF97F01F101E4900263F0900261E0B3
:104980002403FFE433FE900263E0127BFC984002B4
:1049900081D77BFF7A1C794890F1E1122EAC126C22
:1049A0000BEF64017003FFE1017F07122CFBE49021
:1049B0000262F0127BD6400241A8D13B54017071D3
:1049C000900262E0FFD15CE0FD74752FD18DC39D34
:1049D000FFE49400CF2401CF3400F1DAFE900262AC
:1049E000E0D14CFD127BFC98400241A4900262E0B1
:1049F000D15CE075F002A42D127BE0245FF582E526
:104A000083341D127AF0747D2CD14EFFD157E0759E
:104A1000F002A42F127BE0243EF582E583341DF5DD
:104A200083E493FDEE25E0FFE433FE127BF3ED809B
:104A300070900262E0FF2479D13E54027066F1E288
:104A4000D18DF90425E0FDD1ADE0FEC3ED9EFE74ED
:104A50007D2FD14EFDC39E504BE975F002A4C39D3E
:104A6000FFE5F09400FE74612FF582741D3E127A0A
:104A7000F074752CD18D75F002A4FFD147FBC3EF04
:104A80009BFFE5F09400FE74402FF582741D3EF507
:104A900083E493FCED25E0FFE433FE7B01127BF31E
:104AA000EC12070AD16621B3F1171245FA7F0F12F3
:104AB0005EA6E4900262F0900262E0C394327480D9
:104AC0009480400261521245FAD196900285EEF030
:104AD000A3EFF07AF179CED19C900287EEF0A3EFAC
:104AE000F07AF179D0D19C900289EEF0A3EFF07AC0
:104AF000F179D2D19C90028BEEF0A3EFF0E4FFEFBE
:104B00001234635033D13BFE30E10D74792FF582BE
:104B1000E43402F583EE801AEFD1F1FDD1D45007D1
:104B2000D13B547FF0800ED3ED9401EC948040058E
:104B3000D13B4480F00F80C7900279E030E70FA3AB
:104B4000E030E70AA3E030E705A3E020E704D16600
:104B500041B77A1C795C900285127ACA900287125A
:104B60007AD9900289E0FFA3E090029ECFF0A3EFF4
:104B7000F090028BE0FFA3E09002A0CFF0A3EF1231
:104B800022DFE4900262F07829E6FF900262E0FE04
:104B9000C39F40028195D1ADE0F46002811C900278
:104BA00062E0D1F1D1D4503D74812ED17FE0FE90EE
:104BB000026230E023E0FD2479D13E4401F07471BB
:104BC0002DD15EE025E0FD900262E0FCD14C2DFD90
:104BD00074692CD1B0ED8031E0FDD17DEE4401F05F
:104BE000747D2D807AD178E020E002818874792E5E
:104BF000D13E4401F074712ED15EE025E004FED177
:104C0000472EFE74692DD1B0EEF0900262E0247D53
:104C1000F582E43402F5837401F08075900262E05D
:104C2000FED1DBE0F4706AEED1F1D1D450379002BE
:104C300062E0D17DE0FD30E11D74792ED13ED18757
:104C400025E02402FE900262E0FCD14CFBC3EE9B07
:104C5000FE746D2C802CD178ED4402F0747D2ED141
:104C60004E14F0802CD178E030E11D74792ED13EC5
:104C7000D18725E02402FED14704FCC3EE9CFE74DC
:104C80006D2DD1DDEEF08009900262E0D14C24025E
:104C9000F0D16661877E00EF64017007900279E0D1
:104CA00020E134EF64024E700C900279E030E105AF
:104CB000A3E020E1227829E664047016900279E0EE
:104CC00030E10FA3E030E10AA3E030E105A3E020EA
:104CD000E1051266C0217C7BFF7A1C798390026912
:104CE000E090029AF090026AE090029BF090026BD2
:104CF000E090029CF090026CE090029D1222DF7B1B
:104D0000FF7A1C79B190026DE090029AF090026EE9
:104D1000E090029BF090026FE090029CF090027095
:104D2000E090029D1222DFE4900262F0127BD650E6
:104D300045D13BFF5401602EEF540270069002698A
:104D4000E0801E900262E0FFD1DBE0FD74692FD1AC
:104D5000B0E02DFFE433CF2401CF3400A2E713EFFE
:104D600013FFD1C6EFF0D1C6E0FFF46005900264F6
:104D7000EFF0D16680B6E4900262F0900262E0FF4C
:104D8000123463501674652FD1CCE0F47009900290
:104D900064E0FFD1C6EFF0D16680E0900265D1BF3C
:104DA00090F17DD1B890F17EF0900266D1BF90F184
:104DB0007FD1B890F180F0900267D1BF90F181D19E
:104DC000B890F182F0900268D1BF90F183D1B89091
:104DD000F184F07F0F125EA61197D196BEFF0CBF33
:104DE000FF09F1177A1C79DF126B59E4FFF1017B9F
:104DF000FF7A1C79EB90F17EE090029AF090F180BE
:104E0000E090029BF090F182E090029CF090F1849F
:104E1000E090029D1222DF7A1D791690F1DD127B5F
:104E20002790F1DEE090029BF090F1DFE090029C91
:104E3000F090F1E0E090029D0222DF74792FF5827C
:104E4000E43402F583E022900262E0FD247DF582E5
:104E5000E43402F583E022900262E0FE2471F582E0
:104E6000E43402F58322900262E004F0227D017BAB
:104E7000FF7E007F0402069E900262E0FE2481F520
:104E800082E43402F583224402F074752EF582E444
:104E90003402F583E0227B017AF179CC127B44FD68
:104EA0007C001206C4FEE42DFFEC3EFE2274692E47
:104EB000F582E43402F58322F0EF901D3E9322E068
:104EC000FF901D5F9322900262E02465F582E43436
:104ED00002F58322D39401EC948022246DF582E4C0
:104EE0003402F5832225E0248DF582E43402F58333
:104EF0002225E02485F582E43402F583E0FCA3E07A
:104F000022EF640190F18A7005E04402F022E0543F
:104F1000FDF022E64470F67828E6FF90037EEF125B
:104F2000672490E10D127C46FD90E10CE054F0F016
:104F3000ED54E190E10DF090C903E0540F1277F4C5
:104F400090037E127C057F2740027F3790A138EFC7
:104F500012672C90E10CE0440FF090E10DE0441E4C
:104F6000F090C903E044F0F0E490A144F0229003F3
:104F70007DEFF01261227009E02445F8E6782DF605
:104F80002212612B40437829E664047036782D762E
:104F90001190F1F7E0700690F1F8E06009782DE6E5
:104FA0004407F1168006F1D2E6782DF690F1F9E08B
:104FB000700690F1FAE06006782DF113800BF1D2C3
:104FC000E68001E4782DF68000782DF1D0A6072246
:104FD000E6FF90037DE02445F822FEEF25E0FFEE9A
:104FE0003322900262E0FE2475221228C41276C198
:104FF000EF640170469003CFE070401257CBF1C5CB
:10500000EF24FD6008146019146027802E7A20793F
:1050100054F1D17F03113C7F0112459A7118FF6151
:10502000297A207968F1D87F04113CE4FF12459A6F
:1050300080071230027F0171DD711822EF24FD60BC
:105040000D147002213C24F9700221D4610090E01B
:1050500084E04401F054FB7108711F90E085EF710A
:105060000878081209AD90E086EF710890E087EFAC
:10507000F0E4FF12235E123F3C7F0112235E900298
:105080006EEEF0A3EFF07F0512235E900270EEF05B
:10509000A3EFF07F0612235EAD07AC0690026C71A1
:1050A0000190E088F0EB90E089F09002707101903F
:1050B000E08AF0EB90E08BF090026E710190E08C52
:1050C000F0EB90E08DF0EC90E08EF0EF90E08F123E
:1050D0003B7F711F90E092123B7E78081209AD90E1
:1050E000E093123B7E90E094EFF0900032E090E08D
:1050F000A0F090002FE024F6601524FE60091460F3
:10510000162402701A801890E0A17401F0801590A6
:10511000E0A17402F0800D90E0A17403F08005E43A
:1051200090E0A1F0900399E090E095F090039BE06F
:1051300090E096F07BFF7A16791521CFE490E08419
:10514000F090E085F090E086F090E087F090E088C5
:10515000F090E089F090E08AF090E08BF090E08CA5
:10516000F090E08DF090E08EF090E08F913190E043
:1051700092F090E093F090E094F090E095F090E061
:1051800096F090E097F090E098F090E099F090E041
:105190009AF090E09BF090E09CF090E09DF090E021
:1051A0009EF090E09FF090E0A0F090E0A1F09129B7
:1051B000F090E0A4F090E0A5F090E0A6F090E0A7D9
:1051C000F090E0A8F090E0A9F07BFF7A16792D7FAF
:1051D00001023BAE90E084E04404F0E490E085F00E
:1051E00090F23CE090E086F090F23DE090E087F0B5
:1051F00090F23EE090E088F090F23FE090E089F09D
:1052000090F240E090E08AF090F241E090E08BF084
:1052100090F242E090E08CF090F243E090E08DF06C
:1052200090F244E090E08EF090F245E090E08FF054
:1052300090F246E090E090F090F247E090E091F03C
:1052400090F248E090E092F090F249E090E093F024
:1052500090F24AE090E094F090F24BE090E095F00C
:1052600090F24CE090E096F090F24DE090E097F0F4
:1052700090F24EE090E098F090F24FE090E099F0DC
:1052800090F250E090E09AF090F251E090E09BF0C4
:1052900090F252E090E09CF090F253E090E09DF0AC
:1052A00090F254E090E09EF090F255E090E09FF094
:1052B00090F256E090E0A0F090F257E090E0A1F07C
:1052C00090F258E090E0A2F090F259E090E0A3F064
:1052D00090F25AE090E0A4F090F25BE090E0A5F04C
:1052E00090F25CE090E0A6F090F25DE090E0A7F034
:1052F00090F25EE090E0A8F090F25FE090E0A9F01C
:1053000022E0FAA3E0FBEA22F0E47F02FEFDFC903B
:105310000039120A190208719003CF7401F0227843
:10532000101209ADEF540FFF22EF6401701B90E1E2
:1053300026F090E127F090E580E054DF716B54FB9C
:10534000F0ED54EF90E580F02290E580E04410719C
:105350006B4404F0ED442090E580F090E12674FF6A
:10536000F090E12774F8F022E04401F0FD90E10BA9
:10537000E022EF6401701790E128F090E580E0549E
:10538000F7716B54FDF0ED54FB90E580F02290E551
:1053900080E04404716B4402F0ED440890E580F035
:1053A00090E12874FFF02271727F01EF64017017A1
:1053B00090E129F090E580E054FD716B54FEF0ED32
:1053C00054FE90E580F02290E58071684401F0ED94
:1053D000440290E580F090E12974FFF022AE0712BC
:1053E000756FAA0712763DAB07127666EE90E084E1
:1053F0006023126850AE0390E0A2EEF090E0A3EFBD
:10540000F0E490E090F0AF0290E091EFF07BFF7A53
:10541000167944800FE054FDF0E4912991317BFF2F
:105420007A1679587F01023BAE90E0A2F090E0A39B
:1054300022F090E090F090E091F022E490026CF085
:105440007D187F0391B57F037E001245FEE4FD7F4A
:1054500003122D7878011209C09003A4120A259036
:10546000039BE024FE600B14600C2403700C7F0689
:10547000800A7F0A80067F0C80027F08E4FCFDFE24
:105480009003A4711278031209AD9003A8127C2630
:105490006401702090026CE0701A9003A8120A0D4B
:1054A00078011209C0E47B03FAF9F81208FC9003B2
:1054B000A8120A2522127C2E601314601814602092
:1054C0002403702490026DE090C740F0227BFF7AA5
:1054D00015796680067BFF7A15797CE4FF022EB38E
:1054E00090026DE090E690F02278617C027D017B75
:1054F000017A0379857E007F2B12069EB1F6126B2E
:10550000AE7F01122CFB1FF172E4F1DF7D0BE4FF93
:1055100091B5E4FF1233367D01E4FFEF120A97558F
:105520003E0055640355460455CE0855540955723E
:105530000B559B0C55D61D55E61E000055F5ED90FC
:10554000E5006008800BED90F2166005E04480F005
:1055500022E08076ED90F2176005E04410F022E042
:1055600054EFF022ED90F2166005E04408F022E0DE
:105570008025ED90F1A7600DE04408F090F1BBE0CC
:105580004450F0800BE054F7F090F1BBE054AFF0E2
:1055900090E530E04408F054F7F022ED90CA28601E
:1055A0000DE04439F090CA2AE0440FF0800BE0543B
:1055B000C6F090CA2AE054F0F090CA29E04439F0CD
:1055C00054C6F090E531E04480F0547FF022ED9035
:1055D000E509601D8016ED90E5126005E054FDF0D0
:1055E00022E04402F022ED90E5126005E054FEF066
:1055F00022E04401F0227901900264E07F00600221
:105600007F01AE07900265E07F8060027FC0AC073B
:10561000900266E07F0060027F80AB07E4FFF13A12
:105620007D12F133641E70057D140F800790026AAD
:10563000E0FD7F01D1B990026BE04CFD7F02D1B952
:10564000EB4E0FD1C4AD010FD19F7D810FD1B9E4D5
:10565000FD7F21D1B37F60D1B37D087F80D1B9E4D4
:10566000FD7F90D1B97F01F13A7F0AD1B97F22F154
:105670003A7D14E4FFF133FD0FD1B990026BE04C99
:10568000FD0FD1B9AF06EB4F7F03D1C4AF01AD071A
:105690007F07D19F7D810FD1B97D087F10801AD1FE
:1056A000B97D020FD1B97D0F0FD1B97D040FD1B9EA
:1056B000E4FD0FD1B90FD1B90F90F105EFF090F1E2
:1056C00053EDF022FDD1B97D010FD1B91D0FD1B934
:1056D0000D0F80E574352FF8E6540F782AF6640133
:1056E0007044792BE766601E122CF5E4FD7F03D130
:1056F000B9E4FD7F04D1B9E4FD7F05D1B9E4FD7FB4
:1057000006D1B9124F177F01F14578267601E4786A
:1057100022F608F608F67F01126BF9E4FF124F013A
:10572000782AE608F622782AE6FF1237EF400308C7
:10573000A60722D1B990026AE022E490F103F0902A
:10574000F104EFF022EF64017010F16AF090F106BD
:1057500074FFF090F152740FF022E4F16A7402F0D9
:10576000E490F106F090F152F02290F119F090F1EE
:105770001A2290F1B7E05437F0EF24FB6012146066
:105780001714601C2404702790F1B7E044C0801601
:1057900090F1B7E04448800E90F1B7E0448880066D
:1057A00090F1B7E044C8F090F1C2E04440F022909C
:1057B000F1B7E044C8F090F1C2E054BFF090F1B905
:1057C000E04410F022E49003D5F0229003D4E0FFEF
:1057D000227BFF7F01023BAE7BFF7F01023BAE904D
:1057E000C906E054FBF0221237861247CE90E0B192
:1057F000E0FB6432600280027B32125808124FEAEA
:105800001227020240107B327D017F0A900261EF75
:10581000F0A3EDF0A3EBF0D3946474809480400B7C
:105820007BFF7A2279547F01023BAE900263E0FF56
:105830009003B0E06F700201BA900263E09003B091
:10584000F07BFF7A22796890028111CE900262E0AB
:10585000FBE4FAF9F87F807EBBFDFC12115E90023A
:1058600064EEF0A3EFF0900263E0FB64647009A3C0
:10587000E0FFA3E0A3CF8010900264123D687D6436
:10588000120750EB713AA3EEF0A3EFF07F0A7132EA
:10589000E4FD7F0A12276B900261E024F760171481
:1058A000601024FE600824FE701011BB802611BB1E
:1058B000804511BB806411BB314722900264E0FE39
:1058C000A3E0FFA3E0FCA3E0FD22E090028BF07FC9
:1058D00001023BAE90E610316A90E611F0EA90E6E4
:1058E00012F090E613EBF0E490E614F0EC90E6157D
:1058F000F090E616EDF02290E626313D90E627F096
:10590000EA90E628F090E629EBF0E490E62AF0EC45
:1059100090E62BF090E62CEDF02290E63C313D90A5
:10592000E63DF0EA90E63EF090E63FEBF0E490E6EC
:1059300040F0EC90E641F090E642EDF022AB07AA91
:1059400006E04410F0E42290E652316A90E653F00B
:10595000EA90E654F090E655EBF0E490E656F0EC71
:1059600090E657F090E658EDF022AB07AA06E04427
:1059700010F0E4227F011244D4127348900032E008
:10598000FFF1A5900032E0FFD1B0900033E0FFF1CD
:105990004E7BFF7A1279C5900032E0900281F09040
:1059A0000033E090028211CE51A090002AE0FF1255
:1059B000739190003DE0FF515390A37BE054FBF0C6
:1059C00090002BE0600B90A37BE04404F07F01D1BA
:1059D000D47F01F11790002EE0FFD1E490002EE07B
:1059E000FFF164912191299131E4FFF129E4FF5104
:1059F00045900034E0FF1273C290002FE0FF7E3E1E
:105A00007D21E4FCEC9139502BEC9168B50722EC38
:105A100075F005A42403F582E43400F583E0FEEC80
:105A200075F005A42402F582E43400F583E0FD80DE
:105A3000030C80D0AF0690F986E054C0F04FF09090
:105A4000F988EDF022911A7005E04408F022E05444
:105A5000F7F022900261EFF06401700D519844015B
:105A6000F07BFF7A19795A8029900261E064027014
:105A70000D51984402F07BFF7A19798380149002CB
:105A800061E06403701190F99751A7F07BFF7A19D8
:105A900079ACE4FF123BAE2290F997E054FCF0227F
:105AA00090F9AA74AAF022E054FCF044032290A3D7
:105AB00000E0547FF0FD90A302E04401F0ED44408B
:105AC00090A300F090E2897420F0E4900261F090DD
:105AD000E289E054BFF0FD90E10951A7F0ED4440A8
