:100000000210100256430228A62222027537022F40
:100010006F2222027A3CE4FFFE1206C4600C0FEF4E
:1000200070010E09E970F20A80EF22027A41EE3087
:10003000E707C3E49FFFE49EFE2212235E90026165
:10004000020A62027A3D02038EE86480F8E933E82E
:100050003360110460F0ED33EC337009E8FCE9FD26
:10006000EAFEEBFF220460DED3EB9FEA9EE99DE807
:10007000C2E78CF0C2F795F0400CE8CCF8E9CDF976
:10008000EACEFAEBCFFB12035985D0F05804700387
:1000900020D5B3E80470075002B2D502039892D578
:1000A000EC0460F7E4CCC0E0C398F8603B941860BF
:1000B00008400DD0E0FB020370E4FBFAC9FC802885
:1000C000E830E406E4C9FBE4CAFCE830E305E4C92F
:1000D000CACBFCE854076010F8C3E913F9EA13FA35
:1000E000EB13FBEC13FCD8F130F52FC3E49CFCEFD1
:1000F0009BFFEE9AFEED99FDD0E0FBEF4E4D4C706C
:100100001222DB03020395EC2CFCEF33FFEE33FEEF
:10011000ED33FDED30E7EB020370EF2BFFEE3AFE1F
:10012000ED39FDD0E0FB50130BBB0003020398ED4B
:1001300013FDEE13FEEF13FFEC13FC020370EC4D06
:100140006011E8497017ED33EC3304600DE4FCFFF7
:10015000FEFD22E933E8330470F802038E120359DE
:1001600058046009E4CC2481500628500902039801
:10017000284003020395C0E0EB4A7044B98006D0E2
:10018000E0FB020384EF4E701CBD8008EBFFEAFE2B
:10019000E9FD80EBE98DF0A4FEE5F0020227E9CD50
:1001A000F9EAFEEBFFEF89F0A4FCE5F0CE89F0A4BC
:1001B0002EFFE435F0CD89F0A42DFEE435F0806704
:1001C000EF4E7005BD80D780C3EF8BF0A4ACF0EE8E
:1001D0008BF0A42CFCE435F0F8EF8AF0A42CE5F0C9
:1001E00038FCE433CB8DF0A42CFCE5F03BF8EE8A30
:1001F000F0A42CFCE5F038F8E433CF89F0A42CFC13
:10020000E5F038CF3400CE89F0A42FFFE5F03EFEB4
:10021000E433C98DF0A42EFEE5F039CD8AF0A42F89
:10022000FFE5F03EFEE43DFD33D0E0FB50070BBBA5
:10023000000F020398EC2CFCEF33FFEE33FEED339E
:10024000FD020370020398EC5D046005E859047038
:100250000302038E120359580460F6EC4860F2EC76
:100260007004FDFEFF22C860DB2481C85009C398DA
:10027000600250060203959850CAF582E9294B4A5C
:100280007005AB8202038475F0007C1A7880C3EF9E
:100290009BEE9AED99400DC3EF9BFFEE9AFEED9910
:1002A000FDE842F0DC23ACF0D0E0FFD0E0FED0E08F
:1002B000FDAB8220E7101BEB60BAEC2CFCEF33FFA8
:1002C000EE33FEED33FD020370E803F830E705C0BE
:1002D000F075F000EF2FFFEE33FEED33FD40B83048
:1002E000E7C280AA75F020800E75F010800575F0C9
:1002F000087D007E007F003392D530D50312098E31
:10030000EC334010EF33FFEE33FEED33FDEC33FC06
:10031000D5F0ED22E5F0247EA2D513CC92E7CDCE28
:10032000FF22EDD2E7CD33EC3392D524814006E4B1
:10033000FFFEFDFC22FCE4CFCECDCC24E0501174B6
:10034000FF80EDC3CC13CCCD13CDCE13CECF13CFC6
:100350000470F030D5DE02098EE9D2E7C933E83304
:10036000F892D5EDD2E7CD33EC33FC5002B2D52272
:10037000EC30E7100FBF000C0EBE00080DBD0004EE
:100380000BEB6014A2D5EB13FCED92E7FD2274FF9A
:10039000FCFDFEFF22E480F8A2D574FF13FC7D80F3
:1003A000E480EF74F8CC6480CCC86480C8F5820423
:1003B000604FC3EB9FF5F0EA9E42F0E99D42F0E802
:1003C0009C45F0603C501DE5825FFFE582D313CB76
:1003D0005BCBF42B5582FB50280ABA002409B900E4
:1003E0002008801DE5825BFBE582D313CF5FCFF44D
:1003F000C3132F5582FF50090EBE00050DBD00012D
:100400000CC3EB9FF5F0EA9E42F0E99D42F0E89CB8
:1004100045F06007CC4820E701B3EC22F920E7362D
:1004200024F950037907E4F42402FBE58215827075
:10043000021583DBF6E024FB501BE96014E4F0E5D1
:1004400082158270021583E004F0B40A08E4F0D942
:10045000EE7401F00A22C2D522ED33EC3392D5FAC4
:10046000602AB4FF33EDC2E77BFF60067A04797E31
:10047000E4227A04798720D5047A047982224E61B5
:100480004E002B494E46002D494E4600E47A08F0B6
:10049000A3DAFC7B00740722C083C082ECC0E0EDCD
:1004A000C0E0EEC0E0EFC0E0EA75F010A4CAABF027
:1004B00075F04DA42BFBE435F0FCEA2410FAEB3484
:1004C000C5FBEC34D9FCEDC2E7FF75F056A4F4246B
:1004D00011C5F0F434C58FF0A42AE5F03BE43CF0FC
:1004E00020E71412058ED0E0FFD0E0FED0E0FDD072
:1004F000E0FC1202478014F40412058ED0E0FFD015
:10050000E0FED0E0FDD0E0FC12013ED082D083E0DE
:10051000FAEDD2E7CD33EC332482FBE4C3CF33CF03
:10052000CE33CECD33CD33DBF37B0775F00A846059
:1005300004F0A31B0AE5F0F0A38FF0740AA4FFAC4B
:10054000F08EF0740AA42CFEACF050010C8DF07407
:100550000AA42CFDE435F0F0A3DBDE7407223F8013
:1005600000004120000042C80000447A0000461C00
:10057000400047C35000497424004B1896804CBE7D
:10058000BC205A0E1BCA6753C21C749DC5AEFB60CB
:10059000065407601C23231205BCEB543860091273
:1005A00005A81205B712013EECF8EDF9EEFAEFCB13
:1005B00022EB1205B780F1543803241C90055EFE2F
:1005C00093FC0EEE93FD0EEE930ECE93FF22E70901
:1005D000F608DFFA8046E709F208DFFA803E8882F3
:1005E0008C83E709F0A3DFFA8032E309F608DFFA2B
:1005F0008078E309F208DFFA807088828C83E3094F
:10060000F0A3DFFA806489828A83E0A3F608DFFA28
:10061000805889828A83E0A3F208DFFA804C80D276
:1006200080FA80C680D4806980F28033801080A6F2
:1006300080EA809A80A880DA80E280CA803389824A
:100640008A83ECFAE493A3C8C582C8CCC583CCF0F6
:10065000A3C8C582C8CCC583CCDFE9DEE7800D899D
:10066000828A83E493A3F608DFF9ECFAA9F0EDFBA4
:100670002289828A83ECFAE0A3C8C582C8CCC583EC
:10068000CCF0A3C8C582C8CCC583CCDFEADEE88045
:10069000DB89828A83E493A3F208DFF980CC88F0B7
:1006A000EF60010E4E60C388F0ED2402B4040050E8
:1006B000B9F582EB2402B4040050AF232345822312
:1006C00090061E73BB010689828A83E0225002E7EE
:1006D00022BBFE02E32289828A83E49322BB010CBF
:1006E000E58229F582E5833AF583E0225006E92583
:1006F00082F8E622BBFE06E92582F8E222E582299D
:10070000F582E5833AF583E49322BB010689828A68
:1007100083F0225002F722BBFE01F322F8BB010D49
:10072000E58229F582E5833AF583E8F0225006E96F
:100730002582C8F622BBFE05E92582C8F222EF8D8C
:10074000F0A4A8F0CF8CF0A428CE8DF0A42EFE2229
:10075000BC000BBE0029EF8DF084FFADF022E4CC8D
:10076000F875F008EF2FFFEE33FEEC33FCEE9DEC56
:10077000984005FCEE9DFE0FD5F0E9E4CEFD22ED9C
:10078000F8F5F0EE8420D21CFEADF075F008EF2FE6
:10079000FFED33FD4007985006D5F0F222C398FDD7
:1007A0000FD5F0EA22C2D5EC30E709B2D5E4C39DFB
:1007B000FDE49CFCEE30E715B2D5E4C39FFFE49E58
:1007C000FE120750C3E49DFDE49CFC800312075019
:1007D00030D507C3E49FFFE49EFE22C5F0F8A3E0F6
:1007E00028F0C5F0F8E582158270021583E038F034
:1007F00022BB0110E58229F582E5833AF583E0F515
:10080000F0A3E0225009E92582F886F008E622BB31
:10081000FE0AE92582F8E2F5F008E222E5832AF5EE
:1008200083E993F5F0A3E99322F8BB0111E582294E
:10083000F582E5833AF583E8F0E5F0A3F02250096C
:10084000E92582C8F608A6F022BBFE09E92582C880
:10085000F2E5F008F222EF2BFFEE3AFEED39FDEC67
:1008600038FC22C3EF9BFFEE9AFEED99FDEC98FC5D
:1008700022E88FF0A4CC8BF0A42CFCE98EF0A42C01
:10088000FC8AF0EDA42CFCEA8EF0A4CDA8F08BF04D
:10089000A42DCC3825F0FDE98FF0A42CCD35F0FC4B
:1008A000EB8EF0A4FEA9F0EB8FF0A4CFC5F02ECD17
:1008B00039FEE43CFCEAA42DCE35F0FDE43CFC22FC
:1008C00075F008758200EF2FFFEE33FECD33CDCCEF
:1008D00033CCC58233C5829BED9AEC99E582984072
:1008E0000CF582EE9BFEED9AFDEC99FC0FD5F0D64F
:1008F000E4CEFBE4CDFAE4CCF9A88222B800C1B979
:100900000059BA002DEC8BF084CFCECDFCE5F0CBB6
:10091000F97818EF2FFFEE33FEED33FDEC33FCEBEF
:1009200033FB10D703994004EB99FB0FD8E5E4F9AA
:10093000FA227818EF2FFFEE33FEED33FDEC33FC97
:10094000C933C910D7059BE99A4007EC9BFCE99A8B
:10095000F90FD8E0E4C9FAE4CCFB2275F010EF2FD0
:10096000FFEE33FEED33FDCC33CCC833C810D707D0
:100970009BEC9AE899400AED9BFDEC9AFCE899F80B
:100980000FD5F0DAE4CDFBE4CCFAE4C8F922C3E4F5
:100990009FFFE49EFEE49DFDE49CFC22EB9FF5F0AE
:1009A000EA9E42F0E99D42F0E89C45F022E8600FA3
:1009B000ECC313FCED13FDEE13FEEF13FFD8F12291
:1009C000E8600FEFC333FFEE33FEED33FDEC33FC95
:1009D000D8F122BB010789828A83020A0D5005E9FA
:1009E000F8020B16BBFE05E9F8020B2289828A8306
:1009F000020B2EBB010789828A83020A255005E972
:100A0000F8020B3EBBFE05E9F8020B4A22E0FCA30C
:100A1000E0FDA3E0FEA3E0FF22E0F8A3E0F9A3E0FD
:100A2000FAA3E0FB22ECF0A3EDF0A3EEF0A3EFF0CD
:100A300022A8828583F0D083D082120A48120A4805
:100A4000120A48120A48E473E493A3C583C5F0C5AB
:100A500083C8C582C8F0A3C583C5F0C583C8C58255
:100A6000C822E0FBA3E0FAA3E0F922F8E0FBA3A38D
:100A7000E0F925F0F0E582158270021583E0FA387E
:100A8000F022EBF0A3EAF0A3E9F022E493FB740177
:100A900093FA740293F922D083D082F8E49370120F
:100AA000740193700DA3A393F8740193F582888366
:100AB000E4737402936860EFA3A3A380DFEC8EF06D
:100AC000A4CCC5F0CCCDF8EFA4CEC5F02DFDE43C10
:100AD000FCE8A42EC8C5F03DFDE43CFCEFA4FFE516
:100AE000F028FEE43DFDE43CFC22EF4E6012EF6096
:100AF000010EEDBB010B89828A83F0A3DFFCDEFAD5
:100B00002289F05007F709DFFCA9F022BBFEFCF3B5
:100B100009DFFCA9F022E6FC08E6FD08E6FE08E68F
:100B2000FF22E2FC08E2FD08E2FE08E2FF22E49375
:100B3000FC740193FD740293FE740393FF22ECF6A0
:100B400008EDF608EEF608EFF622ECF208EDF208F2
:100B5000EEF208EFF222E508244FF582E43403F5C3
:100B600083E005082290034C30070390034FE4759F
:100B7000F001120A6B0206C42000E97F2ED2008029
:100B800018EF540F2490D43440D4FF30040BEF24DA
:100B9000BFB41A0050032461FFE50960021509057E
:100BA0000CE50C7002050B30070E90034CE475F059
:100BB00001120A6BEF02070A020FD97403D20780F1
:100BC00003E4C207F50890034C120A82E4F509F524
:100BD0000BF50CE50960077F20120B9980F5750A6B
:100BE000FFC201C200C202C203C205C206C208128D
:100BF0000B65FF700D3007057F00120BAAAF0CAE1E
:100C00000B22B4255FC2D5C204120B65FF24D0B4F9
:100C10000A00501A75F00A780930D50508B6FF01A8
:100C200006C6A426F620D5047002D20380D924CFAC
:100C3000B41A00EF5004C2E5D204020E9CD2018027
:100C4000C6D20080C0D20280BCD2D580BAD2058084
:100C5000B47F20120B992002077401B5090040F1FE
:100C6000120B56FF120B99020BD3D208D2068095B5
:100C7000120B56FB120B56FA120B56F94A4B700622
:100C8000799A7A0F7BFF20022EE509602A7E008E7A
:100C9000827583001206DD60060EEE650A70F0C2F2
:100CA000D5EBC0E0EAC0E0E9C0E0EE120EFDD0E016
:100CB000F9D0E0FAD0E0FB1206C4FF60AAEBC0E076
:100CC000EAC0E0E9C0E0120B99D0E02401F9D0E0DD
:100CD0003400FAD0E0FBE50A0460DCD50AD980874D
:100CE000D20280A2120EDF60F7E50A70010412043E
:100CF0001CA90A600DE50A600914F50A120F87EFB6
:100D000060F3EA30E702F404C3995079EAF4250A63
:100D10000430E701E404F50A800D120EDF60C1EA39
:100D2000050A250A12041CEA90037BF030E701E46F
:100D3000250A04D50A0420050114120EFDE4C0E0C2
:100D4000120F8790037BE0601320E70714F0120B6B
:100D500081802204F0D0E014C0E07F00120B81E516
:100D60000A6007120B78150A800B300503120B7806
:100D7000D0E0020BD3D0E00480C4120EDF609EE509
:100D80000A0412041C90037BEAF0E50A20050260C5
:100D900001042404120EFD74FF04C0E0120F871238
:100DA0000B81E50A2005026003120B78D0E0B50A3A
:100DB000E87F45120B8B90037BE07F2B30E7047FAD
:100DC0002DF404C0E0120B99D0E075F00A84C0F055
:100DD000120B82D0E0120B82020BD37910800279C1
:100DE00008C206C2088008D2D5790A8004790AC2EE
:100DF000D5E50A047002F50AE4FAFDFEFF120B566F
:100E0000FC7B08200113120B56FD7B1030000A12E8
:100E10000B56FE120B56FF7B20EC3382D592D55039
:100E200013C3E43000069FFFE49EFEE42001039D0F
:100E3000FDE49CFCE4CBF8C201EC700CCFCECDCC31
:100E4000E824F8F870F38017C3EF33FFEE33FEEDBC
:100E500033FDEC33FCEB33FB994002FB0FD8E9EB9D
:100E6000300105F8D0E0C448B201C0E00AEC4D4EB4
:100E70004F78207B0070C2EAB50A0040BCC0E01287
:100E80000EFFD0F0D0E0200104C4C0E0C4B201C025
:100E9000F0120B82D0F0D5F0EB020BD3120A970CB4
:100EA00070530DDB580C414C0C3D420DDF4F0DE7EC
:100EB000440DE7490C56430DED550D1A460D7A4584
:100EC0000CE4470FBA500C452D0C492E0C6C2B0C22
:100ED0004D230C6A200FA32A0C054800000C64E582
:100EE0000AB4FF03750A06120B56FC120B56FD12CC
:100EF0000B56FE120B56FF900374020459790AA296
:100F0000D5200314300509B910020404B9080104FE
:100F1000A2D52006025001042002689202B5090001
:100F20005034C0E07F203003197F30A20272067275
:100F300005500F120F56C202C206C205C2087F300A
:100F4000800F300503E9C0E0120B99300503D0E0B3
:100F5000F9D0E0B509CC3005177F30B9100C120B71
:100F6000997F583004077F788003B90803120B99E2
:100F70003002057F2D020B997F202008F87F2B205F
:100F800006F322920280CF7F00B40700500B247436
:100F9000F582E43403F583E0FF22286E756C6C293A
:100FA00000D201120B563001F8C201780930D50188
:100FB00008F6020C052D50434958120B562403B471
:100FC00005004001E4900FB593120B8A743A120B9E
:100FD0008AD203750904020DDBEFB40A07740D12FF
:100FE0000FE4740A309811A899B8130CC29830987D
:100FF000FDA899C298B811F63099FDC299F59922C9
:1010000025090302FFFFFFFFFFFFFFFFFFFFFFFFB9
:10101000787FE4F6D8FD7581660210570222A9E4B4
:1010200093A3F8E493A34003F68001F208DFF48071
:1010300029E493A3F85407240CC8C333C4540F44C1
:1010400020C8834004F456800146F6DFE4800B019B
:101050000204081020408090109CE47E019360BC44
:10106000A3FF543F30E509541FFEE493A360010E33
:10107000CF54C025E060A840B8E493A3FAE493A35A
:10108000F8E493A3C8C582C8CAC583CAF0A3C8C57B
:1010900082C8CAC583CADFE9DEE780BE4103CF004C
:1010A0004403CB000000004103DC004103DB0041AE
:1010B00003DA004103D2004103DD0041037F004415
:1010C000038000000000602800000010000E0001F6
:1010D00012101E000218213E00031E410D000410D4
:1010E000012C000518240C000618231C00071820EA
:1010F0003D004103B0005A03B10007A12009B20826
:101100007000A2003C006408B108700039000400BF
:1011100004010100900346E0FFA3E0FEA3E0CF90AE
:10112000034FF0A3EEF0A3EFF0900349E0CBF0A360
:10113000E0CAF0A3E0C9F07F22900352AD82AC83F5
:101140001206C48D828C83F0A309E970010ADFECDA
:10115000900349E0FBA3E0FAA3E0F9020BBBC2D580
:10116000E830E70FB2D5E4C39BFBE49AFAE499F9BF
:10117000E498F8EC30E717B2D51211941208FCE4A9
:10118000C39BFBE49AFAE499F9E498F88003120807
:10119000FC30D50DE4C39FFFE49EFEE49DFDE49C7E
:1011A000FC2254785374617465203D2030782530DA
:1011B00032627800525820536574204576656E740B
:1011C0003A253032627820004D697069496E436C6F
:1011D0006B3A256C642C2063616C6320756C4279DA
:1011E0007465636C6B3A256C642C20756C5068795F
:1011F000436C6B3A256C642C2075634270703A2501
:1012000062642C2075635478506F72744E756D3A19
:10121000307825303262782C20756354784C616EBA
:10122000654E756D3A3078253032627800427572BD
:101230007374204D6F6465206C616E6520726174FB
:101240006520696E6372656173652038304D0052A8
:10125000585B485D3A2048746F74616C3A25642C81
:10126000486163746976653A25642C4873773A253A
:10127000642C4866703A25642C4862703A25642CC8
:101280004873706F6C3A2562640052585B565D3A41
:101290002056746F74616C3A25642C5661637469CE
:1012A00076653A25642C5673773A25642C56667019
:1012B0003A25642C5662703A25642C5673706F6C14
:1012C0003A25626400506F72743A20253032627899
:1012D0002C204C616E653A202530326278007264B1
:1012E00062797465636C6B3A25642C207264706952
:1012F00078636C6B3A256420006873773A25642C18
:10130000206862703A256420686163746976653A82
:101310002564007563427070203078253032627821
:101320003B00726561642064656C61793A256C7577
:101330000041645F6C6D74785F77726974655F6398
:101340006C6B203D20256C756B687A0041645F6C86
:101350006D74785F726561645F636C6B203D2025FE
:101360006C756B687A0000FFFFFFFFFFFF0006B39C
:10137000A02801010101041F0103803E2278EE69CB
:1013800095AD5246A1270F5054BFCF0081408180B8
:101390009500714F81C0B300D1C0010108E8003051
:1013A000F2705A80B0588A0055502100001E00008B
:1013B00000FD0018901EFF8A000A20202020202017
:1013C000000000FC005647323855514C31410A208C
:1013D0002020000000FF00313233343536373839F1
:1013E0003032380A01F002035AF15004131F100F73
:1013F0001E015D5E5F60617603123F23090707836C
:10140000010000E200EA6D030C001000383C2800E7
:10141000600102036DD85DC401788853123078836F
:10142000341D6D1A000002013090F0000000000031
:10143000E305C000E421001C00E60605016060121F
:10144000366C80A070703E803020080C6D552100F5
:10145000001A6FC200A0A0A05550302035006D5575
:101460002100001A0027000000000000000000001A
:10147000000000000000000000000000000000006C
:10148000000000000000000000000000000000005C
:10149000000000000000000000000000000000004C
:1014A000000000000000000000000000000000003C
:1014B000000000000000000000000000000000002C
:1014C000000000000000000000000000000000001C
:1014D000000000000000000000000000000000000C
:1014E00000000000000000000000000000000000FC
:1014F00000000000000000000000000000000000EC
:1015000000000000000000000000000000000000DB
:1015100000000000000000000000000000000000CB
:1015200000000000000000000000000000000000BB
:1015300000000000000000000000000000000000AB
:10154000000000000000000000000000000000009B
:10155000000000000000000000000000000000008B
:101560000000000000000A5468697320666D207254
:1015700078706C6C5F696E5F636C6B000A546869AD
:101580007320666D20646874785F6469765F6C6947
:101590006E6B5F636C6B000A5741524E494E473A7F
:1015A0002046726571206D657465722067657420D0
:1015B0006661696C005761726E696E673A20696E88
:1015C00070757420697320696E76616C6964000AB5
:1015D0006C6F6164206B657920646F6E655B307839
:1015E00025303262785D000A5061747465726E2035
:1015F0007063722062616E64203D20307825303245
:101600006278000A5061747465726E207063722093
:101610006C6F636B004D495049566964496E666F43
:10162000557064617465212121212121004D4950AB
:1016300049566964496E666F436C65617221212168
:1016400021212100417564496E666F557064617493
:101650006521212121212100417564496E666F4376
:101660006C656172212121000A466C617368204516
:10167000444944204C6F6164000A466C61736820E1
:1016800045444944206E6F742065787369743A004C
:1016900054784576656E742D256264000000000064
:1016A000000000000000000000000000000000003A
:1016B000000000000000000000000000000000002A
:1016C000000000000000000000000000000000001A
:1016D000000000000000000000000000000000000A
:1016E00000000000000000000000000000000000FA
:1016F00000000000000000000000000000000000EA
:1017000000000000000000000000000000000000D9
:1017100000000000000000000000000000000000C9
:1017200000000000000000000000000000000000B9
:1017300000000000000000000000000000000000A9
:101740000000000000000000000000000000000099
:101750000000000000000000000000000000000089
:101760000000000000000000000000000000000079
:101770000000000000000000000000000000000069
:101780000000000000000000000000000000000059
:101790000000000000000000000000000000000049
:1017A0000000000000000000000000000000000039
:1017B0000000000000000000000000000000000029
:1017C0000000000000000000000000000000000019
:1017D0000000000000000000000000000000000009
:1017E00000000000000000000000000000000000F9
:1017F00000000000000000000000000000000000E9
:1018000000000000000000000000000000000000D8
:1018100000000000000000000000000000000000C8
:1018200000000000000000000000000000000000B8
:1018300000000000000000000000000000000000A8
:101840000000000000000000000000000000000098
:101850000000000000000000000000000000000088
:101860000000000000000000000000000000000078
:101870000000000000000000000000000000000068
:101880000000000000000000000000000000000058
:101890000000000000000000000000004D697069B9
:1018A00020445349204F7574004D6970692043539B
:1018B00049204F7574004D697069204F757420443C
:1018C000697361626C6500506F727420307E3320E2
:1018D00052702043616C6920526573756C743A20B4
:1018E00025303262782C2025303262782C20253049
:1018F0003262782C20253032627800506F7274206A
:10190000307E332052642043616C692052657375C8
:101910006C743A2025303262782C2025303262787F
:101920002C2025303262782C202530326278004419
:1019300050687920436C6B206275727374204D6F10
:101940006465004450687920436C6B20636F6E744B
:10195000696E7565204D6F64650044534920766952
:1019600064656F204E4F4E5F42555253545F4D4F4A
:1019700044455F574954485F53594E435F45564568
:101980004E540044534920766964656F204E4F4E93
:101990005F42555253545F4D4F44455F5749544839
:1019A0005F53594E435F50554C53450044534920B3
:1019B000766964656F2042555253545F4D4F4445DC
:1019C000004D49504954585F33445F4D4F44453AA8
:1019D000204D4950495F4C4546545F524947485451
:1019E0005F4D4F4445004D49504954585F33445F63
:1019F0004D4F44453A204D4950495F4E4F5F334467
:101A00005F4D4F44450076636F20446174615261BD
:101A100074653A20256C752C20256C7500506F7309
:101A20007420646976203D203200413230372052E4
:101A3000475F4C4D5458504C4C5F52414E47455FA8
:101A400053454C203A2030782530326278004132BC
:101A50003041204C4D5458504C4C5F4449565F53D4
:101A60004554203A2030782530326278004C4D546D
:101A700058504C4C2063616C69206661696C004C65
:101A80004D5458504C4C206C6F636B20666C6167F2
:101A90003A3078253032627820004C4D5458504C02
:101AA0004C20756E6C6F636B004C4D5458504C4C11
:101AB0002063616C6962726174696F6E2062616E2D
:101AC000646F75743A20307825303262782030782F
:101AD0002530326278004279746520636C6B3A2558
:101AE000754D687A00636B5F706F7374202830786F
:101AF0004639413929203D2030782530326278003E
:101B0000636B5F7A65726F202830784639413729D8
:101B1000203D20307825303262780068735F6C7029
:101B20007820202830784639413429203D203078EB
:101B300025303262780068735F70726570202830DB
:101B4000784639413529203D203078253032627879
:101B50000068735F747261696C2830784639413669
:101B600029203D20307825303262780068735F721A
:101B7000717374202830784639384129203D20304F
:101B80007825303262780000000000000000000A72
:101B9000547261696E696E6720657120696E666F47
:101BA0003A000A4C302076616C69645B30782530ED
:101BB00034785D2C45515B307825303262785D0099
:101BC0000A4C312076616C69645B3078253034785A
:101BD0005D2C45515B307825303262785D000A4CCF
:101BE000322076616C69645B3078253034785D2C06
:101BF00045515B307825303262785D000A4C3320E5
:101C000076616C69645B3078253034785D2C4551A1
:101C10005B307825303262785D000A45514869674B
:101C2000203D2030782530326278000A45514C6FD3
:101C300077203D2030782530326278000A534341C6
:101C40004E205354524154000A4645435354415484
:101C500045203D2030782530326278000A4C616E94
:101C600065457272203D203078253034782C3078EC
:101C7000253034782C3078253034782C3078253065
:101C80003478000A5363616E5F45514C4F57203DD5
:101C900020307825303262782C30782530326278E6
:101CA0002C307825303262782C30782530326278CA
:101CB000000A5363616E5F4551484947203D20301B
:101CC0007825303262782C307825303262782C30AA
:101CD0007825303262782C30782530326278000AEC
:101CE000414344525F4953535545000A56616C695C
:101CF000644571203D20307825303262782C307870
:101D000025303262782C307825303262782C307869
:101D10002530326278000A536B6577203D20307899
:101D200025303262782C307825303262782C307849
:101D300025303262782C307825303262780000000D
:101D40000102030405060708090A0B0C0D0E0F0F0C
:101D50000F0F0F0F0F0F0F0F0F0F0F0F0F0F0F00A2
:101D60000000000000000000000000000000000073
:101D70000102030405060708090A0B0C0D0E0F0FDC
:101D8000FFFFFFFFFFFFFFFFFFFFFFFF000000005F
:101D900001010101000000000A436F6C6F72696D60
:101DA00065747279206368616E6765203D203078C4
:101DB0002530326278000A44705278494E464F3AD4
:101DC000000A486270202020203A20252D38642007
:101DD00020566270202020203A20252D3864000AE9
:101DE000486670202020203A20252D386420205677
:101DF0006670202020203A20252D3864000A487380
:101E0000796E6320203A20252D386420205673797E
:101E10006E6320203A20252D3864000A48616374DF
:101E20002020203A20252D3864202056616374201C
:101E300020203A20252D3864000A48746F6C202039
:101E4000203A20252D3864202056746F6C202020E5
:101E50003A20252D3864000A446570746820203AC1
:101E600020252D3862642020537061636520203A5C
:101E700020252D386264000A506978436C6B203A43
:101E800020252D386C6420205065616B436C6B3AC3
:101E900020252D386C64000A52656672657368529D
:101EA000617465203D202564000A52785374617482
:101EB00065203D20256264000A4470527820556EEA
:101EC000706C7567000A527820506C7567000A576D
:101ED00061697420454343000A456363206572725B
:101EE000000A52782072652D747261696E696E679E
:101EF000000A534B657720556E6C6F636B000A4385
:101F00006F6C6F72207370616365206368616E67C8
:101F100065000A4D7361206368616E6765000A445D
:101F200053432043484E47000A476F746F20504385
:101F300052000A417564696F20636867000A414373
:101F4000445220556E6C6F636B000A524154455FDA
:101F50004C414E45203D20307825303262782C307F
:101F6000782530326278000A44652D736B657720DE
:101F7000657272000A57616974207063722073740D
:101F800061626C652E2E2E000A5043522048415249
:101F900044205245534554000A4750494F2054723B
:101FA0006967676572204C6F77000A4750494F2078
:101FB000547269676765722048696768000A4470EF
:101FC0002052782076696420696E666F3A000A4371
:101FD0006F6C6F7253706163655B2562645D000AAC
:101FE000436F6C6F7244657074685B2562645D005A
:101FF0000A52785F5065616B5F636C6B203D2020F7
:10200000256C64007563614272696768746E6573FC
:10201000735B315D3A307825303262782C207563FD
:10202000614272696768746E6573735B325D3A30E2
:1020300078253032627800445052585F53544154EE
:1020400049435F4844525F4E4F544946595F455695
:10205000454E540054585F564944454F5F4F4E5FBC
:102060004556454E545F3300445052585F564944DC
:10207000454F5F4F46465F4556454E5400000000B1
:10208000444542554700494E464F005741524E0085
:102090004552524F520043524954000A5B252D3598
:1020A000735D2025730003FF2080FF2086FF208BB7
:1020B000FF2090FF209600000000000000000000BC
:1020C0000000000000000000000000000000000010
:1020D0000000000000000000000000000000000000
:1020E00000000000000000000000000000000000F0
:1020F00000000000000000000000000000000000E0
:1021000000000000000000000000000000000000CF
:1021100000000000000000000000000000000000BF
:1021200000000000000000000000000000000000AF
:102130000000000000000A447052782048504420FB
:10214000495251000A44705278204850442048694E
:102150006768000A4470527820485044204C6F77DA
:10216000000A527820527465726D206973203078AD
:102170002530326278000A43616C692073756363AD
:10218000657373000A43616C69206661696C6564FC
:10219000000A4470207278706C6C2062616E64205A
:1021A0003D20307825303262782C3078253032620C
:1021B000782C307825303262782C307825303262B5
:1021C00078000A706372206873796E63206D6F64A3
:1021D00065002120212000F0222222222380565651
:1021E000AAAA40636868CCCCC0FE4D6970692044DF
:1021F000435320454E4400051100052900051000F9
:102200000528001536C629B00039B9132A026439E9
:10221000EC05D829D60029B00329350029364029F4
:1022200026012903010A43686970506F7765724F70
:102230006E000A46575F564552203D2030782530C3
:102240003262782C307825303262782C3078253024
:10225000326278000A496E636F727265637420504F
:10226000574D2044757479000A50574D20447574B9
:10227000793A256264000A4653203D2030782530A3
:1022800032627800901000E49390E080F0901001AA
:10229000E49390E081F0901002E49390E082F0905B
:1022A0001003E49390E083F02212606F127856F1ED
:1022B00066518491B17A227925127B357A2279325E
:1022C00090E081125FD390E082E090029BF090E07A
:1022D0008351DB126E9D12476280F8E090029CF001
:1022E000E4FF022EC47BFF7A1B798FE4FF122EC419
:1022F0007BFF7A1B79A290F1F3E0FE90F1F4715527
:10230000F15690F19151DB7BFF7A1B79C090F1F58A
:10231000E0FE90F1F67155F15690F19351DB7BFFA1
:102320007A1B79DE90F1F7E0FE90F1F87155F156E5
:1023300090F19551DB7BFF7A1B79FC90F1F9E0FE7F
:1023400090F1FA7155F15690F197E090029CF0E40B
:10235000FF022EC4FEE07C002400FFEC3E22AB070F
:10236000900272120A3100000000EB120A972396C5
:102370000023A00123AA0223B40323BE0423CD0516
:1023800023D90623E50723F10823FD09240B0A249A
:10239000170B0000242C90F7F6E0FE90F7F780264C
:1023A00090F7FAE0FE90F7FB801C90F7F2E0FE90C9
:1023B000F7F3801290F7EAE0FE90F7EB800890F7D1
:1023C000F0E0FE90F7F17155125F1B803990F7F441
:1023D000E0FE90F7F57155802D90F7F8E0FE90F74C
:1023E000F97155802190F7EEE0FE90F7EF7155807E
:1023F0001590F7E8E0FE90F7E97155800990F7EC49
:10240000E090F7ED7154FEE4FD801B90F7E7E05497
:1024100010C4127C58800F90F7E7E05420C4135486
:1024200007FFE4FCFDFE900272120A259002720280
:102430000A0D900261120A82E4FF12003A90000431
:10244000D1FF7F0112003A900006D1FF7F021200F7
:102450003A900008D1FF7F0312003A90000AD1FFA2
:102460007F0412003A90000CD1FF7F0512003A90D1
:10247000000ED1FF7F0612003A900010D1FF7F07B7
:1024800012003A900012D1FF7F0812003A90001417
:10249000D1FF7F0912003AD1FC7F0A12003A900066
:1024A00018EF12071C7F0B12003A900019EF020779
:1024B0001C127A46127AE37F0112764C7F01127663
:1024C000817F011276B31277147F0991E8123AEEF8
:1024D0001200097B321261CAE49003CFF01276DC5D
:1024E000127C9FF0E0A3F0227B017D0CEF120A9793
:1024F000255D00256A01257402257E0325880425B3
:102500009205259C0625A60725B00825BA0925C4ED
:102510000A25CE0B25D80C25E20D25EC0E25F60F4D
:10252000260010260A11261412261E132628142609
:102530003515264416264E17265E18266F19268155
:102540001A26941D26A01E26B11F26B62026C221BB
:1025500026D72226DC2326E424000026F490A37448
:10256000F15EEBC43354E04FF02290A35CF12F9066
:10257000A364C15690A372D1F590A374C17790A3C0
:1025800072F12F90A374C18990A371D1F590A373B8
:10259000C19C90A371F12F90A373C13090A370D10F
:1025A000F590A373C13D90A370F12F90A373C1CA9E
:1025B00090A36FD1F590A373C15690A36FF12F90A4
:1025C000A373C16690A36ED1F590A373C17790A356
:1025D0006EF12F90A373C18990A369D1F590A36A7E
:1025E000C19C90A369F12F90A36A804490A368D105
:1025F000F590A36A804790A362F12F90A364C19CD9
:1026000090A361D1F590A364802690A361F12F90EF
:10261000A364802990A360D1F590A364C1CA90A35C
:1026200060F12F90A363807490A35FD1F590A363B2
:10263000E0FFEB807890A35FF12F90A363E0FFEBC6
:1026400025E0806990A35ED1F590A363807C90A380
:102650005EF12F90A363E0FFEBC454F0807490A36D
:102660005DD1F590A363E0FFEBC43354E080639049
:10267000A35DF12F90A363E0FFEBC4333354C0801C
:102680005190A35CD1F590A363E0FFEBC4333333E7
:102690005480803E90A35AD1F590A35BE04BF0228A
:1026A00090A359D1F590A35BE0FFEB25E025E080F6
:1026B0002190A2A2800390A2A3F15EEBC454F04F3C
:1026C000F02290A2C0D1F590A364E0FFEB33333346
:1026D00054F8FEEF4EF02290A2BF800390A2BEF10C
:1026E0005EEB800890A2BDF15EAE03EEC4333333DF
:1026F00054804FF022E054F0F04DF022900016EE9E
:102700008FF0020829127C1B4024125742EF64010B
:10271000701C900397E07B0160067D0CF13B81EC1F
:10272000E4FDF13B91ECE4FF1251FA12370C22E088
:10273000540FFFF0EDC454F04FF0227F0391EC7F73
:102740000291EC7F0491EC7F0591EC7F0691EC7F88
:102750000791EC7F082290029AF0A3EFF022E05458
:10276000F0F04DFFF0227B017D0C7F0D91ECE4FD3C
:102770007F0DEF120A9727E30027E90127EF0227D1
:10278000F50327FB04280005280506280A07280F5B
:102790000828140928190A281E0B28230C28280D9C
:1027A000282D0E28320F283710283C1128411228D6
:1027B0004613284B14285015285516285A17285FF9
:1027C0001828641928691A286E1D28731E28781F76
:1027D000287D20288221288722288F2328962400DC
:1027E0000028A590E6A002289290E6E302289290A5
:1027F000E6E302288A90E6E202289290E6E2018A65
:1028000090E6E1019290E6E1018A90E6E001929083
:10281000E6E0807690E6DF807990E6DF806C90E6F7
:10282000DE806F90E6DE806290E6DD806590E6DD1A
:10283000805890E6DC805B90E6DC804E90E6DB80A2
:102840005190E6DB804490E6DA804790E6DA803A01
:1028500090E6D9803D90E6D9803090E6D8803390DC
:10286000E6D8802690E6D7802990E6D7801C90E6AF
:10287000D6801F90E6D6801290E6D5801590E6D5DA
:10288000800890E6D4800B90E6D4E0FFED800F90B6
:10289000E6D3E04DF02290E6D3E0FFAE05EEC4545F
:1028A000F0FEEF4EF02290038E7414F0A37404F047
:1028B0009003887401F0A3F0A3F07E007F457D00B3
:1028C0007B007A007922020AEA9003CFE0601C12B2
:1028D00076D0EF64017014FD7F09123AF27B017A21
:1028E0000379CB31147A1F7998F13D9003CFE060E2
:1028F000221276D0EF701C7B017A0379CB7FC8FE61
:10290000FDFC9104700D9003CFF0123AEE7A1F791E
:10291000AAF13D22B15C900264120A259002641271
:102920000A0DAB07AA06B162C3EF9BFFEE9AFE1237
:10293000002ED3EF947FEE648094804008B16290C3
:102940000264120A25900264120A0D12003D020967
:10295000F3900385E0120A9729860129920229B291
:102960000329C00429CE052A06062A21082A570968
:102970002A7C0A2AAF0B2B050D2B730E2B960F2BDF
:10298000A01000002BA3F1F61240FA12672D7F026F
:10299000619D910A700971A53114E490038CF07166
:1029A000A57F287E009100600261A3127A5E7F03FA
:1029B000619D90038BE06401600261A37F04619DCF
:1029C00090038DE06401600261A37F05619D910A1F
:1029D000700E71A53114E4FF126E6AE490038CF05E
:1029E00071A57FB07E049100600261A312000612FF
:1029F00067AD1258307F061279EF7F091245BF7D0F
:102A0000017F090267E2125198EF6401600261A33D
:102A100071A57F50FEFDFC9104600261A37F0861F7
:102A20009D910A701771A431147BFF7A1F794A783F
:102A300028E690029AF008E6A31279E971A57F8052
:102A40007E0C9100600A126F24EF6401600261A3A2
:102A5000125F737F09619D910A700471A431147132
:102A6000F6600261A3126C41EF700D7F07B10B7A23
:102A70001F7967127B35616F7F0A619D910A70181B
:102A80007F06B10B7F01B10BE490038CF0FF12586D
:102A900046126EAE71A5311471F6600261A3126E1A
:102AA000AEEF70077F01125846616F7F0B619D91F9
:102AB0000A7029FF12764C126EC77F01126BD290FA
:102AC000039974FFF0A3F0A3F0E49003A0F0A3F047
:102AD000A3F0A3F090038CF0900398F0126BE41233
:102AE0007A87EF600261A3F1F3EF6401700990034C
:102AF000AC04F07F0C619D7F0112764CE49003AC36
:102B0000F07F0D619D910A7017FF911171A531142D
:102B10007A1F7974127C4AE490038CF0900384F05D
:102B20007F01911171F6701D126F5BEF6401700FE0
:102B3000126F24EF640170077F0E1279EF80061286
:102B40006F24EF605E71A57FD07E07910070549076
:102B50000384E004F0E0640A70157BFF7A1F798833
:102B6000FFD1C47F01B10B124097E4900384F07150
:102B7000A52114910A701B900393F090038C71A40B
:102B800031141268C99003AEEFF01268CF9003AF12
:102B9000EFF07F0F8007910A7001F07F100279EF4C
:102BA000127A6122F07B017A03798022900264120A
:102BB0000A25B15C90026C120A251209D3900268B2
:102BC000120A25F14312374B401490026C120A0D81
:102BD00012003D1209F3F143120A257F00229002F0
:102BE00064F146120A1912085690026C12374B7F94
:102BF0000040027F01227B017A0379807F907E0171
:102C00007D007C0071ACEF64012290038CE06401D4
:102C100022AB07900262120A3100000000EB70083C
:102C200090F362E054F0F02290F3E2E030E41E9082
:102C3000F3F8D1A4D19B90F3F9E07F00FED19590F9
:102C4000F3FAB181120856900262120A25E4FFFEDF
:102C5000FDFC91FB700281F291F3400281F2E47F6E
:102C60003E7E49FDFC91FB50089002617406F080A5
:102C700064E47F7C7E92FDFC91FB500890026174BD
:102C800005F080517FF87E247D0191F95008900273
:102C9000617404F0803F7FF07E497D0291F9500815
:102CA0009002617403F0802D7FE07E937D0491F9A2
:102CB00050089002617402F0801B7FC07E277D095E
:102CC00091F950089002617401F0800991F3500568
:102CD000E4900261F090F3F8E0C45407FF900261C1
:102CE000E0FE6F600DEE4408FFF090F362E054F0F8
:102CF0004FF0227F807E4F7D127C00900262120A8C
:102D000019C302099C7F05B10B7F03EF24FD6036D8
:102D100014603E14602514600C1460142406703B8B
:102D200090F1B4802F90F1B4E054DFF04420F02211
:102D300090C908E054EFF04410F02290F1B5E0544F
:102D4000F7F04408F02290F1B5E054FBF04404F0B1
:102D50002290F1B5E054FDF04402F022900261129D
:102D60000A829003D6020A0D7F02FEFDFC90003914
:102D7000120A19120871A804A905AA06AB07900047
:102D800031E0FFE4FCFDFE22127C68604514606FB8
:102D9000147002C13A24036002C17590C740E04438
:102DA00080F090C758D1A4C004C005C006C00790E9
:102DB000C759B18178081209C0D003D002D001D020
:102DC00000D19890C75AB181D1B1120A2590C7405D
:102DD000C16F90C748D1A4C004C005C006C0079009
:102DE000C749B18178081209C0D003D002D001D000
:102DF00000D19890C74AB181D1B1120A25807D9047
:102E0000ED30E04402F090ED3CD1A4C004C005C018
:102E100006C00790ED3DB18178081209C0D003D0FB
:102E200002D001D000D19890ED3EB181D1B1120A0B
:102E30002590ED30E054FDF0804290E690E0448033
:102E4000F090E698D1A4C004C005C006C00790E683
:102E500099B18178081209C0D003D002D001D00006
:102E6000D19890E69AB181D1B1120A2590E690E00E
:102E7000547FF080077A157997127B7890026E1252
:102E80000A0D90026DE0F9F81209C0A3120A25900C
:102E9000026E020A0DE4FCFD120856A804A905AA58
:102EA00006AB0722E0540FFFE4FCFDFE7810020998
:102EB000C012085690026E227BFF900295E09002AD
:102EC0009AF0E4FF900297120A829020A6E493FE03
:102ED000EFD39E50677B017A02799A9002C2120A60
:102EE00082900297120A62900346120A829002C2EE
:102EF000127C277A0279C61211149002C2127C0A3F
:102F0000E49002C5F07B017A0279C61200169002A5
:102F1000C5E0FDFB3395E0FAC3EB9FEA9E501DED43
:102F2000FF3395E0FE74C62FF58274023EF583E010
:102F3000FF120FD99002C5E004F080C9227BFFE4A4
:102F4000FF808190026C120A0D90026822125F7855
:102F50007005FDFF1257F412672DB1057F04B10B08
:102F6000E4900393F07F0512000E7F0402000E90A0
:102F7000026BEFF012661A90026BE024FD601614EB
:102F8000601C24F9603024FD6063240C7064E490BC
:102F90000397F0801D1255431237F80230FBE4FF0F
:102FA000126F0F0F12764C7F011276817F0412761A
:102FB000E8E4FF027603900042E0703690002CE0D7
:102FC000C394077480948040299003CFE0702390CD
:102FD0000394E0900041F0A37401F07BFF7A207924
:102FE00037FF1234C77F0B12525102370C7F051284
:102FF00076E8227F002202000A9003877401F02203
:103000007B017A02796190C67CE090000212071C75
:1030100090F2F1E0131313540112070A90F2F5E055
:10302000FF54071162EF54F090000312071C90F256
:1030300063E090000512071C90F264E09000061215
:10304000071C90F265E090000712071C90F266E002
:1030500090000812071C90F267E090000902071C1C
:10306000540190000102071C126EDBEF64017042F4
:103070000412070A90F2BDE0C4131313116090F21A
:10308000BCE0FFC4540F11EFFD7C00640270069099
:10309000000704800BED64014C7008900007740277
:1030A00012071CEF540F90000812071C90F2BDE0AD
:1030B0008035E412070A90F2EBE0FF131313541F5C
:1030C000FE1160EFC313540311EF64037008900006
:1030D00007740412071C90F2EBE0FFEE540390001B
:1030E0000812071CEFC413540790000902071C9034
:1030F000000712071C9000070206DD7B017A0279A7
:103100006C11687A1F79BD127B4B7BFF7A1F79CED9
:10311000900273122EBD7BFF7A1F79DF9002751229
:103120002EBD7B017A02797690F2E7E0FE90F2E81C
:103130001223559000088FF012082990F2DFE05416
:103140007F90F2E031F29000048FF012082990F2A3
:10315000E1E0FE90F2E231F3F132F0900004120768
:10316000F15111900002F11390F2DBE0FE90F2DCDD
:1031700031F390000A8FF0120829900008126E7F38
:10318000F13A510D9C9000068FF012082990F2E957
:10319000E0FE90F2EA1223559000128FF0120829F7
:1031A00090F2E5E0547FFE90F2E631F390000E8F4E
:1031B000F012082990F2E3E0FE90F2E431F3F132EC
:1031C000F090000E1207F1511190000CF11390F2E3
:1031D000DDE090F2DE31F29000148FF012082990B9
:1031E0000012126DD3F13A510D9C9000108FF00235
:1031F0000829FEE02400FFEC3E2225E0246CF58245
:10320000E43402F583E0FEA3E0FF900266E0FCA355
:10321000E0FDC3EF9DFFEE22F1F090003991909018
:103220000261EEF0A3EFF0E47BD07A07918BF122FC
:10323000F090002EE0FB7A007013D1917803CEC39A
:1032400013CE13D8F9F0EE900263F0800D90026374
:10325000D1897D07120750F122F090002BE0640124
:103260006006EB64014A700D900264E025E0F09086
:103270000263E033F0D191FF900032126336F12205
:10328000F01275B7900265EEF0A3EFF01275C690DC
:103290000267EEF0A3EFF07BFF7A1279DE90026313
:1032A000D19B900261F152E4FF91C77A1279F990B3
:1032B0000251D199900253F15290024D127B87F145
:1032C000EB9196127B5F120750E4FCFD900279129D
:1032D0000A25F11AFFF145401A900253E0919B1222
:1032E0007B5F120750900265510D9CFEE4FCFDF1DE
:1032F00006800A900271120A31000000009000322C
:10330000E06401707C91962DFDEE3CFC90024D91A5
:10331000A42DFFEC3EFE900263E0FCA3E0FD120A48
:10332000BD90027591AC9002759190900279120A4D
:1033300025900267E0FEA3E0FF900266E02FFF9079
:103340000265E03EFEF145402C91AF9002759190F0
:10335000C006C007F11A91B7D007D006120863C0A3
:1033600006C007A3E0FEA3E0FBAA06E4D007D00650
:103370001208638012900275120A3100000000806A
:103380000C900271120A0D900275120A25900275B6
:10339000120A0D900271F14B400C900271120A0D4D
:1033A000900275120A257A13791390003191BE901C
:1033B0000031E025E0FFE433AB07FA3395E0F9F89C
:1033C000E4FF7E80FDFC1208FC90026D120A25913C
:1033D000A1FFE4FCFD90026D120A19122E989002D2
:1033E0005391A4FF122E95D191FFE4FCFD120871B8
:1033F00090026D91AC90026D9190C006C007F11AD9
:1034000091B7D007D00612086390026D120A25E426
:103410007B07FAF890026D9190900275120A1912CA
:103420007526900032E064027038D3900254E09424
:10343000E8900253E094034029E47B02FAF9F89003
:1034400002759190C004C005C006C007E47B07FA6E
:10345000F9F890026D9190D003D002D001D0001203
:1034600075267BFF7A137922900269123FC57F018E
:1034700091C7900269120A0DAC06EC90F982F0EF48
:1034800090F983F022EFF0E47B08FAF9F890003528
:10349000120A0D0208FC900253E0C313FCA3E013D0
:1034A000FD900251E0C313FEA3E01322120A2590FF
:1034B0000261E0FEA3E0FFFBAA06E4F9F8227BFF2D
:1034C000E0900281F0E4FF90027DEFF0A3120A8207
:1034D00078A97C027A2079B67F80127B9390027D56
:1034E000E0FFD3123FE450649003DDE0FEEFC39EA3
:1034F000405A7B017A027981900329120A82900254
:103500007E120A62900346120A82900329127C27D7
:103510007A0279A9121114900329127C0A90027D73
:10352000E075F003A424A7F582E43420F583120AA1
:103530008B90034F120A827B017A0279A990035281
:10354000120A827BFF7A20799B120BC122F1F012C2
:1035500008FCF12AF090026AE0701890026CE0FE1C
:10356000A3E07803CEC313CE13D8F9F0EE90026C2B
:10357000F0800AD1867D07120750F12AF07A1A7975
:10358000D690026CD199E4FF91C71255C5FB7D3CE2
:10359000FF127BEA90F9A4F07D32AF03127BEA9030
:1035A000F9A5D1857D0712073E7D64120750AB0750
:1035B000EB240490F9A6D1857D0612073E7D1912F1
:1035C0000750AE0790F9A7EEF0EB240790F9A9F0A9
:1035D00090026AE0705A900269E0640190026C7097
:1035E0002DA3E0FBEE240790F9A7F07C007D07AF48
:1035F00003AE0212073E7D64120750EF240790F9D4
:10360000A9F090F9A4E0246790F98AF0800CD189A0
:103610007D0A12075090F98AEFF090026BE0640186
:10362000701E90F9A5E0FF90F9A4E02F240A800C09
:1036300090F9A9741EF090F9A4E0243290F98AF070
:103640007BFF7A1A79E590F9A991C07BFF7A1B7903
:103650000090F9A791C07BFF7A1B791B90F9A49188
:10366000C07BFF7A1B793690F9A591C07BFF7A1B4E
:10367000795190F9A691C07A1B796C90F98A127CE5
:1036800013E4FF81C7F090026CE0FEA3E0FF7C0032
:1036900022900263E0FEA3E0227BFFE0FFA3E09024
:1036A0000281CFF0A3EFF0221228C9127702EF6453
:1036B0000170529003CFE0704C12770E127708EF32
:1036C00024FD600814601F14603280397BFF7A206B
:1036D00079547F0191C77F031252517F01123EF846
:1036E000F10CFF0276037BFF7A2079687F0191C796
:1036F0007F04125251E4FF123EF8800711007F014F
:103700001251FAF10C22900271020A259003CF7433
:1037100001F02295F08FF0020829900265E0FEA3E7
:10372000E022900263EEF0A3EF2290026CEEF0A391
:10373000EF22FE900292F0A3EF22C39FFFE5F09EDE
:10374000FE90029222E4FCFD900279120A19D30243
:10375000099CE0FFA3E0900283CFF0A3EFF0227F6B
:103760001A7A027947127A557B017A027947122434
:10377000327BFF7A12794F90024BD19B90024DF130
:1037800052900251127B87F090024F127BDD900223
:1037900053127BD090025F1261C07BFF7A12798A4C
:1037A000900255D19B900257F15290025B127B8799
:1037B000F0900259127BDD90025D127BD090026086
:1037C0001261C07B017A027947126DDF90025FE0DF
:1037D000FF126F67900260E0FFEF640190F9707074
:1037E00005E054FEF022E04401F022F0E4FF81C73E
:1037F000E47BE87A03F9F822E490039DF07A1F79DC
:10380000F09003A8110BE4FF022EC47BFF120A0DF7
:1038100090029A020A25E4900261F0A3F078637C9A
:10382000027A20797DFE7F03127C5190002CE064A7
:1038300007600201B3127C9FF0A3E0FF9003D0E089
:103840006F6070E0A3F09003D0E02401FFE433FE4A
:10385000EFC4F8540FC868FFEEC454F048900261FA
:10386000F0A3EFF090026174FFF5F01207DB900215
:10387000637451F0127B6FEC900264F0AF05A3EF1C
:10388000F07A207904900264127B7FA3EF1237EB69
:1038900090F9B812601B7F0111B47B017A02796341
:1038A0007D037F3911CCF12FE4FF11B490F9B8E01A
:1038B00054FCF022EF640190F9847005E04408F0B4
:1038C00022E054F7F02293FF7BFF7D02900266ED29
:1038D000F0AC0790F9A0E054EFF0ECF582642960B9
:1038E00006E5826439702A90F99A74E0F0900266D5
:1038F000E0FF240690F999F090F998ECF0EFF0E4ED
:10390000F0FF900266E0FEEFC39E5012127B9C8097
:10391000F174C0127C3F90F998EC127BACF031CB83
:10392000E490F99AF090F9ABE054BFF0221277F7E7
:103930007F147E0031CF902206E47A22790711C6E7
:10394000902209E47A22790A7D05D11490220FE4AD
:103950007A2279107D03D114902213E47A2279140B
:10396000D11A902216E47A227917D11A902219E4FA
:103970007A22791AD12290221CE47A22791DD12A46
:1039800090221FE47A227920D12A902222E493FF08
:103990007BFF7A2279237D0211CC31C19021FAE498
:1039A0007A2179FBD12231C19021F7E47A2179F88B
:1039B00011C631C1F1D27BFF7A2179EA7F0102344D
:1039C000C77F967E008008E054F7F07F017E00EF0D
:1039D0001FAA0670011E4A6013E4FCFDC3ED947437
:1039E000EC940250EA0DBD00010C80F02290002CF6
:1039F000E024FE601814604114605714607C147059
:103A00000241D92405600241E07F0241DE90002D91
:103A1000E0601AD1F190038D7401F078477C00FDCD
:103A20007BFF7A1379667E027F0012069E90002843
:103A3000E0700241E07F0341DE90002DE06002D1A2
:103A4000F1900029E0700241E07F04D144E4FF02DC
:103A5000760312647312633D1274CFF1EBEF7002C0
:103A600041E012375F127B091260F2127325127562
:103A70009F123218F1537F05806490003EE064018C
:103A8000705E7F01D132E4FB7D0C7F221224EC7F3B
:103A90002251E17D0C7F201224EC7F2051E17D0C2E
:103AA0007F211224EC7D017F2151F27FC87E0031FD
:103AB000CF312D7FC851E77D0C7F1D1224EC7D0195
:103AC0007F1D51F2F12F90002EE07005F135127537
:103AD000D57F01B1CE7F0680051279227F07D144C0
:103AE000227D0151F27F327E0031CF7B01227D01A8
:103AF0007F09EF120A973B63003B74013B85023B51
:103B000096033BA7043BB8053BC9063BDA073BEBF2
:103B1000083BFC093C0D0A3C1E0B3C2F0C3C400DA5
:103B20003C510E3C620F3C73103C84113C95123C9E
:103B3000A6133CB7143CC8153CD9163CEA173CFB0D
:103B4000183D0C193D1D1A3D2E1D3D3F1E3D501FB9
:103B50003D61203D72213D89223DA0233DB72400D7
:103B6000003DCD90A385E04480F0ED6002A1C190BE
:103B7000A385A1C990A37FE04402F0ED6002A17C7F
:103B800090A37FA18490A389E04402F0ED6002A19C
:103B90007C90A389A18490A388E04402F0ED6002A8
:103BA000A17C90A388A18490A388E04408F0ED60F4
:103BB00002A19390A388A19B90A388E04420F0EDFC
:103BC0006002A1AA90A388A1B290A388E04480F0EB
:103BD000ED6002A1C190A388A1C990A387E044022F
:103BE000F0ED6002A17C90A387A18490A387E044BC
:103BF00008F0ED6002A19390A387A19B90A387E0BA
:103C00004420F0ED6002A1AA90A387A1B290A387FF
:103C1000E04480F0ED6002A1C190A387A1C990A308
:103C200086E04402F0ED6002A17C90A386A184901E
:103C3000A384E04402F0ED6002A17C90A384A184FF
:103C400090A384E04408F0ED6002A19390A384A1C6
:103C50009B90A384E04420F0ED6002A1AA90A3848D
:103C6000A1B290A382E04402F0ED6002A17C90A397
:103C700082A18490A382E04408F0ED6002A19390B9
:103C8000A382A19B90A382E04420F0ED6002A1AA50
:103C900090A382A1B290A382E04480F0ED6002A1E3
:103CA000C190A382A1C990A381E04402F0ED60021B
:103CB000A17C90A381A18490A381E04408F0ED60F1
:103CC00002A19390A381A19B90A381E04420F0EDF9
:103CD0006002A1AA90A381A1B290A381E04480F0E8
:103CE000ED6002A1C190A381A1C990A380E044022C
:103CF000F0ED6002A17C90A380A18490A380E044B9
:103D000008F0ED6002A19390A380A19B90A380E0B6
:103D10004420F0ED6002A1AA90A380A1B290A380FC
:103D2000E04480F0ED6002A1C190A380A1C990A3FE
:103D30007EE04402F0ED6002804290A37E804590D8
:103D4000A37EE04408F0ED6002804890A37E804BA3
:103D500090A2A5E04402F0ED6002802090A2A58030
:103D60002390A2A6E04402F0ED6002800F90A2A68C
:103D7000801290A2C9E04402F0ED6005E04401F039
:103D80002290A2C9E054FEF02290A2C9E04408F0BB
:103D9000ED6005E04404F02290A2C9E054FBF0225B
:103DA00090A2C9E04420F0ED6005E04410F02290BC
:103DB000A2C9E054EFF02290A2C9E04480F0ED6087
:103DC00005E04440F02290A2C9E054BFF022EF6425
:103DD00001702B7F01D13290003FE090F989700F84
:103DE000E054DFF04410F07BFF7A18799C8020E0EB
:103DF0004420F054EFF07BFF7A1879A98011E4FF9A
:103E0000D13290F989E054CFF07BFF7A1879B67FF0
:103E1000010234C793FF7BFF01CC93FF7BFF7D0240
:103E200001CC93FF7BFF7D0201CC93FF7BFF7D02E2
:103E300001CCEF6401700790F9BF74FFF022E490A9
:103E4000F9BFF022900262EFF090002CE06F602446
:103E5000900262E0640570057F031276E890002D01
:103E60007401F0900262E090002CF07BFF7A1179EF
:103E7000A21234C12290026174FFF090002CE0D3B2
:103E8000124F63400A900028E070047F02D14490F2
:103E9000002CE0D31264E1400A900029E070047F16
:103EA00003D14490002CE0F1E3403B90E0B0E0FD12
:103EB000E4FF127AF9EF701290003EE06401702680
:103EC000F0FFD132E4FFB1CE801C90003EE07016CE
:103ED0001245A8F1E4500280027F05900261EFF0E4
:103EE00090003E7401F0900261E0FFF46002D14462
:103EF00022E4F0FFB1CEE4FFEF64017B0170297D85
:103F00000C7F0F1224ECE490F31CF090F1A5E04438
:103F1000C0F090E6E47402F090E6E6E04403F0546A
:103F2000F3F01D7F0F022772E4FD7F0F0224EC7F68
:103F3000327E0021CFF141F14D90F9ABE0442031C8
:103F4000CA90F9ABE054DFF0227F03F17F7F057E5A
:103F50000021CF900261120A31000000007D31F192
:103F600049F1B37A137931F1C07F011234C77D3042
:103F7000F149F1B37A13794CF1C07F010234C712D1
:103F80007C6860131460181460202403702490026D
:103F90006DE090C740F0227BFF7A15796680067B42
:103FA000FF7A15797CE4FF022EC490026DE090E662
:103FB00090F022E4FD7F03122D88900261020A2511
:103FC0007BFF900261120A0D900281020A2531EDF9
:103FD000C1753120E490F96DF090F96EF0229002F5
:103FE00063E0FFC394057480948022E4900261F042
:103FF00090A200E054EFF012408E90E10FE054EFF9
:10400000F090E2631239C7118E440FF090E10FE097
:1040100044101239CA90E263E0440811969002619C
:10402000E004F0123F4D1264DC500A90E26DE0545F
:1040300002C31370E890E26DE05403640260087BF1
:10404000FF7A1A796D801C7A1A797F90E2281234EF
:10405000BE90E228E054041313543F7BFF700C7AA7
:104060001A799A7F031234C77F00227A1A79A990AD
:10407000E274E0900281F090E275E09002821237E3
:10408000EB90A210E0547FF04480F07F012290E199
:1040900007E054F0F022F07F027E000239CFE49076
:1040A0000262F090A108E04408F0900261740AF006
:1040B000D1EEEF602090E200E054FE1239CA90E2A7
:1040C00000E04401119690E207E05403640270E0BE
:1040D00090026204F07BFF7A21796190E208122E4F
:1040E000BD900262E064017BFF70067A21797680E0
:1040F000057A217984E4FF022EC41251B3125FEBDA
:10410000119E7F01126739313CF145126749F12D4B
:10411000126905126AE7126B6D90E10CE054EFF042
:1041200054DFF090E10DE054BFF054DFF090E10E69
:10413000E0547FF090C90AE04402F02290A130E000
:10414000547FF04408F04404F054FC12510890A14C
:104150003EF090A1427480F0E490A13B127C8790E5
:10416000E300E054FDF090E3017420F0E490A1320C
:10417000F090A138742712510090A13B7487F09001
:10418000A143E04430F07480443090A144F07420A6
:10419000440190E301F090E3097403F071A39002ED
:1041A000627402F0E4F0900262E0FB71F54002619B
:1041B000617194EB14601114601714601D24037076
:1041C0002090E30AE0F0801990E30AE04440F08098
:1041D0001090E30AE04480F0800790E30AE044C0D6
:1041E000F09002617403F0D1EEEF603790E105E0EA
:1041F00054FCF090A130E054BFF090E300E054FE96
:104200001239CA90E105E04403F090A130E0444047
:10421000F090E300E04401119690E324E05403643D
:104220000270C471ABE0440CF090E329E090E32A03
:10423000122354900266F0A3EFF0E4900263F012B0
:104240003FDE400241EC900262E014600E14600F09
:104250001460102403700E71B6800A71E480067138
:10426000D3800271C2E490026AF0A3F0900264F07D
:10427000A3F0900265E0C39464748094805065124A
:1042800039CB900265E004F090E326E0FE90E3274E
:10429000122355FE900268F0A3EFF012320A9CFE42
:1042A00012002EC3EF9480EE64809480501190022F
:1042B00068E0FEA3E0A3127C80900264E004F0902A
:1042C0000264E0640870AB127ADB7803CEC313CECD
:1042D00013D8F9FF900263E025E0246CF582E43402
:1042E00002125FE3900263E004F0413F74FF90022A
:1042F00076F0A3F0E4900263F0123FDE5056EF1226
:1043000031FA9CFE12002ED3900277E09F90027645
:10431000E09E4038900262E0146013146014146050
:104320001524037013900263E0FF71B6800A71E4F4
:10433000800671D3800271C2900263E01231FA9C50
:10434000FE12002E900276EEF0A3EFF0900263E0F2
:1043500004F080A571A390E309E054F3F0719C216F
:10436000A67A21799190E312127A2DF090E313E06E
:1043700090029BF090E314E090029CF090E315E033
:1043800090029D1279E990A143E054CF127C78719C
:10439000AB740DF090E30AE0543FF022900262E02B
:1043A00004F02290E30BE054FEF02290E30BE04493
:1043B00001F090E3092290E31DE02F24FE90E31228
:1043C000F022900263E0FF90E320E02F24FE90E3D0
:1043D00015F022900263E0FF90E31FE02F24FE908F
:1043E000E314F022900263E0FF90E31EE02F24FE2E
:1043F00090E313F022C394047480948022900261AD
:1044000074FFF090038BE07002A1A1900385E0D3CC
:1044100071F6401890038DE07012122F4DB1A87103
:10442000F6500280027F04900261EFF0900385E075
:10443000D394067480948040171251A8EF640170E1
:104440000F7BFF7A1E79E1FF122EC47F061279EFEF
:10445000900385E0640A7026126C41EF7020782981
:10446000D1FE401A7BFF7A1E79F1E4B1A49409745D
:10447000809480500280027F09900261EFF09003E7
:1044800085E0D3940B748094804056126BE4EF6403
:104490000170137A1E79FEB1A2B1AF500280027F83
:1044A0000A900261EFF0127A87EF640170137A1FAD
:1044B0007912B1A2B1AF500280027F0A900261EF7F
:1044C000F0122FF39003ACE06F60167BFF7A1F7938
:1044D0001EE4B1A4B1AF500280027F0A900261EFE6
:1044E000F0900385E0D3940D748094804022126F85
:1044F0005BEF6006126F24EF70167A1F7928127B2B
:104500004BB1A8B1AF500280027F0A900261EFF078
:10451000127C1B403AF1AD1279C3EF6401700F12A7
:1045200079B87A1F7932127C4A7F0E12000E126817
:10453000BDEF701B7BFF7A1F793D7F03B1A5940906
:1045400074809480500280027F09900261EFF090A5
:104550000385E0C3D11F403E900261E0D11F403689
:104560007F04D186EF640170097F04B1B67F0D121C
:10457000000E7F03D186EF640170097F03B1B67F1F
:104580000B12000E7F05D186EF640170097F05B123
:10459000B67F0C12000E900261E0FFF46003127906
:1045A000EF227BFFFF122EC4900261E0FFC3229432
:1045B0000A7480948022B1BF9003947401F022EFBA
:1045C000120A9745DC0045F70345E1044602084519
:1045D000EC0946071D46121E0000461C90E530807F
:1045E0000390F218E04480F0547FF02290F219E03A
:1045F0004410F054EFF02290F218E04408F054F721
:10460000F02290E539800E90E532E04402F054FD4E
:10461000F02290E532E04401F054FEF022E0D39421
:1046200010748094802290F1CCE06480700790F147
:10463000CDD11D40037F0022EFFD7C00C3124F63EC
:10464000401290F1CEE06480700790F1CFD11D4010
:10465000037F0022C3ED9404EC6480948040249096
:10466000F1D0E06480700790F1D1D11D40037F004C
:104670002290F1D2E06480700790F1D3D11D400305
:104680007F00227F0122E4FEEF120A9746A800462F
:10469000C80346AD0446D10846B60946BF0A46D609
:1046A0001D46DF1E000046E690E540800390F2EDD7
:1046B000E05480FE803090F2EEE05410FE802790AF
:1046C000F2EEE05404FE801E90F2EDE05408FE800D
:1046D0001590E549800C90E542E05402FE80079079
:1046E000E542E05401FEEE60027E01AF0622900238
:1046F00061E0FF14F022125F8971FD022951E6D3B7
:104700009401748094802290037DEFF0E02435F8CA
:10471000E6C3F1004008E4FFF180E47826F6900358
:104720007DE02435F8D1FE4003124EC32290A37FD2
:10473000E054F7F0126E6290F1BB7459F090F1C43E
:10474000E04402F022126E7490A3237401F0E4128C
:104750006E5A04F090A326F090E23D7420F04408D5
:10476000F022D1F6123FCE90E0B1E0FB643260025D
:1047700080027B321261CA1236A81227050238164F
:10478000EF64017010F1A5F090F10674FFF090F164
:1047900052740FF022E4F1A57402F0E490F106F0F7
:1047A00090F152F02290F119F090F11A2290F2F566
:1047B000E054F06410701D7F01F1DF54FDF090F2C1
:1047C000F5E05407D1FF90F215E040044401F022D7
:1047D00054FEF022E4FFF1DF54FEF04402F0221216
:1047E00079A690F215E0227F011255DFE490F434AF
:1047F000F02290F433EFF022AE079003DCE0600685
:10480000E4F07F2080ECF1407811E6FFC39E500A6F
:1048100074452FF8E6127C9780EE22E4780DF6902E
:10482000F436E0541F7810F690F426E018F690F471
:1048300032E0540F7832F6E008F6E008F6E004784B
:104840000DF67810E61243F54026780DE612461E66
:104850004002217EE408F6780EE6FFC31896501455
:1048600090F432E0FE74352FF8A606780E0680E745
:10487000E4780DF6E4FF1255DF780FE67002214D63
:1048800024F07002211724D0602E24F0606324C02D
:104890006017241060022171780DE6FF317F7832B5
:1048A000E6640F6002216D806A780DE6FF5168783A
:1048B0000DE6FF1247F821767834E6FD7C0064505F
:1048C0007018780DE6640170267810E66405701F94
:1048D000127BFB601AF1DAE48012ED64304C700F49
:1048E000780DE6640170087835E660037825F68077
:1048F0007C7834E6FB7A006450700B7810E6640430
:10490000700471BD8070EB64524A70397810E664AF
:104910000470327F10805C7834E6FB7A006450705B
:104920000B7810E66404700471BD8011EB64504A8A
:1049300070137810E66403700CFF1247F2E47856A7
:10494000F608F68031780DE6FFF14A80297834E6E2
:1049500064507019780DE6640170127810E66405F1
:10496000700B127BFB6006F1DAE47825F6E4FF8039
:1049700002E4FF1247F21247E7E4FF1245BF22F1BB
:10498000E8E6FF640F7002415C90F103EF127BBE1A
:10499000127C335026EE601390F105E0F47006901F
:1049A000F104E004F090F105E004F07812E624351B
:1049B000F8E690F153F078120680D57832E6706808
:1049C00008E6640170627811F67834E6120A9749B5
:1049D000EB0049F6014A01024A0B034A16044A1A3F
:1049E000054A1E064A220700004A5C7811E6FF12BB
:1049F000503A515D60667811E6FF125182515D6058
:104A00005B7811E6FFD160515D60517811E6FF12CD
:104A10004707515D6046515D6042515D603E515DAA
:104A2000603A7811E6FFE1E27832E6700808E66461
:104A3000027002800E7832E6FF7E00700A08E6649B
:104A40002070047811F622EF4E70117833E6640678
:104A5000700A08E6700608E6FF12518D2290037C6A
:104A6000E0FF781106E66F22F1E8E6640F700FE0D0
:104A7000FF7E007D007B007A007945020AEA7832E9
:104A8000E690F103127BBE127C335028EE60139047
:104A9000F105E0F4700690F104E004F090F105E017
:104AA00004F090F154E0FF7812E62445F8A6077868
:104AB000120680D37832E6706908E6640270637883
:104AC00011F67834E6120A974AE1004AED014AF3FA
:104AD000024AFF034B0B044B17054B1D0600004B0E
:104AE000B07811E6FFF15C515D700261B0515D700C
:104AF0000261B07811E6FF71F0515D700261B0782B
:104B000011E6FF9161515D700261B07811E6FFF12D
:104B10006A515D700261B0515D700261B012502542
:104B2000415D7832E6600261B008E66420600261AF
:104B3000B07811F67834E6120A974B6B004B6E0191
:104B40004B71024B7A034B7D044B80054B83064B24
:104B500086074B89084B8C094B8F0A4B920B4B9560
:104B60000C4B9E0D4BA70E00004BB0781106781130
:104B70000671B1503BF15C78110678110678110688
:104B800078110678110678110678110678110678E2
:104B9000110678110671B1501771F078110671B1D4
:104BA000500E916178110671B15005F16A781106C5
:104BB0002290037CE0FE7811E6FFD39E22780DE67A
:104BC000FFF13E7811E6FFC39E5019EF785726FD9E
:104BD000E41836FC74472DF58274003CF583E0122E
:104BE0007C9780DFAF067857EF26F618E436F6227A
:104BF00091DA7829E624FE602624FE6039240370C9
:104C00005F9174700B782CE6540164017002803659
:104C10009165404C782CE6540F64077043803D91B9
:104C2000747006F1367002801D91654033782CE671
:104C30006477702C802691747011F136700D08E63F
:104C40005411641170057822760122916540117823
:104C50002CE66477700A08E664777004782376019E
:104C600022917D808DC3EF9402EE64809480229027
:104C7000037DEFF0782AE6FF7E00640122916F70D9
:104C800009E02445F8E6782DF6229165404378291D
:104C9000E664047036782D761190F1F7E070069096
:104CA000F1F8E06009782DE64407D1C28006D148CA
:104CB000E6782DF690F1F9E0700690F1FAE06006E2
:104CC000782DD1BF800BD148E68001E4782DF680A5
:104CD00000782DE6FFD148A60722916F7009E024E5
:104CE00045F8E6782CF62291655002A171782C7671
:104CF0000190F1F3E0700690F1F4E06041782CE669
:104D00004407D1C290F1F1E05401702B9003DBE035
:104D1000700F7826E6700A7F01F1247D017F03B1D0
:104D2000949003DBE0C3940674809480501BE004ED
:104D3000F0A37401F08012E49003DBF0800BE490A8
:104D400003DBF0D148E6782CF67829E6C3F163401E
:104D500020782CE64410F690F1F5E0700690F1F61C
:104D6000E06006782CD1BF8008D148E6782CF68028
:104D700000782CE6FFD148A60722B1947D020FB13E
:104D8000947D0F0FB1947D040FB194E4FD0FB194A5
:104D90000FB1940F90F105EFF090F153EDF02279FF
:104DA00001900264E07F0060027F01AE079002651F
:104DB000E07F8060027FC0AC07900266E07F006009
:104DC000027F80AB07E4FFF1247D12F12F641E7097
:104DD000057D140F800790026AE0FD7F01B1949079
:104DE000026BE04CFD7F02B194EB4E0FD150AD0150
:104DF0000FB17A7D810FB194E4FD7F21B18E7F6088
:104E0000B18E7D087F80B194E4FD7F90B1947F01E5
:104E1000F1247F0AB1947F22F1247D14E4FFF12F65
:104E2000FD0FB19490026BE04CFD0FB194AF06EB17
:104E30004F7F03D150AF01AD077F07B17A7D810F5E
:104E4000B1947D087F10A19490037DE02445F82261
:104E5000FDB1947D010FB1941D0FB1940D0FA1947C
:104E600074352FF8E6540F782AF664017044792BD4
:104E7000E766601D122D05E4FD7F03B194E4FD7F1C
:104E800004B194E4FD7F05B194E4FD7F06B194D1B3
:104E9000C37F0112478078267601E47822F608F66F
:104EA00008F67F011268D5E4FF125F09782AE60848
:104EB000F622782AE6FFC3F163400308A60722E63C
:104EC0004470F67828E6FF90037EEF127C7890E13C
:104ED0000D127C8FFD90E10CE054F0F0ED54E19068
:104EE000E10DF090C903E0540FF07F0A7E001278C4
:104EF0003B90037EE0C39414748094807F2740022B
:104F00007F3790A138EF127C8790E10CE0440FF0DE
:104F100090E10DE0441EF090C903E044F0F0E4900D
:104F2000A144F022E490F103F090F104EFF022B1FB
:104F30009490026AE022782CE65411641122AE07A4
:104F4000E4FF1247F2E47811F622F13E7811E6C34D
:104F50009E5008E490F433F00680F12274452FF857
:104F600076012294027480948022AE07782AE6FDAE
:104F70007C00640170059003DAF022C3ED9402EC2A
:104F80006480948040367823E664016007F1F0EF96
:104F90006401701F9003DAE004F078237601E06486
:104FA00001700974452EF8740146F62274452EF8F6
:104FB00076012274452EF874FE56F622782AE670A1
:104FC0001808E6C3F16340117823E664017F80701E
:104FD000027F0174452EF8A60722785646F608E6A9
:104FE000F62290037DEFF02290037CEFF0783222DE
:104FF000E4FF7829E624FE601524FE601E24037079
:105000002390F1C9E05411641170197F012290F1CD
:10501000C9E054336433700C7F012290F1C9E0F48D
:1050200070027F0122782AE66401700D7826E6700E
:10503000087822E67003124EC32274352FF8E67802
:1050400028F6FF31407828E6FF11A87828E6FF31DE
:10505000107828E6FF11627828E6FF311DE4782BEE
:10506000F622EF24F6601624F6601C24F660222453
:1050700018702D11A17BFF7A2179D2801C11A17BA0
:10508000FF7A2179D8801211A17BFF7A2179DE8005
:105090000811A17BFF7A2179E47E007F0612069E2B
:1050A0002278027CA17D0122EF24F6600C24F660B8
:1050B0001624F660232418703490A1317408310846
:1050C00090A13A7402801F11EE310090A13A74123F
:1050D000F090A13B74A7F02211EEF090A139740476
:1050E000F090A13A7448F090A13B7487F02290A10F
:1050F000317408F090A1337464F090A138743722B1
:10510000F090A1397406F022F090A1337460F0227F
:1051100090A11B7490F090C8197405F022E490C817
:1051200011F0EF24F6600C24F6600E24F6600A24D9
:1051300018700CE490C812F02290C8127402F02289
:10514000EF24F6600E24F6600A24F660112418702D
:105150001A800090A1267413F090A127F02290A14C
:10516000257403F090A1267480800B90A125740310
:10517000F090A1267413F090A127F090A128740359
:10518000F02274352FF8E6541F7929F722EF6402D4
:1051900070057F05122D0B227823E6640170060846
:1051A00076017F01227F00227824E664017F01706E
:1051B00001FF2290F4097417F090F100E04440F0F0
:1051C00090F40831F254F7F090F430E04401F0909C
:1051D000A356E04420F090A357742CF090A3587489
:1051E000BAF07F01B1CD7F01B1DF90F1A8E054FEAC
:1051F000F022E04402F054FBF022AE07D18FAA0760
:10520000B1F1AB07D11AEE90E084602231F2AE0327
:1052100090E0A2EEF090E0A3EFF0E490E090F0AF29
:105220000290E091EFF07BFF7A1679448016E0540B
:10523000FDF0E45149F090E090F090E091F07BFFB8
:105240007A1679587F010234C790E0A2F090E0A36B
:1052500022EF24FD600D147002616724F970028151
:1052600006A13290E084E04401F054FBB1337810A1
:105270001209ADEF540FFF90E085EFB133780812BB
:1052800009AD90E086EFB13390E087EFF0E4FF12D4
:10529000235E12372AF07F0112235E90026EEEF039
:1052A000A3EFF07F0512235E900270EEF0A3EFF003
:1052B0007F0612235EAD07AC06B1C5FBEA90E0881D
:1052C000F0EB90E089F0900270E0FAA3E0FBEA9046
:1052D000E08AF0EB90E08BF090026EE0FAA3E0FB46
:1052E000EA90E08CF0EB90E08DF0EC90E08EF0EF47
:1052F00090E08F12348678101209ADEF540FFF90B2
:10530000E09212348578081209AD90E0931234854A
:1053100090E094EFF0900032E090E0A0F090002F49
:10532000E024F6601524FE60091460162402701A49
:10533000801890E0A17401F0801590E0A17402F053
:10534000800D90E0A17403F08005E490E0A1F0905E
:105350000399E090E095F090039BE090E096F07B5D
:10536000FF7A1679158101E490E084F090E085F0F1
:1053700090E086F090E087F090E088F090E089F08F
:1053800090E08AF090E08BF090E08CF090E08DF06F
:1053900090E08EF090E08FF090E090F090E091F04F
:1053A00090E092F090E093F090E094F090E095F02F
:1053B00090E096F090E097F090E098F090E099F00F
:1053C00090E09AF090E09BF090E09CF090E09DF0EF
:1053D00090E09EF090E09FF090E0A0F090E0A1F0CF
:1053E0005149F090E0A4F090E0A5F090E0A6F09094
:1053F000E0A7F090E0A8F090E0A9F07BFF7A1679A2
:105400002D7F010234C790E084E04404F0E490E092
:1054100085F090F23CE090E086F090F23DE090E084
:1054200087F090F23EE090E088F090F23FE090E06C
:1054300089F090F240E090E08AF090F241E090E054
:105440008BF090F242E090E08CF090F243E090E03C
:105450008DF090F244E090E08EF090F245E090E024
:105460008FF090F246E090E090F090F247E090E00C
:1054700091F090F248E090E092F090F249E090E0F4
:1054800093F090F24AE090E094F090F24BE090E0DC
:1054900095F090F24CE090E096F090F24DE090E0C4
:1054A00097F090F24EE090E098F090F24FE090E0AC
:1054B00099F090F250E090E09AF090F251E090E094
:1054C0009BF090F252E090E09CF090F253E090E07C
:1054D0009DF090F254E090E09EF090F255E090E064
:1054E0009FF090F256E090E0A0F090F257E090E04C
:1054F000A1F090F258E090E0A2F090F259E090E034
:10550000A3F090F25AE090E0A4F090F25BE090E01B
:10551000A5F090F25CE090E0A6F090F25DE090E003
:10552000A7F090F25EE090E0A8F090F25FE090E0EB
:10553000A9F022F0E47F02FEFDFC900039120A1966
:10554000020871E490026CF07D187F03123F7F7FA8
:10555000037E001239CFE4FD7F03122D88780112FB
:1055600009C09003A4120A2590039BE024FE600B5F
:1055700014600C2403700C7F06800A7F0A80067F6B
:105580000C80027F08E4FCFDFE9003A4B13D78038B
:105590001209AD9003A8B1BD6401702090026CE0C7
:1055A000701A9003A8120A0D78011209C0E47B0357
:1055B000FAF9F81208FC9003A8120A2522120A250B
:1055C000900399E02290026CE0FAA3E022EF6401DC
:1055D00090A3567005E04410F022E054EFF022EF63
:1055E000640190A3587005E044B0F022E0540FF03D
:1055F0002290F2F5E054079003D3F06005E004F048
:10560000801290F2F1E09003D330E3057408F0804B
:10561000037402F09003D3E0FF2290F22EE0540FC7
:10562000FFFD7C00640270037F1022ED64034C6078
:1056300006ED640A4C70037F1422ED640B4C70027B
:105640007F1822C0E0C0F0C083C082C0D075D000F7
:10565000C000C001C002C003C004C005C006C0072E
:10566000E4FF124686EF600CE4FF1245BF12481BB0
:105670007F01B1DFD007D006D005D004D003D0021F
:10568000D001D000D0D0D082D083D0F0D0E0329002
:10569000C67CE0FFFDC394BF74809480400DD3EDC1
:1056A00094C17480948050037FC022EFFDC394AFF7
:1056B00074809480400DD3ED94B174809480500335
:1056C0007FB022EFFDC3945F74809480400DD3EDD2
:1056D00094617480948050037F6022EFFDC39457DF
:1056E00074809480400DD3ED94597480948050035D
:1056F0007F5822EFFDC3942F74809480400DD3ED2A
:1057000094317480948050037F3022EFFDC3942B3A
:1057100074809480400DD3ED942D74809480500358
:105720007F2C22EFFDC3941F74809480400DD3ED35
:1057300094217480948050037F2022EF7FFF7001BA
:10574000FF22D18FEFF46012900397E0B507037F3B
:105750000022900397EFF07F01227F0022EF640187
:1057600090A3577005E04480F022E0547FF022F1CE
:10577000C0FD90A10974FFF090A11F7410F090C7B4
:10578000E6E0540FF090C7E77401F090C7E8742387
:10579000F0ED448090A10EF0E4FFF15DF1A690C71A
:1057A000E6E04401F022127C70EF14600C14600BF0
:1057B00014600A240370088027801D8013F1C8221A
:1057C00090A10EE0540FF02290A10BE04410F022C3
:1057D00090A10BE04420F02290A10BE04440F02285
:1057E00090A10BE04480F02290E5A3E07F0030E739
:1057F000027F012290F1BD7498F0EF6401701BEDFF
:1058000064017BFF70087A2179361128E1DB7A2167
:105810007944E41128E04402F0227A217953113FBF
:1058200090F1BBE054FDF022FF122EC490F1BB2298
:10583000F178700A12576FE4FD7F011257F4227B52
:10584000FFE4FF022EC4EF700590037FF022900367
:105850007FE0123FE34027E004F07829E6FF12469C
:1058600026EF640170147830E66401700D7BFF7AD6
:105870001E79CEFF122EC4026F4A7F0F8011900353
:105880007FE004F07F06122D0B7A1E79D880B0904D
:10589000F1A5E04FF054F0F022E4900261F09002A4
:1058A00064740CF078657C027D017BFF7A1D798041
:1058B000D18C78697C027D017BFF7A1D7984D18C43
:1058C000786D7C027D017BFF7A1D7988D18C787997
:1058D0007C027D017BFF7A1D798CD18C787D7C02E6
:1058E0007D017BFF7A1D7990D18C78817C027A1DB5
:1058F0007994D188E4900262F0900262E0FF7E0029
:105900001243F5505AF11CFE7B0174F32FF974F128
:105910003EFAD1B5900262E0FD25E0248DF582E4E7
:105920003402F1E3EDF145FF1278EBD179EFF0EEBF
:10593000F145FF1278B2F12BF582E43402F583EFE2
:10594000F074712ED180E0FFD1A5C39FFF9002615A
:10595000E0FEEFC39E4003EF04F012439C809A7B6D
:10596000FF7A1C793CE4FF122EC4E4FF1268D57F55
:1059700001F109E4900263F0900261E02403FFE486
:1059800033FE900263E0F13B400281EB7BFF7A1C27
:10599000794890F1E1122EBD1268E7EF64017003BF
:1059A000FFE1097F07122D0BE4900262F090026282
:1059B000E0FFC3782996400241A7D15D5401707081
:1059C000900262E0FFD17EE0FD74752FD1A8C39DE7
:1059D000FFE49400CF2401CF3400F11BFE9002625B
:1059E000E0D16EFDF13B400241A2900262E0D17E27
:1059F000E075F002A42DF133E582245FF582E583A2
:105A0000341DF155747D2CD170FFD179E075F00211
:105A1000A42FF133E582243EF582E583341DF5831E
:105A2000E493FDEE25E0FFE433FEF123FAED806F11
:105A3000900262E0FF2479D16054027065F12BD1AD
:105A4000A8F90425E0FDD1C9E0FEC3ED9EFE747DFA
:105A50002FD170FDC39E504AE975F002A4C39DFF8B
:105A6000E5F09400FE74612FF582741D3EF15574CB
:105A7000752CD1A875F002A4FFD169FBC3EF9BFF81
:105A8000E5F09400FE74402FF582741D3EF583E42A
:105A900093FCED25E0FFE433FE7B01F123FAEC12E9
:105AA000070A12439C21AD124EC31239CB7F0F114E
:105AB0008FE4900262F0900262E0C39432748094AA
:105AC00080400261581239CB7B01D1B1900285EE42
:105AD000F0A3EFF07AF179CED1B5900287EEF0A382
