:100000000210100264000228A322220278B1022FFB
:100010006B22220279FEE4FFFE1206C4600C0FEF91
:1000200070010E09E970F20A80EF22027A03EE30C5
:10003000E707C3E49FFFE49EFE2212235E90026165
:10004000020A620279FF02038EE86480F8E933E86D
:100050003360110460F0ED33EC337009E8FCE9FD26
:10006000EAFEEBFF220460DED3EB9FEA9EE99DE807
:10007000C2E78CF0C2F795F0400CE8CCF8E9CDF976
:10008000EACEFAEBCFFB12035985D0F05804700387
:1000900020D5B3E80470075002B2D502039892D578
:1000A000EC0460F7E4CCC0E0C398F8603B941860BF
:1000B00008400DD0E0FB020370E4FBFAC9FC802885
:1000C000E830E406E4C9FBE4CAFCE830E305E4C92F
:1000D000CACBFCE854076010F8C3E913F9EA13FA35
:1000E000EB13FBEC13FCD8F130F52FC3E49CFCEFD1
:1000F0009BFFEE9AFEED99FDD0E0FBEF4E4D4C706C
:100100001222DB03020395EC2CFCEF33FFEE33FEEF
:10011000ED33FDED30E7EB020370EF2BFFEE3AFE1F
:10012000ED39FDD0E0FB50130BBB0003020398ED4B
:1001300013FDEE13FEEF13FFEC13FC020370EC4D06
:100140006011E8497017ED33EC3304600DE4FCFFF7
:10015000FEFD22E933E8330470F802038E120359DE
:1001600058046009E4CC2481500628500902039801
:10017000284003020395C0E0EB4A7044B98006D0E2
:10018000E0FB020384EF4E701CBD8008EBFFEAFE2B
:10019000E9FD80EBE98DF0A4FEE5F0020227E9CD50
:1001A000F9EAFEEBFFEF89F0A4FCE5F0CE89F0A4BC
:1001B0002EFFE435F0CD89F0A42DFEE435F0806704
:1001C000EF4E7005BD80D780C3EF8BF0A4ACF0EE8E
:1001D0008BF0A42CFCE435F0F8EF8AF0A42CE5F0C9
:1001E00038FCE433CB8DF0A42CFCE5F03BF8EE8A30
:1001F000F0A42CFCE5F038F8E433CF89F0A42CFC13
:10020000E5F038CF3400CE89F0A42FFFE5F03EFEB4
:10021000E433C98DF0A42EFEE5F039CD8AF0A42F89
:10022000FFE5F03EFEE43DFD33D0E0FB50070BBBA5
:10023000000F020398EC2CFCEF33FFEE33FEED339E
:10024000FD020370020398EC5D046005E859047038
:100250000302038E120359580460F6EC4860F2EC76
:100260007004FDFEFF22C860DB2481C85009C398DA
:10027000600250060203959850CAF582E9294B4A5C
:100280007005AB8202038475F0007C1A7880C3EF9E
:100290009BEE9AED99400DC3EF9BFFEE9AFEED9910
:1002A000FDE842F0DC23ACF0D0E0FFD0E0FED0E08F
:1002B000FDAB8220E7101BEB60BAEC2CFCEF33FFA8
:1002C000EE33FEED33FD020370E803F830E705C0BE
:1002D000F075F000EF2FFFEE33FEED33FD40B83048
:1002E000E7C280AA75F020800E75F010800575F0C9
:1002F000087D007E007F003392D530D50312098E31
:10030000EC334010EF33FFEE33FEED33FDEC33FC06
:10031000D5F0ED22E5F0247EA2D513CC92E7CDCE28
:10032000FF22EDD2E7CD33EC3392D524814006E4B1
:10033000FFFEFDFC22FCE4CFCECDCC24E0501174B6
:10034000FF80EDC3CC13CCCD13CDCE13CECF13CFC6
:100350000470F030D5DE02098EE9D2E7C933E83304
:10036000F892D5EDD2E7CD33EC33FC5002B2D52272
:10037000EC30E7100FBF000C0EBE00080DBD0004EE
:100380000BEB6014A2D5EB13FCED92E7FD2274FF9A
:10039000FCFDFEFF22E480F8A2D574FF13FC7D80F3
:1003A000E480EF74F8CC6480CCC86480C8F5820423
:1003B000604FC3EB9FF5F0EA9E42F0E99D42F0E802
:1003C0009C45F0603C501DE5825FFFE582D313CB76
:1003D0005BCBF42B5582FB50280ABA002409B900E4
:1003E0002008801DE5825BFBE582D313CF5FCFF44D
:1003F000C3132F5582FF50090EBE00050DBD00012D
:100400000CC3EB9FF5F0EA9E42F0E99D42F0E89CB8
:1004100045F06007CC4820E701B3EC22F920E7362D
:1004200024F950037907E4F42402FBE58215827075
:10043000021583DBF6E024FB501BE96014E4F0E5D1
:1004400082158270021583E004F0B40A08E4F0D942
:10045000EE7401F00A22C2D522ED33EC3392D5FAC4
:10046000602AB4FF33EDC2E77BFF60067A04797E31
:10047000E4227A04798720D5047A047982224E61B5
:100480004E002B494E46002D494E4600E47A08F0B6
:10049000A3DAFC7B00740722C083C082ECC0E0EDCD
:1004A000C0E0EEC0E0EFC0E0EA75F010A4CAABF027
:1004B00075F04DA42BFBE435F0FCEA2410FAEB3484
:1004C000C5FBEC34D9FCEDC2E7FF75F056A4F4246B
:1004D00011C5F0F434C58FF0A42AE5F03BE43CF0FC
:1004E00020E71412058ED0E0FFD0E0FED0E0FDD072
:1004F000E0FC1202478014F40412058ED0E0FFD015
:10050000E0FED0E0FDD0E0FC12013ED082D083E0DE
:10051000FAEDD2E7CD33EC332482FBE4C3CF33CF03
:10052000CE33CECD33CD33DBF37B0775F00A846059
:1005300004F0A31B0AE5F0F0A38FF0740AA4FFAC4B
:10054000F08EF0740AA42CFEACF050010C8DF07407
:100550000AA42CFDE435F0F0A3DBDE7407223F8013
:1005600000004120000042C80000447A0000461C00
:10057000400047C35000497424004B1896804CBE7D
:10058000BC205A0E1BCA6753C21C749DC5AEFB60CB
:10059000065407601C23231205BCEB543860091273
:1005A00005A81205B712013EECF8EDF9EEFAEFCB13
:1005B00022EB1205B780F1543803241C90055EFE2F
:1005C00093FC0EEE93FD0EEE930ECE93FF22E70901
:1005D000F608DFFA8046E709F208DFFA803E8882F3
:1005E0008C83E709F0A3DFFA8032E309F608DFFA2B
:1005F0008078E309F208DFFA807088828C83E3094F
:10060000F0A3DFFA806489828A83E0A3F608DFFA28
:10061000805889828A83E0A3F208DFFA804C80D276
:1006200080FA80C680D4806980F28033801080A6F2
:1006300080EA809A80A880DA80E280CA803389824A
:100640008A83ECFAE493A3C8C582C8CCC583CCF0F6
:10065000A3C8C582C8CCC583CCDFE9DEE7800D899D
:10066000828A83E493A3F608DFF9ECFAA9F0EDFBA4
:100670002289828A83ECFAE0A3C8C582C8CCC583EC
:10068000CCF0A3C8C582C8CCC583CCDFEADEE88045
:10069000DB89828A83E493A3F208DFF980CC88F0B7
:1006A000EF60010E4E60C388F0ED2402B4040050E8
:1006B000B9F582EB2402B4040050AF232345822312
:1006C00090061E73BB010689828A83E0225002E7EE
:1006D00022BBFE02E32289828A83E49322BB010CBF
:1006E000E58229F582E5833AF583E0225006E92583
:1006F00082F8E622BBFE06E92582F8E222E582299D
:10070000F582E5833AF583E49322BB010689828A68
:1007100083F0225002F722BBFE01F322F8BB010D49
:10072000E58229F582E5833AF583E8F0225006E96F
:100730002582C8F622BBFE05E92582C8F222EF8D8C
:10074000F0A4A8F0CF8CF0A428CE8DF0A42EFE2229
:10075000BC000BBE0029EF8DF084FFADF022E4CC8D
:10076000F875F008EF2FFFEE33FEEC33FCEE9DEC56
:10077000984005FCEE9DFE0FD5F0E9E4CEFD22ED9C
:10078000F8F5F0EE8420D21CFEADF075F008EF2FE6
:10079000FFED33FD4007985006D5F0F222C398FDD7
:1007A0000FD5F0EA22C2D5EC30E709B2D5E4C39DFB
:1007B000FDE49CFCEE30E715B2D5E4C39FFFE49E58
:1007C000FE120750C3E49DFDE49CFC800312075019
:1007D00030D507C3E49FFFE49EFE22C5F0F8A3E0F6
:1007E00028F0C5F0F8E582158270021583E038F034
:1007F00022BB0110E58229F582E5833AF583E0F515
:10080000F0A3E0225009E92582F886F008E622BB31
:10081000FE0AE92582F8E2F5F008E222E5832AF5EE
:1008200083E993F5F0A3E99322F8BB0111E582294E
:10083000F582E5833AF583E8F0E5F0A3F02250096C
:10084000E92582C8F608A6F022BBFE09E92582C880
:10085000F2E5F008F222EF2BFFEE3AFEED39FDEC67
:1008600038FC22C3EF9BFFEE9AFEED99FDEC98FC5D
:1008700022E88FF0A4CC8BF0A42CFCE98EF0A42C01
:10088000FC8AF0EDA42CFCEA8EF0A4CDA8F08BF04D
:10089000A42DCC3825F0FDE98FF0A42CCD35F0FC4B
:1008A000EB8EF0A4FEA9F0EB8FF0A4CFC5F02ECD17
:1008B00039FEE43CFCEAA42DCE35F0FDE43CFC22FC
:1008C00075F008758200EF2FFFEE33FECD33CDCCEF
:1008D00033CCC58233C5829BED9AEC99E582984072
:1008E0000CF582EE9BFEED9AFDEC99FC0FD5F0D64F
:1008F000E4CEFBE4CDFAE4CCF9A88222B800C1B979
:100900000059BA002DEC8BF084CFCECDFCE5F0CBB6
:10091000F97818EF2FFFEE33FEED33FDEC33FCEBEF
:1009200033FB10D703994004EB99FB0FD8E5E4F9AA
:10093000FA227818EF2FFFEE33FEED33FDEC33FC97
:10094000C933C910D7059BE99A4007EC9BFCE99A8B
:10095000F90FD8E0E4C9FAE4CCFB2275F010EF2FD0
:10096000FFEE33FEED33FDCC33CCC833C810D707D0
:100970009BEC9AE899400AED9BFDEC9AFCE899F80B
:100980000FD5F0DAE4CDFBE4CCFAE4C8F922C3E4F5
:100990009FFFE49EFEE49DFDE49CFC22EB9FF5F0AE
:1009A000EA9E42F0E99D42F0E89C45F022E8600FA3
:1009B000ECC313FCED13FDEE13FEEF13FFD8F12291
:1009C000E8600FEFC333FFEE33FEED33FDEC33FC95
:1009D000D8F122BB010789828A83020A0D5005E9FA
:1009E000F8020B16BBFE05E9F8020B2289828A8306
:1009F000020B2EBB010789828A83020A255005E972
:100A0000F8020B3EBBFE05E9F8020B4A22E0FCA30C
:100A1000E0FDA3E0FEA3E0FF22E0F8A3E0F9A3E0FD
:100A2000FAA3E0FB22ECF0A3EDF0A3EEF0A3EFF0CD
:100A300022A8828583F0D083D082120A48120A4805
:100A4000120A48120A48E473E493A3C583C5F0C5AB
:100A500083C8C582C8F0A3C583C5F0C583C8C58255
:100A6000C822E0FBA3E0FAA3E0F922F8E0FBA3A38D
:100A7000E0F925F0F0E582158270021583E0FA387E
:100A8000F022EBF0A3EAF0A3E9F022E493FB740177
:100A900093FA740293F922D083D082F8E49370120F
:100AA000740193700DA3A393F8740193F582888366
:100AB000E4737402936860EFA3A3A380DFEC8EF06D
:100AC000A4CCC5F0CCCDF8EFA4CEC5F02DFDE43C10
:100AD000FCE8A42EC8C5F03DFDE43CFCEFA4FFE516
:100AE000F028FEE43DFDE43CFC22EF4E6012EF6096
:100AF000010EEDBB010B89828A83F0A3DFFCDEFAD5
:100B00002289F05007F709DFFCA9F022BBFEFCF3B5
:100B100009DFFCA9F022E6FC08E6FD08E6FE08E68F
:100B2000FF22E2FC08E2FD08E2FE08E2FF22E49375
:100B3000FC740193FD740293FE740393FF22ECF6A0
:100B400008EDF608EEF608EFF622ECF208EDF208F2
:100B5000EEF208EFF222E508244FF582E43403F5C3
:100B600083E005082290034C30070390034FE4759F
:100B7000F001120A6B0206C42000E97F2ED2008029
:100B800018EF540F2490D43440D4FF30040BEF24DA
:100B9000BFB41A0050032461FFE50960021509057E
:100BA0000CE50C7002050B30070E90034CE475F059
:100BB00001120A6BEF02070A020FD97403D20780F1
:100BC00003E4C207F50890034C120A82E4F509F524
:100BD0000BF50CE50960077F20120B9980F5750A6B
:100BE000FFC201C200C202C203C205C206C208128D
:100BF0000B65FF700D3007057F00120BAAAF0CAE1E
:100C00000B22B4255FC2D5C204120B65FF24D0B4F9
:100C10000A00501A75F00A780930D50508B6FF01A8
:100C200006C6A426F620D5047002D20380D924CFAC
:100C3000B41A00EF5004C2E5D204020E9CD2018027
:100C4000C6D20080C0D20280BCD2D580BAD2058084
:100C5000B47F20120B992002077401B5090040F1FE
:100C6000120B56FF120B99020BD3D208D2068095B5
:100C7000120B56FB120B56FA120B56F94A4B700622
:100C8000799A7A0F7BFF20022EE509602A7E008E7A
:100C9000827583001206DD60060EEE650A70F0C2F2
:100CA000D5EBC0E0EAC0E0E9C0E0EE120EFDD0E016
:100CB000F9D0E0FAD0E0FB1206C4FF60AAEBC0E076
:100CC000EAC0E0E9C0E0120B99D0E02401F9D0E0DD
:100CD0003400FAD0E0FBE50A0460DCD50AD980874D
:100CE000D20280A2120EDF60F7E50A70010412043E
:100CF0001CA90A600DE50A600914F50A120F87EFB6
:100D000060F3EA30E702F404C3995079EAF4250A63
:100D10000430E701E404F50A800D120EDF60C1EA39
:100D2000050A250A12041CEA90037BF030E701E46F
:100D3000250A04D50A0420050114120EFDE4C0E0C2
:100D4000120F8790037BE0601320E70714F0120B6B
:100D500081802204F0D0E014C0E07F00120B81E516
:100D60000A6007120B78150A800B300503120B7806
:100D7000D0E0020BD3D0E00480C4120EDF609EE509
:100D80000A0412041C90037BEAF0E50A20050260C5
:100D900001042404120EFD74FF04C0E0120F871238
:100DA0000B81E50A2005026003120B78D0E0B50A3A
:100DB000E87F45120B8B90037BE07F2B30E7047FAD
:100DC0002DF404C0E0120B99D0E075F00A84C0F055
:100DD000120B82D0E0120B82020BD37910800279C1
:100DE00008C206C2088008D2D5790A8004790AC2EE
:100DF000D5E50A047002F50AE4FAFDFEFF120B566F
:100E0000FC7B08200113120B56FD7B1030000A12E8
:100E10000B56FE120B56FF7B20EC3382D592D55039
:100E200013C3E43000069FFFE49EFEE42001039D0F
:100E3000FDE49CFCE4CBF8C201EC700CCFCECDCC31
:100E4000E824F8F870F38017C3EF33FFEE33FEEDBC
:100E500033FDEC33FCEB33FB994002FB0FD8E9EB9D
:100E6000300105F8D0E0C448B201C0E00AEC4D4EB4
:100E70004F78207B0070C2EAB50A0040BCC0E01287
:100E80000EFFD0F0D0E0200104C4C0E0C4B201C025
:100E9000F0120B82D0F0D5F0EB020BD3120A970CB4
:100EA00070530DDB580C414C0C3D420DDF4F0DE7EC
:100EB000440DE7490C56430DED550D1A460D7A4584
:100EC0000CE4470FBA500C452D0C492E0C6C2B0C22
:100ED0004D230C6A200FA32A0C054800000C64E582
:100EE0000AB4FF03750A06120B56FC120B56FD12CC
:100EF0000B56FE120B56FF900374020459790AA296
:100F0000D5200314300509B910020404B9080104FE
:100F1000A2D52006025001042002689202B5090001
:100F20005034C0E07F203003197F30A20272067275
:100F300005500F120F56C202C206C205C2087F300A
:100F4000800F300503E9C0E0120B99300503D0E0B3
:100F5000F9D0E0B509CC3005177F30B9100C120B71
:100F6000997F583004077F788003B90803120B99E2
:100F70003002057F2D020B997F202008F87F2B205F
:100F800006F322920280CF7F00B40700500B247436
:100F9000F582E43403F583E0FF22286E756C6C293A
:100FA00000D201120B563001F8C201780930D50188
:100FB00008F6020C052D50434958120B562403B471
:100FC00005004001E4900FB593120B8A743A120B9E
:100FD0008AD203750904020DDBEFB40A07740D12FF
:100FE0000FE4740A309811A899B8130CC29830987D
:100FF000FDA899C298B811F63099FDC299F59922C9
:1010000025090302FFFFFFFFFFFFFFFFFFFFFFFFB9
:10101000787FE4F6D8FD7581660210570222A9E4B4
:1010200093A3F8E493A34003F68001F208DFF48071
:1010300029E493A3F85407240CC8C333C4540F44C1
:1010400020C8834004F456800146F6DFE4800B019B
:101050000204081020408090109CE47E019360BC44
:10106000A3FF543F30E509541FFEE493A360010E33
:10107000CF54C025E060A840B8E493A3FAE493A35A
:10108000F8E493A3C8C582C8CAC583CAF0A3C8C57B
:1010900082C8CAC583CADFE9DEE780BE4103CF004C
:1010A0004403CB000000004103DC004103DB0041AE
:1010B00003DA004103D2004103DD0041037F004415
:1010C000038000000000602800000010000E0001F6
:1010D00012101E000218213E00031E410D000410D4
:1010E000012C000518240C000618231C00071820EA
:1010F0003D004103B0005A03B10007A12009B20826
:101100007000A2003C006408B108700039000400BF
:1011100004010100900346E0FFA3E0FEA3E0CF90AE
:10112000034FF0A3EEF0A3EFF0900349E0CBF0A360
:10113000E0CAF0A3E0C9F07F22900352AD82AC83F5
:101140001206C48D828C83F0A309E970010ADFECDA
:10115000900349E0FBA3E0FAA3E0F9020BBBC2D580
:10116000E830E70FB2D5E4C39BFBE49AFAE499F9BF
:10117000E498F8EC30E717B2D51211941208FCE4A9
:10118000C39BFBE49AFAE499F9E498F88003120807
:10119000FC30D50DE4C39FFFE49EFEE49DFDE49C7E
:1011A000FC2254785374617465203D2030782530DA
:1011B00032627800525820536574204576656E740B
:1011C0003A253032627820004D697069496E436C6F
:1011D0006B3A256C642C2063616C6320756C4279DA
:1011E0007465636C6B3A256C642C20756C5068795F
:1011F000436C6B3A256C642C2075634270703A2501
:1012000062642C2075635478506F72744E756D3A19
:10121000307825303262782C20756354784C616EBA
:10122000654E756D3A3078253032627800427572BD
:101230007374204D6F6465206C616E6520726174FB
:101240006520696E6372656173652038304D0052A8
:10125000585B485D3A2048746F74616C3A25642C81
:10126000486163746976653A25642C4873773A253A
:10127000642C4866703A25642C4862703A25642CC8
:101280004873706F6C3A2562640052585B565D3A41
:101290002056746F74616C3A25642C5661637469CE
:1012A00076653A25642C5673773A25642C56667019
:1012B0003A25642C5662703A25642C5673706F6C14
:1012C0003A25626400506F72743A20253032627899
:1012D0002C204C616E653A202530326278007264B1
:1012E00062797465636C6B3A25642C207264706952
:1012F00078636C6B3A256420006873773A25642C18
:10130000206862703A256420686163746976653A82
:101310002564007563427070203078253032627821
:101320003B00726561642064656C61793A256C7577
:101330000041645F6C6D74785F77726974655F6398
:101340006C6B203D20256C756B687A0041645F6C86
:101350006D74785F726561645F636C6B203D2025FE
:101360006C756B687A0000FFFFFFFFFFFF0006B39C
:10137000A02801010101041F0103803E2278EE69CB
:1013800095AD5246A1270F5054BFCF0081408180B8
:101390009500714F81C0B300D1C0010108E8003051
:1013A000F2705A80B0588A0055502100001E00008B
:1013B00000FD0018901EFF8A000A20202020202017
:1013C000000000FC005647323855514C31410A208C
:1013D0002020000000FF00313233343536373839F1
:1013E0003032380A01F002035AF15004131F100F73
:1013F0001E015D5E5F60617603123F23090707836C
:10140000010000E200EA6D030C001000383C2800E7
:10141000600102036DD85DC401788853123078836F
:10142000341D6D1A000002013090F0000000000031
:10143000E305C000E421001C00E60605016060121F
:10144000366C80A070703E803020080C6D552100F5
:10145000001A6FC200A0A0A05550302035006D5575
:101460002100001A0027000000000000000000001A
:10147000000000000000000000000000000000006C
:10148000000000000000000000000000000000005C
:10149000000000000000000000000000000000004C
:1014A000000000000000000000000000000000003C
:1014B000000000000000000000000000000000002C
:1014C000000000000000000000000000000000001C
:1014D000000000000000000000000000000000000C
:1014E00000000000000000000000000000000000FC
:1014F00000000000000000000000000000000000EC
:1015000000000000000000000000000000000000DB
:1015100000000000000000000000000000000000CB
:1015200000000000000000000000000000000000BB
:1015300000000000000000000000000000000000AB
:10154000000000000000000000000000000000009B
:10155000000000000000000000000000000000008B
:101560000000000000000A5468697320666D207254
:1015700078706C6C5F696E5F636C6B000A546869AD
:101580007320666D20646874785F6469765F6C6947
:101590006E6B5F636C6B000A5741524E494E473A7F
:1015A0002046726571206D657465722067657420D0
:1015B0006661696C005761726E696E673A20696E88
:1015C00070757420697320696E76616C6964000AB5
:1015D0006C6F6164206B657920646F6E655B307839
:1015E00025303262785D000A5061747465726E2035
:1015F0007063722062616E64203D20307825303245
:101600006278000A5061747465726E207063722093
:101610006C6F636B004D495049566964496E666F43
:10162000557064617465212121212121004D4950AB
:1016300049566964496E666F436C65617221212168
:1016400021212100417564496E666F557064617493
:101650006521212121212100417564496E666F4376
:101660006C656172212121000A466C617368204516
:10167000444944204C6F6164000A466C61736820E1
:1016800045444944206E6F742065787369743A004C
:1016900054784576656E742D256264000000000064
:1016A000000000000000000000000000000000003A
:1016B000000000000000000000000000000000002A
:1016C000000000000000000000000000000000001A
:1016D000000000000000000000000000000000000A
:1016E00000000000000000000000000000000000FA
:1016F00000000000000000000000000000000000EA
:1017000000000000000000000000000000000000D9
:1017100000000000000000000000000000000000C9
:1017200000000000000000000000000000000000B9
:1017300000000000000000000000000000000000A9
:101740000000000000000000000000000000000099
:101750000000000000000000000000000000000089
:101760000000000000000000000000000000000079
:101770000000000000000000000000000000000069
:101780000000000000000000000000000000000059
:101790000000000000000000000000000000000049
:1017A0000000000000000000000000000000000039
:1017B0000000000000000000000000000000000029
:1017C0000000000000000000000000000000000019
:1017D0000000000000000000000000000000000009
:1017E00000000000000000000000000000000000F9
:1017F00000000000000000000000000000000000E9
:1018000000000000000000000000000000000000D8
:1018100000000000000000000000000000000000C8
:1018200000000000000000000000000000000000B8
:1018300000000000000000000000000000000000A8
:101840000000000000000000000000000000000098
:101850000000000000000000000000000000000088
:101860000000000000000000000000000000000078
:101870000000000000000000000000000000000068
:101880000000000000000000000000000000000058
:101890000000000000000000000000004D697069B9
:1018A00020445349204F7574004D6970692043539B
:1018B00049204F7574004D697069204F757420443C
:1018C000697361626C6500506F727420307E3320E2
:1018D00052702043616C6920526573756C743A20B4
:1018E00025303262782C2025303262782C20253049
:1018F0003262782C20253032627800506F7274206A
:10190000307E332052642043616C692052657375C8
:101910006C743A2025303262782C2025303262787F
:101920002C2025303262782C202530326278004419
:1019300050687920436C6B206275727374204D6F10
:101940006465004450687920436C6B20636F6E744B
:10195000696E7565204D6F64650044534920766952
:1019600064656F204E4F4E5F42555253545F4D4F4A
:1019700044455F574954485F53594E435F45564568
:101980004E540044534920766964656F204E4F4E93
:101990005F42555253545F4D4F44455F5749544839
:1019A0005F53594E435F50554C53450044534920B3
:1019B000766964656F2042555253545F4D4F4445DC
:1019C000004D49504954585F33445F4D4F44453AA8
:1019D000204D4950495F4C4546545F524947485451
:1019E0005F4D4F4445004D49504954585F33445F63
:1019F0004D4F44453A204D4950495F4E4F5F334467
:101A00005F4D4F44450076636F20446174615261BD
:101A100074653A20256C752C20256C7500506F7309
:101A20007420646976203D203200413230372052E4
:101A3000475F4C4D5458504C4C5F52414E47455FA8
:101A400053454C203A2030782530326278004132BC
:101A50003041204C4D5458504C4C5F4449565F53D4
:101A60004554203A2030782530326278004C4D546D
:101A700058504C4C2063616C69206661696C004C65
:101A80004D5458504C4C206C6F636B20666C6167F2
:101A90003A3078253032627820004C4D5458504C02
:101AA0004C20756E6C6F636B004C4D5458504C4C11
:101AB0002063616C6962726174696F6E2062616E2D
:101AC000646F75743A20307825303262782030782F
:101AD0002530326278004279746520636C6B3A2558
:101AE000754D687A00636B5F706F7374202830786F
:101AF0004639413929203D2030782530326278003E
:101B0000636B5F7A65726F202830784639413729D8
:101B1000203D20307825303262780068735F6C7029
:101B20007820202830784639413429203D203078EB
:101B300025303262780068735F70726570202830DB
:101B4000784639413529203D203078253032627879
:101B50000068735F747261696C2830784639413669
:101B600029203D20307825303262780068735F721A
:101B7000717374202830784639384129203D20304F
:101B80007825303262780000000000000000000A72
:101B9000547261696E696E6720657120696E666F47
:101BA0003A000A4C302076616C69645B30782530ED
:101BB00034785D2C45515B307825303262785D0099
:101BC0000A4C312076616C69645B3078253034785A
:101BD0005D2C45515B307825303262785D000A4CCF
:101BE000322076616C69645B3078253034785D2C06
:101BF00045515B307825303262785D000A4C3320E5
:101C000076616C69645B3078253034785D2C4551A1
:101C10005B307825303262785D000A45514869674B
:101C2000203D2030782530326278000A45514C6FD3
:101C300077203D2030782530326278000A534341C6
:101C40004E205354524154000A4645435354415484
:101C500045203D2030782530326278000A4C616E94
:101C600065457272203D203078253034782C3078EC
:101C7000253034782C3078253034782C3078253065
:101C80003478000A5363616E5F45514C4F57203DD5
:101C900020307825303262782C30782530326278E6
:101CA0002C307825303262782C30782530326278CA
:101CB000000A5363616E5F4551484947203D20301B
:101CC0007825303262782C307825303262782C30AA
:101CD0007825303262782C30782530326278000AEC
:101CE000414344525F4953535545000A56616C695C
:101CF000644571203D20307825303262782C307870
:101D000025303262782C307825303262782C307869
:101D10002530326278000A536B6577203D20307899
:101D200025303262782C307825303262782C307849
:101D300025303262782C307825303262780000000D
:101D40000102030405060708090A0B0C0D0E0F0F0C
:101D50000F0F0F0F0F0F0F0F0F0F0F0F0F0F0F00A2
:101D60000000000000000000000000000000000073
:101D70000102030405060708090A0B0C0D0E0F0FDC
:101D8000FFFFFFFFFFFFFFFFFFFFFFFF000000005F
:101D900001010101000000000A436F6C6F72696D60
:101DA00065747279206368616E6765203D203078C4
:101DB0002530326278000A44705278494E464F3AD4
:101DC000000A486270202020203A20252D38642007
:101DD00020566270202020203A20252D3864000AE9
:101DE000486670202020203A20252D386420205677
:101DF0006670202020203A20252D3864000A487380
:101E0000796E6320203A20252D386420205673797E
:101E10006E6320203A20252D3864000A48616374DF
:101E20002020203A20252D3864202056616374201C
:101E300020203A20252D3864000A48746F6C202039
:101E4000203A20252D3864202056746F6C202020E5
:101E50003A20252D3864000A446570746820203AC1
:101E600020252D3862642020537061636520203A5C
:101E700020252D386264000A506978436C6B203A43
:101E800020252D386C6420205065616B436C6B3AC3
:101E900020252D386C64000A52656672657368529D
:101EA000617465203D202564000A52785374617482
:101EB00065203D20256264000A4470527820556EEA
:101EC000706C7567000A527820506C7567000A576D
:101ED00061697420454343000A456363206572725B
:101EE000000A52782072652D747261696E696E679E
:101EF000000A534B657720556E6C6F636B000A4385
:101F00006F6C6F72207370616365206368616E67C8
:101F100065000A4D7361206368616E6765000A445D
:101F200053432043484E47000A476F746F20504385
:101F300052000A417564696F20636867000A414373
:101F4000445220556E6C6F636B000A524154455FDA
:101F50004C414E45203D20307825303262782C307F
:101F6000782530326278000A44652D736B657720DE
:101F7000657272000A57616974207063722073740D
:101F800061626C652E2E2E000A5043522048415249
:101F900044205245534554000A4750494F2054723B
:101FA0006967676572204C6F77000A4750494F2078
:101FB000547269676765722048696768000A4470EF
:101FC0002052782076696420696E666F3A000A4371
:101FD0006F6C6F7253706163655B2562645D000AAC
:101FE000436F6C6F7244657074685B2562645D005A
:101FF0000A52785F5065616B5F636C6B203D2020F7
:10200000256C64007563614272696768746E6573FC
:10201000735B315D3A307825303262782C207563FD
:10202000614272696768746E6573735B325D3A30E2
:1020300078253032627800445052585F53544154EE
:1020400049435F4844525F4E4F544946595F455695
:10205000454E540054585F564944454F5F4F4E5FBC
:102060004556454E545F3300445052585F564944DC
:10207000454F5F4F46465F4556454E5400000000B1
:10208000444542554700494E464F005741524E0085
:102090004552524F520043524954000A5B252D3598
:1020A000735D2025730003FF2080FF2086FF208BB7
:1020B000FF2090FF209600000000000000000000BC
:1020C0000000000000000000000000000000000010
:1020D0000000000000000000000000000000000000
:1020E00000000000000000000000000000000000F0
:1020F00000000000000000000000000000000000E0
:1021000000000000000000000000000000000000CF
:1021100000000000000000000000000000000000BF
:1021200000000000000000000000000000000000AF
:102130000000000000000A447052782048504420FB
:10214000495251000A44705278204850442048694E
:102150006768000A4470527820485044204C6F77DA
:10216000000A527820527465726D206973203078AD
:102170002530326278000A43616C692073756363AD
:10218000657373000A43616C69206661696C6564FC
:10219000000A4470207278706C6C2062616E64205A
:1021A0003D20307825303262782C3078253032620C
:1021B000782C307825303262782C307825303262B5
:1021C00078000A706372206873796E63206D6F64A3
:1021D00065002120212000F0222222222380565651
:1021E000AAAA40636868CCCCC0FE4D6970692044DF
:1021F000435320454E4400051100052900051000F9
:102200000528001536C629B00039B9132A026439E9
:10221000EC05D829D60029B00329350029364029F4
:1022200026012903010A43686970506F7765724F70
:102230006E000A46575F564552203D2030782530C3
:102240003262782C307825303262782C3078253024
:10225000326278000A496E636F727265637420504F
:10226000574D2044757479000A50574D20447574B9
:10227000793A256264000A4653203D2030782530A3
:1022800032627800901000E49390E080F0901001AA
:10229000E49390E081F0901002E49390E082F0905B
:1022A0001003E49390E083F022124BAA127855F1C8
:1022B00066518491B17A227925122FEF7A227932F0
:1022C00090E081127B8590E082E090029BF090E0AC
:1022D0008351DB127B301247E980F8E090029CF0DA
:1022E000E4FF022EC07BFF7A1B798FE4FF122EC021
:1022F0007BFF7A1B79A290F1F3E0FE90F1F4715527
:10230000F15690F19151DB7BFF7A1B79C090F1F58A
:10231000E0FE90F1F67155F15690F19351DB7BFFA1
:102320007A1B79DE90F1F7E0FE90F1F87155F156E5
:1023300090F19551DB7BFF7A1B79FC90F1F9E0FE7F
:1023400090F1FA7155F15690F197E090029CF0E40B
:10235000FF022EC0FEE07C002400FFEC3E22AB0713
:10236000900272120A3100000000EB120A972396C5
:102370000023A00123AA0223B40323BE0423CD0516
:1023800023D90623E50723F10823FD09240B0A249A
:10239000170B0000242C90F7F6E0FE90F7F780264C
:1023A00090F7FAE0FE90F7FB801C90F7F2E0FE90C9
:1023B000F7F3801290F7EAE0FE90F7EB800890F7D1
:1023C000F0E0FE90F7F17155124782803990F7F4F2
:1023D000E0FE90F7F57155802D90F7F8E0FE90F74C
:1023E000F97155802190F7EEE0FE90F7EF7155807E
:1023F0001590F7E8E0FE90F7E97155800990F7EC49
:10240000E090F7ED7154FEE4FD801B90F7E7E05497
:1024100010C4127C62800F90F7E7E05420C413547C
:1024200007FFE4FCFDFE900272120A259002720280
:102430000A0D900261120A82E4FF12003A90000431
:10244000D1FF7F0112003A900006D1FF7F021200F7
:102450003A900008D1FF7F0312003A90000AD1FFA2
:102460007F0412003A90000CD1FF7F0512003A90D1
:10247000000ED1FF7F0612003A900010D1FF7F07B7
:1024800012003A900012D1FF7F0812003A90001417
:10249000D1FF7F0912003AD1FC7F0A12003A900066
:1024A00018EF12071C7F0B12003A900019EF020779
:1024B0001C127A08127A497F0112719C7F011271F5
:1024C000D17F011272151277137B017D0C7F099168
:1024D000EC123B401200097B32124808E49003CF13
:1024E000F01276DB127C92F0E0A3F022EF120A9752
:1024F000255D00256A01257402257E0325880425B3
:102500009205259C0625A60725B00825BA0925C4ED
:102510000A25CE0B25D80C25E20D25EC0E25F60F4D
:10252000260010260A11261412261E132628142609
:102530003515264416264E17265E18266F19268155
:102540001A26941D26A01E26B11F26B62026C221BB
:1025500026D72226DC2326E424000026F490A37448
:10256000F15EEBC43354E04FF02290A35CF12F9066
:10257000A364C15690A372D1F590A374C17790A3C0
:1025800072F12F90A374C18990A371D1F590A373B8
:10259000C19C90A371F12F90A373C13090A370D10F
:1025A000F590A373C13D90A370F12F90A373C1CA9E
:1025B00090A36FD1F590A373C15690A36FF12F90A4
:1025C000A373C16690A36ED1F590A373C17790A356
:1025D0006EF12F90A373C18990A369D1F590A36A7E
:1025E000C19C90A369F12F90A36A804490A368D105
:1025F000F590A36A804790A362F12F90A364C19CD9
:1026000090A361D1F590A364802690A361F12F90EF
:10261000A364802990A360D1F590A364C1CA90A35C
:1026200060F12F90A363807490A35FD1F590A363B2
:10263000E0FFEB807890A35FF12F90A363E0FFEBC6
:1026400025E0806990A35ED1F590A363807C90A380
:102650005EF12F90A363E0FFEBC454F0807490A36D
:102660005DD1F590A363E0FFEBC43354E080639049
:10267000A35DF12F90A363E0FFEBC4333354C0801C
:102680005190A35CD1F590A363E0FFEBC4333333E7
:102690005480803E90A35AD1F590A35BE04BF0228A
:1026A00090A359D1F590A35BE0FFEB25E025E080F6
:1026B0002190A2A2800390A2A3F15EEBC454F04F3C
:1026C000F02290A2C0D1F590A364E0FFEB33333346
:1026D00054F8FEEF4EF02290A2BF800390A2BEF10C
:1026E0005EEB800890A2BDF15EAE03EEC4333333DF
:1026F00054804FF022E054F0F04DF022900016EE9E
:102700008FF0020829127C264024127662EF6401C1
:10271000701C900397E07B0160067D0CF13B81EC1F
:10272000E4FDF13B91ECE4FF125F6712370E22E00B
:10273000540FFFF0EDC454F04FF0227F0391EC7F73
:102740000291EC7F0491EC7F0591EC7F0691EC7F88
:102750000791EC7F082290029AF0A3EFF022E05458
:10276000F0F04DFFF0227F0D127C1DFD7F0DEF126A
:102770000A9727DF0027E50127EB0227F10327F758
:102780000427FD05280206280707280C0828110938
:1027900028160A281B0B28200C28250D282A0E286D
:1027A0002F0F283410283911283E122843132848A7
:1027B00014284D15285216285717285C1828611917
:1027C00028661A286B1D28701E28751F287A202855
:1027D0007F21288422288C23289324000028A2907B
:1027E000E6A002288F90E6E302288F90E6E3022815
:1027F0008790E6E202288F90E6E202288790E6E1E1
:10280000018F90E6E1018790E6E0018F90E6E0809D
:102810007690E6DF807990E6DF806C90E6DE806F70
:1028200090E6DE806290E6DD806590E6DD8058907F
:10283000E6DC805B90E6DC804E90E6DB805190E643
:10284000DB804490E6DA804790E6DA803A90E6D979
:10285000803D90E6D9803090E6D8803390E6D880ED
:102860002690E6D7802990E6D7801C90E6D6801F78
:1028700090E6D6801290E6D5801590E6D580089037
:10288000E6D4800B90E6D4E0FFED800F90E6D3E035
:102890004DF02290E6D3E0FFAE05EEC454F0FEEF1B
:1028A0004EF02290038E7414F0A37404F090038809
:1028B0007401F0A3F0A3F07E007F457D007B007AD9
:1028C000007922020AEA9003CFE0601C1276CFEF73
:1028D00064017014FD7F09123B447B017A0379CBBC
:1028E00031117A1F7998F1399003CFE06022127686
:1028F000CFEF701C7B017A0379CB7FC8FEFDFC9182
:1029000000700D9003CFF0123B407A1F79AAF13985
:1029100022B158900264120A25900264120A0DAB8B
:1029200007AA06B15EC3EF9BFFEE9AFE12002ED3FC
:10293000EF947FEE648094804008B15E9002641250
:102940000A25900264120A0D12003D0209F3900359
:1029500085E0120A97298301298F0229AF0329BD37
:102960000429CB052A03062A1E082A54092A780AB4
:102970002AAB0B2B010D2B6F0E2B920F2B9C1000F3
:10298000002B9FF1F8125BB112619B7F026199915C
:1029900006700971A13111E490038CF071A17F28B8
:1029A0007E0071FC6002619F127A207F0361999022
:1029B000038BE064016002619F7F04619990038D45
:1029C000E064016002619F7F0561999106700E715C
:1029D000A13111E4FF1267D3E490038CF071A17F61
:1029E000B07E0471FC6002619F12000612628D12BB
:1029F00061007F06124D797F0912639A7D017F097C
:102A00000262BF12608AEF64016002619F71A17F60
:102A100050FEFDFC91006002619F7F086199910664
:102A2000701771A031117BFF7A1F794A7828E690E0
:102A3000029AF008E6A3125ECC71A17F807E0C7131
:102A4000FC600A1268C2EF64016002619F1247E4F1
:102A50007F0961999106700471A0311171F26002D1
:102A6000619F126612EF700C7F07B1077A1F7967BA
:102A7000F1EF616B7F0A6199910670187F06B107CB
:102A80007F01B107E490038CF0FF1268F91267DD53
:102A900071A1311171F26002619F1267DDEF700761
:102AA0007F011268F9616B7F0B619991067029FFB4
:102AB00012719C1267F67F0112680A90039974FFE5
:102AC000F0A3F0A3F0E49003A0F0A3F0A3F0A3F030
:102AD00090038CF0900398F012681C126502EF606E
:102AE00002619FF1F5EF640170099003AC04F07F7F
:102AF0000C61997F0112719CE49003ACF07F0D6131
:102B00009991067017FF910D71A131117A1F797497
:102B1000127C54E490038CF0900384F07F01910DBB
:102B200071F2701D126943EF6401700F1268C2EFF9
:102B3000640170077F0E124D7980061268C2EF6043
:102B40005E71A17FD07E0771FC7054900384E00415
:102B5000F0E0640A70157BFF7A1F7988FFD1C07F8F
:102B600001B10712408BE4900384F071A12111910F
:102B700006701B900393F090038C71A031111265C5
:102B8000629003AEEFF01265689003AFEFF07F0F35
:102B9000800791067001F07F10024D79127A23228E
:102BA000F07B017A03798022900264120A25B158E1
:102BB00090026C120A251209D3900268120A25F1BC
:102BC0003F12374D401490026C120A0D12003D1254
:102BD00009F3F13F120A257F0022900264F14212AC
:102BE0000A1912085690026C12374D7F0040027F7E
:102BF00001227B017A0379807F907E017D007C0039
:102C000071A8EF64012290038CE0640122AB07906D
:102C10000262120A3100000000EB700890F362E0DB
:102C200054F0F02290F3E2E030E41E90F3F8D1A0EB
:102C3000D19790F3F9E07F00FED19190F3FAB17D46
:102C4000120856900262120A25E4FFFEFDFC91F77D
:102C5000700281EE91EF400281EEE47F3E7E49FDFD
:102C6000FC91F750089002617406F08064E47F7C68
:102C70007E92FDFC91F750089002617405F080513E
:102C80007FF87E247D0191F550089002617404F074
:102C9000803F7FF07E497D0291F55008900261747B
:102CA00003F0802D7FE07E937D0491F55008900223
:102CB000617402F0801B7FC07E277D0991F550086A
:102CC0009002617401F0800991EF5005E490026177
:102CD000F090F3F8E0C45407FF900261E0FE6F60EB
:102CE0000DEE4408FFF090F362E054F04FF0227FC5
:102CF000807E4F7D127C00900262120A19C3020985
:102D00009C7F05B1077F03EF24FD603614603E14FD
:102D1000602514600C1460142406703B90F1B4809C
:102D20002F90F1B4E054DFF04420F02290C908E085
:102D300054EFF04410F02290F1B5E054F7F044085D
:102D4000F02290F1B5E054FBF04404F02290F1B58C
:102D5000E054FDF04402F022900261120A829003D6
:102D6000D6020A0D7F02FEFDFC900039120A1912EC
:102D70000871A804A905AA06AB07900031E0FFE49A
:102D8000FCFDFE22127C72604514606F147002C15B
:102D90003624036002C17190C740E04480F090C7C0
:102DA00058D1A0C004C005C006C00790C759B17D66
:102DB00078081209C0D003D002D001D000D194907D
:102DC000C75AB17DD1AD120A2590C740C16B90C7DB
:102DD00048D1A0C004C005C006C00790C749B17D56
:102DE00078081209C0D003D002D001D000D194904D
:102DF000C74AB17DD1AD120A25807D90ED30E04407
:102E000002F090ED3CD1A0C004C005C006C0079000
:102E1000ED3DB17D78081209C0D003D002D001D0B9
:102E200000D19490ED3EB17DD1AD120A2590ED30E8
:102E3000E054FDF0804290E690E04480F090E69807
:102E4000D1A0C004C005C006C00790E699B17D7846
:102E5000081209C0D003D002D001D000D19490E66E
:102E60009AB17DD1AD120A2590E690E0547FF080B2
:102E7000077A157997127B7E90026E120A0D9002E6
:102E80006DE0F9F81209C0A3120A2590026E020A39
:102E90000DE4FCFD120856A804A905AA06AB0722FA
:102EA000E0540FFFE4FCFDFE78100209C012085642
:102EB00090026E227BFF900295E090029AF0E4FF70
:102EC000900297120A829020A6E493FEEFD39E50C0
:102ED000677B017A02799A9002C2120A8290029765
:102EE000120A62900346120A829002C2127C327A5F
:102EF0000279C61211149002C2127C0CE49002C531
:102F0000F07B017A0279C61200169002C5E0FDFB43
:102F10003395E0FAC3EB9FEA9E501DEDFF3395E039
:102F2000FE74C62FF58274023EF583E0FF120FD9BE
:102F30009002C5E004F080C9227BFFE4FF8081900D
:102F4000026C120A0D900268221261277005FDFFC3
:102F5000125F0C12619BB1017F04B107E4900393EF
:102F6000F07F0512000E7F0402000E90026BEFF05E
:102F7000127A5F90026BE024FD601614601C24F945
:102F8000603024FD6063240C7064E4900397F0804B
:102F90001D1275251237FA0230FDE4FF1268AD0FDD
:102FA00012719C7F011271D17F041276E7E4FF0257
:102FB0007153900042E0703690002CE0C394077487
:102FC00080948040299003CFE07023900394E09098
:102FD0000041F0A37401F07BFF7A207937FF1234AF
:102FE000C97F0B12723202370E7F051276E7227B01
:102FF000FFE4FFC1C07F002202000A900387740132
:10300000F0227B017A02796190C67CE09000021286
:10301000071C90F2F1E0131313540112070A90F207
:10302000F5E0FF54071164EF54F090000312071C01
:1030300090F263E090000512071C90F264E09000AB
:103040000612071C90F265E090000712071C90F230
:1030500066E090000812071C90F267E090000902F9
:10306000071C540190000102071C126879EF6401EB
:1030700070420412070A90F2BDE0C41313131162E8
:1030800090F2BCE0FFC4540F11F1FD7C00640270AB
:103090000690000704800BED64014C700890000757
:1030A000740212071CEF540F90000812071C90F2D4
:1030B000BDE08035E412070A90F2EBE0FF13131332
:1030C000541FFE1162EFC313540311F1640370081F
:1030D000900007740412071C90F2EBE0FFEE54031B
:1030E00090000812071CEFC4135407900009020750
:1030F0001C90000712071C9000070206DD7B017A76
:1031000002796C116A7A1F79BD127B517BFF7A1F9D
:1031100079CE900273122EB97BFF7A1F79DF90026D
:1031200075122EB97B017A02797690F2E7E0FE9073
:10313000F2E81223559000088FF012082990F2DF70
:10314000E0547F90F2E031F49000048FF0120829EF
:1031500090F2E1E0FE90F2E231F5F134F0900004FB
:103160001207F15113900002F11590F2DBE0FE908E
:10317000F2DC31F590000A8FF01208299000081255
:103180007BF7F13C510F9C9000068FF012082990BC
:10319000F2E9E0FE90F2EA1223559000128FF0124D
:1031A000082990F2E5E0547FFE90F2E631F59000B8
:1031B0000E8FF012082990F2E3E0FE90F2E431F570
:1031C000F134F090000E1207F1511390000CF1153C
:1031D00090F2DDE090F2DE31F49000148FF01208EE
:1031E000299000121267A9F13C510F9C9000108F9A
:1031F000F0020829FEE02400FFEC3E2225E0246CCA
:10320000F582E43402F583E0FEA3E0FF900266E07D
:10321000FCA3E0FDC3EF9DFFEE22F1F29000399197
:1032200092900261EEF0A3EFF0E47BD07A07918DEB
:10323000F124F090002EE0FB7A007013D193780314
:10324000CEC313CE13D8F9F0EE900263F0800D9048
:103250000263D18B7D07120750F124F090002BE020
:1032600064016006EB64014A700D900264E025E0A1
:10327000F0900263E033F0D193FF900032124AA342
:10328000F124F01270A8900265EEF0A3EFF0127036
:10329000B7900267EEF0A3EFF07BFF7A1279DE9031
:1032A0000263D19D900261F154E4FF91C97A1279D1
:1032B000F9900251D19B900253F15490024D127B30
:1032C00095F1ED9198127B65120750E4FCFD900298
:1032D00079120A25F11CFFF147401A900253E09140
:1032E0009D127B65120750900265510F9CFEE4FC15
:1032F000FDF108800A900271120A3100000000906E
:103300000032E06401707C91982DFDEE3CFC90024F
:103310004D91A62DFFEC3EFE900263E0FCA3E0FD84
:10332000120ABD90027591AE900275919290027949
:10333000120A25900267E0FEA3E0FF900266E02FEC
:10334000FF900265E03EFEF147402C91B19002757E
:103350009192C006C007F11C91B9D007D00612089F
:1033600063C006C007A3E0FEA3E0FBAA06E4D00703
:10337000D0061208638012900275120A3100000014
:1033800000800C900271120A0D900275120A2590AD
:103390000275120A0D900271F14D400C90027112EB
:1033A0000A0D900275120A257A1379139000319153
:1033B000C0900031E025E0FFE433AB07FA3395E03D
:1033C000F9F8E4FF7E80FDFC1208FC90026D120A01
:1033D0002591A3FFE4FCFD90026D120A19122E94B0
:1033E00090025391A6FF122E91D193FFE4FCFD129F
:1033F000087190026D91AE90026D9192C006C00767
:10340000F11C91B9D007D00612086390026D120A20
:1034100025E47B07FAF890026D9192900275120AEA
:1034200019127C03900032E064027038D390025489
:10343000E094E8900253E094034029E47B02FAF917
:10344000F89002759192C004C005C006C007E47BE5
:1034500007FAF9F890026D9192D003D002D001D012
:1034600000127C037BFF7A137922900269123FB924
:103470007F0191C9900269120A0DAC06EC90F982A5
:10348000F0EF90F983F022EFF0E47B08FAF9F8907E
:103490000035120A0D0208FC900253E0C313FCA38E
:1034A000E013FD900251E0C313FEA3E01322120AC1
:1034B00025900261E0FEA3E0FFFBAA06E4F9F822F2
:1034C0007BFFE0900281F0E4FF90027DEFF0A31219
:1034D0000A8278A97C027A2079B67F80127BA1903B
:1034E000027DE0FFD3123FD850649003DDE0FEEF91
:1034F000C39E405A7B017A027981900329120A8285
:1035000090027E120A62900346120A8290032912E8
:103510007C327A0279A9121114900329127C0C9042
:10352000027DE075F003A424A7F582E43420F5833E
:10353000120A8B90034F120A827B017A0279A990BA
:103540000352120A827BFF7A20799B120BC122F16F
:10355000F21208FCF12CF090026AE0701890026CF4
:10356000E0FEA3E07803CEC313CE13D8F9F0EE90BB
:10357000026CF0800AD1887D07120750F12CF07A96
:103580001A79D690026CD19BE4FF91C91275A7FB02
:103590007D3CFF127BE690F9A4F07D32AF03127BF5
:1035A000E690F9A5D1877D0712073E7D641207508A
:1035B000AB07EB240490F9A6D1877D0612073E7D68
:1035C00019120750AE0790F9A7EEF0EB240790F917
:1035D000A9F090026AE0705A900269E064019002DA
:1035E0006C702DA3E0FBEE240790F9A7F07C007D22
:1035F00007AF03AE0212073E7D64120750EF2407A7
:1036000090F9A9F090F9A4E0246790F98AF0800C71
:10361000D18B7D0A12075090F98AEFF090026BE08F
:103620006401701E90F9A5E0FF90F9A4E02F240A30
:10363000800C90F9A9741EF090F9A4E0243290F95E
:103640008AF07BFF7A1A79E590F9A991C27BFF7A1B
:103650001B790090F9A791C27BFF7A1B791B90F927
:10366000A491C27BFF7A1B793690F9A591C27BFFAA
:103670007A1B795190F9A691C27A1B796C90F98ADC
:10368000127C15E4FF81C9F090026CE0FEA3E0FF1C
:103690007C0022900263E0FEA3E0227BFFE0FFA318
:1036A000E0900281CFF0A3EFF0221228C61277013A
:1036B000EF640170529003CFE0704C12770D1277D7
:1036C00007EF24FD600814601F14603280397BFF0F
:1036D0007A2079547F0191C97F031272327F0112DF
:1036E0003EF2F10EFF0271537BFF7A2079687F0171
:1036F00091C97F04127232E4FF123EF28007110278
:103700007F01125F67F10E22900271020A25900379
:10371000CF7401F02295F08FF0020829900265E045
:10372000FEA3E022900263EEF0A3EF2290026CEE83
:10373000F0A3EF22FE900292F0A3EF22C39FFFE5D9
:10374000F09EFE90029222E4FCFD900279120A198A
:10375000D302099CE0FFA3E0900283CFF0A3EFF037
:10376000227F1A7A027947127A177B017A02794707
:103770001224327BFF7A12794F90024BD19D900236
:103780004DF154900251127B95F090024F127BD96B
:10379000900253127BCC90025F1248CA7BFF7A12D0
:1037A000798A900255D19D900257F15490025B1294
:1037B0007B95F0900259127BD990025D127BCC90E0
:1037C00002601248CA7B017A02794712694F90025F
:1037D0005FE0FF1269B0900260E0FFEF640190F9D2
:1037E000707005E054FEF022E04401F022F0E4FFA6
:1037F00081C9E47BE87A03F9F822E490039DF07A2A
:103800001F79F09003A8110DE4FF022EC07BFF1278
:103810000A0D90029A020A25E4900261F0A3F07862
:10382000637C027A20797DFE7F03127C5B90002C02
:10383000E06407600201B5127C92F0A3E0FF900300
:10384000D0E06F6070E0A3F09003D0E02401FFE4CB
:1038500033FEEFC4F8540FC868FFEEC454F048902C
:103860000261F0A3EFF090026174FFF5F01207DB44
:103870009002637451F0127B75EC900264F0AF0516
:10388000A3EFF07A207904900264127B8DA3EF12EB
:1038900037ED90F9B8124BA27F0111B67B017A0285
:1038A00079637D037F3911CE51F4E4FF11B690F9AD
:1038B000B8E054FCF022EF640190F9847005E04414
:1038C00008F022E054F7F02293FF7BFF7D02900284
:1038D00066EDF0AC0790F9A0E054EFF0ECF58264EF
:1038E000296006E5826439702A90F99A74E0F090B4
:1038F0000266E0FF240690F999F090F998ECF0EF59
:10390000F0E4F0FF900266E0FEEFC39E5012127BDF
:10391000AA80F174C0127C3E90F998EC127BBAF048
:1039200031EBE490F99AF090F9ABE054BFF0221239
:1039300077F67F147E0031EF902206E47A22790731
:1039400011C8902209E47A22790A7D0531C99022B2
:103950000FE47A2279107D0331C9902213E47A2290
:10396000791431CF902216E47A22791731CF902240
:1039700019E47A22791A31D790221CE47A22791D2F
:1039800031DF90221FE47A22792031DF902222E475
:1039900093FF7BFF7A2279237D0211CE31C39021E0
:1039A000FAE47A2179FB31D731C39021F7E47A2107
:1039B00079F811C831C3F1C67BFF7A2179EA7F011A
:1039C0000234C97F967E00802693FF7BFF01CE9351
:1039D000FF7BFF7D0201CE93FF7BFF7D0201CE9333
:1039E000FF7BFF7D0201CEE054F7F07F017E00EF08
:1039F0001FAA0670011E4A6013E4FCFDC3ED947417
:103A0000EC940250EA0DBD00010C80F02290002CD5
:103A1000E024FE601814604114605714607A14703A
:103A20000241E82405600241EF7F0241ED90002D44
:103A3000E0601AD1EB90038D7401F078477C00FDB3
:103A40007BFF7A1379667E027F0012069E90002823
:103A5000E0700241EF7F0341ED90002DE06002D164
:103A6000EB900029E0700241EF7F04D132E4FF02C5
:103A70007153124C6B124AAA127AACF1DFEF606FED
:103A8000123761127B04124976126D631270901224
:103A9000321AF1477F05805590003EE06401704F77
:103AA0007F01D120E4FB7D0C7F221224EC7F225188
:103AB000F07B017D0C7F211224EC7D017F2171447C
:103AC0007FC87E0031EF312F7B017D0C7F1D1224DA
:103AD000EC7F1D51F090002EE07005F1291270C6A8
:103AE0007F0151FA7F06800512796F7F07D132225C
:103AF0007D0171447F327E0021EFEF6401702B7FE6
:103B000001D12090003FE090F989700FE054DFF080
:103B10004410F07BFF7A18799C8020E04420F05418
:103B2000EFF07BFF7A1879A98011E4FFD12090F99A
:103B300089E054CFF07BFF7A1879B67F010234C94F
:103B40007D017F09EF120A973BB5003BC6013BD7C9
:103B5000023BE8033BF9043C0A053C1B063C2C07EE
:103B60003C3D083C4E093C5F0A3C700B3C810C3CE0
:103B7000920D3CA30E3CB40F3CC5103CD6113CE763
:103B8000123CF8133D09143D1A153D2B163D3C1708
:103B90003D4D183D5E193D6F1A3D801D3D911E3D06
:103BA000A21F3DB3203DC4213DDB223DF2233E094F
:103BB0002400003E1F90A385E04480F0ED6002C128
:103BC0001390A385C11B90A37FE04402F0ED600237
:103BD000A1CE90A37FA1D690A389E04402F0ED602E
:103BE00002A1CE90A389A1D690A388E04402F0ED73
:103BF0006002A1CE90A388A1D690A388E04408F0EB
:103C0000ED6002A1E590A388A1ED90A388E0442097
:103C1000F0ED6002A1FC90A388C10490A388E04469
:103C200080F0ED6002C11390A388C11B90A387E0D0
:103C30004402F0ED6002A1CE90A387A1D690A387A5
:103C4000E04408F0ED6002A1E590A387A1ED90A308
:103C500087E04420F0ED6002A1FC90A387C10490AE
:103C6000A387E04480F0ED6002C11390A387C11BDD
:103C700090A386E04402F0ED6002A1CE90A386A15D
:103C8000D690A384E04402F0ED6002A1CE90A3841C
:103C9000A1D690A384E04408F0ED6002A1E590A3D2
:103CA00084A1ED90A384E04420F0ED6002A1FC909B
:103CB000A384C10490A382E04402F0ED6002A1CE8F
:103CC00090A382A1D690A382E04408F0ED6002A107
:103CD000E590A382A1ED90A382E04420F0ED600284
:103CE000A1FC90A382C10490A382E04480F0ED6027
:103CF00002C11390A382C11B90A381E04402F0EDA6
:103D00006002A1CE90A381A1D690A381E04408F0E7
:103D1000ED6002A1E590A381A1ED90A381E0442094
:103D2000F0ED6002A1FC90A381C10490A381E04466
:103D300080F0ED6002C11390A381C11B90A380E0CD
:103D40004402F0ED6002A1CE90A380A1D690A380A2
:103D5000E04408F0ED6002A1E590A380A1ED90A3FE
:103D600080E04420F0ED6002A1FC90A380C10490AB
:103D7000A380E04480F0ED6002C11390A380C11BDA
:103D800090A37EE04402F0ED6002804290A37E802A
:103D90004590A37EE04408F0ED6002804890A37E49
:103DA000804B90A2A5E04402F0ED6002802090A23A
:103DB000A5802390A2A6E04402F0ED6002800F905F
:103DC000A2A6801290A2C9E04402F0ED6005E04492
:103DD00001F02290A2C9E054FEF02290A2C9E04472
:103DE00008F0ED6005E04404F02290A2C9E054FB25
:103DF000F02290A2C9E04420F0ED6005E04410F00C
:103E00002290A2C9E054EFF02290A2C9E04480F0D1
:103E1000ED6005E04440F02290A2C9E054BFF022DA
:103E2000EF6401700790F9BF74FFF022E490F9BFCE
:103E3000F022900262EFF090002CE06F602490027C
:103E400062E0640570057F031276E790002D74012F
:103E5000F0900262E090002CF07BFF7A1179A212C0
:103E600034C32290026174FFF090002CE0D312570B
:103E70000E400A900028E070047F02D13290002C9E
:103E8000E0D3124CD9400A900029E070047F03D19E
:103E90003290002CE0F1D7403A90E0B0E0FDE4FF32
:103EA000127A9CEF701290003EE064017025F0FFE2
:103EB000D120E4FF51FA801B90003EE07015D1E460
:103EC000F1D8500280027F05900261EFF090003E31
:103ED0007401F0900261E0FFF46002D132227BFFB6
:103EE000FF122EC0900261E0FFC322E4F0FF51FAFE
:103EF000E4FFEF64017B0170297D0C7F0F1224EC3D
:103F0000E490F31CF090F1A5E044C0F090E6E47476
:103F100002F090E6E6E04403F054F3F01D7F0F0258
:103F2000276EE4FD7F0F0224ECF135F14190F9ABEF
:103F3000E0442031EA90F9ABE054DFF0227F03F156
:103F4000737F057E0021EF900261120A31000000AC
:103F5000007D31F13DF1A77A137931F1B47F01127F
:103F600034C97D30F13DF1A77A13794CF1B47F016A
:103F70000234C9127C726013146018146020240388
:103F8000702490026DE090C740F0227BFF7A157993
:103F90006680067BFF7A15797CE4FF022EC09002D2
:103FA0006DE090E690F022E4FD7F03122D849002F4
:103FB00061020A257BFF900261120A0D90028102C4
:103FC0000A25510DC1633122E490F96DF090F96E2C
:103FD000F022900263E0FFC394057480948022E491
:103FE000900261F090A200E054EFF012408290E164
:103FF0000FE054EFF090E26331E7124082440FF09B
:1040000090E10FE044101239EA90E263E0440811B5
:104010008A900261E004F0123F41124CD4500A90A1
:10402000E26DE05402C31370E890E26DE054036463
:104030000260087BFF7A1A796D801C7A1A797F906A
:10404000E2281234C090E228E054041313543F7B5A
:10405000FF700C7A1A799A7F031234C97F00227A92
:104060001A79A990E274E0900281F090E275E090F4
:1040700002821237ED90A210E0547FF04480F07F6E
:10408000012290E107E054F0F022F07F027E00026E
:1040900039EFE4900261F0900264740CF078657C72
:1040A000027D017BFF7A1D7980D18A78697C027D4F
:1040B000017BFF7A1D7984D18A786D7C027D017B3A
:1040C000FF7A1D7988D18A78797C027D017BFF7A1D
:1040D0001D798CD18A787D7C027D017BFF7A1D79E8
:1040E00090D18A78817C027A1D7994D186E49002FD
:1040F00062F0900262E0FF7E00D1EB505AF183FE45
:104100007B0174F32FF974F13EFAD1AF900262E0B3
:10411000FD25E0248DF582E43402125F57EDF1B6FF
:10412000FF127938D170EFF0EEF1B6FF1278FFF19F
:1041300092F582E43402F583EFF074712ED177E0CA
:10414000FFD1A3C39FFF900261E0FEEFC39E400337
:10415000EF04F0D17F809B7BFF7A1C793CE4FF1257
:104160002EC0E4FF12656E7F01F10BE4900263F054
:10417000900261E02403FFE433FE900263E0F1ACBF
:10418000400281E27BFF7A1C794890F1E1122EB95E
:10419000126580EF64017003FFE10B7F07122D07AA
:1041A000E4900262F0900262E0FFC3782996400238
:1041B000419ED15454017070900262E0FFD175E0CD
:1041C000FD74752FD1A6C39DFFE49400CF2401CFC9
:1041D0003400F182FE900262E0D165FDF1AC400254
:1041E000419A900262E0D175E075F002A42DF19A37
:1041F000E582245FF582E583341DF1C6747D2CD100
:1042000067FFD170E075F002A42FF19AE582243E99
:10421000F582E583341DF583E493FDEE25E0FFE4AC
:1042200033FEF18AFAED806F900262E0FF2479D1CB
:104230005754027065F192D1A6F90425E0FDD1C36F
:10424000E0FEC3ED9EFE747D2FD167FDC39E504AF4
:10425000E975F002A4C39DFFE5F09400FE74612FA0
:10426000F582741D3EF1C674752CD1A675F002A4BA
:10427000FFD160FBC3EF9BFFE5F09400FE74402F7D
:10428000F582741D3EF583E493FCED25E0FFE433F5
:10429000FE7B01F18AFAEC12070AD17F21A5F121F8
:1042A0001239EB7F0FF1A2E4900262F0900262E01B
:1042B000C3943274809480400261501239EB7B01C8
:1042C0007AF179CCD1AF900285EEF0A3EFF07AF1DC
:1042D00079CED1AF900287EEF0A3EFF07AF179D0EA
:1042E000D1AF900289EEF0A3EFF07AF179D2D1AF9D
:1042F00090028BEEF0A3EFF0E4FFEFD1EB5037D15B
:1043000054FE30E10D74792FF582E43402F583EE2A
:10431000801EEFD1FBFDD39401EC94805007D15463
:10432000547FF0800ED3ED9401EC94804005D1547D
:104330004480F00F80C4900279E030E70FA3E030B2
:10434000E70AA3E030E705A3E020E704D17F41AC12
:104350007A1C795C900285127B42900287127B580E
:10436000900289E0FFA3E090029ECFF0A3EFF090CF
:10437000028BE0FFA3E09002A0CFF0A3EF1222DFB8
:10438000E4900262F07829E6FF900262E0FEC39FAB
:104390004002819DD1C3E0F46002811E900262E080
:1043A000D1FBD39401EC9480503D74812ED198E0E0
:1043B000FE90026230E023E0FD2479D1574401F001
:1043C00074712DD177E025E0FD900262E0FCD165AB
:1043D0002DFD74692CD1C6ED8031E0FDD196EE44FF
:1043E00001F0747D2D8167D191E020E0028190740D
:1043F000792ED1574401F074712ED177E025E00475
:10440000FED1602EFE74692DD1C6EEF0900262E0FE
:10441000247DF582E43402F5837401F0807B900200
:1044200062E0FE246DD1F3E0F4706EEED1FBD39424
:1044300001EC94805037900262E0D196E0FD30E1CB
:104440001D74792ED157D1A025E02402FE9002627E
:10445000E0FCD165FBC3EE9BFE746D2C802CD191EA
:10446000ED4402F0747D2ED16714F0802CD191E0E0
:1044700030E11D74792ED157D1A025E02402FED160
:104480006004FCC3EE9CFE746D2DD1F3EEF0800948
:10449000900262E0D1652402F0D17F61857E00EF59
:1044A00064017007900279E020E137EF64024E70FA
:1044B0000C900279E030E105A3E020E1257829E6BF
:1044C00064047016900279E030E10FA3E030E10A55
:1044D000A3E030E105A3E020E108900263E004F0EE
:1044E00021707BFF7A1C7983900269E090029AF038
:1044F00090026AE090029BF090026BE090029CF0C8
:1045000090026CE090029D1222DF7BFF7A1C79B151
:1045100090026DE090029AF090026EE090029BF0A3
:1045200090026FE090029CF0900270E090029D1269
:1045300022DFE4900262F0900262E0FFC3782996E5
:104540005046D154FF5401602FEF54027006900280
:1045500069E08020900262E0FF246DD1F3E0FD74F9
:10456000692FD1C6E02DFFE433CF2401CF3400A260
:10457000E713EF13D1DCEFF0D1DDE0FFF46005903D
:104580000264EFF0D17F80AFE4900262F0900262AB
:10459000E0FFD1EB501574652FD1E3E0F470089083
:1045A0000264E0D1DCEFF0D17F80E2900265D1D5EA
:1045B00090F17DD1CE90F17EF0900266D1D590F150
:1045C0007FD1CE90F180F0900267D1D590F181D16A
:1045D000CE90F182F0900268D1D590F183D1CE9047
:1045E000F184F07F0FF1A2118B7B017AF179CCD1AC
:1045F000AFBEFF10BFFF0DF1217BFF7A1C79DFE416
:10460000FF122EC0E4FFF10B7BFF7A1C79EB90F1D7
:104610007EE090029AF090F180E090029BF090F1A1
:1046200082E090029CF090F184E090029D1222DFE3
:104630007A1D791690F1DD127B8590F1DEE0900213
:104640009BF090F1DFE090029CF090F1E0E09002AE
:104650009D0222DF74792FF582E43402F583E02293
:10466000900262E0FD247DF582E43402F583E022CD
:10467000900262E0FE2471F582E43402F583229018
:104680000262E004F0227D017BFF7E007F040206CF
:104690009E900262E0FE2481F582E43402F58322DA
:1046A0004402F074752EF582E43402F583E0229022
:1046B00000011206DDFD7C001206C4FEE42DFFECB5
:1046C0003EFE2274692EF582E43402F58322F0EF77
:1046D000901D3E9322E0FF901D5F9322FF900262A7
:1046E000E02465F582E43402F58322C394047480E7
:1046F000948022F582E43402F5832225E02485F5B6
:1047000082E43402F583E0FCA3E022EF640190F13F
:104710008A7005E04402F022E054FDF022E6447085
:10472000F67828E6FF90037EEF125FD990E10D1234
:104730007C8AFD90E10CE054F0F0ED54E190E10D45
:10474000F090C903E0540FF07F0A7E0012783A908F
:10475000037EE0C39414748094807F2740027F37E7
:1047600090A138EF127C8290E10CE0440FF090E1D0
:104770000DE0441EF090C903E044F0F0E490A14441
:10478000F022FEEF25E0FFEE3322747E2FF974F164
:104790003E22900262E0FE247522F582E435F0F5B7
:1047A000832290F1A5E04FF054F0F022C39FEE6415
:1047B00080F87480982225E0248DF582E43402F597
:1047C00083E0FEA3E022F583E493FD900262E0FC27
:1047D00025E0FFE433FE7B01747D2FF974F13EFA8E
:1047E000ED02070A1222E50192124FE3123FC29036
:1047F000E0B1E0FB6432600280027B3212480812B2
:1048000036AA1227050238187D017F0A900261EF4F
:10481000F0A3EDF0A3EBF0D3946474809480400B8C
:104820007BFF7A2279547F010234C9900263E0FF52
:104830009003B0E06F700201BA900263E09003B0A1
:10484000F07BFF7A22796890028111CE900262E0BB
:10485000FBE4FAF9F87F807EBBFDFC12115E90024A
:1048600064EEF0A3EFF0900263E0FB64647009A3D0
:10487000E0FFA3E0A3CF801090026412368B7D642A
:10488000120750EB51A4A3EEF0A3EFF07F0A127CC5
:104890001DFD7F0A12276E900261E024F760171455
:1048A000601024FE600824FE701011BB802611BB2E
:1048B000807211BB214911BB11F722900264E0FE06
:1048C000A3E0FFA3E0FCA3E0FD22E090028BF07FD9
:1048D000010234C990E610311A90E611F0EA90E630
:1048E00012F090E613EBF0E490E614F0EC90E6158D
:1048F000F090E616EDF02290E652311A90E653F071
:10490000EA90E654F090E655EBF0E490E656F0ECD1
:1049100090E657F090E658EDF022AB07AA06E04487
:1049200010F0E42290E626316EF0E490E627F0EAFB
:1049300090E628F090E629EBF0E490E62AF0EC907F
:10494000E62BF090E62CEDF02290E63C316EF0E4A0
:1049500090E63DF0EA90E63EF090E63FEBF0E49022
:10496000E640F0EC90E641F090E642EDF022AB0735
:10497000AA06E04410227F01123E20126D6F9000C3
:1049800032E0FF126DB8900032E0FF126DE6900049
:1049900033E0FF126DF07BFF7A1279C5900032E0B0
:1049A000900281F0900033E090028211CE519C90F1
:1049B000002AE0FF126E0690003DE0FF515090A3E8
:1049C0007BE054FBF090002BE0600C90A37BE04474
:1049D00004F07F01126E377F01126E8190002EE08D
:1049E000FF126E4790002EE0FF126E57718A71928F
:1049F000719AE4FF1270F4E4FF126E6F900034E0DD
:104A0000FF126E9390002FE0FF7E3E7D21E4FCECD0
:104A1000912D502BEC915CB50722EC75F005A42488
:104A200003F582E43400F583E0FEEC75F005A42480
:104A300002F582E43400F583E0FD80030C80D0AF02
:104A40000690F986E054C0F04FF090F988EDF0221E
:104A5000900261EFF06401700D51944401F07BFF0E
:104A60007A19795A8028900261E06402700D51949D
:104A70004402F07BFF7A1979838013900261E0642D
:104A800003701090F99771A27BFF7A1979ACE4FF5B
:104A90001234C92290F997E054FCF02290F9AA74DC
:104AA000AAF022E0FD7C0002073E90002EE070217B
:104AB000122D64120871C006C007900033E0FF9009
:104AC0000032E08FF0A4AEF01234B9D007D00680E7
:104AD00035E4122D64120871E47B07FAF9F8120824
:104AE00071C004C005C006C007900032E075F01028
:104AF000A4FFAEF0A351A3AB07AA06E4F9F8D007D0
:104B0000D006D005D0041208FC7178900034E06023
:104B10000DA3120A0DEF2438FFEE34C18004717E1C
:104B20003438717090002AE06011717E34387170F1
:104B30007BFF7A12792D7F011234C97F807E1A7D26
:104B4000067C00900035122CFA500A900035120AAB
:104B50003100061A807FE07E327D297C009000358E
:104B600012374D400A900035120A31002932E022F6
:104B7000FEED3401FDE43CFC900035020A25900076
:104B800035120A0DEF2480FFEE2290F96FE04410F9
:104B9000F02290F900E04404F02290F900E0440192
:104BA000F022E054FCF04403F02290A300E0547F94
:104BB000F0FD90A302E04401F0ED444090A300F02A
:104BC00090E2897420F0E4900261F090E289E05470
:104BD000BFF0FD90E10971A2ED444090E289F0122E
:104BE0003F4191D4500890E293E0544060DD90A39F
:104BF00000E054BFF090E6E9E04460F090C74674EE
:104C0000BBF090C7477480F090E2A174BBF090E2D3
:104C1000A27480F090E69674BBF090E6977480F0F2
:104C200090ED3874BBF090ED397480F022C3940895
:104C300074809480227E18E4FDED912D501BED913F
:104C40005CB50712ED75F005A42401F582E434008B
:104C5000F583E0FE80030D80E0AF062275F005A429
:104C60002400F582E43400F583E0229000337404DC
:104C7000F0E490002AF090003D7402F0E490002EE1
:104C8000F0A37402F0900032F090003414F0900021
:104C90002FE0FF9135900031EFF0E490003EF0A35B
:104CA000F091E0123FAEE4FFFEFDFC900261122C99
:104CB000FA600C900261120A0D900039120A2590D8
:104CC000002EE06401700C900033E0D391D94003D2
:104CD0007403F022900261E0C394037480948022F4
:104CE000900265120A3100000000E4900269F07D34
:104CF00014123F3D900269E0123FD750237F031208
:104D00007106EF6401700EFD7F03122D8490026521
:104D1000120A25800B1239EB900269E004F080D46E
:104D2000900265020A0D90038591D7403A90038B5B
:104D3000E06401701BB16EEF702D7A1E79B8B16816
:104D40007F03B179122F49E490038BF07F02801426
:104D5000B16EEF640170107A1E79C5B16890038B53
:104D60007401F0FF12000E227BFFFF022EC01261C1
:104D700027700302615E7F0022900385E0FE6F6072
:104D800036900262EEF0900385EFF090038C740190
:104D9000F07BFF7A1E79A990029A125ECB90038570
:104DA000E0641070057F0312000E900262E0641050
:104DB00070057F0412000E2290026174FFF09003D0
:104DC0008BE07002E168900385E0D31246EC401A54
:104DD00090038DE07014122F49123EE41246EC50FD
:104DE0000280027F04900261EFF0900385E0D3948B
:104DF0000674809480401612609AEF6401700E7BF6
:104E0000FF7A1E79E1FF122EC07F06B179900385EB
:104E1000E0640A7028126612EF7022782912600985
:104E2000401B7BFF7A1E79F1E4123EE09409748006
:104E30009480500280027F09900261EFF090038518
:104E4000E0D3940B74809480405912681CEF640185
:104E500070147A1E79FE123EDEF169500280027FE4
:104E60000A900261EFF0126502EF640170147A1F7C
:104E70007912123EDEF169500280027F0A900261CF
:104E8000EFF0122FF59003ACE06F60177BFF7A1FF5
:104E9000791EE4123EE0F169500280027F0A90021E
:104EA00061EFF0900385E0D3940D748094804023EB
:104EB000126943EF60061268C2EF70177A1F7928F3
:104EC000127B51123EE4F169500280027F0A900287
:104ED00061EFF0127C26403C12603F125ED2EF641C
:104EE00001700F1279F37A1F7932127C547F0E12FF
:104EF000000E126556EF701C7BFF7A1F793D7F0311
:104F0000123EE1940974809480500280027F0990DF
:104F10000261EFF0900385E0C3F1724041900261BD
:104F2000E0F17240397F0412644BEF640170097F35
:104F300004F1D97F0D12000E7F0312644BEF640160
:104F400070097F03F1D97F0B12000E7F0512644BAD
:104F5000EF640170097F05F1D97F0C12000E9002F9
:104F600061E0FFF46002B17922940A748094802297
:104F7000E0D39410748094802290F1CCE06480702F
:104F80000790F1CDF17040037F0022EFFD7C00C35C
:104F900012570E401290F1CEE06480700790F1CF6E
:104FA000F17040037F0022C3ED9404EC6480948090
:104FB000402490F1D0E06480700790F1D1F170400E
:104FC000037F002290F1D2E06480700790F1D3F16A
:104FD0007040037F00227F012212639A9003947431
:104FE00001F022B126B1B802294E7F011257A1E487
:104FF00090F434F022E4780DF690F436E0541F7803
:1050000010F690F426E018F690F432E0540F78325F
:10501000F6E008F6E008F6E004780DF67810E612FF
:1050200046EB4026780DE6124F7140022152E4080B
:10503000F6780EE6FFC31896501490F432E0FE7432
:10504000352FF8A606780E0680E7E4780DF6E4FF23
:10505000F1A1780FE67002212324F0700201EE2402
:10506000D0602D24F0606124C060172410600221FC
:1050700046780DE6FF31537832E6640F6002214234
:105080008068780DE6FF5138780DE6FF7191214A6E
:105090007834E6FD7C0064507017780DE66401708A
:1050A000257810E66405701ED1ED601AD1D2E48037
:1050B00012ED64304C700F780DE66401700878359D
:1050C000E660037825F6807A7834E6FB7A0064504F
:1050D000700B7810E66404700471B3806DEB645259
:1050E0004A70387810E6640470317F10805A783442
:1050F000E6FB7A006450700B7810E664047004716B
:10510000B38010EB64504A70127810E66403700BA1
:10511000FF718BE47856F608F6802F780DE6FFD104
:10512000FC80277834E664507018780DE6640170CE
:10513000117810E66405700AD1ED6006D1D2E478EA
:1051400025F6E4FF8002E4FF718B124FEAE4FF12C0
:10515000639A22F185E6FF640F7002412C90F103FF
:10516000EFF1B3F1955026EE601390F105E0F47085
:105170000690F104E004F090F105E004F07812E606
:105180002435F8E690F153F078120680D67832E6AE
:10519000706708E6640170617811F67834E6120AE7
:1051A0009751BD0051C80151D20251DC0351E704AF
:1051B00051EB0551EF0651F3070000522C7811E630
:1051C000FF12582B512D60647811E6FFF1CB512D61
:1051D000605A7811E6FFD159512D60507811E6FFE1
:1051E000125FE1512D6045512D6041512D603D51BF
:1051F0002D60397811E6FFE1C57832E6700808E6DF
:1052000064027002800E7832E6FF7E00700A08E6C3
:10521000642070047811F622EF4E70107833E66443
:1052200006700908E6700508E6FFF1D62290037CB7
:10523000E0FF781106E66F22F185E6640F700FE05B
:10524000FF7E007D007B007A007945020AEA783211
:10525000E690F103F1B3F1955028EE601390F1055B
:10526000E0F4700690F104E004F090F105E004F041
:1052700090F154E0FF7812E62445F8A6077812066C
:1052800080D47832E6706908E6640270637811F6BB
:105290007834E6120A9752AF0052BB0152C1025253
:1052A000CD0352D90452E50552EB060000537E7837
:1052B00011E6FFD1CB512D7002617E512D7002613C
:1052C0007E7811E6FF71E5512D7002617E7811E65E
:1052D000FF9156512D7002617E7811E6FFF1155154
:1052E0002D7002617E512D7002617E125816412D83
:1052F0007832E66002617E08E664206002617E78B2
:1053000011F67834E6120A97533900533C01533FA3
:1053100002534803534B04534E055351065354074D
:10532000535708535A09535D0A53600B53630C5388
:105330006C0D53750E0000537E78110678110671BE
:105340007F503BD1CB781106781106781106781181
:10535000067811067811067811067811067811067C
:10536000781106717F501771E5781106717F500E24
:105370009156781106717F5005F11578110622902B
:10538000037CE0FE7811E6FFD39E2290F433EFF029
:1053900022AE079003DCE06006E4F07F2080ECD1D1
:1053A000E47811E6FFC39E500974452FF8E6F18DAD
:1053B00080EF22780DE6FFD1E27811E6FFC39E5020
:1053C00018EF785726FDE41836FC74472DF58274E3
:1053D000003CF583E0F18D80E0AF067857EF26F6CC
:1053E00018E436F62291D17829E624FE602624FEC0
:1053F00060392403705F9169700B782CE654016466
:105400000170028036915A404C782CE6540F6407A4
:105410007043803D91697006D1DA7002801D915A07
:105420004033782CE66477702C802691697011D116
:10543000DA700D08E65411641170057822760122A5
:10544000915A4011782CE66477700A08E664777008
:105450000478237601229172808DC3EF9402EE646A
:105460008094802290037DEFF0782AE6FF7E00642E
:10547000012291647009E02445F8E6782DF6229126
:105480005A40457829E664047038782D761190F1F9
:10549000F7E0700690F1F8E0600A782DE644071214
:1054A00047208006D141E6782DF690F1F9E07006AC
:1054B00090F1FAE06007782D12471D800BD141E68C
:1054C0008001E4782DF68000782DE6FFD141A60713
:1054D0002291647009E02445F8E6782CF622915A6E
:1054E0005002A16A782C760190F1F3E0700690F1F9
:1054F000F4E06042782CE6440712472090F1F1E096
:105500005401702B9003DBE0700F7826E6700A7F61
:1055100001D1B97D017F03B18D9003DBE0C3940617
:1055200074809480501BE004F0A37401F08012E4B6
:105530009003DBF0800BE49003DBF0D141E6782CA4
:10554000F67829E6C3F10E4021782CE64410F69057
:10555000F1F5E0700690F1F6E06007782C12471D37
:105560008008D141E6782CF68000782CE6FFD14106
:10557000A60722B18D7D020FB18D7D0F0FB18D7DFC
:10558000040FB18DE4FD0FB18D0FB18D0F90F105BA
:10559000EFF090F153EDF0227901900264E07F008A
:1055A00060027F01AE07900265E07F8060027FC0ED
:1055B000AC07900266E07F0060027F80AB07E4FFEB
:1055C000D1B97D12D1C4641E70057D140F8007907F
:1055D000026AE0FD7F01B18D90026BE04CFD7F021D
:1055E000B18DEB4E0FD149AD010FB1737D810FB17C
:1055F0008DE4FD7F21B1877F60B1877D087F80B119
:105600008DE4FD7F90B18D7F01D1B97F0AB18D7F8F
:1056100022D1B97D14E4FFD1C4FD0FB18D90026B8E
:10562000E04CFD0FB18DAF06EB4F7F03D149AF01C9
:10563000AD077F07B1737D810FB18D7D087F10A10C
:105640008D90037DE02445F822FDB18D7D010FB1E1
:105650008D1D0FB18D0D0FA18D74352FF8E6540FF0
:10566000782AF664017045792BE766601E122D01D9
:10567000E4FD7F03B18DE4FD7F04B18DE4FD7F0582
:10568000B18DE4FD7F06B18D1247217F01126012BA
:1056900078267601E47822F608F608F67F0112658E
:1056A0006EE4FF12470B782AE608F622782AE6FF16
:1056B000C3F10E400308A60722E490F103F090F135
:1056C00004EFF022B18D90026AE02274452FF87643
:1056D0000122785646F608E6F622782CE654116444
:1056E0001122AE07E4FF718BE47811F6227835E6DB
:1056F000FF7856760008A6077825E622D1E27811D1
:10570000E6C39E5008E490F433F00680F122940240
:105710007480948022AE07782AE6FD7C00640170D4
:10572000059003DAF022C3ED9402EC64809480408B
:10573000367823E664016007F1E1EF6401701F90A1
:1057400003DAE004F078237601E06401700974451F
:105750002EF8740146F62274452EF876012274451F
:105760002EF874FE56F622782AE6701808E6C3F181
:105770000E40117823E664017F8070027F0174453A
:105780002EF8A6072290037CEFF078322290F433B3
:10579000F07811062290037CE0FF7812E6FEC39FAA
:1057A00022EF640190A3587005E044B0F022E05469
:1057B0000FF022F008E690F104F008E690F105F011
:1057C000E47812F62290037DEFF02274352FF8E68C
:1057D000541F7929F722EF640270057F05122D0707
:1057E00022E4FF7829E624FE601524FE601E2403CF
:1057F000702390F1C9E05411641170197F01229057
:10580000F1C9E054336433700C7F012290F1C9E098
:10581000F470027F0122782AE66401700D7826E692
:1058200070087822E670031247212274352FF8E6BB
:105830007828F6FF1261B77828E6FF119C7828E6F1
:10584000FF12624D7828E6FF11567828E6FF1262B3
:105850002AE4782BF622EF24F6601624F6601C2446
:10586000F660222418702D11957BFF7A2179D28061
:105870001C11957BFF7A2179D8801211957BFF7AD4
:105880002179DE800811957BFF7A2179E47E007F03
:105890000612069E2278027CA17D0122EF24F6608A
:1058A0000C24F6601624F660232418703490A1317D
:1058B000740871A990A13A7402801F11E211F4904A
:1058C000A13A7412F090A13B74A7F02211E2F0907B
:1058D000A1397404F090A13A7448F090A13B748708
:1058E000F02290A1317408F090A1337464F090A17B
:1058F00038743722F090A1397406F02290A130E07C
:10590000547FF04408F04404F054FC71A990A13E87
:10591000F090A1427480F0E490A13B127C8290E36D
:1059200000E054FDF090E3017420F0E490A132F027
:1059300090A138742711F490A13B7487F090A14393
:10594000E04430F07480443090A144F0742044016D
:1059500090E301F090E3097403F0715790026274D0
:1059600002F0E4F0900262E0FB1246EB4002611F9D
:10597000714FEB14601114601714601D2403702024
:1059800090E30AE0F0801990E30AE04440F08010D0
:1059900090E30AE04480F0800790E30AE044C0F01E
:1059A0009002617403F091C1EF603890E105E0541A
:1059B000FCF090A130E054BFF090E300E054FE1200
:1059C00039EA90E105E04403F090A130E04440F072
:1059D00090E300E0440112408A90E324E054036421
:1059E0000270C3715FE0440CF090E329E090E32A79
:1059F000122354900266F0A3EFF0E4900263F012D9
:105A00003FD2400241A9900262E014600E14600F80
:105A10001460102403700E716A800A7198800671F8
:105A20008780027176E490026AF0A3F0900264F03D
:105A3000A3F0900265E0C394647480948050621275
:105A400039EB900265E004F090E326E0FE90E32756
:105A5000122355FE900268F0A3EFF012320C9CFE68
:105A600012002EC3EF9480EE648094805010900258
:105A700068E0FEA3E0A3D1FD900264E004F0900290
:105A800064E0640870ACF14F7803CEC313CE13D832
:105A9000F9FF900263E025E0246CF582E43402F122
:105AA00057900263E004F021FF74FF900276F0A3A8
:105AB000F0E4900263F0123FD25056EF1231FC9C9A
:105AC000FE12002ED3900277E09F900276E09E4077
:105AD00038900262E01460131460141460152403FB
